:020000040000FA
:0600000002010A021D6668
:03002B000221D4DB
:030033000221B6F1
:03003B000221EDB2
:0300430002216A2D
:03005300021DDCAF
:03006B00022190DF
:10008300021C57E5C754F84401F5C7790122000063
:100093000080FB120086B900030200F4E4792178A2
:1000A30008B800028004F709D8FCE479297802B87B
:1000B30000028004F709D8FCE490028178507909A2
:1000C3008002F0A3D8FCD9FA900AD0AA82AB83901D
:1000D300013A78BC79038015E493A3AC82AD838A9B
:1000E300828B83F0A3AA82AB838C828D83D8E9D9D8
:1000F300E775828D75839B740312011C758291755C
:100103008300740012011C75D00075813F7518813E
:10011300751902759F00020096C09FF59FE473D086
:100123009F22D083D082C09FE493C0E0740193C028
:10013300E0740293F59F22FF0000B400002800281A
:1001430000283075A000A000A000A000000800084F
:10015300E001F0001000100010001000100010006B
:1001630050005000500010001000D00700000000A5
:1001730000000F00010005003075070010000100AA
:1001830081FF0000FFF3051106F905FF02020208D3
:10019300025000A0000000E803024893010000326F
:1001A30093024693010000250B024093010000B225
:1001B30002024693010000260B023E93010000C891
:1001C30002024693010000270B024A93010000CA72
:1001D30002024693010000280B024E93080000CB55
:1001E30002024693010000290B0250930100002AEA
:1001F3000BFF0100FF2002489301000038930246E1
:10020300930100008E0B025893000000000002428D
:10021300930300001803230C230C230C230C230C3F
:10022300230C230C230C230C230C230C230C230C53
:10023300F30E0B0FED0EFFFF020202020202020297
:1002430002010D00000010010248930100003593E4
:10025300024693010000D10B026893010000780766
:10026300024693010000D20B026693010000E09165
:10027300024693010000D30B0262930100009D919B
:10028300024693010000D40B026093010000DD904D
:10029300024693010000D50B025C93010000A79076
:1002A300024693010000D60B025A93010000B99055
:1002B300024693010000D70B025693010000CB9036
:1002C300024693010000D80B025493010000AB9146
:1002D300024693010000D90B025293010000DA0B8E
:1002E30001053F10FF000130750302010600000005
:1002F30000000000000000000000000000000000FB
:10030300000000000000000000FFFF0600800CE872
:100313000309094C4F53542D424C450512500020FC
:1003230003020A000201060302F0FF4C4F53542D4F
:10033300424C4500000000000000000000000000E7
:100343008B130000911308436861726163746572D3
:100353006973746963203100104368617261637467
:100363006572697374696320320002489301000067
:100373003B93024693010000DF0C027293030000DB
:10038300C30A024493010000E00C024693010000FB
:10039300F10C026C93000000C90A024293030000AF
:1003A300CA0A024493010000F20C0000000000009E
:1003B300000000000000000000000000000000003A
:1003C300000000000000000000000000000000002A
:1003D300000000000000000000000000000000001A
:1003E300000000000000000000000000000000000A
:1003F3000000120125258E031201253C8E031201F4
:10040300256B8E03120125A48E03120125CC8E03C6
:10041300120125FA8E03120125118F0312012528DB
:100423008F031201253E8F03120125658F031201ED
:1004330025788F031201258E8F03120125A18F03C7
:10044300120125C68F03120125828C021201258118
:100453008D02120125B68D02120125D78D021201DC
:1004630025E78D02120125088E02120125148F0241
:10047300120125E18F02120125549002120125DA9F
:1004830090021201251D91021201255491021201BD
:1004930025DA9102120125AC92021201250A930278
:1004A3001201252293021201259C93021201259F1A
:1004B3009302120125A2930212012549940212010B
:1004C30025619402120125919402120125B194022F
:1004D3001201259F95021201255596021201251737
:1004E300DC021201253FDC021201256DDC02120140
:1004F30025A4DC021201250CDD0212012555DD02C3
:10050300120125A0DD02120125DEDD021201251BE9
:10051300DE0212012549DE02120125F0DE0212017C
:1005230025FADE0212012507DF021201253ADF0256
:10053300120125FCDF0212012508E0021201252029
:10054300E0021201252AE002120125C798031201D5
:1005530025D59803120125ED98031201250599036A
:10056300120125FDB1011201259BB20112012513D0
:10057300B30112012528B40112012562B40112014D
:10058300250BB501120125E0B50112012544B70180
:100593001201259BB70112012522B8011201250979
:1005A300B90112012556B901120125E4B90112015D
:1005B3002508BA01120125DDBB011201251EBC016C
:1005C30012012540BC01120125C1BC01120125AB5A
:1005D300BD0112012571BE0112012553C002120192
:1005E3002525C102120125CEC10212012511C20225
:1005F3001201259EC2021201252AC3021201250BF4
:10060300C4021201253AC40212012536C5021201A1
:10061300257EC50212012580C602120125C4C60229
:10062300120125EAC6021201254F9A031201251968
:10063300F1021201252FF10212012555F1021201D7
:10064300257DF20212012587F202120125E0F30251
:10065300120125E0F40212012585CD02120125BA0B
:10066300CE02120125EDCE0212012537CF0212016F
:1006730025F5D002120125789301120125DB9301A0
:1006830012012520950112012530950112012553F0
:1006930095011201259E9501120125439601120130
:1006A300253997011201250398011201257B990130
:1006B300120125BD99011201255B9A01120125A89A
:1006C3009A01120125CE9A01120125BC9C01120147
:1006D30025C19C01120125A29E01120125F69E014E
:1006E300120125589F01120125809F011201252423
:1006F300A001120125E6A00112012517A101120193
:10070300251AA10112012562A101120125A4A1014B
:100713001201250BA201120125DE8503120125F129
:1007230085031201250A860312012555860312014A
:1007330025308703120125BF87031201250A880389
:100743001201256022001201256C2200120125A549
:100753002200120125EA2200120125A12300120121
:10076300252724001201258C2400120125B824001A
:10077300120125F12400120125052700120125E1AC
:100783002800120125CC2A00120125032C00120196
:1007930025632E001201254F2F00120125953000ED
:1007A300120125A23100120125BF3100120125F7E4
:1007B3003100120125113200120125793200120194
:1007C30025133700120125B437001201250538001F
:1007D3001201252C38001201257A380012012598C0
:1007E3003800120125EC3800120125C53900120129
:1007F300254C3B00120125D43B001201256DD70285
:1008030012012577D70212012542D8021201255D74
:10081300D80212012583D802120125C7D80212017A
:1008230025FFD80212012528D902120125A1D902D8
:10083300120125B6D902120125CBD90212012502D4
:10084300DA0212012516DA0212012547DA02120131
:100853002581DA02120125ADDA0212012503DB023A
:1008630012012557DB02120125A0DB02120125CA62
:10087300DB02120125EFDB0212012549E902120115
:100883002513EA02120125F6EA021201256CEB0296
:10089300120125AEEB02120125DBEC021201250049
:1008A30080021201252980021201254280021201D1
:1008B30025878102120125658202120125848202A5
:1008C300120125118302120125548302120125A16D
:1008D3008402120125408502120125BF87021201FD
:1008E300255688021201252A89021201250C8A0243
:1008F300120125788B021201250B8C02120125B9F6
:1009030095031201252296031201257696031201FF
:10091300259D9603120125BFE0021201252CE10259
:1009230012012577E1021201256CE202120125680A
:10093300E30212012552E40212012561A002120111
:1009430025A3A0021201257DA10212012556A202B0
:1009530012012551A30212012530A4021201259C84
:10096300A40212012563A502120125CEA5021201DC
:100973002535A60212012560A602120125D1A60281
:1009830012012564A702120125CDA702120125E257
:10099300A7021201252AA80212012543A802120167
:1009A30025A8A802120125ABA80212012500800385
:1009B30012012528800312012566800312012524D4
:1009C30081031201258F8103120125AB81031201DB
:1009D30025D3810312012503820312012512820309
:1009E3001201258C8203120125B28203120125D53F
:1009F300A20112012572A40112012558A6011201B8
:100A03002522A70112012569A701120125B0A7011B
:100A1300120125C2A70112012502A80112012531E5
:100A2300A8011201257DA801120125B5A801120113
:100A330025E3A80112012534A901120125C3A90147
:100A4300120125B1AC011201258BAE01120125C79C
:100A5300AE0112012521B00112012568B001120176
:100A630025DDB0011201252BB10112012562B1016F
:100A730012012588F601120125A5F6011201253F71
:100A8300FC0112012541FD01120125BBFE011201EA
:100A93002569FF011201253B3C00120125843C001E
:100AA300120125B13C00120125E43C00120125F19D
:100AB3003C00120125FD3C001201250F3D001201EF
:100AC30025E43D00120125423E00120125773E0038
:100AD30012012513400012012560400012012584F4
:100AE3004000120125F14000120125964100120138
:100AF30025524200120125D14200120125954300DF
:100B0300120125A44300120125254400120125C426
:100B13004400120125F644001201259145001201FB
:100B230025EF4500120125294600120125AA46009A
:100B33001201257347001201251C4800120125A349
:100B43004800120125FB48001201255C49001201EF
:100B5300258549001201253B4A00120125854B00DA
:100B6300120125C84B00120125E54B001201250493
:100B73004C001201254F4C00120125744C00120148
:100B8300259D4C001201250C4D001201254E4D00F0
:100B9300120125524E00120125EC4E00120125B818
:100BA3004F00120125D14F00120125C096021201F8
:100BB300251397021201251F9702120125F49702AC
:100BC3001201251B9802120125569802120125C213
:100BD3009802120125F698021201252F990212019B
:100BE30025479902120125A09902120125B99902FC
:100BF300120125029A02120125159A021201252FCC
:100C03009A02120125459A02120125619B021201E3
:100C130025729C02120125BF9D02120125A49E028A
:100C2300120125FA7F00120125A2E901120125D63E
:100C3300E90112012541ED011201258BEE0112019B
:100C43002555EF01120125DFF001120125BAF1014B
:100C5300120125F4F10112012517F20112012559A0
:100C6300F20112012562F201120125ACF201120117
:100C730025B6F20112012562F30112012536F401B2
:100C83001201258AF401120125ECF4011201253F1A
:100C9300F5011201256EF501120125ADF5011201D1
:100CA300250350001201255D5800120125635800E9
:100CB3001201251E5E0012012504620012012504A3
:100CC300FC021201257AFC0212012590FC0212019A
:100CD30025CDFC0212012505FD0212012582FD022C
:100CE300120125BDFD0212012538FE0212012574F1
:100CF300FE021201257DFE0212012589FE02120168
:100D030025A3FE02120125C8FE02120125DEFE0202
:100D130012012522FF02120125ABD202120125BEC8
:100D2300D202120125D8D20212012501D3021201E7
:100D33002544D30212012583D302120125C1D30214
:100D430012012526D4021201253BD40212012546A5
:100D5300D40212012553D4021201256AD4021201CE
:100D63002578D40212012583D4021201258FD402DF
:100D7300120125A2D402120125ADD402120125D0FD
:100D8300D40212012579D50212012589D502120157
:100D930025A3D502120125C0D502120125DCD502F7
:100DA30012012501D6021201250BD6021201251FBD
:100DB300D6021201253ED6021201259FD602120148
:100DC30025A5D602120125ABD602120125B1D60202
:100DD300120125BDD602120125F0D60212012529E2
:100DE300CF01120125ABCF0112012554D00112010D
:100DF300259CD101120125AAD30112012590D4010A
:100E0300120125C5D401120125E7D4011201259051
:100E1300D50112012560D70112012589D7011201DD
:100E23002501D80112012533D80112012540D8012B
:100E33001201258BD801120125AFD801120125001B
:100E4300DB011201250ADC0112012566DC01120116
:100E530025A6C001120125B7C1011201259BC201BC
:100E6300120125A5C201120125C7C201120125D312
:100E7300C20112012577C401120125A4C401120184
:100E830025BAC5011201250FC6011201255EC7014E
:100E930012012533C8011201258FC801120125FA59
:100EA300C8011201252FC90112012572C9011201BE
:100EB300253CCC0112012554CC01120125E5CC01BE
:100EC300120125F3CC0112012540CD011201254E5B
:100ED300CD01120125BACD0112012535CE01120132
:100EE300258CCE011201255F740012012581740047
:100EF3001201259276001201255179001201257BFA
:100F03007A00120125397B00120125257C0012018C
:100F1300256C8C03120125918C03120125078D0387
:100F230012012536B9021201253FB90212012548E3
:100F3300B90212012520BA02120125D1BB02120106
:100F43002501BC021201252CBC021201255CBC0246
:100F530012012587BC02120125BBBC02120125E741
:100F6300BC021201252ABD0212012555BD02120140
:100F7300259CBD02120125F1BD0212012533BE02DB
:100F83001201258DBE02120125B8BE0212012507EA
:100F9300BF0212012537BF0212012562BF021201EF
:100FA3002590BF02120125B3BF021201257D7F00E8
:100FB300120125A97F00120125D67F00120125E029
:100FC3007F00120125F07F0012012505B1021201F5
:100FD300250FB10212012550B10212012599B10268
:100FE300120125D3B10212012529B2021201254AA9
:100FF300B202120125F9B40212012502B50212014F
:101003002556B5021201257FB50212012589B502C5
:10101300120125F7B50212012587B602120125E256
:10102300B60212012510B70212012598B702120168
:1010330025D7B7021201250CB8021201251EB802EA
:101043001201253DB80212012546B80212012508F6
:10105300B902120125D097031201257B8A031201DD
:1010630025B18A03120125E58A03120125328C0377
:101073001201258BFF01120125A1FF01120125ABEE
:10108300FF01120125D89A0312012514E50212016A
:101093002527E502120125EBE5021201252AE602C6
:1010A30012012547E60212012580E602120125CD31
:1010B300E602120125FFE60212012536E7021201BC
:1010C30025709103120125939103120125C2910307
:1010D3001201255A9203120125729203120125B4BB
:1010E3009203120125FA82031201251F83031201C1
:1010F30025498303120125379B031201255D6200F5
:10110300120125FC6300120125A7640012012527A3
:101113006500120125AC6500120125D56500120199
:1011230025B06900120125276A001201253E6B00D4
:10113300120125786B00120125B96B0012012500FD
:101143006D00120125566D001201259F6D001201DD
:10115300250E6E001201257A6E00120125AB6E007A
:10116300120125C36E00120125DC6F00120125EC6C
:101173006F00120125A27100120125B9710012013D
:1011830025EB71001201258D7300120125217400D6
:101193001201259E9903120125AF9903120125E03F
:1011A3009B031201251F9C03120125EAFF02120172
:1011B3002552FF0212012562FF021201257AFF0266
:1011C300120125E0FF02120125CE960312012553D9
:1011D3009703120125B79703120125FD920312010C
:1011E300252693031201258E9303120125DF930312
:1011F3001201253A940312012535ED021201255AF5
:10120300ED0212012577ED0212012594ED02120180
:1012130025B9ED02120125DAED0212012504EE02D1
:10122300120125C1EE021201253FEF0212012566CC
:10123300EF0212012570EF0212012595F00212014F
:1012430025D29C03120125EAF4021201257AF50244
:1012530012012503F6021201259FF6021201253021
:10126300F702120125E0F702120125EEF70212013F
:10127300256CF8021201257FF80212012595F80268
:101283001201259FF802120125B2F80212012574FA
:1012930094031201257B9403120125FF9403120189
:1012A300250A95031201251595031201252F950390
:1012B300120125D88F031201252A90031201259DBF
:1012C30090031201250A91031201253488031201A8
:1012D300255E88031201252D8903120125098A033E
:1012E300120125CFA8021201259BA902120125DCB8
:1012F300A90212012516AA0212012574AA021201DB
:1013030025C8AA0212012526AB02120125BCAB0295
:10131300120125C4AC021201254EAE02120125ECC6
:10132300AE0212012553AF0212012566AF0212016C
:10133300255AB002120125A3B002120125B3DC0124
:10134300120125E5DF0112012576E101120125CD08
:10135300E101120125EAE1011201256AE20112010C
:1013630025E6E301120125B5E40112012522E80176
:101373001201250CE9011201255FC7021201251292
:10138300C902120125B8C9021201258FCA0212012E
:1013930025A3CB021201252CCC02120125AECC02CF
:1013A300120125F2CC02120125B5F802120125F62D
:1013B300F80212012513F90212012588F90212011C
:1013C30025DBF902120125C8FA02120125CBFB0223
:1013D3001201255F9C03120125299C031201258C10
:1013E3009C03120125B49C03E066701008A3E06619
:1013F300700A08A3E066700408A3E06622C3E796B8
:101403000809E7960809E7960809E79622C3E096D4
:1014130008A3E09608A3E09608A3E09622C008C3B9
:10142300E096F50808A3E096420808A3E096420870
:1014330008A3E09645087001D3D00822080808EAFB
:10144300C0E0EBC0E086F0E7A4FA180986F0E7A451
:101453002AFA180986F0E7A42AFA180986F0E7A4FD
:101463002AFA1986F0E7A4FBE5F02AFA190886F0B0
:10147300E7A42BFBE5F03AFA190886F0E7A42BFB67
:10148300E5F03AFA18180986F0E7A4C5F02BFBE457
:101493003AFA1908E7C5F0C6A426F6E5F03BFBE4E3
:1014A3003AFA1886F0E7A4F6E5F00826F6E43B08D6
:1014B300F6E43A08F6D0E0FBD0E0FA22E4CFC0E04D
:1014C300E4CEC0E0E4CDC0E0E4CCC0E075F020C3DE
:1014D300E633F608E633F608E633F608E633F6189D
:1014E3001818EC33FCED33FDEE33FEEF33FFC3ECA2
:1014F3009709ED9709EE9709EF97191919400FFF0F
:10150300EC97FC09ED97FD09EE97FE191906D5F046
:10151300BEECF709EDF709EEF709EFF7191919D042
:10152300E0FCD0E0FDD0E0FED0E0FF22601608082A
:1015330008C6C313C618C613C618C613C618C613DF
:10154300C6D5E0EA227009080808226016181818A0
:10155300C6C333C608C633C608C633C608C633C6B1
:10156300D5E0EA22E627F60809E637F60809E63762
:10157300F60809E637F622E026F608A3E036F60871
:10158300A3E036F608A3E036F622E026F008A3E04F
:1015930036F008A3E036F008A3E036F022C3E6975E
:1015A300F60809E697F60809E697F60809E697F6B6
:1015B30022C3E096F008A3E096F008A3E096F008B3
:1015C300A3E096F022E056F608A3E056F608A3E05F
:1015D30056F608A3E056F622E056F008A3E056F0CC
:1015E30008A3E056F008A3E056F022E0F608A3E0D3
:1015F300F608A3E0F608A3E0F622E6F008A3E6F077
:1016030008A3E6F008A3E6F022E0FAA3E0FBA3E0D8
:10161300FCA3E0FD22EAF0A3EBF0A3ECF0A3EDF0D2
:1016230022CAC0E0E6F0A308DAFAD0E0FA22CAC080
:10163300E0E0A3C582CCC582C583CDC583F0A3C535
:1016430082CCC582C583CDC583DAE6D0E0CA22C386
:10165300E498F8E499F91216938026C3E49AFAE41D
:101663009BFBE920E7E9121693E498F8E499F92241
:10167300C3E498F8E499F9121693E498F8E499F915
:10168300C3E49AFAE49BFB22EB20E7CFE920E7E0EF
:10169300B90010BB0008E88AF084F8AAF022E4FB42
:1016A300C8FA22EB70227B10C833C8C933C9335040
:1016B30007C39AC3DBF280069A50012ADBEAC833D8
:1016C300F4C8C933F4C9FA2275F008E4C833C8C9A9
:1016D30033C933C99AC99B5004C92AC93BD5F0EC15
:1016E300FBC833F4C8E4C9FA22600D08C6A2E713A5
:1016F300C618C613C6D5E0F322600C08C6C313C6CA
:1017030018C613C6D5E0F422700422600D18C6C3B0
:1017130033C608C633C6D5E0F41822251810AF081F
:10172300F518400215198008F51840021519D2AFB3
:1017330022C0D0251810AF08F518500205198008EB
:10174300F51850020519D2AFD0D0222518F5821012
:10175300AF08F518400215198008F518400215194D
:10176300D2AF851983222518F582E43519F5832232
:10177300E4732518C582C0E0E51934FFC583C0E0D2
:10178300E518C3958224F810AF088583198582185C
:101793008008858319858218D2AFCEF0A3E520F0A7
:1017A300A37808E608F0A3DEFAEFF0A3E58124FAB4
:1017B300F8E608F0A3E608F0A3E608F0A30808E6B5
:1017C30008F0A3E608F0A315811581D0E0FED0E070
:1017D300F8158115811581E8C0E0EEC0E0222518D7
:1017E300C582C0E0E51934FFC583C0E0E518C395A1
:1017F3008224F910AF0885831985821880088583B0
:1018030019858218D2AFCEF0A3E520F0A37808E6BD
:1018130008F0A3DEFAEFF0A3E58124FBF8E608F075
:10182300A3E608F0A30808E608F0A3E608F0A3156A
:10183300811581D0E0FED0E0F815811581E8C0E084
:10184300EEC0E022851983851882E0A3FEE0A3F5AC
:10185300207808E0A3F608DFFAE0A3FFE0A3C0E0E6
:10186300E0A3C0E0E0A3C0E0E0A3C0E0E0A3C0E0E9
:1018730010AF0885821885831980088582188583AF
:1018830019D2AFD083D082020122851983851882B1
:10189300E0A3FEE0A3F5207808E0A3F608DFFAE072
:1018A300A3FFE0A3C0E0E0A3C0E0E0A3C0E0E0A3A7
:1018B300C0E010AF088582188583198008858218D7
:1018C300858319D2AFD083D08222C0D02518C58298
:1018D300C0E0E51934FFC583C0E0E518C395822451
:1018E300F310AF08858319858218800885831985CD
:1018F3008218D2AFC8F0A3E9F0A3EAF0A3EBF0A3F8
:101903007908E709F0A3D8FAECF0A3EDF0A3EEF021
:10191300A3EFF0A3D0E0F0A3D0E0F0A3D0E0F0A3D6
:10192300E520F0A3E5F0F0A322851983851882E072
:10193300C0E0A3E0F9A3E0FAA3E0FBA37808E0F694
:1019430008A3DFFAE0FCA3E0FDA3E0FEA3E0FFA30E
:10195300E0C0E0A3E0C0E0A3E0F5D0A3E0F520A35E
:10196300E0A3F5F010AF08858319858218800885F8
:101973008319858218D2AFD082D083D0E0F8D0E02B
:101983003274048006740280027401C0E0F404120D
:10199300174ED0E0121624227404800474028000CF
:1019A300CCC0E0EDC0E0E518C39CCCAD1950011DDF
:1019B30010AF068C188D1980068C188D19D2AF12B2
:1019C3001631D0E0FDD0E0FC22D083D082E9C0E024
:1019D300E493A3C386F0C5F095F0F908E493A386D6
:1019E300F0C5F095F0700BE493A3C3994005E904A7
:1019F3008002A3E475F002A42582F582E5F0358325
:101A0300F583D0E0F9E493A3C0E0E493C0E022D0EF
:101A130083D082ECC0E0EDC0E0E493A3FCE493A3A5
:101A2300FDED4C600D121A5EEC24FFFCED34FFFD5E
:101A330080EFE493A3FCE493A3FDED4C600D121A35
:101A43009DEC24FFFCED34FFFD80EFD0E0FDD0E002
:101A5300FCE493A3C0E0E493C0E022C0E0C3E493BA
:101A630096087401939618400FE4936670080874FF
:101A73000193661870007019A3A3C3E493960874C6
:101A830001939618A3A3400DD0E0D0E0D0E0021A52
:101A93004EA3A3A3A3A3A3D0E022C0E0C0F088F089
:101AA300E4936670080874019366187000A8F0A3A5
:101AB300A3700BD0F0D0E0D0E0D0E0021A4EA3A385
:101AC300D0F0D0E02274F51217E1EAFEEBFFEE242A
:101AD30034F8EF3400F988088909EE2435121C0024
:101AE300F8EE2437121C00F50AEC850AF0A4FCAAD0
:101AF300F0850AF0EDA42AFDE82CF8E43DF97A25F7
:101B03007B00121693EA850882850983F05407F84F
:101B13007401B800028004C333D8FCC0E0E013139F
:101B230013541FF8EE28F8EF3400F9E8245DF5822A
:101B3300E93400F583D0E0F8E05860088508828531
:101B43000983801DEE2436121C00F5F0EA84A8F008
:101B5300EE28F8EF3400F9E82438F582E93400F58B
:101B630083E0F97F0402188D74F51217E1EAFEEBA6
:101B7300FFEE2434121C00C0E0EE2435F582EF346E
:101B830000F583D0E0F08E828F83A3A3A3A3A3E009
:101B9300FAA3E0FB8E828F83A3A3A3A3A3A3A3E053
:101BA300FCA3E0FDECC39AF50AED9BF50BEE248054
:101BB300F508EF3400F509850882F583E0640170C8
:101BC3002BEE2481F582EF3400F58312199F121C4A
:101BD300097402121734E960137CFD7D04EEFAEFF9
:101BE300FB120B51850882850983E4F0AC0AAD0B27
:101BF300EEFAEFFB121AC812215C021B66F582EFA4
:101C03003400F583E022C082C0838518828519835E
:101C1300E0F8A3E0F9C3EA9CEB9D5012C3EC98ED06
:101C2300994019C3EA98EB99501279018010C3EADD
:101C330098EB9940F5C3EC98ED9950EE7900D08379
:101C4300D08222EAC39CFAEB9DFB22000085218708
:101C53008522C622C0E074EF1218CD759B009061F7
:101C630082E0A2E64003021D18E591A2E6400302CA
:101C73001D187591BF9003C2E064057008120CEF44
:101C8300120CFB8003120CF5752100120D61E99013
:101C930003C3F07900120D55120ABB7A017B009041
:101CA30003C1E0F912102B907803E0644260030251
:101CB3001D6190055FE014F06003021D61C2AF1265
:101CC3001CC500782AD0E0F618D0E0F6E59F54074B
:101CD300F970059092DA80039092D678081215EE87
:101CE300E9C4C0E07829E65508F50808E65509F582
:101CF30009740B78081216FCD0E02508F89062707E
:101D0300E0A2E740F8E8C333906272F0906270E0BB
:101D1300D2E0F08049E0A2E55024E591A2E5501E0F
:101D23007591DF9003C2E0640D70139003E4E00447
:101D3300F064287002E4F07A00E0F9120DD39061A8
:101D430081E0A2E35009E5E9A2E3500375E9F7A3B3
:101D5300E0A2E75009E591A2E7500375917F7F0464
:101D630002192CC0E0C0D0C082C083906183E0A27E
:101D7300E05009E5BFA2E0500375BFFEE0A2E150C9
:101D830009E5BFA2E1500375BFFDE0A2E25009E5FA
:101D9300BFA2E2500375BFFBE0A2E35009E5BFA277
:101DA300E3500375BFF7E0A2E45009E5BFA2E45096
:101DB3000375BFEFE0A2E55009E5BFA2E550037547
:101DC300BFDFE0A2E65009E5BFA2E6500375BFBF3F
:101DD300D083D082D0D0D0E032C0E074F21218CDDC
:101DE300E5A7A2E4500FE5A1A2E4500953A7EF75BC
:101DF300A1EF121E30E5A7A2E5500CE5A1A2E55024
:101E03000653A7DF75A1DFE5A7A2E15009E5A1A26B
:101E1300E1500375A1FDE5A7A2E2500CE5A1A2E202
:101E2300500653A7FB75A1FB7F0102192C74F8120E
:101E330017E17521019003C2E0640670077A007B05
:101E430000120CD7A2AFE433FED2AF9003C8E06414
:101E53000170187A207B009003C1E0F91210AF7A69
:101E6300207B009003C1E0F9121031906182E0D22F
:101E7300E6F090055EE0602185C62280169003C7D8
:101E8300E064017008E5C654F84405F5C653BEFC8A
:101E9300121C507401652160E4EEA2E092AF7F0151
:101EA30002188D00008E238F248582288583278541
:101EB3001882851983E0CEA3E0CF85288285278306
:101EC300EBC9EAC8EDCBECCA75F010C3E833C8E937
:101ED30033C9EA33CAEB33CBC3EA9EF526EB9FF54E
:101EE30025B35004AB25AA26EC33CCED33CDD5F086
:101EF300DAAE23AF242274F11217E18A088B098C1E
:101F03000A8D0B740F121769780C1215EE90931A41
:101F130078081215C890931A780C1215C8780879A6
:101F23000C12140050157808790C1215A090930622
:101F33007808121420401579018013780C7908125F
:101F430015A0909306780C12142040EB79007F08BB
:101F530002188D74ED1217E18A088B098C0A8D0B18
:101F63007413121769780C1215EE90931A780812ED
:101F730015C890931A780C1215C8780C79081214A6
:101F83000040117808790C1215A0AA08AB09AC0A15
:101F9300AD0B8022751000751100751200751301C9
:101FA3007810790C1215A078107908121567AA1009
:101FB300AB11AC12AD137F0C02188D90931A7808F5
:101FC3001215EE8A828B8378081215DB7F040218C0
:101FD3008D74F51217E18C828D8378081215EE8AC1
:101FE300828B8378081215B4122028C3E098F0A3DB
:101FF300E09912201A401E9092FA78081215EE8A80
:10200300828B83780812158D8E828F83E02420F0D3
:10201300A3E0344EF080A4F08E828F83C3E094203B
:10202300A3E0944E22EA2404F8EB3400F9E8FEE935
:10203300FF8C828D83A3A3A3A3E0F8A3E0F98E8290
:102043008F832274F51217E1E9FE900514E0FAA3D9
:10205300E0FBEEC333F8E433F9745228F58274914C
:1020630039F583E02AF508A3E03BF509780812194E
:10207300889092F612160C121EA874021217348A54
:10208300088B098C0A8D0B7410780812152FAA0877
:10209300AB097F0402188D74F11217E18A0C8B0DC2
:1020A3008C0E8D0F740F121769E0FAA3E0FB741105
:1020B300121769E0F508A3E0F5097413121769E034
:1020C300FEA3E0FF7808121988EA2401F508EB342F
:1020D30000F509E4F50AF50B780C790812143F9022
:1020E30092F278081215EE780C790812143FAA0CB4
:1020F300AB0DAC0EAD0F121EA874021217348B0970
:10210300EA450960047A0180027A00EC2AFCED3486
:1021130000FDECF8EDF97A717B02121693880889B9
:1021230009E4F50AF50B8E828F8378081215FDEC0E
:10213300F8EDF97A717B021216938A088B097405FC
:10214300780812170B8E828F83A3A3A3A3E508F04D
:10215300A3E509F07F0802188DC082C083E990606F
:1021630000F0D083D08222C0E074F21218CDA2AF67
:10217300E433FED2AFC2C0E5D1A2E4500653D1EF9F
:10218300121289EEA2E092AF7F0102192CC0E07413
:10219300F21218CDA2AFE433FED2AFE589A2E1502B
:1021A300031211F3758900C2C5EEA2E092AF7F015D
:1021B30002192CC0E074F21218CDA2AFE433FED2A0
:1021C300AFE58BA2E050031211F3758B00C2E880D8
:1021D300D8C0E0C0D0E8C0E0E5A8D2AFC2C7A2E74C
:1021E30092AFD0E0F8D0D0D0E032C0E0C0D0E8C0A9
:1021F300E0E9C0E0C008C009C082C083A2AFE433F5
:10220300F9D2AF9009E0E0F8A3E0687008539AFBB5
:10221300A374018026C2E99009E0E0F50874012562
:1022230008F074602508F58274093400F583E0F53D
:10223300C19009E0E0C394804002E4F0E9A2E09297
:10224300AFD083D082D009D008D0E0F9D0E0F8D065
:04225300D0D0E032D5
:10225800FFFFFFFFFFFFFFFFC082C083E9900B8DE8
:10226800F00224E474F7121775E99002E0F07C1884
:102278007D037AFF7BFF1207D39002E174FFF0A37E
:10228800F0A3E4F0A3F0790512075B9002E0E0F90F
:102298001206837AF17B071209B30231F274F41241
:1022A80017758A088B09EB548060309002E0E0F9DA
:1022B8001210138A0A8B0BAE0AAF0BEE4F60138E07
:1022C800828F83E064B07003120773EEFAEFFB129B
:1022D8001001AA08E5096480FB80047A007B0002EB
:1022E80024B374F212177574FC12171EEAFEEBFF82
:1022F80074121217691236D9EE4F700302238D74C7
:1023080002121769EEF0A3EF1226EEECF0A3ED121D
:1023180026EEAA82AB8312067DE9F50A706AE50803
:10232800450960648E828F831236BFEE4F60567AFD
:10233800067B001210678A0C8B0DA80CA90DE849C2
:102348007005750A13804188828983E412239AEE06
:10235800F0A3EF1236EAE508F0A3E509F09002E6EB
:102368001224219002E6700512319C801B12318ADA
:102378008003EAFCEBFD8C828D8312242170F38CA0
:10238800828D8380E3750A02A90A74041217340245
:1023980038D9F0A3123690A32274F2121775890A5D
:1023A800E975F017A4FEAFF09002E5E4F09002E3BF
:1023B800122421600A12106D9002E3E4F0A3F0EEFB
:1023C800FAEFFB1210678A088B09EA4509602FEEBD
:1023D800FCEFFD7900120FE99002E3E508F0A3E5B0
:1023E80009F07B00800812240BE4F0A3F00BEBC388
:1023F800950A40F2E50A9002E5F079008002791327
:102408000238D9EB75F017A4F8A9F09002E3E02898
:10241800FAA3E0398A82F58322122E2EEA4B22741F
:10242800F4121775740C1217691236B4FEE9FF75A9
:102438000800750900800CE5082401F508E5093451
:1024480000F509C3E5089CE5099D503285080A8511
:10245800090B7403780A12170BEA250AF8EB350BF7
:10246800F988828983A3A3A3A3A3A3123271EE657B
:102478000A7003EF650B70BFE8FAE9FB80047A0085
:102488007B00802774F41217757900EAA2E0501BCC
:1024980075089675099278081219887C047D007A67
:1024A8008F7B0B12075574021217347F04021847EA
:1024B800C082C0839002E61224EB601C8882898364
:1024C800A3A3E06A7003A3E06B8882898370E8A302
:1024D800A3A3A3122E2A80047A007B00D083D08283
:1024E8000201221239BFE8492274EE12177574FCF2
:1024F80012171EEAFEEBFF851882851983E4F0A304
:10250800F0EE240212317CEE2405123697EE2404F4
:10251800F50EEF122AA3E024FE603924FC6046245D
:10252800FE605224FE605E24FE700302260424FE30
:10253800700302266824FE700302267724FE7003C7
:1025480002268624FC700302269524FE70030226C8
:10255800A40226E19002FF7417F0A3E41226F612F3
:1025680003FB0226E1851882851983AC82AD8312AC
:1025780007790226B1851882851983AC82AD83124A
:10258800077F0226B1850C08850D097402121769A8
:10259800AC82AD83850882850983122E2A1206A192
:1025A8008A0C8B0DAC0CAD0DEC4D603BE4F50CF5D5
:1025B8000D780C121988750CFF750D02780C12191C
:1025C80088750C00750D03780C1219887408121799
:1025D8006912199F123B3B121734E9F50C700B1264
:1025E8002E20120413800F750C018508828509833B
:1025F8001226E412319C850C080226B474021217C4
:1026080069AC82AD83850C82850D83122BF5603C05
:10261800850C82850D83A3A312199F7510FF751170
:1026280002781012198875100075110378101219A4
:1026380088740812176912199F123B3B121734E964
:10264800F509700B122E20120419800F75090185E7
:102658000C82850D831226E412319C850908804C72
:10266800851882851983AC82AD83120785803A85E7
:102678001882851983AC82AD8312078B802B85184D
:1026880082851983AC82AD83120791801C851882DC
:10269800851983AC82AD83120797800D85188285D2
:1026A8001983AC82AD8312079DE9F508E508602916
:1026B8008E828F83A3E06414601F850E82850F834A
:1026C800E09002FF1226EE1239BB90030012319CF3
:1026D800E508A31226F61203F502308B1239BF85DE
:1026E800188285198322F085188285198322F07C47
:1026F800FF7D02850A82850B83122E2E2274EE122C
:10270800177574FC12171E8A0A8B0B8C0E8D0FEA34
:102718002405F508EB3400F5097C157D0079007A6D
:10272800FF7B02120FE9E5082402F50CE5091236D1
:102738009A851882851983858210858311781012ED
:102748001988850882850983A3A3A3A3122BEC12F9
:102758001988E5082405F510E5093400F511781005
:10276800121988850C82850D83122F4112069B74DD
:10277800061217348A108B11AE10AF11E50A240225
:10278800F50AE50B12317FEE4F70030228C380175C
:102798007402121769122E2A88828983EAF0A3EB41
:1027A800F09002FFE004F09002FFE0C394054003BC
:1027B8000228C3E4F510F51178101219887510E88D
:1027C80075110278101219887510E97511027810C0
:1027D800121988740612176912199F7910EEFCEF06
:1027E800FD123B3D121734E9705E85088285098326
:1027F800A3A3A3A3A3A3A3E0F89002E8E06870480A
:10280800122BEC1219887CE97D02E5082408FAE508
:10281800093400FB120FE37402121734E960298EA1
:10282800828F83A3A3A3A3122E2A9002FFE0F510A0
:102838007402781012170B74002510F58274033592
:1028480011F583EAF0A3EBF0740212176985821080
:102858008583117810121988740212176912199F4A
:10286800850C82850D83122E501217348A108B1115
:10287800AE10AF119002FFE0F510751100740278E8
:102888001012170B74FF2510F874023511F988829D
:102898008983A3122421700302278FE824030808E0
:1028A80008E93400F9EE4F6003022798888289838B
:1028B80074FFF0A3F09002FFE004F09002FFE060E4
:1028C8000A122E201204077900800B8508828509D8
:1028D80083123193790A02308B74EA12177574FEE9
:1028E80012171E8C128D13EA2405F50CEB123B25EA
:1028F8001236C3750800750900EA2402F510EB3496
:1029080000F51185188285198385820A85830B78DD
:102918000A121988850C82850D83A3A3A3A3122A02
:10292800B9121988E50C2405F50AE50D12317F78EE
:102938000A121988850C82850D83122ABD12069BFE
:1029480074061217348A0A8B0BEA450B7003022AA5
:102958005EEA2404F50EEB122AA31236C38A828B90
:1029680083A3A3A3E0F9851082851183122E346016
:1029780003022A5EE4F514F5157814121988751403
:10298800E875150278141219887514E97515027816
:1029980014121988740612176912199F7913AC0A50
:1029A800AD0B851082851183123B43121734E9F56C
:1029B800096003022A5E9002E8E0F8E5087009E081
:1029C8002402900300F08014900300E0FCE8240245
:1029D800FAE43400FBEA6C7001EB707E850882AA89
:1029E80082122BE39414122BDB506B850E82850F19
:1029F80083E0C0E074012A122A9AD0E0F005088525
:102A08000E82850F83A3E0C0E085080A7401250AB9
:102A1800122A9AD0E0F005089002E8122AB9121991
:102A2800887CE97D0285080A7401250A122AAD12FC
:102A380017349002E8E02508F50874FF6E700374F7
:102A4800FF6F6012EE24010EEF3400FFE508C39417
:102A580014500302290BE5086013122E3E851082DC
:102A6800851183122E2A12040D79008014E509704D
:102A78000375090A851282851383EEF0A3EFF0A986
:102A88000974021217347F0E02184785080C740166
:102A9800250CF58274033400F583223400F50F8584
:102AA8000E82F58322FA74033400FB120FD17402EC
:102AB800221236F922A3A3122AC32212318AFDEE6A
:102AC800FAEFFB2274EE12177574FE12171E8C0EA5
:102AD8008D0FEA2405F50CEB12369A750B0090025F
:102AE800FFE4F0F50AEA2402F508EB3400F5098062
:102AF800449002FFE0FA9002E8E0F8122BE3941702
:102B0800122BDB400D9002FFE0F87416C398900278
:102B1800E8F0122BEC1219887CE97D0274002AFA7D
:102B28007403122AB01217349002E8E0F89002FFFA
:102B3800E028F0050AE50C2416F582E50D122A9E18
:102B4800E0F8E50AC39850749002FFE0C394165069
:102B58006BE50AC333F8E433F9E50C28FEE50D39D3
:102B6800FF851882851983AC82AD838E828F83128C
:102B78002BF57008750B0112318F8050E4F510F5B4
:102B88001178101219887510E87511027810121949
:102B9800887510E9751102781012198874061217D1
:102BA8006912199F7916850882850983123B431299
:102BB8001734E9F50B7003022AF980BB7CFF7D020C
:102BC800850882850983122E2A12041FA90B740214
:102BD80002308DE99400C365D03322EA28F8E43442
:102BE80000F9E822E0F51075110078102212308201
:102BF8008A108B11AC10AD11EC4D2274EA121775C6
:102C080074FC12171E8A0C8B0D8C128D13EA240586
:102C1800F50AEB12317F750800750900E50A2402F0
:102C2800F510E50B3400F511740212176985820E50
:102C380085830F780E121988850A82850B83A3A3D2
:102C4800A3A312369F121988E50A2405F50EE50B91
:102C58003400F50F780E12198885108285118312B9
:102C68003185122E2412069B74061217348A0E8B95
:102C78000FAE0EAF0FE50C2402F50EE50D3400F58E
:102C88000F80388882898374FFF00508122A9374AC
:102C9800FFF005089002E8E0F50C750D00780C12BD
:102CA80019887CE97D0285080C7401250C122AAD6F
:102CB8001217349002E8E02508F508EE4F60278ED9
:102CC800828F83A3A3A3E0F9850E82850F83122E3A
:102CD80034EE2404123697E96027850C82850D832B
:102CE800122E1612319CE5087003022DFC122E3E9E
:102CF800850E82850F83122E2A1204257900022E52
:102D080011E4F514F51578141219887514E8751579
:102D18000278141219887514E975150278141219B5
:102D280088740812176912199F7911EEFCEFFD8556
:102D38000E82850F83123B43121734E9F509709A06
:102D4800850882AA82EA9002E87009E024049003C8
:102D580000F08025E0F8900300E0F514E82404FC76
:102D6800E43400FDEC65147001ED7081122BE394DE
:102D780012122BDB4003022CF5850C82850D83E0B3
:102D8800C0E074012A122A9AD0E0F00508850C8266
:102D9800850D83A3E0C0E0122A93D0E0122E598556
:102DA800820C85830D780C12198874041217691225
:102DB800199F851082851183122E501217348A0CA0
:102DC8008B0DAE0CAF0D85080C7401250CF874033F
:102DD8003400F9EE4F7003022C8B85188285198315
:102DE800E088828983122E59A3E0C0E0122A93D08A
:102DF800E0022C99E509700375090A850A82850B9A
:102E080083122E1612319CA9097404022A8B1239D6
:102E1800BF851282851383227CFF7D02850A828505
:102E28000B83122E2E22E0FAA3E0FB22122E2E1282
:102E38000689E9F50922900300E0F5F0E508849099
:102E480002FFF07CFF7D0222122AC31206A7740437
:102E580022F005088518828519832274EC121775EB
:102E680074FE12171E8A088B098C0E8D0FEA240532
:102E7800FEEB3400FF12306CEE2418123697EA4548
:102E88000B7003022F0F1230555029122F348A105D
:102E98008B11EA4511606B7912AC0AAD0B8508827B
:102EA800850983122E2A851082851183121773E9EA
:102EB800F50A7058E4F50AF50B780A1219888E821B
:102EC8008F83A3A3E0F50A780A121988EE24031267
:102ED800317C780A1219888E828F83122F4112074B
:102EE800C17406121734E9F50A7021850C82850D24
:102EF80083E0701F850882850983122E2A12042B0D
:102F08008011750A0E8009750A018004E50A6003BC
:102F180012318F850C82850D83E060047900800270
:102F2800A90A74021217347F0C0218478518828583
:102F38001983122E2E1207AF2212318AFD850882BC
:102F4800850983122E2E2274EE12177574FE12173D
:102F58001E8A088B098C0C8D0DEA2405FEEB3400C3
:102F6800FF750E0012306CEA450B70030230331205
:102F78003055502C122F348A0E8B0FEA450F604AB9
:102F88007912AC0AAD0B850882850983122E2A8531
:102F98000E82850F83121773E9F50E60030230362F
:102FA800850882850983123271AA0AFB123047709C
:102FB800147AFF7BFF123047606C88828983E50AA8
:102FC800F0A3E50BF0750A008007750E0E805F050B
:102FD8000A9002E5E0FAE50AC39A504AE50A75F054
:102FE80017A4FAABF088828983A3A3E02AFAA3E0A6
:102FF8003BFB8A828B83123185EC4D70D2750A17A0
:10300800750B00780A121988EEFCEFFD120FD174C7
:1030180002121734EEFCEFFD850882850983122E13
:103028002A1204318014750E098003750E011239B5
:10303800B7850C82850D8312319CA90E022BD612FE
:1030480007A38A108B11A810A911E84922E50824C2
:1030580002F508E5093400F5098A828B83A3A3A346
:10306800E0A2E522851882851983AC82AD838E8221
:103078008F831230828A0A8B0B22E0FAA3E0FB12BC
:1030880006A12274041217347F0A02184774EC123E
:1030980017758C108D11EA2405F50CEB12369A750C
:1030A8000F00EA2402F50AEB12317F850A82F583C4
:1030B800122E2A123BC97003023171750E008071FD
:1030C800850C82850D83E06401704F8E828F83A307
:1030D800A312199F8E828F83A3A3A3A3E0F5127571
:1030E80013007812121988EE2405F512EF3400F552
:1030F800137812121988122E241207C17406121797
:1031080034E9F50F6014850C82850D83E4F01239DB
:10311800B785108285118312319C7C177D00790058
:10312800EEFAEFFB120FE98E828F83E4F0A3F0052D
:103138000E9002E5E0F8E50EC398501EE50E75F016
:1031480017A4F8A9F0850882850983A3A3123B2F49
:10315800123185EC4D60030230C8850882850983E9
:1031680074FFF0A3F0E50F7006122E24120437A99D
:103178000F022F2FF50AEF3400F50B22A312318A24
:10318800FD22E0FCA3E0228E828F831239BF850ED8
:1031980082850F83E8F0A3E9F022C082C083900201
:1031A800E1E06A7003A3E06B70067AE17B028004B9
:1031B8007A007B000224E474F71217757F00EF751C
:1031C800F003A4F8A9F0EC28F8ED39F9888289838E
:1031D800E06A7003A3E06B7006E8FAE9FB800B0F66
:1031E800EFC3940240D87A007B007F01021847742D
:1031F800F61217751237A870067A007B008007A3AD
:10320800A3A3A3122E2A02386974F2121775E9FED5
:10321800740E12176912327174101217691236D9A6
:103228008C828D83E06402703BA31239BB8882894B
:1032380083E0F50CA3E0F9A80C7402687003742904
:10324800697021750C02750D00780C1219887808C0
:10325800121988780A121988EEF91207E57406120D
:103268001734800279010238D9E0F50AA3E0F50B9A
:103278002274E812177574FB12171EE985188285E7
:103288001983F08A168B178C0E8D0F741F1217690D
:103298001236D97421121769123271742312176900
:1032A8001236C37510008C828D83A3A3A3E0A2E419
:1032B800502A741D121769122F3A8A828B83E5826D
:1032C80045837003023385790AAC0EAD0FAA16AB9D
:1032D80017121773E9F5106003023388850E82858B
:1032E8000F83E06402600302363EA31239BB8508EF
:1032F80082850983A3858212858313E50E2406F54A
:103308000CE50F12369A88828983E0FAA3E0F9EA7D
:103318002400F514E439F5157814121A1201000086
:103328002801284D33070002282434032894330049
:10333800294E350129763502291D3503294E3504D4
:1033480029DF353E36EE4F703E850C82850D83129F
:1033580036B4FAE9FB8A828B83E0850A82850B837F
:103368001236F01219888A828B83A312318AFDAA39
:1033780008AB09120FD17402121734800375100EAE
:10338800A9107405023B1D75100B80F4EE4F70F701
:10339800850A82850B837401F01236C985088285F7
:1033A8000983F07C007D00850E82850F83A3A3A38B
:1033B800A3E02401FAA3E03400FB1206A1EA4B6063
:1033C800418A828B83E02402F8850A82850B83E098
:1033D80028F0EA2404F8EB3400F988828983E08530
:1033E80012828513831237021236F01219888A82E4
:1033F8008B83123184E5082403FAE5093400FB02C3
:10340800337B850A82850B83E02404F07C047D00ED
:103418007900AA12AB13120FE9023388EE4F60034A
:1034280002338F1236C9FEA3E0FF850A82850B831B
:103438007404F0EE850882850983F0EF8512828591
:103448001383F07403121769AC82AD83EEFAEFFBB5
:1034580012379670030234FA8A828B83A3A312363A
:10346800BF740112176985820E85830F780E1219B1
:1034780088740512176912199F7CFF7DFF1206A731
:1034880074041217348B0FEA450F7033850C82854C
:103498000D8312369F121988850C82850D83A3121D
:1034A800199F7C027D007A747B931204D3740412F2
:1034B8001734E9700A740112176974FFF0A3F08ECB
:1034C800828F83E064027034750C02750D00780CED
:1034D8001219888E828F83123184E5082404FAE554
:1034E80009122AB0121734850A82850B83E0240258
:1034F80080097401121769EEF0A3EFF07401121736
:10350800691236B0F07401121769A31236A8A3A382
:10351800A3F0023388EE4F600302338F850C828557
:103528000D83123185AA16AB171207D9850A828531
:103538000B837402F0EA850882850983F08512827C
:10354800851383EB80CBEE4F600302338F1236C9AD
:10355800F8A3E0F9850A82850B837402F0E88508F0
:1035680082850983F0E985128285138380A3850CFF
:1035780082850D83122E2A120FCBEAFC8C82A88238
:10358800C39EE49F404BE86E7001EF70047C00809E
:103598001F851882851983E0FAEE2AFAEF3400FBBA
:1035A800C3EA98EB94005003E08004EECCC39CFC83
:1035B800EC850A82850B83F08C0A750B00780A1259
:1035C8001988850C82850D83E02EFCA3E03F023329
:1035D80076751007023388EE4F600302338F850C2F
:1035E80082850D831239BB850A82850B837407F0A7
:1035F800888289831236A8123690E0851282851354
:1036080083F0E82402FAE93400FB8A828B831236BD
:10361800A81236E11236B0A31236EA1236B9F0E82B
:103628002405F8E93400F9888289831236B9A3128F
:103638003702A3023516741D1217691237A17003D9
:103648000233851239BB880C890DE8450D700302D9
:1036580033858E108F117810121988780A121988FC
:1036680078081219887406121769E0F9AC0EAD0FC4
:10367800AA16AB17850C82850D8312177374061270
:103688001734E9F510023388F088828983A322F57C
:103698000CEF3400F50D22E0F50E750F00780E22C0
:1036A800E085088285098322123709221239BFE88A
:1036B80022123709A3A322A3A3A3A3E0FEA3E0FF3A
:1036C80022850C82850D83E0F8A3E0F5838882E0EB
:1036D80022E0F508A3E0F50922A3A3F08A828B83F0
:1036E800A32212239CA3A322F08A828B831236F989
:1036F80022E0F50A750B00780A2212369012370973
:1037080022E0850882850983A3A32274EE12177527
:1037180074FE12171E8A0A8B0BECFAEDFB74141256
:103728001769E0F510A3E0F5117416121769E0FEA9
:103738007418121769E0F50EA3E0F50F8518828555
:103748001983AC82AD83123796603E85188285193D
:10375800831237A1602FA3A31236D9E50845096063
:1037680024780E1219887810121988EEF9AC0CAD6D
:103778000DAA0AAB0B850882850983121773740496
:103788001217348006790E80027901022BD61206B0
:10379800A18A0C8B0DEA450D22122E2E1237A82273
:1037A80012076D8A828B83E58245832274F612178D
:1037B8007574FE12171E740C1217691236B4851828
:1037C80082851983F07401121769E9F0E4F508F5A8
:1037D800097808121988750802780812198874047B
:1037E80012176985820885830978081219881207D3
:1037F800C174061217347402121734806474F712F5
:103808001775EAFEEBFF89087C187D031207D9EAD1
:103818005402600BA908EEFAEFFB120695800279B4
:10382800010231F274F612177574FF6A700374FF9F
:103838006B701C7B00EB75F003A4F8A9F0EC28F87A
:10384800ED39F912386E0BEBC39402501480E6126E
:1038580007A98A088B09A808A909E849600312384A
:103868006E7F020218478882898374FF12239AE4C4
:10387800F02274F61217751207A98A828B83E582E3
:1038880045836006A3A3E0FA80027A007B0080D11A
:1038980074F21217758A088B09ECFEEDFF740E128C
:1038A8001769E0F50A1238DE701CEEFCEFFD7AFFAE
:1038B8007BFF1238DE70047911801688828983E5CF
:1038C80008F0A3E509F088828983A3A3E50AF079C3
:1038D800007F060218471207A98A0C8B0DA80CA9AD
:1038E8000DE8492274EE121775EAFEEBFF8C088D7D
:1038F80009890C74121217691239BB7414121769EA
:103908001231857416121769122E2A750D00EC4DA6
:1039180060030239AF7402650C60030239AA888219
:10392800898312318AF9EC2400F50EE439F50FEA9F
:10393800F4F8EBF4F9EC58F8E50F59F9E849705D3B
:10394800E5082406F8E5093400F9880A890B888215
:10395800F583122ABF1207D98A108B11E50E65105C
:103968007004E50F65116042780E121988850A8285
:10397800850B83122ABF1207DF7402121734E9F588
:103988000D7027780E121988850882850983A3A3EC
:10399800122ABD1207F77402121734800D750D80B4
:1039A8008008750D0D8003750D0BA90D0230908EE2
:1039B800828F831239BF22E0F8A3E0F92274E8125B
:1039C800177574E712171E851882851983EAF0A304
:1039D800EBF08C168D17890E7431121769E0F51209
:1039E800A3E0F5137433121769E0F514A3E0F51595
:1039F8007435121769E0F50F750800750900E509B7
:103A080075F003A4F8A9F0851882851983123B2F55
:103A1800E0F47003A3E0F47003023B0DEE2402F51A
:103A28000CEF123B25E07003023B0D85160A851743
:103A38000B780A121988AC14AD15AA12AB13120729
:103A48006174021217348A0A8B0BEA450B70030261
:103A58003B0DE4F510F51178101219887406121749
:103A680069858210858311781012198874091217D4
:103A780069858210858311781012198885128285CC
:103A88001383A3A3A3A312199F7914AC0AAD0B8EB9
:103A9800828F83123B43121734E97069850A828545
:103AA8000B83A3A3A3A31239BB74021217691231A3
:103AB8009C850C82850D83E0A2E05018A90E740243
:103AC800121769AC82AD838E828F83122E2A12065A
:103AD800B9E94208850C82850D83E0A2E15026E50C
:103AE8000FF50A780A12198CA90E7403121769AC1B
:103AF80082AD838E828F83122E2A1206B37401122E
:103B08001734E942080509E509C394025003023A4B
:103B180006A90874191217347F100218473400F5E3
:103B28000D850C82F58322E028FEA3E039FF8E8202
:103B38008F83227916850A82850B83122E2E12070F
:103B4800BB74082274F2121775EAFEEBFF890B7436
:103B580001650B600E7402650B706379011209D15F
:103B6800E9705BEEFAEFFB123BC96047750A00800B
:103B78000B7C177D007900120FE9050A9002E5E039
:103B8800F8E50AC3985021E50A75F017A4F8A9F0DA
:103B9800850882850983A3A3E028FAA3E039FB8A74
:103BA800828B831224EB70C985088285098374FF90
:103BB800F0A3F07C187D03EEFAEFFB1207D302386E
:103BC800D91207A38A088B09EA45092274F2121749
:103BD800758A088B09ECFEEDFF740E121769123214
:103BE80071900B8DE0F4603D7A097B00120FFBEABF
:103BF8004B60328A828B8374B1F0A3E41236E3A35C
:103C08001236E1A3E508F0A3E509123C30EEF0A373
:103C1800EF123C30A3A3E50AF0A3E50BF0900B8D5F
:103C2800E0F91210070238D9F08A828B83A3A3A384
:103C3800A3A322C082C0839061907404F0A3744847
:103C4800F0A3E4F09061807440F09061BC7407F0D8
:103C58009061877469F09061B67416F07900120A61
:103C6800C17902120AC7902258E493F46006E493DB
:103C7800F9120A9D7905120DB502407DC082C083F4
:103C8800E9540FF9906185E0696012E5C6548044F3
:103C980049F5C6E59E547F644970F8E9F053C6803B
:103CA800E59E547F70FA02407D74F7121775E5A8F7
:103CB800FE53A87E120AA9C2BA539AFEC289759BFE
:103CC80000C2C2120AAF75A91175B905120AB5D298
:103CD800BA439A0174805E42A802460AC082C08331
:103CE800906181E4F0A302407A75E900759100754E
:103CF800BF00020122C082C083906181E4F0A374F6
:103D0800C0F0A3E402407CC082C08374F812171E7E
:103D18009003C41244ECE8497003023DC69003C402
:103D2800E0544060237908851882851983AA82ABFC
:103D380083120BB7851882851983AA82AB83120870
:103D4800639003C4E054BFF0E054806010790C7AAB
:103D5800807B05120BB79003C4E0547FF0E0A2E02B
:103D680050087900123DCE54FEF0E0540260087904
:103D780001123DCE54FDF0E0540460087900123D74
:103D8800D954FBF0E0540860087901123DD954F782
:103D9800F0E0541060087902123DD954EFF0E05475
:103DA8002060087903123DD954DFF0A3E054016084
:103DB8000D120AD31208759003C5E054FEF074087A
:103DC80012173402407D120AC11208699003C4E038
:103DD80022120AC712086F9003C4E022C082C0836F
:103DE800E9600514602A804F90619A7433F0A374D7
:103DF80055F09061A0743AF090055CE06401700998
:103E0800C2919003C67467802D9003C674618026A2
:103E180090619A743FF0A3745AF09061A0747FF097
:103E280090055CE064017009D2919003C6747180BA
:103E3800059003C6746AF002407DC082C083E960C1
:103E48000B14600D14600F146011802090225C80A8
:103E58001590225D801090225E800B90055CE064D6
:103E68000160F390225FE493906186F002407D74D4
:103E7800EE12177574F412171E851882851983AC13
:103E880082AD83758393758226740412163190224D
:103E98005C93F46003024009907808E0C3940250F0
:103EA80003023FE97404121769AC82AD83758392EB
:103EB8007582827408121631F97AFF7BFF7FFF7EC4
:103EC800008982858210801874086E7003023F9EF4
:103ED80074096E7003023F9E740A6E7003023F9E5F
:103EE800E510C333FCE433FD7404121769E5822C32
:103EF800F582E5833DF583E0F50EA3E0F50F8E0826
:103F08007509007402780812170B74482508FC74A8
:103F1800783509FD8C828D8378081215EE7408783F
:103F28000812152F85080C85090D8C828D83780859
:103F38001215EE7418780812152FE50C4508F508C7
:103F4800E50DF509C3E50E9508E50F95098C828DF9
:103F58008378081215EE8C828D8378081215EE741A
:103F6800187808401412152FE50C4508FCAD0DE52E
:103F78000EC39CFCE50F9D800F12152FE50C45081C
:103F8800C3950EFCE50D950FFDC3EC9AED9B50060D
:103F9800ECFAEDFBEEFF0EEEC394135003023ED095
:103FA80074FF6A700374FF6B602D8F0874027808C1
:103FB80012170B7448124C9874783509F5837808F1
:103FC8001215EE851882851983E5822510F582E59C
:103FD80083124A25E508F009E9C394045003023E18
:103FE800C17508017509007808121988740212173A
:103FF80069AC82AD837A977B081211CF74021217CD
:1040080034740C1217347F0A021847C082C0839098
:104018006186E0F890225FE49368700990225EE47C
:1040280093906186F09061AE7468F0A3746AF09022
:10403800624574FBF0A304F053F4FD43FE029005BF
:104048005C7401F09061A0E0643A70047900800229
:104058007901120AC102407DC082C08390050EE03A
:104068006401700A900513E06004790C80027900FD
:104078008003F0A3F0D083D082020122C082C083E3
:1040880075E1F1900511E0604D1460081460511459
:1040980060498051120AE5900507E0F97A087B0526
:1040A800120D379092E612160C120D6D90930E12A7
:1040B800160C120D43900512E0F9120D4F790112FA
:1040C8000DA9900505E0241612421274FDF0A374A0
:1040D8000AF07900809F120AEB80BC120AF180B7BF
:1040E800120AF780B2791280EB74F412177575D939
:1040F8000D9004F6E0A2E0E4331313F812417E4871
:104108004401F5D978001241FC40FB780088087416
:10411800F7124C98740412420640F275E195900427
:10412800F6E0F97AF77B04120D3D900BAF7473F04B
:10413800A3740A12422112424112423812437912E0
:10414800418878081215EE9092E2780812157A9054
:10415800931A78081215C812420C78081215FD90A7
:104168000505E024141242127413F09003C274027D
:10417800F07F04021847900507E0C4333354C02287
:10418800900505E0F8A3E0F5838882A3A32274F6DE
:1041980012177512434A8AD978001241FC40FB78FD
:1041A8000080061242B01243FCE8C39940F512435E
:1041B8003C1241FC40FB78008008124C94740512B4
:1041C80043FCE8C39940F375E195900BAF747FF019
:1041D800A3740A12422112422B12160C12420C121C
:1041E8001618900505E024141242127412F0900378
:1041F800C20245E7880874082508F5827405124547
:1042080058940622900505E0240EF8A3E0124219FE
:10421800223400F988828983221243627479F0A3D8
:10422800740A2212424112423812437D9092FA22B5
:10423800F0A37491F0A3740A221242452212424953
:1042480022F0A37423F0A3740C2274F612177512CB
:1042580042A512417E4402F5D978001241FC40FB88
:10426800780080061242B01243FCE8C39940F57505
:10427800E195900BAF1242BBF0A31242BB12422E43
:1042880012160C12420C121618900505E02414128E
:1042980042127414F09003C274040245E9900517A1
:1042A800E0F9740729F5D922880874182508F582D9
:1042B800740522748B1242C81242C8F0A3740A22F1
:1042C800F0A3740AF0A3748B2274F61217751243C4
:1042D8004A74064AF5D978001241FC40FB78008000
:1042E800061242B01243FCE8C39940F512433C124F
:1042F80041FC40FB78008008124C9474051243FC82
:10430800E8C39940F375E195900BAF7485F0A374F9
:104318000A12435812422B12160C12420C1216188B
:10432800900505E024141242127415F09003C2742B
:10433800030245E99005371242A874044AF5D97872
:1043480000221242A5900507E0C4333354C0FA2274
:104358001243627423F0A3740C22124366221243A0
:10436800737423F0A3740C12437322124249F0A30E
:104378002212437D22F0900BBD7423F0A3740C121B
:1043880043667423F0A3740C124245F022C082C025
:1043980083124188A3A3A3A3E402407A74F71217F7
:1043A80075124EDAF8740339F9E82405FAE934008D
:1043B800FB8A828B83124C4988828983A3A3A3A397
:1043C800A3A3A3A3A3ECF0A3EDF088828983A3A3FE
:1043D800A3A3A3A3A3E024FFF8A3E034FFF98A82F0
:1043E8008B83E8F0A3E9F002460A88087460250880
:1043F800F5827405124B70F5D90822EAFEEBFF909E
:1044080061D0E0F87480C398FAEE24832212441B2A
:10441800940422124A33E0F5D90AEAC32274F61248
:104428001775EAFEEBFF9061D0E0707575D90E75CF
:10443800D90375D9047A008A08EE2508124FA824F2
:104448008C1244BE40F17A008A08EE2508124FA863
:10445800248412441540F175E1957908EE248C12F4
:1044680044B724841244AE7C008C82AA82C3E49AA6
:10447800F895E0F9EE28F8EF39F9E8248BF582E9A8
:10448800124B6CC0E0EE2A124FA824ABF582E91259
:104498004A25D0E0F00CECC3940840CD1245748056
:1044A8000279000245EAFAEF3400FB120BAB221244
:1044B80044AE7904EE2212441B940822C082C083C1
:1044C80075D90275D90375D90575E195EA2470F592
:1044D80082EB1244E9EA2472F582EB124586024027
:1044E8007D124A361244F022E0F8A3E0F92274F66D
:1044F800121775EAFEEBFF9005607406124562120A
:1045080019887C01790312488E12173475D90675FB
:10451800D903780012454840FB75E1959003C2E045
:1045280064087017EE2470F582EF1244E9EE2472E5
:10453800F582EF124A25E8F0A3E9F079010245EA8D
:10454800880874602508F582740512455894052278
:10455800124A36E0F5D908E8C322F07508607509F3
:104568000578082275E1957904120D73EE2470F52B
:1045780082EF124A361244F0EE2472F582EF124AA4
:1045880036E8F0A3E9F079012274F6121775EAFE0D
:10459800EBFF9061D0E070437901900560740BF0F7
:1045A8009003C2E0640770177508607509057808FC
:1045B8001219887C01090912488E1217347905747A
:1045C8000129F5D975D903780080031243F2E8C3AD
:1045D8009940F875E195124574800279008003745A
:1045E80001F07F0202184774F7121775EAFEEBFF15
:1045F80075D90375D90375D90DEE24DE12460F124D
:10460800456C7F01021847F582EF124B70F5D922ED
:104618007F030218477401250AF5D975D903780074
:104628002274F512177512469E6004780480027889
:1046380000E8240BF8EAC3984041750A0990056020
:104648007409F079081246876014750860750905C1
:104658007808121988124886121734750A0D1246FE
:104668001D80031243F2E8C3950A40F775E1957976
:1046780004120D731248037901800279008091EECB
:1046880024E3FCEF3400FD7A617B05120BA5850855
:1046980082850983E022124403F8EF124C3DF5832A
:1046A800E02274F31217758A088B09124899FAE503
:1046B800082483F50AEB12476860047804800278BE
:1046C80000E82408F8EAC3985003024761750C060D
:1046D800900560740CF09003DFE0900561F07402BF
:1046E800C0E0F97CE07D037A627B05120BA5D0E07F
:1046F800F97CE27D03120BA5850A82850B83E060B5
:104708001C750A60750B05780A1219887C067903EE
:10471800AA08AB0912488E121734750C0A740125C1
:104728000CF5D975D90378008009880A7460250AC0
:104738001243F8E8C3950C40F175E1957904120D20
:1047480073E5082470F582E5091244E9E508247246
:10475800F582E509124586800279007F050218472F
:104768003400F50B850A82F583E02274F61217757A
:10477800EAFEEBFF124899FCEE2483F8EF12489406
:1047880060047A0480027A00EA2404FAECC39A40AE
:104798005E7A02900560EAF0EE24F5F582EF1248A1
:1047A8000F601975086075090578081219887C0268
:1047B8007903EEFA12488E1217347A0674012AF534
:1047C800D975D903780080031243F2E8C39A40F8F8
:1047D80075E195EE24741247FCEE24801247FC1212
:1047E80048037904120D73EE240D1245778002797F
:1047F800000245EAF582EF12497F22EE241DF58278
:10480800EF12497FA3F022124B70900561F0888265
:104818008983E02274F6121775124899FEEA2483F8
:10482800F8EB12489460047C0480027C00EC2404B9
:10483800FCEEC39C40437C029005607407F0EA24B8
:10484800F6F582EB12480F60157508607509057852
:1048580008121988790312488E1217347C067401DD
:104868002CF5D975D903780080031243F2E8C39C6C
:1048780040F875E1957901800279000245EA7C09E2
:104888007903EEFAEFFB120C17740222124219E0B8
:10489800229061D0E0F87480C3982274F5121775DD
:1048A800E9FEA2AFE433F50AC2AF7F00EA246FF84D
:1048B800EB3400F980010F88828983E0FCEFC39C08
:1048C80050188F08EA2508FCEB3400FDEC246BF542
:1048D80082ED124B6C6E70DE8010EA2CFAEB34001D
:1048E800FB124A1FEE12481504F0E50AA2E092AF47
:1048F80002461874F6121775A2AFE433FFC2AFEA86
:10490800246FF8EB124FAAFCE9FD8C828D83E0142A
:10491800F07E0080218E08EA2508F8EB124FAA24C1
:104928006CF582E9124B6CC0E0E8246BF582E91261
:104938004A25D0E0F00E8C828D83E0F8EEC39840D3
:10494800D4EA246E124A2274FF124974EFA2E0924C
:10495800AF0245EAC082C083E5A8F8C2AF124A1F79
:10496800E9124974E8A2E792AF02407DF0EA246AAE
:10497800F582EB12497F22124A36E4F02274F212D1
:1049880017758C828D83A3A3A3A3E0541FF0EA2498
:1049980036124CE18E828F83E4F0F50C850C82850B
:1049A800820AEC250AF8ED124C39F583E0C0E0EAFA
:1049B800250AF8EB124A29D0E0F0750D0085088227
:1049C800850983E0F50A750B00E50D780A1216ECE7
:1049D800E50AA2E0502AE50C33333354F8250DC01C
:1049E800E08E828F83E0F8EA28F8EB124FAA243889
:1049F800F582E9124A25D0E0F08E828F83E004F038
:104A0800050DE50DC3940840B4050CE50CC39405E9
:104A1800408A7F06021847EA246BF582EB124A3671
:104A2800223400F9E8245D124A3322F582E9340081
:104A3800F5832274F61217759003EEE0640170078F
:104A48007A007B00024B667E009003F4E070F174FC
:104A580001F0A3E4F0A3F090045404F0900457E4A8
:104A6800F0A3F090045A04F09003F7E4124B7D9001
:104A7800040104F0900427E4F09092B212160C900E
:104A8800040A12161890040EE4F0A3F0A3F09004A0
:104A980072F0900466F090045B7480F0A3E4F090E8
:104AA8000461F0900459F09004DD124B759004E60F
:104AB800F0900475F09004C5F0A3F09092B212162D
:104AC8000C9004C71216189092B212160C9004CBD0
:104AD8001216189004D1E4F09004D3F09004CFF0AB
:104AE8009004E9124B758E08745D124C9874041288
:104AF8004A2574FFF00EEEC3940440EA7E008E82CD
:104B0800A88274FD28F5827404124B6CC0E0744FBF
:104B180028F5827404124A25D0E0F00EEEC39405FD
:104B280040DC7E008E82A88274D628F58274031237
:104B38004B6CC0E074D528F5827404124A25D0E085
:104B4800F00EEEC3940840DC9003EEE004F064013C
:104B580070089003F6E09003F0F07AF27B030245C8
:104B6800EAF582EF124B7022124A36E022124B7D90
:104B7800A3124B7D22F0A3F0A3F0A3F022C082C0C1
:104B880083EA2403F582EB124B6C6008E4F090038F
:104B9800EFE014F09003EEE014F070069003F07468
:104BA800FFF08A828B83A3A3E4F0900502E0700DE6
:104BB8009003EFE0640170057900120D5502407D05
:104BC800C082C0839003F5E4F09003F4F09003EE04
:104BD800F0A3F0A374FFF075E1F102407DC082C03C
:104BE80083780079009003F5E0600478F27903880F
:104BF800828983A3A3A3A3E0F902407D74F6121768
:104C080075EAFEEBFF120B5DEE2465F8EF124C39E6
:104C1800124C47EC4D60109003F0124ED28508827A
:104C2800850983E4F0A3F0EEFAEFFB120C4D024580
:104C3800EA124C3D223400F988088909888222F555
:104C480083E0FCA3E0FD2274F7121775EAFEEBFF80
:104C58008E828F83A3A3A3A3E0FA7B001208DBEE66
:104C6800FAEFFB120B6F120C2F02460A74F612179A
:104C7800757800880874D6124C9874031247FF0898
:104C8800E8C3940840ED9003D60245E788087438D5
:104C98002508F5822274F6121775EA240D124CE1E4
:104CA800EC2403F8ED3400F988088909EC2407F8A6
:104CB800ED124FAAFCE9FD124CEB1216938E828F6F
:104CC80083E8F0A3E9F0124CEB1216938B09EA453E
:104CD800096003124CFE0245EAF8EB3400F9E8FEDD
:104CE800E9FF228C828D831244F08508828509832E
:104CF800E0FAA3E0FB228E828F83E02401F0A3E098
:104D08003400F02274F6121775EA242EF582EB347B
:104D180000124C47EA2470124CE1780079FAECFA58
:104D2800EDFB1216938E828F83E8F0A3E9F07800EA
:104D380079FAECFAEDFB1216938B09EA4509600340
:104D4800124CFE0245EA74F0121775EAFEEBFF7486
:104D58001012176978081215EE120D078A0C8B0DC0
:104D68008C0E8D0F9092DE780C12157A90931A782B
:104D78000C1215C8780C1219848E828F8312418BFD
:104D880012160C121EF97404121734E96003024E4D
:104D9800368E828F83E02402F8A3E0124FAAFAE944
:104DA800FB8A828B83780812158D90931A780812E3
:104DB80015EE8A828B8378081215DBEE240BF582B8
:104DC800EF124A25C082C0838E828F83A3A3A3A338
:104DD800A3E02401F8A3E03400F9D083D082E0688E
:104DE8007003A3E069700479018045EE2407F8EFA9
:104DF800124219124D02EE2474124FAF7014EE24B1
:104E080075124E3D7003A3E06D70078A828B831282
:104E18004D02EE2480124FAF7014EE2481124E3DE5
:104E28007003A3E06D70078A828B83124D027900AC
:104E38007F08021847FAEF3400FB8A828B83E0FC74
:104E4800A3E0FD88828983E06C2274F3121775123F
:104E58004EDAFE740339FFEE2404F50AEF3400F548
:104E68000BEE2465F508EF3400F5098010124C4963
:104E7800850882850983E4F0A3F0124ECC85088268
:104E8800850983124C49EC4D6030EE2464124B695D
:104E9800F50C780C12198CEE2463124B69F9EEFAB2
:104EA800EFFB120B997401121734E9850882850902
:104EB8008360BA1244ECE84970077C007D00124E0A
:104EC800CC024763850A82850B83E0FA7B001208CF
:104ED80099229003F0E0F875F004A4C8AAF02AF922
:104EE80074F2282274F2121775EAFEEBFF890A742D
:104EF8000E121769E0FAEE2462124FAF6003024FF8
:104F0800A3124899F50CEE2483124B69FB600478D0
:104F180004800278008908E928F8E4124FAA2402DC
:104F28000808E93400F9E50C98E499A2D265D03371
:104F38004065EA7005750B028003750B01EB603361
:104F480075090078081219887A607B05120BE174DC
:104F5800021217347508607509057808121988ACAB
:104F68000AA90B12488A1217347404250AF50A7C18
:104F7800607D057401250AF5D9850BD97800800A6A
:104F88008808EC124C98ED1243FCE8C3950A40F0EF
:104F980075E195790080067907800279FF024A1A3F
:104FA800F8EF3400F9E822F582EF124B7064012221
:104FB800C082C0838003124FE6E9F874FF28190401
:104FC80070F4ECFAEDFB02407DC082C083800312CE
:104FD8004FE6E9F874FF28190470F402407D8C82CA
:104FE8008D83E08A828B83F08C828D83A3AC82AD23
:104FF800838A828B83A3AA82AB832274E8121775F3
:10500800907803E06442705E90055FE014F070569B
:10501800C2AF12501D00782AD0E0F618D0E0F6E5AD
:105028009F5407F970059092DA80039092D6780819
:105038001215EEE9C4C0E07829E65508F50808E637
:105048005509F509740B78081216FCD0E02508F804
:10505800906270E0A2E740F8E8C333906272F09083
:105068006270E0D2E0F09003F0E0F874FF6870033B
:10507800025335E8125D8E2402F8EF3401F9888274
:105088008983125E08EA4B600FEE2401F582EF3443
:1050980001F583E0F912102BEE2405F514EF340026
:1050A800F5158E828F83A3A3A3A3A3A3A312581AD3
:1050B800125DA4906054E09003C9F0906055E090B0
:1050C80003CAF0906056E09003CBF0906057E090F0
:1050D80003CCF0906058E09003CDF0906059E090D8
:1050E80003CEF090605AE09003CFF090605BE090C0
:1050F80003D0F090605CE0FC9003D1F090605DE03C
:10510800FD9003D2F090605EE0F50C9003D3F09030
:10511800605FE0F50D9003D4F09003CFE0F5108CBC
:10512800082508F8E43400F9850C081257C58D08DD
:105138001257C5850D081257C5EE24F7125D501297
:105148005DFA8C8285820AEE24F9F582EF12580EF8
:10515800EE24FB125802EE24FFFAEF3400FB8A8299
:105168008B83E0F508A3E0F509E5084509603A9066
:105178006000E0C333F508E433F5098A828B83E0E5
:105188002508F50EA3E03509850E82F583125DFA30
:10519800906000E0C333F8E433F98A828B83125DB0
:1051A800B5244AF582E912580EEE240BF8EF3400C4
:1051B800F9EE241DF50EEF3400F50FEE2420FAEF7A
:1051C8003400FBEE241C125D38EE240FF50AEF3490
:1051D80000F50BE510700BED7008E50C7004E50D9B
:1051E8006079851482851583125DD0EE240D125DD9
:1051F8005A2CFCA3E03DFD88828983ECF0A3EDF0F6
:105208001257DF70031258459003CAE060248508DE
:10521800828509837401F0EE246A125D5A7013EED8
:105228002474125D5A700BEE2480125D5A700312BA
:105238005845906062E08E828F8370030252C8E006
:105248002406FCA3E03400FD125DE7120D018E82F6
:105258008F83E02412125DAAE48079EC601812575B
:10526800DF70238A828B83125DD0850E82850F833F
:10527800ECF0A3ED800FEE24FD125802850E828516
:105288000F83E4F0A3F08882898312581AE06870CB
:1052980003A3E0696003025210850A82850B83E04C
:1052A800600F851482851583E064057002A3E060B1
:1052B8000B7908EEFAEFFB120B758071793E80F3DB
:1052C800E0F8A3E0F5838882A3A3A3A3A3A3E4F053
:1052D800A31261A3F0A3F0906060E0C0E0EE24693F
:1052E800125D50D0E0F09003CFE0F8125D5728F03F
:1052F800EE247AF516EF3400F51702542190055D77
:10530800E06401702B120DC1125D57700690606049
:105318007480F0EEFAEFFB120CB3E96401600E1230
:105328000B93120CADE964016003120C2F0258585C
:10533800EE2483125D5A6004780480027800E50C3C
:10534800C398F912088D8A0A8B0BEA450B60B6EEF2
:105358002483125D5A70048A088B0978008015E549
:10536800D9C0E08810E5082510F582E509125D53DB
:10537800D0E0F008E8C3950C40E5EE2483125D5AAE
:10538800603774FC250CF50C7808121988AC0CA948
:105398000DEEFAEFFB120C1D7402121734E97019A6
:1053A8007403650D700302545BE50A24FBFAE50BF0
:1053B80034FFFB12106D02545B7403650D70030219
:1053C8005460850C107511007810121988AC08AD5E
:1053D80009AA0AAB0B120BE17402121734EE246906
:1053E800125D5A64807004747F8001E0F5087808C3
:1053F80012198CE50DF508780812198CA90CAC0A5D
:10540800AD0B9003F0E0FA7B0012089374021217B8
:1054180034120DCD125D5714F0E070030253157568
:105428000860750905750A00750B00E5D914F50CB7
:10543800E5D95403F50D601B7403650D7003025321
:1054480063E50C7003025305EE2468125D5A60038D
:10545800025305793D0252BB850882850983E0FA2B
:10546800A3858208858309A3A882A983603814705C
:10547800030255B31470030257691470030255F4FC
:1054880024FD70030256971460871470030256BEF9
:1054980024FE70030256A01470030256B914700358
:1054A800025711025716850882850983E0C0E0EE8D
:1054B8002477125D50D0E0F0880889097902AC0899
:1054C800AD09EE24781257867902AC08AD09AA1600
:1054D800AB17120B9F8A088B097902AC08AD09EE4D
:1054E800247C1257AB247E125786EE2477125D5A1D
:1054F800C333F0EE2478125D5012583AEE24781235
:105508005DA1125834851682851783125DA4EE2496
:105518007E125D5AF50AA3E0F50B7404780A121797
:105528000BEE247E125D50E50AF0A3E50BF079023C
:10553800AC08AD09EE24751257972475125D50C05A
:1055480082C083851482851583125DC1D083D08281
:10555800125824400579280252BBEE247C125D5A69
:105568002401F508A3E0125D3BE4F50AF50B125897
:105578003488108911E4F512F5137808791012149B
:105588003FEE247E125D5AF510A3E0F511781079EC
:10559800081214004005793B0252BBEE24741261D4
:1055A800811261A3E4F0A3F00254197402C0E079F7
:1055B80005AC08AD097AFD7B04120B9FEAFCEBFDF4
:1055C800D0E0F9EE24811257972481125D50C082F1
:1055D800C083851482851583125DC1D083D0821261
:1055E8005824400302555DEE248080B2EE24E21276
:1055F8005D5A70147A001257B6C0E01257CED0E048
:10560800F00AEAC3940840EEEE24E3125D5AA2E0E1
:10561800EE401424DE125D50741AF0790DEEFAEFA4
:10562800FB120B3F0254191257F524E1125D7F79E2
:1056380008AC08AD09EE249C1257AB24A41257A558
:10564800AC08AD09EE24941257A5EE2494FAEF3471
:1056580000FB120BAB7904AC08AD09EE2488125795
:105668009C7904EE2488FAEF3400FB120BABEE248D
:105678008CFAEF3400FB120BBDEE2484FAEF3400F1
:10568800FB120BC39003C4E04480F07904808EEED3
:1056980024DF1261810255AFEE1257F524D3125D53
:1056A80071EE24DD12618F24D4125D71790B0256DC
:1056B80025EE24E080DC7A001257B6C0E01257CEFF
:1056C800D0E0F00AEAC3940840EE7A008A82A88201
:1056D80074D628F5827403125D53C082C08385088E
:1056E80082850983E0D083D082FBE05BC0E012575B
:1056F800CED0E01257EDA38582088583090AEAC354
:10570800940840C87909025625126195700DEE2457
:10571800F6125D50EAF07907025625850882850958
:1057280083E0C0E0EE24EE125D50D0E0F0880889F6
:10573800097402C0E0F9AC08AD09EE24EF12579CD9
:10574800EAFCEBFDD0E0F9EE24F112579724EB12B6
:10575800618F24ED125D5A6003025419790C0256C8
:1057680025EE24F5F8EF125D84E088828983F0EE57
:1057780024F4125D7F88828983E0F90252BB1257B4
:105788008A22FAEF3400FB120B9F8A088B09221237
:10579800579CEE22FAEF3400FB120B9F2212578A15
:1057A80079082212578A7902AC08AD09EE228A825A
:1057B800A88274D628F5827403125D6122E8250850
:1057C800F8E93400F922EE28F8EF3400F9E824E388
:1057D800F582E9125D7A22850A82850B83E41257E5
:1057E800EDE0640122F08508828509832224621293
:1057F8005D77E41261B2E4F0EE22125D5E2401F0FE
:10580800A3E03400F022125D61250AF0A3E0340021
:10581800F022125DC585148285158322E0C398F8AD
:10582800A3E099F9C3E894FFE9947F22851682855D
:105838001783125DC5E8C333F8E933F9228A828BEE
:1058480083125DC5850E82850F83E8F0A3E9F022F7
:105858007F1002184753BFEF02012274E812177530
:105868009003F0E0F8125D8E2420F50EEF3400F579
:105878000FEE241CF50CEF3400F50DEE241DF51089
:10588800EF3400F5119061D0E0600B85108285112E
:1058980083E4F0A38030EE246A125D5A7029EE2466
:1058A80074125D5A7021EE2480125D5A7019850CAD
:1058B80082850D83E06401700E850E82850F831248
:1058C8005DD6E8F0A3E9F0EE2407125D388E828FEA
:1058D80083A3A3A3A3A3125DD6125DB5240108E98F
:1058E800125D84125DA4EEFAEFFB120CB9E96401B3
:1058F8006008900504E06401701F8510828511839B
:10590800E4F0A3F08E828F83A3A3A3A3A3E02401D2
:10591800F8A3E0125D84125DA4EE2474126198600D
:1059280003025ACAEE2475125D4012199F85088237
:10593800850983125DD08E828F83A3A3A3A3A312AC
:105948005E08121C097402121734E97003025ACA5D
:10595800850A82850B83125E0E2477FCEF3400FDE6
:10596800EEFAEFFB120B81125D4D125849850C823D
:10597800850D83E4F0851082851183F0A3F0EE2471
:105988000F125D7F850882850983125DCB240D1275
:105998005D5A28F8A3E039F9EE240B125DA18E8236
:1059A8008F83A3A3A3A3A3125DD0850A82850B834B
:1059B800125E08121C468A088B09EE242E125E021B
:1059C800E4F50AF50B8A0C8B0DF50EF50F780879BE
:1059D8000C12143FEE2478125D677808790C1215C2
:1059E8006785080C85090D850A0E850B0FEE247E48
:1059F800F516EF3400F517851682F583125DCB2472
:105A08007AF512EF3400F513851282F583125DD012
:105A1800EE2430F50AEF3400F50BEE2432125D382F
:105A2800EA6C7002EB6D7024850882850983E06852
:105A38007003A3E0697015EE247C125E02850A8269
:105A4800850B83E06A7003A3E06B603188148915C5
:105A5800740478141216FC7814121988125D4D1209
:105A6800199FEDC313FDEC13FC8E828F83A3A3A3B0
:105A7800A3E0FA7B001208E17404121734EE2477CD
:105A8800125D5AC0E0EE242B125D50D0E0F0851272
:105A980082851383125DCB242E125DA1EE247C1225
:105AA8005DBE850A82850B83125DA48516828517E3
:105AB80083125E0EFAEFFB120B87EE2474125D71EF
:105AC800800BEE242E125D67E4F50EF50F8510822B
:105AD800851183E0F514A3E0F515EE2412125D3864
:105AE800EE241FF512EF3400F513EE2418125D4072
:105AF800780C1213EB7011851282851383E0F8E598
:105B080014687002E51560237808121988EE2410CD
:105B1800125D5012199F7814121988AA0CAB0DAC9B
