:020000040000FA
:0600000002010A02192FA3
:03002B00021D753E
:030053000219A2ED
:03006B00021D462D
:100083000217E3E5C754F84401F5C77901220000DC
:100093000080FB120086B900030200F4E4792178A2
:1000A30008B800028004F709D8FCE479297802B87B
:1000B30000028004F709D8FCE490028178A679074E
:1000C3008002F0A3D8FCD9FA900926AA82AB8390C8
:1000D300013A780379028015E493A3AC82AD838A55
:1000E300828B83F0A3AA82AB838C828D83D8E9D9D8
:1000F300E77582C37583D9740212011C75829175E9
:100103008300740012011C75D00075813F7518813E
:10011300751902759F00020096C09FF59FE473D086
:100123009F22D083D082C09FE493C0E0740193C028
:10013300E0740293F59F22FF0000B400002800281A
:1001430000283075A000A000A000A000000800084F
:10015300E001F0001000100010001000100010006B
:1001630050005000500010001000D00700000000A5
:1001730000000F00010005003075070010000100AA
:1001830081FF0000FFFF02020208025000A00000EE
:1001930000E8030241810100003081023B8101003C
:1001A300007509023581010000AE02023B810100A6
:1001B300007609023781010000C402023B8101007D
:1001C300007709023981010000C602023B81010068
:1001D300007809024581080000C702023B81010043
:1001E300007909023D810100007A09FF32093209D1
:1001F3003209320932093209320932093209320924
:10020300320932093209FFFF01053F10FF000130B7
:10021300750302010600000000000000000000005A
:1002230000000000000000000000000000000000CB
:1002330000FFFF0600800CE8031201259BCD02128C
:100243000125B2CD02120125E1CD021201251ACEFC
:100253000212012542CE0212012570CE021201259F
:1002630087CE021201259ECE02120125B4CE0212C0
:100273000125DBCE02120125EECE0212012504CFA9
:10028300021201252CCF0212012503EE01120125D2
:1002930002EF0112012537EF0112012558EF011278
:1002A300012568EF0112012589EF0112012595F05F
:1002B3000112012562F101120125D5F10112012577
:1002C3005BF2011201259EF201120125D5F2011202
:1002D30001255BF3011201252DF4011201258BF495
:1002E30001120125A3F4011201251DF501120125B7
:1002F30020F50112012523F501120125CAF501128A
:100303000125E2F50112012512F60112012532F64B
:100313000112012520F701120125D6F7011201254B
:10032300FFAA0212012538AB0212012581AB02128A
:100333000125CCAB021201250AAC0212012547AC00
:100343000212012575AC021201251CAD0212012512
:1003530026AD0212012533AD0212012566AD02124C
:10036300012528AE0212012534AE021201254CAE3E
:100373000212012556AE021201258DD60212012565
:100383009BD602120125B3D602120125CBD6021247
:100393000125CEAE011201256CAF01120125E4AF98
:1003A30001120125F9B00112012533B10112012512
:1003B300DCB101120125B1B20112012515B40112FC
:1003C30001256CB401120125F3B401120125DAB53C
:1003D3000112012527B601120125B5B60112012527
:1003E300D9B601120125AEB801120125EFB80112E9
:1003F300012511B901120125E2B90112012505BE3A
:1004030002120125D7BE0212012587BF0212012560
:100413009CC002120125C2C002120125F4D70212A8
:100423000125D7B202120125E9B2021201250FB349
:100433000212012537B40212012541B4021201252B
:100443009AB5021201253ECF021201257AD002127B
:10045300012503A10112012566A10112012576A13F
:100463000112012599A101120125E4A1011201251F
:1004730089A2011201257FA30112012549A40112BA
:100483000125C1A50112012503A601120125A1A67B
:1004930001120125C7A601120125B5A801120125E4
:1004A300BAA8011201259BAA01120125EFAA011284
:1004B300012551AB0112012579AB011201251DACB8
:1004C30001120125DFAC0112012510AD0112012536
:1004D30013AD011201255BAD011201259DAD011282
:1004E300012504AE0112012545C70212012558C793
:1004F3000212012571C702120125BCC70212012590
:1005030097C80212012526C90212012571C90212D8
:100513000125C74B00120125004C001201254C4C4C
:1005230000120125D74C00120125104D00120125A0
:10053300244F00120125005100120125EB52001235
:1005430001252254001201258256001201256E57FF
:1005530000120125B45800120125C15900120125CA
:10056300DE5900120125165A00120125385A0012CD
:100573000125D25E00120125735F00120125C45FBD
:1005830000120125EB5F00120125396000120125DD
:100593009960001201259AB602120125A4B602122F
:1005A30001256FB7021201258AB702120125CEB7C2
:1005B3000212012506B8021201252FB802120125E5
:1005C300A8B802120125BDB802120125E1B8021232
:1005D3000125F5B80212012526B90212012597B9A2
:1005E30002120125E0B9021201250ABA02120125FD
:1005F3002FBA02120125EBAE02120125B5AF02128A
:10060300012598B0021201250EB10212012550B145
:10061300021201257DB20212012527C9011201250B
:1006230050C90112012569C901120125AECA01127F
:1006330001258CCB01120125ABCB0112012538CC4E
:10064300011201257BCC01120125C8CD0112012520
:1006530067CE01120125E6D0011201257DD10112D9
:10066300012551D20112012533D3011201259FD453
:100673000112012532D5011201256ED20212012584
:10068300D7D2021201252BD30212012552D3021213
:1006930001251C9E02120125899E02120125D49E6A
:1006A30002120125C99F02120125C5A002120125CC
:1006B300AFA102120125008002120125428002121D
:1006C30001251C8102120125F58102120125F08208
:1006D30002120125CF83021201253B840212012558
:1006E3000285021201256D8502120125D4850212AD
:1006F3000125FF8502120125708602120125038759
:10070300021201256C87021201258187021201253D
:10071300C98702120125E2870212012547880212C6
:1007230001254A88021201254BC40212012573C414
:1007330002120125B1C4021201256FC5021201255F
:10074300DAC502120125F6C5021201251EC60212E0
:1007530001254EC6021201255DC602120125D7C628
:1007630002120125FDC6021201251AE2011201251A
:10077300F7E301120125F2E501120125C5E6011295
:10078300012510E70112012522E70112012562E785
:100793000112012597E701120125E3E70112012563
:1007A30012E80112012535E80112012582E8011240
:1007B30001250BE90112012518EB0112012503EDB7
:1007C300011201254BED011201258CED01120125CA
:1007D300D8ED01120125A9D501120125D4D50112A5
:1007E3000125BBDC01120125DFDE011201259AE0A0
:1007F30001120125F7E101120125981D00120125BF
:100803002F1E00120125751E00120125B41F0012B0
:1008130001254B2100120125C52100120125E021EC
:1008230000120125552200120125842300120125FF
:10083300DF2400120125E125001201253E270012C5
:100843000125572700120125B427001201259628F8
:1008530000120125C928001201253929001201259A
:10086300B32900120125022A00120125CE2A001203
:100873000125D32B00120125B22C001201253D2D99
:1008830000120125AB2D001201251F2E0012012598
:10089300482E00120125072F001201258130001276
:1008A30001259E3000120125BD30001201254E3175
:1008B300001201257331001201259B31001201251D
:1008C300163200120125703200120125C4330012C2
:1008D300012581340012012554350012012534937A
:1008E3000112012584930112012590930112012520
:1008F3006D94011201259D9401120125D5940112D5
:1009030001255495011201258C9501120125DE95CF
:10091300011201251B9601120125409801120125A0
:100923006C9A01120125679C01120125429E011256
:1009330001250BDB021201252161001201256B61E8
:10094300001201254A6700120125CB680012012518
:100953002A6F001201252570001201256270001212
:100963000125837000120125C57000120125B171A4
:1009730000120125A57200120125823500120125FE
:10098300FA3F001201250040001201250C47001216
:10099300012535C10212012533C20212012589C284
:1009A30002120125C7C20212012524C30212012526
:1009B300A1C302120125AAC302120125B6C3021262
:1009C3000125C9C30212012505C4021201251BC456
:1009D3000212012571A2021201257EA20212012533
:1009E30098A202120125D7A20212012515A3021211
:1009F30001257AA3021201258FA3021201259AA3CE
:100A030002120125A7A302120125BEA3021201258A
:100A1300CCA302120125D7A302120125E3A30212DC
:100A23000125F2A302120125FDA30212012520A430
:100A330002120125C9A402120125D9A4021201251B
:100A4300F3A40212012510A5021201252CA50212FE
:100A5300012551A5021201255BA5021201256FA5EF
:100A6300021201258EA502120125EFA5021201250E
:100A7300F5A502120125FBA50212012501A602120A
:100A830001250DA60212012540A6021201251CBC58
:100A9300011201259EBC0112012547BD011201254A
:100AA3008FBE011201259DC00112012583C10112D0
:100AB3000125B8C101120125DAC1011201257CC249
:100AC300011201254CC40112012575C4011201252F
:100AD300A7C401120125B4C401120125FFC40112E8
:100AE300012523C50112012574C7011201257EC802
:100AF30001120125DAC801120125BD740012012576
:100B0300CE7500120125B27600120125D4760012AB
:100B13000125E07600120125847800120125B178C1
:100B230000120125C77900120125177A0012012549
:100B3300667B001201253B7C00120125977C001285
:100B43000125027D00120125A37D001201250F7EE0
:100B5300001201258A7E00120125E2CB0212012533
:100B630007CC021201257DCC0212012541F80112A6
:100B730001254AF80112012553F8011201252BF929
:100B830001120125DCFA011201250CFB01120125DA
:100B930037FB0112012562FB0112012596FB0112AD
:100BA3000125D5FB0112012500FC0112012568FC7A
:100BB3000112012593FC01120125E2FC011201251A
:100BC3000DFD011201253BFD011201255EFD011200
:100BD30001257DD802120125A9D802120125D6D8F4
:100BE30002120125E0D802120125F0D802120125D4
:100BF3009A9802120125A49802120125E59802127F
:100C030001252E9902120125689902120125BE9928
:100C130002120125DF9902120125E899021201252A
:100C23003C9A02120125659A021201256F9A02125B
:100C33000125DD9A021201256D9B02120125C89B35
:100C430002120125F69B021201257E9C0212012548
:100C5300BD9C02120125F29C02120125049D021281
:100C63000125239D021201252C9D02120125EE9DD3
:100C73000212012596D502120125FEFD011201255E
:100C830034FE0112012568FE01120125B5FF011290
:100C93000125FAD80212012510D9021201251AD909
:100CA3000212012564D902120125BDA602120125F3
:100CB300D0A60212012594A702120125D3A702127E
:100CC3000125F0A70212012529A80212012576A801
:100CD30002120125A8A802120125DFA8021201258C
:100CE300F2AA02120125227F00120125457F00127C
:100CF3000125747F00120125B67F0012012554815E
:100D030001120125F382011201259E83011201259F
:100D13001E8401120125AA8401120125858801126E
:100D23000125FC8801120125138A011201254D8A30
:100D3300011201258E8A01120125D58B011201258D
:100D43002B8C01120125748C01120125E38C0112F5
:100D530001254F8D01120125808D01120125988DEA
:100D630001120125B18E01120125C18E0112012547
:100D73007790011201258E9001120125C090011276
:100D83000125629201120125F69201120125FADA78
:100D93000212012566DA02120125A5DA02120125E3
:100DA300EFFF0112012564D70212012574D7021245
:100DB300012589D702120125F1D70212012594D406
:100DC3000212012519D5021201257DD50212012532
:100DD30083D302120125A5D30212012506D40212E0
:100DE300012556D4021201250EDB0212012557BA42
:100DF300021201256BBA02120125E5BA021201257E
:100E0300C9BB02120125A0BD02120125D6D00212D0
:100E1300012528D1021201259BD10212012508D2F6
:100E2300021201259BC902120125C5C9021201251F
:100E330094CA0212012570CB021201256E88021298
:100E430001253A89021201257B8902120125B58900
:100E530002120125138A02120125678A0212012553
:100E6300C58A021201255B8B02120125638C0212D3
:100E73000125ED8D021201258B8E02120125F28EC2
:100E830002120125058F02120125F98F0212012595
:100E9300429002120125C99002120125E690021226
:100EA3000125669102120125E29202120125B193F6
:100EB300021201251E970212012504980212012530
:100EC30016DA021201253ADA02120125AFDA02120A
:100ED3000125DCDA02E066701008A3E066700A08F8
:100EE300A3E066700408A3E06622C3E7960809E757
:100EF300960809E7960809E79622C3E09608A3E057
:100F03009608A3E09608A3E09622C008C3E096F5EE
:100F13000808A3E096420808A3E096420808A3E065
:100F23009645087001D3D00822080808EAC0E0EB10
:100F3300C0E086F0E7A4FA180986F0E7A42AFA18B5
:100F43000986F0E7A42AFA180986F0E7A42AFA1911
:100F530086F0E7A4FBE5F02AFA190886F0E7A42B4C
:100F6300FBE5F03AFA190886F0E7A42BFBE5F03A23
:100F7300FA18180986F0E7A4C5F02BFBE43AFA192E
:100F830008E7C5F0C6A426F6E5F03BFBE43AFA18F9
:100F930086F0E7A4F6E5F00826F6E43B08F6E43A23
:100FA30008F6D0E0FBD0E0FA22E4CFC0E0E4CEC004
:100FB300E0E4CDC0E0E4CCC0E075F020C3E633F656
:100FC30008E633F608E633F608E633F6181818ECA5
:100FD30033FCED33FDEE33FEEF33FFC3EC9709ED46
:100FE3009709EE9709EF97191919400FFFEC97FC32
:100FF30009ED97FD09EE97FE191906D5F0BEECF73A
:1010030009EDF709EEF709EFF7191919D0E0FCD04C
:10101300E0FDD0E0FED0E0FF226016080808C6C35A
:1010230013C618C613C618C613C618C613C6D5E00A
:10103300EA227009080808226016181818C6C33374
:10104300C608C633C608C633C608C633C6D5E0EAE3
:1010530022E627F60809E637F60809E637F608090F
:10106300E637F622E026F608A3E036F608A3E036D4
:10107300F608A3E036F622E026F008A3E036F008EF
:10108300A3E036F008A3E036F022C3E697F608099A
:10109300E697F60809E697F60809E697F622C3E00D
:1010A30096F008A3E096F008A3E096F008A3E09674
:1010B300F022E056F608A3E056F608A3E056F60839
:1010C300A3E056F622E056F008A3E056F008A3E0AA
:1010D30056F008A3E056F022E0F608A3E0F608A3D2
:1010E300E0F608A3E0F622E6F008A3E6F008A3E69C
:1010F300F008A3E6F022E0FAA3E0FBA3E0FCA3E000
:10110300FD22EAF0A3EBF0A3ECF0A3EDF022CAC0BA
:10111300E0E6F0A308DAFAD0E0FA22CAC0E0E0A3DE
:10112300C582CCC582C583CDC583F0A3C582CCC59A
:1011330082C583CDC583DAE6D0E0CA22C3E498F83A
:10114300E499F91211808026C3E49AFAE49BFBE93F
:1011530020E7E9121180E498F8E499F922C3E498AE
:10116300F8E499F9121180E498F8E499F9C3E49A40
:10117300FAE49BFB22EB20E7CFE920E7E0B900107C
:10118300BB0008E88AF084F8AAF022E4FBC8FA223C
:10119300EB70227B10C833C8C933C9335007C39AD5
:1011A300C3DBF280069A50012ADBEAC833F4C8C9CC
:1011B30033F4C9FA2275F008E4C833C8C933C93314
:1011C300C99AC99B5004C92AC93BD5F0ECFBC83363
:1011D300F4C8E4C9FA22600D08C6A2E713C618C60C
:1011E30013C6D5E0F322600C08C6C313C618C61392
:1011F300C6D5E0F422700422600D18C6C333C608B6
:10120300C633C6D5E0F41822251810AF08F51840E8
:101213000215198008F51840021519D2AF22C0D063
:10122300251810AF08F518500205198008F5185055
:10123300020519D2AFD0D0222518F58210AF08F5D8
:1012430018400215198008F51840021519D2AF8508
:101253001983222518F582E43519F58322E47325D1
:1012630018C582C0E0E51934FFC583C0E0E518C3A3
:10127300958224F810AF0885831985821880088524
:101283008319858218D2AFCEF0A3E520F0A37808A6
:10129300E608F0A3DEFAEFF0A3E58124FAF8E60806
:1012A300F0A3E608F0A3E608F0A30808E608F0A315
:1012B300E608F0A315811581D0E0FED0E0F8158192
:1012C30015811581E8C0E0EEC0E0222518C582C073
:1012D300E0E51934FFC583C0E0E518C3958224F91E
:1012E30010AF088583198582188008858319858244
:1012F30018D2AFCEF0A3E520F0A37808E608F0A358
:10130300DEFAEFF0A3E58124FBF8E608F0A3E60894
:10131300F0A30808E608F0A3E608F0A315811581F9
:10132300D0E0FED0E0F815811581E8C0E0EEC0E022
:1013330022851983851882E0A3FEE0A3F5207808AF
:10134300E0A3F608DFFAE0A3FFE0A3C0E0E0A3C058
:10135300E0E0A3C0E0E0A3C0E0E0A3C0E010AF087A
:101363008582188583198008858218858319D2AFF1
:10137300D083D082020122851983851882E0A3FEDF
:10138300E0A3F5207808E0A3F608DFFAE0A3FFE086
:10139300A3C0E0E0A3C0E0E0A3C0E0E0A3C0E0108E
:1013A300AF0885821885831980088582188583197B
:1013B300D2AFD083D08222C0D02518C582C0E0E549
:1013C3001934FFC583C0E0E518C3958224F310AF39
:1013D300088583198582188008858319858218D228
:1013E300AFC8F0A3E9F0A3EAF0A3EBF0A37908E711
:1013F30009F0A3D8FAECF0A3EDF0A3EEF0A3EFF01D
:10140300A3D0E0F0A3D0E0F0A3D0E0F0A3E520F078
:10141300A3E5F0F0A322851983851882E0C0E0A339
:10142300E0F9A3E0FAA3E0FBA37808E0F608A3DF62
:10143300FAE0FCA3E0FDA3E0FEA3E0FFA3E0C0E02D
:10144300A3E0C0E0A3E0F5D0A3E0F520A3E0A3F57B
:10145300F010AF0885831985821880088583198564
:101463008218D2AFD082D083D0E0F8D0E0327404B7
:101473008006740280027401C0E0F40412123BD0AF
:10148300E0121111227404800474028000CCC0E0C5
:10149300EDC0E0E518C39CCCAD1950011D10AF069B
:1014A3008C188D1980068C188D19D2AF12111ED08D
:1014B300E0FDD0E0FC22D083D082ECC0E0EDC0E0C0
:1014C300E493A3FCE493A3FDED4C600D121505EC2E
:1014D30024FFFCED34FFFD80EFE493A3FCE493A32E
:1014E300FDED4C600D121544EC24FFFCED34FFFDC3
:1014F30080EFD0E0FDD0E0FCE493A3C0E0E493C030
:10150300E022C0E0C3E49396087401939618400F59
:10151300E49366700808740193661870007019A349
:10152300A3C3E49396087401939618A3A3400DD024
:10153300E0D0E0D0E00214F5A3A3A3A3A3A3D0E0DB
:1015430022C0E0C0F088F0E4936670080874019349
:1015530066187000A8F0A3A3700BD0F0D0E0D0E021
:0C156300D0E00214F5A3A3D0F0D0E022E9
:1015700074F51212CEEAFEEBFFEE2434F8EF3400DD
:10158000F988088909EE2435F582EF3400F583E007
:10159000F8EE2437F582EF3400F583E0F50AEC85A8
:1015A0000AF0A4FCAAF0850AF0EDA42AFDE82CF8C4
:1015B000E43DF97A257B00121180EA8508828509CD
:1015C00083F05407F87401B800028004C333D8FCD8
:1015D000C0E0E0131313541FF8EE28F8EF3400F9BD
:1015E000E8245DF582E93400F583D0E0F8E0586046
:1015F00008EE2434F582EF801EEE2436F582EF34B7
:1016000000F583E0F5F0EA84A8F0EE28F8EF340066
:10161000F9E82438F582E93400F583E0F97F040223
:10162000137A74F51212CEEAFEEBFFEE2434F58243
:10163000EF3400F583E0C0E0EE2435F582EF3400AE
:10164000F583D0E0F08E828F83A3A3A3A3A3A3A3EB
:10165000C082C0838E828F83A3A3A3A3A3E0F8A339
:10166000E0F9D083D082E0C398F508A3E099F509AA
:10167000EE2480F582EF3400F583E064017069EEBA
:101680002481F582EF3400F583E0F8A3E0F98E823F
:101690008F83A3A3A3A3A3A3A3E0FCA3E0FD8E8257
:1016A0008F83A3A3A3A3A3E0FAA3E0FBC3EA9CEB6D
:1016B0009D5027C3EC98ED99402EC3EA98EB9950C2
:1016C000277CF97D04EEFAEFFB120890EE2480F5FA
:1016D00082EF3400F583E4F0800EC3EA98EB994082
:1016E000E0C3EC98ED9950D9EE2434F8EF3400F9CA
:1016F000E8FCE9FDEE2435F582EF3400F583E0F8EF
:10170000EE2437F582EF3400F583E0F50AE508852D
:101710000AF0A4F508AAF0850AF0E509A42AF5095B
:10172000E82508F8E43509F97A257B00121180EAEA
:101730008C828D83F05407F87401B800028004C3D2
:1017400033D8FCC0E0E0131313541FF8EE28F8EF71
:101750003400F9E8245DF582E93400F583D0E0F83F
:10176000E0586008EE2434F582EF801EEE2436F552
:1017700082EF3400F583E0F5F0EA84A8F0EE28F873
:10178000EF3400F9E82438F582E93400F583E0F914
:10179000121D3802161DC082C083851882851983E8
:1017A000E0F8A3E0F9C3EA9CEB9D5012C3EC98ED7E
:1017B000994019C3EA98EB99501279018010C3EA55
:1017C00098EB9940F5C3EC98ED9950EE7900D083F1
:1017D000D08222EAC39CFAEB9DFB220085218785FB
:1017E00022C622C0E0C0D0E8C0E0E9C0E0EAC0E024
:1017F000EBC0E0ECC0E0EDC0E0C008C009C00AC02A
:101800000BC082C083C0F0759B00906182E0A2E6AD
:1018100040030218C1E591A2E640030218C1759188
:10182000BF9003BEE0640570081209B01209BC80C5
:10183000031209B6752100120A10E99003BFF0796E
:1018400000120A041208067A017B009003BDE0F939
:10185000120C4A907803E06442600302190A900572
:101860005BE014F0600302190AC2AF12186E007830
:101870002AD0E0F618D0E0F6E59F5407F9700590FD
:1018800080D880039080DC78081210DBE9C4C0E0C7
:101890007829E65508F50808E65509F509740B7826
:1018A000081211E9D0E02508F8906270E0A2E74044
:1018B000F8E8C333906272F0906270E0D2E0F0809A
:1018C00049E0A2E55024E591A2E5501E7591DF9014
:1018D00003BEE0640D70139003E0E004F064287030
:1018E00002E4F07A00E0F9120A82906181E0A2E35A
:1018F0005009E5E9A2E3500375E9F7A3E0A2E75038
:1019000009E591A2E7500375917FD0F0D083D08292
:10191000D00BD00AD009D008D0E0FDD0E0FCD0E058
:10192000FBD0E0FAD0E0F9D0E0F8D0D0D0E032C07F
:10193000E0C0D0C082C083906183E0A2E05009E59E
:10194000BFA2E0500375BFFEE0A2E15009E5BFA2CF
:10195000E1500375BFFDE0A2E25009E5BFA2E250ED
:101960000375BFFBE0A2E35009E5BFA2E350037596
:10197000BFF7E0A2E45009E5BFA2E4500375BFEF52
:10198000E0A2E55009E5BFA2E5500375BFDFE0A284
:10199000E65009E5BFA2E6500375BFBFD083D082F1
:1019A0008088C0E0C0D0E8C0E0E9C0E0EAC0E0EB79
:1019B000C0E0ECC0E0EDC0E0C0F0E5A7A2E6500F4B
:1019C000E5A1A2E6500953A7BF75A1BF121A07E50A
:1019D000A7A2E5500CE5A1A2E5500653A7DF75A12B
:1019E000DFE5A7A2E15009E5A1A2E1500375A1FD41
:1019F000E5A7A2E2500CE5A1A2E2500653A7FB75B1
:101A0000A1FBD0F002191874F81212CE75210190C2
:101A100003BEE06406701512095C8A828B83A3A35F
:101A2000A3A3A3A3E0FAA3E0FB12099EA2AFE433B1
:101A3000FED2AF9003C4E0640170187A207B00905E
:101A400003BDE0F9120CCE7A207B009003BDE0F9D3
:101A5000120C50906182E0D2E6F090055AE06021CD
:101A600085C62280169003C3E064017008E5C65461
:101A7000F84405F5C653BEFC1217DC7401652160FD
:101A8000E4EEA2E092AF7F0102137A008E238F244E
:101A9000858228858327851882851983E0CEA3E077
:101AA000CF852882852783EBC9EAC8EDCBECCA75C0
:101AB000F010C3E833C8E933C9EA33CAEB33CBC308
:101AC000EA9EF526EB9FF525B35004AB25AA26EC3C
:101AD00033CCED33CDD5F0DAAE23AF242274F1123E
:101AE00012CE8A088B098C0A8D0B740F121256784D
:101AF0000C1210DB9080C478081210B59080C47866
:101B00000C1210B57808790C120EED501578087982
:101B10000C12108D9080F87808120F0D4015790185
:101B20008013780C790812108D9080F8780C120FC1
:101B30000D40EB79007F0802137A74ED1212CE8A01
:101B4000088B098C0A8D0B7413121256780C121024
:101B5000DB9080C478081210B59080C4780C121005
:101B6000B5780C7908120EED40117808790C121036
:101B70008DAA08AB09AC0AAD0B8022751000751157
:101B8000007512007513017810790C12108D781001
:101B90007908121054AA10AB11AC12AD137F0C02CD
:101BA000137A9080C478081210DB8A828B837808BD
:101BB0001210C87F0402137A74F51212CE8C828D33
:101BC0008378081210DB8A828B8378081210A1EACE
:101BD0002404F8EB3400F98C828D83A3A3A3A3E043
:101BE000FCA3E0FD88828983C3E09CF0A3E09DF024
:101BF00088828983C3E09420A3E0944E40229081A0
:101C00002078081210DB8A828B83780812107A8A77
:101C1000828B83A3A3A3A3E02420F0A3E0344EF09F
:101C2000808074F51212CEE9FE900510E0FAA3E070
:101C3000FBEEC333F8E433F9746828F58274803915
:101C4000F583E02AF508A3E03BF50978081214753E
:101C500090811C1210F9121A8C74021212218A0837
:101C60008B098C0A8D0B7410780812101CAA08AB13
:101C7000097F0402137A74F11212CE8A0C8B0D8C38
:101C80000E8D0F740F121256E0FAA3E0FB741112BE
:101C90001256E0F508A3E0F5097413121256E0FE9F
:101CA000A3E0FF7808121475EA2401F508EB34006C
:101CB000F509E4F50AF50B780C7908120F2C9081E0
:101CC0000478081210DB780C7908120F2CAA0CABE0
:101CD0000DAC0EAD0F121A8C74021212218B09EA90
:101CE000450960047A0180027A00EC2AFCED340098
:101CF000FDECF8EDF97A717B0212118088088909F0
:101D0000E4F50AF50B8E828F8378081210EAECF85E
:101D1000EDF97A717B021211808A088B09740578BB
:101D2000081211F88E828F83A3A3A3A3E508F0A362
:101D3000E509F07F0802137AC082C083E990600051
:101D4000F0D083D08222C0E074F21213BAA2AFE4C2
:101D500033FED2AFE589A2E04006E589A2E1500357
:101D6000120DE2758900758900C2C5EEA2E092AF3E
:101D70007F01021419C0E0C0D0E8C0E0E5A8D2AFEE
:0E1D8000C2C7A2E792AFD0E0F8D0D0D0E032D8
:101D9000FFFFFFFFFFFFFFFFC082C08390619074D1
:101DA00004F0A37448F0A37402F09061807440F0D2
:101DB0009061BC7403F09061877419F0906265744F
:101DC0001BF090619C740DF090619A7433F0A374D1
:101DD00055F09061A0743AF0900558E064017009E4
:101DE000C2919003C2746780059003C27461F09041
:101DF0001D96E493906186F0901D90E493F4602723
:101E0000E493540FF8906185E0686012E5C6548051
:101E10004449F5C6E59E547F644970F8E8F053C61E
:101E200080E59E547F70FA7905120A64021FADC0E6
:101E300082C083E5A8F853A87E906181E4F0A3F006
:101E4000A3F0C2BA539AFEC289759B00C2C275E95B
:101E50000075910075BF0075A91175B90590618174
:101E6000F0A374C0F0A3E4F0D2BA439A017480588E
:101E700042A8021FADC082C08374F812120B9003F7
:101E8000C0E0F8A3E0F9E8497003021FA39003C083
:101E9000E0544060237908851882851983AA82ABB3
:101EA000831208EA851882851983AA82AB831205FA
:101EB000DE9003C0E054BFF0E054806010790C7AEB
:101EC0007C7B051208EA9003C0E0547FF0E0A2E0BA
:101ED000503190619A7433F0A37455F09061A074FE
:101EE0003AF0900558E064017009C2919003C27401
:101EF0006780059003C27461F01205E49003C0E0AE
:101F000054FEF0E05402603190619A743FF0A37483
:101F10005AF09061A0747FF0900558E06401700958
:101F2000D2919003C2747180059003C2746AF0125A
:101F300005E49003C0E054FDF0E054046013901DEC
:101F400094E493906186F01205EA9003C0E054FB9C
:101F5000F0E054086013901D95E493906186F012B0
:101F600005EA9003C0E054F7F0E054106013901DB0
:101F700096E493906186F01205EA9003C0E054EF76
:101F8000F0E05420600A1205EA9003C0E054DFF04C
:101F9000A3E05401600D1208121205F09003C1E095
:101FA00054FEF074081212218003F0A3F0D083D005
:101FB0008202012274EC12126274F412120B851860
:101FC00082851983AC82AD837583807582C0740469
:101FD00012111E901D9493F4600302214190780821
:101FE000E0C3940250030221217404121256AC8201
:101FF000AD837583807582A6740812111E851882C0
:102000008519838582128583137404121256AC825B
:10201000AD83750EFF750FFF7FFF7E00750C487551
:102020000D78801574086E70030220B474096E7008
:10203000030220B4740A6E607B850C82850D837860
:10204000081210DB8C828D83A909E50AC9F8881073
:102050007418780812101CE5104508F8C3E098A31E
:10206000E099850C82850D8378081210DB40188C6E
:10207000828D837418780812101CE5104508F8E06A
:10208000C398F8A3E0801C7418780812101CE5109F
:102090004508FAE9FB8C828D83E0F8A3E0F9EAC3F6
:1020A00098F8EB99F9C3E8950EE9950F5006880E5C
:1020B000890FEEFF0EE50C2404F50CE50D3400F558
:1020C0000DEEC39413500302202474FF650E7004B8
:1020D00074FF650F60238F08740278081211F8747A
:1020E000482508F58274783509F58378081210DBE5
:1020F000851282851383E508F0EC24020C0CED3484
:1021000000FD851282851383A38582128583137453
:102110000C121256E5826C7003E5836D6003022099
:1021200012750801750900780812147574021212EC
:1021300056AC82AD837A657B07120DC4740212120D
:1021400021740C1212217F0C021334C082C08390C0
:1021500061AE7468F0A3746AF090624574FBF0A3FA
:1021600004F053F4FD43FE029005587401F09061B1
:10217000A0E0643A90619A70237433F0A37455F030
:102180009061A0743AF0740164017009C2919003E7
:10219000C2746780289003C274618021743FF0A3E9
:1021A000745AF09061A0747FF0740164017009D2D8
:1021B000919003C2747180059003C2746A021FACCF
:1021C0007F04021334C082C08390050AE06401706A
:1021D0000A90050FE06004790C80027900021FADBF
:1021E000C082C08375E1F190050DE0605514600870
:1021F0001460591460518059120824900503E0F9C5
:102200007A047B051209E69080C81210F9120A1CA4
:102210009081001210F91209F290050EE0F91209EE
:10222000FE7901120A58900501E02416F8A3E03463
:1022300000F988828983743CF0A37408F079000265
:102240001FAD12082A80B412083080AF1208368001
:10225000AA791280EA74F412126275D90D9004F210
:10226000E0A2E0E4331313F8900503E0C4333354E1
:10227000C0484401F5D97801790588828983A3A3F0
:10228000A3E0F5D988828983A3A882A983E864079B
:102290007003E9640570E378F2790488828983A386
:1022A000E0F5D988828983A3A882A983E864F870BD
:1022B00003E9640470E575E1959004F2E0F97AF3BE
:1022C0007B041209EC9009DB74D6F0A37407F0A329
:1022D0007432F0A37409F0A37432F0A37409F0A36C
:1022E0007432F0A37409F0A374DCF0A37407F0A3B4
:1022F0007432F0A37409F0A374F4F0A37407F0909F
:1023000009E97432F0A37409F0A37432F0A37409DC
:10231000F0A37432F0A37409F0A37432F0A374092B
:10232000F0A37432F0A37409F0A37432F0A374091B
:10233000F0900501E0F8A3E0F5838882A3A3780874
:102340001210DB9080CC78081210679080C4780857
:102350001210B5900501E0240EF8A3E03400F988CE
:1023600082898378081210EA900501E02414F8A30A
:10237000E03400F9888289837413F09003BE7402FC
:10238000F00221C0C082C083900513E02407F5D974
:10239000900503E0C4333354C0F5D978017905883A
:1023A000828983A3A3A3E0F5D988828983A3A88225
:1023B000A983E864077003E9640570E3900513E0FE
:1023C000601F78017905FAE82413F582E93400F5F5
:1023D00083E0F5D988828983A3A882A9831AEA7049
:1023E000E6900533E02407F5D9900503E0C43333C4
:1023F00054C04404F5D97801790588828983A3A360
:10240000A3E0F5D988828983A3A882A983E8640719
:102410007003E9640570E3900533E0601F7801798B
:1024200005FAE82433F582E93400F583E0F5D9882C
:10243000828983A3A882A9831AEA70E675E1959040
:1024400009DB74E2F0A37407F0A37432F0A37409FB
:10245000F0A37432F0A37409F0A37432F0A37409EA
:10246000F0A374DCF0A37407F0A37432F0A3740932
:10247000F0A374F4F0A37407F09009E97432F0A3A8
:102480007409F0A37432F0A37409F0A37432F0A3BA
:102490007409F0A37432F0A37409F0A37432F0A3AA
:1024A0007409F0A37432F0A37409F0908120121023
:1024B000F9900501E0240EF8A3E03400F988828940
:1024C00083121105900501E02414F8A3E03400F90B
:1024D000888289837412F09003BE7401021FACC01D
:1024E00082C083900513E02407F5D9900503E0C46A
:1024F000333354C04402F5D9780179058882898341
:10250000A3A3A3E0F5D988828983A3A882A983E83D
:1025100064077003E9640570E3900513E0601F78B9
:10252000017905FAE82413F582E93400F583E0F532
:10253000D988828983A3A882A9831AEA70E675E103
:10254000959009DB74EEF0A37407F0A374EEF0A38A
:102550007407F0A374EEF0A37407F0A374EEF0A375
:102560007407F0A374EEF0A37407F0A374EEF0A365
:102570007407F0A374F4F0A37407F09009E97432BF
:10258000F0A37409F0A37432F0A37409F0A37432B9
:10259000F0A37409F0A37432F0A37409F0A37432A9
:1025A000F0A37409F0A37432F0A37409F0908120B1
:1025B0001210F9900501E0240EF8A3E03400F98828
:1025C000828983121105900501E02414F8A3E034F8
:1025D00000F9888289837414F09003BE7404021F8A
:1025E000ACC082C083900513E02407F5D9900503A1
:1025F000E0C4333354C04406F5D9780179058882A4
:102600008983A3A3A3E0F5D988828983A3A882A99B
:1026100083E864077003E9640570E3900513E060E4
:102620001F78017905FAE82413F582E93400F5836F
:10263000E0F5D988828983A3A882A9831AEA70E683
:10264000900533E02407F5D9900503E0C4333354F3
:10265000C04404F5D97801790588828983A3A3A3AE
:10266000E0F5D988828983A3A882A983E8640770EA
:1026700003E9640570E3900533E0601F7801790594
:10268000FAE82433F582E93400F583E0F5D988824D
:102690008983A3A882A9831AEA70E675E195900957
:1026A000DB74E8F0A37407F0A37432F0A37409F0AC
:1026B000A37432F0A37409F0A37432F0A37409F088
:1026C000A37432F0A37409F0A37432F0A37409F078
:1026D000A374F4F0A37407F09009E97432F0A374C2
:1026E00009F0A37432F0A37409F0A37432F0A37458
:1026F00009F0A37432F0A37409F0A37432F0A37448
:1027000009F0A37432F0A37409F09081201210F93B
:10271000900501E0240EF8A3E03400F98882898353
:10272000121105900501E02414F8A3E03400F988A3
:102730008289837415F09003BE7403021FACC082BB
:10274000C083900501E0F8A3E0F5838882A3A3A3EA
:10275000A3A3A3E4021FAA74F71212629003ECE091
:10276000F875F004A4C8AAF02AF974EE28F87403E6
:1027700039F9E82405FAE93400FB8A828B83E0FC0E
:10278000A3E0FD88828983A3A3A3A3A3A3A3A3A3F8
:10279000ECF0A3EDF088828983A3A3A3A3A3A3A352
:1027A000E024FFF8A3E034FFF98A828B83E8F0A3EA
:1027B000E90229FC74F7121262EAFEEBFF9061D085
:1027C000E0600302289175D90E75D90375D904EE1E
:1027D000248CF582EF3400F583E5822408F8E58344
:1027E0003400F9E0F5D9A3E865827003E9658370E8
:1027F000F2EE2484F582EF3400F583E5822404F8B8
:10280000E5833400F9E0F5D9A3E865827003E96552
:102810008370F275E1957908EE248CFAEF3400FBB1
:102820001208DE7904EE2484FAEF3400FB1208DE8D
:102830007C00EEF8EFF9ECFAC3E49AFA95E0FBEECF
:102840002AFAEF3BFBEA248BF582EB3400F583E0B8
:10285000C0E0E824ABF582E93400F583D0E0F00C69
:1028600088828983A3A882A983ECC3940840C7EE19
:102870002470F582EF3400F583E0F8A3E0F9EE244C
:1028800072F582EF3400F583E8F0A3E9F079018076
:102890000279000229FDC082C08375D90275D9036F
:1028A00075D90575E195EA2470F582EB3400F5835E
:1028B000E0F8A3E0F9EA2472F582EB3400F583E84E
:1028C000F0A3E9F07901021FAD74F6121262EAFE7C
:1028D000EBFF90055C7406F075085C7509057808D7
:1028E0001214757C017903120926740212122175E3
:1028F000D90675D90375825C758305E0F5D9A3E522
:102900008264617004E583640570F075E19590035D
:10291000BEE06408701EEE2470F582EF3400F5838B
:10292000E0F8A3E0F9EE2472F582EF3400F583E8D5
:10293000F0A3E9F07901022AC974F6121262EAFEE4
:10294000EBFF9061D0E07066780190055C740BF04D
:102950009003BEE06407701975085C750905780876
:102960001214757C0179031209267402121221785F
:1029700005740128F5D975D90375825C758305E85E
:10298000FAE0F5D9A31AEA70F875E195EE2470F52E
:1029900082EF3400F583E0F8A3E0F9EE2472F582CB
:1029A000EF3400F583E8F0A3E9F0790180027900C3
:1029B000022AC974F7121262EAFEEBFF75D9037599
:1029C000D90375D90DEE24DEF582EF3400F583E0EE
:1029D000F5D975E1957904120A22EE2470F582EF9B
:1029E0003400F583E0F8A3E0F9EE2472F582EF34C9
:1029F00000F583E8F0A3E9F079018001F07F01029E
:102A0000133474F6121262EAFEEBFF9061D0E0F824
:102A10007480C398FAEE2483F582EF3400F583E0E6
:102A20006004780480027800E8240BF8EAC3985028
:102A300003022AC77D0990055CEDF0EE24E3F8EF70
:102A40003400F97A5D7B057C0888828983E08A827C
:102A50008B83F088828983A3A882A9838A828B834F
:102A6000A3AA82AB831CEC70E0EE2483F582EF34E2
:102A700000F583E0601D75085C750905780812147F
:102A8000757C097903EEFAEFFB1209267402121223
:102A9000217D0D74012DF5D975D90375825C75837F
:102AA000058D08E0F5D9A31508E50870F675E195E0
:102AB0007904120A22EE241DF582EF3400F583E436
:102AC000F0A3F07901800279007F0202133474F6DA
:102AD000121262EAFEEBFF9061D0E0F87480C398B6
:102AE000FAEE2483F582EF3400F583E06004780485
:102AF00080027800E82408F8EAC3985003022BCE3D
:102B00007D0690055C740CF09003DBE090055DF0B1
:102B10007ADC7B03785E79057C028A828B83E0888D
:102B2000828983F08A828B83A3AA82AB838882897D
:102B300083A3A882A9831CEC70E07ADE7B037C026D
:102B40008A828B83E088828983F08A828B83A3AA1E
:102B500082AB8388828983A3A882A9831CEC70E05E
:102B6000EE2483F582EF3400F583E0601D75085C88
:102B700075090578081214757C067903EEFAEFFBE7
:102B800012092674021212217D0A74012DF5D975DD
:102B9000D90375825C7583058D08E0F5D9A3150806
:102BA000E50870F675E1957904120A22EE2470F5B5
:102BB00082EF3400F583E0F8A3E0F9EE2472F582A9
:102BC000EF3400F583E8F0A3E9F0790180027900A1
:102BD000022AC974F6121262EAFEEBFF9061D0E09D
:102BE000F87480C398FAEE2483F582EF3400F583FD
:102BF000E06004780480027800E82404F8EAC398CE
:102C00005003022CAD780290055CE8F0EE24F5F557
:102C100082EF3400F583E090055DF0EE2483F582C9
:102C2000EF3400F583E0601B75085C7509057808D2
:102C30001214757C027903EEFA120926740212123C
:102C4000217806740128F5D975D90375825C7583DE
:102C5000058808E0F5D9A31508E50870F675E19533
:102C6000EE2474F582EF3400F583E4F0EE2480F571
:102C700082EF3400F583E4F0EE241DF582EF34009A
:102C8000F583E4F0A3F07904120A22EE240DF58214
:102C9000EF3400F583E0F8A3E0F9EE2472F582EF5B
:102CA0003400F583E8F0A3E9F079018002790002AD
:102CB0002AC974F61212629061D0E0F87480C39849
:102CC000FCEA2483F582EB3400F583E060047804A9
:102CD00080027800E82404F8ECC398405B79029005
:102CE000055C7407F0EA24F6F582EB3400F583E026
:102CF00090055DF0EA2483F582EB3400F583E06013
:102D00001875085C75090578081214757C0209129B
:102D1000092674021212217906740129F5D975D990
:102D20000375825C758305E9F8E0F5D9A318E870AE
:102D3000F875E195790180027900022AC974F512CB
:102D40001262E9FCA2AFE433F50AC2AF7D00800154
:102D50000DEA246FF582EB3400F583E0F8EDC398BB
:102D6000501A8D08EA2508F8EB3400F9E8246BF5D1
:102D700082E93400F583E06C70D68024EA246FF891
:102D8000EB3400F9E0FEEA2EFAEB3400FBEA246BA8
:102D9000F582EB3400F583ECF088828983E004F05F
:102DA000E50AA2E092AF7F0302133474F6121262B6
:102DB000A2AFE433FDC2AFEA246FF582EB3400F535
:102DC00083E014F07C0060368C08EA2508F8EB34C8
:102DD00000F9E8246CF582E93400F583E0C0E0E80E
:102DE000246BF582E93400F583D0E0F00CEA246F1F
:102DF000F582EB3400F583E0F8ECC39840CAEA248E
:102E00006EF582EB3400F58374FFF0EA246AF582F4
:102E1000EB3400F583E4F0EDA2E092AF022AC9C0E2
:102E200082C083E5A8F8C2AFEA246BF582EB3400D8
:102E3000F583E9F0EA246AF582EB3400F583E4F0E7
:102E4000E8A2E792AF021FAD74F3121262EAFEEB42
:102E5000FFECFAEDFB8A828B83A3A3A3A3E0541FAC
:102E6000F0EE2436F582EF3400F583E4F0F50AEE57
:102E7000FCEFFD8A828B83E0C0E0EC245DF582EDFF
:102E80003400F583D0E0F0750B00E50A333333549A
:102E9000F8F50C8A828B83E0F508750900E50B785C
:102EA000081211D9E508A2E0502FEE2436F8EF34CD
:102EB00000F988828983E0F508EE2508F508EF34EB
:102EC00000F509E5082438F582E5093400F583E5C5
:102ED0000CF088828983E004F0050B050CE50BC338
:102EE000940840AF050A8A828B83A3AA82AB838CA5
:102EF000828D83A3AC82AD83E50AC394055003029F
:102F00002E737F0502133474F71212629003EAE005
:102F1000640170077A007B0002307E7E009003F02F
:102F2000E070F17401F0A3E4F0A3F090045004F019
:102F3000900453E4F0A3F090045604F09003F3E4FB
:102F4000F0A3F0A3F0A3F09003FD04F0900423E4B9
:102F5000F09081141210F990040612110590040AE1
:102F6000E4F0A3F0A3F090046EF0900462F09004FB
:102F7000577480F0A3E4F090045DF0900455F09055
:102F800004D9F0A3F0A3F0A3F0A3F0A3F0A3F0A35F
:102F9000F09004E2F0900471F09004C1F0A3F0907E
:102FA00081141210F99004C31211059081141210AB
:102FB000F99004C71211059004CDE4F09004CFF00D
:102FC0009004CBF09004E5F0A3F0A3F0A3F0A3F0FD
:102FD000A3F0A3F0A3F078EA7903E8246FF582E97F
:102FE0003400F58374FFF00E88828983A3A882A938
:102FF00083EEC3940440E37AEA7B0378F97904888A
:10300000828983E0C0E0EA2461F582EB3400F58335
:10301000D0E0F088828983A3A882A9838A828B83E7
:10302000A3AA82AB83E864FE7003E9640470D07ADB
:10303000EA7B0378D1790388828983A3E0C0E0EA40
:1030400024E7F582EB3400F583D0E0F088828983B1
:10305000A3A882A9838A828B83A3AA82AB83E86414
:10306000D97003E9640370CF9003EAE004F06401CF
:1030700070089003F2E09003ECF07AEE7B030229F3
:10308000FDC082C0839003F1E4F09003F0F0900360
:10309000EAF0A3F0A374FFF075E1F1021FADC08266
:1030A000C083780079009003F1E0600478EE790342
:1030B00088828983A3A3A3A3E0F9021FAD74F6124B
:1030C0001262EAFEEBFF8E828F83A3A3A3E0600F60
:1030D0008E828F83A3A3A3E4F09003EBE014F0901F
:1030E00003EAE014F070069003EC74FFF08E828F18
:1030F00083A3A3E4F09004FEE0700D9003EBE06482
:103100000170057900120A04EE2465F582EF34009F
:10311000F583E0F8A3E0F9E8496029EE2465F8EFCB
:103120003400F9880889098882F583E0FCA3E0FD72
:103130009003ECE0FA7B001206148508828509836F
:10314000E4F0A3F0EEFAEFFB120956022AC974F775
:10315000121262EAFEEBFF8E828F83A3A3A3A3E089
:10316000FA7B00120656EEFAEFFB1208A812093E8F
:103170000229FDC082C08378D1790388828983A324
:10318000E4F088828983A3A882A983E864D97003C4
:10319000E9640370E69003D20224DA74F612126234
:1031A000EAFEEBFFEC2403F8ED3400F98808890906
:1031B000EC2407F8ED3400F9E8FCE9FD8C828D83FE
:1031C000E0F8A3E0F9850882850983E0FAA3E0FB33
:1031D000121180EE240DF582EF3400F583E8F0A3A0
:1031E000E9F08C828D83E0F8A3E0F98508828509F7
:1031F00083E0FAA3E0FB1211808B09EA4509601312
:10320000EE240DF582EF3400F583E02401F0A3E015
:103210003400F0022AC974F6121262EAFEEBFFEEE5
:10322000242EF582EF3400F583E0FCA3E0FD780066
:1032300079FAECFAEDFB121180EE2470F582EF348E
:1032400000F583E8F0A3E9F0780079FAECFAEDFBF9
:103250001211808B09EA45096013EE2470F582EFA4
:103260003400F583E02401F0A3E03400F0022AC921
:1032700074F0121262EAFEEBFF7410121256780814
:103280001210DB1209C88A0C8B0D8C0E8D0F9080EA
:10329000D0780C1210679080C4780C1210B5780C9E
:1032A0001214718E828F83E0F8A3E0F5838882A3E5
:1032B000A31210F9121ADD7404121221E96003023C
:1032C00033BD8E828F83E02402F8A3E03400F9E856
:1032D000FAE9FB8A828B83780812107A9080C4788E
:1032E000081210DB8A828B8378081210C8EE240B38
:1032F000F582EF3400F583C082C0838E828F83A372
:10330000A3A3A3A3E02401F8A3E03400F9D083D061
:1033100082E0687003A3E069700579010233BF8E13
:10332000828F83A3A3A3A3A3A3A3E02401F0A3E01C
:103330003400F0EE2474F582EF3400F583E064018C
:103340007036EE2475F582EF3400F583E0F8A3E0E3
:10335000F98E828F83A3A3A3A3A3A3A3E068700322
:10336000A3E0697013EE2475F582EF3400F583E075
:103370002401F0A3E03400F0EE2480F582EF340065
:10338000F583E064017036EE2481F582EF3400F5B8
:1033900083E0F8A3E0F98E828F83A3A3A3A3A3A362
:1033A000A3E0687003A3E0697013EE2481F582EF57
:1033B0003400F583E02401F0A3E03400F079007FCD
:1033C0000802133474F71212629003ECE0F875F0FF
:1033D00004A4C8AAF02AF974EE28FE740339FF8009
:1033E00028EE2465F8EF3400F988828983E0FCA395
:1033F000E0FD88828983E4F0A3F08E828F83A3A30B
:10340000A3A3E0FA7B00120614EE2465F582EF34E4
:1034100000F583E0F8A3E0F9E849604FEE2464F595
:1034200082EF3400F583E0F5087808121479EE2471
:1034300063F582EF3400F583E0F9EE2465F582EF61
:103440003400F583E0FCA3E0FDEEFAEFFB1208D2B6
:103450007401121221E96089EE2465F582EF3400CF
:10346000F583E0F8A3E0F9E84970137C007D008E55
:10347000828F83A3A3A3A3E0FA7B00120614022980
:10348000FD74F2121262EAFEEBFF890A740E121248
:1034900056E0FAEE2462F582EF3400F583E0640131
:1034A000600302354D9061D0E0F87480C398F50C4C
:1034B000EE2483F582EF3400F583E0600478048025
:1034C0000278008908E928F8E43400F9E8240208C1
:1034D00008E93400F9E50C98E499A2D265D03340AC
:1034E00068EA7005750B028003750B01E0603975A1
:1034F000090078081214757A5C7B051209087402B9
:1035000012122175085C7509057808121475AC0A49
:10351000A90BEEFAEFFB12092674021212217404B1
:10352000250AF50A7C5C7D057401250AF5D9850B11
:10353000D9E50A600D8C828D83F8E0F5D9A318E8EF
:1035400070F875E195790080067907800279FF7F30
:1035500006021334C082C083E960208C828D83E030
:103560008A828B83F08C828D83A3AC82AD838A8226
:103570008B83A3AA82AB8319E970E0ECFAEDFB021E
:103580001FAD74EA121262907803E06442705E909C
:10359000055BE014F07056C2AF12359C00782AD05B
:1035A000E0F618D0E0F6E59F5407F970059080D852
:1035B00080039080DC78081210DBE9C4C0E0782931
:1035C000E65508F50808E65509F509740B78081260
:1035D00011E9D0E02508F8906270E0A2E740F8E831
:1035E000C333906272F0906270E0D2E0F09003EC2E
:1035F000E0F470030239A5E0F875F004A4C8AAF05D
:103600002AF974EE28FE740339FFEE2402F582EFE6
:103610003401F583E0F8A3E0F9E849601EEE2402E6
:10362000F582EF3401F583E0FAA3E0FBEE2401F527
:1036300082EF3401F583E0F9120C4A8E828F83A366
:10364000A3A3A3A3A3A3E0F8A3E0F98E828F83A38F
:10365000A3A3A3A3E8F0A3E9F0906054E09003C50E
:10366000F0906055E09003C6F0906056E09003C77C
:10367000F0906057E09003C8F0906058E09003C964
:10368000F0906059E09003CAF090605AE09003CB4C
:10369000F090605BE09003CCF090605CE0FC900305
:1036A000CDF090605DE0FB9003CEF090605EE0FDB9
:1036B0009003CFF090605FE0FA9003D0F09003CBDE
:1036C000E08C082508F8E43400F98D08E82508F8AE
:1036D000E93400F98B08E82508F8E93400F98A088C
:1036E000E82508FAE93400FBEE24F7F582EF340010
:1036F000F583E02AF0A3E03BF08C08EE24F9F58294
:10370000EF3400F583E02508F0A3E03400F0EE2468
:10371000FBF582EF3400F583E02401F0A3E03400F0
:10372000F0EE24FFF582EF3400F583E0F8A3E0F932
:10373000E8496042906000E0C333FCE433FDE82CCC
:10374000F582E93DF583E02AF0A3E03BF0906000CC
:10375000E0FA9003CDE0FCEAC333FAE433FBE82A55
:10376000F8E93BF9E8244AF582E93400F583E02CD6
:10377000F0A3E03400F09003CBE070119003CEE0B2
:10378000700BA3E07007A3E070030238858E828F70
:1037900083A3A3A3A3A3E0F8A3E0F9EE240DF5828D
:1037A000EF3400F583E028F8A3E039F9EE240BF5B7
:1037B00082EF3400F583E8F0A3E9F0EE240FF58200
:1037C000EF3400F583E4F0EE241CF582EF3400F5CD
:1037D00083E06401701EEE2420F582EF3400F5834F
:1037E000E0F8A3E0F9EE241DF582EF3400F583E85C
:1037F000F0A3E9F09003C6E06052EE241CF582EFDE
:103800003400F5837401F0EE246AF582EF3400F59C
:1038100083E07038EE2474F582EF3400F583E070B5
:103820002BEE2480F582EF3400F583E0701EEE2449
:1038300020F582EF3400F583E0F8A3E0F9EE241DD3
:10384000F582EF3400F583E8F0A3E9F0906062E0E0
:1038500070030239388E828F83E0F8A3E0F9E82400
:1038600006FCE93400FDE82402FAE93400FB120901
:10387000C28E828F83E02412F8A3E03400F988829C
:1038800089830239429003CDE0603AEE240FF5823D
:10389000EF3400F583E4F0EE241CF582EF3400F5FC
:1038A00083E064017040EE2420F582EF3400F5835C
:1038B000E0F8A3E0F9EE241DF582EF3400F583E88B
:1038C000F0A3E98020EE24FDF582EF3400F583E0DB
:1038D0002401F0A3E03400F0EE241DF582EF340063
:1038E000F583E4F0A3F0EE240BF582EF3400F583CA
:1038F000E0F8A3E0F98E828F83A3A3A3A3A3E068DB
:103900007003A3E06960030237F4EE240FF582EF41
:103910003400F583E060128E828F83A3A3A3A3A358
:10392000E064057002A3E0600B7908EEFAEFFB1289
:1039300008AE8071793E80F3EE241DF582EF3400ED
:10394000F583E4F0A3F0906060E0C0E0EE2469F558
:1039500082EF3400F583D0E0F09003CBE0F8EE2462
:1039600067F582EF3400F583E028023AA590055907
:10397000E064017035120A70EE2467F582EF3400BE
:10398000F583E070069060607480F0EEFAEFFB1251
:10399000098CE96401600E1208CC120986E9640101
:1039A000600312093E7F0E021334EE2483F582EF8A
:1039B0003400F583E06004780480027800E50CC3ED
:1039C00098F91206088A0A8B0BEA450B60A7EE24C9
:1039D00083F582EF3400F583E070048A088B09E5F3
:1039E0000C6012850882850983F512E5D9F0A315CC
:1039F00012E51270F6EE2483F582EF3400F583E0D1
:103A0000603774FC250CF50C7808121475AC0CA901
:103A10000DEEFAEFFB12092C7402121221E9701953
:103A20007403650D7003023AE5E50A24FBFAE50B21
:103A300034FFFB120C8C023AE57403650D7003022F
:103A40003AEA850C0E750F00780E121475AC08ADAD
:103A500009AA0AAB0B1209087402121221EE24699A
:103A6000F582EF3400F583E064807004747F800198
:103A7000E0F5087808121479E50DF50878081214B5
:103A800079A90CAC0AAD0B9003ECE0FA7B001206AE
:103A90000E7402121221120A7CEE2467F582EF34B2
:103AA00000F583E014F0E0700302398575085C7559
:103AB0000905750A00750B00E5D914F50CE5D95414
:103AC00003F50D60207403650D70030239DFE50C0A
:103AD000700302396DEE2468F582EF3400F583E05F
:103AE000600302396D793D02392B8508828509838F
:103AF000E0F8A3858208858309603B147003023CCB
:103B0000E2147003023FD6147003023D4024FD709E
:103B100003023E60147003023A96147003023EB62C
:103B200024FE7003023E6F147003023EB114700352
:103B3000023F4B023F5AEE2477F510EF3400F511A7
:103B4000E0851082851183F0850882850983A3852D
:103B50008208858309EE2478F50EEF3400F50F799D
:103B600002AC08AD09AA0EFB1208D88A088B09EE30
:103B7000247AF50CEF3400F50D7902AC08AD09AAF2
:103B80000CFB1208D88A088B097902AC08AD09EE43
:103B9000247CFAEF3400FB1208D88A088B09EE2443
:103BA0007EF50AEF3400F50B7902AC08AD09AA0ADC
:103BB000FB1208D88A088B09851082851183E0C31F
:103BC00033F0850E82850F83E0F8A3E0F9E8C33374
:103BD000F8E933F9850E82850F83E8F0A3E9F085D3
:103BE0000C82850D83E0F8A3E0F9E8C333F8E933EC
:103BF000F9850C82850D83E8F0A3E9F0850A8285BA
:103C00000B83E0F50CA3E0F50D7404780C1211F8A9
:103C1000850A82850B83E50CF0A3E50DF0EE247593
:103C2000F50AEF3400F50B7902AC08AD09AA0AFBDE
:103C30001208D8850A82850B83C082C0838E828F4A
:103C400083A3A3A3A3A3E0F8A3E0F9D083D082E0E9
:103C5000C398F8A3E099F9C3E894FFE9947F40057D
:103C6000792802392BEE247CF582EF3400F583E0CD
:103C70002401F508A3E03400F509E4F50AF50BEE9C
:103C8000247AF582EF3400F583E0F8A3E0F9E8C385
:103C900033F8E933F9880C890DE4F50EF50F78084F
:103CA000790C120F2CEE247EF582EF3400F583E0C0
:103CB000F50CA3E0F50D780C7908120EED400579AE
:103CC0003B02392BEE2474F582EF3400F583740146
:103CD000F0EE241DF582EF3400F583E4F0A3F0024A
:103CE0003A96EE2481F50AEF3400F50B7402C0E039
:103CF0007905AC08AD097AF97B041208D8EAFCEB27
:103D0000FDD0E0F9AA0AAB0B1208D8850A82850B10
:103D100083C082C0838E828F83A3A3A3A3A3E0F872
:103D2000A3E0F9D083D082E0C398F8A3E099F9C367
:103D3000E894FFE9947F4003023C60EE2480808792
:103D4000EE24E2F582EF3400F583E07039EEF8EF0F
:103D5000F97AD17B038A828B83A3E0C0E0E824E375
:103D6000F582E93400F583D0E0F08A828B83A3AA40
:103D700082AB8388828983A3A882A983EA64D970ED
:103D800003EB640370CFEE24E3F582EF3400F58398
:103D9000E0A2E0EE401824DEF582EF3400F58374F3
:103DA0001AF0790DEEFAEFFB12087E023A962462C1
:103DB000F582EF3400F583E4F0EE2468F582EF3409
:103DC00000F583E4F0EE24E1F582EF3400F583742E
:103DD00001F07908AC08AD09EE249CFAEF3400FB41
:103DE0001208D88A088B097902AC08AD09EE24A420
:103DF000FAEF3400FB1208D88A088B09EE2494F5F8
:103E00000AEF3400F50B7908AC08AD09AA0AFB12D9
:103E100008D88A088B097908AA0AAB0B1208DEEECB
:103E20002488F50AEF3400F50B7904AC08AD09AA33
:103E30000AFB1208D87904AA0AAB0B1208DEEE249A
:103E40008CFAEF3400FB1208F0EE2484FAEF340011
:103E5000FB1208F69003C0E04480F07904023DA410
:103E6000EE24DFF582EF3400F5837401023CDEEED0
:103E70002462F582EF3400F583E4F0EE2468F582E5
:103E8000EF3400F583E4F0EE24D3F582EF3400F54F
:103E900083E4F0EE24DDF582EF3400F5837401F065
:103EA000EE24D4F582EF3400F583E4F0790B023D83
:103EB000A4EE24E080ADEEF8EFF97AD17B038A829C
:103EC0008B83A3E0C0E0E824E3F582E93400F583C6
:103ED000D0E0F08A828B83A3AA82AB838882898315
:103EE000A3A882A983EA64D97003EB640370CFEEC0
:103EF000F8EFF97AD17B038A828B83A3C082C083D7
:103F0000850882850983E0D083D082FCE05CC0E034
:103F1000E824E3F582E93400F583D0E0F0850882F7
:103F2000850983A38582088583098A828B83A3AA56
:103F300082AB8388828983A3A882A983EA64D9702B
:103F400003EB640370B17909023DA4EE24EBF58222
:103F5000EF3400F583E064017011EE24F6F582EF92
:103F60003400F583E8F07907023DA48508828509CD
:103F700083E0C0E0EE24EEF582EF3400F583D0E07C
:103F8000F0850882850983A38582088583097402E8
:103F9000C0E0F9AC08AD09EE24EFFAEF3400FB12F3
:103FA00008D8EAFCEBFDD0E0F9EE24F1FAEF34009A
:103FB000FB1208D8EE24EBF582EF3400F583740190
:103FC000F0EE24EDF582EF3400F583E06003023A71
:103FD00096790C023DA4EE24F5F8EF3400F9E08860
:103FE000828983F0EE24F4F582EF3400F5837401C6
:103FF000F088828983E0F902392B53BFEF02012256
:1040000074F01212629003ECE0F875F004A4C8AAF0
:10401000F02AF974EE28FE740339FF9061D0E06055
:104020000FEE241DF582EF3400F583E4F0A38053F6
:10403000EE246AF582EF3400F583E07047EE2474D5
:10404000F582EF3400F583E0703AEE2480F582EFDC
:104050003400F583E0702DEE241CF582EF3400F57A
:1040600083E06401701EEE2420F582EF3400F583B6
:10407000E0F8A3E0F9EE241DF582EF3400F583E8C3
:10408000F0A3E9F08E828F83A3A3A3A3A3E0F8A3F8
:10409000E0F9EE241DF582EF3400F583E028F8A363
:1040A000E039F9E8240108E93400F9EE2407F50ABB
:1040B000EF3400F50B850A82F583E8F0A3E9F0EE12
:1040C000240BF582EF3400F583C3E098A3E0995008
:1040D000358E828F83A3A3A3A3A3A3A3C082C0838F
:1040E000EE240BF582EF3400F583E0F8A3E0F9D07D
:1040F00083D082E0C398F8A3E099F9C3E894AAE9D1
:1041000094105035803BEE240BF582EF3400F5839C
:10411000C082C0838E828F83A3A3A3A3A3A3A3E0A3
:10412000F8A3E0F9D083D082E0C398F8A3E099F92E
:10413000C3E894ABE994105008900500E064017066
:1041400030EE241DF582EF3400F583E4F0A3F08E09
:10415000828F83A3A3A3A3A3E02401F8A3E03400E8
:10416000F98E828F83A3A3A3A3A3A3A3E8F0A3E95B
:10417000F0EE2474F582EF3400F583E0640160030F
:104180000243E8EE2475F582EF3400F58312148CB7
:104190008E828F83A3A3A3A3A3A3A3E0FCA3E0FD2C
:1041A0008E828F83A3A3A3A3A3E0FAA3E0FB12173D
:1041B000967402121221E970030243E8EE2475F8A6
:1041C000EF3400F9880889098882F583E0F8A3E0D4
:1041D000F9850A82850B83E8F0A3E9F0EE2477FCE9
:1041E000EF3400FDEEFAEFFB1208BAEE247CF58204
:1041F000EF3400F583E0F8A3E0F9EE2420F582EF38
:104200003400F583E8F0A3E9F0EE241CF582EF34E6
:1042100000F583E4F0EE241DF582EF3400F583E42D
:10422000F0A3F0EE240FF582EF3400F5837401F073
:10423000850A82850B83E0F8A3E0F9EE240DF58270
:10424000EF3400F583E028F8A3E039F9EE240BF50C
:1042500082EF3400F583E8F0A3E9F08E828F83A328
:10426000A3A3A3A3E0FCA3E0FD850882850983E066
:10427000FAA3E0FB1217D38A088B09EE242EF582ED
:10428000EF3400F583E0FAA3E0FBE4F50AF50B8ACE
:104290000C8B0DF50EF50F7808790C120F2CEE240F
:1042A00078F582EF3400F583E0F50CA3E0F50D78A6
:1042B00008790C121054EE247AF582EF3400F5835D
:1042C000E06A7003A3E06B7044EE247EF582EF3465
:1042D00000F583E0F8A3E0F9EE2432F582EF340034
:1042E000F583E0687003A3E0697022EE247CF58218
:1042F000EF3400F583E0F8A3E0F9EE2430F582EF27
:104300003400F583E0687003A3E0696052EE247E18
:10431000F582EF3400F583E0F50CA3E0F50D7404AD
:10432000780C1211E9780C121475EE247CF582EFEA
:104330003400F58312148CEE247AF582EF3400F504
:1043400083E0FCA3E0C313FDEC13FC8E828F83A3F8
:10435000A3A3A3E0FA7B0012065C7404121221EE00
:104360002477F582EF3400F583E0C0E0EE242BF5EE
:1043700082EF3400F583D0E0F0EE247AF582EF345A
:1043800000F583E0F8A3E0F9EE242EF582EF340087
:10439000F583E8F0A3E9F0EE247CF582EF3400F534
:1043A00083E0F8A3E0F9EE2430F582EF3400F583E2
:1043B000E8F0A3E9F0EE247EF582EF3400F583E027
:1043C000F8A3E0F9EE2432F582EF3400F583E8F04B
:1043D000A3E9F0EEFAEFFB1208C0EE2474F582EFC9
:1043E0003400F583E4F08016EE242EF582EF3400DD
:1043F000F583E0F508A3E0F509E4F50AF50BEE24F2
:1044000018F582EF3400F5837808120ED8701EEE8E
:10441000241FF582EF3400F583E0F8EE241DF582C9
:10442000EF3400F583E0687002A3E06039EE2412F7
:10443000F50CEF3400F50D780C121475EE2410F520
:1044400082EF3400F58312148CEE241DF582EF34D4
:1044500000F58312148CAA08AB09AC0AAD0B121C30
:10446000767406121221EE2418F582EF3400F583DB
:1044700078081210EAEE241DF582EF3400F583E08F
:10448000C0E0EE241FF582EF3400F583D0E0F0EEBB
:104490002412FCEF3400FD8E828F83E02402FAA305
:1044A000E03400FB121BB8906062E060147CB07DC9
:1044B000808E828F83E02402FAA3E03400FB121B7B
:1044C000B88E828F83E0F8A3E0F988828983A3A362
:1044D000E82408FCE93400FD740612111E8E828F58
:1044E00083E02402F8A3E03400F9E8FAE9FBEE24C3
:1044F0001DF582EF3400F583E0F50CA3E0F50DE443
:10450000F50EF50F908108780C121067780C790879
:10451000120F2C8A828B83780C12107A9080C478C8
:104520000C1210DB8A828B83780C1210C89004FE68
:10453000E0640160030246627901120A048E828FF0
:1045400083E0F8A3E0F99081201210F9E8240EF539
:1045500082E93400F583121105E82412F8E93400E9
:10456000F9E8FAE9FBEE2412F582EF3400F58378DE
:10457000081210DBE50875F0E2A4C508A8F075F094
:1045800004A428F875F0E2E509A428F5098A828BCD
:1045900083E02508F0A3E03509F0EE2416F582EF5C
:1045A0003400F583E0F508A3E0F5097404780812F7
:1045B00011E9E5082401F8E5093400F98A828B83C2
:1045C000E028F0A3E039F0906062E08E828F837083
:1045D000030246CEE02412F8A3E03400F988828971
:1045E00083E02410F0A3E03401F0EE240FF582EF15
:1045F0003400F583E06031EE242BF582EF3400F5D2
:1046000083E0F875F071A4C8AAF075F002A42AF945
:104610008E828F83E02412FAA3E03400FB8A828B1F
:1046200083E028F0A3E039F08E828F83E02414F831
:10463000A3E03400F9888289837410F08E828F831E
:10464000E02416F8A3E03400F9888289837442F0EC
:10465000A37408F0EEFAEFFB12162279007F08022D
:1046600013349080F47808120F0D500302453DEE8C
:10467000241DF582EF3400F583E0F8A3E0F9E84962
:10468000600302453D7808121471EEFAEFFB120840
:10469000C67404121221E96401600302453DEE2450
:1046A0000FF582EF3400F583E060128E828F83A3D2
:1046B000A3A3A3A3E064057002A3E06004790880CB
:1046C00002793EEEFAEFFB1208AE7901808FE0240A
:1046D00012F8A3E03400F988828983E02410F8A35B
:1046E000E034FFF97A717B0212118088088909EEA3
:1046F000242EF582EF3400F583E0F8A3E0F9C3E55A
:104700000898E5099950030245EA80B174F612123F
:1047100062EAFEEBFF803B9003C8E07003024A3C74
:10472000EEFAEFFB120884EE24A4F508EF3400F54E
:10473000097808121475EE249CFCEF3400FD8E827B
:104740008F83A3A3A3A3E0FA7B001206687402126E
:104750001221EE246FF582EF3400F583E0607CEEE9
:10476000246BF582EF3400F583E024FE603224FEF2
:10477000606D1470030247FA1470030248DB147072
:1047800003024BB524FE7003024A7024FE7003023C
:1047900049A6147003024AC81470030249FB80B290
:1047A000EE246AF582EF3400F583E064017019901D
:1047B00003C7E07003024A3C7916EEFAEFFB1208D9
:1047C000AE79017F02021334EEFAEFFB120872EEAB
:1047D000246AF582EF3400F583E9F0790080E4EE95
:1047E000246AF582EF3400F583E064017003024728
:1047F00017EEFAEFFB12084880D5EE246AF582EF37
:104800003400F583E0640170579003C8E06033EE34
:104810002483F582EF3400F5837401F09081141243
:1048200010F9EE24D5F582EF3400F58312110590CE
:1048300081141210F9EE24D9F582EF3400F58312B9
:104840001105EE24DFF582EF3400F583E0640160AA
:1048500003024A3C7906EEFAEFFB12088A0247523D
:10486000EE24D3F582EF3400F583E064017028EE86
:10487000FAEFFB12084EE964017019EE24DFF582AD
:10488000EF3400F583E4F0EE246AF582EF3400F5AE
:10489000837401F00247DBEE24D4F582EF3400F597
:1048A00083E060F0EE24B3F508EF3400F5097808F2
:1048B000121475EE248CFCEF3400FDEE24C3FAEFE5
:1048C0003400FB1208FC7402121221EE24D3F5828C
:1048D000EF3400F5837401F0024752EE246AF5824A
:1048E000EF3400F583E06401600302499C9003C843
:1048F000E07003024A3CEE2420F582EF3400F58399
:10490000E0F8A3E0F9EE241DF582EF3400F583E82A
:10491000F0A3E9F0EEFAEFFB120884EE2462F582D0
:10492000EF3400F5837401F0EE2468F582EF340073
:10493000F5837401F0EE24DDF582EF3400F583E0B9
:104940006401701379008E828F83A3A3A3A3E0FA7E
:104950007B0012067480137C0179008E828F83A302
:10496000A3A3A3E0FA7B0012066EEE24DDF582EF2E
:104970003400F583E4F0EE24E1F582EF3400F583B2
:10498000E4F0EE24E0F582EF3400F583E4F0EE2469
:10499000DFF582EF3400F583E40248D7EEFAEFFB4F
:1049A0001208540247CFEE246AF582EF3400F583F3
:1049B000E064017019EE24E0F582EF3400F583E045
:1049C00064017078EEFAEFFB120884024752EEFAA7
:1049D000EFFB12085AE9640160030247DBEE24E0B2
:1049E000F582EF3400F583E4F0EE2483F582EF34B2
:1049F00000F583E4F0EE246A0248CEEE246AF582E4
:104A0000EF3400F583E06401705C9003C8E0602639
:104A1000EE2483F582EF3400F583E4F0EE2462F5B2
:104A200082EF3400F5837401F0EE2468F582EF34F0
:104A300000F5837401F09003C7E07088EE2472F8EB
:104A4000EF3400F988828983E024FFF0A3E034FF8B
:104A5000F088828983E0F8A3E0F9E849600302471F
:104A6000DB79220247BAEEFAEFFB1208600247CF69
:104A7000EE246AF582EF3400F583E064017034902F
:104A800003C8E060B7EE24E2F582EF3400F58374EA
:104A900001F0EE2420F582EF3400F583E0F8A3E086
:104AA000F9EE241DF582EF3400F583E8F0A3E9F078
:104AB0000249C4EEFAEFFB120866EE246AF582EFB3
:104AC0003400F583E9024893EE246AF582EF34005E
:104AD000F583E064016003024B9EEE24EBF582EF68
:104AE0003400F583E064017051EE24ECF582EF347C
:104AF00000F583E0640160030249C4EE24F1F5820D
:104B0000EF3400F58312148CEE24EFF582EF3400BD
:104B1000F58312148CEE24EEF582EF3400F583E079
:104B2000FC8E828F83A3A3A3A3E0FA7B00790012FB
:104B3000066274041212210249C4EE2472F8EF34A2
:104B400000F988828983E024FFF0A3E034FFF08835
:104B5000828983E0F8A3E0F9E84960030247DBEECD
:104B600024F1F582EF3400F58312148CEE24EFF576
:104B700082EF3400F58312148CEE24EEF582EF34CC
:104B800000F583E0FC8E828F83A3A3A3A3E0FA7BCE
:104B90000079221206627404121221024A61EE2484
:104BA000EDF582EF3400F5837401F0EEFAEFFB12BD
:104BB000086C0247CFEEFAEFFB120878E964016057
:104BC000030247DB0249C474F7121262E99002DC67
:104BD000F07C147D037AFF7BFF1205849002DD7464
:104BE000FFF0A3F0A3E4F0A3F0790512051E9002F4
:104BF000DCE0F91204587A907B0512072E025A1154
:104C000074F41212628A088B09EB548060309002AF
:104C1000DCE0F9120C328A0A8B0BAE0AAF0BEE4FB6
:104C200060138E828F83E064B0700312052AEEFA5F
:104C3000EFFB120C20AA08E5096480FB80047A00CF
:104C40007B00024CD2F0A3125E4FA32274F2121228
:104C500062890AE975F017A4FEAFF09002E1E4F072
:104C60009002DF124CCC600A120C8C9002DFE4F050
:104C7000A3F0EEFAEFFB120C868A088B09EA4509CD
:104C8000602FEEFCEFFD7900120C0E9002DFE508BC
:104C9000F0A3E509F07B008008124CB6E4F0A3F025
:104CA0000BEBC3950A40F2E50A9002E1F07900802F
:104CB000027913026057EB75F017A4F8A9F090027F
:104CC000DFE028FAA3E0398A82F5832212564DEA02
:104CD0004B227F04021334C082C0839002E2124D43
:104CE0000A601C88828983A3A3E06A7003A3E06B37
:104CF0008882898370E8A3A3A3A312564980047A0B
:104D0000007B00D083D082020122126064E8492235
:104D100074EE12126274FC12120BEAFEEBFF85189D
:104D200082851983E4F0A3F0EE240212599BEE244D
:104D300005125E56EE2404F50EEF1252C2E024FE78
:104D4000603924FC604624FE605224FE605E24FE2E
:104D50007003024E2324FE7003024E8724FE70036C
:104D6000024E9624FE7003024EA524FC7003024EF0
:104D7000B424FE7003024EC3024F009002FB74176E
:104D8000F0A3E4124F15120242024F0085188285EB
:104D90001983AC82AD83120530024ED0851882850E
:104DA0001983AC82AD83120536024ED0850C08857E
:104DB0000D097402121256AC82AD838508828509F2
:104DC000831256491204768A0C8B0DAC0CAD0DEC97
:104DD0004D603BE4F50CF50D780C121475750CFB69
:104DE000750D02780C121475750CFC750D02780C9B
:104DF000121475740812125612148C126088121252
:104E000021E9F50C700B12563F12025A800F750CF7
:104E100001850882850983124F031259BB850C084E
:104E2000024ED37402121256AC82AD83850C828579
:104E30000D83125414603C850C82850D83A3A3124C
:104E4000148C7510FB75110278101214757510FC16
:104E50007511027810121475740812125612148CFF
:104E6000126088121221E9F509700B12563F1202E6
:104E700060800F750901850C82850D83124F031226
:104E800059BB850908804C851882851983AC82AD91
:104E90008312053C803A851882851983AC82AD83E4
:104EA000120542802B851882851983AC82AD83124E
:104EB0000548801C851882851983AC82AD83120554
:104EC0004E800D851882851983AC82AD83120554FE
:104ED000E9F508E50860298E828F83A3E0641460F9
:104EE0001F850E82850F83E09002FB124F0D12602A
:104EF000609002FC1259BBE508A3124F1512023C48
:104F00000258AA12606485188285198322F08518D8
:104F10008285198322F07CFB7D02850A82850B83C2
:104F200012564D2274EE12126274FC12120B8A0A8F
:104F30008B0B8C0E8D0FEA2405F508EB3400F50978
:104F40007C157D0079007AFB7B02120C0EE50824AB
:104F500002F50CE509125E59851882851983858250
:104F6000108583117810121475850882850983A332
:104F7000A3A3A312540B121475E5082405F510E53C
:104F8000093400F5117810121475850C82850D8393
:104F900012576012047074061212218A108B11AE1F
:104FA00010AF11E50A2402F50AE50B12599EEE4FE7
:104FB00070030250E280177402121256125649888A
:104FC000828983EAF0A3EBF09002FBE004F0900208
:104FD000FBE0C3940540030250E2E4F510F51178BC
:104FE000101214757510E47511027810121475758D
:104FF00010E575110278101214757406121256120B
:10500000148C7910EEFCEFFD12608A121221E97007
:105010005E850882850983A3A3A3A3A3A3A3E0F8C5
:105020009002E4E068704812540B1214757CE57D20
:1050300002E5082408FAE5093400FB120C087402A2
:10504000121221E960298E828F83A3A3A3A3125693
:10505000499002FBE0F510740278101211F874FC0C
:105060002510F58274023511F583EAF0A3EBF07494
:1050700002121256858210858311781012147574ED
:105080000212125612148C850C82850D8312566FF3
:105090001212218A108B11AE10AF119002FBE0F5B5
:1050A00010751100740278101211F874FB2510F8B5
:1050B00074023511F988828983A3124CCC700302E3
:1050C0004FAEE82403080808E93400F9EE4F600306
:1050D000024FB78882898374FFF0A3F09002FBE04F
:1050E00004F09002FBE0600A12563F12024E790073
:1050F000800B8508828509831259B2790A0258AA61
:1051000074EA12126274FE12120B8C128D13EA24CE
:1051100005F50CEB126072125E82750800750900CD
:10512000EA2402F510EB3400F51185188285198305
:1051300085820A85830B780A121475850C82850D89
:1051400083A3A3A3A31252D8121475E50C2405F56A
:105150000AE50D12599E780A121475850C82850D88
:10516000831252DC12047074061212218A0A8B0B0D
:10517000EA450B700302527DEA2404F50EEB12524D
:10518000C2125E828A828B83A3A3A3E0F985108278
:10519000851183125653600302527DE4F514F51510
:1051A00078141214757514E47515027814121475B8
:1051B0007514E575150278141214757406121256DA
:1051C00012148C7913AC0AAD0B85108285118312F1
:1051D0006090121221E9F509600302527D9002E409
:1051E000E0F8E5087009E024029002FCF0801490D9
:1051F00002FCE0FCE82402FAE43400FBEA6C7001F3
:10520000EB707E850882AA8212540294141253FA1B
:10521000506B850E82850F83E0C0E074FD2A125228
:10522000B9D0E0F00508850E82850F83A3E0C0E0C9
:1052300085080A74FD250A1252B9D0E0F0050890DD
:1052400002E41252D81214757CE57D0285080A74B6
:10525000FD250A1252CC1212219002E4E02508F535
:105260000874FF6E700374FF6F6012EE24010EEF7E
:105270003400FFE508C39414500302512AE5086086
:105280001312565D851082851183125649120254FD
:1052900079008014E509700375090A851282851367
:1052A00083EEF0A3EFF0A90974021212217F0E021F
:1052B000133485080C74FD250CF58274023400F556
:1052C00083223400F50F850E82F58322FA740234AE
:1052D00000FB120BF6740222125EB822A3A3125234
:1052E000E2221259A9FDEEFAEFFB2274EE121262CD
:1052F00074FE12120B8C0E8D0FEA2405F50CEB12C6
:105300005E59750B009002FBE4F0F50AEA2402F501
:1053100008EB3400F50980449002FBE0FA9002E4C7
:10532000E0F812540294171253FA400D9002FBE079
:10533000F87416C3989002E4F012540B1214757CA2
:10534000E57D0274FC2AFA74021252CF12122190E7
:1053500002E4E0F89002FBE028F0050AE50C2416D0
:10536000F582E50D1252BDE0F8E50AC3985074903D
:1053700002FBE0C39416506BE50AC333F8E433F93B
:10538000E50C28FEE50D39FF851882851983AC826E
:10539000AD838E828F831254147008750B011259DD
:1053A000AE8050E4F510F51178101214757510E404
:1053B00075110278101214757510E57511027810C8
:1053C000121475740612125612148C7916850882FE
:1053D000850983126090121221E9F50B70030253C4
:1053E0001880BB7CFB7D02850882850983125649A3
:1053F000120266A90B74020258ACE99400C365D08E
:105400003322EA28F8E43400F9E822E0F5107511B7
:10541000007810221258A18A108B11AC10AD11EC3B
:105420004D2274EA12126274FC12120B8A0C8B0D5C
:105430008C128D13EA2405F50AEB12599E750800AB
:10544000750900E50A2402F510E50B3400F5117426
:105450000212125685820E85830F780E12147585FE
:105460000A82850B83A3A3A3A3125E5E121475E5C3
:105470000A2405F50EE50B3400F50F780E121475AD
:105480008510828511831259A41256431204707438
:10549000061212218A0E8B0FAE0EAF0FE50C2402FE
:1054A000F50EE50D3400F50F80388882898374FF8E
:1054B000F005081252B274FFF005089002E4E0F51E
:1054C0000C750D00780C1214757CE57D0285080CB6
:1054D00074FD250C1252CC1212219002E4E0250832
:1054E000F508EE4F60278E828F83A3A3A3E0F98592
:1054F0000E82850F83125653EE2404125E56E96025
:1055000027850C82850D831256351259BBE508702C
:105510000302561B12565D850E82850F8312564973
:1055200012026C7900025630E4F514F51578141265
:1055300014757514E475150278141214757514E554
:105540007515027814121475740812125612148C00
:105550007911EEFCEFFD850E82850F8312609012AB
:105560001221E9F509709A850882AA82EA9002E47C
:105570007009E024049002FCF08025E0F89002FC21
:10558000E0F514E82404FCE43400FDEC651470013B
:10559000ED708112540294121253FA400302551412
:1055A000850C82850D83E0C0E074FD2A1252B9D0CB
:1055B000E0F00508850C82850D83A3E0C0E012525F
:1055C000B2D0E012567885820C85830D780C1214C7
:1055D00075740412125612148C8510828511831270
:1055E000566F1212218A0C8B0DAE0CAF0D85080C74
:1055F00074FD250CF874023400F9EE4F7003025468
:10560000AA851882851983E088828983125678A337
:10561000E0C0E01252B2D0E00254B8E50970037560
:10562000090A850A82850B831256351259BBA909CE
:1056300074040252AA126064851282851383227C4C
:10564000FB7D02850A82850B8312564D22E0FAA368
:10565000E0FB2212564D12045EE9F509229002FC8D
:10566000E0F5F0E508849002FBF07CFB7D0222125D
:1056700052E212047C740422F00508851882851910
:10568000832274EC12126274FE12120B8A088B09C8
:105690008C0E8D0FEA2405FEEB3400FF12588BEEC2
:1056A0002418125E56EA450B700302572E125874E6
:1056B00050291257538A108B11EA4511606B7912E9
:1056C000AC0AAD0B85088285098312564985108284
:1056D000851183121260E9F50A7058E4F50AF50B9A
:1056E000780A1214758E828F83A3A3E0F50A780AD4
:1056F000121475EE240312599B780A1214758E82C7
:105700008F831257601205727406121221E9F50A8E
:105710007021850C82850D83E0701F8508828509C4
:10572000831256491202728011750A0E8009750A99
:10573000018004E50A60031259AE850C82850D8351
:10574000E0600479008002A90A74021212217F0C21
:1057500002133485188285198312564D120566226C
:105760001259A9FD85088285098312564D2274EECF
:1057700012126274FE12120B8A088B098C0C8D0DAA
:10578000EA2405FEEB3400FF750E0012588BEA4543
:105790000B7003025852125874502C1257538A0E31
:1057A0008B0FEA450F604A7912AC0AAD0B8508826F
:1057B000850983125649850E82850F83121260E98E
:1057C000F50E6003025855850882850983125A3008
:1057D000AA0AFB12586670147AFF7BFF12586660A3
:1057E0006C88828983E50AF0A3E50BF0750A0080D6
:1057F00007750E0E805F050A9002E1E0FAE50AC324
:105800009A504AE50A75F017A4FAABF088828983AA
:10581000A3A3E02AFAA3E03BFB8A828B831259A45C
:10582000EC4D70D2750A17750B00780A121475EEDC
:10583000FCEFFD120BF67402121221EEFCEFFD8557
:1058400008828509831256491202788014750E0960
:105850008003750E0112605C850C82850D831259E0
:10586000BBA90E0253F512055A8A108B11A810A974
:1058700011E84922E5082402F508E5093400F50994
:105880008A828B83A3A3A3E0A2E5228518828519CF
:1058900083AC82AD838E828F831258A18A0A8B0BD0
:1058A00022E0FAA3E0FB1204762274041212217F94
:1058B0000A02133474EC1212628C108D11EA240562
:1058C000F50CEB125E59750F00EA2402F50AEB1293
:1058D000599E850A82F58312564912611670030299
:1058E0005990750E008071850C82850D83E06401EE
:1058F000704F8E828F83A3A312148C8E828F83A30A
:10590000A3A3A3E0F5127513007812121475EE2408
:1059100005F512EF3400F513781212147512564380
:105920001205727406121221E9F50F6014850C82BB
:10593000850D83E4F012605C851082851183125915
:10594000BB7C177D007900EEFAEFFB120C0E8E8205
:105950008F83E4F0A3F0050E9002E1E0F8E50EC3BA
:1059600098501EE50E75F017A4F8A9F085088285F9
:105970000983A3A312607C1259A4EC4D6003025862
:10598000E785088285098374FFF0A3F0E50F7006B0
:1059900012564312027EA90F02574EF50AEF340049
:1059A000F50B22A31259A9FD22E0FCA3E0228E826E
:1059B0008F83126064850E82850F83E8F0A3E9F07F
:1059C00022C082C0839002DDE06A7003A3E06B70A6
:1059D000067ADD7B0280047A007B00024D0374F7B7
:1059E0001212627F00EF75F003A4F8A9F0EC28F81A
:1059F000ED39F988828983E06A7003A3E06B700651
:105A0000E8FAE9FB800B0FEFC3940240D87A007BE1
:105A1000007F0102133474F6121262125F6770067F
:105A20007A007B008007A3A3A3A312564902602833
:105A3000E0F50AA3E0F50B2274E812126274FB127F
:105A4000120BE9851882851983F08A168B178C0E44
:105A50008D0F741F121256125E9874211212561274
:105A60005A307423121256125E827510008C828D89
:105A700083A3A3A3E0A2E4502A741D121256125766
:105A8000598A828B83E58245837003025B44790ADD
:105A9000AC0EAD0FAA16AB17121260E9F510600339
:105AA000025B47850E82850F83E064026003025D1E
:105AB000FDA3126060850882850983A38582128513
:105AC0008313E50E2406F50CE50F125E59888289D2
:105AD00083E0FAA3E0F9EA2400F514E439F5157837
:105AE000141214B90100002801280C5B07000228D9
:105AF000E35B0328535B00290D5D0129355D022915
:105B0000DC5C03290D5D04299E5DFD5DEE4F703E5A
:105B1000850C82850D83125E73FAE9FB8A828B8382
:105B2000E0850A82850B83125EAF1214758A828B20
:105B300083A31259A9FDAA08AB09120BF67402122D
