:020000040000FA
:0600000002011D0225A211
:03002B00022CB0F4
:03003300022C801C
:030053000226186A
:03006B00022C0C58
:03007B00022C5004
:10008300022493E5C754F84401F5C779012200001F
:100093000080FB120086B90003020107E47921788E
:1000A30008B800028004F709D8FCE479297802B87B
:1000B30000028004F709D8FCE490028178E679070E
:1000C3008002F0A3D8FCD9FA781A90014D7A01BACC
:1000D30000028007E493A3F608DAF9900966AA827E
:1000E300AB8390014E781879048015E493A3AC8216
:1000F300AD838A828B83F0A3AA82AB838C828D83A8
:10010300D8E9D9E77582237583AA740312012F7581
:100113008291758300740012012F75D00075813FA1
:10012300751881751902759F00020096C09FF59F8F
:10013300E473D09F22D083D082C09FE493C0E07445
:100143000193C0E0740293F59F2202FF0000B40004
:100153000028002800283075A000A000A000A000FF
:1001630000080008E001F00010001000100010006B
:100173001000100050005000500010001000D00775
:100183000000000000000F000100050030750700AB
:100193001000010081FF0000FF630681066906FF6E
:1001A30002020208025000A0000000E80302769059
:1001B3000100005890027490010000BB09026E9088
:1001C300010000B202027490010000BC09026C90AD
:1001D300010000C802027490010000BD09026A9088
:1001E300010000CA02027490010000BE0902689077
:1001F300080000CB02027490010000BF0902669060
:10020300010000C009FF0100FF20027690010000F9
:100213005E90027490010000240A026490000000C2
:1002230000000270900300001803930C930C930CCE
:10023300930C930C930C930C930C930C930C930CC3
:10024300930C930C690F810F630FFFFF02020202ED
:100253000202020202010D00000010010276900169
:1002630000006190027490010000670A028C900103
:1002730000007807027490010000680A028A900166
:100283000000208F027490010000690A0288900127
:100293000000058F0274900100006A0A0286900133
:1002A3000000A38E0274900100006B0A0284900187
:1002B3000000B58E0274900100006C0A0282900166
:1002C3000000918E0274900100006D0A028090017B
:1002D30000007F8E0274900100006E0A027E90017E
:1002E3000000F78E0274900100006F0A027C9001F7
:1002F3000000700A01053F10FF0001307503020181
:1003030006000000000000000000000000000000E4
:1003130000000000000000000000000000FFFF06D6
:1003230000800CE803010109094C4F53542D424C42
:1003330045051228009001020A000201060302F09B
:10034300FF09FF4C4F53542D424C454C4F53542DF2
:10035300424C4500000000000000000000000000C7
:10036300B913D713BF13084368617261637465726D
:100373006973746963203100104368617261637447
:10038300657269737469632032000276900100001C
:100393005B90027490010000810B029290030000B5
:1003A3005709027290010000820B02749001000051
:1003B300930B0294900000005D090270900300000B
:1003C3005E09027290010000940B0000000000001F
:1003D300000000000000000000000000000000001A
:1003E300000000000000000000000000000000000A
:1003F30000000000000000000000000000000000FA
:1004030000000000000000000000000000000000E9
:1004130000000100B0423BAAB83F0000003F8C90AF
:100423006339AA0CA33A00941E3C8042633DCFFE7D
:10043300753E1572313FF304353F8096184B00002B
:1004430080BF2292D43EDD9B2A3F04000040FFFF81
:100453007F7FFFFF7FFF010080341872313F000070
:10046300803F1201381C9F03120138339F0312018E
:1004730038629F031201389B9F03120138C39F0305
:10048300120138F19F0312013808A0031201381F2B
:10049300A00312013835A0031201385CA003120136
:1004A300386FA00312013885A00312013898A00306
:1004B300120138BDA003120138828C021201388167
:1004C3008D02120138B68D02120138D78D02120146
:1004D30038E78D02120138088E02120138148F0298
:1004E300120138E18F02120138549002120138DAF6
:1004F30090021201381D9102120138549102120127
:1005030038DA9102120138AC92021201380A9302CE
:100513001201382293021201389C93021201389F70
:100523009302120138A29302120138499402120174
:1005330038619402120138919402120138B1940285
:100543001201389F9502120138559602120138960E
:10055300E302120138BEE302120138ECE302120196
:100563003823E4021201388BE402120138D4E40286
:100573001201381FE5021201385DE5021201389AB3
:10058300E502120138C8E5021201386FE6021201D2
:100593003879E60212013886E602120138B9E6021A
:1005A3001201387BE70212013887E7021201389FF4
:1005B300E702120138A9E70212013834A603120137
:1005C3003842A6031201385AA60312013872A60351
:1005D3001201381EAF01120138BCAF0112013834C9
:1005E300B00112013849B10112013883B10112017E
:1005F300382CB20112013801B30112013865B4017C
:10060300120138BCB40112013843B5011201382A72
:10061300B60112013877B60112013805B70112018C
:100623003829B701120138FEB8011201383FB90168
:1006330012013861B901120138E2B901120138CC53
:10064300BA0112013892BB0112013871C8021201BA
:100653003843C902120138ECC9021201382FCA0209
:10066300120138BCCA0212013848CB0212013829E0
:10067300CC0212013858CC0212013854CD021201B7
:10068300389CCD021201389ECE02120138E2CE020E
:1006930012013808CF021201385DA8031201380095
:1006A30080031201381680031201383C80031201C3
:1006B300386481031201386E8103120138C7820343
:1006C300120138C7830312013804D50212013839E5
:1006D300D6021201386CD602120138B6D6021201C4
:1006E3003874D802120138999001120138FC900134
:1006F30012013841920112013851920112013874EA
:100703009201120138BF9201120138649301120160
:10071300385A94011201382495011201389C96012C
:10072300120138DE96011201387C9701120138C993
:100733009701120138EF9701120138DD9901120177
:1007430038E29901120138C39B01120138179C0149
:10075300120138799C01120138A19C01120138451C
:100763009D01120138079E01120138389E011201C2
:10077300383B9E01120138839E01120138C59E0148
:100783001201382C9F01120138849003120138970B
:100793009003120138B09003120138FB9003120149
:1007A30038D69103120138659203120138B09203CF
:1007B300120138D42C00120138E02C001201381930
:1007C3002D001201385E2D00120138152E00120182
:1007D300389B2E00120138002F001201382C2F00F5
:1007E300120138652F001201387931001201385592
:1007F30033001201384035001201387736001201F8
:1008030038D73800120138C33900120138093B00C8
:10081300120138163C00120138333C001201386BC8
:100823003C00120138853C00120138ED3C001201F6
:1008330038874100120138284200120138794200FA
:10084300120138A04200120138EE42001201380CA6
:100853004300120138604300120138394400120189
:1008630038C04500120138484600120138ECDE0258
:10087300120138F6DE02120138C1DF02120138DC40
:10088300DF0212013802E00212013846E0021201CF
:10089300387EE002120138A7E00212013820E1029B
:1008A30012013835E1021201384AE102120138819E
:1008B300E10212013895E102120138C6E102120188
:1008C3003800E2021201382CE20212013882E202FD
:1008D300120138D6E2021201381FE302120138492D
:1008E300E3021201386EE30212013850F5021201DD
:1008F300381AF602120138FDF60212013873F702B4
:10090300120138B5F702120138E2F8021201380079
:10091300800212013829800212013842800212013A
:1009230038878102120138658202120138848202FB
:10093300120138118302120138548302120138A1C3
:100943008402120138408502120138BF8702120166
:10095300385688021201382A89021201380C8A0299
:10096300120138788B021201380B8C02120138C73E
:10097300FE0112013830FF0112013884FF01120118
:1009830038ABFF01120138DFEC021201384CED02E3
:1009930012013897ED021201388CEE0212013888E9
:1009A300EF0212013872F00212013864A902120137
:1009B30038A6A90212013880AA0212013859AB02E3
:1009C30012013854AC0212013833AD021201389FC0
:1009D300AD0212013866AE02120138D1AE02120125
:1009E3003838AF0212013863AF02120138D4AF02B4
:1009F30012013867B002120138D0B002120138E593
:100A0300B0021201382DB10212013846B1021201AF
:100A130038ABB102120138AEB102120138B68A0303
:100A2300120138DE8A031201381C8B03120138DAF3
:100A33008B03120138458C03120138618C031201B8
:100A430038898C03120138B98C03120138C88C031E
:100A5300120138428D03120138688D03120138F6F2
:100A63009F0112013893A10112013879A3011201E8
:100A73003843A4011201388AA401120138D1A40118
:100A8300120138E3A40112013823A50112013852DF
:100A9300A5011201389EA501120138D6A501120144
:100AA3003804A60112013855A601120138E4A60143
:100AB300120138D2A901120138ACAB01120138E896
:100AC300AB0112013842AD0112013889AD011201A7
:100AD30038FEAD011201384CAE0112013883AE016C
:100AE30012013861A0021201387EA00212013818E7
:100AF300A6021201381AA70212013894A8021201A1
:100B03003842A902120138AF4600120138F84600F4
:100B13001201382547001201385847001201386581
:100B23004700120138714700120138834700120150
:100B330038584800120138B64800120138EB480013
:100B4300120138874A00120138D44A00120138F8DA
:100B53004A00120138654B001201380A4C00120199
:100B630038C64C00120138454D00120138094E00B9
:100B7300120138184E00120138994E00120138380C
:100B83004F001201386A4F0012013805500012015C
:100B9300386350001201389D50001201381E510075
:100BA300120138E751001201389052001201381730
:100BB30053001201386F5300120138D05300120151
:100BC30038F95300120138AF5400120138F95500B7
:100BD3001201383C56001201385956001201387878
:100BE3005600120138C35600120138E856001201AC
:100BF30038115700120138805700120138C25700CC
:100C0300120138C658001201386059001201382CFD
:100C13005A00120138455A00120138C096021201D7
:100C2300381397021201381F9702120138F4970202
:100C33001201381B9802120138569802120138C269
:100C43009802120138F698021201382F9902120104
:100C530038479902120138A09902120138B9990252
:100C6300120138029A02120138159A021201382F22
:100C73009A02120138459A02120138619B0212014D
:100C830038729C02120138BF9D02120138A49E02E1
:100C9300120138FAFF01120138C3E601120138F7D5
:100CA300E60112013862EA01120138ACEB011201CC
:100CB3003876EC0112013800EE01120138DBEE0147
:100CC30012013815EF0112013838EF011201387A99
:100CD300EF0112013883EF01120138CDEF01120148
:100CE30038D7EF0112013883F00112013857F101AF
:100CF300120138ABF1011201380DF2011201386013
:100D0300F2011201388FF201120138CEF201120101
:100D130038775A00120138D16200120138D76200C5
:100D2300120138926800120138786C00120138D130
:100D330083031201384784031201385D84031201CF
:100D4300389A8403120138D284031201384F850381
:100D53001201388A850312013805860312013841CE
:100D630086031201384A860312013856860312019C
:100D730038708603120138958603120138AB860357
:100D8300120138D486031201383787031201382A37
:100D9300DA021201383DDA0212013857DA0212017F
:100DA3003880DA02120138C3DA0212013802DB0298
:100DB30012013840DB02120138A5DB02120138BAF6
:100DC300DB02120138C5DB02120138D2DB02120149
:100DD30038E9DB02120138F7DB0212013802DC02C8
:100DE3001201380EDC0212013821DC021201382C08
:100DF300DC021201384FDC02120138F8DC02120166
:100E03003808DD0212013822DD021201383FDD020B
:100E13001201385BDD0212013880DD021201388ACB
:100E2300DD021201389EDD02120138BDDD0212011E
:100E3300381EDE0212013824DE021201382ADE02D5
:100E430012013830DE021201383CDE021201386F23
:100E5300DE021201384ACC01120138CCCC01120156
:100E63003875CD01120138BDCE01120138CBD00146
:100E7300120138B1D101120138E6D101120138084B
:100E8300D201120138B1D20112013881D401120109
:100E930038AAD40112013822D50112013854D501E0
:100EA30012013861D501120138ACD501120138D0D5
:100EB300D50112013821D8011201382BD9011201B1
:100EC3003887D901120138C7BD01120138D8BE01D4
:100ED300120138BCBF01120138C6BF01120138E844
:100EE300BF01120138F4BF0112013898C101120188
:100EF30038C5C101120138DBC20112013830C30108
:100F03001201387FC40112013854C501120138B0EF
:100F1300C5011201381BC60112013850C601120166
:100F23003893C6011201385DC90112013875C90130
:100F330012013806CA0112013814CA0112013861BC
:100F4300CA011201386FCA01120138DBCA0112014A
:100F53003856CB01120138ADCB01120138A9F30188
:100F6300120138CBF301120138DCF5011201389B71
:100F7300F801120138C5F90112013883FA0112018F
:100F8300386FFB01120138639D03120138889D03FA
:100F9300120138FE9D0312013854C1021201385D5B
:100FA300C10212013866C1021201383EC2021201A7
:100FB30038EFC3021201381FC4021201384AC402B7
:100FC3001201387AC402120138A5C402120138D9B9
:100FD300C40212013805C50212013848C5021201C4
:100FE3003873C502120138BAC5021201380FC6029E
:100FF30012013851C602120138ABC602120138D6AB
:10100300C60212013825C70212013855C702120160
:101013003880C702120138AEC702120138D1C702A5
:10102300120138E6A80312013812A9031201383F4E
:10103300A90312013849A90312013859A90312015E
:10104300387DCF0212013887CF02120138C8CF0290
:1010530012013811D0021201384BD002120138A10B
:10106300D002120138C2D002120138CBD0021201D1
:10107300381FD10212013848D10212013852D1026D
:10108300120138C0D10212013850D202120138AB1A
:10109300D202120138D9D20212013861D3021201ED
:1010A30038A0D302120138D5D302120138E7D30294
:1010B30012013806D4021201380FD402120138D6B5
:1010C300D40212013869A303120138729B0312017F
:1010D30038A89B03120138DC9B03120138299D03B6
:1010E300120138C7A703120138DDA703120138E73D
:1010F300A70312013831A803120138C4A90312014E
:10110300383EE80212013851E80212013812E902AE
:1011130012013851E9021201386EE902120138A7AF
:10112300E902120138F4E90212013826EA02120137
:10113300385DEA0212013866EC02120138D2EC0281
:1011430012013860A40312013883A403120138B2D8
:10115300A403120138CAA4031201380CA503120117
:101163003813FD0212013838FD0212013862FD0204
:101173001201387BAA03120138D16C0012013870B6
:101183006E001201381B6F001201389B6F001201B1
:10119300382070001201384970001201382474009D
:1011A3001201389B7400120138B27500120138EC39
:1011B30075001201382D7600120138747700120180
:1011C30038CA770012013813780012013882780088
:1011D300120138EE78001201381F790012013837F6
:1011E3007900120138507A00120138607A00120136
:1011F30038167C001201382D7C001201385F7C0008
:10120300120138017E00120138957E001201380B5D
:10121300A7031201381CA703120138BCA70312014C
:1012230038D1AA0312013810AB0312013865AB039E
:1012330012013855A50312013865A5031201387A46
:10124300A5031201382EA60312013867A203120167
:1012530038ECA20312013850A3031201386C99032E
:10126300120138AF9903120138589A0312013892C8
:101273009A03120138F19A03120138669B03120193
:1012830038699B03120138F07F00120138F37F00A5
:1012930012013834F1021201384BF102120138C540
:1012A300F102120138A9F20212013880F40212018C
:1012B30038E5F4021201383CF502120138F87F00D8
:1012C300120138219503120138B196031201381225
:1012D3009703120138589703120138CFA003120164
:1012E3003821A10312013894A10312013801A2038A
:1012F300120138DA9203120138049303120138D32E
:101303009303120138AF9403120138D2B1021201D0
:10131300389EB202120138DFB20212013819B30249
:1013230012013877B302120138CBB3021201382904
:10133300B402120138BFB402120138C7B502120158
:101343003851B702120138EFB70212013856B8020A
:1013530012013869B8021201385DB902120138A6C8
:10136300B902120138D4D90112013806DD01120184
:101373003897DE01120138EEDE011201380BDF016E
:101383001201388BDF0112013807E101120138D64F
:10139300E10112013843E5011201382DE601120182
:1013A3003808BA02120138C2BB02120138A2BC02C9
:1013B30012013878BD02120138EBBE0212013894D3
:1013C300BF02120138D9BF021201388FC0021201C5
:1013D30038AEC002120138F4C002120138FFC00255
:1013E300120138678703120138A88703120138C531
:1013F30087031201383A88031201388D88031201DA
:10140300387A89031201387D8A0312013847AB0306
:10141300120138B08D03120138D37E0012013863F4
:10142300A9031201385B97031201381AAB031201A7
:10143300383CF902120138DCFF01E066701008A3A2
:10144300E066700A08A3E066700408A3E06622C39E
:10145300E7960809E7960809E7960809E79622C37D
:10146300E09608A3E09608A3E09608A3E09622C0BE
:1014730008C3E096F50808A3E096420808A3E0969F
:10148300420808A3E09645087001D3D00822080853
:1014930008E630E711121D571214A9080808C644BC
:1014A30080C618181822181818E9799EC608CAC6E3
:1014B30008CBC608CCC6C370207996CACBCC7019AA
:1014C300798ECBCC70137986CC700EF9802ACA330F
:1014D300CACB33CBCC33CC331930E7F2CCCBCA33C2
:1014E30050147004EA30E00DE4CA3ACACB3BCBCCCB
:1014F3003CCC500209C3E913C6CC182313C6CB183E
:10150300C6CA18C6F9228A088B098C0A8D0B78087B
:1015130012155320F01430E72B74FFFCFBFA747F91
:101523008022E4FCFBFA7480801AB48008BC00F2C9
:10153300BB00EF800F50EBF9E4C39AFAE49BFBE4A2
:101543009CFCE499C6CC18C6CB18C6CA18C6F922A7
:10155300E4C9C608CAC608CBC6D3330308CCC6330E
:1015630092F0C3947F402E94184019C9B90704CA56
:10157300CBCC225025C309CA33CACB33CBCC33CC13
:1015830033D9F422F4600DC9CCC313CB13CBCA13E4
:10159300CAD9F6CC22E4FCFBFA2214FCFBFA22E6BD
:1015A300C33318461846184622E7C3331947194769
:1015B300194722181818E6084608700AE608C333C4
:1015C3007005E633F4220822191919E7094709704F
:1015D3000AE709C3337005E733F4220922E6084614
:1015E30008C3134608336002E633F422E7094709C8
:1015F300C3134709336002E733F4221215E0602571
:101603001215EF60201215A270030215AC0808082A
:10161300E76670101819E766700A1819E766700410
:101623001819E76622F4221215E0601C1215EF6008
:10163300171215A270071215AC7001D322C0D01275
:1016430015AC7006D0D0B322C32233D0D05014309F
:10165300E0F6C3E7960809E7960809E7960809E75D
:1016630096B32220E0D5E6970809E6970809E6979E
:101673000809E697B3221215E0601B1215EF6016F6
:101683001215A270071215AC600CB322C0D012154C
:10169300AC7005D0D022C32233D0D0501330E0EB4E
:1016A300C3E7960809E7960809E7960809E796222B
:1016B30020E0E4E6970809E6970809E6970809E6B3
:1016C3009722001215E0604F1215EF6012E7548065
:1016D30066F61215B670111215AC703B090909F4C0
:1016E300F618F618F618F6221215CB70151215A275
:1016F30008080860EAE6447FF618768018E4F618CE
:10170300F6221215A260161215AC7012E4F608F652
:1017130008F608E65480F609090918181822EAC0E1
:10172300E0EBC0E0ECC0E0EDC0E0E687F0A4FBAC8A
:10173300F008E687F0A42CFCE435F0FA1809E687F4
:10174300F0A42C4B60027401CA35F0FCE433FB09AE
:10175300E687F0D2F7A42CCB35F0FC1908E687F026
:10176300A42BCC35F0FBE433FD0819E687F0D2E770
:10177300A42C4ACB35F0CD3400FC09E687F0D2E740
:10178300A42DCC35F0FDE433FA0918E687F0D2F73F
:10179300A42CCD35F0CA3400FC08E687F0D2E7D29A
:1017A300F7A42ACC35F07A7E20E70B0ACB33CBCDD6
:1017B30033CDCC33CC33CB3350147004ED30E00E47
:1017C300D2F1E4CD3DCDCC3CCC3B5005DA05C2F1A2
:1017D300EB547FC63308E63392F0FBE73309E73374
:1017E300C39A502D2B70190C0D4C4D70151806E62D
:1017F30008C333700D20F10AA2F013F6E418800B2E
:101803004024E4F630F002768018F618F618F680D5
:1018130024D33B14501074FFA2F013F6187680E41F
:1018230018F618F6800FA2F013F618E63303F6182D
:10183300ECF618EDF6D0E0FDD0E0FCD0E0FBD0E014
:10184300FA221215EF60461215E0603DE968700850
:10185300F618F618F618F622748067F71218790945
:101863000909748067F7221215E0601D1215EF70E5
:1018730005191919801A1215B6701F1215CBC370EA
:1018830003E66733191919400718181822080808BE
:1018930074FFF618F618F618F6221215CB60171215
:1018A30015AC702192F01215A27019501720F01484
:1018B300080808090909E7F61819E7F61819E7F6F9
:1018C3001819E7F6221215A260E6E869701F0808E6
:1018D300E62480F608E436F618547FB47F0CE65409
:1018E300806007F6E418F618F622181822E9C6CC29
:1018F30008C6CD08C6CE08C6CFC0E0E8C0E0EAC03F
:10190300E0EBC0E009E9F809E7FA09E7FBE6F918B3
:10191300E6F8C3EC98ED99EE9AEBC2E7F5F0EFC267
:10192300E795F0500E600CEBCFFBEACEFAE9CDF968
:10193300E8CCF8EAA2E7D2E7FAEB33FB13F5F0EED3
:10194300A2E7D2E7FEEF33FFC5F013A2E730E601CB
:10195300B313C5F0C3C0E0C0F07F00C39BFB605B63
:101963009418600C401AD0E023F9D0E0F8021A482A
:101973008AF0E9486003D2F0E4AFF0FAF9F8803B6B
:10198300EB30E40D89F0EA6003D2F0E4AFF0F9CA7A
:10199300F8EB30E30D88F0EF6002D2F0AFF0E4CA69
:1019A300C9F8EB54076014FBC3EA13FAE913F9E827
:1019B30013F8EF135002D2E0FFDBEDD0E0C0E030CC
:1019C300E739C3E49FFFF5F0EC98FC42F0ED99FD95
:1019D30042F0EE9AFE42F0D0E0F9D0E0F8E5F06094
:1019E3007AE923F9EE20E742D8028067C3EF33FF99
:1019F300EC33FCED33FDEE33FE80EAEC28FCED39ED
:101A0300FDEE3AFED0E023F9D0E0F84002801BC39C
:101A1300EE13FEED13FDEC13FCEF135002D2E0FFC7
:101A230008B800067F7F74FF802EEF3350178CF0C9
:101A330020F00260100CBC000C0DBD00080EBE00AF
:101A43000408E860DFE933E813FFEE2313FE4F4D8C
:101A53004C8008E95480FFE4FEFDFCEE33EF33F4E1
:101A63007004FCFD7E80D0E0FBD0E0FAD0E0F8D03B
:101A7300E0CFC618CEC618CDC618CCC6F9221215AB
:101A8300E07004181818221215EF700D74FFF61881
:101A930019F61819F61819F622E7548066F6121586
:101AA300A2700F1215AC70F014F608F608F608F6DB
:101AB30080D11215AC700CF608F608768008E6445F
:101AC3007F80EC1215CE700C1215B960BFE65480FE
:101AD300F6E480BB1215B9700519191980A5E869D8
:101AE300700C763F18768018F618F6E8F922E6CDE2
:101AF300C0E018ECC0E0E633CD33CDD313F6E719DD
:101B0300FCE7191933CC33C3947F400ECD9D502489
:101B130008E65480F6E418F6800FF4043D145014DC
:101B230008E6447FF6187680E418F618F6D0E0FC51
:101B3300D0E0FD22CCD313CCFD18E4C6CBC0E01813
:101B4300E4C6CAC0E00808ED08C633E613F618E495
:101B530033C675F003C3CA97CA09CB97CB199C4008
:101B6300047D08802EBD0003021C2A16B6FF05065D
:101B730006081618C3CA33CACB33CB33CA27CA09DC
:101B8300CB37CB193CC37D08803E187D0820E75C2A
:101B9300C633C6CA33CACB33CB33DDF1D5F0EB3012
:101BA300E77BCA97CA09CB974ACB199C406F4B7006
:101BB30025E620E0218066187D08C3CA97CA09CBB1
:101BC30097CB199CD3C633C6CA33CACB33CB335056
:101BD300C9DDE7D5F0E1D3E4C636C608C636C60884
:101BE300C636C608C636C61818188031C3CA97CA7F
:101BF30009CB97CB199CB34097C633C6CA33CACB1C
:101C030033CB33DD34D5F02EC6A2E0C640C8CA2795
:101C1300CA09CB37194A70BECB3CB480B90808E671
:101C23003308E633601F181818D0E0FAD0E0FBD071
:101C3300E0FCD0E0FD22187D08CA27CA09CB37CBC8
:101C4300193CD3808013F618E4B67F11F618B6FF5B
:101C53000EF618C60470D20808768080CAF618F605
:101C630018F680C5080808EAC0E0EBC0E086F0E794
:101C7300A4FA180986F0E7A42AFA180986F0E7A45B
:101C83002AFA180986F0E7A42AFA1986F0E7A4FBD2
:101C9300E5F02AFA190886F0E7A42BFBE5F03AFAF7
:101CA300190886F0E7A42BFBE5F03AFA1818098621
:101CB300F0E7A4C5F02BFBE43AFA1908E7C5F0C630
:101CC300A426F6E5F03BFBE43AFA1886F0E7A4F61F
:101CD300E5F00826F6E43B08F6E43A08F6D0E0FB24
:101CE300D0E0FA22E4CFC0E0E4CEC0E0E4CDC0E02F
:101CF300E4CCC0E075F020C3E633F608E633F6081B
:101D0300E633F608E633F6181818EC33FCED33FD2A
:101D1300EE33FEEF33FFC3EC9709ED9709EE970916
:101D2300EF97191919400FFFEC97FC09ED97FD097F
:101D3300EE97FE191906D5F0BEECF709EDF709EE9B
:101D4300F709EFF7191919D0E0FCD0E0FDD0E0FE58
:101D5300D0E0FF22181818E4C396F608E496F608B4
:101D6300E496F608E496F6226016080808C6C3133C
:101D7300C618C613C618C613C618C613C6D5E0EAD6
:101D8300227009080808226016181818C6C333C63B
:101D930008C633C608C633C608C633C6D5E0EA222A
:101DA300E627F60809E637F60809E637F60809E6EE
:101DB30037F622E026F608A3E036F608A3E036F667
:101DC30008A3E036F622E026F008A3E036F008A3E5
:101DD300E036F008A3E036F022C3E697F60809E6FA
:101DE30097F60809E697F60809E697F622C3E09600
:101DF300F008A3E096F008A3E096F008A3E096F0BD
:101E030022E056F608A3E056F608A3E056F608A328
:101E1300E056F622E056F008A3E056F008A3E05699
:101E2300F008A3E056F022E0F608A3E0F608A3E0EA
:101E3300F608A3E0F622E6F008A3E6F008A3E6F02E
:101E430008A3E6F022E0FAA3E0FBA3E0FCA3E0FD95
:101E530022EAF0A3EBF0A3ECF0A3EDF022CAC0E07A
:101E6300E6F0A308DAFAD0E0FA22CAC0E0E0A3C59C
:101E730082CCC582C583CDC583F0A3C582CCC58280
:101E8300C583CDC583DAE6D0E0CA22C3E498F8E47B
:101E930099F9121ECF8026C3E49AFAE49BFBE9204A
:101EA300E7E9121ECFE498F8E499F922C3E498F81D
:101EB300E499F9121ECFE498F8E499F9C3E49AFA85
:101EC300E49BFB22EB20E7CFE920E7E0B90010BB5E
:101ED3000008E88AF084F8AAF022E4FBC8FA22EBAF
:101EE30070227B10C833C8C933C9335007C39AC3A0
:101EF300DBF280069A50012ADBEAC833F4C8C933FF
:101F0300F4C9FA2275F008E4C833C8C933C933C920
:101F13009AC99B5004C92AC93BD5F0ECFBC833F4DA
:101F2300C8E4C9FA22600D08C6A2E713C618C6138F
:101F3300C6D5E0F322600C08C6C313C618C613C681
:101F4300D5E0F422700422600D18C6C333C608C658
:101F530033C6D5E0F41822251810AF08F51840024F
:101F630015198008F51840021519D2AF22C0D025E3
:101F73001810AF08F518500205198008F51850021B
:101F83000519D2AFD0D0222518F58210AF08F51865
:101F9300400215198008F51840021519D2AF8519AA
:101FA30083222518F582E43519F58322E473251875
:101FB300C582C0E0E51934FFC583C0E0E518C395C9
:101FC3008224F810AF0885831985821880088583D9
:101FD30019858218D2AFCEF0A3E520F0A37808E6E6
:101FE30008F0A3DEFAEFF0A3E58124FAF8E608F09F
:101FF300A3E608F0A3E608F0A30808E608F0A3E6C2
:1020030008F0A315811581D0E0FED0E0F815811505
:10201300811581E8C0E0EEC0E0222518C582C0E04A
:10202300E51934FFC583C0E0E518C3958224F91090
:10203300AF088583198582188008858319858218DE
:10204300D2AFCEF0A3E520F0A37808E608F0A3DE34
:10205300FAEFF0A3E58124FBF8E608F0A3E608F025
:10206300A30808E608F0A3E608F0A315811581D0BC
:10207300E0FED0E0F815811581E8C0E0EEC0E02273
:10208300851983851882E0A3FEE0A3F5207808E094
:10209300A3F608DFFAE0A3FFE0A3C0E0E0A3C0E0FB
:1020A300E0A3C0E0E0A3C0E0E0A3C0E010AF088578
:1020B30082188583198008858218858319D2AFD049
:1020C30083D082020135851983851882E0A3FEE05F
:1020D300A3F5207808E0A3F608DFFAE0A3FFE0A366
:1020E300C0E0E0A3C0E0E0A3C0E0E0A3C0E010AF25
:1020F300088582188583198008858218858319D2FB
:10210300AFD083D08222C0D02518C582C0E0E519A4
:1021130034FFC583C0E0E518C3958224F310AF08EC
:102123008583198582188008858319858218D2AF23
:10213300C8F0A3E9F0A3EAF0A3EBF0A37908E70959
:10214300F0A3D8FAECF0A3EDF0A3EEF0A3EFF0A325
:10215300D0E0F0A3D0E0F0A3D0E0F0A3E520F0A31B
:10216300E5F0F0A322851983851882E0C0E0A3E09F
:10217300F9A3E0FAA3E0FBA37808E0F608A3DFFAEB
:10218300E0FCA3E0FDA3E0FEA3E0FFA3E0C0E0A327
:10219300E0C0E0A3E0F5D0A3E0F520A3E0A3F5F0D1
:1021A30010AF088583198582188008858319858275
:1021B30018D2AFD082D083D0E0F8D0E0327404805C
:1021C30006740280027401C0E0F404121F8AD0E096
:1021D300121E60227404800474028000CCC0E0EDFF
:1021E300C0E0E518C39CCCAD1950011D10AF068C9F
:1021F300188D1980068C188D19D2AF121E6DD0E080
:10220300FDD0E0FC22D083D082E9C0E0E493A3C3F5
:1022130086F0C5F095F0F908E493A386F0C5F09530
:10222300F0700BE493A3C3994005E9048002A3E48F
:1022330075F002A42582F582E5F03583F583D0E0BD
:10224300F9E493A3C0E0E493C0E022D083D082EC0E
:10225300C0E0EDC0E0E493A3FCE493A3FDED4C6088
:102263000D12229AEC24FFFCED34FFFD80EFE49382
:10227300A3FCE493A3FDED4C600D1222D9EC24FFE3
:10228300FCED34FFFD80EFD0E0FDD0E0FCE493A350
:10229300C0E0E493C0E022C0E0C3E4939608740175
:1022A300939618400FE493667008087401936618B8
:1022B30070007019A3A3C3E493960874019396184E
:1022C300A3A3400DD0E0D0E0D0E002228AA3A3A3D1
:1022D300A3A3A3D0E022C0E0C0F088F0E49366702B
:1022E300080874019366187000A8F0A3A3700BD0BC
:1022F300F0D0E0D0E0D0E002228AA3A3D0F0D0E077
:102303002274F512201DEAFEEBFFEE2434F8EF34BD
:1023130000F988088909EE243512243CF8EE2437A5
:1023230012243CF50AEC850AF0A4FCAAF0850AF015
:10233300EDA42AFDE82CF8E43DF97A257B00121E72
:10234300CFEA850882850983F05407F87401B80041
:10235300028004C333D8FCC0E0E0131313541FF806
:10236300EE28F8EF3400F9E8245DF582E93400F54E
:1023730083D0E0F8E0586008850882850983801DD2
:10238300EE243612243CF5F0EA84A8F0EE28F8EFA8
:102393003400F9E82438F582E93400F583E0F97F65
:1023A300040220C974F512201DEAFEEBFFEE24346B
:1023B30012243CC0E0EE2435F582EF3400F583D0DF
:1023C300E0F08E828F83A3A3A3A3A3E0FAA3E0FB91
:1023D3008E828F83A3A3A3A3A3A3A3E0FCA3E0FD07
:1023E300ECC39AF50AED9BF50BEE2480F508EF3468
:1023F30000F509850882F583E06401702BEE2481E2
:10240300F582EF3400F5831221DB122445740212A6
:102413001F70E960137CFD7D04EEFAEFFB120BC124
:10242300850882850983E4F0AC0AAD0BEEFAEFFB75
:10243300122304122BFE0223A2F582EF3400F5834C
:10244300E022C082C083851882851983E0F8A3E067
:10245300F9C3EA9CEB9D5012C3EC98ED994019C364
:10246300EA98EB99501279018010C3EA98EB9940EE
:10247300F5C3EC98ED9950EE7900D083D08222EA2F
:10248300C39CFAEB9DFB2200008521878522C6228F
:10249300C0E074EF122109759B00906182E0A2E60F
:1024A3004003022554E591A2E640030225547591A9
:1024B300BF9003C2E064057008120D5F120D6B80BC
:1024C30003120D65752100120DD7E99003C3F0794E
:1024D30000120DCB120B2B7A017B009003C1E0F9A4
:1024E30012109B907803E06442600302259D9005DF
:1024F3005FE014F0600302259DC2AF12250100784E
:102503002AD0E0F618D0E0F6E59F5407F97005905D
:102513009010800390900C7808121E2AE9C4C0E042
:102523007829E65508F50808E65509F509740B7886
:1025330008121F38D0E02508F8906270E0A2E74047
:10254300F8E8C333906272F0906270E0D2E0F080FA
:1025530049E0A2E55024E591A2E5501E7591DF9074
:1025630003C2E0640D70139003E4E004F064287088
:1025730002E4F07A00E0F9120E49906181E0A2E3EF
:102583005009E5E9A2E3500375E9F7A3E0A2E75098
:1025930009E591A2E7500375917F7F04022168C08A
:1025A300E0C0D0C082C083906183E0A2E05009E51F
:1025B300BFA2E0500375BFFEE0A2E15009E5BFA250
:1025C300E1500375BFFDE0A2E25009E5BFA2E2506E
:1025D3000375BFFBE0A2E35009E5BFA2E350037517
:1025E300BFF7E0A2E45009E5BFA2E4500375BFEFD3
:1025F300E0A2E55009E5BFA2E5500375BFDFE0A205
:10260300E65009E5BFA2E6500375BFBFD083D08271
:10261300D0D0D0E032C0E074F2122109E5A7A2E4E1
:10262300500FE5A1A2E4500953A7EF75A1EF1226BD
:102633006CE5A7A2E5500CE5A1A2E5500653A7DF80
:1026430075A1DFE5A7A2E15009E5A1A2E150037559
:10265300A1FDE5A7A2E2500CE5A1A2E2500653A713
:10266300FB75A1FB7F0102216874F812201D7521FF
:10267300019003C2E0640670077A007B00120D47E5
:10268300A2AFE433FED2AF9003C8E0640170187ABE
:10269300207B009003C1E0F91211257A207B009082
:1026A30003C1E0F91210A1906182E0D2E6F0900537
:1026B3005EE0602185C62280169003C7E064017046
:1026C30008E5C654F84405F5C653BEFC12248C74C1
:1026D30001652160E4EEA2E092AF7F010220C90010
:1026E300008E238F24858228858327851882851968
:1026F30083E0CEA3E0CF852882852783EBC9EAC890
:10270300EDCBECCA75F010C3E833C8E933C9EA333B
:10271300CAEB33CBC3EA9EF526EB9FF525B35004F2
:10272300AB25AA26EC33CCED33CDD5F0DAAE23AF0F
:10273300242274E912201D74FA121F5AEAFEEBFFD9
:102743008C088D099003C2E024F7C39405500690CA
:102753008FF002285C120CC38A0A8B0BEA450B70BC
:1027630003022859120D7D8A0C8B0D120D7DEA652B
:102773000C7003EB650D60ECEEFCEFFD85188285B4
:102783001983AA82AB83120D83850A82850B83A3E7
:10279300A3780C121E2A909028780C121E04851818
:1027A300828519837814121E2A9090287814121E99
:1027B30004780C7914121452501F780C7914121DDA
:1027C300DC908FB4780C1214724047850C10850D81
:1027D30011850E12850F13804185141085151185FF
:1027E30016128517137810790C121DDC908FB478AC
:1027F30010121472501C75100075110075120075BB
:10280300130178107914121DDC7810790C121DA3B2
:102813008008908FF07810121E2A74097810121D08
:1028230084908FD0780C121E2A7810790C121CE732
:102833009003C2E06408600AE064066005E0640592
:10284300701C90903878101214725012908FB078D8
:1028530010121DB68008908FD47810121E2A850896
:10286300828509837810121E397406121F707F1037
:102873000220C974F712201D120D9590055CE064C7
:10288300017010906245E4F0A3F053F4F343FE0C9F
:102893005390F3120D35E5C654804449F5C6E59EC1
:1028A300547F644970F8906185740FF090055AE085
:1028B300F47002A3E0602C75080175090090055AB5
:1028C300E07808121F47E508F4FAA3E060081460F3
:1028D3000A14600C800DEA52808008EA529080034B
:1028E300EA52A079007F020220C974F712201DE981
:1028F300FEEAFF74016E700C7A807B009003C1E0E6
:10290300F912109B902CCCE493F46008E493F91231
:102913000B0D800953C680E59E547F70FA120D3B60
:1029230090055CE064017003120B4390055AE0F4D8
:102933007002A3E0602A75080175090090055AE04A
:102943007808121F47AA08A3E0600814600A1460FD
:102953000C800DEA42808008EA42908003EA42A09C
:10296300120CC38A088B09A808A909E8496017E56E
:10297300E170FCE82414F582E93400F583E0F8748F
:10298300FF68600288E174016F700A7A019003C1E5
:10299300E0F91210EF0228E874F112201D8A088B67
:1029A300098C0A8D0B740F121FA5780C121E2A9026
:1029B30090287808121E04909028780C121E047830
:1029C30008790C12145250157808790C121DDC90FA
:1029D3008FB47808121472401579018013780C793A
:1029E30008121DDC908FB4780C12147240EB79003E
:1029F3007F080220C974ED12201D8A088B098C0AF6
:102A03008D0B7413121FA5780C121E2A9090287830
:102A130008121E04909028780C121E04780C790872
:102A230012145240117808790C121DDCAA08AB0964
:102A3300AC0AAD0B8022751000751100751200757C
:102A430013017810790C121DDC78107908121DA37C
:102A5300AA10AB11AC12AD137F0C0220C9909028C1
:102A63007808121E2A8A828B837808121E177F0425
:102A73000220C974F512201D8C828D837808121EE2
:102A83002A8A828B837808121DF0122ACAC3E0981F
:102A9300F0A3E099122ABC401E9090307808121ED1
:102AA3002A8A828B837808121DC98E828F83E02441
:102AB30020F0A3E0344EF080A4F08E828F83C3E035
:102AC3009420A3E0944E22EA2404F8EB3400F9E8BE
:102AD300FEE9FF8C828D83A3A3A3A3E0F8A3E0F90F
:102AE3008E828F832274F512201DE9FE900514E077
:102AF300FAA3E0FBEEC333F8E433F974E728F58275
:102B0300748E39F583E02AF508A3E03BF5097808CC
:102B13001221C490902C121E481226E47402121F34
:102B2300708A088B098C0A8D0B74107808121D6B40
:102B3300AA08AB097F040220C974F112201D8A0C74
:102B43008B0D8C0E8D0F740F121FA5E0FAA3E0FB03
:102B53007411121FA5E0F508A3E0F5097413121F01
:102B6300A5E0FEA3E0FF78081221C4EA2401F508DA
:102B7300EB3400F509E4F50AF50B780C7908121C1F
:102B830067908FBC7808121E2A780C7908121C678C
:102B9300AA0CAB0DAC0EAD0F1226E47402121F701B
:102BA3008B09EA450960047A0180027A00EC2AFC69
:102BB300ED3400FDECF8EDF97A717B02121ECF883B
:102BC300088909E4F50AF50B8E828F837808121EB3
:102BD30039ECF8EDF97A717B02121ECF8A088B0962
:102BE30074057808121F478E828F83A3A3A3A3E5DE
:102BF30008F0A3E509F07F080220C9C082C083E979
:102C0300906000F0D083D08222C0E074F2122109D8
:102C1300A2AFE433FED2AFE589A2E04012E589A278
:102C2300E1400CE589A2E24006E589A2E3500312E4
:102C33001275758900758900758900758900C2C58B
:102C4300751A00EEA2E092AF7F01022168C0E07422
:102C5300F2122109A2AFE433FED2AFE58AA2E44027
:102C63000CE58AA2E54006E58AA2E6500312127536
:102C7300758A00758A00758A00C2EB80C3C0E07450
:102C8300F2122109A2AFE433FED2AFE58AA2E440F7
:102C93000CE58AA2E54006E58AA2E6500312127506
:102CA300758A00758A00758A00C2E88093C0E0C007
:102CB300D0E8C0E0E5A8D2AFC2C7751A00A2E79278
:102CC300AFD0E0F8D0D0D0E032FFFFFFFFFFFFFF2F
:102CD300FFC082C083E9900A23F0022F5874F712D1
:102CE3001FB1E99002E0F07C187D037AFF7BFF12AD
:102CF30008439002E174FFF0A3F0A3E4F0A3F0799A
:102D0300051207CB9002E0E0F91206F37A617B0823
:102D1300120A23023C6674F4121FB18A088B09EB72
:102D2300548060309002E0E0F91210838A0A8B0B22
:102D3300AE0AAF0BEE4F60138E828F83E064B070E8
:102D4300031207E3EEFAEFFB121071AA08E5096418
:102D530080FB80047A007B00022F2774F2121FB1DC
:102D630074FC121F5AEAFEEBFF7412121FA51241E4
:102D73004DEE4F7003022E017402121FA5EEF0A355
:102D8300EF123162ECF0A3ED123162AA82AB83122F
:102D930006EDE9F50A706AE508450960648E828FDD
:102DA30083124133EE4F60567A067B001210D78AA6
:102DB3000C8B0DA80CA90DE8497005750A13804109
:102DC30088828983E4122E0EEEF0A3EF12415EE5B2
:102DD30008F0A3E509F09002E6122E959002E67042
:102DE30005123C10801B123BFE8003EAFCEBFD8CBA
:102DF300828D83122E9570F38C828D8380E3750A06
:102E030002A90A7404121F7002434DF0A312410475
:102E1300A32274F2121FB1890AE975F017A4FEAF59
:102E2300F09002E5E4F09002E3122E95600A12108E
:102E3300DD9002E3E4F0A3F0EEFAEFFB1210D78A81
:102E4300088B09EA4509602FEEFCEFFD79001210AB
:102E53005F9002E3E508F0A3E509F07B0080081228
:102E63002E7FE4F0A3F00BEBC3950A40F2E50A9042
:102E730002E5F079008002791302434DEB75F017F8
:102E8300A4F8A9F09002E3E028FAA3E0398A82F5D6
:102E930083221238A2EA4B2274F4121FB1740C126B
:102EA3001FA5124128FEE9FF750800750900800C73
:102EB300E5082401F508E5093400F509C3E5089C94
:102EC300E5099D503285080A85090B7403780A12B7
:102ED3001F47EA250AF8EB350BF988828983A3A3F8
:102EE300A3A3A3A3123CE5EE650A7003EF650B7081
:102EF300BFE8FAE9FB80047A007B00802774F412B0
:102F03001FB17900EAA2E0501B75089875098F7804
:102F1300081221C47C047D007A257B0A1207C5743C
:102F230002121F707F04022083C082C0839002E6D6
:102F3300122F5F601C88828983A3A3E06A7003A3B6
:102F4300E06B8882898370E8A3A3A3A312389E80D1
:102F5300047A007B00D083D082020135124433E827
:102F6300492274EE121FB174FC121F5AEAFEEBFFE2
:102F7300851882851983E4F0A3F0EE2402123BF056
:102F8300EE240512410BEE2404F50EEF123517E083
:102F930024FE603924FC604624FE605224FE605EF9
:102FA30024FE700302307824FE70030230DC24FE1A
:102FB30070030230EB24FE70030230FA24FC70032A
:102FC30002310924FE70030231180231559002FFC9
:102FD3007417F0A3E412316A12046B023155851899
:102FE30082851983AC82AD831207E90231258518E6
:102FF30082851983AC82AD831207EF023125850CDC
:1030030008850D097402121FA5AC82AD8385088261
:1030130085098312389E1207118A0C8B0DAC0CADF7
:103023000DEC4D603BE4F50CF50D780C1221C475E5
:103033000CFF750D02780C1221C4750C00750D037D
:10304300780C1221C47408121FA51221DB1245AF9C
:10305300121F70E9F50C700B123894120483800F61
:10306300750C01850882850983123158123C10853D
:103073000C080231287402121FA5AC82AD83850CA3
:1030830082850D83123669603C850C82850D83A38E
:10309300A31221DB7510FF75110278101221C4757C
:1030A300100075110378101221C47408121FA512A1
:1030B30021DB1245AF121F70E9F509700B1238942A
:1030C300120489800F750901850C82850D831231E5
:1030D30058123C10850908804C851882851983ACE9
:1030E30082AD831207F5803A851882851983AC82F5
:1030F300AD831207FB802B851882851983AC82ADC3
:1031030083120801801C851882851983AC82AD83E4
:10311300120807800D851882851983AC82AD83124E
:10312300080DE9F508E50860298E828F83A3E06422
:1031330014601F850E82850F83E09002FF123162B7
:1031430012442F900300123C10E508A312316A12B7
:103153000465023AFF12443385188285198322F0ED
:1031630085188285198322F07CFF7D02850A82857A
:103173000B831238A22274EE121FB174FC121F5A71
:103183008A0A8B0B8C0E8D0FEA2405F508EB3400AD
:10319300F5097C157D0079007AFF7B0212105FE54B
:1031A300082402F50CE50912410E8518828519835E
:1031B30085821085831178101221C48508828509C0
:1031C30083A3A3A3A31236601221C4E5082405F543
:1031D30010E5093400F51178101221C4850C82859D
:1031E3000D831239B512070B7406121F708A108BE8
:1031F30011AE10AF11E50A2402F50AE50B123BF3F9
:10320300EE4F700302333780177402121FA5123872
:103213009E88828983EAF0A3EBF09002FFE004F03A
:103223009002FFE0C394054003023337E4F510F541
:103233001178101221C47510E8751102781012214B
:10324300C47510E975110278101221C47406121F97
:10325300A51221DB7910EEFCEFFD1245B1121F70B0
:10326300E9705E850882850983A3A3A3A3A3A3A30F
:10327300E0F89002E8E06870481236601221C47CDE
:10328300E97D02E5082408FAE5093400FB12105928
:103293007402121F70E960298E828F83A3A3A3A3F4
:1032A30012389E9002FFE0F51074027810121F4747
:1032B30074002510F58274033511F583EAF0A3EB4E
:1032C300F07402121FA585821085831178101221D4
:1032D300C47402121FA51221DB850C82850D831293
:1032E30038C4121F708A108B11AE10AF119002FFF9
:1032F300E0F51075110074027810121F4774FF2552
:1033030010F874023511F988828983A3122E9570FF
:1033130003023203E82403080808E93400F9EE4FF6
:10332300600302320C8882898374FFF0A3F0900259
:10333300FFE004F09002FFE0600A12389412047771
:103343007900800B850882850983123C07790A027C
:103353003AFF74EA121FB174FE121F5A8C128D13B6
:10336300EA2405F50CEB12459912413775080075EF
:103373000900EA2402F510EB3400F5118518828563
:10338300198385820A85830B780A1221C4850C82EE
:10339300850D83A3A3A3A312352D1221C4E50C2409
:1033A30005F50AE50D123BF3780A1221C4850C8258
:1033B300850D8312353112070B7406121F708A0AAA
:1033C3008B0BEA450B70030234D2EA2404F50EEBAF
:1033D3001235171241378A828B83A3A3A3E0F985A1
:1033E30010828511831238A860030234D2E4F514E5
:1033F300F51578141221C47514E8751502781412A2
:1034030021C47514E975150278141221C4740612C7
:103413001FA51221DB7913AC0AAD0B851082851130
:10342300831245B7121F70E9F50960030234D29085
:1034330002E8E0F8E5087009E02402900300F08058
:1034430014900300E0FCE82402FAE43400FBEA6C85
:103453007001EB707E850882AA821236579414128B
:10346300364F506B850E82850F83E0C0E074012ACE
:1034730012350ED0E0F00508850E82850F83A3E098
:10348300C0E085080A7401250A12350ED0E0F00564
:10349300089002E812352D1221C47CE97D028508CB
:1034A3000A7401250A123521121F709002E8E025E3
:1034B30008F50874FF6E700374FF6F6012EE240149
:1034C3000EEF3400FFE508C39414500302337FE585
:1034D3000860131238B285108285118312389E1248
:1034E300047D79008014E509700375090A85128249
:1034F300851383EEF0A3EFF0A9097402121F707F06
:103503000E02208385080C7401250CF582740334A4
:1035130000F583223400F50F850E82F58322FA74B9
:10352300033400FB12104774022212416D22A3A33D
:1035330012353722123BFEFDEEFAEFFB2274EE1238
:103543001FB174FE121F5A8C0E8D0FEA2405F50C61
:10355300EB12410E750B009002FFE4F0F50AEA242A
:1035630002F508EB3400F50980449002FFE0FA907D
:1035730002E8E0F8123657941712364F400D9002C6
:10358300FFE0F87416C3989002E8F0123660122137
:10359300C47CE97D0274002AFA7403123524121FD5
:1035A300709002E8E0F89002FFE028F0050AE50CCD
:1035B3002416F582E50D123512E0F8E50AC398509A
:1035C300749002FFE0C39416506BE50AC333F8E42A
:1035D30033F9E50C28FEE50D39FF8518828519833B
:1035E300AC82AD838E828F831236697008750B01AE
:1035F300123C038050E4F510F51178101221C475C4
:1036030010E875110278101221C47510E9751102C2
:1036130078101221C47406121FA51221DB791685B6
:1036230008828509831245B7121F70E9F50B7003F1
:1036330002356D80BB7CFF7D02850882850983127C
:10364300389E12048FA90B7402023B01E99400C354
:1036530065D03322EA28F8E43400F9E822E0F510D3
:10366300751100781022123AF68A108B11AC10AD46
:1036730011EC4D2274EA121FB174FC121F5A8A0C0A
:103683008B0D8C128D13EA2405F50AEB123BF375AF
:103693000800750900E50A2402F510E50B3400F56E
:1036A300117402121FA585820E85830F780E1221D5
:1036B300C4850A82850B83A3A3A3A31241131221FA
:1036C300C4E50A2405F50EE50B3400F50F780E1258
:1036D30021C4851082851183123BF9123898120791
:1036E3000B7406121F708A0E8B0FAE0EAF0FE50C14
:1036F3002402F50EE50D3400F50F803888828983A6
:1037030074FFF0050812350774FFF005089002E80E
:10371300E0F50C750D00780C1221C47CE97D02855F
:10372300080C7401250C123521121F709002E8E079
:103733002508F508EE4F60278E828F83A3A3A3E0AD
:10374300F9850E82850F831238A8EE240412410BEB
:10375300E96027850C82850D8312388A123C10E5B7
:103763000870030238701238B2850E82850F8312F7
:10377300389E1204957900023885E4F514F515781E
:10378300141221C47514E875150278141221C47536
:1037930014E975150278141221C47408121FA512B6
:1037A30021DB7911EEFCEFFD850E82850F83124537
:1037B300B7121F70E9F509709A850882AA82EA9008
:1037C30002E87009E02404900300F08025E0F890FB
:1037D3000300E0F514E82404FCE43400FDEC651474
:1037E3007001ED7081123657941212364F40030266
:1037F3003769850C82850D83E0C0E074012A123598
:103803000ED0E0F00508850C82850D83A3E0C0E0AF
:10381300123507D0E01238CD85820C85830D780CE4
:103823001221C47404121FA51221DB851082851195
:10383300831238C4121F708A0C8B0DAE0CAF0D852A
:10384300080C7401250CF874033400F9EE4F70036F
:103853000236FF851882851983E0888289831238AE
:10386300CDA3E0C0E0123507D0E002370DE50970C3
:103873000375090A850A82850B8312388A123C1064
:10388300A90974040234FF12443385128285138319
:10389300227CFF7D02850A82850B831238A222E0F7
:1038A300FAA3E0FB221238A21206F9E9F5092290E5
:1038B3000300E0F5F0E508849002FFF07CFF7D0251
:1038C30022123537120717740422F005088518826F
:1038D3008519832274EC121FB174FE121F5A8A08D1
:1038E3008B098C0E8D0FEA2405FEEB3400FF123A90
:1038F300E0EE241812410BEA450B700302398312E0
:103903003AC950291239A88A108B11EA4511606B04
:103913007912AC0AAD0B85088285098312389E851E
:103923001082851183121FAFE9F50A7058E4F50A76
:10393300F50B780A1221C48E828F83A3A3E0F50AC4
:10394300780A1221C4EE2403123BF0780A1221C430
:103953008E828F831239B51208317406121F70E9F3
:10396300F50A7021850C82850D83E0701F8508821E
:1039730085098312389E12049B8011750A0E8009F3
:10398300750A018004E50A6003123C03850C8285F5
:103993000D83E0600479008002A90A7402121F708B
:1039A3007F0C0220838518828519831238A212089E
:1039B3001F22123BFEFD8508828509831238A2224D
:1039C30074EE121FB174FE121F5A8A088B098C0CF5
:1039D3008D0DEA2405FEEB3400FF750E00123AE06C
:1039E300EA450B7003023AA7123AC9502C1239A8C0
:1039F3008A0E8B0FEA450F604A7912AC0AAD0B852C
:103A0300088285098312389E850E82850F83121FD3
:103A1300AFE9F50E6003023AAA850882850983128D
:103A23003CE5AA0AFB123ABB70147AFF7BFF123AF9
:103A3300BB606C88828983E50AF0A3E50BF0750A05
:103A4300008007750E0E805F050A9002E5E0FAE537
:103A53000AC39A504AE50A75F017A4FAABF08882B4
:103A63008983A3A3E02AFAA3E03BFB8A828B831218
:103A73003BF9EC4D70D2750A17750B00780A1221C9
:103A8300C4EEFCEFFD1210477402121F70EEFCEF40
:103A9300FD85088285098312389E1204A18014755E
:103AA3000E098003750E0112442B850C82850D834C
:103AB300123C10A90E02364A1208138A108B11A861
:103AC30010A911E84922E5082402F508E5093400A4
:103AD300F5098A828B83A3A3A3E0A2E5228518823A
:103AE300851983AC82AD838E828F83123AF68A0A5C
:103AF3008B0B22E0FAA3E0FB120711227404121FBE
:103B0300707F0A02208374EC121FB18C108D11EAAE
:103B13002405F50CEB12410E750F00EA2402F50A99
:103B2300EB123BF3850A82F58312389E12463D70F1
:103B330003023BE5750E008071850C82850D83E0E1
:103B43006401704F8E828F83A3A31221DB8E828F39
:103B530083A3A3A3A3E0F51275130078121221C463
:103B6300EE2405F512EF3400F51378121221C41276
:103B730038981208317406121F70E9F50F60148526
:103B83000C82850D83E4F012442B8510828511830A
:103B9300123C107C177D007900EEFAEFFB12105FE8
:103BA3008E828F83E4F0A3F0050E9002E5E0F8E542
:103BB3000EC398501EE50E75F017A4F8A9F08508FA
:103BC30082850983A3A31245A3123BF9EC4D60033D
:103BD300023B3C85088285098374FFF0A3F0E50F5F
:103BE30070061238981204A7A90F0239A3F50AEF39
:103BF3003400F50B22A3123BFEFD22E0FCA3E022DE
:103C03008E828F83124433850E82850F83E8F0A35F
:103C1300E9F022C082C0839002E1E06A7003A3E06E
:103C23006B70067AE17B0280047A007B00022F58D6
:103C330074F7121FB17F00EF75F003A4F8A9F0EC3D
:103C430028F8ED39F988828983E06A7003A3E06B71
:103C53007006E8FAE9FB800B0FEFC3940240D87AB1
:103C6300007B007F0102208374F6121FB112421CF5
:103C730070067A007B008007A3A3A3A312389E02D9
:103C830042DD74F2121FB1E9FE740E121FA5123C3D
:103C9300E57410121FA512414D8C828D83E06402DE
:103CA300703BA312442F88828983E0F50CA3E0F9CB
:103CB300A80C74026870037429697021750C02756D
:103CC3000D00780C1221C478081221C4780A12213D
:103CD300C4EEF91208557406121F708002790102AE
:103CE300434DE0F50AA3E0F50B2274E8121FB1740B
:103CF300FB121F5AE9851882851983F08A168B17E0
:103D03008C0E8D0F741F121FA512414D7421121FAB
:103D1300A5123CE57423121FA51241377510008CC0
:103D2300828D83A3A3A3E0A2E4502A741D121FA5CE
:103D33001239AE8A828B83E58245837003023DF993
:103D4300790AAC0EAD0FAA16AB17121FAFE9F51027
:103D53006003023DFC850E82850F83E064026003ED
:103D63000240B2A312442F850882850983A385826A
:103D730012858313E50E2406F50CE50F12410E8818
:103D8300828983E0FAA3E0F9EA2400F514E439F523
:103D930015781412224E010000280128C13D0700A6
:103DA3000228983E0328083E0029C23F0129EA3F22
:103DB3000229913F0329C23F04295340B240EE4FE9
:103DC300703E850C82850D83124128FAE9FB8A82B5
:103DD3008B83E0850A82850B831241641221C48A96
:103DE300828B83A3123BFEFDAA08AB091210477412
:103DF30002121F70800375100EA9107405024591FD
:103E030075100B80F4EE4F70F7850A82850B83746F
:103E130001F012413D850882850983F07C007D0015
:103E2300850E82850F83A3A3A3A3E02401FAA3E055
:103E33003400FB120711EA4B60418A828B83E02432
:103E430002F8850A82850B83E028F0EA2404F8EB64
:103E53003400F988828983E08512828513831241B5
:103E6300761241641221C48A828B83123BF8E508DF
:103E73002403FAE5093400FB023DEF850A82850B32
:103E830083E02404F07C047D007900AA12AB1312B2
:103E9300105F023DFCEE4F6003023E0312413DFE04
:103EA300A3E0FF850A82850B837404F0EE85088204
:103EB300850983F0EF851282851383F07403121F43
:103EC300A5AC82AD83EEFAEFFB12420A7003023F08
:103ED3006E8A828B83A3A31241337401121FA585BB
:103EE300820E85830F780E1221C47405121FA5124A
:103EF30021DB7CFF7DFF1207177404121F708B0FE9
:103F0300EA450F7033850C82850D8312411312210C
:103F1300C4850C82850D83A31221DB7C027D007A8C
:103F2300967B901205437404121F70E9700A7401A2
:103F3300121FA574FFF0A3F08E828F83E0640270DA
:103F430034750C02750D00780C1221C48E828F8398
:103F5300123BF8E5082404FAE509123524121F7010
:103F6300850A82850B83E0240280097401121FA550
:103F7300EEF0A3EFF07401121FA5124124F07401B7
:103F8300121FA5A312411CA3A3A3F0023DFCEE4FF5
:103F93006003023E03850C82850D83123BF9AA164A
:103FA300AB17120849850A82850B837402F0EA85F0
:103FB3000882850983F0851282851383EB80CBEE1B
:103FC3004F6003023E0312413DF8A3E0F9850A82E4
:103FD300850B837402F0E8850882850983F0E985FF
:103FE300128285138380A3850C82850D8312389EEC
:103FF300121041EAFC8C82A882C39EE49F404BE8E6
:104003006E7001EF70047C00801F85188285198310
:10401300E0FAEE2AFAEF3400FBC3EA98EB9400507F
:1040230003E08004EECCC39CFCEC850A82850B8301
:10403300F08C0A750B00780A1221C4850C82850D59
:1040430083E02EFCA3E03F023DEA751007023DFC2E
:10405300EE4F6003023E03850C82850D8312442FCD
:10406300850A82850B837407F08882898312411C39
:10407300124104E0851282851383F0E82402FAE9F1
:104083003400FB8A828B8312411C12415512412456
:10409300A312415E12412DF0E82405F8E93400F93A
:1040A3008882898312412DA3124176A3023F8A7429
:1040B3001D121FA51242157003023DF912442F88E9
:1040C3000C890DE8450D7003023DF98E108F1178B0
:1040D300101221C4780A1221C478081221C474066C
:1040E300121FA5E0F9AC0EAD0FAA16AB17850C8213
:1040F300850D83121FAF7406121F70E9F510023D80
:10410300FCF088828983A322F50CEF3400F50D229D
:10411300E0F50E750F00780E22E08508828509838D
:104123002212417D22124433E82212417DA3A322AD
:10413300A3A3A3A3E0FEA3E0FF22850C82850D8346
:10414300E0F8A3E0F5838882E022E0F508A3E0F538
:104153000922A3A3F08A828B83A322122E10A3A386
:1041630022F08A828B8312416D22E0F50A750B00DF
:10417300780A2212410412417D22E08508828509D2
:1041830083A3A32274EE121FB174FE121F5A8A0A6C
:104193008B0BECFAEDFB7414121FA5E0F510A3E0F2
:1041A300F5117416121FA5E0FE7418121FA5E0F591
:1041B3000EA3E0F50F851882851983AC82AD8312B7
:1041C300420A603E851882851983124215602FA327
:1041D300A312414DE50845096024780E1221C478E5
:1041E300101221C4EEF9AC0CAD0DAA0AAB0B850875
:1041F30082850983121FAF7404121F708006790E23
:104203008002790102364A1207118A0C8B0DEA45A6
:104213000D221238A212421C221207DD8A828B83DE
:10422300E58245832274F6121FB174FE121F5A747D
:104233000C121FA5124128851882851983F0740179
:10424300121FA5E9F0E4F508F50978081221C475F1
:10425300080278081221C47404121FA585820885F8
:10426300830978081221C41208317406121F70746E
:1042730002121F70806474F7121FB1EAFEEBFF890C
:10428300087C187D03120849EA5402600BA908EE62
:10429300FAEFFB12070580027901023C6674F612FD
:1042A3001FB174FF6A700374FF6B701C7B00EB75A6
:1042B300F003A4F8A9F0EC28F8ED39F91242E20B67
:1042C300EBC39402501480E61208198A088B09A8DC
:1042D30008A909E84960031242E27F0202208388A9
:1042E30082898374FF122E0EE4F02274F6121FB13A
:1042F3001208198A828B83E58245836006A3A3E0B3
:10430300FA80027A007B0080D174F2121FB18A080E
:104313008B09ECFEEDFF740E121FA5E0F50A1243A4
:1043230052701CEEFCEFFD7AFF7BFF1243527004C8
:104333007911801688828983E508F0A3E509F0885E
:10434300828983A3A3E50AF079007F060220831202
:1043530008198A0C8B0DA80CA90DE8492274EE12DA
:104363001FB1EAFEEBFF8C088D09890C7412121F32
:10437300A512442F7414121FA5123BF97416121FB1
:10438300A512389E750D00EC4D60030244237402A0
:10439300650C600302441E88828983123BFEF9EC9C
:1043A3002400F50EE439F50FEAF4F8EBF4F9EC58D0
:1043B300F8E50F59F9E849705DE5082406F8E509C1
:1043C3003400F9880A890B8882F583123533120881
:1043D300498A108B11E50E65107004E50F651160B5
:1043E30042780E1221C4850A82850B83123533125B
:1043F300084F7402121F70E9F50D7027780E122111
:10440300C4850882850983A3A31235311208677412
:1044130002121F70800D750D808008750D0D8003CD
:10442300750D0BA90D023B048E828F831244332238
:10443300E0F8A3E0F92274E8121FB174E7121F5ADF
:10444300851882851983EAF0A3EBF08C168D178902
:104453000E7431121FA5E0F512A3E0F513743312A5
:104463001FA5E0F514A3E0F5157435121FA5E0F5BB
:104473000F750800750900E50975F003A4F8A9F0A4
:104483008518828519831245A3E0F47003A3E0F431
:104493007003024581EE2402F50CEF124599E0709A
:1044A3000302458185160A85170B780A1221C4ACCD
:1044B30014AD15AA12AB131207D17402121F708A1E
:1044C3000A8B0BEA450B7003024581E4F510F511E5
:1044D30078101221C47406121FA5858210858311DA
:1044E30078101221C47409121FA5858210858311C7
:1044F30078101221C4851282851383A3A3A3A31268
:1045030021DB7914AC0AAD0B8E828F831245B7126F
:104513001F70E97069850A82850B83A3A3A3A31285
:10452300442F7402121FA5123C10850C82850D8343
:10453300E0A2E05018A90E7402121FA5AC82AD834D
:104543008E828F8312389E120729E94208850C82D6
:10455300850D83E0A2E15026E50FF50A780A1221C2
:10456300C8A90E7403121FA5AC82AD838E828F83FC
:1045730012389E1207237401121F70E942080509BD
:10458300E509C39402500302447AA9087419121F5F
:10459300707F100220833400F50D850C82F5832291
:1045A300E028FEA3E039FF8E828F83227916850AE5
:1045B30082850B831238A212082B74082274F2121C
:1045C3001FB1EAFEEBFF890B7401650B600E7402E9
:1045D300650B70637901120A41E9705BEEFAEFFB38
:1045E30012463D6047750A00800B7C177D007900F9
:1045F30012105F050A9002E5E0F8E50AC39850211E
:10460300E50A75F017A4F8A9F0850882850983A344
:10461300A3E028FAA3E039FB8A828B83122F5F7011
:10462300C985088285098374FFF0A3F07C187D0394
:10463300EEFAEFFB12084302434D1208138A088B6C
:1046430009EA45092274F2121FB18A088B09ECFEAC
:10465300EDFF740E121FA5123CE5900A23E0F460EF
:104663003D7A097B0012106BEA4B60328A828B839E
:1046730074B1F0A3E4124157A3124155A3E508F026
:10468300A3E5091246A4EEF0A3EF1246A4A3A3E503
:104693000AF0A3E50BF0900A23E0F9121077024326
:1046A3004DF08A828B83A3A3A3A3A322C082C083DA
:1046B3009061907404F0A37448F0A3E4F0906180D7
:1046C3007440F09061BC7407F09061877469F09056
:1046D30061B67416F07900120B317902120B379020
:1046E3002CCCE493F46006E493F9120B0D790512D4
:1046F3000E2B024AF1C082C083E9540FF990618501
:10470300E0696012E5C654804449F5C6E59E547FCE
:10471300644970F8E9F053C680E59E547F70FA024D
:104723004AF174F7121FB1E5A8FE53A87E120B19C4
:10473300C2BA539AFEC289759B00C2C2120B1F757F
:10474300A91175B905120B25D2BA439A0174805E7B
:1047530042A802507EC082C083906181E4F0A3022C
:104763004AEE75E90075910075BF00020135C082FC
:10477300C083906181E4F0A374C0F0A3E4024AF023
:10478300C082C08374F8121F5A9003C4124F60E8AA
:1047930049700302483A9003C4E054406023790807
:1047A300851882851983AA82AB83120C2785188208
:1047B300851983AA82AB831208D39003C4E054BF44
:1047C300F0E054806010790C7A807B05120C2790FE
:1047D30003C4E0547FF0E0A2E0500879001248429D
:1047E30054FEF0E054026008790112484254FDF08F
:1047F300E054046008790012484D54FBF0E054087B
:104803006008790112484D54F7F0E05410600879BC
:104813000212484D54EFF0E0542060087903124827
:104823004D54DFF0A3E05401600D120B431208E571
:104833009003C5E054FEF07408121F70024AF1128F
:104843000B311208D99003C4E022120B371208DF90
:104853009003C4E022C082C083E9600514602A800B
:104863004F90619A7433F0A37455F09061A0743A39
:10487300F090055CE064017009C2919003C674670F
:10488300802D9003C67461802690619A743FF0A3D3
:10489300745AF09061A0747FF090055CE06401703D
:1048A30009D2919003C6747180059003C6746AF0AF
:1048B300024AF1C082C083E9600B14600D14600FDB
:1048C3001460118020902CD08015902CD1801090F2
:1048D3002CD2800B90055CE0640160F3902CD3E450
:1048E30093906186F0024AF174EE121FB174F412D0
:1048F3001F5A851882851983AC82AD8375839075A1
:1049030082207404121E6D902CD093F46003024A2B
:104913007D907808E0C394025003024A5D74041248
:104923001FA5AC82AD8375838F75828A7408121EAE
:104933006DF97AFF7BFF7FFF7E008982858210807D
:104943001874086E7003024A1274096E7003024AE7
:1049530012740A6E7003024A12E510C333FCE43387
:10496300FD7404121FA5E5822CF582E5833DF583D2
:10497300E0F50EA3E0F50F8E0875090074027808C0
:10498300121F4774482508FC74783509FD8C828D05
:10499300837808121E2A74087808121D6B85080C88
:1049A30085090D8C828D837808121E2A7418780865
:1049B300121D6BE50C4508F508E50DF509C3E50E79
:1049C3009508E50F95098C828D837808121E2A8C31
:1049D300828D837808121E2A741878084014121DD9
:1049E3006BE50C4508FCAD0DE50EC39CFCE50F9D86
:1049F300800F121D6BE50C4508C3950EFCE50D9564
:104A03000FFDC3EC9AED9B5006ECFAEDFBEEFF0EA7
:104A1300EEC39413500302494474FF6A700374FF96
:104A23006B602D8F0874027808121F477448125761
:104A33000C74783509F5837808121E2A8518828547
:104A43001983E5822510F582E583125499E508F070
:104A530009E9C39404500302493575080175090037
:104A630078081221C47402121FA5AC82AD837A3474
:104A73007B0B1212517402121F70740C121F707F81
:104A83000A022083C082C083906186E0F8902CD311
:104A9300E493687009902CD2E493906186F090615E
:104AA300AE7468F0A3746AF090624574FBF0A304DB
:104AB300F053F4FD43FE0290055C7401F09061A095
:104AC300E0643A7004790080027901120B31024AE2
:104AD300F1C082C08390050EE06401700A90051353
:104AE300E06004790C800279008003F0A3F0D083A6
:104AF300D082020135C082C08375E1F1900511E0D7
:104B0300604D1460081460511460498051120B55B4
:104B1300900507E0F97A087B05120DAD90901C1201
:104B23001E48120DE3909034121E48120DB99005E1
:104B330012E0F9120DC57901120E1F900505E0244C
:104B430016124C86746DF0A3740BF07900809F12DB
:104B53000B5B80BC120B6180B7120B6780B27912BA
:104B630080EB74F4121FB175D90D9004F6E0A2E046
:104B7300E4331313F8124BF2484401F5D9780012C9
:104B83004C7040FB7800880874F712570C740412B9
:104B93004C7A40F275E1959004F6E0F97AF77B04DC
:104BA300120DB3900A4574E3F0A3740A124C9512E4
:104BB3004CB5124CAC124DED124BFC7808121E2A68
:104BC3009090187808121DB69090287808121E0449
:104BD300124C807808121E39900505E02414124CFB
:104BE300867413F09003C27402F07F040220839052
:104BF3000507E0C4333354C022900505E0F8A3E071
:104C0300F5838882A3A32274F6121FB1124DBE8AC4
:104C1300D97800124C7040FB78008006124D2412A4
:104C23004E70E8C39940F5124DB0124C7040FB78BA
:104C33000080081257087405124E70E8C39940F3B8
:104C430075E195900A4574EFF0A3740A124C95121E
:104C53004C9F121E48124C80121E54900505E024EE
:104C630014124C867412F09003C202505B880874CD
:104C7300082508F5827405124FCC94062290050589
:104C8300E0240EF8A3E0124C8D223400F9888289C7
:104C93008322124DD674E9F0A3740A22124CB51282
:104CA3004CAC124DF190903022F0A37401F0A37438
:104CB3000B22124CB922124CBD22F0A37493F0A321
:104CC300740C2274F6121FB1124D19124BF24402E6
:104CD300F5D97800124C7040FB78008006124D2401
:104CE300124E70E8C39940F575E195900A45124D4F
:104CF3002FF0A3124D2F124CA2121E48124C8012F9
:104D03001E54900505E02414124C867414F090038D
:104D1300C2740402505D900517E0F9740729F5D9B0
:104D230022880874182508F58274052274FB124D35
:104D33003C124D3CF0A3740A22F0A3740AF0A3744E
:104D4300FB2274F6121FB1124DBE74064AF5D978D0
:104D530000124C7040FB78008006124D24124E70F6
:104D6300E8C39940F5124DB0124C7040FB780080B7
:104D7300081257087405124E70E8C39940F375E1A1
:104D830095900A4574F5F0A3740A124DCC124C9F0A
:104D9300121E48124C80121E54900505E024141272
:104DA3004C867415F09003C2740302505D9005376E
:104DB300124D1C74044AF5D9780022124D1990053E
:104DC30007E0C4333354C0FA22124DD67493F0A3D0
:104DD300740C22124DDA22124DE77493F0A3740C73
:104DE300124DE722124CBDF0A322124DF122F09096
:104DF3000A537493F0A3740C124DDA7493F0A374F2
:104E03000C124CB9F022C082C083124BFCA3A3A3A3
:104E1300A3E4024AEE74F7121FB112594EF8740359
:104E230039F9E82405FAE93400FB8A828B831256A8
:104E3300BD88828983A3A3A3A3A3A3A3A3A3ECF005
:104E4300A3EDF088828983A3A3A3A3A3A3A3E02450
:104E5300FFF8A3E034FFF98A828B83E8F0A3E9F03B
:104E630002507E880874602508F58274051255E4A3
:104E7300F5D90822EAFEEBFF9061D0E0F87480C315
:104E830098FAEE248322124E8F9404221254A7E040
:104E9300F5D90AEAC32274F6121FB1EAFEEBFF90BA
:104EA30061D0E0707575D90E75D90375D9047A0090
:104EB3008A08EE2508125A1C248C124F3240F17ACC
:104EC300008A08EE2508125A1C2484124E8940F1E8
:104ED30075E1957908EE248C124F2B2484124F220E
:104EE3007C008C82AA82C3E49AF895E0F9EE28F854
:104EF300EF39F9E8248BF582E91255E0C0E0EE2A98
:104F0300125A1C24ABF582E9125499D0E0F00CEC50
:104F1300C3940840CD124FE88002790002505EFA34
:104F2300EF3400FB120C1B22124F227904EE2212E3
:104F33004E8F940822C082C08375D90275D9037538
:104F4300D90575E195EA2470F582EB124F5DEA24E9
:104F530072F582EB124FFA024AF11254AA124F640D
:104F630022E0F8A3E0F92274F6121FB1EAFEEBFF88
:104F73009005607406124FD61221C47C0179031286
:104F83005302121F7075D90675D9037800124FBCEE
:104F930040FB75E1959003C2E064087017EE24703E
:104FA300F582EF124F5DEE2472F582EF125499E809
:104FB300F0A3E9F0790102505E880874602508F5D2
:104FC300827405124FCC9405221254AAE0F5D90835
:104FD300E8C322F075086075090578082275E19524
:104FE3007904120DE9EE2470F582EF1254AA124FE0
:104FF30064EE2472F582EF1254AAE8F0A3E9F07983
:10500300012274F6121FB1EAFEEBFF9061D0E0704B
:10501300437901900560740BF09003C2E06407705C
:105023001775086075090578081221C47C01090900
:10503300125302121F707905740129F5D975D9032A
:1050430078008003124E66E8C39940F875E1951223
:105053004FE88002790080037401F07F020220830D
:1050630074F7121FB1EAFEEBFF75D90375D9037507
:10507300D90DEE24DE125083124FE07F010220830C
:10508300F582EF1255E4F5D9227F030220837401E0
:10509300250AF5D975D90378002274F5121FB112C8
:1050A30051126004780480027800E8240BF8EAC304
:1050B300984041750A099005607409F07908125007
:1050C300FB601475086075090578081221C4125233
:1050D300FA121F70750A0D1250918003124E66E882
:1050E300C3950A40F775E1957904120DE9125277D9
:1050F3007901800279008091EE24E3FCEF3400FD16
:105103007A617B05120C15850882850983E02212DA
:105113004E77F8EF1256B1F583E02274F3121FB104
:105123008A088B0912530DFAE5082483F50AEB125A
:1051330051DC6004780480027800E82408F8EAC3AC
:105143009850030251D5750C06900560740CF090CD
:1051530003DFE0900561F07402C0E0F97CE07D03B9
:105163007A627B05120C15D0E0F97CE27D03120C08
:1051730015850A82850B83E0601C750A60750B0533
:10518300780A1221C47C067903AA08AB09125302D8
:10519300121F70750C0A7401250CF5D975D90378A3
:1051A300008009880A7460250A124E6CE8C3950CC6
:1051B30040F175E1957904120DE9E5082470F58253
:1051C300E509124F5DE5082472F582E509124FFAED
:1051D300800279007F050220833400F50B850A8263
:1051E300F583E02274F6121FB1EAFEEBFF12530DB2
:1051F300FCEE2483F8EF12530860047A0480027AE9
:1052030000EA2404FAECC39A405E7A02900560EA4D
:10521300F0EE24F5F582EF1252836019750860757C
:10522300090578081221C47C027903EEFA125302AD
:10523300121F707A0674012AF5D975D90378008094
:1052430003124E66E8C39A40F875E195EE24741292
:105253005270EE24801252701252777904120DE9C3
:10526300EE240D124FEB8002790002505EF582EFBF
:105273001253F322EE241DF582EF1253F3A3F0220F
:105283001255E4900561F088828983E02274F61256
:105293001FB112530DFEEA2483F8EB125308600486
:1052A3007C0480027C00EC2404FCEEC39C40437C21
:1052B300029005607407F0EA24F6F582EB1252833C
:1052C300601575086075090578081221C479031201
:1052D3005302121F707C0674012CF5D975D903781B
:1052E300008003124E66E8C39C40F875E19579018E
:1052F3008002790002505E7C097903EEFAEFFB121B
:105303000C87740222124C8DE0229061D0E0F87475
:1053130080C3982274F5121FB1E9FEA2AFE433F5FE
:105323000AC2AF7F00EA246FF8EB3400F980010F63
:1053330088828983E0FCEFC39C50188F08EA250814
:10534300FCEB3400FDEC246BF582ED1255E06E703E
:10535300DE8010EA2CFAEB3400FB125493EE125267
:105363008904F0E50AA2E092AF02508C74F6121F92
:10537300B1A2AFE433FFC2AFEA246FF8EB125A1EB7
:10538300FCE9FD8C828D83E014F07E0080218E0881
:10539300EA2508F8EB125A1E246CF582E91255E04F
:1053A300C0E0E8246BF582E9125499D0E0F00E8C4A
:1053B300828D83E0F8EEC39840D4EA246E125496AB
:1053C30074FF1253E8EFA2E092AF02505EC082C0B6
:1053D30083E5A8F8C2AF125493E91253E8E8A2E7B1
:1053E30092AF024AF1F0EA246AF582EB1253F322F8
:1053F3001254AAE4F02274F2121FB18C828D83A39B
:10540300A3A3A3E0541FF0EA24361257558E828FCC
:1054130083E4F0F50C850C8285820AEC250AF8ED0D
:105423001256ADF583E0C0E0EA250AF8EB12549D6D
:10543300D0E0F0750D00850882850983E0F50A75D3
:105443000B00E50D780A121F28E50AA2E0502AE5B1
:105453000C33333354F8250DC0E08E828F83E0F88C
:10546300EA28F8EB125A1E2438F582E9125499D02F
:10547300E0F08E828F83E004F0050DE50DC3940800
:1054830040B4050CE50CC39405408A7F06022083D3
:10549300EA246BF582EB1254AA223400F9E8245D66
:1054A3001254A722F582E93400F5832274F6121F01
:1054B300B19003EEE0640170077A007B000255DAD5
:1054C3007E009003F4E070F17401F0A3E4F0A3F024
:1054D30090045404F0900457E4F0A3F090045A04A9
:1054E300F09003F7E41255F190040104F0900427BF
:1054F300E4F0908FD4121E4890040A121E549004B4
:105503000EE4F0A3F0A3F0900472F0900466F09020
:10551300045B7480F0A3E4F0900461F0900459F00C
:105523009004DD1255E99004E6F0900475F09004C0
:10553300C5F0A3F0908FD4121E489004C7121E54D6
:10554300908FD4121E489004CB121E549004D1E4C1
:10555300F09004D3F09004CFF09004E91255E98E53
:1055630008745D12570C740412549974FFF00EEE14
:10557300C3940440EA7E008E82A88274FD28F582DB
:1055830074041255E0C0E0744F28F5827404125479
:1055930099D0E0F00EEEC3940540DC7E008E82A825
:1055A3008274D628F58274031255E0C0E074D528BE
:1055B300F5827404125499D0E0F00EEEC3940840BF
:1055C300DC9003EEE004F0640170089003F6E090D1
:1055D30003F0F07AF27B0302505EF582EF1255E49A
:1055E300221254AAE0221255F1A31255F122F0A37C
:1055F300F0A3F0A3F022C082C083EA2403F582EB78
:105603001255E06008E4F09003EFE014F09003EE2D
:10561300E014F070069003F074FFF08A828B83A38A
:10562300A3E4F0900502E0700D9003EFE0640170D5
:10563300057900120DCB024AF1C082C0839003F5B5
:10564300E4F09003F4F09003EEF0A3F0A374FFF002
:1056530075E1F1024AF1C082C083780079009003BA
:10566300F5E0600478F2790388828983A3A3A3A376
:10567300E0F9024AF174F6121FB1EAFEEBFF120BD6
:10568300CDEE2465F8EF1256AD1256BBEC4D60100B
:105693009003F0125946850882850983E4F0A3F04C
:1056A300EEFAEFFB120CBD02505E1256B12234002B
:1056B300F988088909888222F583E0FCA3E0FD22AA
:1056C30074F7121FB1EAFEEBFF8E828F83A3A3A3AD
:1056D300A3E0FA7B0012094BEEFAEFFB120BDF1289
:1056E3000C9F02507E74F6121FB17800880874D69E
:1056F30012570C740312527308E8C3940840ED90D8
:1057030003D602505B880874382508F5822274F6A4
:10571300121FB1EA240D125755EC2403F8ED34009F
:10572300F988088909EC2407F8ED125A1EFCE9FDF3
:1057330012575F121ECF8E828F83E8F0A3E9F01217
:10574300575F121ECF8B09EA450960031257720295
:10575300505EF8EB3400F9E8FEE9FF228C828D837A
:10576300124F64850882850983E0FAA3E0FB228E49
:10577300828F83E02401F0A3E03400F02274F61258
:105783001FB1EA242EF582EB34001256BBEA2470D3
:10579300125755780079FAECFAEDFB121ECF8E8280
:1057A3008F83E8F0A3E9F0780079FAECFAEDFB12C5
:1057B3001ECF8B09EA4509600312577202505E74CB
:1057C300F0121FB1EAFEEBFF7410121FA578081246
:1057D3001E2A120D778A0C8B0D8C0E8D0F90901450
:1057E300780C121DB6909028780C121E04780C12B7
:1057F30021C08E828F83124BFF121E4812299B7485
:1058030004121F70E960030258AA8E828F83E0247A
:1058130002F8A3E0125A1EFAE9FB8A828B83780806
:10582300121DC99090287808121E2A8A828B8378C9
:1058330008121E17EE240BF582EF125499C082C092
:10584300838E828F83A3A3A3A3A3E02401F8A3E001
:105853003400F9D083D082E0687003A3E069700458
:1058630079018045EE2407F8EF124C8D125776EE3E
:105873002474125A237014EE24751258B17003A3C2
:10588300E06D70078A828B83125776EE2480125A5A
:10589300237014EE24811258B17003A3E06D7007D6
:1058A3008A828B8312577679007F08022083FAEF6E
:1058B3003400FB8A828B83E0FCA3E0FD888289832A
:1058C300E06C2274F3121FB112594EFE740339FFB8
:1058D300EE2404F50AEF3400F50BEE2465F508EF2A
:1058E3003400F50980101256BD850882850983E4CA
:1058F300F0A3F01259408508828509831256BDEC46
:105903004D6030EE24641255DDF50C780C1221C87D
:10591300EE24631255DDF9EEFAEFFB120C09740164
:10592300121F70E985088285098360BA124F60E807
:105933004970077C007D001259400251D7850A82C5
:10594300850B83E0FA7B00120909229003F0E0F84B
:1059530075F004A4C8AAF02AF974F2282274F2128A
:105963001FB1EAFEEBFF890A740E121FA5E0FAEEDF
:105973002462125A236003025A1712530DF50CEED8
:1059830024831255DDFB60047804800278008908C3
:10599300E928F8E4125A1E24020808E93400F9E55C
:1059A3000C98E499A2D265D0334065EA7005750B73
:1059B300028003750B01EB6033750900780812212F
:1059C300C47A607B05120C517402121F7075086053
:1059D30075090578081221C4AC0AA90B1252FE12EC
:1059E3001F707404250AF50A7C607D057401250A7D
:1059F300F5D9850BD97800800A8808EC12570CED8D
:105A0300124E70E8C3950A40F075E195790080065F
:105A13007907800279FF02548EF8EF3400F9E82207
:105A2300F582EF1255E4640122C082C08380031221
:105A33005A5AE9F874FF28190470F4ECFAEDFB02E2
:105A43004AF1C082C0838003125A5AE9F874FF28CE
:105A5300190470F4024AF18C828D83E08A828B836D
:105A6300F08C828D83A3AC82AD838A828B83A3AABD
:105A730082AB832274E8121FB1907803E064427012
:105A83005E90055FE014F07056C2AF125A91007831
:105A93002AD0E0F618D0E0F6E59F5407F970059098
:105AA3009010800390900C7808121E2AE9C4C0E07D
:105AB3007829E65508F50808E65509F509740B78C1
:105AC30008121F38D0E02508F8906270E0A2E74082
:105AD300F8E8C333906272F0906270E0D2E0F09025
:105AE30003F0E0F874FF687003025DA9E81268022E
:105AF3002402F8EF3401F98882898312687CEA4B27
:105B0300600FEE2401F582EF3401F583E0F9121002
:105B13009BEE2405F514EF3400F5158E828F83A3D5
:105B2300A3A3A3A3A3A312628E126818906054E0E8
