:020000040000FA
:0600000002011D02259221
:03002B00022C752F
:03003300022C5B41
:030053000226087A
:03006B00022BFC69
:10008300022483E5C754F84401F5C779012200002F
:100093000080FB120086B90003020107E47921788E
:1000A30008B800028004F709D8FCE479297802B87B
:1000B30000028004F709D8FCE490028178E579070F
:1000C3008002F0A3D8FCD9FA781A90014D7A01BACC
:1000D30000028007E493A3F608DAF9900965AA827F
:1000E300AB8390014E780C79048015E493A3AC8222
:1000F300AD838A828B83F0A3AA82AB838C828D83A8
:10010300D8E9D9E775823F7583A9740312012F7566
:100113008291758300740012012F75D00075813FA1
:10012300751881751902759F00020096C09FF59F8F
:10013300E473D09F22D083D082C09FE493C0E07445
:100143000193C0E0740293F59F2202FF0000B40004
:100153000028002800283075A000A000A000A000FF
:1001630000080008E001F00010001000100010006B
:100173001000100050005000500010001000D00775
:100183000000000000000F000100050030750700AB
:100193001000010081FF0000FF570675065D06FF92
:1001A30002020208025000A0000000E8030270905F
:1001B3000100005B90026C90010000BA0902669096
:1001C300010000B202026C90010000BB09028C9096
:1001D300010000C802026C90010000BC0902829079
:1001E300010000CA02026C90010000BD0902809068
:1001F300080000CB02026C90010000BE090274905B
:10020300010000BF09FF0100FF2002709001000000
:100213005E90026C90010000230A026490000000CB
:1002230000000268900300001803870C870C870CFA
:10023300870C870C870C870C870C870C870C870C23
:10024300870C870C5D0F750F570FFFFF0202020229
:100253000202020202010D0000001001027090016F
:1002630000005890026C90010000660A0288900119
:1002730000007807026C90010000670A0286900173
:100283000000208F026C90010000680A0284900134
:100293000000058F026C90010000690A027E900144
:1002A3000000A38E026C900100006A0A027C900198
:1002B3000000B58E026C900100006B0A027A900177
:1002C3000000918E026C900100006C0A027890018C
:1002D30000007F8E026C900100006D0A027690018F
:1002E3000000F78E026C900100006E0A02969001E6
:1002F30000006F0A01053F10FF0001307503020182
:1003030006000000000000000000000000000000E4
:1003130000000000000000000000000000FFFF06D6
:1003230000800CE80309094C4F53542D424C4505FA
:100333001228009001020A000201060302F0FF4C9A
:100343004F53542D424C45000000000000000000B4
:1003530000000000AD13C513B31308436861726155
:100363006374657269737469632031001043686153
:100373007261637465726973746963203200027019
:10038300900100006190026C90010000740B0292D6
:10039300900300005609026A90010000750B026C7D
:1003A30090010000860B0294900000005C09026833
:1003B300900300005D09026A90010000870B0000B2
:1003C300000000000000000000000000000000002A
:1003D300000000000000000000000000000000001A
:1003E300000000000000000000000000000000000A
:1003F30000000000000000000000000000000000FA
:100403000000000000000100B0423BAAB83F00001A
:10041300003F8C906339AA0CA33A00941E3C80429F
:10042300633DCFFE753E1572313FF304353F809631
:10043300184B000080BF2292D43EDD9B2A3F04006C
:100443000040FFFF7F7FFFFF7FFF010080341872B2
:10045300313F0000803F120138389E031201384FAC
:100463009E031201387E9E03120138B79E031201C8
:1004730038DF9E031201380D9F03120138249F03B6
:100483001201383B9F03120138519F031201387840
:100493009F031201388B9F03120138A19F0312019E
:1004A30038B49F03120138D99F03120138828C029A
:1004B300120138818D02120138B68D02120138D72C
:1004C3008D02120138E78D02120138088E021201E3
:1004D30038148F02120138E18F021201385490024E
:1004E300120138DA90021201381D910212013854B8
:1004F3009102120138DA9102120138AC9202120110
:10050300380A93021201382293021201389C930293
:100513001201389F9302120138A293021201384943
:10052300940212013861940212013891940212016B
:1005330038B194021201389F950212013855960280
:100543001201387BE202120138A3E202120138D110
:10055300E20212013808E30212013870E3021201C9
:1005630038B9E30212013804E40212013842E4020A
:100573001201387FE402120138ADE402120138544B
:10058300E5021201385EE5021201386BE502120141
:10059300389EE50212013860E6021201386CE60269
:1005A30012013884E6021201388EE6021201385035
:1005B300A5031201385EA50312013876A5031201C3
:1005C300388EA5031201381EAF01120138BCAF01EA
:1005D30012013834B00112013849B10112013883D4
:1005E300B1011201382CB20112013801B301120119
:1005F3003865B401120138BCB40112013843B501A6
:100603001201382AB60112013877B60112013805F2
:10061300B70112013829B701120138FEB8011201DE
:10062300383FB90112013861B901120138E2B90149
:10063300120138CCBA0112013892BB0112013825DC
:10064300C102120138F7C102120138A0C20212011D
:1006530038E3C20212013870C302120138FCC3022C
:10066300120138DDC4021201380CC5021201380828
:10067300C60212013850C60212013852C7021201D3
:100683003896C702120138BCC70212013879A70392
:10069300120138F8FB021201380EFC021201383441
:1006A300FC021201385CFD0212013866FD021201E0
:1006B30038BFFE02120138BFFF02120138E9D3022C
:1006C3001201381ED50212013851D5021201389B8E
:1006D300D50212013859D70212013899900112013B
:1006E30038FC9001120138419201120138519201F4
:1006F300120138749201120138BF92011201386459
:1007030093011201385A9401120138249501120100
:10071300389C9601120138DE96011201387C97014C
:10072300120138C99701120138EF9701120138DD20
:100733009901120138E29901120138C39B01120198
:1007430038179C01120138799C01120138A19C01D0
:10075300120138459D01120138079E0112013838F4
:100763009E011201383B9E01120138839E01120142
:1007730038C59E011201382C9F01120138978F034F
:10078300120138AA8F03120138C38F031201380EE6
:100793009003120138E99003120138789103120192
:1007A30038C391031201389C2C00120138A82C0085
:1007B300120138E12C00120138262D00120138DD18
:1007C3002D00120138632E00120138C82E001201C9
:1007D30038F42E001201382D2F0012013841310058
:1007E3001201381D33001201380835001201383F59
:1007F30036001201389F38001201388B390012017C
:1008030038D13A00120138DE3B00120138FB3B00BD
:10081300120138333C001201384D3C00120138B547
:100823003C001201384F4100120138F0410012011F
:1008330038414200120138684200120138B64200C2
:10084300120138D442001201382843001201380142
:100853004400120138884500120138104600120185
:1008630038D1DD02120138DBDD02120138A6DE02C7
:10087300120138C1DE02120138E7DE021201382B01
:10088300DF0212013863DF021201388CDF0212012A
:100893003805E0021201381AE0021201382FE00293
:1008A30012013866E0021201387AE002120138AB15
:1008B300E002120138E5E00212013811E1021201EF
:1008C3003867E102120138BBE10212013804E20287
:1008D3001201382EE20212013853E20212013835B6
:1008E300F402120138FFF402120138E2F502120198
:1008F3003858F6021201389AF602120138C7F70285
:100903001201380080021201382980021201384294
:1009130080021201388781021201386582021201B6
:10092300388482021201381183021201385483027F
:10093300120138A18402120138408502120138BF26
:1009430087021201385688021201382A89021201DD
:10095300380C8A02120138788B021201380B8C0290
:10096300120138C7FE0112013830FF011201388429
:10097300FF01120138ABFF01120138C4EB0212016F
:100983003831EC021201387CEC0212013871ED02AD
:100993001201386DEE0212013857EF02120138646A
:1009A300A902120138A6A90212013880AA02120173
:1009B3003859AB0212013854AC0212013833AD027C
:1009C3001201389FAD0212013866AE02120138D10E
:1009D300AE0212013838AF0212013863AF021201BE
:1009E30038D4AF0212013867B002120138D0B00216
:1009F300120138E5B0021201382DB1021201384656
:100A0300B102120138ABB102120138AEB1021201C8
:100A130038E586031201380D87031201384B87032B
:100A230012013809880312013874880312013890BF
:100A33008803120138B88803120138E888031201C9
:100A430038F7880312013871890312013897890333
:100A5300120138F69F0112013893A101120138796E
:100A6300A30112013843A4011201388AA40112011F
:100A730038D1A401120138E3A40112013823A501DE
:100A830012013852A5011201389EA501120138D670
:100A9300A50112013804A60112013855A60112015D
:100AA30038E4A601120138D2A901120138ACAB0116
:100AB300120138E8AB0112013842AD011201388945
:100AC300AD01120138FEAD011201384CAE01120125
:100AD3003883AE0112013861A0021201387EA002F0
:100AE30012013818A6021201381AA702120138940B
:100AF300A80212013842A9021201387746001201F6
:100B030038C04600120138ED460012013820470074
:100B13001201382D47001201383947001201384BB2
:100B230047001201382048001201387E48001201A4
:100B330038B348001201384F4A001201389C4A006A
:100B4300120138C04A001201382D4B00120138D26D
:100B53004B001201388E4C001201380D4D0012016A
:100B630038D14D00120138E04D00120138614E00BA
:100B7300120138004F00120138324F00120138CDF4
:100B83004F001201382B500012013865500012013A
:100B930038E65000120138AF5100120138585200A4
:100BA300120138DF5200120138375300120138980E
:100BB3005300120138C15300120138775400120157
:100BC30038C155001201380456001201382156006D
:100BD3001201384056001201388B5600120138B00A
:100BE3005600120138D95600120138485700120135
:100BF300388A57001201388E5800120138285900DC
:100C0300120138F459001201380D5A00120138C08C
:100C130096021201381397021201381F970212012C
:100C230038F497021201381B9802120138569802C1
:100C3300120138C29802120138F698021201382FB5
:100C43009902120138479902120138A09902120140
:100C530038B99902120138029A02120138159A0220
:100C63001201382F9A02120138459A021201386193
:100C73009B02120138729C02120138BF9D021201BD
:100C830038A49E02120138912C00120138C3E601E8
:100C9300120138F7E60112013862EA01120138AC99
:100CA300EB0112013876EC0112013800EE0112015A
:100CB30038DBEE0112013815EF0112013838EF016C
:100CC3001201387AEF0112013883EF01120138CD96
:100CD300EF01120138D7EF0112013883F00112013D
:100CE3003857F101120138ABF1011201380DF2014D
:100CF30012013860F2011201388FF201120138CE6D
:100D0300F2011201383F5A001201389962001201B0
:100D1300389F62001201385A6800120138406C0093
:100D23001201380080031201387680031201388CD7
:100D33008003120138C980031201380181031201B3
:100D4300387E8103120138B98103120138348203DA
:100D53001201387082031201387982031201388537
:100D630082031201389F8203120138C482031201E5
:100D730038DA8203120138038303120138668303CE
:100D83001201380FD90212013822D9021201383C5C
:100D9300D90212013865D902120138A8D902120109
:100DA30038E7D90212013825DA021201388ADA0249
:100DB3001201389FDA02120138AADA02120138B797
:100DC300DA02120138CEDA02120138DCDA02120139
:100DD30038E7DA02120138F3DA0212013806DB02CD
:100DE30012013811DB0212013834DB02120138DD43
:100DF300DB02120138EDDB0212013807DC021201BB
:100E03003824DC0212013840DC0212013865DC02AE
:100E13001201386FDC0212013883DC02120138A29E
:100E2300DC0212013803DD0212013809DD0212016E
:100E3300380FDD0212013815DD0212013821DD02FF
:100E430012013854DD021201384ACC01120138CCA8
:100E5300CC0112013875CD01120138BDCE0112014A
:100E630038CBD001120138B1D101120138E6D101DA
:100E730012013808D201120138B1D20112013881AE
:100E8300D401120138AAD40112013822D50112016A
:100E93003854D50112013861D501120138ACD5019E
:100EA300120138D0D50112013821D8011201382B93
:100EB300D90112013887D901120138C7BD011201C6
:100EC30038D8BE01120138BCBF01120138C6BF01B8
:100ED300120138E8BF01120138F4BF01120138983A
:100EE300C101120138C5C101120138DBC20112016F
:100EF3003830C3011201387FC40112013854C501CF
:100F0300120138B0C5011201381BC6011201385055
:100F1300C60112013893C6011201385DC9011201DD
:100F23003875C90112013806CA0112013814CA0101
:100F330012013861CA011201386FCA01120138DB8C
:100F4300CA0112013856CB01120138ADCB0112018F
:100F530038A9F301120138CBF301120138DCF50192
:100F63001201389BF801120138C5F90112013883C7
:100F7300FA011201386FFB011201387F9C03120141
:100F830038A49C031201381A9D0312013808BA02CF
:100F930012013811BA021201381ABA02120138F2D8
:100FA300BA02120138A3BC02120138D3BC021201E7
:100FB30038FEBC021201382EBD0212013859BD029F
:100FC3001201388DBD02120138B9BD02120138FC7D
:100FD300BD0212013827BE021201386EBE02120191
:100FE30038C3BE0212013805BF021201385FBF02C7
:100FF3001201388ABF02120138D9BF02120138091F
:10100300C00212013834C00212013862C002120158
:101013003885C00212013802A8031201382EA80332
:101023001201385BA80312013865A8031201387551
:10103300A80312013862CE021201386CCE021201EB
:1010430038ADCE02120138F6CE0212013830CF028B
:1010530012013886CF02120138A7CF02120138B02D
:10106300CF0212013804D0021201382DD00212012E
:101073003837D002120138A5D00212013835D10217
:1010830012013890D102120138BED1021201384642
:10109300D20212013885D202120138BAD2021201E9
:1010A30038CCD202120138EBD202120138F4D20248
:1010B300120138BBD30212013885A2031201388E04
:1010C3009A03120138C49A03120138F89A031201E1
:1010D30038459C03120138E3A603120138F9A6032D
:1010E30012013803A7031201384DA703120138E098
:1010F300A80312013823E70212013836E70212016E
:1011030038F7E70212013836E80212013853E802D1
:101113001201388CE802120138D9E8021201380BA7
:10112300E90212013842E9021201384BEB021201C3
:1011330038B7EB021201387CA3031201389FA303D3
:10114300120138CEA303120138E6A3031201382893
:10115300A403120138DF8903120138048A03120140
:10116300382E8A0312013897A903120138996C00AB
:10117300120138386E00120138E36E001201386331
:101183006F00120138E86F0012013811700012016C
:1011930038EC73001201386374001201387A750059
:1011A300120138B47500120138F575001201383C8C
:1011B3007700120138927700120138DB77001201B1
:1011C300384A7800120138B67800120138E77800FF
:1011D300120138FF7800120138187A0012013828FA
:1011E3007A00120138DE7B00120138F57B00120110
:1011F30038277C00120138C97D001201385D7E005A
:1012030012013827A60312013838A603120138D871
:10121300A603120138EDA9031201382CAA03120107
:1012230038E57F0012013871A40312013881A40349
:1012330012013896A4031201384AA5031201388318
:10124300A10312013808A2031201386CA203120190
:10125300387F9803120138BF980312013858990355
:101263001201389399031201380D9A03120138823F
:101273009A03120138859A03120138FAFF01120109
:1012830038FDFF0112013819F00212013830F00263
:10129300120138AAF0021201388EF10212013865E8
:1012A300F302120138CAF30212013821F4021201C7
:1012B30038F87F00120138349403120138C49503BF
:1012C3001201382596031201386B9603120138EB8D
:1012D3009F031201383DA003120138B0A00312018D
:1012E300381DA103120138ED91031201381792033F
:1012F300120138E69203120138C29303120138D265
:10130300B1021201389EB202120138DFB202120199
:101313003819B30212013877B302120138CBB30282
:1013230012013829B402120138BFB402120138C7BE
:10133300B50212013851B702120138EFB702120198
:101343003856B80212013869B8021201385DB90281
:10135300120138A6B902120138D4D9011201380694
:10136300DD0112013897DE01120138EEDE011201B0
:10137300380BDF011201388BDF0112013807E1015D
:10138300120138D6E10112013843E5011201382D6B
:10139300E60112013831C802120138E5C90212010F
:1013A300389CCA021201385ECB02120138C7CC0244
:1013B30012013870CD021201389FCD02120138BDDF
:1013C300CD0212013803CE021201380DCE021201F2
:1013D30038968303120138D78303120138F4830349
:1013E300120138698403120138BC8403120138A93D
:1013F3008503120138AC8603120138C9FF021201BA
:1014030038C38C031201389B7E001201387FA80376
:101413001201386E9603120138B87F001201382189
:10142300F802120138DCFF01E066701008A3E066E1
:10143300700A08A3E066700408A3E06622C3E79677
:101443000809E7960809E7960809E79622C3E09694
:1014530008A3E09608A3E09608A3E09622C008C379
:10146300E096F50808A3E096420808A3E096420830
:1014730008A3E09645087001D3D00822080808E6BF
:1014830030E711121D45121497080808C64480C698
:1014930018181822181818E9799EC608CAC608CB66
:1014A300C608CCC6C370207996CACBCC7019798E86
:1014B300CBCC70137986CC700EF9802ACA33CACB91
:1014C30033CBCC33CC331930E7F2CCCBCA33501403
:1014D3007004EA30E00DE4CA3ACACB3BCBCC3CCC37
:1014E300500209C3E913C6CC182313C6CB18C6CAC6
:1014F30018C6F9228A088B098C0A8D0B78081215F5
:101503004120F01430E72B74FFFCFBFA747F802238
:10151300E4FCFBFA7480801AB48008BC00F2BB00C0
:10152300EF800F50EBF9E4C39AFAE49BFBE49CFCD5
:10153300E499C6CC18C6CB18C6CA18C6F922E4C9A2
:10154300C608CAC608CBC6D3330308CCC63392F049
:10155300C3947F402E94184019C9B90704CACBCC51
:10156300225025C309CA33CACB33CBCC33CC33D9AE
:10157300F422F4600DC9CCC313CB13CBCA13CAD95D
:10158300F6CC22E4FCFBFA2214FCFBFA22E6C3337A
:1015930018461846184622E7C3331947194719470F
:1015A30022181818E6084608700AE608C3337005BF
:1015B300E633F4220822191919E7094709700AE7E3
:1015C30009C3337005E733F4220922E6084608C34A
:1015D300134608336002E633F422E7094709C313CD
:1015E3004709336002E733F4221215CE6025121542
:1015F300DD6020121590700302159A080808E7664B
:1016030070101819E766700A1819E766700418193C
:10161300E76622F4221215CE601C1215DD60171244
:101623001590700712159A7001D322C0D012159A23
:101633007006D0D0B322C32233D0D0501430E0F69A
:10164300C3E7960809E7960809E7960809E796B3FA
:101653002220E0D5E6970809E6970809E6970809E6
:10166300E697B3221215CE601B1215DD6016121514
:1016730090700712159A600CB322C0D012159A709D
:1016830005D0D022C32233D0D0501330E0EBC3E7D0
:10169300960809E7960809E7960809E7962220E0E5
:1016A300E4E6970809E6970809E6970809E697220A
:1016B300001215CE604F1215DD6012E7548066F6F6
:1016C3001215A4701112159A703B090909F4F61842
:1016D300F618F618F6221215B970151215900808A7
:1016E3000860EAE6447FF618768018E4F618F622D6
:1016F300121590601612159A7012E4F608F608F6A1
:1017030008E65480F609090918181822EAC0E0EB24
:10171300C0E0ECC0E0EDC0E0E687F0A4FBACF0086D
:10172300E687F0A42CFCE435F0FA1809E687F0A468
:101733002C4B60027401CA35F0FCE433FB09E687E5
:10174300F0D2F7A42CCB35F0FC1908E687F0A42BD4
:10175300CC35F0FBE433FD0819E687F0D2E7A42C7F
:101763004ACB35F0CD3400FC09E687F0D2E7A42D4F
:10177300CC35F0FDE433FA0918E687F0D2F7A42C50
:10178300CD35F0CA3400FC08E687F0D2E7D2F7A4DF
:101793002ACC35F07A7E20E70B0ACB33CBCD33CD81
:1017A300CC33CC33CB3350147004ED30E00ED2F194
:1017B300E4CD3DCDCC3CCC3B5005DA05C2F1EB5436
:1017C3007FC63308E63392F0FBE73309E733C39A66
:1017D300502D2B70190C0D4C4D70151806E608C3CF
:1017E30033700D20F10AA2F013F6E418800B4024A5
:1017F300E4F630F002768018F618F618F68024D353
:101803003B14501074FFA2F013F6187680E418F618
:1018130018F6800FA2F013F618E63303F618ECF669
:1018230018EDF6D0E0FDD0E0FCD0E0FBD0E0FA22EA
:101833001215DD60461215CE603DE9687008F61892
:10184300F618F618F622748067F712186709090963
:10185300748067F7221215CE601D1215DD7005190D
:101863001919801A1215A4701F1215B9C37003E653
:10187300673319191940071818182208080874FF44
:10188300F618F618F618F6221215B9601712159AFB
:10189300702192F01215907019501720F014080857
:1018A30008090909E7F61819E7F61819E7F61819E8
:1018B300E7F62212159060E6E869701F0808E6242F
:1018C30080F608E436F618547FB47F0CE654806043
:1018D30007F6E418F618F622181822E9C6CC08C64B
:1018E300CD08C6CE08C6CFC0E0E8C0E0EAC0E0EB52
:1018F300C0E009E9F809E7FA09E7FBE6F918E6F8B1
:10190300C3EC98ED99EE9AEBC2E7F5F0EFC2E795D9
:10191300F0500E600CEBCFFBEACEFAE9CDF9E8CC40
:10192300F8EAA2E7D2E7FAEB33FB13F5F0EEA2E70E
:10193300D2E7FEEF33FFC5F013A2E730E601B3139E
:10194300C5F0C3C0E0C0F07F00C39BFB605B94188D
:10195300600C401AD0E023F9D0E0F8021A368AF07E
:10196300E9486003D2F0E4AFF0FAF9F8803BEB30DA
:10197300E40D89F0EA6003D2F0E4AFF0F9CAF8EBC2
:1019830030E30D88F0EF6002D2F0AFF0E4CAC9F89B
:10199300EB54076014FBC3EA13FAE913F9E813F8ED
:1019A300EF135002D2E0FFDBEDD0E0C0E030E739C7
:1019B300C3E49FFFF5F0EC98FC42F0ED99FD42F093
:1019C300EE9AFE42F0D0E0F9D0E0F8E5F0607AE973
:1019D30023F9EE20E742D8028067C3EF33FFEC33ED
:1019E300FCED33FDEE33FE80EAEC28FCED39FDEE31
:1019F3003AFED0E023F9D0E0F84002801BC3EE1397
:101A0300FEED13FDEC13FCEF135002D2E0FF08B818
:101A130000067F7F74FF802EEF3350178CF020F089
:101A23000260100CBC000C0DBD00080EBE000408C3
:101A3300E860DFE933E813FFEE2313FE4F4D4C80DC
:101A430008E95480FFE4FEFDFCEE33EF33F4700449
:101A5300FCFD7E80D0E0FBD0E0FAD0E0F8D0E0CF10
:101A6300C618CEC618CDC618CCC6F9221215CE702C
:101A730004181818221215DD700D74FFF61819F6E4
:101A83001819F61819F622E7548066F612159070A5
:101A93000F12159A70F014F608F608F608F680D1BE
:101AA30012159A700CF608F608768008E6447F80D3
:101AB300EC1215BC700C1215A760BFE65480F6E457
:101AC30080BB1215A7700519191980A5E869700C58
:101AD300763F18768018F618F6E8F922E6CDC0E0CE
:101AE30018ECC0E0E633CD33CDD313F6E719FCE7AA
:101AF300191933CC33C3947F400ECD9D502408E68F
:101B03005480F6E418F6800FF4043D14501408E6EC
:101B1300447FF6187680E418F618F6D0E0FCD0E09F
:101B2300FD22CCD313CCFD18E4C6CBC0E018E4C629
:101B3300CAC0E00808ED08C633E613F618E433C656
:101B430075F003C3CA97CA09CB97CB199C40047D90
:101B530008802EBD0003021C1816B6FF05060608F2
:101B63001618C3CA33CACB33CB33CA27CA09CB37F8
:101B7300CB193CC37D08803E187D0820E75CC63343
:101B8300C6CA33CACB33CB33DDF1D5F0EB30E77BB9
:101B9300CA97CA09CB974ACB199C406F4B7025E66D
:101BA30020E0218066187D08C3CA97CA09CB97CB6A
:101BB300199CD3C633C6CA33CACB33CB3350C9DD22
:101BC300E7D5F0E1D3E4C636C608C636C608C6363E
:101BD300C608C636C61818188031C3CA97CA09CBB7
:101BE30097CB199CB34097C633C6CA33CACB33CB02
:101BF30033DD34D5F02EC6A2E0C640C8CA27CA09D1
:101C0300CB37194A70BECB3CB480B90808E6330819
:101C1300E633601F181818D0E0FAD0E0FBD0E0FCE0
:101C2300D0E0FD22187D08CA27CA09CB37CB193C5F
:101C3300D3808013F618E4B67F11F618B6FF0EF6BC
:101C430018C60470D20808768080CAF618F618F60B
:101C530080C5080808EAC0E0EBC0E086F0E7A4FA14
:101C6300180986F0E7A42AFA180986F0E7A42AFAE5
:101C7300180986F0E7A42AFA1986F0E7A4FBE5F031
:101C83002AFA190886F0E7A42BFBE5F03AFA1908BB
:101C930086F0E7A42BFBE5F03AFA18180986F0E77B
:101CA300A4C5F02BFBE43AFA1908E7C5F0C6A4264D
:101CB300F6E5F03BFBE43AFA1886F0E7A4F6E5F024
:101CC3000826F6E43B08F6E43A08F6D0E0FBD0E059
:101CD300FA22E4CFC0E0E4CEC0E0E4CDC0E0E4CC3F
:101CE300C0E075F020C3E633F608E633F608E633C2
:101CF300F608E633F6181818EC33FCED33FDEE3333
:101D0300FEEF33FFC3EC9709ED9709EE9709EF97C1
:101D1300191919400FFFEC97FC09ED97FD09EE9790
:101D2300FE191906D5F0BEECF709EDF709EEF70930
:101D3300EFF7191919D0E0FCD0E0FDD0E0FED0E0B8
:101D4300FF22181818E4C396F608E496F608E496FA
:101D5300F608E496F6226016080808C6C313C618E8
:101D6300C613C618C613C618C613C6D5E0EA227032
:101D730009080808226016181818C6C333C608C60F
:101D830033C608C633C608C633C6D5E0EA22E627FB
:101D9300F60809E637F60809E637F60809E637F6DE
:101DA30022E026F608A3E036F608A3E036F608A3F9
:101DB300E036F622E026F008A3E036F008A3E0368A
:101DC300F008A3E036F022C3E697F60809E697F693
:101DD3000809E697F60809E697F622C3E096F008A5
:101DE300A3E096F008A3E096F008A3E096F022E0C3
:101DF30056F608A3E056F608A3E056F608A3E05605
:101E0300F622E056F008A3E056F008A3E056F008E7
:101E1300A3E056F022E0F608A3E0F608A3E0F608F4
:101E2300A3E0F622E6F008A3E6F008A3E6F008A391
:101E3300E6F022E0FAA3E0FBA3E0FCA3E0FD22EA44
:101E4300F0A3EBF0A3ECF0A3EDF022CAC0E0E6F0C0
:101E5300A308DAFAD0E0FA22CAC0E0E0A3C582CC34
:101E6300C582C583CDC583F0A3C582CCC582C58396
:101E7300CDC583DAE6D0E0CA22C3E498F8E499F941
:101E8300121EBD8026C3E49AFAE49BFBE920E7E92E
:101E9300121EBDE498F8E499F922C3E498F8E49992
:101EA300F9121EBDE498F8E499F9C3E49AFAE49BA5
:101EB300FB22EB20E7CFE920E7E0B90010BB0008E5
:101EC300E88AF084F8AAF022E4FBC8FA22EB702235
:101ED3007B10C833C8C933C9335007C39AC3DBF275
:101EE30080069A50012ADBEAC833F4C8C933F4C91F
:101EF300FA2275F008E4C833C8C933C933C99AC98B
:101F03009B5004C92AC93BD5F0ECFBC833F4C8E4A1
:101F1300C9FA22600D08C6A2E713C618C613C6D5B0
:101F2300E0F322600C08C6C313C618C613C6D5E077
:101F3300F422700422600D18C6C333C608C633C624
:101F4300D5E0F41822251810AF08F518400215192A
:101F53008008F51840021519D2AF22C0D0251810F9
:101F6300AF08F518500205198008F5185002051935
:101F7300D2AFD0D0222518F58210AF08F518400251
:101F830015198008F51840021519D2AF8519832257
:101F93002518F582E43519F58322E4732518C582E3
:101FA300C0E0E51934FFC583C0E0E518C39582247A
:101FB300F810AF08858319858218800885831985F1
:101FC3008218D2AFCEF0A3E520F0A37808E608F09C
:101FD300A3DEFAEFF0A3E58124FAF8E608F0A3E61E
:101FE30008F0A3E608F0A30808E608F0A3E608F063
:101FF300A315811581D0E0FED0E0F8158115811578
:1020030081E8C0E0EEC0E0222518C582C0E0E519F2
:1020130034FFC583C0E0E518C3958224F910AF08E7
:102023008583198582188008858319858218D2AF24
:10203300CEF0A3E520F0A37808E608F0A3DEFAEFDC
:10204300F0A3E58124FBF8E608F0A3E608F0A30873
:1020530008E608F0A3E608F0A315811581D0E0FE99
:10206300D0E0F815811581E8C0E0EEC0E0228519C3
:1020730083851882E0A3FEE0A3F5207808E0A3F6A9
:1020830008DFFAE0A3FFE0A3C0E0E0A3C0E0E0A321
:10209300C0E0E0A3C0E0E0A3C0E010AF0885821871
:1020A3008583198008858218858319D2AFD083D0A0
:1020B30082020135851983851882E0A3FEE0A3F52A
:1020C300207808E0A3F608DFFAE0A3FFE0A3C0E06E
:1020D300E0A3C0E0E0A3C0E0E0A3C0E010AF088548
:1020E30082188583198008858218858319D2AFD019
:1020F30083D08222C0D02518C582C0E0E51934FF01
:10210300C583C0E0E518C3958224F310AF08858327
:10211300198582188008858319858218D2AFC8F083
:10212300A3E9F0A3EAF0A3EBF0A37908E709F0A38E
:10213300D8FAECF0A3EDF0A3EEF0A3EFF0A3D0E018
:10214300F0A3D0E0F0A3D0E0F0A3E520F0A3E5F006
:10215300F0A322851983851882E0C0E0A3E0F9A3E8
:10216300E0FAA3E0FBA37808E0F608A3DFFAE0FCBB
:10217300A3E0FDA3E0FEA3E0FFA3E0C0E0A3E0C073
:10218300E0A3E0F5D0A3E0F520A3E0A3F5F010AFC2
:10219300088583198582188008858319858218D25A
:1021A300AFD082D083D0E0F8D0E0327404800674DC
:1021B3000280027401C0E0F404121F78D0E0121E02
:1021C3004E227404800474028000CCC0E0EDC0E0B1
:1021D300E518C39CCCAD1950011D10AF068C188DAA
:1021E3001980068C188D19D2AF121E5BD0E0FDD07A
:1021F300E0FC22D083D082E9C0E0E493A3C386F05D
:10220300C5F095F0F908E493A386F0C5F095F07056
:102213000BE493A3C3994005E9048002A3E475F09A
:1022230002A42582F582E5F03583F583D0E0F9E455
:1022330093A3C0E0E493C0E022D083D082ECC0E05B
:10224300EDC0E0E493A3FCE493A3FDED4C600D1219
:102253002288EC24FFFCED34FFFD80EFE493A3FC24
:10226300E493A3FDED4C600D1222C7EC24FFFCEDBB
:1022730034FFFD80EFD0E0FDD0E0FCE493A3C0E0A9
:10228300E493C0E022C0E0C3E493960874019396FC
:1022930018400FE493667008087401936618700081
:1022A3007019A3A3C3E49396087401939618A3A388
:1022B300400DD0E0D0E0D0E0022278A3A3A3A3A3F3
:1022C300A3D0E022C0E0C0F088F0E4936670080871
:1022D30074019366187000A8F0A3A3700BD0F0D01C
:0F22E300E0D0E0D0E0022278A3A3D0F0D0E02238
:1022F40074F512200BEAFEEBFFEE2434F8EF340001
:10230400F988088909EE243512242CF8EE243712B2
:10231400242CF50AEC850AF0A4FCAAF0850AF0ED59
:10232400A42AFDE82CF8E43DF97A257B00121EBDB1
:10233400EA850882850983F05407F87401B800021D
:102344008004C333D8FCC0E0E0131313541FF8EE29
:1023540028F8EF3400F9E8245DF582E93400F583C8
:10236400D0E0F8E0586008850882850983801DEE76
:10237400243612242CF5F0EA84A8F0EE28F8EF3481
:1023840000F9E82438F582E93400F583E0F97F04A4
:102394000220B774F512200BEAFEEBFFEE24341290
:1023A400242CC0E0EE2435F582EF3400F583D0E030
:1023B400F08E828F83A3A3A3A3A3E0FAA3E0FB8EF2
:1023C400828F83A3A3A3A3A3A3A3E0FCA3E0FDECB8
:1023D400C39AF50AED9BF50BEE2480F508EF340063
:1023E400F509850882F583E06401702BEE2481F5FC
:1023F40082EF3400F5831221C91224357402121FAE
:102404005EE960137CFD7D04EEFAEFFB120BB585EB
:102414000882850983E4F0AC0AAD0BEEFAEFFB12F7
:1024240022F4122BEE022392F582EF3400F583E0BE
:1024340022C082C083851882851983E0F8A3E0F95D
:10244400C3EA9CEB9D5012C3EC98ED994019C3EA82
:1024540098EB99501279018010C3EA98EB9940F5F2
:10246400C3EC98ED9950EE7900D083D08222EAC370
:102474009CFAEB9DFB2200008521878522C622C0A1
:10248400E074EF1220F7759B00906182E0A2E640B1
:1024940003022544E591A2E640030225447591BF59
:1024A4009003C2E064057008120D53120D5F80039F
:1024B400120D59752100120DCBE99003C3F0790078
:1024C400120DBF120B1F7A017B009003C1E0F912B9
:1024D400108F907803E06442600302258D90055FBD
:1024E400E014F0600302258DC2AF1224F100782AB3
:1024F400D0E0F618D0E0F6E59F5407F97005909007
:102504001480039090107808121E18E9C4C0E07873
:1025140029E65508F50808E65509F509740B780805
:10252400121F26D0E02508F8906270E0A2E740F878
:10253400E8C333906272F0906270E0D2E0F08049B8
:10254400E0A2E55024E591A2E5501E7591DF9003C9
:10255400C2E0640D70139003E4E004F06428700298
:10256400E4F07A00E0F9120E3D906181E0A2E350BC
:1025740009E5E9A2E3500375E9F7A3E0A2E75009EE
:10258400E591A2E7500375917F7F04022156C0E0D4
:10259400C0D0C082C083906183E0A2E05009E5BF4F
:1025A400A2E0500375BFFEE0A2E15009E5BFA2E13D
:1025B400500375BFFDE0A2E25009E5BFA2E250035B
:1025C40075BFFBE0A2E35009E5BFA2E3500375BF6A
:1025D400F7E0A2E45009E5BFA2E4500375BFEFE0C1
:1025E400A2E55009E5BFA2E5500375BFDFE0A2E60E
:1025F4005009E5BFA2E6500375BFBFD083D082D097
:10260400D0D0E032C0E074F21220F7E5A7A2E45083
:102614000FE5A1A2E4500953A7EF75A1EF12265CC0
:10262400E5A7A2E5500CE5A1A2E5500653A7DF7586
:10263400A1DFE5A7A2E15009E5A1A2E1500375A13C
:10264400FDE5A7A2E2500CE5A1A2E2500653A7FBC8
:1026540075A1FB7F0102215674F812200B7521012C
:102664009003C2E0640670077A007B00120D3BA25F
:10267400AFE433FED2AF9003C8E0640170187A204F
:102684007B009003C1E0F91211197A207B009003BA
:10269400C1E0F9121095906182E0D2E6F090055EF7
:1026A400E0602185C62280169003C7E064017008AB
:1026B400E5C654F84405F5C653BEFC12247C7401E7
:1026C400652160E4EEA2E092AF7F010220B7000032
:1026D4008E238F24858228858327851882851983F4
:1026E400E0CEA3E0CF852882852783EBC9EAC8ED35
:1026F400CBECCA75F010C3E833C8E933C9EA33CA6E
:10270400EB33CBC3EA9EF526EB9FF525B35004AB20
:1027140025AA26EC33CCED33CDD5F0DAAE23AF24A5
:102724002274E912200B74FA121F48EAFEEBFF8CA4
:10273400088D099003C2E024F7C394055006908FD6
:10274400E802284C120CB78A0A8B0BEA450B70037B
:10275400022849120D718A0C8B0D120D71EA650C59
:102764007003EB650D60ECEEFCEFFD8518828519B6
:1027740083AA82AB83120D77850A82850B83A3A378
:10278400780C121E1890902C780C121DF285188269
:102794008519837814121E1890902C7814121DF247
:1027A400780C7914121440501F780C7914121DCA35
:1027B400908FB4780C1214604047850C10850D116D
:1027C400850E12850F138041851410851511851609
:1027D400128517137810790C121DCA908FB47810D3
:1027E400121460501C7510007511007512007513D9
:1027F4000178107914121DCA7810790C121D918079
:1028040008908FE87810121E1874097810121D723F
:10281400909050780C121E187810790C121CD590D8
:1028240003C2E06408600AE064066005E0640570C1
:102834001C908FF878101214605012908FB078109A
:10284400121DA48008908FD87810121E1885088253
:102854008509837810121E277406121F5E7F1002EA
:1028640020B774F712200B120D8990055CE0640107
:102874007010906245E4F0A3F053F4F343FE0C535C
:1028840090F3120D29E5C654804449F5C6E59E54DB
:102894007F644970F8906185740FF090055AE0F4F4
:1028A4007002A3E0602C75080175090090055AE0D8
:1028B4007808121F35E508F4FAA3E0600814600AEA
:1028C40014600C800DEA52808008EA52908003EA7A
:1028D40052A079007F020220B774F712200BE9FEA0
:1028E400EAFF74016E700C7A807B009003C1E0F9FA
:1028F40012108F902C94E493F46008E493F9120B73
:1029040001800953C680E59E547F70FA120D2F9002
:10291400055CE064017003120B3790055AE0F47013
:1029240002A3E0602A75080175090090055AE07851
:1029340008121F35AA08A3E0600814600A14600C8A
:10294400800DEA42808008EA42908003EA42A012A5
:102954000CB78A088B09A808A909E8496017E5E1BA
:1029640070FCE82414F582E93400F583E0F874FF80
:1029740068600288E174016F700A7A019003C1E013
:10298400F91210E30228D874F112200B8A088B097B
:102994008C0A8D0B740F121F93780C121E189090D2
:1029A4002C7808121DF290902C780C121DF27808E5
:1029B400790C12144050157808790C121DCA908FA6
:1029C400B47808121460401579018013780C7908E2
:1029D400121DCA908FB4780C12146040EB79007FFA
:1029E400080220B774ED12200B8A088B098C0A8D1B
:1029F4000B7413121F93780C121E1890902C7808E5
:102A0400121DF290902C780C121DF2780C79081299
:102A1400144040117808790C121DCAAA08AB09ACFD
:102A24000AAD0B8022751000751100751200751324
:102A3400017810790C121DCA78107908121D91AA18
:102A440010AB11AC12AD137F0C0220B790902C7810
:102A540008121E188A828B837808121E057F0402CE
:102A640020B774F512200B8C828D837808121E18FF
:102A74008A828B837808121DDE122ABAC3E098F08A
:102A8400A3E099122AAC401E9090347808121E18C4
:102A94008A828B837808121DB78E828F83E024206C
:102AA400F0A3E0344EF080A4F08E828F83C3E094D0
:102AB40020A3E0944E22EA2404F8EB3400F9E8FE63
:102AC400E9FF8C828D83A3A3A3A3E0F8A3E0F98E8E
:102AD400828F832274F512200BE9FE900514E0FA2C
:102AE400A3E0FBEEC333F8E433F974E728F582740A
:102AF4008E39F583E02AF508A3E03BF5097808123E
:102B040021B2909030121E361226D47402121F5E27
:102B14008A088B098C0A8D0B74107808121D59AA27
:102B240008AB097F040220B774F112200B8A0C8BC6
:102B34000D8C0E8D0F740F121F93E0FAA3E0FB743B
:102B440011121F93E0F508A3E0F5097413121F9303
:102B5400E0FEA3E0FF78081221B2EA2401F508EBB5
:102B64003400F509E4F50AF50B780C7908121C55C4
:102B7400908FBC7808121E18780C7908121C55AA7C
:102B84000CAB0DAC0EAD0F1226D47402121F5E8B6B
:102B940009EA450960047A0180027A00EC2AFCED16
:102BA4003400FDECF8EDF97A717B02121EBD880841
:102BB4008909E4F50AF50B8E828F837808121E27A3
:102BC400ECF8EDF97A717B02121EBD8A088B097448
:102BD400057808121F358E828F83A3A3A3A3E5086B
:102BE400F0A3E509F07F080220B7C082C083E99012
:102BF4006000F0D083D08222C0E074F21220F7A2E9
:102C0400AFE433FED2AFE589A2E54024E589A2E032
:102C1400401EE589A2E14018E589A2E24012E58957
:102C2400A2E3400CE589A2E44006E589A2E650034C
:102C34001212697589007589007589007589007596
:102C44008900758900758900C2C5751A00EEA2E075
:102C540092AF7F01022156C0E0C0D0E8C0E0E5A8F1
:102C6400D2AF751A00A2E792AFD0E0F8D0D0D0E08E
:102C740032C0E0C0D0E8C0E0E5A8D2AFC2C7751A40
:102C840000A2E792AFD0E0F8D0D0D0E03202013514
:102C9400FFFFFFFFFFFFFFFFC082C083E9900A220E
:102CA400F0022F2074F7121F9FE99002E0F07C18C5
:102CB4007D037AFF7BFF1208379002E174FFF0A3D3
:102CC400F0A3E4F0A3F079051207BF9002E0E0F965
:102CD4001206E77A557B08120A17023C2E74F41286
:102CE4001F9F8A088B09EB548060309002E0E0F962
:102CF4001210778A0A8B0BAE0AAF0BEE4F60138E5D
:102D0400828F83E064B070031207D7EEFAEFFB12F0
:102D14001065AA08E5096480FB80047A007B000240
:102D24002EEF74F2121F9F74FC121F48EAFEEBFF91
:102D34007412121F93124115EE4F7003022DC974C1
:102D440002121F93EEF0A3EF12312AECF0A3ED125E
:102D5400312AAA82AB831206E1E9F50A706AE50812
:102D6400450960648E828F831240FBEE4F60567A71
:102D7400067B001210CB8A0C8B0DA80CA90DE84918
:102D84007005750A13804188828983E4122DD6EE7A
:102D9400F0A3EF124126E508F0A3E509F09002E65E
:102DA400122E5D9002E67005123BD8801B123BC6C2
:102DB4008003EAFCEBFD8C828D83122E5D70F38C14
:102DC400828D8380E3750A02A90A7404121F5E02CD
:102DD4004315F0A31240CCA32274F2121F9F890A58
:102DE400E975F017A4FEAFF09002E5E4F09002E379
:102DF400122E5D600A1210D19002E3E4F0A3F0EE0B
:102E0400FAEFFB1210CB8A088B09EA4509602FEE12
:102E1400FCEFFD79001210539002E3E508F0A3E5FE
:102E240009F07B008008122E47E4F0A3F00BEBC3FB
:102E3400950A40F2E50A9002E5F0790080027913E0
:102E4400024315EB75F017A4F8A9F09002E3E0280B
:102E5400FAA3E0398A82F5832212386AEA4B227493
:102E6400F4121F9F740C121F931240F0FEE9FF75B9
:102E74000800750900800CE5082401F508E509340B
:102E840000F509C3E5089CE5099D503285080A85CB
:102E9400090B7403780A121F35EA250AF8EB350B7F
:102EA400F988828983A3A3A3A3A3A3123CADEE65EF
:102EB4000A7003EF650B70BFE8FAE9FB80047A003F
:102EC4007B00802774F4121F9F7900EAA2E0501B54
:102ED40075089875098F78081221B27C047D007AF0
:102EE400247B0A1207B97402121F5E7F0402207148
:102EF400C082C0839002E6122F27601C88828983D7
:102F0400A3A3E06A7003A3E06B8882898370E8A3BB
:102F1400A3A3A312386680047A007B00D083D082F6
:102F24000201351243FBE8492274EE121F9F74FC20
:102F3400121F48EAFEEBFF851882851983E4F0A38B
:102F4400F0EE2402123BB8EE24051240D3EE240422
:102F5400F50EEF1234DFE024FE603924FC604624D1
:102F6400FE605224FE605E24FE700302304024FEA4
:102F740070030230A424FE70030230B324FE7003F5
:102F84000230C224FC70030230D124FE70030230EC
:102F9400E002311D9002FF7417F0A3E412313212E3
:102FA400045F02311D851882851983AC82AD8312BA
:102FB40007DD0230ED851882851983AC82AD83125A
:102FC40007E30230ED850C08850D097402121F9386
:102FD400AC82AD83850882850983123866120705A1
:102FE4008A0C8B0DAC0CAD0DEC4D603BE4F50CF58F
:102FF4000D780C1221B2750CFF750D02780C12219C
:10300400B2750C00750D03780C1221B27408121FEE
:10301400931221C9124577121F5EE9F50C700B1249
:10302400385C120477800F750C018508828509834A
:10303400123120123BD8850C080230F07402121FA2
:1030440093AC82AD83850C82850D83123631603C4E
:10305400850C82850D83A3A31221C97510FF7511F8
:103064000278101221B27510007511037810122124
:10307400B27408121F931221C9124577121F5EE918
:10308400F509700B12385C12047D800F75090185F7
:103094000C82850D83123120123BD8850908804C9F
:1030A400851882851983AC82AD831207E9803A853D
:1030B4001882851983AC82AD831207EF802B8518A3
:1030C40082851983AC82AD831207F5801C85188232
:1030D400851983AC82AD831207FB800D8518828528
:1030E4001983AC82AD83120801E9F508E50860296B
:1030F4008E828F83A3E06414601F850E82850F8304
:10310400E09002FF12312A1243F7900300123BD8D9
:10311400E508A3123132120459023AC71243FB855F
:10312400188285198322F085188285198322F07C00
:10313400FF7D02850A82850B8312386A2274EE129F
:103144001F9F74FC121F488A0A8B0B8C0E8D0FEA8A
:103154002405F508EB3400F5097C157D0079007A27
:10316400FF7B02121053E5082402F50CE509124016
:10317400D68518828519838582108583117810126B
:1031840021B2850882850983A3A3A3A3123628123A
:1031940021B2E5082405F510E5093400F51178108D
:1031A4001221B2850C82850D8312397D1206FF74BB
:1031B40006121F5E8A108B11AE10AF11E50A2402AD
:1031C400F50AE50B123BBBEE4F70030232FF80178A
:1031D4007402121F9312386688828983EAF0A3EB83
:1031E400F09002FFE004F09002FFE0C39405400376
:1031F4000232FFE4F510F51178101221B27510E8CF
:1032040075110278101221B27510E9751102781047
:103214001221B27406121F931221C97910EEFCEF29
:10322400FD124579121F5EE9705E85088285098367
:10323400A3A3A3A3A3A3A3E0F89002E8E0687048C3
:103244001236281221B27CE97D02E5082408FAE549
:10325400093400FB12104D7402121F5EE960298EBE
:10326400828F83A3A3A3A31238669002FFE0F51014
:1032740074027810121F3574002510F5827403351A
:1032840011F583EAF0A3EBF07402121F9385821008
:1032940085831178101221B27402121F931221C96E
:1032A400850C82850D8312388C121F5E8A108B1157
:1032B400AE10AF119002FFE0F510751100740278A2
:1032C40010121F3574FF2510F874023511F9888225
:1032D4008983A3122E5D70030231CBE8240308080E
:1032E40008E93400F9EE4F60030231D488828983FF
:1032F40074FFF0A3F09002FFE004F09002FFE0609E
:103304000A12385C12046B7900800B8508828509E7
:1033140083123BCF790A023AC774EA121F9F74FEE4
:10332400121F488C128D13EA2405F50CEB1245612B
:103334001240FF750800750900EA2402F510EB3409
:1033440000F51185188285198385820A85830B7897
:103354000A1221B2850C82850D83A3A3A3A3123480
:10336400F51221B2E50C2405F50AE50D123BBB78F4
:103374000A1221B2850C82850D831234F91206FFDC
:103384007406121F5E8A0A8B0BEA450B7003023423
:103394009AEA2404F50EEB1234DF1240FF8A828B82
:1033A40083A3A3A3E0F9851082851183123870608A
:1033B4000302349AE4F514F51578141221B2751445
:1033C400E875150278141221B27514E9751502789E
:1033D400141221B27406121F931221C97913AC0A74
:1033E400AD0B85108285118312457F121F5EE9F5AE
:1033F40009600302349A9002E8E0F8E5087009E0F5
:103404002402900300F08014900300E0FCE82402FE
:10341400FAE43400FBEA6C7001EB707E850882AA42
:103424008212361F9414123617506B850E82850F44
:1034340083E0C0E074012A1234D6D0E0F005088598
:103444000E82850F83A3E0C0E085080A7401250A73
:103454001234D6D0E0F005089002E81234F51221B7
:10346400B27CE97D0285080A7401250A1234E91246
:103474001F5E9002E8E02508F50874FF6E7003747F
:10348400FF6F6012EE24010EEF3400FFE508C394D1
:10349400145003023347E508601312387A8510820A
:1034A40085118312386612047179008014E509705D
:1034B4000375090A851282851383EEF0A3EFF0A940
:1034C400097402121F5E7F0E02207185080C7401BC
:1034D400250CF58274033400F583223400F50F853E
:1034E4000E82F58322FA74033400FB12103B74023B
:1034F4002212413522A3A31234FF22123BC6FDEE51
:10350400FAEFFB2274EE121F9F74FE121F488C0EFA
:103514008D0FEA2405F50CEB1240D6750B009002D2
:10352400FFE4F0F50AEA2402F508EB3400F509801B
:10353400449002FFE0FA9002E8E0F812361F941774
:10354400123617400D9002FFE0F87416C3989002EB
:10355400E8F01236281221B27CE97D0274002AFABE
:1035640074031234EC121F5E9002E8E0F89002FF3C
:10357400E028F0050AE50C2416F582E50D1234DA8C
:10358400E0F8E50AC39850749002FFE0C394165023
:103594006BE50AC333F8E433F9E50C28FEE50D398D
:1035A400FF851882851983AC82AD838E828F831246
:1035B40036317008750B01123BCB8050E4F510F5E1
:1035C4001178101221B27510E875110278101221C9
:1035D400B27510E975110278101221B27406121F27
:1035E400931221C9791685088285098312457F12B1
:1035F4001F5EE9F50B700302353580BB7CFF7D024D
:10360400850882850983123866120483A90B740223
:10361400023AC9E99400C365D03322EA28F8E434B5
:1036240000F9E822E0F510751100781022123ABE74
:103634008A108B11AC10AD11EC4D2274EA121F9F4D
:1036440074FC121F488A0C8B0D8C128D13EA24050E
:10365400F50AEB123BBB750800750900E50A240264
:10366400F510E50B3400F5117402121F9385820ED8
:1036740085830F780E1221B2850A82850B83A3A35A
:10368400A3A31240DB1221B2E50A2405F50EE50BD3
:103694003400F50F780E1221B28510828511831241
:1036A4003BC11238601206FF7406121F5E8A0E8B2D
:1036B4000FAE0EAF0FE50C2402F50EE50D3400F548
:1036C4000F80388882898374FFF005081234CF7420
:1036D400FFF005089002E8E0F50C750D00780C1277
:1036E40021B27CE97D0285080C7401250C1234E9B1
:1036F400121F5E9002E8E02508F508EE4F60278E61
:10370400828F83A3A3A3E0F9850E82850F831238E9
:1037140070EE24041240D3E96027850C82850D8362
:10372400123852123BD8E508700302383812387A3E
:10373400850E82850F831238661204897900023857
:103744004DE4F514F51578141221B27514E87515C5
:103754000278141221B27514E97515027814122135
:10376400B27408121F931221C97911EEFCEFFD8582
:103774000E82850F8312457F121F5EE9F509709A48
:10378400850882AA82EA9002E87009E02404900382
:1037940000F08025E0F8900300E0F514E82404FC30
:1037A400E43400FDEC65147001ED708112361F9451
:1037B400121236174003023731850C82850D83E0DF
:1037C400C0E074012A1234D6D0E0F00508850C82DA
:1037D400850D83A3E0C0E01234CFD0E01238958584
:1037E400820C85830D780C1221B27404121F93127B
:1037F40021C985108285118312388C121F5E8A0CB0
:103804008B0DAE0CAF0D85080C7401250CF87403F8
:103814003400F9EE4F70030236C785188285198388
:10382400E088828983123895A3E0C0E01234CFD0B7
:10383400E00236D5E509700375090A850A82850B0D
:1038440083123852123BD8A90974040234C71243B4
:10385400FB851282851383227CFF7D02850A828583
:103864000B8312386A22E0FAA3E0FB2212386A12B0
:1038740006EDE9F50922900300E0F5F0E5088490EF
:1038840002FFF07CFF7D02221234FF12070B740446
:1038940022F005088518828519832274EC121F9F73
:1038A40074FE121F488A088B098C0E8D0FEA2405BA
:1038B400FEEB3400FF123AA8EE24181240D3EA4576
:1038C4000B700302394B123A9150291239708A1045
:1038D4008B11EA4511606B7912AC0AAD0B85088235
:1038E400850983123866851082851183121F9DE92C
:1038F400F50A7058E4F50AF50B780A1221B28E82A3
:103904008F83A3A3E0F50A780A1221B2EE240312EE
:103914003BB8780A1221B28E828F8312397D120845
:10392400257406121F5EE9F50A7021850C82850D47
:1039340083E0701F85088285098312386612048F1C
:103944008011750A0E8009750A018004E50A600376
:10395400123BCB850C82850D83E0600479008002E4
:10396400A90A7402121F5E7F0C02207185188285D9
:10397400198312386A12081322123BC6FD85088285
:1039840085098312386A2274EE121F9F74FE121F77
:10399400488A088B098C0C8D0DEA2405FEEB340053
:1039A400FF750E00123AA8EA450B7003023A6F1233
:1039B4003A91502C1239708A0E8B0FEA450F604AE7
:1039C4007912AC0AAD0B85088285098312386685A5
:1039D4000E82850F83121F9DE9F50E6003023A7271
:1039E400850882850983123CADAA0AFB123A8370CA
:1039F400147AFF7BFF123A83606C88828983E50A1C
:103A0400F0A3E50BF0750A008007750E0E805F05C4
:103A14000A9002E5E0FAE50AC39A504AE50A75F00D
:103A240017A4FAABF088828983A3A3E02AFAA3E05F
:103A34003BFB8A828B83123BC1EC4D70D2750A1713
:103A4400750B00780A1221B2EEFCEFFD12103B74E4
:103A540002121F5EEEFCEFFD850882850983123891
:103A6400661204958014750E098003750E011243C5
:103A7400F3850C82850D83123BD8A90E02361212EF
:103A840008078A108B11A810A911E84922E5082417
:103A940002F508E5093400F5098A828B83A3A3A300
:103AA400E0A2E522851882851983AC82AD838E82DB
:103AB4008F83123ABE8A0A8B0B22E0FAA3E0FB1230
:103AC4000705227404121F5E7F0A02207174EC122F
:103AD4001F9F8C108D11EA2405F50CEB1240D6754E
:103AE4000F00EA2402F50AEB123BBB850A82F58338
:103AF4001238661246057003023BAD750E008071E4
:103B0400850C82850D83E06401704F8E828F83A3C0
:103B1400A31221C98E828F83A3A3A3A3E0F51275F8
:103B2400130078121221B2EE2405F512EF3400F5D9
:103B34001378121221B21238601208257406121F6B
:103B44005EE9F50F6014850C82850D83E4F0124361
:103B5400F3851082851183123BD87C177D00790090
:103B6400EEFAEFFB1210538E828F83E4F0A3F0057C
:103B74000E9002E5E0F8E50EC398501EE50E75F0D0
:103B840017A4F8A9F0850882850983A3A312456BBD
:103B9400123BC1EC4D6003023B0485088285098316
:103BA40074FFF0A3F0E50F700612386012049BA9AD
:103BB4000F02396BF50AEF3400F50B22A3123BC652
:103BC400FD22E0FCA3E0228E828F831243FB850E4C
:103BD40082850F83E8F0A3E9F022C082C0839002BB
:103BE400E1E06A7003A3E06B70067AE17B02800473
:103BF4007A007B00022F2074F7121F9F7F00EF755D
:103C0400F003A4F8A9F0EC28F8ED39F98882898347
:103C1400E06A7003A3E06B7006E8FAE9FB800B0F1F
:103C2400EFC3940240D87A007B007F0102207174B4
:103C3400F6121F9F1241E470067A007B008007A3EE
:103C4400A3A3A31238660242A574F2121F9FE9FED1
:103C5400740E121F93123CAD7410121F931241156F
:103C64008C828D83E06402703BA31243F7888289BF
:103C740083E0F50CA3E0F9A80C74026870037429BE
:103C8400697021750C02750D00780C1221B2780848
:103C94001221B2780A1221B2EEF9120849740612FE
:103CA4001F5E80027901024315E0F50AA3E0F50BDB
:103CB4002274E8121F9F74FB121F48E9851882853D
:103CC4001983F08A168B178C0E8D0F741F121F9395
:103CD4001241157421121F93123CAD7423121F93C9
:103CE4001240FF7510008C828D83A3A3A3E0A2E48D
:103CF400502A741D121F931239768A828B83E582AF
:103D040045837003023DC1790AAC0EAD0FAA16AB10
:103D140017121F9DE9F5106003023DC4850E8285CC
:103D24000F83E06402600302407AA31243F785081C
:103D340082850983A3858212858313E50E2406F503
:103D44000CE50F1240D688828983E0FAA3E0F9EAF1
:103D54002400F514E439F515781412223C0100000E
:103D6400280128893D07000228603E0328D03D0031
:103D7400298A3F0129B23F0229593F03298A3F0476
:103D8400291B407A40EE4F703E850C82850D8312CC
:103D940040F0FAE9FB8A828B83E0850A82850B83F3
:103DA40012412C1221B28A828B83A3123BC6FDAA34
:103DB40008AB0912103B7402121F5E800375100ECB
:103DC400A910740502455975100B80F4EE4F70F775
:103DD400850A82850B837401F0124105850882856A
:103DE4000983F07C007D00850E82850F83A3A3A345
:103DF400A3E02401FAA3E03400FB120705EA4B60B8
:103E0400418A828B83E02402F8850A82850B83E051
:103E140028F0EA2404F8EB3400F988828983E085E9
:103E2400128285138312413E12412C1221B28A82DE
:103E34008B83123BC0E5082403FAE5093400FB0236
:103E44003DB7850A82850B83E02404F07C047D0061
:103E54007900AA12AB13121053023DC4EE4F600353
:103E6400023DCB124105FEA3E0FF850A82850B8348
:103E74007404F0EE850882850983F0EF851282854B
:103E84001383F07403121F93AC82AD83EEFAEFFB3D
:103E94001241D27003023F368A828B83A3A312405D
:103EA400FB7401121F9385820E85830F780E1221F5
:103EB400B27405121F931221C97CFF7DFF12070BF8
:103EC4007404121F5E8B0FEA450F7033850C8285D4
:103ED4000D831240DB1221B2850C82850D83A3125F
:103EE40021C97C027D007A6E7B901205377404121E
:103EF4001F5EE9700A7401121F9374FFF0A3F08E21
:103F0400828F83E064027034750C02750D00780CA6
:103F14001221B28E828F83123BC0E5082404FAE595
:103F2400091234EC121F5E850A82850B83E0240299
:103F340080097401121F93EEF0A3EFF07401121FB5
:103F4400931240ECF07401121F93A31240E4A3A354
:103F5400A3F0023DC4EE4F6003023DCB850C828585
:103F64000D83123BC1AA16AB1712083D850A828540
:103F74000B837402F0EA850882850983F085128236
:103F8400851383EB80CBEE4F6003023DCB124105DA
:103F9400F8A3E0F9850A82850B837402F0E88508AA
:103FA40082850983F0E985128285138380A3850CB9
:103FB40082850D83123866121035EAFC8C82A88241
:103FC400C39EE49F404BE86E7001EF70047C008058
:103FD4001F851882851983E0FAEE2AFAEF3400FB74
:103FE400C3EA98EB94005003E08004EECCC39CFC3D
:103FF400EC850A82850B83F08C0A750B00780A1213
:1040040021B2850C82850D83E02EFCA3E03F023DA6
:10401400B2751007023DC4EE4F6003023DCB850C20
:1040240082850D831243F7850A82850B837407F01A
:10403400888289831240E41240CCE0851282851381
:1040440083F0E82402FAE93400FB8A828B8312406D
:10405400E412411D1240ECA31241261240F5F0E88F
:104064002405F8E93400F9888289831240F5A31203
:10407400413EA3023F52741D121F931241DD70038F
:10408400023DC11243F7880C890DE8450D70030207
:104094003DC18E108F1178101221B2780A1221B20C
:1040A40078081221B27406121F93E0F9AC0EAD0F1A
:1040B400AA16AB17850C82850D83121F9D740612F8
:1040C4001F5EE9F510023DC4F088828983A322F5BE
:1040D4000CEF3400F50D22E0F50E750F00780E227A
:1040E400E085088285098322124145221243FBE8B8
:1040F40022124145A3A322A3A3A3A3E0FEA3E0FFAE
:1041040022850C82850D83E0F8A3E0F5838882E0A4
:1041140022E0F508A3E0F50922A3A3F08A828B83A9
:10412400A322122DD8A3A322F08A828B83124135B5
:1041340022E0F50A750B00780A221240CC124145A0
:1041440022E0850882850983A3A32274EE121F9FAF
:1041540074FE121F488A0A8B0BECFAEDFB741412DE
:104164001F93E0F510A3E0F5117416121F93E0FEFF
:104174007418121F93E0F50EA3E0F50F85188285DD
:104184001983AC82AD831241D2603E8518828519B1
:10419400831241DD602FA3A3124115E50845096090
:1041A40024780E1221B278101221B2EEF9AC0CADC3
:1041B4000DAA0AAB0B850882850983121F9D74041E
:1041C400121F5E8006790E800279010236121207F0
:1041D400058A0C8B0DEA450D2212386A1241E4223D
:1041E4001207D18A828B83E58245832274F6121FDB
:1041F4009F74FE121F48740C121F931240F085180E
:1042040082851983F07401121F93E9F0E4F508F52F
:104214000978081221B275080278081221B27404D0
:10422400121F9385820885830978081221B2120827
:10423400257406121F5E7402121F5E806474F712E6
:104244001F9FEAFEEBFF89087C187D0312083DEAF4
:104254005402600BA908EEFAEFFB1206F98002790A
:1042640001023C2E74F6121F9F74FF6A700374FFE0
:104274006B701C7B00EB75F003A4F8A9F0EC28F834
:10428400ED39F91242AA0BEBC39402501480E612E2
:10429400080D8A088B09A808A909E8496003124295
:1042A400AA7F020220718882898374FF122DD6E4CA
:1042B400F02274F6121F9F12080D8A828B83E58206
:1042C40045836006A3A3E0FA80027A007B0080D1D4
:1042D40074F2121F9F8A088B09ECFEEDFF740E1214
:1042E4001F93E0F50A12431A701CEEFCEFFD7AFFEF
:1042F4007BFF12431A70047911801688828983E542
:1043040008F0A3E509F088828983A3A3E50AF0797C
:10431400007F0602207112080D8A0C8B0DA80CA9CF
:104324000DE8492274EE121F9FEAFEEBFF8C088D04
:1043340009890C7412121F931243F77414121F93F9
:10434400123BC17416121F93123866750D00EC4DA2
:1043540060030243EB7402650C60030243E6888247
:104364008983123BC6F9EC2400F50EE439F50FEA13
:10437400F4F8EBF4F9EC58F8E50F59F9E849705DF5
:10438400E5082406F8E5093400F9880A890B8882CF
:10439400F5831234FB12083D8A108B11E50E65106B
:1043A4007004E50F65116042780E1221B2850A820D
:1043B400850B831234FB1208437402121F5EE9F565
:1043C4000D7027780E1221B2850882850983A3A374
:1043D4001234F912085B7402121F5E800D750D8091
:1043E4008008750D0D8003750D0BA90D023ACC8E56
:1043F400828F831243FB22E0F8A3E0F92274E812CF
:104404001F9F74E7121F48851882851983EAF0A359
:10441400EBF08C168D17890E7431121F93E0F51290
:10442400A3E0F5137433121F93E0F514A3E0F5151C
:104434007435121F93E0F50F750800750900E5093E
:1044440075F003A4F8A9F085188285198312456BC9
:10445400E0F47003A3E0F47003024549EE2402F58E
:104464000CEF124561E0700302454985160A851771
:104474000B780A1221B2AC14AD15AA12AB131207B1
:10448400C57402121F5E8A0A8B0BEA450B70030285
:104494004549E4F510F51178101221B27406121F83
:1044A4009385821085831178101221B27409121F2A
:1044B4009385821085831178101221B2851282852A
:1044C4001383A3A3A3A31221C97914AC0AAD0B8E41
:1044D400828F8312457F121F5EE97069850A828587
:1044E4000B83A3A3A3A31243F77402121F93123BDB
:1044F400D8850C82850D83E0A2E05018A90E7402C1
:10450400121F93AC82AD838E828F8312386612079A
:104514001DE94208850C82850D83E0A2E15026E561
:104524000FF50A780A1221B6A90E7403121F93AC70
:1045340082AD838E828F831238661207177401123C
:104544001F5EE942080509E509C3940250030244C9
:1045540042A9087419121F5E7F100220713400F5FD
:104564000D850C82F58322E028FEA3E039FF8E82BC
:104574008F83227916850A82850B8312386A120882
:104584001F74082274F2121F9FEAFEEBFF890B745A
:1045940001650B600E7402650B70637901120A35B4
:1045A400E9705BEEFAEFFB1246056047750A00807E
:1045B4000B7C177D007900121053050A9002E5E088
:1045C400F8E50AC3985021E50A75F017A4F8A9F094
:1045D400850882850983A3A3E028FAA3E039FB8A2E
:1045E400828B83122F2770C985088285098374FF03
:1045F400F0A3F07C187D03EEFAEFFB1208370243B8
:10460400151208078A088B09EA45092274F2121F59
:104614009F8A088B09ECFEEDFF740E121F93123C67
:10462400AD900A22E0F4603D7A097B0012105FEA43
:104634004B60328A828B8374B1F0A3E412411FA3CE
:1046440012411DA3E508F0A3E50912466CEEF0A3A0
:10465400EF12466CA3A3E50AF0A3E50BF0900A223F
:10466400E0F912106B024315F08A828B83A3A3A393
:10467400A3A322C082C0839061907404F0A3744801
:10468400F0A3E4F09061807440F09061BC7407F092
:104694009061877469F09061B67416F07900120B1A
:1046A400257902120B2B902C94E493F46006E49386
:1046B400F9120B017905120E1F024AB9C082C08398
:1046C400E9540FF9906185E0696012E5C6548044AD
:1046D40049F5C6E59E547F644970F8E9F053C680F5
:1046E400E59E547F70FA024AB974F7121F9FE5A839
:1046F400FE53A87E120B0DC2BA539AFEC289759B53
:1047040000C2C2120B1375A91175B905120B19D287
:10471400BA439A0174805E42A8025046C082C083A4
:10472400906181E4F0A3024AB675E90075910075C1
:10473400BF00020135C082C083906181E4F0A3749C
:10474400C0F0A3E4024AB8C082C08374F8121F48C0
:104754009003C4124F28E84970030248029003C42E
:10476400E0544060237908851882851983AA82ABB6
:1047740083120C1B851882851983AA82AB831208C5
:10478400C79003C4E054BFF0E054806010790C7A01
:10479400807B05120C1B9003C4E0547FF0E0A2E080
:1047A4005008790012480A54FEF0E0540260087977
:1047B4000112480A54FDF0E05404600879001248DC
:1047C4001554FBF0E054086008790112481554F7B9
:1047D400F0E054106008790212481554EFF0E054E8
:1047E400206008790312481554DFF0A3E0540160F7
:1047F4000D120B371208D99003C5E054FEF074086B
:10480400121F5E024AB9120B251208CD9003C4E0B0
:1048140022120B2B1208D39003C4E022C082C0835F
:10482400E9600514602A804F90619A7433F0A37490
:1048340055F09061A0743AF090055CE06401700951
:10484400C2919003C67467802D9003C6746180265C
:1048540090619A743FF0A3745AF09061A0747FF051
:1048640090055CE064017009D2919003C674718074
:10487400059003C6746AF0024AB9C082C083E96035
:104884000B14600D14600F1460118020902C98801C
:1048940015902C998010902C9A800B90055CE06404
:1048A4000160F3902C9BE493906186F0024AB97402
:1048B400EE121F9F74F4121F48851882851983AC69
:1048C40082AD837583907582247404121E5B902CD0
:1048D4009893F46003024A45907808E0C394025028
:1048E40003024A257404121F93AC82AD8375838F2F
:1048F40075828A7408121E5BF97AFF7BFF7FFF7E44
:10490400008982858210801874086E70030249DA67
:1049140074096E70030249DA740A6E70030249DA8C
:10492400E510C333FCE433FD7404121F93E5822CB9
:10493400F582E5833DF583E0F50EA3E0F50F8E08DF
:1049440075090074027808121F3574482508FC7430
:10495400783509FD8C828D837808121E18740878C6
:1049640008121D5985080C85090D8C828D837808E1
:10497400121E1874187808121D59E50C4508F5081C
:10498400E50DF509C3E50E9508E50F95098C828DB3
:10499400837808121E188C828D837808121E18746E
:1049A4001878084014121D59E50C4508FCAD0DE5B6
:1049B4000EC39CFCE50F9D800F121D59E50C4508A4
:1049C400C3950EFCE50D950FFDC3EC9AED9B5006C7
:1049D400ECFAEDFBEEFF0EEEC39413500302490C08
:1049E40074FF6A700374FF6B602D8F08740278087B
:1049F400121F3574481256D474783509F583780833
:104A0400121E18851882851983E5822510F582E522
:104A140083125461E508F009E9C394045003024881
:104A2400FD75080175090078081221B27402121F7D
:104A340093AC82AD837A267B0B1212457402121F4B
:104A44005E740C121F5E7F0A022071C082C08390C4
:104A54006186E0F8902C9BE493687009902C9AE4AA
:104A640093906186F09061AE7468F0A3746AF090DC
:104A7400624574FBF0A304F053F4FD43FE02900579
:104A84005C7401F09061A0E0643A700479008002E3
:104A94007901120B25024AB9C082C08390050EE049
:104AA4006401700A900513E06004790C80027900B7
:104AB4008003F0A3F0D083D082020135C082C0838A
:104AC40075E1F1900511E0604D1460081460511413
:104AD40060498051120B49900507E0F97A087B057B
:104AE400120DA1909020121E36120DD7908FF41241
:104AF4001E36120DAD900512E0F9120DB9790112AE
:104B04000E13900505E02416124C4E7461F0A37444
:104B14000BF07900809F120B4F80BC120B5580B7AD
:104B2400120B5B80B2791280EB74F4121F9F75D95B
:104B34000D9004F6E0A2E0E4331313F8124BBA48E4
:104B44004401F5D97800124C3840FB780088087489
:104B5400F71256D47404124C4240F275E195900455
:104B6400F6E0F97AF77B04120DA7900A4474D7F0A3
:104B7400A3740A124C5D124C7D124C74124DB51282
:104B84004BC47808121E1890901C7808121DA4902B
:104B9400902C7808121DF2124C487808121E2790A7
:104BA4000505E02414124C4E7413F09003C27402F1
:104BB400F07F04022071900507E0C4333354C0220F
:104BC400900505E0F8A3E0F5838882A3A32274F698
:104BD400121F9F124D868AD97800124C3840FB78F8
:104BE400008006124CEC124E38E8C39940F5124D81
:104BF40078124C3840FB780080081256D0740512A5
:104C04004E38E8C39940F375E195900A4474E3F093
:104C1400A3740A124C5D124C67121E36124C4812D1
:104C24001E42900505E02414124C4E7412F09003B9
:104C3400C2025023880874082508F5827405124FAF
:104C440094940622900505E0240EF8A3E0124C5536
:104C5400223400F98882898322124D9E74DDF0A3E8
:104C6400740A22124C7D124C74124DB99090342265
:104C7400F0A374F5F0A3740A22124C8122124C851D
:104C840022F0A37487F0A3740C2274F6121F9F12EF
:104C94004CE1124BBA4402F5D97800124C3840FB6F
:104CA40078008006124CEC124E38E8C39940F57532
:104CB400E195900A44124CF7F0A3124CF7124C6A97
:104CC400121E36124C48121E42900505E02414129E
:104CD4004C4E7414F09003C27404025025900517CE
:104CE400E0F9740729F5D922880874182508F58293
:104CF40074052274EF124D04124D04F0A3740A22B9
:104D0400F0A3740AF0A374EF2274F6121F9F124DDD
:104D14008674064AF5D97800124C3840FB78008036
:104D240006124CEC124E38E8C39940F5124D781235
:104D34004C3840FB780080081256D07405124E3867
:104D4400E8C39940F375E195900A4474E9F0A374BB
:104D54000A124D94124C67121E36124C48121E420F
:104D6400900505E02414124C4E7415F09003C2749F
:104D740003025025900537124CE474044AF5D9789F
:104D84000022124CE1900507E0C4333354C0FA22E8
:104D9400124D9E7487F0A3740C22124DA222124D60
:104DA400AF7487F0A3740C124DAF22124C85F0A39C
:104DB40022124DB922F0900A527487F0A3740C1297
:104DC4004DA27487F0A3740C124C81F022C082C0EF
:104DD40083124BC4A3A3A3A3E4024AB674F7121F1D
:104DE4009F125916F8740339F9E82405FAE93400D6
:104DF400FB8A828B8312568588828983A3A3A3A30B
:104E0400A3A3A3A3A3ECF0A3EDF088828983A3A3B7
:104E1400A3A3A3A3A3E024FFF8A3E034FFF98A82A9
:104E24008B83E8F0A3E9F0025046880874602508F3
:104E3400F58274051255ACF5D90822EAFEEBFF9011
:104E440061D0E0F87480C398FAEE248322124E579E
:104E540094042212546FE0F5D90AEAC32274F612BC
:104E64001F9FEAFEEBFF9061D0E0707575D90E7557
:104E7400D90375D9047A008A08EE25081259E42466
:104E84008C124EFA40F17A008A08EE25081259E491
:104E94002484124E5140F175E1957908EE248C1268
:104EA4004EF32484124EEA7C008C82AA82C3E49AD4
:104EB400F895E0F9EE28F8EF39F9E8248BF582E962
:104EC4001255A8C0E0EE2A1259E424ABF582E91287
:104ED4005461D0E0F00CECC3940840CD124FB08084
:104EE400027900025026FAEF3400FB120C0F221252
:104EF4004EEA7904EE22124E57940822C082C083EF
:104F040075D90275D90375D90575E195EA2470F54B
:104F140082EB124F25EA2472F582EB124FC2024A49
:104F2400B9125472124F2C22E0F8A3E0F92274F65D
:104F3400121F9FEAFEEBFF9005607406124F9E124B
:104F440021B27C0179031252CA121F5E75D906750B
:104F5400D9037800124F8440FB75E1959003C2E0B9
:104F640064087017EE2470F582EF124F25EE247258
:104F7400F582EF125461E8F0A3E9F07901025026BA
:104F8400880874602508F5827405124F94940522EC
:104F9400125472E0F5D908E8C322F0750860750967
:104FA4000578082275E1957904120DDDEE2470F57B
:104FB40082EF125472124F2CEE2472F582EF1254C7
:104FC40072E8F0A3E9F079012274F6121F9FEAFE59
:104FD400EBFF9061D0E070437901900560740BF0B1
:104FE4009003C2E0640770177508607509057808B6
:104FF4001221B27C0109091252CA121F5E7905748A
:105004000129F5D975D90378008003124E2EE8C31F
:105014009940F875E195124FB080027900800374CD
:1050240001F07F0202207174F7121F9FEAFEEBFF6A
:1050340075D90375D90375D90DEE24DE12504B12C0
:105044004FA87F01022071F582EF1255ACF5D922E9
:105054007F030220717401250AF5D975D9037800FC
:105064002274F5121F9F1250DA60047804800278CB
:1050740000E8240BF8EAC3984041750A09900560DA
:105084007409F079081250C3601475086075090535
:1050940078081221B21252C2121F5E750A0D125004
:1050A400598003124E2EE8C3950A40F775E19579AD
:1050B40004120DDD12523F7901800279008091EED5
:1050C40024E3FCEF3400FD7A617B05120C098508AA
:1050D40082850983E022124E3FF8EF125679F58358
:1050E400E02274F3121F9F8A088B091252D5FAE545
:1050F400082483F50AEB1251A46004780480027832
:1051040000E82408F8EAC398500302519D750C0680
:10511400900560740CF09003DFE0900561F0740278
:10512400C0E0F97CE07D037A627B05120C09D0E0D3
:10513400F97CE27D03120C09850A82850B83E06009
:105144001C750A60750B05780A1221B27C06790376
:10515400AA08AB091252CA121F5E750C0A74012503
:105164000CF5D975D90378008009880A7460250A7A
:10517400124E34E8C3950C40F175E1957904120D93
:10518400DDE5082470F582E509124F25E50824724F
:10519400F582E509124FC2800279007F0502207171
:1051A4003400F50B850A82F583E02274F6121F9F02
:1051B400EAFEEBFF1252D5FCEE2483F8EF1252D034
:1051C40060047A0480027A00EA2404FAECC39A4068
:1051D4005E7A02900560EAF0EE24F5F582EF125251
:1051E4004B601975086075090578081221B27C02B4
:1051F4007903EEFA1252CA121F5E7A0674012AF576
:10520400D975D90378008003124E2EE8C39A40F86A
:1052140075E195EE2474125238EE2480125238123D
:10522400523F7904120DDDEE240D124FB380027942
:1052340000025026F582EF1253BB22EE241DF582A4
:10524400EF1253BBA3F0221255AC900561F0888293
:105254008983E02274F6121F9F1252D5FEEA24833A
:10526400F8EB1252D060047C0480027C00EC24042D
:10527400FCEEC39C40437C029005607407F0EA2472
:10528400F6F582EB12524B601575086075090578C6
:10529400081221B279031252CA121F5E7C067401ED
:1052A4002CF5D975D90378008003124E2EE8C39CDF
:1052B40040F875E1957901800279000250267C0955
:1052C4007903EEFAEFFB120C7B740222124C55E0C8
:1052D400229061D0E0F87480C3982274F5121F9F65
:1052E400E9FEA2AFE433F50AC2AF7F00EA246FF807
:1052F400EB3400F980010F88828983E0FCEFC39CC2
:1053040050188F08EA2508FCEB3400FDEC246BF5FB
:1053140082ED1255A86E70DE8010EA2CFAEB340090
:10532400FB12545BEE12525104F0E50AA2E092AF74
:1053340002505474F6121F9FA2AFE433FFC2AFEAC7
:10534400246FF8EB1259E6FCE9FD8C828D83E0149E
:10535400F07E0080218E08EA2508F8EB1259E62435
:105364006CF582E91255A8C0E0E8246BF582E912D5
:105374005461D0E0F00E8C828D83E0F8EEC3984047
:10538400D4EA246E12545E74FF1253B0EFA2E0927A
:10539400AF025026C082C083E5A8F8C2AF12545BA6
:1053A400E91253B0E8A2E792AF024AB9F0EA246ADC
:1053B400F582EB1253BB22125472E4F02274F212FF
:1053C4001F9F8C828D83A3A3A3A3E0541FF0EA2420
:1053D4003612571D8E828F83E4F0F50C850C82857E
:1053E400820AEC250AF8ED125675F583E0C0E0EA6E
:1053F400250AF8EB125465D0E0F0750D008508829B
:10540400850983E0F50A750B00E50D780A121F166D
:10541400E50AA2E0502AE50C33333354F8250DC0D5
:10542400E08E828F83E0F8EA28F8EB1259E62438FC
:10543400F582E9125461D0E0F08E828F83E004F0AB
:10544400050DE50DC3940840B4050CE50CC39405A3
:10545400408A7F06022071EA246BF582EB125472B3
:10546400223400F9E8245D12546F22F582E93400F5
:10547400F5832274F6121F9F9003EEE06401700717
:105484007A007B000255A27E009003F4E070F17470
:1054940001F0A3E4F0A3F090045404F0900457E462
:1054A400F0A3F090045A04F09003F7E41255B99075
:1054B400040104F0900427E4F0908FD8121E369073
:1054C400040A121E4290040EE4F0A3F0A3F0900428
:1054D40072F0900466F090045B7480F0A3E4F090A2
:1054E4000461F0900459F09004DD1255B19004E683
:1054F400F0900475F09004C5F0A3F0908FD8121EBC
:10550400369004C7121E42908FD8121E369004CBD8
:10551400121E429004D1E4F09004D3F09004CFF032
:105524009004E91255B18E08745D1256D4740412B5
:10553400546174FFF00EEEC3940440EA7E008E8240
:10554400A88274FD28F58274041255A8C0E0744F33
:1055540028F5827404125461D0E0F00EEEC3940571
:1055640040DC7E008E82A88274D628F582740312F1
:1055740055A8C0E074D528F5827404125461D0E0B3
:10558400F00EEEC3940840DC9003EEE004F06401F6
:1055940070089003F6E09003F0F07AF27B03025077
:1055A40026F582EF1255AC22125472E0221255B93C
:1055B400A31255B922F0A3F0A3F0A3F022C082C035
:1055C40083EA2403F582EB1255A86008E4F0900303
:1055D400EFE014F09003EEE014F070069003F07422
:1055E400FFF08A828B83A3A3E4F0900502E0700DA0
:1055F4009003EFE0640170057900120DBF024AB90F
:10560400C082C0839003F5E4F09003F4F09003EEBD
:10561400F0A3F0A374FFF075E1F1024AB9C082C0AF
:1056240083780079009003F5E0600478F2790388C8
:10563400828983A3A3A3A3E0F9024AB974F6121FD3
:105644009FEAFEEBFF120BC1EE2465F8EF125675CC
:10565400125683EC4D60109003F012590E850882A7
:10566400850983E4F0A3F0EEFAEFFB120CB10250CB
:1056740026125679223400F988088909888222F58D
:1056840083E0FCA3E0FD2274F7121F9FEAFEEBFF08
:105694008E828F83A3A3A3A3E0FA7B0012093FEEBB
:1056A400FAEFFB120BD3120C9302504674F6121F3E
:1056B4009F7800880874D61256D4740312523B089B
:1056C400E8C3940840ED9003D60250238808743848
:1056D4002508F5822274F6121F9FEA240D12571D25
:1056E400EC2403F8ED3400F988088909EC2407F860
:1056F400ED1259E6FCE9FD125727121EBD8E828F6A
:1057040083E8F0A3E9F0125727121EBD8B09EA457E
:1057140009600312573A025026F8EB3400F9E8FE08
:10572400E9FF228C828D83124F2C850882850983A0
:10573400E0FAA3E0FB228E828F83E02401F0A3E051
:105744003400F02274F6121F9FEA242EF582EB3403
:1057540000125683EA247012571D780079FAECFA85
:10576400EDFB121EBD8E828F83E8F0A3E9F0780072
:1057740079FAECFAEDFB121EBD8B09EA45096003C8
:1057840012573A02502674F0121F9FEAFEEBFF7480
:1057940010121F937808121E18120D6B8A0C8B0DB1
:1057A4008C0E8D0F909018780C121DA490902C786C
:1057B4000C121DF2780C1221AE8E828F83124BC70D
:1057C400121E3612298B7404121F5EE960030258FC
:1057D400728E828F83E02402F8A3E01259E6FAE97C
:1057E400FB8A828B837808121DB790902C7808125C
:1057F4001E188A828B837808121E05EE240BF5820C
:10580400EF125461C082C0838E828F83A3A3A3A3AB
:10581400A3E02401F8A3E03400F9D083D082E06847
:105824007003A3E069700479018045EE2407F8EF62
:10583400124C5512573EEE24741259EB7014EE2498
:10584400751258797003A3E06D70078A828B8312F6
:10585400573EEE24801259EB7014EE2481125879CD
:105864007003A3E06D70078A828B8312573E790020
:105874007F08022071FAEF3400FB8A828B83E0FCFC
:10588400A3E0FD88828983E06C2274F3121F9F12C7
:105894005916FE740339FFEE2404F50AEF3400F5BB
:1058A4000BEE2465F508EF3400F5098010125685D7
:1058B400850882850983E4F0A3F0125908850882DB
:1058C400850983125685EC4D6030EE24641255A58B
:1058D400F50C780C1221B6EE24631255A5F9EEFAF4
:1058E400EFFB120BFD7401121F5EE9850882850926
:1058F4008360BA124F28E84970077C007D00125972
:105904000802519F850A82850B83E0FA7B00120806
:10591400FD229003F0E0F875F004A4C8AAF02AF977
:1059240074F2282274F2121F9FEAFEEBFF890A74B4
:105934000E121F93E0FAEE24621259EB600302592F
:10594400DF1252D5F50CEE24831255A5FB600478C2
:1059540004800278008908E928F8E41259E6240250
:105964000808E93400F9E50C98E499A2D265D0332B
:105974004065EA7005750B028003750B01EB60331B
:1059840075090078081221B27A607B05120C4574FF
:1059940002121F5E75086075090578081221B2AC01
:1059A4000AA90B1252C6121F5E7404250AF50A7C5A
:1059B400607D057401250AF5D9850BD97800800A24
:1059C4008808EC1256D4ED124E38E8C3950A40F01C
:1059D40075E195790080067907800279FF025456B3
:1059E400F8EF3400F9E822F582EF1255AC64012295
:1059F400C082C0838003125A22E9F874FF28190474
:105A040070F4ECFAEDFB024AB9C082C08380031241
:105A14005A22E9F874FF28190470F4024AB98C82F6
:105A24008D83E08A828B83F08C828D83A3AC82ADDC
:105A3400838A828B83A3AA82AB832274E8121F9F7A
:105A4400907803E06442705E90055FE014F0705655
:105A5400C2AF125A5900782AD0E0F618D0E0F6E521
:105A64009F5407F970059090148003909010780863
:105A7400121E18E9C4C0E07829E65508F50808E6BE
:105A84005509F509740B7808121F26D0E02508F88B
:105A9400906270E0A2E740F8E8C333906272F0903D
:105AA4006270E0D2E0F09003F0E0F874FF687003F5
:105AB400025D71E81267CA2402F8EF3401F98882A2
:105AC4008983126844EA4B600FEE2401F582EF34B7
:105AD40001F583E0F912108FEE2405F514EF34007C
:105AE400F5158E828F83A3A3A3A3A3A3A312625647
:105AF4001267E0906054E09003C9F0906055E09024
:105B040003CAF0906056E09003CBF0906057E090A9
:105B140003CCF0906058E09003CDF0906059E09091
:105B240003CEF090605AE09003CFF090605BE09079
:105B340003D0F090605CE0FC9003D1F090605DE0F5
