:020000040000FA
:0600000002011D0225B6FD
:03002B00022CC4E0
:03003300022C9408
:0300530002262C56
:03006B00022C2044
:03007B00022C64F0
:100083000224A7E5C754F84401F5C779012200000B
:100093000080FB120086B90003020107E47921788E
:1000A30008B800028004F709D8FCE479297802B87B
:1000B30000028004F709D8FCE490028178E679070E
:1000C3008002F0A3D8FCD9FA781A90014D7A01BACC
:1000D30000028007E493A3F608DAF9900966AA827E
:1000E300AB8390014E781E79048015E493A3AC8210
:1000F300AD838A828B83F0A3AA82AB838C828D83A8
:10010300D8E9D9E77582827583AB740312012F7521
:100113008291758300740012012F75D00075813FA1
:10012300751881751902759F00020096C09FF59F8F
:10013300E473D09F22D083D082C09FE493C0E07445
:100143000193C0E0740293F59F2202FF0000B40004
:100153000028002800283075A000A000A000A000FF
:1001630000080008E001F00010001000100010006B
:100173001000100050005000500010001000D00775
:100183000000000000000F000100050030750700AB
:100193001000010081FF0000FF690687066F06FF5C
:1001A30002020208025000A0000000E80302769059
:1001B3000100005890027490010000BB09026E9088
:1001C300010000B202027490010000BC09026C90AD
:1001D300010000C802027490010000BD09026A9088
:1001E300010000CA02027490010000BE0902689077
:1001F300080000CB02027490010000BF0902669060
:10020300010000C009FF0100FF20027690010000F9
:100213005E90027490010000240A026490000000C2
:1002230000000270900300001803990C990C990CBC
:10023300990C990C990C990C990C990C990C990C93
:10024300990C990C6F0F870F690FFFFF02020202CF
:100253000202020202010D00000010010276900169
:1002630000006190027490010000670A028C900103
:1002730000007807027490010000680A028A900166
:100283000000208F027490010000690A0288900127
:100293000000058F0274900100006A0A0286900133
:1002A3000000A38E0274900100006B0A0284900187
:1002B3000000B58E0274900100006C0A0282900166
:1002C3000000918E0274900100006D0A028090017B
:1002D30000007F8E0274900100006E0A027E90017E
:1002E3000000F78E0274900100006F0A027C9001F7
:1002F3000000700A01053F10FF0001307503020181
:1003030006000000000000000000000000000000E4
:1003130000000000000000000000000000FFFF06D6
:1003230000800CE803010101010101010109094CED
:100333004F53542D424C45051228009001020A00E8
:100343000201060302F0FF09FF4C4F53542D424CA8
:10035300454C4F53542D424C450000000000000013
:10036300000000000000BF13E913C51308436861D0
:100373007261637465726973746963203100104339
:1003830068617261637465726973746963203200B2
:100393000276900100005B90027490010000870BCD
:1003A3000292900300005709027290010000880B2B
:1003B300027490010000990B0294900000005D0903
:1003C3000270900300005E090272900100009A0B14
:1003D300000000000000000000000000000000001A
:1003E300000000000000000000000000000000000A
:1003F30000000000000000000000000000000000FA
:1004030000000000000000000000000000000000E9
:1004130000000000000000000100B0423BAAB83F0A
:100423000000003F8C906339AA0CA33A00941E3C51
:100433008042633DCFFE753E1572313FF304353F75
:100443008096184B000080BF2292D43EDD9B2A3F4A
:1004530004000040FFFF7F7FFFFF7FFF0100803428
:100463001872313F0000803F12013800A2031201CD
:100473003817A20312013846A2031201387FA203E0
:10048300120138A7A203120138D5A203120138ECD6
:10049300A20312013803A30312013819A3031201A3
:1004A3003840A30312013853A30312013869A3038D
:1004B3001201387CA303120138A1A303120138826D
:1004C3008C02120138818D02120138B68D0212019D
:1004D30038D78D02120138E78D02120138088E02D7
:1004E300120138148F02120138E18F0212013854BD
:1004F3009002120138DA90021201381D91021201A2
:1005030038549102120138DA9102120138AC920286
:100513001201380A93021201382293021201389C05
:1005230093021201389F9302120138A2930212011F
:1005330038499402120138619402120138919402ED
:10054300120138B194021201389F950212013855F5
:100553009602120138D5E402120138FDE4021201B9
:10056300382BE50212013862E502120138CAE502AE
:1005730012013813E6021201385EE6021201389CBA
:10058300E602120138D9E60212013807E702120126
:1005930038AEE702120138B8E702120138C5E702A4
:1005A300120138F8E702120138BAE802120138C61C
:1005B300E802120138DEE802120138E8E80212010B
:1005C3003893A703120138A1A703120138B9A7036F
:1005D300120138D1A7031201381EAF01120138BC32
:1005E300AF0112013834B00112013849B1011201CF
:1005F3003883B1011201382CB20112013801B30161
:1006030012013865B401120138BCB4011201384338
:10061300B5011201382AB60112013877B601120169
:100623003805B70112013829B701120138FEB801A4
:100633001201383FB90112013861B901120138E2E0
:10064300B901120138CCBA0112013892BB0112016F
:1006530038B0C90212013882CA021201382BCB0208
:100663001201386ECB02120138FBCB02120138871C
:10067300CC0212013868CD0212013897CD02120163
:100683003893CE02120138DBCE02120138DDCF02DD
:1006930012013821D00212013847D002120138BCAE
:1006A300A9031201380080031201381680031201D6
:1006B300383C80031201386481031201386E8103D0
:1006C300120138C78203120138C78303120138436A
:1006D300D60212013878D702120138ABD7021201C1
:1006E30038F5D702120138B3D902120138999001B3
:1006F300120138FC90011201384192011201385164
:100703009201120138749201120138BF9201120151
:10071300386493011201385A940112013824950167
:100723001201389C9601120138DE96011201387CC1
:100733009701120138C99701120138EF970112018D
:1007430038DD9901120138E29901120138C39B0186
:10075300120138179C01120138799C01120138A14A
:100763009C01120138459D01120138079E011201B7
:1007730038389E011201383B9E01120138839E01D5
:10078300120138C59E011201382C9F0112013868ED
:1007930093031201387B93031201389493031201DC
:1007A30038DF9303120138BA9403120138499503D1
:1007B300120138949503120138E82C00120138F421
:1007C3002C001201382D2D00120138722D00120158
:1007D30038292E00120138AF2E00120138142F00D1
:1007E300120138402F00120138792F001201388D81
:1007F30031001201386933001201385435001201F7
:10080300388B3600120138EB3800120138D7390023
:100813001201381D3B001201382A3C0012013847EF
:100823003C001201387F3C00120138993C00120150
:1008330038013D001201389B41001201383C42004F
:100843001201388D4200120138B4420012013802FD
:10085300430012013820430012013874430012018F
:10086300384D4400120138D445001201385C46006B
:100873001201382BE00212013835E0021201380070
:10088300E1021201381BE10212013841E1021201B7
:100893003885E102120138BDE102120138E6E102B6
:1008A3001201385FE20212013874E2021201388940
:1008B300E202120138C0E202120138D4E20212014C
:1008C3003805E3021201383FE3021201386BE302F9
:1008D300120138C1E30212013815E4021201385E35
:1008E300E40212013888E402120138ADE402120175
:1008F300388FF60212013859F7021201383CF80218
:10090300120138B2F802120138F4F8021201382148
:10091300FA02120138008002120138298002120102
:10092300384280021201388781021201386582023F
:1009330012013884820212013811830212013854E1
:100943008302120138A18402120138408502120188
:1009530038BF87021201385688021201382A8902E9
:100963001201380C8A02120138788B021201380BFB
:100973008C02120138B3A3031201381CA403120121
:100983003870A40312013897A4031201381EEE0233
:100993001201388BEE02120138D6EE02120138CB67
:1009A300EF02120138C7F002120138B1F10212014D
:1009B30038EFB10212013831B2021201380BB3021F
:1009C300120138E4B302120138DFB402120138BE57
:1009D300B5021201382AB602120138F1B602120129
:1009E300385CB702120138C3B702120138EEB702FE
:1009F3001201385FB802120138F2B8021201385BF3
:100A0300B90212013870B902120138B8B9021201E1
:100A130038D1B90212013836BA0212013839BA0292
:100A2300120138B68A03120138DE8A031201381C18
:100A33008B03120138DA8B03120138458C03120140
:100A430038618C03120138898C03120138B98C0385
:100A5300120138C88C03120138428D031201386821
:100A63008D03120138F69F0112013893A10112017F
:100A73003879A30112013843A4011201388AA40171
:100A8300120138D1A401120138E3A4011201382361
:100A9300A50112013852A5011201389EA5011201C8
:100AA30038D6A50112013804A60112013855A60152
:100AB300120138E4A601120138D2A901120138AC9F
:100AC300AB01120138E8AB0112013842AD0112014A
:100AD3003889AD01120138FEAD011201384CAE0167
:100AE30012013883AE0112013861A0021201387E6F
:100AF300A00212013818A6021201381AA702120125
:100B03003894A80212013842A902120138C34600E0
:100B13001201380C47001201383947001201386CB2
:100B23004700120138794700120138854700120146
:100B3300389747001201386C4800120138CA480040
:100B4300120138FF48001201389B4A00120138E8AD
:100B53004A001201380C4B00120138794B00120184
:100B6300381E4C00120138DA4C00120138594D007E
:100B73001201381D4E001201382C4E00120138ADFF
:100B83004E001201384C4F001201387E4F00120103
:100B930038195000120138775000120138B1500053
:100BA300120138325100120138FB5100120138A4EE
:100BB30052001201382B53001201388353001201E3
:100BC30038E453001201380D5400120138C35400A5
:100BD3001201380D56001201385056001201386DBB
:100BE30056001201388C5600120138D756001201F4
:100BF30038FC56001201382557001201389457006B
:100C0300120138D65700120138DA5800120138742D
:100C13005900120138405A00120138595A00120182
:100C230038C096021201381397021201381F970237
:100C3300120138F497021201381B98021201385638
:100C43009802120138C29802120138F69802120172
:100C5300382F9902120138479902120138A09902DC
:100C6300120138B99902120138029A021201381599
:100C73009A021201382F9A02120138459A02120180
:100C830038619B02120138729C02120138BF9D0227
:100C9300120138A49E02120138EF7F00120138C3FB
:100CA300E601120138F7E60112013862EA01120186
:100CB30038ACEB0112013876EC0112013800EE0179
:100CC300120138DBEE0112013815EF011201383839
:100CD300EF011201387AEF0112013883EF0112019B
:100CE30038CDEF01120138D7EF0112013883F0013B
:100CF30012013857F101120138ABF1011201380D1D
:100D0300F20112013860F2011201388FF20112016F
:100D130038CEF2011201388B5A00120138E5620015
:100D2300120138EB6200120138A668001201388CF8
:100D33006C00120138D18303120138478403120176
:100D4300385D84031201389A8403120138D2840374
:100D53001201384F85031201388A850312013805C1
:100D630086031201384186031201384A86031201B1
:100D730038568603120138708603120138958603AC
:100D8300120138AB8603120138D4860312013837B7
:100D9300870312013869DB021201387CDB0212017E
:100DA3003896DB02120138BFDB0212013802DC0283
:100DB30012013841DC021201387FDC02120138E4EF
:100DC300DC02120138F9DC0212013804DD021201DF
:100DD3003811DD0212013828DD0212013836DD0236
:100DE30012013841DD021201384DDD021201386073
:100DF300DD021201386BDD021201388EDD021201B1
:100E03003837DE0212013847DE0212013861DE0292
:100E13001201387EDE021201389ADE02120138BF57
:100E2300DE02120138C9DE02120138DDDE021201D0
:100E330038FCDE021201385DDF0212013863DF0283
:100E430012013869DF021201386FDF021201387BA9
:100E5300DF02120138AEDF021201384ACC0112015F
:100E630038CCCC0112013875CD01120138BDCE0149
:100E7300120138CBD001120138B1D101120138E689
:100E8300D10112013808D201120138B1D201120185
:100E93003881D401120138AAD40112013822D501B4
:100EA30012013854D50112013861D501120138AC51
:100EB300D501120138D0D50112013821D801120110
:100EC300382BD90112013887D901120138C7BD0166
:100ED300120138D8BE01120138BCBF01120138C655
:100EE300BF01120138E8BF01120138F4BF0112013A
:100EF3003898C101120138C5C101120138DBC201A2
:100F030012013830C3011201387FC4011201385471
:100F1300C501120138B0C5011201381BC601120107
:100F23003850C60112013893C6011201385DC90158
:100F330012013875C90112013806CA0112013814A9
:100F4300CA0112013861CA011201386FCA011201C4
:100F530038DBCA0112013856CB01120138ADCB017F
:100F6300120138A9F301120138CBF301120138DC65
:100F7300F5011201389BF801120138C5F90112017C
:100F83003883FA011201386FFB0112013847A003BD
:100F93001201386CA003120138E2A0031201389346
:100FA300C2021201389CC202120138A5C202120108
:100FB300387DC3021201382EC5021201385EC50204
:100FC30012013889C502120138B9C502120138E489
:100FD300C50212013818C60212013844C6021201B2
:100FE3003887C602120138B2C602120138F9C602A6
:100FF3001201384EC70212013890C702120138EAB3
:10100300C70212013815C80212013864C80212015E
:101013003894C802120138BFC802120138EDC80261
:1010230012013810C90212013845AA03120138719E
:10103300AA031201389EAA03120138A8AA031201B7
:1010430038B8AA03120138BCD002120138C6D00244
:1010530012013807D10212013850D1021201388A25
:10106300D102120138E0D10212013801D202120179
:10107300380AD2021201385ED20212013887D20234
:1010830012013891D202120138FFD2021201388FB5
:10109300D302120138EAD30212013818D402120122
:1010A30038A0D402120138DFD40212013814D50259
:1010B30012013826D50212013845D5021201384EE5
:1010C300D50212013815D602120138C8A403120141
:1010D30038569E031201388C9E03120138C09E03BA
:1010E3001201380DA00312013826A9031201383C5E
:1010F300A90312013846A90312013890A90312016A
:101103003823AB031201387DE90212013890E9025A
:1011130012013851EA0212013890EA02120138AD85
:10112300EA02120138E6EA0212013833EB02120135
:101133003865EB021201389CEB02120138A5ED026F
:1011430012013811EE02120138BFA503120138E271
:10115300A50312013811A60312013829A6031201AF
:10116300386BA603120138B08D03120138D58D03F5
:10117300120138FF8D03120138DAAB03120138E58F
:101183006C00120138846E001201382F6F001201B7
:1011930038AF6F001201383470001201385D7000EF
:1011A300120138387400120138AF7400120138C6C6
:1011B30075001201380076001201384176001201E1
:1011C30038887700120138DE77001201382778005B
:1011D300120138967800120138027900120138336F
:1011E30079001201384B7900120138647A00120138
:1011F30038747A001201382A7C00120138417C00CD
:10120300120138737C00120138157E00120138A9CF
:101213007E001201386AA8031201387BA803120169
:10122300381BA90312013830AC031201386FAC0329
:10123300120138E4FF01120138B4A603120138C4C5
:10124300A603120138D9A6031201388DA703120190
:1012530038E77E001201386C7F00120138D07F001E
:10126300120138509C03120138939C031201383C3D
:101273009D03120138769D03120138D59D03120197
:10128300384A9E031201384D9E03120138E97F004C
:10129300120138EC7F0012013873F2021201388A0E
:1012A300F20212013804F302120138E8F3021201C8
:1012B30038BFF50212013824F6021201387BF60218
:1012C300120138F87F00120138059803120138958E
:1012D3009903120138F699031201383C9A0312015B
:1012E3003852FE02120138A4FE0212013817FF021F
:1012F30012013884FF02120138BE9503120138E847
:101303009503120138B7960312013893970312011C
:10131300385DBA0212013829BB021201386ABB02D6
:10132300120138A4BB0212013802BC021201385662
:10133300BC02120138B4BC021201384ABD021201C8
:101343003852BE02120138DCBF021201387AC002E1
:10135300120138E1C002120138F4C002120138E868
:10136300C10212013831C202120138D4D90112016B
:101373003806DD0112013897DE01120138EEDE0175
:101383001201380BDF011201388BDF01120138071C
:10139300E101120138D6E10112013843E5011201DE
:1013A300382DE60112013864A9021201381EAB027E
:1013B300120138F5AB02120138C9AC0212013862CE
:1013C300AE021201384BAF0212013890AF02120184
:1013D3003811B00212013809B1021201382AB102E0
:1013E30012013849B1021201388FB1021201389A41
:1013F300B102120138678703120138A8870312016B
:1014030038C587031201383A88031201388D8803DF
:101413001201387A89031201387D8A03120138C414
:10142300AC03120138949003120138C7FE01120174
:1014330038C2AA031201383F9A0312013879AC0368
:101443001201387BFA02120138A6AC03E066701071
:1014530008A3E066700A08A3E066700408A3E066C8
:1014630022C3E7960809E7960809E7960809E7966D
:1014730022C3E09608A3E09608A3E09608A3E096AB
:1014830022C008C3E096F50808A3E096420808A323
:10149300E096420808A3E09645087001D3D00822DD
:1014A300080808E630E711121D691214BB08080882
:1014B300C64480C618181822181818E9799EC60859
:1014C300CAC608CBC608CCC6C370207996CACBCC93
:1014D3007019798ECBCC70137986CC700EF9802A73
:1014E300CA33CACB33CBCC33CC331930E7F2CCCBB2
:1014F300CA3350147004EA30E00DE4CA3ACACB3B55
:10150300CBCC3CCC500209C3E913C6CC182313C679
:10151300CB18C6CA18C6F9228A088B098C0A8D0B08
:10152300780812156520F01430E72B74FFFCFBFAE2
:10153300747F8022E4FCFBFA7480801AB48008BCB8
:1015430000F2BB00EF800F50EBF9E4C39AFAE49B7F
:10155300FBE49CFCE499C6CC18C6CB18C6CA18C6D3
:10156300F922E4C9C608CAC608CBC6D3330308CCDC
:10157300C63392F0C3947F402E94184019C9B9071B
:1015830004CACBCC225025C309CA33CACB33CBCC34
:1015930033CC33D9F422F4600DC9CCC313CB13CBB2
:1015A300CA13CAD9F6CC22E4FCFBFA2214FCFBFAD8
:1015B30022E6C33318461846184622E7C3331947B1
:1015C3001947194722181818E6084608700AE6084A
:1015D300C3337005E633F4220822191919E70947C2
:1015E30009700AE709C3337005E733F4220922E6D9
:1015F300084608C3134608336002E633F422E709BA
:101603004709C3134709336002E733F4221215F283
:10161300602512160160201215B470030215BE086E
:101623000808E76670101819E766700A1819E76664
:1016330070041819E76622F4221215F2601C1216C0
:101643000160171215B470071215BE7001D322C0C2
:10165300D01215BE7006D0D0B322C32233D0D050DF
:101663001430E0F6C3E7960809E7960809E79608F9
:1016730009E796B32220E0D5E6970809E69708091B
:10168300E6970809E697B3221215F2601B121601BA
:1016930060161215B470071215BE600CB322C0D0C9
:1016A3001215BE7005D0D022C32233D0D0501330D0
:1016B300E0EBC3E7960809E7960809E7960809E708
:1016C300962220E0E4E6970809E6970809E69708DA
:1016D30009E69722001215F2604F1216016012E715
:1016E300548066F61215C870111215BE703B0909B5
:1016F30009F4F618F618F618F6221215DD7015120D
:1017030015B408080860EAE6447FF618768018E402
:10171300F618F6221215B460161215BE7012E4F60E
:1017230008F608F608E65480F6090909181818227D
:10173300EAC0E0EBC0E0ECC0E0EDC0E0E687F0A477
:10174300FBACF008E687F0A42CFCE435F0FA1809AA
:10175300E687F0A42C4B60027401CA35F0FCE43335
:10176300FB09E687F0D2F7A42CCB35F0FC1908E689
:1017730087F0A42BCC35F0FBE433FD0819E687F0A2
:10178300D2E7A42C4ACB35F0CD3400FC09E687F030
:10179300D2E7A42DCC35F0FDE433FA0918E687F03F
:1017A300D2F7A42CCD35F0CA3400FC08E687F0D27A
:1017B300E7D2F7A42ACC35F07A7E20E70B0ACB33A5
:1017C300CBCD33CDCC33CC33CB3350147004ED308D
:1017D300E00ED2F1E4CD3DCDCC3CCC3B5005DA0557
:1017E300C2F1EB547FC63308E63392F0FBE73309CB
:1017F300E733C39A502D2B70190C0D4C4D701518EF
:1018030006E608C333700D20F10AA2F013F6E418BC
:10181300800B4024E4F630F002768018F618F618B0
:10182300F68024D33B14501074FFA2F013F61876FD
:1018330080E418F618F6800FA2F013F618E63303C7
:10184300F618ECF618EDF6D0E0FDD0E0FCD0E0FBA6
:10185300D0E0FA2212160160461215F2603DE968E3
:101863007008F618F618F618F622748067F712183F
:101873008B090909748067F7221215F2601D12168D
:10188300017005191919801A1215C8701F1215DD78
:10189300C37003E66733191919400718181822088B
:1018A300080874FFF618F618F618F6221215DD600C
:1018B300171215BE702192F01215B470195017202B
:1018C300F014080808090909E7F61819E7F61819C2
:1018D300E7F61819E7F6221215B460E6E869701FF7
:1018E3000808E62480F608E436F618547FB47F0C23
:1018F300E654806007F6E418F618F622181822E971
:10190300C6CC08C6CD08C6CE08C6CFC0E0E8C0E046
:10191300EAC0E0EBC0E009E9F809E7FA09E7FBE60A
:10192300F918E6F8C3EC98ED99EE9AEBC2E7F5F0F7
:10193300EFC2E795F0500E600CEBCFFBEACEFAE96D
:10194300CDF9E8CCF8EAA2E7D2E7FAEB33FB13F5DB
:10195300F0EEA2E7D2E7FEEF33FFC5F013A2E730C4
:10196300E601B313C5F0C3C0E0C0F07F00C39BFB27
:10197300605B9418600C401AD0E023F9D0E0F802C1
:101983001A5A8AF0E9486003D2F0E4AFF0FAF9F8A2
:10199300803BEB30E40D89F0EA6003D2F0E4AFF072
:1019A300F9CAF8EB30E30D88F0EF6002D2F0AFF044
:1019B300E4CAC9F8EB54076014FBC3EA13FAE9134A
:1019C300F9E813F8EF135002D2E0FFDBEDD0E0C0EB
:1019D300E030E739C3E49FFFF5F0EC98FC42F0ED0B
:1019E30099FD42F0EE9AFE42F0D0E0F9D0E0F8E53E
:1019F300F0607AE923F9EE20E742D8028067C3EF6B
:101A030033FFEC33FCED33FDEE33FE80EAEC28FCD0
:101A1300ED39FDEE3AFED0E023F9D0E0F840028044
:101A23001BC3EE13FEED13FDEC13FCEF135002D2B8
:101A3300E0FF08B800067F7F74FF802EEF33501756
:101A43008CF020F00260100CBC000C0DBD00080EE1
:101A5300BE000408E860DFE933E813FFEE2313FE5A
:101A63004F4D4C8008E95480FFE4FEFDFCEE33EF5C
:101A730033F47004FCFD7E80D0E0FBD0E0FAD0E0CC
:101A8300F8D0E0CFC618CEC618CDC618CCC6F922FA
:101A93001215F2700418181822121601700D74FF33
:101AA300F61819F61819F61819F622E7548066F68F
:101AB3001215B4700F1215BE70F014F608F608F67E
:101AC30008F680D11215BE700CF608F60876800869
:101AD300E6447F80EC1215E0700C1215CB60BFE674
:101AE3005480F6E480BB1215CB700519191980A533
:101AF300E869700C763F18768018F618F6E8F92234
:101B0300E6CDC0E018ECC0E0E633CD33CDD313F619
:101B1300E719FCE7191933CC33C3947F400ECD9DED
:101B2300502408E65480F6E418F6800FF4043D14BC
:101B3300501408E6447FF6187680E418F618F6D0B9
:101B4300E0FCD0E0FD22CCD313CCFD18E4C6CBC01F
:101B5300E018E4C6CAC0E00808ED08C633E613F689
:101B630018E433C675F003C3CA97CA09CB97CB19D8
:101B73009C40047D08802EBD0003021C3C16B6FF6A
:101B8300050606081618C3CA33CACB33CB33CA2794
:101B9300CA09CB37CB193CC37D08803E187D08208A
:101BA300E75CC633C6CA33CACB33CB33DDF1D5F0DA
:101BB300EB30E77BCA97CA09CB974ACB199C406F96
:101BC3004B7025E620E0218066187D08C3CA97CABA
:101BD30009CB97CB199CD3C633C6CA33CACB33CBF5
:101BE3003350C9DDE7D5F0E1D3E4C636C608C636BF
:101BF300C608C636C608C636C61818188031C3CA02
:101C030097CA09CB97CB199CB34097C633C6CA333F
:101C1300CACB33CB33DD34D5F02EC6A2E0C640C8E1
:101C2300CA27CA09CB37194A70BECB3CB480B9085E
:101C330008E63308E633601F181818D0E0FAD0E03E
:101C4300FBD0E0FCD0E0FD22187D08CA27CA09CBEF
:101C530037CB193CD3808013F618E4B67F11F618FE
:101C6300B6FF0EF618C60470D20808768080CAF64E
:101C730018F618F680C5080808EAC0E0EBC0E0864D
:101C8300F0E7A4FA180986F0E7A42AFA180986F0FF
:101C9300E7A42AFA180986F0E7A42AFA1986F0E7D6
:101CA300A4FBE5F02AFA190886F0E7A42BFBE5F07C
:101CB3003AFA190886F0E7A42BFBE5F03AFA18186C
:101CC3000986F0E7A4C5F02BFBE43AFA1908E7C547
:101CD300F0C6A426F6E5F03BFBE43AFA1886F0E7F3
:101CE300A4F6E5F00826F6E43B08F6E43A08F6D055
:101CF300E0FBD0E0FA22E4CFC0E0E4CEC0E0E4CDE4
:101D0300C0E0E4CCC0E075F020C3E633F608E63368
:101D1300F608E633F608E633F6181818EC33FCED4C
:101D230033FDEE33FEEF33FFC3EC9709ED9709EE76
:101D33009709EF97191919400FFFEC97FC09ED97D5
:101D4300FD09EE97FE191906D5F0BEECF709EDF77C
:101D530009EEF709EFF7191919D0E0FCD0E0FDD02F
:101D6300E0FED0E0FF22181818E4C396F608E496C4
:101D7300F608E496F608E496F6226016080808C604
:101D8300C313C618C613C618C613C618C613C6D5BA
:101D9300E0EA227009080808226016181818C6C35A
:101DA30033C608C633C608C633C608C633C6D5E02D
:101DB300EA22E627F60809E637F60809E637F608C1
:101DC30009E637F622E026F608A3E036F608A3E094
:101DD30036F608A3E036F622E026F008A3E036F054
:101DE30008A3E036F008A3E036F022C3E697F6082E
:101DF30009E697F60809E697F60809E697F622C377
:101E0300E096F008A3E096F008A3E096F008A3E0BC
:101E130096F022E056F608A3E056F608A3E056F63D
:101E230008A3E056F622E056F008A3E056F008A314
:101E3300E056F008A3E056F022E0F608A3E0F60827
:101E4300A3E0F608A3E0F622E6F008A3E6F008A371
:101E5300E6F008A3E6F022E0FAA3E0FBA3E0FCA38C
:101E6300E0FD22EAF0A3EBF0A3ECF0A3EDF022CA2D
:101E7300C0E0E6F0A308DAFAD0E0FA22CAC0E0E054
:101E8300A3C582CCC582C583CDC583F0A3C582CC4F
:101E9300C582C583CDC583DAE6D0E0CA22C3E49800
:101EA300F8E499F9121EE18026C3E49AFAE49BFB55
:101EB300E920E7E9121EE1E498F8E499F922C3E482
:101EC30098F8E499F9121EE1E498F8E499F9C3E467
:101ED3009AFAE49BFB22EB20E7CFE920E7E0B90085
:101EE30010BB0008E88AF084F8AAF022E4FBC8FAE1
:101EF30022EB70227B10C833C8C933C9335007C3E0
:101F03009AC3DBF280069A50012ADBEAC833F4C88D
:101F1300C933F4C9FA2275F008E4C833C8C933C910
:101F230033C99AC99B5004C92AC93BD5F0ECFBC8F5
:101F330033F4C8E4C9FA22600D08C6A2E713C61831
:101F4300C613C6D5E0F322600C08C6C313C618C671
:101F530013C6D5E0F422700422600D18C6C333C63D
:101F630008C633C6D5E0F41822251810AF08F518B3
:101F7300400215198008F51840021519D2AF22C086
:101F8300D0251810AF08F518500205198008F51868
:101F930050020519D2AFD0D0222518F58210AF0810
:101FA300F518400215198008F51840021519D2AF2B
:101FB300851983222518F582E43519F58322E47304
:101FC3002518C582C0E0E51934FFC583C0E0E518D4
:101FD300C3958224F810AF08858319858218800879
:101FE300858319858218D2AFCEF0A3E520F0A378BC
:101FF30008E608F0A3DEFAEFF0A3E58124FAF8E699
:1020030008F0A3E608F0A3E608F0A30808E608F042
:10201300A3E608F0A315811581D0E0FED0E0F81502
:102023008115811581E8C0E0EEC0E0222518C58244
:10203300C0E0E51934FFC583C0E0E518C3958224E9
:10204300F910AF088583198582188008858319855F
:102053008218D2AFCEF0A3E520F0A37808E608F00B
:10206300A3DEFAEFF0A3E58124FBF8E608F0A3E68C
:1020730008F0A30808E608F0A3E608F0A315811505
:1020830081D0E0FED0E0F815811581E8C0E0EEC014
:10209300E022851983851882E0A3FEE0A3F520786A
:1020A30008E0A3F608DFFAE0A3FFE0A3C0E0E0A3A3
:1020B300C0E0E0A3C0E0E0A3C0E0E0A3C0E010AF55
:1020C300088582188583198008858218858319D22B
:1020D300AFD083D082020135851983851882E0A3AE
:1020E300FEE0A3F5207808E0A3F608DFFAE0A3FFFB
:1020F300E0A3C0E0E0A3C0E0E0A3C0E0E0A3C0E051
:1021030010AF088582188583198008858218858316
:1021130019D2AFD083D08222C0D02518C582C0E0A7
:10212300E51934FFC583C0E0E518C3958224F31095
:10213300AF088583198582188008858319858218DD
:10214300D2AFC8F0A3E9F0A3EAF0A3EBF0A37908B8
:10215300E709F0A3D8FAECF0A3EDF0A3EEF0A3EFB8
:10216300F0A3D0E0F0A3D0E0F0A3D0E0F0A3E5200B
:10217300F0A3E5F0F0A322851983851882E0C0E07F
:10218300A3E0F9A3E0FAA3E0FBA37808E0F608A331
:10219300DFFAE0FCA3E0FDA3E0FEA3E0FFA3E0C0C1
:1021A300E0A3E0C0E0A3E0F5D0A3E0F520A3E0A323
:1021B300F5F010AF08858319858218800885831987
:1021C300858218D2AFD082D083D0E0F8D0E03274C9
:1021D300048006740280027401C0E0F404121F9CA0
:1021E300D0E0121E72227404800474028000CCC0FA
:1021F300E0EDC0E0E518C39CCCAD1950011D10AF54
:10220300068C188D1980068C188D19D2AF121E7F7B
:10221300D0E0FDD0E0FC22D083D082E9C0E0E4939B
:10222300A3C386F0C5F095F0F908E493A386F0C53F
:10223300F095F0700BE493A3C3994005E904800281
:10224300A3E475F002A42582F582E5F03583F583D6
:10225300D0E0F9E493A3C0E0E493C0E022D083D0BC
:1022630082ECC0E0EDC0E0E493A3FCE493A3FDEDB6
:102273004C600D1222ACEC24FFFCED34FFFD80EF2B
:10228300E493A3FCE493A3FDED4C600D1222EBEC6D
:1022930024FFFCED34FFFD80EFD0E0FDD0E0FCE453
:1022A30093A3C0E0E493C0E022C0E0C3E4939608A4
:1022B3007401939618400FE49366700808740193B1
:1022C300661870007019A3A3C3E49396087401936E
:1022D3009618A3A3400DD0E0D0E0D0E002229CA347
:1022E300A3A3A3A3A3D0E022C0E0C0F088F0E493AB
:1022F3006670080874019366187000A8F0A3A370B1
:102303000BD0F0D0E0D0E0D0E002229CA3A3D0F029
:03231300D0E022F5
:1023180074F512202FEAFEEBFFEE2434F8EF3400B8
:10232800F988088909EE2435122450F8EE2437126A
:102338002450F50AEC850AF0A4FCAAF0850AF0ED11
:10234800A42AFDE82CF8E43DF97A257B00121EE169
:10235800EA850882850983F05407F87401B80002F9
:102368008004C333D8FCC0E0E0131313541FF8EE05
:1023780028F8EF3400F9E8245DF582E93400F583A4
:10238800D0E0F8E0586008850882850983801DEE52
:102398002436122450F5F0EA84A8F0EE28F8EF3439
:1023A80000F9E82438F582E93400F583E0F97F0480
:1023B8000220DB74F512202FEAFEEBFFEE24341224
:1023C8002450C0E0EE2435F582EF3400F583D0E0E8
:1023D800F08E828F83A3A3A3A3A3E0FAA3E0FB8ECE
:1023E800828F83A3A3A3A3A3A3A3E0FCA3E0FDEC94
:1023F800C39AF50AED9BF50BEE2480F508EF34003F
:10240800F509850882F583E06401702BEE2481F5D7
:1024180082EF3400F5831221ED1224597402121F41
:1024280082E960137CFD7D04EEFAEFFB120BC78591
:102438000882850983E4F0AC0AAD0BEEFAEFFB12D3
:102448002318122C120223B6F582EF3400F583E02C
:1024580022C082C083851882851983E0F8A3E0F939
:10246800C3EA9CEB9D5012C3EC98ED994019C3EA5E
:1024780098EB99501279018010C3EA98EB9940F5CE
:10248800C3EC98ED9950EE7900D083D08222EAC34C
:102498009CFAEB9DFB2200008521878522C622C07D
:1024A800E074EF12211B759B00906182E0A2E64068
:1024B80003022568E591A2E640030225687591BFED
:1024C8009003C2E064057008120D65120D71800357
:1024D800120D6B752100120DDDE99003C3F0790030
:1024E800120DD1120B317A017B009003C1E0F91271
:1024F80010A1907803E0644260030225B190055F63
:10250800E014F060030225B1C2AF12251500782A45
:10251800D0E0F618D0E0F6E59F5407F970059090E2
:1025280010800390900C7808121E3CE9C4C0E07833
:1025380029E65508F50808E65509F509740B7808E1
:10254800121F4AD0E02508F8906270E0A2E740F830
:10255800E8C333906272F0906270E0D2E0F0804994
:10256800E0A2E55024E591A2E5501E7591DF9003A5
:10257800C2E0640D70139003E4E004F06428700274
:10258800E4F07A00E0F9120E4F906181E0A2E35086
:1025980009E5E9A2E3500375E9F7A3E0A2E75009CA
:1025A800E591A2E7500375917F7F0402217AC0E08C
:1025B800C0D0C082C083906183E0A2E05009E5BF2B
:1025C800A2E0500375BFFEE0A2E15009E5BFA2E119
:1025D800500375BFFDE0A2E25009E5BFA2E2500337
:1025E80075BFFBE0A2E35009E5BFA2E3500375BF46
:1025F800F7E0A2E45009E5BFA2E4500375BFEFE09D
:10260800A2E55009E5BFA2E5500375BFDFE0A2E6E9
:102618005009E5BFA2E6500375BFBFD083D082D072
:10262800D0D0E032C0E074F212211BE5A7A2E4503A
:102638000FE5A1A2E4500953A7EF75A1EF12268078
:10264800E5A7A2E5500CE5A1A2E5500653A7DF7562
:10265800A1DFE5A7A2E15009E5A1A2E1500375A118
:10266800FDE5A7A2E2500CE5A1A2E2500653A7FBA4
:1026780075A1FB7F0102217A74F812202F752101C0
:102688009003C2E0640670077A007B00120D4DA229
:10269800AFE433FED2AF9003C8E0640170187A202B
:1026A8007B009003C1E0F912112B7A207B00900384
:1026B800C1E0F91210A7906182E0D2E6F090055EC1
:1026C800E0602185C62280169003C7E06401700887
:1026D800E5C654F84405F5C653BEFC1224A074019F
:1026E800652160E4EEA2E092AF7F010220DB0000EA
:1026F8008E238F24858228858327851882851983D0
:10270800E0CEA3E0CF852882852783EBC9EAC8ED10
:10271800CBECCA75F010C3E833C8E933C9EA33CA49
:10272800EB33CBC3EA9EF526EB9FF525B35004ABFC
:1027380025AA26EC33CCED33CDD5F0DAAE23AF2481
:102748002274E912202F74FA121F6CEAFEEBFF8C38
:10275800088D099003C2E024F7C394055006908FB2
:10276800F0022870120CC98A0A8B0BEA450B700319
:1027780002286D120D838A0C8B0D120D83EA650CED
:102788007003EB650D60ECEEFCEFFD851882851992
:1027980083AA82AB83120D89850A82850B83A3A342
:1027A800780C121E3C909028780C121E1685188200
:1027B8008519837814121E3C9090287814121E16DE
:1027C800780C7914121464501F780C7914121DEEC9
:1027D800908FB4780C1214844047850C10850D1125
:1027E800850E12850F1380418514108515118516E5
:1027F800128517137810790C121DEE908FB478108B
:10280800121484501C751000751100751200751390
:102818000178107914121DEE7810790C121DB5800C
:1028280008908FF07810121E3C74097810121D96CB
:10283800908FD0780C121E3C7810790C121CF990ED
:1028480003C2E06408600AE064066005E06405709D
:102858001C90903878101214845012908FB0781011
:10286800121DC88008908FD47810121E3C850882EB
:102878008509837810121E4B7406121F827F10027E
:1028880020DB74F712202F120D9B90055CE0640189
:102898007010906245E4F0A3F053F4F343FE0C5338
:1028A80090F3120D3BE5C654804449F5C6E59E54A5
:1028B8007F644970F8906185740FF090055AE0F4D0
:1028C8007002A3E0602C75080175090090055AE0B4
:1028D8007808121F59E508F4FAA3E0600814600AA2
:1028E80014600C800DEA52808008EA52908003EA56
:1028F80052A079007F020220DB74F712202FE9FE34
:10290800EAFF74016E700C7A807B009003C1E0F9D5
:102918001210A1902CE0E493F46008E493F9120BF0
:1029280013800953C680E59E547F70FA120D4190BA
:10293800055CE064017003120B4990055AE0F470DD
:1029480002A3E0602A75080175090090055AE0782D
:1029580008121F59AA08A3E0600814600A14600C42
:10296800800DEA42808008EA42908003EA42A01281
:102978000CC98A088B09A808A909E8496017E5E184
:1029880070FCE82414F582E93400F583E0F874FF5C
:1029980068600288E174016F700A7A019003C1E0EF
:1029A800F91210F50228FC74F112202F8A088B09FD
:1029B8008C0A8D0B740F121FB7780C121E3C909066
:1029C800287808121E16909028780C121E1678087F
:1029D800790C12146450157808790C121DEE908F3A
:1029E800B47808121484401579018013780C79089A
:1029F800121DEE908FB4780C12148440EB79007F8E
:102A0800080220DB74ED12202F8A088B098C0A8DAE
:102A18000B7413121FB7780C121E3C90902878087C
:102A2800121E16909028780C121E16780C7908122F
:102A3800146440117808790C121DEEAA08AB09AC91
:102A48000AAD0B8022751000751100751200751300
:102A5800017810790C121DEE78107908121DB5AAAC
:102A680010AB11AC12AD137F0C0220DB90902878CC
:102A780008121E3C8A828B837808121E297F040262
:102A880020DB74F512202F8C828D837808121E3C6F
:102A98008A828B837808121E02122ADEC3E098F01D
:102AA800A3E099122AD0401E9090307808121E3C5C
:102AB8008A828B837808121DDB8E828F83E0242024
:102AC800F0A3E0344EF080A4F08E828F83C3E094AC
:102AD80020A3E0944E22EA2404F8EB3400F9E8FE3F
:102AE800E9FF8C828D83A3A3A3A3E0F8A3E0F98E6A
:102AF800828F832274F512202FE9FE900514E0FAE4
:102B0800A3E0FBEEC333F8E433F974E728F58274E5
:102B18008E39F583E02AF508A3E03BF50978081219
:102B280021D690902C121E5A1226F87402121F8277
:102B38008A088B098C0A8D0B74107808121D7DAADF
:102B480008AB097F040220DB74F112202F8A0C8B5A
:102B58000D8C0E8D0F740F121FB7E0FAA3E0FB74F3
:102B680011121FB7E0F508A3E0F5097413121FB797
:102B7800E0FEA3E0FF78081221D6EA2401F508EB6D
:102B88003400F509E4F50AF50B780C7908121C797C
:102B9800908FBC7808121E3C780C7908121C79AA10
:102BA8000CAB0DAC0EAD0F1226F87402121F828BFF
:102BB80009EA450960047A0180027A00EC2AFCEDF2
:102BC8003400FDECF8EDF97A717B02121EE18808F9
:102BD8008909E4F50AF50B8E828F837808121E4B5B
:102BE800ECF8EDF97A717B02121EE18A088B097400
:102BF800057808121F598E828F83A3A3A3A3E50823
:102C0800F0A3E509F07F080220DBC082C083E990C9
:102C18006000F0D083D08222C0E074F212211BA29F
:102C2800AFE433FED2AFE589A2E04012E589A2E124
:102C3800400CE589A2E24006E589A2E3500312129E
:102C48007B758900758900758900758900C2C5750D
:102C58001A00EEA2E092AF7F0102217AC0E074F27E
:102C680012211BA2AFE433FED2AFE58AA2E4400CE6
:102C7800E58AA2E54006E58AA2E6500312127B75B2
:102C88008A00758A00758A00C2EB80C3C0E074F2BE
:102C980012211BA2AFE433FED2AFE58AA2E4400CB6
:102CA800E58AA2E54006E58AA2E6500312127B7582
:102CB8008A00758A00758A00C2E88093C0E0C0D097
:102CC800E8C0E0E5A8D2AFC2C7751A00A2E792AF84
:102CD800D0E0F8D0D0D0E032FFFFFFFFFFFFFFFFCA
:102CE800C082C083E9900A23F0022F6C74F7121F88
:102CF800C3E99002E0F07C187D037AFF7BFF12089D
:102D0800499002E174FFF0A3F0A3E4F0A3F0790581
:102D18001207D19002E0E0F91206F97A677B0812EF
:102D28000A29023C7A74F4121FC38A088B09EB54EF
:102D38008060309002E0E0F91210898A0A8B0BAEAD
:102D48000AAF0BEE4F60138E828F83E064B070037E
:102D58001207E9EEFAEFFB121077AA08E50964807A
:102D6800FB80047A007B00022F3B74F2121FC374AD
:102D7800FC121F6CEAFEEBFF7412121FB7124161BE
:102D8800EE4F7003022E157402121FB7EEF0A3EF78
:102D9800123176ECF0A3ED123176AA82AB831206DB
:102DA800F3E9F50A706AE508450960648E828F8345
:102DB800124147EE4F60567A067B001210DD8A0CEE
:102DC8008B0DA80CA90DE8497005750A1380418878
:102DD800828983E4122E22EEF0A3EF124172E508F5
:102DE800F0A3E509F09002E6122EA99002E670051C
:102DF800123C24801B123C128003EAFCEBFD8C82FF
:102E08008D83122EA970F38C828D8380E3750A025C
:102E1800A90A7404121F82024361F0A3124118A385
:102E28002274F2121FC3890AE975F017A4FEAFF0E5
:102E38009002E5E4F09002E3122EA9600A1210E372
:102E48009002E3E4F0A3F0EEFAEFFB1210DD8A083B
:102E58008B09EA4509602FEEFCEFFD790012106539
:102E68009002E3E508F0A3E509F07B008008122E44
:102E780093E4F0A3F00BEBC3950A40F2E50A900245
:102E8800E5F0790080027913024361EB75F017A42D
:102E9800F8A9F09002E3E028FAA3E0398A82F583E2
:102EA800221238B6EA4B2274F4121FC3740C121F94
:102EB800B712413CFEE9FF750800750900800CE572
:102EC800082401F508E5093400F509C3E5089CE57F
:102ED800099D503285080A85090B7403780A121F68
:102EE80059EA250AF8EB350BF988828983A3A3A34D
:102EF800A3A3A3123CF9EE650A7003EF650B70BF3C
:102F0800E8FAE9FB80047A007B00802774F4121F3A
:102F1800C37900EAA2E0501B75089875098F7808F4
:102F28001221D67C047D007A257B0A1207CB740215
:102F3800121F827F04022095C082C0839002E6128D
:102F48002F73601C88828983A3A3E06A7003A3E0BF
:102F58006B8882898370E8A3A3A3A31238B2800484
:102F68007A007B00D083D082020135124447E849B9
:102F78002274EE121FC374FC121F6CEAFEEBFF856D
:102F88001882851983E4F0A3F0EE2402123C04EEC3
:102F9800240512411FEE2404F50EEF12352BE02410
:102FA800FE603924FC604624FE605224FE605E24E4
:102FB800FE700302308C24FE70030230F024FE7091
:102FC800030230FF24FE700302310E24FC7003025A
:102FD800311D24FE700302312C0231699002FF7406
:102FE80017F0A3E412317E12047102316985188248
:102FF800851983AC82AD831207EF023139851882B7
:10300800851983AC82AD831207F5023139850C0826
:10301800850D097402121FB7AC82AD8385088285BD
:1030280009831238B21207178A0C8B0DAC0CAD0D40
:10303800EC4D603BE4F50CF50D780C1221D6750CBF
:10304800FF750D02780C1221D6750C00750D0378EA
:103058000C1221D67408121FB71221ED1245C312A3
:103068001F82E9F50C700B1238A8120489800F75BD
:103078000C0185088285098312316C123C24850C69
:103088000802313C7402121FB7AC82AD83850C82F2
:10309800850D8312367D603C850C82850D83A3A344
:1030A8001221ED7510FF75110278101221D67510D6
:1030B8000075110378101221D67408121FB7122157
:1030C800ED1245C3121F82E9F509700B1238A812D8
:1030D800048F800F750901850C82850D8312316C70
:1030E800123C24850908804C851882851983AC8296
:1030F800AD831207FB803A851882851983AC82ADAF
:1031080083120801802B851882851983AC82AD83D0
:10311800120807801C851882851983AC82AD83123A
:10312800080D800D851882851983AC82AD8312083D
:1031380013E9F508E50860298E828F83A3E06414FB
:10314800601F850E82850F83E09002FF1231761290
:103158004443900300123C24E508A312317E120474
:103168006B023B1312444785188285198322F08528
:10317800188285198322F07CFF7D02850A82850BDF
:10318800831238B62274EE121FC374FC121F6C8AA5
:103198000A8B0B8C0E8D0FEA2405F508EB3400F52D
:1031A800097C157D0079007AFF7B02121065E5081D
:1031B8002402F50CE50912412285188285198385B8
:1031C800821085831178101221D68508828509839B
:1031D800A3A3A3A31236741221D6E5082405F5107B
:1031E800E5093400F51178101221D6850C82850D79
:1031F800831239C91207117406121F828A108B11A3
:10320800AE10AF11E50A2402F50AE50B123C07EEF1
:103218004F700302334B80177402121FB71238B273
:1032280088828983EAF0A3EBF09002FFE004F09033
:1032380002FFE0C39405400302334BE4F510F51197
:1032480078101221D67510E875110278101221D65F
:103258007510E975110278101221D67406121FB77D
:103268001221ED7910EEFCEFFD1245C5121F82E91F
:10327800705E850882850983A3A3A3A3A3A3A3E003
:10328800F89002E8E06870481236741221D67CE99A
:103298007D02E5082408FAE5093400FB12105F7482
:1032A80002121F82E960298E828F83A3A3A3A3122F
:1032B80038B29002FFE0F51074027810121F5974AA
:1032C800002510F58274033511F583EAF0A3EBF0BD
:1032D8007402121FB785821085831178101221D6C7
:1032E8007402121FB71221ED850C82850D831238E6
:1032F800D8121F828A108B11AE10AF119002FFE016
:10330800F51075110074027810121F5974FF2510FA
:10331800F874023511F988828983A3122EA97003E3
:10332800023217E82403080808E93400F9EE4F6070
:10333800030232208882898374FFF0A3F09002FF91
:10334800E004F09002FFE0600A1238A812047D79C8
:1033580000800B850882850983123C1B790A023B91
:103368001374EA121FC374FE121F6C8C128D13EAB9
:103378002405F50CEB1245AD12414B750800750993
:1033880000EA2402F510EB3400F51185188285193E
:103398008385820A85830B780A1221D6850C82855B
:1033A8000D83A3A3A3A31235411221D6E50C24054E
:1033B800F50AE50D123C07780A1221D6850C82859C
:1033C8000D831235451207117406121F828A0A8B63
:1033D8000BEA450B70030234E6EA2404F50EEB12FF
:1033E800352B12414B8A828B83A3A3A3E0F9851066
:1033F800828511831238BC60030234E6E4F514F5C3
:103408001578141221D67514E8751502781412214E
:10341800D67514E975150278141221D67406121F90
:10342800B71221ED7913AC0AAD0B85108285118393
:103438001245CB121F82E9F50960030234E69002B7
:10344800E8E0F8E5087009E02402900300F0801431
:10345800900300E0FCE82402FAE43400FBEA6C7014
:1034680001EB707E850882AA8212366B941412369C
:1034780063506B850E82850F83E0C0E074012A12C9
:103488003522D0E0F00508850E82850F83A3E0C0C1
:10349800E085080A7401250A123522D0E0F00508F3
:1034A8009002E81235411221D67CE97D0285080A8E
:1034B8007401250A123535121F829002E8E02508AA
:1034C800F50874FF6E700374FF6F6012EE24010E2E
:1034D800EF3400FFE508C394145003023393E50862
:1034E80060131238C68510828511831238B212040F
:1034F8008379008014E509700375090A85128285AD
:103508001383EEF0A3EFF0A9097402121F827F0E55
:1035180002209585080C7401250CF582740334008B
:10352800F583223400F50F850E82F58322FA7403A1
:103538003400FB12104D74022212418122A3A312FF
:10354800354B22123C12FDEEFAEFFB2274EE121FED
:10355800C374FE121F6C8C0E8D0FEA2405F50CEB5C
:10356800124122750B009002FFE4F0F50AEA2402EA
:10357800F508EB3400F50980449002FFE0FA900268
:10358800E8E0F812366B9417123663400D9002FF8C
:10359800E0F87416C3989002E8F01236741221D637
:1035A8007CE97D0274002AFA7403123538121F82EE
:1035B8009002E8E0F89002FFE028F0050AE50C2404
:1035C80016F582E50D123526E0F8E50AC398507421
:1035D8009002FFE0C39416506BE50AC333F8E43356
:1035E800F9E50C28FEE50D39FF851882851983ACAD
:1035F80082AD838E828F8312367D7008750B01121F
:103608003C178050E4F510F51178101221D675108A
:10361800E875110278101221D67510E97511027833
:10362800101221D67406121FB71221ED79168508DB
:10363800828509831245CB121F82E9F50B700302BC
:10364800358180BB7CFF7D0285088285098312381D
:10365800B2120495A90B7402023B15E99400C365E4
:10366800D03322EA28F8E43400F9E822E0F51075AE
:103678001100781022123B0A8A108B11AC10AD1180
:10368800EC4D2274EA121FC374FC121F6C8A0C8B57
:103698000D8C128D13EA2405F50AEB123C07750808
:1036A80000750900E50A2402F510E50B3400F51150
:1036B8007402121FB785820E85830F780E1221D6E9
:1036C800850A82850B83A3A3A3A31241271221D6BF
:1036D800E50A2405F50EE50B3400F50F780E1221E6
:1036E800D6851082851183123C0D1238AC12071151
:1036F8007406121F828A0E8B0FAE0EAF0FE50C24D4
:1037080002F50EE50D3400F50F8038888289837440
:10371800FFF0050812351B74FFF005089002E8E079
:10372800F50C750D00780C1221D67CE97D02850810
:103738000C7401250C123535121F829002E8E02521
:1037480008F508EE4F60278E828F83A3A3A3E0F9C4
:10375800850E82850F831238BCEE240412411FE9BE
:103768006027850C82850D8312389E123C24E5085B
:1037780070030238841238C6850E82850F8312388A
:10378800B212049B7900023899E4F514F5157814FF
:103798001221D67514E875150278141221D67514FD
:1037A800E975150278141221D67408121FB7122170
:1037B800ED7911EEFCEFFD850E82850F831245CB66
:1037C800121F82E9F509709A850882AA82EA900296
:1037D800E87009E02404900300F08025E0F89003E5
:1037E80000E0F514E82404FCE43400FDEC651470F2
:1037F80001ED708112366B94121236634003023762
:103808007D850C82850D83E0C0E074012A12352283
:10381800D0E0F00508850C82850D83A3E0C0E01296
:10382800351BD0E01238E185820C85830D780C12A7
:1038380021D67404121FB71221ED851082851183D9
:103848001238D8121F828A0C8B0DAE0CAF0D85086A
:103858000C7401250CF874033400F9EE4F70030260
:103868003713851882851983E0888289831238E1A5
:10387800A3E0C0E012351BD0E0023721E509700350
:1038880075090A850A82850B8312389E123C24A981
:103898000974040235131244478512828513832262
:1038A8007CFF7D02850A82850B831238B622E0FAF6
:1038B800A3E0FB221238B61206FFE9F509229003AD
:1038C80000E0F5F0E508849002FFF07CFF7D02221D
:1038D80012354B12071D740422F0050885188285DD
:1038E80019832274EC121FC374FE121F6C8A088B92
:1038F800098C0E8D0FEA2405FEEB3400FF123AF412
:10390800EE241812411FEA450B7003023997123A48
:10391800DD50291239BC8A108B11EA4511606B7988
:1039280012AC0AAD0B8508828509831238B285105E
:1039380082851183121FC1E9F50A7058E4F50AF56A
:103948000B780A1221D68E828F83A3A3E0F50A781A
:103958000A1221D6EE2403123C04780A1221D68ECC
:10396800828F831239C91208377406121F82E9F54B
:103978000A7021850C82850D83E0701F8508828579
:1039880009831238B21204A18011750A0E800975D4
:103998000A018004E50A6003123C17850C82850D34
:1039A80083E0600479008002A90A7402121F827FF2
:1039B8000C0220958518828519831238B6120825BD
:1039C80022123C12FD8508828509831238B62274BA
:1039D800EE121FC374FE121F6C8A088B098C0C8DA3
:1039E8000DEA2405FEEB3400FF750E00123AF4EAE6
:1039F800450B7003023ABB123ADD502C1239BC8ACF
:103A08000E8B0FEA450F604A7912AC0AAD0B850898
:103A1800828509831238B2850E82850F83121FC1F1
:103A2800E9F50E6003023ABE850882850983123CD7
:103A3800F9AA0AFB123ACF70147AFF7BFF123ACF29
:103A4800606C88828983E50AF0A3E50BF0750A00AB
:103A58008007750E0E805F050A9002E5E0FAE50A18
:103A6800C39A504AE50A75F017A4FAABF088828920
:103A780083A3A3E02AFAA3E03BFB8A828B83123C50
:103A88000DEC4D70D2750A17750B00780A1221D605
:103A9800EEFCEFFD12104D7402121F82EEFCEFFDDA
:103AA8008508828509831238B21204A78014750E1E
:103AB800098003750E0112443F850C82850D83121F
:103AC8003C24A90E02365E1208198A108B11A81020
:103AD800A911E84922E5082402F508E5093400F5AA
:103AE800098A828B83A3A3A3E0A2E5228518828595
:103AF8001983AC82AD838E828F83123B0A8A0A8B2C
:103B08000B22E0FAA3E0FB120717227404121F82AB
:103B18007F0A02209574EC121FC38C108D11EA24C1
:103B280005F50CEB124122750F00EA2402F50AEBA9
:103B3800123C07850A82F5831238B2124651700387
:103B4800023BF9750E008071850C82850D83E06457
:103B580001704F8E828F83A3A31221ED8E828F83F3
:103B6800A3A3A3A3E0F51275130078121221D6EED1
:103B78002405F512EF3400F51378121221D6123805
:103B8800AC1208377406121F82E9F50F6014850C11
:103B980082850D83E4F012443F85108285118312DB
:103BA8003C247C177D007900EEFAEFFB1210658E3D
:103BB800828F83E4F0A3F0050E9002E5E0F8E50EAD
:103BC800C398501EE50E75F017A4F8A9F085088271
:103BD800850983A3A31245B7123C0DEC4D6003027F
:103BE8003B5085088285098374FFF0A3F0E50F70C8
:103BF800061238AC1204ADA90F0239B7F50AEF3432
:103C080000F50B22A3123C12FD22E0FCA3E0228E59
:103C1800828F83124447850E82850F83E8F0A3E9DB
:103C2800F022C082C0839002E1E06A7003A3E06BD7
:103C380070067AE17B0280047A007B00022F6C74A4
:103C4800F7121FC37F00EF75F003A4F8A9F0EC2862
:103C5800F8ED39F988828983E06A7003A3E06B7014
:103C680006E8FAE9FB800B0FEFC3940240D87A000C
:103C78007B007F0102209574F6121FC31242307038
:103C8800067A007B008007A3A3A3A31238B20242DE
:103C9800F174F2121FC3E9FE740E121FB7123CF939
:103CA8007410121FB71241618C828D83E064027018
:103CB8003BA312444388828983E0F50CA3E0F9A86A
:103CC8000C74026870037429697021750C02750DF3
:103CD80000780C1221D678081221D6780A1221D63B
:103CE800EEF912085B7406121F8280027901024302
:103CF80061E0F50AA3E0F50B2274E8121FC374FB18
:103D0800121F6CE9851882851983F08A168B178C27
:103D18000E8D0F741F121FB71241617421121FB745
:103D2800123CF97423121FB712414B7510008C8294
:103D38008D83A3A3A3E0A2E4502A741D121FB71217
:103D480039C28A828B83E58245837003023E0D79EE
:103D58000AAC0EAD0FAA16AB17121FC1E9F5106019
:103D680003023E10850E82850F83E0640260030221
:103D780040C6A3124443850882850983A38582121D
:103D8800858313E50E2406F50CE50F12412288827F
:103D98008983E0FAA3E0F9EA2400F514E439F5157B
:103DA8007814122260010000280128D53D0700027E
:103DB80028AC3E03281C3E0029D63F0129FE3F02BD
:103DC80029A53F0329D63F04296740C640EE4F7016
:103DD8003E850C82850D8312413CFAE9FB8A828B71
:103DE80083E0850A82850B831241781221D68A8264
:103DF8008B83A3123C12FDAA08AB0912104D740262
:103E0800121F82800375100EA91074050245A5754E
:103E1800100B80F4EE4F70F7850A82850B837401CE
:103E2800F0124151850882850983F07C007D008568
:103E38000E82850F83A3A3A3A3E02401FAA3E03491
:103E480000FB120717EA4B60418A828B83E0240249
:103E5800F8850A82850B83E028F0EA2404F8EB341D
:103E680000F988828983E085128285138312418A4A
:103E78001241781221D68A828B83123C0CE50824E1
:103E880003FAE5093400FB023E03850A82850B83A9
:103E9800E02404F07C047D007900AA12AB13121010
:103EA80065023E10EE4F6003023E17124151FEA319
:103EB800E0FF850A82850B837404F0EE850882850D
:103EC8000983F0EF851282851383F07403121FB7FC
:103ED800AC82AD83EEFAEFFB12421E7003023F8202
:103EE8008A828B83A3A31241477401121FB785826C
:103EF8000E85830F780E1221D67405121FB7122172
:103F0800ED7CFF7DFF12071D7404121F828B0FEAE0
:103F1800450F7033850C82850D831241271221D6F7
:103F2800850C82850D83A31221ED7C027D007A9693
:103F38007B901205497404121F82E9700A740112F9
:103F48001FB774FFF0A3F08E828F83E06402703491
:103F5800750C02750D00780C1221D68E828F831293
:103F68003C0CE5082404FAE509123538121F82854D
:103F78000A82850B83E0240280097401121FB7EEC0
:103F8800F0A3EFF07401121FB7124138F074011258
:103F98001FB7A3124130A3A3A3F0023E10EE4F6057
:103FA80003023E17850C82850D83123C0DAA16ABC1
:103FB8001712084F850A82850B837402F0EA850878
:103FC80082850983F0851282851383EB80CBEE4FBF
:103FD8006003023E17124151F8A3E0F9850A828571
:103FE8000B837402F0E8850882850983F0E985125D
:103FF8008285138380A3850C82850D831238B212C3
:104008001047EAFC8C82A882C39EE49F404BE86E6E
:104018007001EF70047C00801F851882851983E089
:10402800FAEE2AFAEF3400FBC3EA98EB9400500347
:10403800E08004EECCC39CFCEC850A82850B83F0FF
:104048008C0A750B00780A1221D6850C82850D839F
:10405800E02EFCA3E03F023DFE751007023E10EE85
:104068004F6003023E17850C82850D8312444385F9
:104078000A82850B837407F0888289831241301283
:104088004118E0851282851383F0E82402FAE934A6
:1040980000FB8A828B83124130124169124138A396
:1040A800124172124141F0E82405F8E93400F98818
:1040B800828983124141A312418AA3023F9E741D43
:1040C800121FB71242297003023E0D124443880C96
:1040D800890DE8450D7003023E0D8E108F11781082
:1040E8001221D6780A1221D678081221D67406121F
:1040F8001FB7E0F9AC0EAD0FAA16AB17850C828579
:104108000D83121FC17406121F82E9F510023E10BA
:10411800F088828983A322F50CEF3400F50D22E0A4
:10412800F50E750F00780E22E08508828509832236
:1041380012419122124447E822124191A3A322A3DB
:10414800A3A3A3E0FEA3E0FF22850C82850D83E0F4
:10415800F8A3E0F5838882E022E0F508A3E0F509FA
:1041680022A3A3F08A828B83A322122E24A3A32244
:10417800F08A828B8312418122E0F50A750B007860
:104188000A2212411812419122E08508828509838A
:10419800A3A32274EE121FC374FE121F6C8A0A8B2B
:1041A8000BECFAEDFB7414121FB7E0F510A3E0F561
:1041B800117416121FB7E0FE7418121FB7E0F50E3F
:1041C800A3E0F50F851882851983AC82AD8312426E
:1041D8001E603E851882851983124229602FA3A389
:1041E800124161E50845096024780E1221D678103D
:1041F8001221D6EEF9AC0CAD0DAA0AAB0B850882DC
:10420800850983121FC17404121F828006790E80EB
:1042180002790102365E1207178A0C8B0DEA450DEA
:10422800221238B6124230221207E38A828B83E5C3
:104238008245832274F6121FC374FE121F6C740C1D
:10424800121FB712413C851882851983F074011238
:104258001FB7E9F0E4F508F50978081221D67508C2
:104268000278081221D67404121FB7858208858344
:104278000978081221D61208377406121F827402B0
:10428800121F82806474F7121FC3EAFEEBFF8908CD
:104298007C187D0312084FEA5402600BA908EEFA55
:1042A800EFFB12070B80027901023C7A74F6121FA9
:1042B800C374FF6A700374FF6B701C7B00EB75F0AE
:1042C80003A4F8A9F0EC28F8ED39F91242F60BEB43
:1042D800C39402501480E612081F8A088B09A808A4
:1042E800A909E84960031242F67F020220958882F4
:1042F800898374FF122E22E4F02274F6121FC3126F
:10430800081F8A828B83E58245836006A3A3E0FAAF
:1043180080027A007B0080D174F2121FC38A088B56
:1043280009ECFEEDFF740E121FB7E0F50A124366A2
:10433800701CEEFCEFFD7AFF7BFF12436670047978
:1043480011801688828983E508F0A3E509F0888240
:104358008983A3A3E50AF079007F06022095120855
:104368001F8A0C8B0DA80CA90DE8492274EE121FA8
:10437800C3EAFEEBFF8C088D09890C7412121FB773
:104388001244437414121FB7123C0D7416121FB74F
:104398001238B2750D00EC4D6003024437740265A3
:1043A8000C600302443288828983123C12F9EC249F
:1043B80000F50EE439F50FEAF4F8EBF4F9EC58F8E7
:1043C800E50F59F9E849705DE5082406F8E5093470
:1043D80000F9880A890B8882F58312354712084F3D
:1043E8008A108B11E50E65107004E50F65116042A7
:1043F800780E1221D6850A82850B8312354712085A
:10440800557402121F82E9F50D7027780E1221D615
:10441800850882850983A3A312354512086D7402A5
:10442800121F82800D750D808008750D0D80037533
:104438000D0BA90D023B188E828F8312444722E090
:10444800F8A3E0F92274E8121FC374E7121F6C8501
:104458001882851983EAF0A3EBF08C168D17890E64
:104468007431121FB7E0F512A3E0F5137433121F6D
:10447800B7E0F514A3E0F5157435121FB7E0F50F92
:10448800750800750900E50975F003A4F8A9F08519
:1044980018828519831245B7E0F47003A3E0F4701D
:1044A80003024595EE2402F50CEF1245ADE07003CA
:1044B80002459585160A85170B780A1221D6AC1481
:1044C800AD15AA12AB131207D77402121F828A0AFB
:1044D8008B0BEA450B7003024595E4F510F511784E
:1044E800101221D67406121FB785821085831178A1
:1044F800101221D67409121FB7858210858311788E
:10450800101221D6851282851383A3A3A3A3122197
:10451800ED7914AC0AAD0B8E828F831245CB121F36
:1045280082E97069850A82850B83A3A3A3A3124439
:10453800437402121FB7123C24850C82850D83E058
:10454800A2E05018A90E7402121FB7AC82AD838E78
:10455800828F831238B212072FE94208850C8285B0
:104568000D83E0A2E15026E50FF50A780A1221DA58
:10457800A90E7403121FB7AC82AD838E828F83128B
:1045880038B21207297401121F82E942080509E5A9
:1045980009C39402500302448EA9087419121F8299
:1045A8007F100220953400F50D850C82F58322E0FA
:1045B80028FEA3E039FF8E828F83227916850A822E
:1045C800850B831238B612083174082274F2121F50
:1045D800C3EAFEEBFF890B7401650B600E7402657C
:1045E8000B70637901120A47E9705BEEFAEFFB1270
:1045F80046516047750A00800B7C177D00790012D0
:104608001065050A9002E5E0F8E50AC3985021E52F
:104618000A75F017A4F8A9F0850882850983A3A371
:10462800E028FAA3E039FB8A828B83122F7370C9C2
:1046380085088285098374FFF0A3F07C187D03EE5A
:10464800FAEFFB1208490243611208198A088B091C
:10465800EA45092274F2121FC38A088B09ECFEEDA1
:10466800FF740E121FB7123CF9900A23E0F4603D64
:104678007A097B00121071EA4B60328A828B83744C
:10468800B1F0A3E412416BA3124169A3E508F0A3BA
:10469800E5091246B8EEF0A3EF1246B8A3A3E50A5F
:1046A800F0A3E50BF0900A23E0F912107D024361B4
:1046B800F08A828B83A3A3A3A3A322C082C0839082
:1046C80061907404F0A37448F0A3E4F090618074DE
:1046D80040F09061BC7407F09061877469F0906154
:1046E800B67416F07900120B377902120B3D902C34
:1046F800E0E493F46006E493F9120B137905120EC3
:1047080031024B05C082C083E9540FF9906185E0FE
:10471800696012E5C654804449F5C6E59E547F6435
:104728004970F8E9F053C680E59E547F70FA024B51
:104738000574F7121FC3E5A8FE53A87E120B1FC20B
:10474800BA539AFEC289759B00C2C2120B2575A97D
:104758001175B905120B2BD2BA439A0174805E42C7
:10476800A8025092C082C083906181E4F0A3024BFA
:104778000275E90075910075BF00020135C082C05D
:1047880083906181E4F0A374C0F0A3E4024B04C0F9
:1047980082C08374F8121F6C9003C4124F74E849E6
:1047A800700302484E9003C4E054406023790885A2
:1047B8001882851983AA82AB83120C2D85188285ED
:1047C8001983AA82AB831208D99003C4E054BFF0BE
:1047D800E054806010790C7A807B05120C2D9003D0
:1047E800C4E0547FF0E0A2E0500879001248565423
:1047F800FEF0E054026008790112485654FDF0E0DA
:1048080054046008790012486154FBF0E0540860D1
:1048180008790112486154F7F0E0541060087902F1
:1048280012486154EFF0E05420600879031248619F
:1048380054DFF0A3E05401600D120B491208EB900D
:1048480003C5E054FEF07408121F82024B05120BD8
:10485800371208DF9003C4E022120B3D1208E590DE
:1048680003C4E022C082C083E9600514602A804F37
:1048780090619A7433F0A37455F09061A0743AF083
:1048880090055CE064017009C2919003C67467806A
:104898002D9003C67461802690619A743FF0A374CA
:1048A8005AF09061A0747FF090055CE06401700993
:1048B800D2919003C6747180059003C6746AF002A1
:1048C8004B05C082C083E9600B14600D14600F149F
:1048D80060118020902CE48015902CE58010902C9D
:1048E800E6800B90055CE0640160F3902CE7E493AC
:1048F800906186F0024B0574EE121FC374F4121F08
:104908006C851882851983AC82AD83758390758216
:10491800207404121E7F902CE493F46003024A91E1
:10492800907808E0C394025003024A717404121F7D
:10493800B7AC82AD8375838F75828A7408121E7F27
:10494800F97AFF7BFF7FFF7E0089828582108018BD
:1049580074086E7003024A2674096E7003024A26B0
:10496800740A6E7003024A26E510C333FCE433FD73
:104978007404121FB7E5822CF582E5833DF583E0C8
:10498800F50EA3E0F50F8E08750900740278081279
:104998001F5974482508FC74783509FD8C828D836D
:1049A8007808121E3C74087808121D7D85080C854D
:1049B800090D8C828D837808121E3C7418780812B1
:1049C8001D7DE50C4508F508E50DF509C3E50E95CF
:1049D80008E50F95098C828D837808121E3C8C821D
:1049E8008D837808121E3C741878084014121D7DB7
:1049F800E50C4508FCAD0DE50EC39CFCE50F9D805C
:104A08000F121D7DE50C4508C3950EFCE50D950FAD
:104A1800FDC3EC9AED9B5006ECFAEDFBEEFF0EEEB3
:104A2800C39413500302495874FF6A700374FF6BF0
:104A3800602D8F0874027808121F59744812572085
:104A480074783509F5837808121E3C851882851913
:104A580083E5822510F582E5831254ADE508F00957
:104A6800E9C394045003024949750801750900789F
:104A7800081221D67402121FB7AC82AD837A397B33
:104A88000B1212577402121F82740C121F827F0AB3
:104A9800022095C082C083906186E0F8902CE7E4FC
:104AA80093687009902CE6E493906186F09061AE6B
:104AB8007468F0A3746AF090624574FBF0A304F084
:104AC80053F4FD43FE0290055C7401F09061A0E090
:104AD800643A7004790080027901120B37024B05A1
:104AE800C082C08390050EE06401700A900513E04F
:104AF8006004790C800279008003F0A3F0D083D0A1
:104B080082020135C082C08375E1F1900511E06031
:104B18004D1460081460511460498051120B5B9069
:104B28000507E0F97A087B05120DB390901C121E58
:104B38005A120DE9909034121E5A120DBF900512A8
:104B4800E0F9120DCB7901120E25900505E0241627
:104B5800124C9A7473F0A3740BF07900809F120BB7
:104B68006180BC120B6780B7120B6D80B27912801E
:104B7800EB74F4121FC375D90D9004F6E0A2E0E4BB
:104B8800331313F8124C06484401F5D97800124C37
:104B98008440FB7800880874F71257207404124C7C
:104BA8008E40F275E1959004F6E0F97AF77B0412ED
:104BB8000DB9900A4574E9F0A3740A124CA9124C75
:104BC800C9124CC0124E01124C107808121E3C90AB
:104BD80090187808121DC89090287808121E16128E
:104BE8004C947808121E4B900505E02414124C9A38
:104BF8007413F09003C27402F07F040220959005AC
:104C080007E0C4333354C022900505E0F8A3E0F56B
:104C1800838882A3A32274F6121FC3124DD28AD9A5
:104C28007800124C8440FB78008006124D38124EF2
:104C380084E8C39940F5124DC4124C8440FB7800B7
:104C4800800812571C7405124E84E8C39940F37506
:104C5800E195900A4574F5F0A3740A124CA9124C18
:104C6800B3121E5A124C94121E66900505E02414C5
:104C7800124C9A7412F09003C202506F880874089C
:104C88002508F5827405124FE0940622900505E088
:104C9800240EF8A3E0124CA1223400F988828983FB
:104CA80022124DEA74EFF0A3740A22124CC9124C76
:104CB800C0124E0590903022F0A37407F0A3740B35
:104CC80022124CCD22124CD122F0A37499F0A37475
:104CD8000C2274F6121FC3124D2D124C064402F515
:104CE800D97800124C8440FB78008006124D3812A7
:104CF8004E84E8C39940F575E195900A45124D43F5
:104D0800F0A3124D43124CB6121E5A124C94121EA6
:104D180066900505E02414124C9A7414F09003C2AE
:104D28007404025071900517E0F9740729F5D92227
:104D3800880874182508F5827405227401124D50EC
:104D4800124D50F0A3740B22F0A3740BF0A374015E
:104D58002274F6121FC3124DD274064AF5D9780090
:104D6800124C8440FB78008006124D38124E84E8BD
:104D7800C39940F5124DC4124C8440FB780080085A
:104D880012571C7405124E84E8C39940F375E195D7
:104D9800900A4574FBF0A3740A124DE0124CB3124A
:104DA8001E5A124C94121E66900505E02414124CEB
:104DB8009A7415F09003C27403025071900537126B
:104DC8004D3074044AF5D9780022124D2D9005070C
:104DD800E0C4333354C0FA22124DEA7499F0A37434
:104DE8000C22124DEE22124DFB7499F0A3740C1292
:104DF8004DFB22124CD1F0A322124E0522F0900A4C
:104E0800537499F0A3740C124DEE7499F0A3740CBA
:104E1800124CCDF022C082C083124C10A3A3A3A3CE
:104E2800E4024B0274F7121FC3125962F874033973
:104E3800F9E82405FAE93400FB8A828B831256D1FB
:104E480088828983A3A3A3A3A3A3A3A3A3ECF0A30A
:104E5800EDF088828983A3A3A3A3A3A3A3E024FFDF
:104E6800F8A3E034FFF98A828B83E8F0A3E9F00223
:104E78005092880874602508F58274051255F8F573
:104E8800D90822EAFEEBFF9061D0E0F87480C3985D
:104E9800FAEE248322124EA39404221254BBE0F5A6
:104EA800D90AEAC32274F6121FC3EAFEEBFF906127
:104EB800D0E0707575D90E75D90375D9047A008A52
:104EC80008EE2508125A30248C124F4640F17A0019
:104ED8008A08EE2508125A302484124E9D40F17536
:104EE800E1957908EE248C124F3F2484124F367CCA
:104EF800008C82AA82C3E49AF895E0F9EE28F8EFCC
:104F080039F9E8248BF582E91255F4C0E0EE2A124B
:104F18005A3024ABF582E91254ADD0E0F00CECC362
:104F2800940840CD124FFC80027900025072FAEFCB
:104F38003400FB120C2122124F367904EE22124E55
:104F4800A3940822C082C08375D90275D90375D984
:104F58000575E195EA2470F582EB124F71EA247227
:104F6800F582EB12500E024B051254BE124F7822F6
:104F7800E0F8A3E0F92274F6121FC3EAFEEBFF90F3
:104F880005607406124FEA1221D67C017903125388
:104F980016121F8275D90675D9037800124FD040B2
:104FA800FB75E1959003C2E064087017EE2470F574
:104FB80082EF124F71EE2472F582EF1254ADE8F0D1
:104FC800A3E9F07901025072880874602508F58217
:104FD8007405124FE09405221254BEE0F5D908E892
:104FE800C322F075086075090578082275E195797E
:104FF80004120DEFEE2470F582EF1254BE124F78B2
:10500800EE2472F582EF1254BEE8F0A3E9F07901BC
:105018002274F6121FC3EAFEEBFF9061D0E07043E2
:105028007901900560740BF09003C2E06407701773
:1050380075086075090578081221D67C01090912DE
:105048005316121F827905740129F5D975D9037889
:10505800008003124E7AE8C39940F875E195124F23
:10506800FC8002790080037401F07F0202209574AD
:10507800F7121FC3EAFEEBFF75D90375D90375D97B
:105088000DEE24DE125097124FF47F01022095F5A1
:1050980082EF1255F8F5D9227F0302209574012575
:1050A8000AF5D975D90378002274F5121FC3125175
:1050B800266004780480027800E8240BF8EAC39894
:1050C8004041750A099005607409F0790812510F7A
:1050D800601475086075090578081221D612530EF8
:1050E800121F82750A0D1250A58003124E7AE8C36A
:1050F800950A40F775E1957904120DEF12528B79F4
:1051080001800279008091EE24E3FCEF3400FD7AFF
:10511800617B05120C1B850882850983E022124EEB
:105128008BF8EF1256C5F583E02274F3121FC38A79
:10513800088B09125321FAE5082483F50AEB12516A
:10514800F06004780480027800E82408F8EAC3983C
:1051580050030251E9750C06900560740CF0900339
:10516800DFE0900561F07402C0E0F97CE07D037A2D
:10517800627B05120C1BD0E0F97CE27D03120C1B4C
:10518800850A82850B83E0601C750A60750B0578BB
:105198000A1221D67C067903AA08AB091253161203
:1051A8001F82750C0A7401250CF5D975D90378008E
:1051B8008009880A7460250A124E80E8C3950C405D
:1051C800F175E1957904120DEFE5082470F582E593
:1051D80009124F71E5082472F582E50912500E8014
:1051E8000279007F050220953400F50B850A82F5C7
:1051F80083E02274F6121FC3EAFEEBFF125321FC70
:10520800EE2483F8EF12531C60047A0480027A00BB
:10521800EA2404FAECC39A405E7A02900560EAF048
:10522800EE24F5F582EF125297601975086075093A
:105238000578081221D67C027903EEFA1253161269
:105248001F827A0674012AF5D975D903780080037C
:10525800124E7AE8C39A40F875E195EE247412521A
:1052680084EE248012528412528B7904120DEFEED0
:10527800240D124FFF80027900025072F582EF125E
:10528800540722EE241DF582EF125407A3F02212D0
:1052980055F8900561F088828983E02274F6121F20
:1052A800C3125321FEEA2483F8EB12531C60047CDA
:1052B8000480027C00EC2404FCEEC39C40437C0286
:1052C8009005607407F0EA24F6F582EB12529760B5
:1052D8001575086075090578081221D679031253E7
:1052E80016121F827C0674012CF5D975D903780033
:1052F8008003124E7AE8C39C40F875E195790180E5
:105308000279000250727C097903EEFAEFFB120C65
:105318008D740222124CA1E0229061D0E0F87480D2
:10532800C3982274F5121FC3E9FEA2AFE433F50A4D
:10533800C2AF7F00EA246FF8EB3400F980010F88D0
:10534800828983E0FCEFC39C50188F08EA2508FC8B
:10535800EB3400FDEC246BF582ED1255F46E70DE33
:105368008010EA2CFAEB3400FB1254A7EE12529D7F
:1053780004F0E50AA2E092AF0250A074F6121FC32F
:10538800A2AFE433FFC2AFEA246FF8EB125A32FC43
:10539800E9FD8C828D83E014F07E0080218E08EA7E
:1053A8002508F8EB125A32246CF582E91255F4C03C
:1053B800E0E8246BF582E91254ADD0E0F00E8C825F
:1053C8008D83E0F8EEC39840D4EA246E1254AA7490
:1053D800FF1253FCEFA2E092AF025072C082C0836A
:1053E800E5A8F8C2AF1254A7E91253FCE8A2E79265
:1053F800AF024B05F0EA246AF582EB125407221239
:1054080054BEE4F02274F2121FC38C828D83A3A3CE
:10541800A3A3E0541FF0EA24361257698E828F83C3
:10542800E4F0F50C850C8285820AEC250AF8ED1269
:1054380056C1F583E0C0E0EA250AF8EB1254B1D072
:10544800E0F0750D00850882850983E0F50A750B83
:1054580000E50D780A121F3AE50AA2E0502AE50C89
:1054680033333354F8250DC0E08E828F83E0F8EA99
:1054780028F8EB125A322438F582E91254ADD0E0FC
:10548800F08E828F83E004F0050DE50DC39408408B
:10549800B4050CE50CC39405408A7F06022095EA02
:1054A800246BF582EB1254BE223400F9E8245D1215
:1054B80054BB22F582E93400F5832274F6121FC327
:1054C8009003EEE0640170077A007B000255EE7EDF
:1054D800009003F4E070F17401F0A3E4F0A3F090FD
:1054E800045404F0900457E4F0A3F090045A04F034
:1054F8009003F7E412560590040104F0900427E4A1
:10550800F0908FD4121E5A90040A121E6690040E50
:10551800E4F0A3F0A3F0900472F0900466F0900415
:105528005B7480F0A3E4F0900461F0900459F0906B
:1055380004DD1255FD9004E6F0900475F09004C562
:10554800F0A3F0908FD4121E5A9004C7121E6690D2
:105558008FD4121E5A9004CB121E669004D1E4F028
:105568009004D3F09004CFF09004E91255FD8E0812
:10557800745D12572074041254AD74FFF00EEEC31C
:10558800940440EA7E008E82A88274FD28F5827415
:10559800041255F4C0E0744F28F58274041254AD17
:1055A800D0E0F00EEEC3940540DC7E008E82A88227
:1055B80074D628F58274031255F4C0E074D528F522
:1055C8008274041254ADD0E0F00EEEC3940840DCAF
:1055D8009003EEE004F0640170089003F6E0900395
:1055E800F0F07AF27B03025072F582EF1255F8223E
:1055F8001254BEE022125605A312560522F0A3F05B
:10560800A3F0A3F022C082C083EA2403F582EB1240
:1056180055F46008E4F09003EFE014F09003EEE036
:1056280014F070069003F074FFF08A828B83A3A3B2
:10563800E4F0900502E0700D9003EFE0640170055E
:105648007900120DD1024B05C082C0839003F5E4A6
:10565800F09003F4F09003EEF0A3F0A374FFF0755C
:10566800E1F1024B05C082C083780079009003F510
:10567800E0600478F2790388828983A3A3A3A3E076
:10568800F9024B0574F6121FC3EAFEEBFF120BD3A7
:10569800EE2465F8EF1256C11256CFEC4D6010900B
:1056A80003F012595A850882850983E4F0A3F0EEC5
:1056B800FAEFFB120CC30250721256C5223400F9DD
:1056C80088088909888222F583E0FCA3E0FD22741A
:1056D800F7121FC3EAFEEBFF8E828F83A3A3A3A357
:1056E800E0FA7B00120951EEFAEFFB120BE5120CFF
:1056F800A502509274F6121FC37800880874D61257
:105708005720740312528708E8C3940840ED9003A9
:10571800D602506F880874382508F5822274F6126C
:105728001FC3EA240D125769EC2403F8ED3400F97D
:1057380088088909EC2407F8ED125A32FCE9FD12B1
:105748005773121EE18E828F83E8F0A3E9F0125797
:1057580073121EE18B09EA4509600312578602504D
:1057680072F8EB3400F9E8FEE9FF228C828D83128F
:105778004F78850882850983E0FAA3E0FB228E82B0
:105788008F83E02401F0A3E03400F02274F6121FA6
:10579800C3EA242EF582EB34001256CFEA247012A5
:1057A8005769780079FAECFAEDFB121EE18E828FC8
:1057B80083E8F0A3E9F0780079FAECFAEDFB121E21
:1057C800E18B09EA4509600312578602507274F0AA
:1057D800121FC3EAFEEBFF7410121FB77808121EDF
:1057E8003C120D7D8A0C8B0D8C0E8D0F90901478C9
:1057F8000C121DC8909028780C121E16780C1221D5
:10580800D28E828F83124C13121E5A1229AF74043F
:10581800121F82E960030258BE8E828F83E0240241
:10582800F8A3E0125A32FAE9FB8A828B83780812CD
:105838001DDB9090287808121E3C8A828B8378089A
:10584800121E29EE240BF582EF1254ADC082C083DC
:105858008E828F83A3A3A3A3A3E02401F8A3E0343B
:1058680000F9D083D082E0687003A3E069700479FE
:10587800018045EE2407F8EF124CA112578AEE2456
:1058880074125A377014EE24751258C57003A3E0C9
:105898006D70078A828B8312578AEE2480125A37DA
:1058A8007014EE24811258C57003A3E06D70078A46
:1058B800828B8312578A79007F08022095FAEF3489
:1058C80000FB8A828B83E0FCA3E0FD88828983E069
:1058D8006C2274F3121FC3125962FE740339FFEE6F
:1058E8002404F50AEF3400F50BEE2465F508EF34CF
:1058F80000F50980101256D1850882850983E4F0E5
:10590800A3F01259548508828509831256D1EC4DAB
:105918006030EE24641255F1F50C780C1221DAEEA1
:1059280024631255F1F9EEFAEFFB120C0F74011211
:105938001F82E985088285098360BA124F74E84995
:1059480070077C007D001259540251EB850A82854C
:105958000B83E0FA7B0012090F229003F0E0F87540
:10596800F004A4C8AAF02AF974F2282274F2121FCB
:10597800C3EAFEEBFF890A740E121FB7E0FAEE24A1
:1059880062125A376003025A2B125321F50CEE2487
:10599800831255F1FB60047804800278008908E9D5
:1059A80028F8E4125A3224020808E93400F9E50C10
:1059B80098E499A2D265D0334065EA7005750B0268
:1059C8008003750B01EB603375090078081221D646
:1059D8007A607B05120C577402121F827508607575
:1059E800090578081221D6AC0AA90B125312121F06
:1059F800827404250AF50A7C607D057401250AF580
:105A0800D9850BD97800800A8808EC125720ED1246
:105A18004E84E8C3950A40F075E1957900800679CF
:105A280007800279FF0254A2F8EF3400F9E822F562
:105A380082EF1255F8640122C082C0838003125A93
:105A48006EE9F874FF28190470F4ECFAEDFB024BC8
:105A580005C082C0838003125A6EE9F874FF2819C2
:105A68000470F4024B058C828D83E08A828B83F06C
:105A78008C828D83A3AC82AD838A828B83A3AA8216
:105A8800AB832274E8121FC3907803E06442705E0F
:105A980090055FE014F07056C2AF125AA500782A3C
:105AA800D0E0F618D0E0F6E59F5407F9700590901D
:105AB80010800390900C7808121E3CE9C4C0E0786E
:105AC80029E65508F50808E65509F509740B78081C
:105AD800121F4AD0E02508F8906270E0A2E740F86B
:105AE800E8C333906272F0906270E0D2E0F0900305
:105AF800F0E0F874FF687003025DBDE812681624D0
:105B080002F8EF3401F988828983126890EA4B60C1
:105B18000FEE2401F582EF3401F583E0F91210A1AC
:105B2800EE2405F514EF3400F5158E828F83A3A3B8
