:020000040000FA
:0600000002011D02259E15
:03002B00022CACF8
:03003300022C7C20
:030053000226146E
:03006B00022C085C
:03007B00022C4C08
:1000830002248FE5C754F84401F5C7790122000023
:100093000080FB120086B90003020107E47921788E
:1000A30008B800028004F709D8FCE479297802B87B
:1000B30000028004F709D8FCE490028178E979070B
:1000C3008002F0A3D8FCD9FA781A90014D7A01BACC
:1000D30000028007E493A3F608DAF9900969AA827B
:1000E300AB8390014E781F79048015E493A3AC820F
:1000F300AD838A828B83F0A3AA82AB838C828D83A8
:10010300D8E9D9E77582667583AA740312012F753E
:100113008291758300740012012F75D00075813FA1
:10012300751881751902759F00020096C09FF59F8F
:10013300E473D09F22D083D082C09FE493C0E07445
:100143000193C0E0740293F59F2202FF0000B40004
:100153000028002800283075A000A000A000A000FF
:1001630000080008E001F00010001000100010006B
:100173001000100050005000500010001000D00775
:100183000000000000000F000100050030750700AB
:100193001000010081FF0000FF6A0688067006FF59
:1001A30002020208025000A0000000E803021490BB
:1001B300010000FA8F022A90010000BE0902049098
:1001C300010000B202022A90010000BF090206905A
:1001D300010000C802022A90010000C00902089031
:1001E300010000CA02022A90010000C109020A901C
:1001F300080000CB02022A90010000C209020C9001
:10020300010000C309FF0100FF2002149001000058
:10021300F78F022A90010000270A020E90000000C7
:10022300000002029003000018039A0C9A0C9A0C27
:100233009A0C9A0C9A0C9A0C9A0C9A0C9A0C9A0C8B
:100243009A0C9A0C700F880F6A0FFFFF02020202CA
:100253000202020202010D000000100102149001CB
:100263000000F48F022A900100006A0A022690011E
:1002730000007807022A900100006B0A0224900113
:100283000000138F022A900100006C0A02229001E1
:100293000000058F022A900100006D0A02209001E0
:1002A3000000B58E022A900100006E0A021E900122
:1002B30000007F8E022A900100006F0A0232900133
:1002C3000000918E022A90010000700A021C900126
:1002D3000000A38E022A90010000710A021A900105
:1002E3000000F78E022A90010000720A02189001A2
:1002F3000000730A01053F10FF000130750302017E
:1003030006000000000000000000000000000000E4
:1003130000000000000000000000000000FFFF06D6
:1003230000800CE803010101010101010101090938
:100333004C4F53542D424C45051228009001020A9C
:10034300000201060302F0FF09FF4C4F53542D42F4
:100353004C454C4F53542D424C45000000000000C7
:1003630000000000000000A813D213AE1308436876
:10037300617261637465726973746963203100101B
:10038300436861726163746572697374696320326F
:1003930000021490010000FD8F022A900100008BDF
:1003A3000B022E900300005A090200900100008CFA
:1003B3000B022A900100009D0B02309000000060A8
:1003C3000902029003000061090200900100009EEF
:1003D3000B0000000000000000000000000000000F
:1003E300000000000000000000000000000000000A
:1003F30000000000000000000000000000000000FA
:1004030000000000000000000000000000000000E9
:100413000000000000000000000100B0423BAAB849
:100423003F0000003F8C906339AA0CA33A00941E4E
:100433003C8042633DCFFE753E1572313FF3043578
:100443003F8096184B000080BF2292D43EDD9B2A4A
:100453003F04000040FFFF7F7FFFFF7FFF0100801D
:10046300341872313F0000803F120138069F031297
:1004730001381D9F031201384C9F03120138859FD9
:1004830003120138AD9F03120138DB9F03120138B9
:10049300F29F0312013809A0031201381FA00312AF
:1004A300013846A00312013859A0031201386FA086
:1004B3000312013882A003120138A7A003120138E6
:1004C3001E8B021201381D8C02120138528C02124B
:1004D3000138738C02120138838C02120138A48C08
:1004E30002120138B08D021201387D8E02120138DA
:1004F300F08E02120138768F02120138B98F021280
:100503000138F08F021201387690021201384891B7
:1005130002120138A69102120138BE91021201386B
:100523003892021201383B92021201383E920212B3
:100533000138E59202120138FD92021201382D931F
:10054300021201384D93021201383B940212013812
:10055300F194021201384CE30212013874E30212DF
:100563000138A2E302120138D9E30212013841E44F
:10057300021201388AE402120138D5E4021201386A
:1005830013E50212013850E5021201387EE502122A
:10059300013825E6021201382FE6021201383CE643
:1005A300021201386FE60212013831E702120138F4
:1005B3003DE70212013855E7021201385FE70212E4
:1005C300013833A70312013841A70312013859A791
:1005D3000312013871A703120138BAAE01120138B0
:1005E30058AF01120138D0AF01120138E5B0011242
:1005F30001381FB101120138C8B1011201389DB28F
:100603000112013801B40112013858B40112013842
:10061300DFB401120138C6B50112013813B6011255
:100623000138A1B601120138C5B6011201389AB8D2
:1006330001120138DBB801120138FDB8011201388B
:100643007EB90112013868BA011201382EBB0112BA
:10065300013827C802120138F9C802120138A2C9A9
:1006630002120138E5C90212013872CA02120138B6
:10067300FECA02120138DFCB021201380ECC02127D
:1006830001380ACD0212013852CD0212013854CE7C
:100693000212013898CE02120138BECE021201387E
:1006A300A0A8031201380080031201381680031238
:1006B30001383C80031201386481031201386E81D2
:1006C30003120138C78203120138C78303120138AA
:1006D300BAD402120138EFD50212013822D602121F
:1006E30001386CD6021201382AD80212013835902B
:1006F30001120138989001120138DD91011201387D
:10070300ED91011201381092011201385B9201122E
:100713000138009301120138F69301120138C09495
:10072300011201383896011201387A960112013804
:100733001897011201386597011201388B9701123E
:1007430001387999011201387E99011201385F9BB2
:1007530001120138B39B01120138159C01120138B3
:100763003D9C01120138E19C01120138A39D011245
:100773000138D49D01120138D79D011201381F9E03
:1007830001120138619E01120138C89E011201381D
:100793006E90031201388190031201389A9003126C
:1007A3000138E59003120138C091031201384F92CA
:1007B300031201389A9203120138D02C0012013827
:1007C300DC2C00120138152D001201385A2D0012AD
:1007D3000138112E00120138972E00120138FC2E19
:1007E30000120138282F00120138612F001201383E
:1007F3007531001201385133001201383C350012B3
:100803000138733600120138D33800120138BF396A
:1008130000120138053B00120138123C0012013866
:100823002F3C00120138673C00120138813C001252
:100833000138E93C00120138834100120138244297
:10084300001201387542001201389C42001201382F
:10085300EA42001201380843001201385C430012D7
:100863000138354400120138BC45001201384446B2
:1008730000120138A2DE02120138ACDE0212013886
:1008830077DF0212013892DF02120138B8DF021259
:100893000138FCDF0212013834E0021201385DE056
:1008A30002120138D6E002120138EBE002120138DD
:1008B30000E10212013837E1021201384BE1021262
:1008C30001387CE102120138B6E102120138E2E19B
:1008D3000212013838E2021201388CE202120138A6
:1008E300D5E202120138FFE20212013824E30212B8
:1008F300013806F502120138D0F502120138B3F6B9
:100903000212013829F7021201386BF7021201387B
:1009130098F80212013845F3011201386EF30112FF
:10092300013887F301120138CCF401120138AAF51A
:1009330001120138C9F50112013856F601120138C6
:1009430099F601120138E6F70112013885F8011210
:10095300013804FB011201389BFB011201386FFCC3
:100963000112013851FD01120138BDFE0112013897
:1009730050FF0112013851A203120138BAA2031227
:1009830001380EA30312013835A30312013895EC85
:100993000212013802ED021201384DED0212013844
:1009A30042EE021201383EEF0212013828F0021221
:1009B300013800A80212013842A8021201381CA90A
:1009C30002120138F5A902120138F0AA0212013805
:1009D300CFAB021201383BAC0212013802AD021256
:1009E30001386DAD02120138D4AD02120138FFADEA
:1009F3000212013870AE0212013803AF021201383D
:100A03006CAF0212013881AF02120138C9AF021272
:100A13000138E2AF0212013847B0021201384AB07E
:100A230002120138C9FC02120138F1FC021201382A
:100A33002FFD02120138EDFD0212013858FE021299
:100A4300013874FE021201389CFE02120138CCFEFA
:100A530002120138DBFE0212013855FF021201387F
:100A63007BFF02120138929F011201382FA101125C
:100A7300013815A301120138DFA30112013826A49E
:100A8300011201386DA4011201387FA4011201384B
:100A9300BFA401120138EEA4011201383AA50112D4
:100AA300013872A501120138A0A501120138F1A580
:100AB3000112013880A6011201386EA90112013812
:100AC30048AB0112013884AB01120138DEAC0112CC
:100AD300013825AD011201389AAD01120138E8AD94
:100AE300011201381FAE01120138FD9E02120138B6
:100AF3001A9F02120138B4A402120138B6A50212D9
:100B0300013830A702120138DEA702120138AB46C2
:100B130000120138F446001201382147001201384F
:100B23005447001201386147001201386D47001223
:100B330001387F4700120138544800120138B24887
:100B430000120138E74800120138834A00120138C5
:100B5300D04A00120138F44A00120138614B0012E6
:100B63000138064C00120138C24C00120138414DC5
:100B730000120138054E00120138144E00120138DC
:100B8300954E00120138344F00120138664F00129F
:100B930001380150001201385F500012013899509A
:100BA300001201381A5100120138E35100120138C2
:100BB3008C52001201381353001201386B53001288
:100BC3000138CC5300120138F55300120138AB54ED
:100BD30000120138F5550012013838560012013859
:100BE300555600120138745600120138BF560012D0
:100BF3000138E456001201380D57001201387C57B2
:100C030000120138BE5700120138C25800120138D1
:100C13005C5900120138285A00120138415A001257
:100C230001385C9502120138AF9502120138BB9569
:100C330002120138909602120138B7960212013857
:100C4300F296021201385E9702120138929702124D
:100C53000138CB9702120138E397021201383C980E
:100C6300021201385598021201389E980212013877
:100C7300B19802120138CB9802120138E19802129E
:100C83000138FD99021201380E9B021201385B9C58
:100C930002120138409D02120138EC7F0012013824
:100CA3005FE60112013893E601120138FEE90112F1
:100CB300013848EB0112013812EC011201389CEDA6
:100CC3000112013877EE01120138B1EE0112013839
:100CD300D4EE0112013816EF011201381FEF011291
:100CE300013869EF0112013873EF011201381FF067
:100CF30001120138F3F00112013847F101120138F2
:100D0300A9F101120138FCF1011201382BF2011291
:100D130001386AF201120138735A00120138CD62A8
:100D230000120138D362001201388E6800120138B4
:100D3300746C00120138D183031201384784031203
:100D430001385D84031201389A8403120138D28476
:100D5300031201384F85031201388A8503120138C3
:100D63000586031201384186031201384A860312AD
:100D730001385686031201387086031201389586AE
:100D830003120138AB8603120138D48603120138EB
:100D9300378703120138E0D902120138F3D902125E
:100DA30001380DDA0212013836DA0212013879DA23
:100DB30002120138B8DA02120138F6DA02120138E7
:100DC3005BDB0212013870DB021201387BDB02129B
:100DD300013888DB021201389FDB02120138ADDBD8
:100DE30002120138B8DB02120138C4DB02120138E7
:100DF300D7DB02120138E2DB0212013805DC0212F2
:100E03000138AEDC02120138BEDC02120138D8DC34
:100E130002120138F5DC0212013811DD0212013829
:100E230036DD0212013840DD0212013854DD0212B0
:100E3300013873DD02120138D4DD02120138DADD24
:100E430002120138E0DD02120138E6DD0212013838
:100E5300F2DD0212013825DE02120138E6CB01125F
:100E6300013868CC0112013811CD0112013859CE75
:100E73000112013867D0011201384DD10112013836
:100E830082D101120138A4D1011201384DD20112CD
:100E930001381DD40112013846D401120138BED4E1
:100EA30001120138F0D401120138FDD401120138C6
:100EB30048D5011201386CD501120138BDD7011292
:100EC3000138C7D80112013823D90112013863BD93
:100ED3000112013874BE0112013858BF01120138E2
:100EE30062BF0112013884BF0112013890BF0112A1
:100EF300013834C10112013861C10112013877C2CE
:100F030001120138CCC2011201381BC4011201388D
:100F1300F0C4011201384CC501120138B7C50112E2
:100F23000138ECC5011201382FC601120138F9C886
:100F33000112013811C901120138A2C90112013885
:100F4300B0C901120138FDC9011201380BCA0112DF
:100F5300013877CA01120138F2CA0112013849CBAC
:100F63000112013800800212013822800212013876
:100F7300338202120138F284021201381C860212F3
:100F83000138DA8602120138C687021201384D9DF4
:100F930003120138729D03120138E89D03120138D0
:100FA3000AC10212013813C1021201381CC1021214
:100FB3000138F4C102120138A5C302120138D5C3A6
:100FC3000212013800C40212013830C4021201387F
:100FD3005BC4021201388FC402120138BBC402126F
:100FE3000138FEC40212013829C50212013870C546
:100FF30002120138C5C50212013807C602120138B0
:1010030061C6021201388CC602120138DBC6021215
:1010130001380BC70212013836C70212013864C700
:101023000212013887C70212013829A903120138B5
:1010330055A90312013882A9031201388CA903129E
:1010430001389CA90312013833CF021201383DCF76
:10105300021201387ECF02120138C7CF02120138C3
:1010630001D00212013857D00212013878D002128F
:10107300013881D002120138D5D002120138FED0D6
:101083000212013808D10212013876D10212013856
:1010930006D20212013861D2021201388FD2021233
:1010A300013817D30212013856D3021201388BD3F9
:1010B300021201389DD302120138BCD30212013847
:1010C300C5D3021201388CD40212013868A403126A
:1010D30001385C9B03120138929B03120138C69BB3
:1010E30003120138139D031201380AA803120138B1
:1010F30020A8031201382AA80312013874A8031286
:10110300013807AA03120138F4E70212013807E88D
:1011130002120138C8E80212013807E90212013845
:1011230024E9021201385DE902120138AAE9021228
:101133000138DCE90212013813EA021201381CEC0F
:101143000212013888EC021201385FA5031201383C
:1011530082A503120138B1A503120138C9A50312F0
:1011630001380BA603120138B68A03120138DB8A51
:1011730003120138058B03120138BEAA031201388A
:10118300CD6C001201386C6E00120138176F00121B
:101193000138976F001201381C7000120138457036
:1011A30000120138207400120138977400120138BC
:1011B300AE7500120138E875001201382976001265
:1011C3000138707700120138C677001201380F78A2
:1011D300001201387E7800120138EA7800120138D3
:1011E3001B79001201383379001201384C7A00124E
:1011F30001385C7A00120138127C00120138297C14
:10120300001201385B7C00120138FD7D00120138A9
:10121300917E001201386EAB0312013814AB031236
:10122300013853AB031201385DAB0312013854A6E6
:101233000312013864A60312013879A60312013898
:101243002DA70312013866A303120138EBA303127F
:1012530001384FA4031201385699031201389999A2
:1012630003120138429A031201387C9A031201389F
:10127300DB9A03120138509B03120138539B03126C
:101283000138EAF00212013801F1021201387BF150
:10129300021201385FF20212013836F402120138E9
:1012A3009BF402120138F2F402120138F87F0012A3
:1012B30001380B95031201389B9603120138FC96F3
:1012C30003120138429703120138B9A003120138FF
:1012D3000BA1031201387EA103120138EBA1031203
:1012E3000138C49203120138EE9203120138BD9300
:1012F30003120138999403120138D4B80212013849
:10130300A0B902120138E1B9021201381BBA021264
:10131300013879BA02120138CDBA021201382BBB57
:1013230002120138C1BB02120138C9BC02120138D2
:1013330053BE02120138F1BE0212013858BF021225
:1013430001386BBF021201385FC002120138A8C016
:101353000212013870D901120138A2DC01120138DE
:1013630033DE011201388ADE01120138A7DE0112D1
:10137300013827DF01120138A3E00112013872E1BD
:1013830001120138DFE401120138C9E50112013805
:101393006EB00212013833B20212013803B30212E3
:1013A300013831B4021201388DB50212013836B654
:1013B300021201387BB602120138FAB60212013862
:1013C300F2B7021201380FB8021201382EB8021216
:1013D300013874B8021201387FB8021201386787E6
:1013E30003120138A88703120138C5870312013895
:1013F3003A88031201388D88031201387A8903125F
:1014030001387D8A03120138E1FF021201389A8DF7
:1014130003120138CF7E00120138A6A90312013846
:10142300459703120138C7FF01120138F2F802127F
:101433000138C3FF02E066701008A3E066700A0873
:10144300A3E066700408A3E06622C3E7960809E7F1
:10145300960809E7960809E79622C3E09608A3E0F1
:101463009608A3E09608A3E09622C008C3E096F589
:101473000808A3E096420808A3E096420808A3E000
:101483009645087001D3D00822080808E630E71112
:10149300121D521214A4080808C64480C61818184E
:1014A30022181818E9799EC608CAC608CBC608CC04
:1014B300C6C370207996CACBCC7019798ECBCC7009
:1014C300137986CC700EF9802ACA33CACB33CBCCBE
:1014D30033CC331930E7F2CCCBCA3350147004EA5F
:1014E30030E00DE4CA3ACACB3BCBCC3CCC5002092A
:1014F300C3E913C6CC182313C6CB18C6CA18C6F93A
:10150300228A088B098C0A8D0B780812154E20F05D
:101513001430E72B74FFFCFBFA747F8022E4FCFB9E
:10152300FA7480801AB48008BC00F2BB00EF800F0D
:1015330050EBF9E4C39AFAE49BFBE49CFCE499C600
:10154300CC18C6CB18C6CA18C6F922E4C9C608CA3D
:10155300C608CBC6D3330308CCC63392F0C3947FFB
:10156300402E94184019C9B90704CACBCC22502580
:10157300C309CA33CACB33CBCC33CC33D9F422F42B
:10158300600DC9CCC313CB13CBCA13CAD9F6CC2273
:10159300E4FCFBFA2214FCFBFA22E6C333184618D8
:1015A30046184622E7C33319471947194722181823
:1015B30018E6084608700AE608C3337005E633F4F4
:1015C300220822191919E7094709700AE709C333E1
:1015D3007005E733F4220922E6084608C3134608D8
:1015E300336002E633F422E7094709C3134709339B
:1015F3006002E733F4221215DB60251215EA60203E
:1016030012159D70030215A7080808E766701018E5
:1016130019E766700A1819E76670041819E7662255
:10162300F4221215DB601C1215EA601712159D7067
:10163300071215A77001D322C0D01215A77006D0C8
:10164300D0B322C32233D0D0501430E0F6C3E79690
:101653000809E7960809E7960809E796B32220E008
:10166300D5E6970809E6970809E6970809E697B3C8
:10167300221215DB601B1215EA601612159D700706
:101683001215A7600CB322C0D01215A77005D0D0D5
:1016930022C32233D0D0501330E0EBC3E7960809BE
:1016A300E7960809E7960809E7962220E0E4E6971B
:1016B3000809E6970809E6970809E6972200121534
:1016C300DB604F1215EA6012E7548066F61215B11B
:1016D30070111215A7703B090909F4F618F618F6EC
:1016E30018F6221215C6701512159D08080860EA2F
:1016F300E6447FF618768018E4F618F62212159D54
:1017030060161215A77012E4F608F608F608E654F8
:1017130080F609090918181822EAC0E0EBC0E0ECCA
:10172300C0E0EDC0E0E687F0A4FBACF008E687F08C
:10173300A42CFCE435F0FA1809E687F0A42C4B60DE
:10174300027401CA35F0FCE433FB09E687F0D2F7F3
:10175300A42CCB35F0FC1908E687F0A42BCC35F08C
:10176300FBE433FD0819E687F0D2E7A42C4ACB3516
:10177300F0CD3400FC09E687F0D2E7A42DCC35F098
:10178300FDE433FA0918E687F0D2F7A42CCD35F03F
:10179300CA3400FC08E687F0D2E7D2F7A42ACC3596
:1017A300F07A7E20E70B0ACB33CBCD33CDCC33CCD1
:1017B30033CB3350147004ED30E00ED2F1E4CD3D61
:1017C300CDCC3CCC3B5005DA05C2F1EB547FC6339C
:1017D30008E63392F0FBE73309E733C39A502D2B26
:1017E30070190C0D4C4D70151806E608C333700DB7
:1017F30020F10AA2F013F6E418800B4024E4F6303B
:10180300F002768018F618F618F68024D33B1450AD
:101813001074FFA2F013F6187680E418F618F68019
:101823000FA2F013F618E63303F618ECF618EDF6EC
:10183300D0E0FDD0E0FCD0E0FBD0E0FA221215EAC4
:1018430060461215DB603DE9687008F618F618F675
:1018530018F622748067F7121874090909748067EF
:10186300F7221215DB601D1215EA7005191919808C
:101873001A1215B1701F1215C6C37003E667331928
:10188300191940071818182208080874FFF618F6E3
:1018930018F618F6221215C660171215A7702192B2
:1018A300F012159D7019501720F014080808090943
:1018B30009E7F61819E7F61819E7F61819E7F622F3
:1018C30012159D60E6E869701F0808E62480F60893
:1018D300E436F618547FB47F0CE654806007F6E4D0
:1018E30018F618F622181822E9C6CC08C6CD08C681
:1018F300CE08C6CFC0E0E8C0E0EAC0E0EBC0E00934
:10190300E9F809E7FA09E7FBE6F918E6F8C3EC9802
:10191300ED99EE9AEBC2E7F5F0EFC2E795F0500EC2
:10192300600CEBCFFBEACEFAE9CDF9E8CCF8EAA2FA
:10193300E7D2E7FAEB33FB13F5F0EEA2E7D2E7FECB
:10194300EF33FFC5F013A2E730E601B313C5F0C3CD
:10195300C0E0C0F07F00C39BFB605B9418600C4049
:101963001AD0E023F9D0E0F8021A438AF0E948607C
:1019730003D2F0E4AFF0FAF9F8803BEB30E40D89E1
:10198300F0EA6003D2F0E4AFF0F9CAF8EB30E30D0C
:1019930088F0EF6002D2F0AFF0E4CAC9F8EB540765
:1019A3006014FBC3EA13FAE913F9E813F8EF1350D1
:1019B30002D2E0FFDBEDD0E0C0E030E739C3E49FC3
:1019C300FFF5F0EC98FC42F0ED99FD42F0EE9AFE43
:1019D30042F0D0E0F9D0E0F8E5F0607AE923F9EEDF
:1019E30020E742D8028067C3EF33FFEC33FCED33CB
:1019F300FDEE33FE80EAEC28FCED39FDEE3AFED035
:101A0300E023F9D0E0F84002801BC3EE13FEED1390
:101A1300FDEC13FCEF135002D2E0FF08B800067F81
:101A23007F74FF802EEF3350178CF020F00260108C
:101A33000CBC000C0DBD00080EBE000408E860DFFE
:101A4300E933E813FFEE2313FE4F4D4C8008E954AE
:101A530080FFE4FEFDFCEE33EF33F47004FCFD7E07
:101A630080D0E0FBD0E0FAD0E0F8D0E0CFC618CECB
:101A7300C618CDC618CCC6F9221215DB7004181887
:101A830018221215EA700D74FFF61819F61819F6D4
:101A93001819F622E7548066F612159D700F121579
:101AA300A770F014F608F608F608F680D11215A709
:101AB300700CF608F608768008E6447F80EC121571
:101AC300C9700C1215B460BFE65480F6E480BB12F3
:101AD30015B4700519191980A5E869700C763F18BB
:101AE300768018F618F6E8F922E6CDC0E018ECC0C7
:101AF300E0E633CD33CDD313F6E719FCE7191933F9
:101B0300CC33C3947F400ECD9D502408E65480F619
:101B1300E418F6800FF4043D14501408E6447FF6ED
:101B2300187680E418F618F6D0E0FCD0E0FD22CC5D
:101B3300D313CCFD18E4C6CBC0E018E4C6CAC0E09A
:101B43000808ED08C633E613F618E433C675F00348
:101B5300C3CA97CA09CB97CB199C40047D08802E32
:101B6300BD0003021C2516B6FF050606081618C39A
:101B7300CA33CACB33CB33CA27CA09CB37CB193CB9
:101B8300C37D08803E187D0820E75CC633C6CA3390
:101B9300CACB33CB33DDF1D5F0EB30E77BCA97CA41
:101BA30009CB974ACB199C406F4B7025E620E02167
:101BB3008066187D08C3CA97CA09CB97CB199CD3F3
:101BC300C633C6CA33CACB33CB3350C9DDE7D5F0EE
:101BD300E1D3E4C636C608C636C608C636C608C646
:101BE30036C61818188031C3CA97CA09CB97CB19C0
:101BF3009CB34097C633C6CA33CACB33CB33DD3429
:101C0300D5F02EC6A2E0C640C8CA27CA09CB3719E9
:101C13004A70BECB3CB480B90808E63308E63360AB
:101C23001F181818D0E0FAD0E0FBD0E0FCD0E0FD9C
:101C330022187D08CA27CA09CB37CB193CD3808029
:101C430013F618E4B67F11F618B6FF0EF618C6049D
:101C530070D20808768080CAF618F618F680C50890
:101C63000808EAC0E0EBC0E086F0E7A4FA180986AA
:101C7300F0E7A42AFA180986F0E7A42AFA180986D5
:101C8300F0E7A42AFA1986F0E7A4FBE5F02AFA198B
:101C93000886F0E7A42BFBE5F03AFA190886F0E78B
:101CA300A42BFBE5F03AFA18180986F0E7A4C5F06F
:101CB3002BFBE43AFA1908E7C5F0C6A426F6E5F0CB
:101CC3003BFBE43AFA1886F0E7A4F6E5F00826F6BB
:101CD300E43B08F6E43A08F6D0E0FBD0E0FA22E46D
:101CE300CFC0E0E4CEC0E0E4CDC0E0E4CCC0E0751A
:101CF300F020C3E633F608E633F608E633F608E6E3
:101D030033F6181818EC33FCED33FDEE33FEEF33E6
:101D1300FFC3EC9709ED9709EE9709EF9719191986
:101D2300400FFFEC97FC09ED97FD09EE97FE19199B
:101D330006D5F0BEECF709EDF709EEF709EFF71951
:101D43001919D0E0FCD0E0FDD0E0FED0E0FF22186E
:101D53001818E4C396F608E496F608E496F608E441
:101D630096F6226016080808C6C313C618C613C61B
:101D730018C613C618C613C6D5E0EA2270090808A8
:101D830008226016181818C6C333C608C633C60817
:101D9300C633C608C633C6D5E0EA22E627F60809E5
:101DA300E637F60809E637F60809E637F622E026AD
:101DB300F608A3E036F608A3E036F608A3E036F605
:101DC30022E026F008A3E036F008A3E036F008A3EB
:101DD300E036F022C3E697F60809E697F60809E627
:101DE30097F60809E697F622C3E096F008A3E09673
:101DF300F008A3E096F008A3E096F022E056F60878
:101E0300A3E056F608A3E056F608A3E056F622E050
:101E130056F008A3E056F008A3E056F008A3E056F6
:101E2300F022E0F608A3E0F608A3E0F608A3E0F644
:101E330022E6F008A3E6F008A3E6F008A3E6F02202
:101E4300E0FAA3E0FBA3E0FCA3E0FD22EAF0A3EBAE
:101E5300F0A3ECF0A3EDF022CAC0E0E6F0A308DAA9
:101E6300FAD0E0FA22CAC0E0E0A3C582CCC582C59D
:101E730083CDC583F0A3C582CCC582C583CDC5837D
:101E8300DAE6D0E0CA22C3E498F8E499F9121ECA4C
:101E93008026C3E49AFAE49BFBE920E7E9121ECA11
:101EA300E498F8E499F922C3E498F8E499F9121E46
:101EB300CAE498F8E499F9C3E49AFAE49BFB22EBA9
:101EC30020E7CFE920E7E0B90010BB0008E88AF07B
:101ED30084F8AAF022E4FBC8FA22EB70227B10C834
:101EE30033C8C933C9335007C39AC3DBF280069A98
:101EF30050012ADBEAC833F4C8C933F4C9FA22759E
:101F0300F008E4C833C8C933C933C99AC99B50041C
:101F1300C92AC93BD5F0ECFBC833F4C8E4C9FA229B
:101F2300600D08C6A2E713C618C613C6D5E0F32290
:101F3300600C08C6C313C618C613C6D5E0F42270D6
:101F43000422600D18C6C333C608C633C6D5E0F4F1
:101F53001822251810AF08F518400215198008F546
:101F63001840021519D2AF22C0D0251810AF08F5BA
:101F730018500205198008F51850020519D2AFD080
:101F8300D0222518F58210AF08F5184002151980E4
:101F930008F51840021519D2AF851983222518F5C3
:101FA30082E43519F58322E4732518C582C0E0E580
:101FB3001934FFC583C0E0E518C3958224F810AF38
:101FC300088583198582188008858319858218D22C
:101FD300AFCEF0A3E520F0A37808E608F0A3DEFA7D
:101FE300EFF0A3E58124FAF8E608F0A3E608F0A3EE
:101FF300E608F0A30808E608F0A3E608F0A31581B5
:102003001581D0E0FED0E0F8158115811581E8C077
:10201300E0EEC0E0222518C582C0E0E51934FFC513
:1020230083C0E0E518C3958224F910AF08858319AE
:102033008582188008858319858218D2AFCEF0A3D4
:10204300E520F0A37808E608F0A3DEFAEFF0A3E5B5
:102053008124FBF8E608F0A3E608F0A30808E608E5
:10206300F0A3E608F0A315811581D0E0FED0E0F8D7
:1020730015811581E8C0E0EEC0E02285198385183B
:1020830082E0A3FEE0A3F5207808E0A3F608DFFAD8
:10209300E0A3FFE0A3C0E0E0A3C0E0E0A3C0E0E072
:1020A300A3C0E0E0A3C0E010AF08858218858319C0
:1020B3008008858218858319D2AFD083D08202012C
:1020C30035851983851882E0A3FEE0A3F5207808FF
:1020D300E0A3F608DFFAE0A3FFE0A3C0E0E0A3C0BB
:1020E300E0E0A3C0E0E0A3C0E010AF08858218855C
:1020F30083198008858218858319D2AFD083D08253
:1021030022C0D02518C582C0E0E51934FFC583C0BD
:10211300E0E518C3958224F310AF088583198582FF
:10212300188008858319858218D2AFC8F0A3E9F017
:10213300A3EAF0A3EBF0A37908E709F0A3D8FAEC3C
:10214300F0A3EDF0A3EEF0A3EFF0A3D0E0F0A3D063
:10215300E0F0A3D0E0F0A3E520F0A3E5F0F0A322A4
:10216300851983851882E0C0E0A3E0F9A3E0FAA310
:10217300E0FBA37808E0F608A3DFFAE0FCA3E0FDA8
:10218300A3E0FEA3E0FFA3E0C0E0A3E0C0E0A3E080
:10219300F5D0A3E0F520A3E0A3F5F010AF08858305
:1021A300198582188008858319858218D2AFD08259
:1021B300D083D0E0F8D0E032740480067402800249
:1021C3007401C0E0F404121F85D0E0121E5B227478
:1021D30004800474028000CCC0E0EDC0E0E518C3C5
:1021E3009CCCAD1950011D10AF068C188D198006BB
:1021F3008C188D19D2AF121E68D0E0FDD0E0FC22FE
:10220300D083D082E9C0E0E493A3C386F0C5F09500
:10221300F0F908E493A386F0C5F095F0700BE4930E
:10222300A3C3994005E9048002A3E475F002A42541
:1022330082F582E5F03583F583D0E0F9E493A3C01A
:10224300E0E493C0E022D083D082ECC0E0EDC0E0B4
:10225300E493A3FCE493A3FDED4C600D122295ECF3
:1022630024FFFCED34FFFD80EFE493A3FCE493A390
:10227300FDED4C600D1222D4EC24FFFCED34FFFD88
:1022830080EFD0E0FDD0E0FCE493A3C0E0E493C092
:10229300E022C0E0C3E49396087401939618400FBC
:1022A300E49366700808740193661870007019A3AC
:1022B300A3C3E49396087401939618A3A3400DD087
:1022C300E0D0E0D0E0022285A3A3A3A3A3A3D0E0A0
:1022D30022C0E0C0F088F0E49366700808740193AC
:1022E30066187000A8F0A3A3700BD0F0D0E0D0E084
:0C22F300D0E0022285A3A3D0F0D0E022AE
:1023000074F5122018EAFEEBFFEE2434F8EF3400E7
:10231000F988088909EE2435122438F8EE2437129A
:102320002438F50AEC850AF0A4FCAAF0850AF0ED41
:10233000A42AFDE82CF8E43DF97A257B00121ECA98
:10234000EA850882850983F05407F87401B8000211
:102350008004C333D8FCC0E0E0131313541FF8EE1D
:1023600028F8EF3400F9E8245DF582E93400F583BC
:10237000D0E0F8E0586008850882850983801DEE6A
:102380002436122438F5F0EA84A8F0EE28F8EF3469
:1023900000F9E82438F582E93400F583E0F97F0498
:1023A0000220C474F5122018EAFEEBFFEE2434126A
:1023B0002438C0E0EE2435F582EF3400F583D0E018
:1023C000F08E828F83A3A3A3A3A3E0FAA3E0FB8EE6
:1023D000828F83A3A3A3A3A3A3A3E0FCA3E0FDECAC
:1023E000C39AF50AED9BF50BEE2480F508EF340057
:1023F000F509850882F583E06401702BEE2481F5F0
:1024000082EF3400F5831221D61224417402121F88
:102410006BE960137CFD7D04EEFAEFFB120BC885BF
:102420000882850983E4F0AC0AAD0BEEFAEFFB12EB
:102430002300122BFA02239EF582EF3400F583E08D
:1024400022C082C083851882851983E0F8A3E0F951
:10245000C3EA9CEB9D5012C3EC98ED994019C3EA76
:1024600098EB99501279018010C3EA98EB9940F5E6
:10247000C3EC98ED9950EE7900D083D08222EAC364
:102480009CFAEB9DFB2200008521878522C622C095
:10249000E074EF122104759B00906182E0A2E64097
:1024A00003022550E591A2E640030225507591BF35
:1024B0009003C2E064057008120D66120D7280036D
:1024C000120D6C752100120DDEE99003C3F0790046
:1024D000120DD2120B327A017B009003C1E0F91287
:1024E00010A2907803E06442600302259990055F92
:1024F000E014F06003022599C2AF1224FD00782A8F
:10250000D0E0F618D0E0F6E59F5407F97005908FFB
:10251000748003908F707808121E25E9C4C0E0789B
:1025200029E65508F50808E65509F509740B7808F9
:10253000121F33D0E02508F8906270E0A2E740F85F
:10254000E8C333906272F0906270E0D2E0F08049AC
:10255000E0A2E55024E591A2E5501E7591DF9003BD
:10256000C2E0640D70139003E4E004F0642870028C
:10257000E4F07A00E0F9120E50906181E0A2E3509D
:1025800009E5E9A2E3500375E9F7A3E0A2E75009E2
:10259000E591A2E7500375917F7F04022163C0E0BB
:1025A000C0D0C082C083906183E0A2E05009E5BF43
:1025B000A2E0500375BFFEE0A2E15009E5BFA2E131
:1025C000500375BFFDE0A2E25009E5BFA2E250034F
:1025D00075BFFBE0A2E35009E5BFA2E3500375BF5E
:1025E000F7E0A2E45009E5BFA2E4500375BFEFE0B5
:1025F000A2E55009E5BFA2E5500375BFDFE0A2E602
:102600005009E5BFA2E6500375BFBFD083D082D08A
:10261000D0D0E032C0E074F2122104E5A7A2E45069
:102620000FE5A1A2E4500953A7EF75A1EF122668A8
:10263000E5A7A2E5500CE5A1A2E5500653A7DF757A
:10264000A1DFE5A7A2E15009E5A1A2E1500375A130
:10265000FDE5A7A2E2500CE5A1A2E2500653A7FBBC
:1026600075A1FB7F0102216374F812201875210106
:102670009003C2E0640670077A007B00120D4EA240
:10268000AFE433FED2AF9003C8E0640170187A2043
:102690007B009003C1E0F912112C7A207B0090039B
:1026A000C1E0F91210A8906182E0D2E6F090055ED8
:1026B000E0602185C62280169003C7E0640170089F
:1026C000E5C654F84405F5C653BEFC1224887401CF
:1026D000652160E4EEA2E092AF7F010220C4000019
:1026E0008E238F24858228858327851882851983E8
:1026F000E0CEA3E0CF852882852783EBC9EAC8ED29
:10270000CBECCA75F010C3E833C8E933C9EA33CA61
:10271000EB33CBC3EA9EF526EB9FF525B35004AB14
:1027200025AA26EC33CCED33CDD5F0DAAE23AF2499
:102730002274E912201874FA121F55EAFEEBFF8C7E
:10274000088D099003C2E024F7C394055006908FCA
:10275000E0022858120CCA8A0A8B0BEA450B700358
:10276000022855120D848A0C8B0D120D84EA650C1B
:102770007003EB650D60ECEEFCEFFD8518828519AA
:1027800083AA82AB83120D8A850A82850B83A3A359
:10279000780C121E25908FC4780C121DFF851882AC
:1027A0008519837814121E25908FC47814121DFF8A
:1027B000780C791412144D501F780C7914121DD70F
:1027C000908F68780C12146D4047850C10850D11A0
:1027D000850E12850F1380418514108515118516FD
:1027E000128517137810790C121DD7908F68781006
:1027F00012146D501C7510007511007512007513C0
:102800000178107914121DD77810790C121D9E8052
:1028100008908FE07810121E2574097810121D7F21
:10282000908FD8780C121E257810790C121CE2902B
:1028300003C2E06408600AE064066005E0640570B5
:102840001C908FC8781012146D5012908F6C7810F5
:10285000121DB18008908F907810121E2585088275
:102860008509837810121E347406121F6B7F1002C4
:1028700020C474F7122018120D9C90055CE06401CE
:102880007010906245E4F0A3F053F4F343FE0C5350
:1028900090F3120D3CE5C654804449F5C6E59E54BC
:1028A0007F644970F8906185740FF090055AE0F4E8
:1028B0007002A3E0602C75080175090090055AE0CC
:1028C0007808121F42E508F4FAA3E0600814600AD1
:1028D00014600C800DEA52808008EA52908003EA6E
:1028E00052A079007F020220C474F7122018E9FE7A
:1028F000EAFF74016E700C7A807B009003C1E0F9EE
:102900001210A2902CC8E493F46008E493F9120B1F
:1029100014800953C680E59E547F70FA120D4290D0
:10292000055CE064017003120B4A90055AE0F470F4
:1029300002A3E0602A75080175090090055AE07845
:1029400008121F42AA08A3E0600814600A14600C71
:10295000800DEA42808008EA42908003EA42A01299
:102960000CCA8A088B09A808A909E8496017E5E19B
:1029700070FCE82414F582E93400F583E0F874FF74
:1029800068600288E174016F700A7A019003C1E007
:10299000F91210F60228E474F11220188A088B0943
:1029A0008C0A8D0B740F121FA0780C121E25908FAD
:1029B000C47808121DFF908FC4780C121DFF780890
:1029C000790C12144D50157808790C121DD7908F80
:1029D00068780812146D401579018013780C790815
:1029E000121DD7908F68780C12146D40EB79007F20
:1029F000080220C474ED1220188A088B098C0A8DF5
:102A00000B7413121FA0780C121E25908FC4780827
:102A1000121DFF908FC4780C121DFF780C790812DC
:102A2000144D40117808790C121DD7AA08AB09ACD7
:102A30000AAD0B8022751000751100751200751318
:102A4000017810790C121DD778107908121D9EAAF2
:102A500010AB11AC12AD137F0C0220C4908FC47860
:102A600008121E258A828B837808121E127F0402A8
:102A700020C474F51220188C828D837808121E25CC
:102A80008A828B837808121DEB122AC6C3E098F065
:102A9000A3E099122AB8401E908FEC7808121E25E8
:102AA0008A828B837808121DC48E828F83E0242053
:102AB000F0A3E0344EF080A4F08E828F83C3E094C4
:102AC00020A3E0944E22EA2404F8EB3400F9E8FE57
:102AD000E9FF8C828D83A3A3A3A3E0F8A3E0F98E82
:102AE000828F832274F5122018E9FE900514E0FA13
:102AF000A3E0FBEEC333F8E433F974E728F58274FE
:102B00008E39F583E02AF508A3E03BF50978081231
:102B100021BF908FE8121E431226E07402121F6B31
:102B20008A088B098C0A8D0B74107808121D66AA0E
:102B300008AB097F040220C474F11220188A0C8BA0
:102B40000D8C0E8D0F740F121FA0E0FAA3E0FB7422
:102B500011121FA0E0F508A3E0F5097413121FA0DD
:102B6000E0FEA3E0FF78081221BFEA2401F508EB9C
:102B70003400F509E4F50AF50B780C7908121C62AB
:102B8000908F787808121E25780C7908121C62AA9A
:102B90000CAB0DAC0EAD0F1226E07402121F6B8B46
:102BA00009EA450960047A0180027A00EC2AFCED0A
:102BB0003400FDECF8EDF97A717B02121ECA880828
:102BC0008909E4F50AF50B8E828F837808121E348A
:102BD000ECF8EDF97A717B02121ECA8A088B09742F
:102BE000057808121F428E828F83A3A3A3A3E50852
:102BF000F0A3E509F07F080220C4C082C083E990F9
:102C00006000F0D083D08222C0E074F2122104A2CE
:102C1000AFE433FED2AFE589A2E04012E589A2E13C
:102C2000400CE589A2E24006E589A2E450031212B5
:102C300070758900758900758900758900C2C57530
:102C40001A00EEA2E092AF7F01022163C0E074F2AD
:102C5000122104A2AFE433FED2AFE58AA2E4400C15
:102C6000E58AA2E54006E58AA2E6500312127075D5
:102C70008A00758A00758A00C2EB80C3C0E074F2D6
:102C8000122104A2AFE433FED2AFE58AA2E4400CE5
:102C9000E58AA2E54006E58AA2E6500312127075A5
:102CA0008A00758A00758A00C2E88093C0E0C0D0AF
:102CB000E8C0E0E5A8D2AFC2C7751A00A2E792AF9C
:102CC000D0E0F8D0D0D0E032FFFFFFFFFFFFFFFFE2
:102CD000C082C083E9900A26F0022F5474F7121FB5
:102CE000ACE99002E0F07C187D037AFF7BFF1208CC
:102CF0004A9002E174FFF0A3F0A3E4F0A3F0790599
:102D00001207D29002E0E0F91206FA7A687B081204
:102D10000A2A023C6274F4121FAC8A088B09EB5435
:102D20008060309002E0E0F912108A8A0A8B0BAEC4
:102D30000AAF0BEE4F60138E828F83E064B0700396
:102D40001207EAEEFAEFFB121078AA08E509648090
:102D5000FB80047A007B00022F2374F2121FAC74F4
:102D6000FC121F55EAFEEBFF7412121FA01241491C
:102D7000EE4F7003022DFD7402121FA0EEF0A3EFC0
:102D800012315EECF0A3ED12315EAA82AB83120623
:102D9000F4E9F50A706AE508450960648E828F835C
:102DA00012412FEE4F60567A067B001210DE8A0C1D
:102DB0008B0DA80CA90DE8497005750A1380418890
:102DC000828983E4122E0AEEF0A3EF12415AE5083D
:102DD000F0A3E509F09002E6122E919002E670054C
:102DE000123C0C801B123BFA8003EAFCEBFD8C8248
:102DF0008D83122E9170F38C828D8380E3750A028D
:102E0000A90A7404121F6B024349F0A3124100A3E4
:102E10002274F2121FAC890AE975F017A4FEAFF014
:102E20009002E5E4F09002E3122E91600A1210E4A1
:102E30009002E3E4F0A3F0EEFAEFFB1210DE8A0852
:102E40008B09EA4509602FEEFCEFFD790012106650
:102E50009002E3E508F0A3E509F07B008008122E5C
:102E60007BE4F0A3F00BEBC3950A40F2E50A900275
:102E7000E5F0790080027913024349EB75F017A45D
:102E8000F8A9F09002E3E028FAA3E0398A82F583FA
:102E90002212389EEA4B2274F4121FAC740C121FDB
:102EA000A0124124FEE9FF750800750900800CE5B9
:102EB000082401F508E5093400F509C3E5089CE597
:102EC000099D503285080A85090B7403780A121F80
:102ED00042EA250AF8EB350BF988828983A3A3A37C
:102EE000A3A3A3123CE1EE650A7003EF650B70BF6C
:102EF000E8FAE9FB80047A007B00802774F4121F53
:102F0000AC7900EAA2E0501B75084675098F780875
:102F10001221BF7C047D007A287B0A1207CC740240
:102F2000121F6B7F0402207EC082C0839002E612D3
:102F30002F5B601C88828983A3A3E06A7003A3E0EF
:102F40006B8882898370E8A3A3A3A312389A8004B4
:102F50007A007B00D083D08202013512442FE849E9
:102F60002274EE121FAC74FC121F55EAFEEBFF85B3
:102F70001882851983E4F0A3F0EE2402123BECEEF4
:102F80002405124107EE2404F50EEF123513E02458
:102F9000FE603924FC604624FE605224FE605E24FC
:102FA000FE700302307424FE70030230D824FE70D9
:102FB000030230E724FE70030230F624FC700302A3
:102FC000310524FE70030231140231519002FF7466
:102FD00017F0A3E41231661204720231518518828F
:102FE000851983AC82AD831207F0023121851882E6
:102FF000851983AC82AD831207F6023121850C0856
:10300000850D097402121FA0AC82AD8385088285EC
:10301000098312389A1207188A0C8B0DAC0CAD0D6F
:10302000EC4D603BE4F50CF50D780C1221BF750CEE
:10303000FF750D02780C1221BF750C00750D037819
:103040000C1221BF7408121FA01221D61245AB1218
:103050001F6BE9F50C700B12389012048A800F7503
:103060000C01850882850983123154123C0C850CB1
:10307000080231247402121FA0AC82AD83850C8239
:10308000850D83123665603C850C82850D83A3A374
:103090001221D67510FF75110278101221BF75101C
:1030A0000075110378101221BF7408121FA012219D
:1030B000D61245AB121F6BE9F509700B123890124E
:1030C0000490800F750901850C82850D831231549F
:1030D000123C0C850908804C851882851983AC82C6
:1030E000AD831207FC803A851882851983AC82ADC6
:1030F00083120802802B851882851983AC82AD83E8
:10310000120808801C851882851983AC82AD831251
:10311000080E800D851882851983AC82AD83120854
:1031200014E9F508E50860298E828F83A3E0641412
:10313000601F850E82850F83E09002FF12315E12C0
:10314000442B900300123C0CE508A31231661204D4
:103150006C023AFB12442F85188285198322F08570
:10316000188285198322F07CFF7D02850A82850BF7
:103170008312389E2274EE121FAC74FC121F558A03
:103180000A8B0B8C0E8D0FEA2405F508EB3400F545
:10319000097C157D0079007AFF7B02121066E50834
:1031A0002402F50CE50912410A85188285198385E8
:1031B000821085831178101221BF850882850983CA
:1031C000A3A3A3A312365C1221BFE5082405F510C2
:1031D000E5093400F51178101221BF850C82850DA8
:1031E000831239B11207127406121F6B8A108B11E9
:1031F000AE10AF11E50A2402F50AE50B123BEFEE23
:103200004F700302333380177402121FA012389AD2
:1032100088828983EAF0A3EBF09002FFE004F0904B
:1032200002FFE0C394054003023333E4F510F511C7
:1032300078101221BF7510E875110278101221BFA5
:103240007510E975110278101221BF7406121FA0C3
:103250001221D67910EEFCEFFD1245AD121F6BE97D
:10326000705E850882850983A3A3A3A3A3A3A3E01B
:10327000F89002E8E068704812365C1221BF7CE9E1
:103280007D02E5082408FAE5093400FB1210607499
:1032900002121F6BE960298E828F83A3A3A3A3125E
:1032A000389A9002FFE0F51074027810121F4274F1
:1032B000002510F58274033511F583EAF0A3EBF0D5
:1032C0007402121FA085821085831178101221BF0D
:1032D0007402121FA01221D6850C82850D8312382C
:1032E000C0121F6B8A108B11AE10AF119002FFE05D
:1032F000F51075110074027810121F4274FF25102A
:10330000F874023511F988828983A3122E91700313
:103310000231FFE82403080808E93400F9EE4F60A1
:10332000030232088882898374FFF0A3F09002FFC1
:10333000E004F09002FFE0600A12389012047E79F7
:1033400000800B850882850983123C03790A023AC2
:10335000FB74EA121FAC74FE121F558C128D13EA17
:103360002405F50CEB1245951241337508007509DB
:1033700000EA2402F510EB3400F511851882851956
:103380008385820A85830B780A1221BF850C82858A
:103390000D83A3A3A3A31235291221BFE50C240595
:1033A000F50AE50D123BEF780A1221BF850C8285E4
:1033B0000D8312352D1207127406121F6B8A0A8BA9
:1033C0000BEA450B70030234CEEA2404F50EEB122F
:1033D00035131241338A828B83A3A3A3E0F98510AE
:1033E000828511831238A460030234CEE4F514F50B
:1033F0001578141221BF7514E8751502781412217E
:10340000BF7514E975150278141221BF7406121FD6
:10341000A01221D67913AC0AAD0B851082851183D9
:103420001245B3121F6BE9F50960030234CE900216
:10343000E8E0F8E5087009E02402900300F0801449
:10344000900300E0FCE82402FAE43400FBEA6C702C
:1034500001EB707E850882AA8212365394141236CC
:103460004B506B850E82850F83E0C0E074012A12F9
:10347000350AD0E0F00508850E82850F83A3E0C0F1
:10348000E085080A7401250A12350AD0E0F0050823
:103490009002E81235291221BF7CE97D0285080AD5
:1034A0007401250A12351D121F6B9002E8E02508F1
:1034B000F50874FF6E700374FF6F6012EE24010E46
:1034C000EF3400FFE508C39414500302337BE50892
:1034D00060131238AE85108285118312389A120457
:1034E0008479008014E509700375090A85128285C4
:1034F0001383EEF0A3EFF0A9097402121F6B7F0E85
:1035000002207E85080C7401250CF58274033400BA
:10351000F583223400F50F850E82F58322FA7403B9
:103520003400FB12104E74022212416922A3A3122E
:10353000353322123BFAFDEEFAEFFB2274EE121F36
:10354000AC74FE121F558C0E8D0FEA2405F50CEBA2
:1035500012410A750B009002FFE4F0F50AEA24021A
:10356000F508EB3400F50980449002FFE0FA900280
:10357000E8E0F8123653941712364B400D9002FFD4
:10358000E0F87416C3989002E8F012365C1221BF7E
:103590007CE97D0274002AFA7403123520121F6B35
:1035A0009002E8E0F89002FFE028F0050AE50C241C
:1035B00016F582E50D12350EE0F8E50AC398507451
:1035C0009002FFE0C39416506BE50AC333F8E4336E
:1035D000F9E50C28FEE50D39FF851882851983ACC5
:1035E00082AD838E828F831236657008750B01124F
:1035F0003BFF8050E4F510F51178101221BF7510D3
:10360000E875110278101221BF7510E97511027862
:10361000101221BF7406121FA01221D67916850838
:10362000828509831245B3121F6BE9F50B70030203
:10363000356980BB7CFF7D0285088285098312384D
:103640009A120496A90B7402023AFDE99400C3652C
:10365000D03322EA28F8E43400F9E822E0F51075C6
:103660001100781022123AF28A108B11AC10AD11B1
:10367000EC4D2274EA121FAC74FC121F558A0C8B9D
:103680000D8C128D13EA2405F50AEB123BEF750839
:1036900000750900E50A2402F510E50B3400F51168
:1036A0007402121FA085820E85830F780E1221BF2F
:1036B000850A82850B83A3A3A3A312410F1221BF06
:1036C000E50A2405F50EE50B3400F50F780E1221FE
:1036D000BF851082851183123BF5123894120712B0
:1036E0007406121F6B8A0E8B0FAE0EAF0FE50C2403
:1036F00002F50EE50D3400F50F8038888289837459
:10370000FFF0050812350374FFF005089002E8E0A9
:10371000F50C750D00780C1221BF7CE97D0285083F
:103720000C7401250C12351D121F6B9002E8E02568
:1037300008F508EE4F60278E828F83A3A3A3E0F9DC
:10374000850E82850F831238A4EE2404124107E906
:103750006027850C82850D83123886123C0CE508A3
:10376000700302386C1238AE850E82850F831238D2
:103770009A12049C7900023881E4F514F515781446
:103780001221BF7514E875150278141221BF751443
:10379000E975150278141221BF7408121FA01221B6
:1037A000D67911EEFCEFFD850E82850F831245B3AD
:1037B000121F6BE9F509709A850882AA82EA9002C5
:1037C000E87009E02404900300F08025E0F89003FD
:1037D00000E0F514E82404FCE43400FDEC6514700A
:1037E00001ED7081123653941212364B40030237AA
:1037F00065850C82850D83E0C0E074012A12350ACC
:10380000D0E0F00508850C82850D83A3E0C0E012AE
:103810003503D0E01238C985820C85830D780C12EF
:1038200021BF7404121FA01221D685108285118336
:103830001238C0121F6B8A0C8B0DAE0CAF0D8508B1
:103840000C7401250CF874033400F9EE4F70030278
:1038500036FB851882851983E0888289831238C9EE
:10386000A3E0C0E0123503D0E0023709E509700398
:1038700075090A850A82850B83123886123C0CA9C9
:103880000974040234FB12442F85128285138322AB
:103890007CFF7D02850A82850B8312389E22E0FA26
:1038A000A3E0FB2212389E120700E9F509229003DB
:1038B00000E0F5F0E508849002FFF07CFF7D022235
:1038C00012353312071E740422F00508851882850C
:1038D00019832274EC121FAC74FE121F558A088BD8
:1038E000098C0E8D0FEA2405FEEB3400FF123ADC42
:1038F000EE2418124107EA450B700302397F123A91
:10390000C550291239A48A108B11EA4511606B79D0
:1039100012AC0AAD0B85088285098312389A85108E
:1039200082851183121FAAE9F50A7058E4F50AF599
:103930000B780A1221BF8E828F83A3A3E0F50A7849
:103940000A1221BFEE2403123BEC780A1221BF8E2B
:10395000828F831239B11208387406121F6BE9F591
:103960000A7021850C82850D83E0701F8508828591
:10397000098312389A1204A28011750A0E80097503
:103980000A018004E50A6003123BFF850C82850D65
:1039900083E0600479008002A90A7402121F6B7F21
:1039A0000C02207E85188285198312389E12082603
:1039B00022123BFAFD85088285098312389E227403
:1039C000EE121FAC74FE121F558A088B098C0C8DE9
:1039D0000DEA2405FEEB3400FF750E00123ADCEA16
:1039E000450B7003023AA3123AC5502C1239A48A2F
:1039F0000E8B0FEA450F604A7912AC0AAD0B8508B1
:103A00008285098312389A850E82850F83121FAA38
:103A1000E9F50E6003023AA6850882850983123C07
:103A2000E1AA0AFB123AB770147AFF7BFF123AB789
:103A3000606C88828983E50AF0A3E50BF0750A00C3
:103A40008007750E0E805F050A9002E5E0FAE50A30
:103A5000C39A504AE50A75F017A4FAABF088828938
:103A600083A3A3E02AFAA3E03BFB8A828B83123B69
:103A7000F5EC4D70D2750A17750B00780A1221BF4C
:103A8000EEFCEFFD12104E7402121F6BEEFCEFFD08
:103A900085088285098312389A1204A88014750E4D
:103AA000098003750E01124427850C82850D83124F
:103AB0003C0CA90E02364612081A8A108B11A81067
:103AC000A911E84922E5082402F508E5093400F5C2
:103AD000098A828B83A3A3A3E0A2E52285188285AD
:103AE0001983AC82AD838E828F83123AF28A0A8B5D
:103AF0000B22E0FAA3E0FB120718227404121F6BDA
:103B00007F0A02207E74EC121FAC8C108D11EA2407
:103B100005F50CEB12410A750F00EA2402F50AEBD9
:103B2000123BEF850A82F58312389A1246397003E8
:103B3000023BE1750E008071850C82850D83E06487
:103B400001704F8E828F83A3A31221D68E828F8322
:103B5000A3A3A3A3E0F51275130078121221BFEE00
:103B60002405F512EF3400F51378121221BF123834
:103B7000941208387406121F6BE9F50F6014850C57
:103B800082850D83E4F0124427851082851183120B
:103B90003C0C7C177D007900EEFAEFFB1210668E6C
:103BA000828F83E4F0A3F0050E9002E5E0F8E50EC5
:103BB000C398501EE50E75F017A4F8A9F085088289
:103BC000850983A3A312459F123BF5EC4D600302C8
:103BD0003B3885088285098374FFF0A3F0E50F70F8
:103BE000061238941204AEA90F02399FF50AEF3479
:103BF00000F50B22A3123BFAFD22E0FCA3E0228E8B
:103C0000828F8312442F850E82850F83E8F0A3E90B
:103C1000F022C082C0839002E1E06A7003A3E06BEF
:103C200070067AE17B0280047A007B00022F5474D4
:103C3000F7121FAC7F00EF75F003A4F8A9F0EC2891
:103C4000F8ED39F988828983E06A7003A3E06B702C
:103C500006E8FAE9FB800B0FEFC3940240D87A0024
:103C60007B007F0102207E74F6121FAC1242187096
:103C7000067A007B008007A3A3A3A312389A02420E
:103C8000D974F2121FACE9FE740E121FA0123CE1AF
:103C90007410121FA01241498C828D83E06402705F
:103CA0003BA312442B88828983E0F50CA3E0F9A89A
:103CB0000C74026870037429697021750C02750D0B
:103CC00000780C1221BF78081221BF780A1221BF98
:103CD000EEF912085C7406121F6B80027901024330
:103CE00049E0F50AA3E0F50B2274E8121FAC74FB5F
:103CF000121F55E9851882851983F08A168B178C57
:103D00000E8D0F741F121FA01241497421121FA0A3
:103D1000123CE17423121FA01241337510008C82F3
:103D20008D83A3A3A3E0A2E4502A741D121FA01246
:103D300039AA8A828B83E58245837003023DF57937
:103D40000AAC0EAD0FAA16AB17121FAAE9F5106048
:103D500003023DF8850E82850F83E0640260030252
:103D600040AEA312442B850882850983A385821265
:103D7000858313E50E2406F50CE50F12410A8882AF
:103D80008983E0FAA3E0F9EA2400F514E439F51593
:103D90007814122249010000280128BD3D070002C5
:103DA00028943E0328043E0029BE3F0129E63F0235
:103DB000298D3F0329BE3F04294F40AE40EE4F708E
:103DC0003E850C82850D83124124FAE9FB8A828BA1
:103DD00083E0850A82850B831241601221BF8A82AB
:103DE0008B83A3123BFAFDAA08AB0912104E740292
:103DF000121F6B800375100EA910740502458D7596
:103E0000100B80F4EE4F70F7850A82850B837401E6
:103E1000F0124139850882850983F07C007D008598
:103E20000E82850F83A3A3A3A3E02401FAA3E034A9
:103E300000FB120718EA4B60418A828B83E0240260
:103E4000F8850A82850B83E028F0EA2404F8EB3435
:103E500000F988828983E08512828513831241727A
:103E60001241601221BF8A828B83123BF4E5082441
:103E700003FAE5093400FB023DEB850A82850B83DA
:103E8000E02404F07C047D007900AA12AB13121028
:103E900066023DF8EE4F6003023DFF124139FEA37A
:103EA000E0FF850A82850B837404F0EE8508828525
:103EB0000983F0EF851282851383F07403121FA02B
:103EC000AC82AD83EEFAEFFB1242067003023F6A4A
:103ED0008A828B83A3A312412F7401121FA08582B3
:103EE0000E85830F780E1221BF7405121FA01221B8
:103EF000D67CFF7DFF12071E7404121F6B8B0FEA26
:103F0000450F7033850C82850D8312410F1221BF3E
:103F1000850C82850D83A31221D67C027D007A1246
:103F20007B9012054A7404121F6BE9700A74011227
:103F30001FA074FFF0A3F08E828F83E064027034C0
:103F4000750C02750D00780C1221BF8E828F8312C2
:103F50003BF4E5082404FAE509123520121F6B85AD
:103F60000A82850B83E0240280097401121FA0EEEF
:103F7000F0A3EFF07401121FA0124120F07401129F
:103F80001FA0A3124118A3A3A3F0023DF8EE4F60B7
:103F900003023DFF850C82850D83123BF5AA16AB0B
:103FA00017120850850A82850B837402F0EA85088F
:103FB00082850983F0851282851383EB80CBEE4FD7
:103FC0006003023DFF124139F8A3E0F9850A8285BA
:103FD0000B837402F0E8850882850983F0E9851275
:103FE0008285138380A3850C82850D8312389A12F3
:103FF0001048EAFC8C82A882C39EE49F404BE86E86
:104000007001EF70047C00801F851882851983E0A1
:10401000FAEE2AFAEF3400FBC3EA98EB940050035F
:10402000E08004EECCC39CFCEC850A82850B83F017
:104030008C0A750B00780A1221BF850C82850D83CE
:10404000E02EFCA3E03F023DE6751007023DF8EECE
:104050004F6003023DFF850C82850D8312442B8542
:104060000A82850B837407F08882898312411812B3
:104070004100E0851282851383F0E82402FAE934D6
:1040800000FB8A828B83124118124151124120A3F6
:1040900012415A124129F0E82405F8E93400F98860
:1040A000828983124129A3124172A3023F86741DA3
:1040B000121FA01242117003023DF512442B880C0E
:1040C000890DE8450D7003023DF58E108F117810B3
:1040D0001221BF780A1221BF78081221BF7406127C
:1040E0001FA0E0F9AC0EAD0FAA16AB17850C8285A8
:1040F0000D83121FAA7406121F6BE9F510023DF81A
:10410000F088828983A322F50CEF3400F50D22E0BC
:10411000F50E750F00780E22E0850882850983224E
:104120001241792212442FE822124179A3A322A33B
:10413000A3A3A3E0FEA3E0FF22850C82850D83E00C
:10414000F8A3E0F5838882E022E0F508A3E0F50912
:1041500022A3A3F08A828B83A322122E0CA3A32274
:10416000F08A828B8312416922E0F50A750B007890
:104170000A2212410012417922E0850882850983D2
:10418000A3A32274EE121FAC74FE121F558A0A8B71
:104190000BECFAEDFB7414121FA0E0F510A3E0F590
:1041A000117416121FA0E0FE7418121FA0E0F50E85
:1041B000A3E0F50F851882851983AC82AD83124286
:1041C00006603E851882851983124211602FA3A3D1
:1041D000124149E50845096024780E1221BF781084
:1041E0001221BFEEF9AC0CAD0DAA0AAB0B8508820B
:1041F000850983121FAA7404121F6B8006790E8032
:104200000279010236461207188A0C8B0DEA450D19
:104210002212389E124218221207E48A828B83E50A
:104220008245832274F6121FAC74FE121F55740C63
:10423000121FA0124124851882851983F07401127F
:104240001FA0E9F0E4F508F50978081221BF750808
:104250000278081221BF7404121FA085820885838A
:104260000978081221BF1208387406121F6B7402F5
:10427000121F6B806474F7121FACEAFEEBFF890813
:104280007C187D03120850EA5402600BA908EEFA6C
:10429000EFFB12070C80027901023C6274F6121FD8
:1042A000AC74FF6A700374FF6B701C7B00EB75F0DD
:1042B00003A4F8A9F0EC28F8ED39F91242DE0BEB73
:1042C000C39402501480E61208208A088B09A808BB
:1042D000A909E84960031242DE7F0202207E88823B
:1042E000898374FF122E0AE4F02274F6121FAC12B6
:1042F00008208A828B83E58245836006A3A3E0FAC7
:1043000080027A007B0080D174F2121FAC8A088B85
:1043100009ECFEEDFF740E121FA0E0F50A12434EE9
:10432000701CEEFCEFFD7AFF7BFF12434E700479A8
:1043300011801688828983E508F0A3E509F0888258
:104340008983A3A3E50AF079007F0602207E120884
:10435000208A0C8B0DA80CA90DE8492274EE121FBF
:10436000ACEAFEEBFF8C088D09890C7412121FA0B9
:1043700012442B7414121FA0123BF57416121FA0C6
:1043800012389A750D00EC4D600302441F740265EB
:104390000C600302441A88828983123BFAF9EC24E8
:1043A00000F50EE439F50FEAF4F8EBF4F9EC58F8FF
:1043B000E50F59F9E849705DE5082406F8E5093488
:1043C00000F9880A890B8882F58312352F1208506C
:1043D0008A108B11E50E65107004E50F65116042BF
:1043E000780E1221BF850A82850B8312352F1208A1
:1043F000567402121F6BE9F50D7027780E1221BF5B
:10440000850882850983A3A312352D12086E7402D4
:10441000121F6B800D750D808008750D0D80037562
:104420000D0BA90D023B008E828F8312442F22E0D8
:10443000F8A3E0F92274E8121FAC74E7121F558547
:104440001882851983EAF0A3EBF08C168D17890E7C
:104450007431121FA0E0F512A3E0F5137433121F9C
:10446000A0E0F514A3E0F5157435121FA0E0F50FD8
:10447000750800750900E50975F003A4F8A9F08531
:10448000188285198312459FE0F47003A3E0F4704D
:104490000302457DEE2402F50CEF124595E0700312
:1044A00002457D85160A85170B780A1221BFAC14C8
:1044B000AD15AA12AB131207D87402121F6B8A0A29
:1044C0008B0BEA450B700302457DE4F510F511787E
:1044D000101221BF7406121FA085821085831178E7
:1044E000101221BF7409121FA085821085831178D4
:1044F000101221BF851282851383A3A3A3A31221C7
:10450000D67914AC0AAD0B8E828F831245B3121F7D
:104510006BE97069850A82850B83A3A3A3A3124468
:104520002B7402121FA0123C0C850C82850D83E0B7
:10453000A2E05018A90E7402121FA0AC82AD838EA7
:10454000828F8312389A120730E94208850C8285DF
:104550000D83E0A2E15026E50FF50A780A1221C387
:10456000A90E7403121FA0AC82AD838E828F8312BA
:10457000389A12072A7401121F6BE942080509E5EF
:1045800009C394025003024476A9087419121F6BE0
:104590007F1002207E3400F50D850C82F58322E029
:1045A00028FEA3E039FF8E828F83227916850A8246
:1045B000850B8312389E12083274082274F2121F7F
:1045C000ACEAFEEBFF890B7401650B600E740265AB
:1045D0000B70637901120A48E9705BEEFAEFFB1287
:1045E00046396047750A00800B7C177D0079001200
:1045F0001066050A9002E5E0F8E50AC3985021E547
:104600000A75F017A4F8A9F0850882850983A3A389
:10461000E028FAA3E039FB8A828B83122F5B70C9F2
:1046200085088285098374FFF0A3F07C187D03EE72
:10463000FAEFFB12084A02434912081A8A088B094A
:10464000EA45092274F2121FAC8A088B09ECFEEDD0
:10465000FF740E121FA0123CE1900A26E0F4603DA8
:104660007A097B00121072EA4B60328A828B837463
:10467000B1F0A3E4124153A3124151A3E508F0A302
:10468000E5091246A0EEF0A3EF1246A0A3A3E50AA7
:10469000F0A3E50BF0900A26E0F912107E024349E0
:1046A000F08A828B83A3A3A3A3A322C082C083909A
:1046B00061907404F0A37448F0A3E4F090618074F6
:1046C00040F09061BC7407F09061877469F090616C
:1046D000B67416F07900120B387902120B3E902C4A
:1046E000C8E493F46006E493F9120B147905120EF2
:1046F00032024AEDC082C083E9540FF9906185E02F
:10470000696012E5C654804449F5C6E59E547F644D
:104710004970F8E9F053C680E59E547F70FA024A6A
:10472000ED74F7121FACE5A8FE53A87E120B20C251
:10473000BA539AFEC289759B00C2C2120B2675A994
:104740001175B905120B2CD2BA439A0174805E42DE
:10475000A802507AC082C083906181E4F0A3024A2B
:10476000EA75E90075910075BF00020135C082C08D
:1047700083906181E4F0A374C0F0A3E4024AECC02A
:1047800082C08374F8121F559003C4124F5CE8492D
:1047900070030248369003C4E054406023790885D2
:1047A0001882851983AA82AB83120C2E8518828504
:1047B0001983AA82AB831208DA9003C4E054BFF0D5
:1047C000E054806010790C7A807B05120C2E9003E7
:1047D000C4E0547FF0E0A2E05008790012483E5453
:1047E000FEF0E054026008790112483E54FDF0E00A
:1047F00054046008790012484954FBF0E054086002
:1048000008790112484954F7F0E054106008790221
:1048100012484954EFF0E0542060087903124849E7
:1048200054DFF0A3E05401600D120B4A1208EC9023
:1048300003C5E054FEF07408121F6B024AED120B20
:10484000381208E09003C4E022120B3E1208E690F2
:1048500003C4E022C082C083E9600514602A804F4F
:1048600090619A7433F0A37455F09061A0743AF09B
:1048700090055CE064017009C2919003C674678082
:104880002D9003C67461802690619A743FF0A374E2
:104890005AF09061A0747FF090055CE064017009AB
:1048A000D2919003C6747180059003C6746AF002B9
:1048B0004AEDC082C083E9600B14600D14600F14D0
:1048C00060118020902CCC8015902CCD8010902CE5
:1048D000CE800B90055CE0640160F3902CCFE493F4
:1048E000906186F0024AED74EE121FAC74F4121F50
:1048F00055851882851983AC82AD8375838F758247
:10490000887404121E68902CCC93F46003024A79D8
:10491000907808E0C394025003024A597404121FAD
:10492000A0AC82AD8375838F7582267408121E68D1
:10493000F97AFF7BFF7FFF7E0089828582108018D5
:1049400074086E7003024A0E74096E7003024A0EF8
:10495000740A6E7003024A0EE510C333FCE433FDA3
:104960007404121FA0E5822CF582E5833DF583E0F7
:10497000F50EA3E0F50F8E08750900740278081291
:104980001F4274482508FC74783509FD8C828D839C
:104990007808121E2574087808121D6685080C8593
:1049A000090D8C828D837808121E257418780812E0
:1049B0001D66E50C4508F508E50DF509C3E50E95FE
:1049C00008E50F95098C828D837808121E258C824C
:1049D0008D837808121E25741878084014121D66FD
:1049E000E50C4508FCAD0DE50EC39CFCE50F9D8074
:1049F0000F121D66E50C4508C3950EFCE50D950FDD
:104A0000FDC3EC9AED9B5006ECFAEDFBEEFF0EEECB
:104A1000C39413500302494074FF6A700374FF6B20
:104A2000602D8F0874027808121F427448125708CC
:104A300074783509F5837808121E25851882851942
:104A400083E5822510F582E583125495E508F00987
:104A5000E9C39404500302493175080175090078CF
:104A6000081221BF7402121FA0AC82AD837A337B7F
:104A70000B12124C7402121F6B740C121F6B7F0A04
:104A800002207EC082C083906186E0F8902CCFE443
:104A900093687009902CCEE493906186F09061AE9B
:104AA0007468F0A3746AF090624574FBF0A304F09C
:104AB00053F4FD43FE0290055C7401F09061A0E0A8
:104AC000643A7004790080027901120B38024AEDD1
:104AD000C082C08390050EE06401700A900513E067
:104AE0006004790C800279008003F0A3F0D083D0B9
:104AF00082020135C082C08375E1F1900511E0604A
:104B00004D1460081460511460498051120B5C9080
:104B10000507E0F97A087B05120DB4908F84121E08
:104B200043120DEA908FCC121E43120DC090051255
:104B3000E0F9120DCC7901120E26900505E024163D
:104B4000124C827474F0A3740BF07900809F120BE6
:104B50006280BC120B6880B7120B6E80B279128033
:104B6000EB74F4121FAC75D90D9004F6E0A2E0E4EA
:104B7000331313F8124BEE484401F5D97800124C68
:104B80006C40FB7800880874F71257087404124CC4
:104B90007640F275E1959004F6E0F97AF77B04121D
:104BA0000DBA900A4874EAF0A3740A124C91124CA0
:104BB000B1124CA8124DE9124BF87808121E25903C
:104BC0008F807808121DB1908FC47808121DFF12D3
:104BD0004C7C7808121E34900505E02414124C8297
:104BE0007413F09003C27402F07F0402207E9005DB
:104BF00007E0C4333354C022900505E0F8A3E0F584
:104C0000838882A3A32274F6121FAC124DBA8AD9EC
:104C10007800124C6C40FB78008006124D20124E3A
:104C20006CE8C39940F5124DAC124C6C40FB780017
:104C300080081257047405124E6CE8C39940F3754E
:104C4000E195900A4874F6F0A3740A124C91124C44
:104C50009B121E43124C7C121E4F900505E024143B
:104C6000124C827412F09003C202505788087408E4
:104C70002508F5827405124FC8940622900505E0B8
:104C8000240EF8A3E0124C89223400F9888289832B
:104C900022124DD274F0F0A3740A22124CB1124CBD
:104CA000A8124DED908FEC22F0A37408F0A3740BC2
:104CB00022124CB522124CB922F0A3749AF0A374BC
:104CC0000C2274F6121FAC124D15124BEE4402F575
:104CD000D97800124C6C40FB78008006124D2012EF
:104CE0004E6CE8C39940F575E195900A48124D2B3A
:104CF000F0A3124D2B124C9E121E43124C7C121E1E
:104D00004F900505E02414124C827414F09003C2F5
:104D10007404025059900517E0F9740729F5D92257
:104D2000880874182508F5827405227402124D381B
:104D3000124D38F0A3740B22F0A3740BF0A374028D
:104D40002274F6121FAC124DBA74064AF5D97800D7
:104D5000124C6C40FB78008006124D20124E6CE81D
:104D6000C39940F5124DAC124C6C40FB78008008A2
:104D70001257047405124E6CE8C39940F375E1951F
:104D8000900A4874FCF0A3740A124DC8124C9B128E
:104D90001E43124C7C121E4F900505E02414124C49
:104DA000827415F09003C2740302505990053712B3
:104DB0004D1874044AF5D9780022124D1590050754
:104DC000E0C4333354C0FA22124DD2749AF0A37463
:104DD0000C22124DD622124DE3749AF0A3740C12D9
:104DE0004DE322124CB9F0A322124DED22F0900AAD
:104DF00056749AF0A3740C124DD6749AF0A3740CE6
:104E0000124CB5F022C082C083124BF8A3A3A3A317
:104E1000E4024AEA74F7121FAC12594AF8740339D3
:104E2000F9E82405FAE93400FB8A828B831256B92B
:104E300088828983A3A3A3A3A3A3A3A3A3ECF0A322
:104E4000EDF088828983A3A3A3A3A3A3A3E024FFF7
:104E5000F8A3E034FFF98A828B83E8F0A3E9F0023B
:104E6000507A880874602508F58274051255E0F5BB
:104E7000D90822EAFEEBFF9061D0E0F87480C39875
:104E8000FAEE248322124E8B9404221254A3E0F5EE
:104E9000D90AEAC32274F6121FACEAFEEBFF906156
:104EA000D0E0707575D90E75D90375D9047A008A6A
:104EB00008EE2508125A18248C124F2E40F17A0061
:104EC0008A08EE2508125A182484124E8540F1757E
:104ED000E1957908EE248C124F272484124F1E7C12
:104EE000008C82AA82C3E49AF895E0F9EE28F8EFE4
:104EF00039F9E8248BF582E91255DCC0E0EE2A127C
:104F00005A1824ABF582E9125495D0E0F00CECC3AA
:104F1000940840CD124FE48002790002505AFAEF13
:104F20003400FB120C2222124F1E7904EE22124E84
:104F30008B940822C082C08375D90275D90375D9B4
:104F40000575E195EA2470F582EB124F59EA247257
:104F5000F582EB124FF6024AED1254A6124F602270
:104F6000E0F8A3E0F92274F6121FACEAFEEBFF9022
:104F700005607406124FD21221BF7C0179031252D0
:104F8000FE121F6B75D90675D9037800124FB84011
:104F9000FB75E1959003C2E064087017EE2470F58C
:104FA00082EF124F59EE2472F582EF125495E8F019
:104FB000A3E9F0790102505A880874602508F58247
:104FC0007405124FC89405221254A6E0F5D908E8DA
:104FD000C322F075086075090578082275E1957996
:104FE00004120DF0EE2470F582EF1254A6124F60F9
:104FF000EE2472F582EF1254A6E8F0A3E9F07901ED
:105000002274F6121FACEAFEEBFF9061D0E0704311
:105010007901900560740BF09003C2E0640770178B
:1050200075086075090578081221BF7C010909120D
:1050300052FE121F6B7905740129F5D975D90378D1
:10504000008003124E62E8C39940F875E195124F53
:10505000E48002790080037401F07F0202207E74F4
:10506000F7121FACEAFEEBFF75D90375D90375D9AA
:105070000DEE24DE12507F124FDC7F0102207EF500
:1050800082EF1255E0F5D9227F0302207E740125BC
:105090000AF5D975D90378002274F5121FAC1251A4
:1050A0000E6004780480027800E8240BF8EAC398C4
:1050B0004041750A099005607409F079081250F7AB
:1050C000601475086075090578081221BF1252F640
:1050D000121F6B750A0D12508D8003124E62E8C3C9
:1050E000950A40F775E1957904120DF01252737923
:1050F00001800279008091EE24E3FCEF3400FD7A18
:10510000617B05120C1C850882850983E022124E02
:1051100073F8EF1256ADF583E02274F3121FAC8AD8
:10512000088B09125309FAE5082483F50AEB12519A
:10513000D86004780480027800E82408F8EAC3986C
:1051400050030251D1750C06900560740CF0900369
:10515000DFE0900561F07402C0E0F97CE07D037A45
:10516000627B05120C1CD0E0F97CE27D03120C1C62
:10517000850A82850B83E0601C750A60750B0578D3
:105180000A1221BF7C067903AA08AB091252FE124B
:105190001F6B750C0A7401250CF5D975D9037800BD
:1051A0008009880A7460250A124E68E8C3950C408D
:1051B000F175E1957904120DF0E5082470F582E5AA
:1051C00009124F59E5082472F582E509124FF6805D
:1051D0000279007F0502207E3400F50B850A82F5F6
:1051E00083E02274F6121FACEAFEEBFF125309FCB7
:1051F000EE2483F8EF12530460047A0480027A00EC
:10520000EA2404FAECC39A405E7A02900560EAF060
:10521000EE24F5F582EF12527F601975086075096A
:105220000578081221BF7C027903EEFA1252FE12B1
:105230001F6B7A0674012AF5D975D90378008003AB
:10524000124E62E8C39A40F875E195EE247412524A
:105250006CEE248012526C1252737904120DF0EE2F
:10526000240D124FE78002790002505AF582EF12A6
:1052700053EF22EE241DF582EF1253EFA3F022121A
:1052800055E0900561F088828983E02274F6121F50
:10529000AC125309FEEA2483F8EB12530460047C39
:1052A0000480027C00EC2404FCEEC39C40437C029E
:1052B0009005607407F0EA24F6F582EB12527F60E5
:1052C0001575086075090578081221BF7903125217
:1052D000FE121F6B7C0674012CF5D975D90378007A
:1052E0008003124E62E8C39C40F875E19579018015
:1052F00002790002505A7C097903EEFAEFFB120C96
:105300008E740222124C89E0229061D0E0F8748001
:10531000C3982274F5121FACE9FEA2AFE433F50A7C
:10532000C2AF7F00EA246FF8EB3400F980010F88E8
:10533000828983E0FCEFC39C50188F08EA2508FCA3
:10534000EB3400FDEC246BF582ED1255DC6E70DE63
:105350008010EA2CFAEB3400FB12548FEE125285C7
:1053600004F0E50AA2E092AF02508874F6121FAC76
:10537000A2AFE433FFC2AFEA246FF8EB125A1AFC73
:10538000E9FD8C828D83E014F07E0080218E08EA96
:105390002508F8EB125A1A246CF582E91255DCC084
:1053A000E0E8246BF582E9125495D0E0F00E8C828F
:1053B0008D83E0F8EEC39840D4EA246E12549274C0
:1053C000FF1253E4EFA2E092AF02505AC082C083B2
:1053D000E5A8F8C2AF12548FE91253E4E8A2E792AD
:1053E000AF024AEDF0EA246AF582EB1253EF221283
:1053F00054A6E4F02274F2121FAC8C828D83A3A316
:10540000A3A3E0541FF0EA24361257518E828F83F3
:10541000E4F0F50C850C8285820AEC250AF8ED1281
:1054200056A9F583E0C0E0EA250AF8EB125499D0BA
:10543000E0F0750D00850882850983E0F50A750B9B
:1054400000E50D780A121F23E50AA2E0502AE50CB8
:1054500033333354F8250DC0E08E828F83E0F8EAB1
:1054600028F8EB125A1A2438F582E9125495D0E044
:10547000F08E828F83E004F0050DE50DC3940840A3
:10548000B4050CE50CC39405408A7F0602207EEA31
:10549000246BF582EB1254A6223400F9E8245D1245
:1054A00054A322F582E93400F5832274F6121FAC6E
:1054B0009003EEE0640170077A007B000255D67E0F
:1054C000009003F4E070F17401F0A3E4F0A3F09015
:1054D000045404F0900457E4F0A3F090045A04F04C
:1054E0009003F7E41255ED90040104F0900427E4D2
:1054F000F0908F90121E4390040A121E4F90040EDB
:10550000E4F0A3F0A3F0900472F0900466F090042D
:105510005B7480F0A3E4F0900461F0900459F09083
:1055200004DD1255E59004E6F0900475F09004C592
:10553000F0A3F0908F90121E439004C7121E4F905C
:105540008F90121E439004CB121E4F9004D1E4F0B2
:105550009004D3F09004CFF09004E91255E58E0842
:10556000745D125708740412549574FFF00EEEC364
:10557000940440EA7E008E82A88274FD28F582742D
:10558000041255DCC0E0744F28F58274041254955F
:10559000D0E0F00EEEC3940540DC7E008E82A8823F
:1055A00074D628F58274031255DCC0E074D528F552
:1055B000827404125495D0E0F00EEEC3940840DCDF
:1055C0009003EEE004F0640170089003F6E09003AD
:1055D000F0F07AF27B0302505AF582EF1255E02286
:1055E0001254A6E0221255EDA31255ED22F0A3F0BD
:1055F000A3F0A3F022C082C083EA2403F582EB1259
:1056000055DC6008E4F09003EFE014F09003EEE066
:1056100014F070069003F074FFF08A828B83A3A3CA
:10562000E4F0900502E0700D9003EFE06401700576
:105630007900120DD2024AEDC082C0839003F5E4D6
:10564000F09003F4F09003EEF0A3F0A374FFF07574
:10565000E1F1024AEDC082C083780079009003F541
:10566000E0600478F2790388828983A3A3A3A3E08E
:10567000F9024AED74F6121FACEAFEEBFF120BD4EE
:10568000EE2465F8EF1256A91256B7EC4D60109053
:1056900003F0125942850882850983E4F0A3F0EEF5
:1056A000FAEFFB120CC402505A1256AD223400F924
:1056B00088088909888222F583E0FCA3E0FD227432
:1056C000F7121FACEAFEEBFF8E828F83A3A3A3A386
:1056D000E0FA7B00120952EEFAEFFB120BE6120C15
:1056E000A602507A74F6121FAC7800880874D6129D
:1056F0005708740312526F08E8C3940840ED9003F2
:10570000D6025057880874382508F5822274F6129C
:105710001FACEA240D125751EC2403F8ED3400F9C4
:1057200088088909EC2407F8ED125A1AFCE9FD12E1
:10573000575B121ECA8E828F83E8F0A3E9F01257DE
:105740005B121ECA8B09EA4509600312576E0250AC
:105750005AF8EB3400F9E8FEE9FF228C828D8312BF
:105760004F60850882850983E0FAA3E0FB228E82E0
:105770008F83E02401F0A3E03400F02274F6121FBE
:10578000ACEA242EF582EB34001256B7EA247012EC
:105790005751780079FAECFAEDFB121ECA8E828F0F
:1057A00083E8F0A3E9F0780079FAECFAEDFB121E39
:1057B000CA8B09EA4509600312576E02505A74F009
:1057C000121FACEAFEEBFF7410121FA07808121E25
:1057D00025120D7E8A0C8B0D8C0E8D0F908F7C7890
:1057E0000C121DB1908FC4780C121DFF780C122181
:1057F000BB8E828F83124BFB121E431229977404B7
:10580000121F6BE960030258A68E828F83E0240288
:10581000F8A3E0125A1AFAE9FB8A828B83780812FD
:105820001DC4908FC47808121E258A828B83780845
:10583000121E12EE240BF582EF125495C082C08323
:105840008E828F83A3A3A3A3A3E02401F8A3E03453
:1058500000F9D083D082E0687003A3E06970047916
:10586000018045EE2407F8EF124C89125772EE249E
:1058700074125A1F7014EE24751258AD7003A3E011
:105880006D70078A828B83125772EE2480125A1F22
:105890007014EE24811258AD7003A3E06D70078A76
:1058A000828B8312577279007F0802207EFAEF34D0
:1058B00000FB8A828B83E0FCA3E0FD88828983E081
:1058C0006C2274F3121FAC12594AFE740339FFEEB6
:1058D0002404F50AEF3400F50BEE2465F508EF34E7
:1058E00000F50980101256B9850882850983E4F015
:1058F000A3F012593C8508828509831256B9EC4DF4
:105900006030EE24641255D9F50C780C1221C3EEE8
:1059100024631255D9F9EEFAEFFB120C1074011240
:105920001F6BE985088285098360BA124F5CE849DC
:1059300070077C007D0012593C0251D3850A828594
:105940000B83E0FA7B00120910229003F0E0F87557
:10595000F004A4C8AAF02AF974F2282274F2121FE3
:10596000ACEAFEEBFF890A740E121FA0E0FAEE24E7
:1059700062125A1F6003025A13125309F50CEE24E7
:10598000831255D9FB60047804800278008908E905
:1059900028F8E4125A1A24020808E93400F9E50C40
:1059A00098E499A2D265D0334065EA7005750B0280
:1059B0008003750B01EB603375090078081221BF75
:1059C0007A607B05120C587402121F6B75086075A3
:1059D000090578081221BFAC0AA90B1252FA121F4E
:1059E0006B7404250AF50A7C607D057401250AF5AF
:1059F000D9850BD97800800A8808EC125708ED1277
:105A00004E6CE8C3950A40F075E1957900800679FF
:105A100007800279FF02548AF8EF3400F9E822F592
:105A200082EF1255E0640122C082C0838003125AC3
:105A300056E9F874FF28190470F4ECFAEDFB024AF9
:105A4000EDC082C0838003125A56E9F874FF28190A
:105A50000470F4024AED8C828D83E08A828B83F09D
:105A60008C828D83A3AC82AD838A828B83A3AA822E
:105A7000AB832274E8121FAC907803E06442705E3E
:105A800090055FE014F07056C2AF125A8D00782A6C
:105A9000D0E0F618D0E0F6E59F5407F97005908F36
:105AA000748003908F707808121E25E9C4C0E078D6
:105AB00029E65508F50808E65509F509740B780834
:105AC000121F33D0E02508F8906270E0A2E740F89A
:105AD000E8C333906272F0906270E0D2E0F090031D
:105AE000F0E0F874FF687003025DA5E81267FE2419
:105AF00002F8EF3401F988828983126878EA4B60F2
:105B00000FEE2401F582EF3401F583E0F91210A2C3
:105B1000EE2405F514EF3400F5158E828F83A3A3D0
:105B2000A3A3A3A3A312628A126814906054E09006
