:020000040000FA
:0600000002011D0225AA09
:03002B00022CB8EC
:03003300022C8814
:0300530002262062
:03006B00022C1450
:03007B00022C58FC
:1000830002249BE5C754F84401F5C7790122000017
:100093000080FB120086B90003020107E47921788E
:1000A30008B800028004F709D8FCE479297802B87B
:1000B30000028004F709D8FCE490028178E879070C
:1000C3008002F0A3D8FCD9FA781A90014D7A01BACC
:1000D30000028007E493A3F608DAF9900968AA827C
:1000E300AB8390014E781E79048015E493A3AC8210
:1000F300AD838A828B83F0A3AA82AB838C828D83A8
:10010300D8E9D9E77582CD7583AA740312012F75D7
:100113008291758300740012012F75D00075813FA1
:10012300751881751902759F00020096C09FF59F8F
:10013300E473D09F22D083D082C09FE493C0E07445
:100143000193C0E0740293F59F2202FF0000B40004
:100153000028002800283075A000A000A000A000FF
:1001630000080008E001F00010001000100010006B
:100173001000100050005000500010001000D00775
:100183000000000000000F000100050030750700AB
:100193001000010081FF0000FF690687066F06FF5C
:1001A30002020208025000A0000000E803021290BD
:1001B300010000FA8F020090010000BD09020690C1
:1001C300010000B202020090010000BE0902089083
:1001D300010000C802020090010000BF09020A905A
:1001E300010000CA02020090010000C009020C9045
:1001F300080000CB02020090010000C109020E902A
:10020300010000C209FF0100FF200212900100005B
:10021300F78F020090010000260A021090000000F0
:1002230000000204900300001803990C990C990C28
:10023300990C990C990C990C990C990C990C990C93
:10024300990C990C6F0F870F690FFFFF02020202CF
:100253000202020202010D000000100102129001CD
:100263000000F48F020090010000690A0226900149
:10027300000078070200900100006A0A022490013E
:100283000000138F0200900100006B0A022290010C
:100293000000058F0200900100006C0A022090010B
:1002A30000007F8E0200900100006D0A023290016F
:1002B3000000B58E0200900100006E0A021E90013C
:1002C3000000A38E0200900100006F0A021C90013F
:1002D3000000918E020090010000700A021A900142
:1002E3000000F78E020090010000710A02189001CD
:1002F3000000720A01053F10FF000130750302017F
:1003030006000000000000000000000000000000E4
:1003130000000000000000000000000000FFFF06D6
:1003230000800CE803010101010101010109094CED
:100333004F53542D424C45051228009001020A00E8
:100343000201060302F0FF09FF4C4F53542D424CA8
:10035300454C4F53542D424C450000000000000013
:10036300000000000000B313DD13B91308436861F4
:100373007261637465726973746963203100104339
:1003830068617261637465726973746963203200B2
:10039300021290010000FD8F020090010000890B02
:1003A300022E9003000059090202900100008A0BFB
:1003B3000200900100009B0B0230900000005F09D7
:1003C30002049003000060090202900100009C0BEC
:1003D300000000000000000000000000000000001A
:1003E300000000000000000000000000000000000A
:1003F30000000000000000000000000000000000FA
:1004030000000000000000000000000000000000E9
:1004130000000000000000000100B0423BAAB83F0A
:100423000000003F8C906339AA0CA33A00941E3C51
:100433008042633DCFFE753E1572313FF304353F75
:100443008096184B000080BF2292D43EDD9B2A3F4A
:1004530004000040FFFF7F7FFFFF7FFF0100803428
:100463001872313F0000803F120138B19E03120120
:1004730038C89E03120138F79E03120138309F03D8
:10048300120138589F03120138869F031201389DC9
:100493009F03120138B49F03120138CA9F0312014C
:1004A30038F19F0312013804A0031201381AA00384
:1004B3001201382DA00312013852A0031201381E75
:1004C3008B021201381D8C02120138528C02120168
:1004D30038738C02120138838C02120138A48C0207
:1004E300120138B08D021201387D8E02120138F0EC
:1004F3008E02120138768F02120138B98F0212016F
:1005030038F08F02120138769002120138489102B6
:10051300120138A69102120138BE91021201383835
:1005230092021201383B92021201383E92021201EA
:1005330038E59202120138FD92021201382D93021E
:100543001201384D93021201383B9402120138F123
:10055300940212013816E3021201383EE30212013B
:10056300386CE302120138A3E3021201380BE402F0
:1005730012013854E4021201389FE402120138DDFB
:10058300E4021201381AE50212013848E5021201A9
:1005930038EFE502120138F9E50212013806E602E6
:1005A30012013839E602120138FBE602120138075C
:1005B300E7021201381FE70212013829E70212018C
:1005C30038DEA603120138ECA60312013804A70390
:1005D3001201381CA703120138BAAE0112013858B0
:1005E300AF01120138D0AF01120138E5B001120199
:1005F300381FB101120138C8B1011201389DB2018F
:1006030012013801B40112013858B401120138DF64
:10061300B401120138C6B50112013813B601120133
:1006230038A1B601120138C5B6011201389AB801D2
:10063300120138DBB801120138FDB8011201387E0E
:10064300B90112013868BA011201382EBB01120137
:1006530038F1C702120138C3C8021201386CC9024B
:10066300120138AFC9021201383CCA02120138C85C
:10067300CA02120138A9CB02120138D8CB021201E7
:1006830038D4CC021201381CCD021201381ECE021E
:1006930012013862CE0212013888CE0212013807E5
:1006A300A9031201380080031201381680031201D6
:1006B300383C80031201386481031201386E8103D0
:1006C300120138C78203120138C783031201388429
:1006D300D402120138B9D502120138ECD502120145
:1006E3003836D602120138F4D70212013835900198
:1006F300120138989001120138DD9101120138ED91
:1007030091011201381092011201385B920112011A
:1007130038009301120138F69301120138C0940195
:100723001201383896011201387A960112013818ED
:1007330097011201386597011201388B9701120155
:10074300387999011201387E99011201385F9B01B2
:10075300120138B39B01120138159C011201383D77
:100763009C01120138E19C01120138A39D01120181
:1007730038D49D01120138D79D011201381F9E0103
:10078300120138619E01120138C89E011201381905
:1007930090031201382C9003120138459003120183
:1007A300389090031201386B9103120138FA9103C8
:1007B300120138459203120138DC2C00120138E88B
:1007C3002C00120138212D00120138662D00120170
:1007D300381D2E00120138A32E00120138082F00F5
:1007E300120138342F001201386D2F0012013881A5
:1007F30031001201385D330012013848350012010F
:10080300387F3600120138DF3800120138CB390047
:10081300120138113B001201381E3C001201383B13
:100823003C00120138733C001201388D3C00120168
:1008330038F53C001201388F410012013830420074
:10084300120138814200120138A84200120138F621
:1008530042001201381443001201386843001201A8
:1008630038414400120138C845001201385046008F
:100873001201386CDE0212013876DE0212013841B1
:10088300DF021201385CDF0212013882DF0212013B
:1008930038C6DF02120138FEDF0212013827E002F8
:1008A300120138A0E002120138B5E002120138CA81
:1008B300E00212013801E10212013815E1021201CE
:1008C3003846E10212013880E102120138ACE1023C
:1008D30012013802E20212013856E2021201389F75
:1008E300E202120138C9E202120138EEE2021201F9
:1008F30038D0F4021201389AF5021201387DF6025B
:10090300120138F3F60212013835F7021201386288
:10091300F80212013845F3011201386EF301120196
:100923003887F301120138CCF401120138AAF5011A
:10093300120138C9F50112013856F601120138992E
:10094300F601120138E6F70112013885F8011201A8
:100953003804FB011201389BFB011201386FFC01C3
:1009630012013851FD01120138BDFE011201385048
:10097300FF01120138FCA10312013865A203120121
:1009830038B9A203120138E0A2031201385FEC0266
:10099300120138CCEC0212013817ED021201380CA7
:1009A300EE0212013808EF02120138F2EF021201CF
:1009B3003800A80212013842A8021201381CA90209
:1009C300120138F5A902120138F0AA02120138CF38
:1009D300AB021201383BAC0212013802AD02120124
:1009E300386DAD02120138D4AD02120138FFAD02E9
:1009F30012013870AE0212013803AF021201386CD3
:100A0300AF0212013881AF02120138C9AF021201DD
:100A130038E2AF0212013847B0021201384AB0027D
:100A23001201386787031201388F8703120138CD0B
:100A330087031201388B8803120138F688031201E9
:100A4300381289031201383A89031201386A89037B
:100A5300120138798903120138F389031201381915
:100A63008A03120138929F011201382FA10112014A
:100A73003815A301120138DFA30112013826A4019E
:100A83001201386DA4011201387FA401120138BF8D
:100A9300A401120138EEA4011201383AA501120192
:100AA3003872A501120138A0A501120138F1A50180
:100AB30012013880A6011201386EA90112013848CB
:100AC300AB0112013884AB01120138DEAC01120113
:100AD3003825AD011201389AAD01120138E8AD0194
:100AE3001201381FAE01120138FD9E021201381A9D
:100AF3009F02120138B4A402120138B6A5021201F2
:100B03003830A702120138DEA702120138B74600B7
:100B13001201380047001201382D470012013860D6
:100B230047001201386D470012013879470012015E
:100B3300388B4700120138604800120138BE480064
:100B4300120138F348001201388F4A00120138DCD1
:100B53004A00120138004B001201386D4B0012019C
:100B630038124C00120138CE4C001201384D4D00A2
:100B7300120138114E00120138204E00120138A123
:100B83004E00120138404F00120138724F0012011B
:100B9300380D50001201386B5000120138A5500077
:100BA300120138265100120138EF51001201389812
:100BB30052001201381F53001201387753001201FB
:100BC30038D85300120138015400120138B75400C9
:100BD30012013801560012013844560012013861DF
:100BE3005600120138805600120138CB560012010C
:100BF30038F056001201381957001201388857008F
:100C0300120138CA5700120138CE58001201386851
:100C13005900120138345A001201384D5A0012019A
:100C2300385C9502120138AF9502120138BB950268
:100C3300120138909602120138B79602120138F267
:100C430096021201385E970212013892970212013E
:100C530038CB9702120138E397021201383C98020D
:100C63001201385598021201389E9802120138B1C8
:100C73009802120138CB9802120138E1980212014E
:100C830038FD99021201380E9B021201385B9C0257
:100C9300120138409D02120138F4FF011201385F3E
:100CA300E60112013893E601120138FEE90112014F
:100CB3003848EB0112013812EC011201389CED01A6
:100CC30012013877EE01120138B1EE01120138D466
:100CD300EE0112013816EF011201381FEF01120164
:100CE3003869EF0112013873EF011201381FF00167
:100CF300120138F3F00112013847F101120138A94A
:100D0300F101120138FCF1011201382BF201120139
:100D1300386AF2011201387F5A00120138D9620091
:100D2300120138DF62001201389A6800120138801C
:100D33006C00120138D18303120138478403120176
:100D4300385D84031201389A8403120138D2840374
:100D53001201384F85031201388A850312013805C1
:100D630086031201384186031201384A86031201B1
:100D730038568603120138708603120138958603AC
:100D8300120138AB8603120138D4860312013837B7
:100D93008703120138AAD902120138BDD902120100
:100DA30038D7D90212013800DA0212013843DA02C5
:100DB30012013882DA02120138C0DA021201382530
:100DC300DB021201383ADB0212013845DB02120161
:100DD3003852DB0212013869DB0212013877DB0279
:100DE30012013882DB021201388EDB02120138A1B4
:100DF300DB02120138ACDB02120138CFDB02120135
:100E03003878DC0212013888DC02120138A2DC02D5
:100E1300120138BFDC02120138DBDC021201380098
:100E2300DD021201380ADD021201381EDD02120151
:100E3300383DDD021201389EDD02120138A4DD02C5
:100E4300120138AADD02120138B0DD02120138BCEA
:100E5300DD02120138EFDD02120138E6CB01120187
:100E63003868CC0112013811CD0112013859CE0175
:100E730012013867D0011201384DD10112013882B5
:100E8300D101120138A4D1011201384DD20112014E
:100E9300381DD40112013846D401120138BED401E1
:100EA300120138F0D401120138FDD401120138487F
:100EB300D5011201386CD501120138BDD7011201D9
:100EC30038C7D80112013823D90112013863BD0193
:100ED30012013874BE0112013858BF011201386281
:100EE300BF0112013884BF0112013890BF01120102
:100EF3003834C10112013861C10112013877C201CE
:100F0300120138CCC2011201381BC401120138F09E
:100F1300C4011201384CC501120138B7C5011201D1
:100F230038ECC5011201382FC601120138F9C80186
:100F330012013811C901120138A2C901120138B0D6
:100F4300C901120138FDC9011201380BCA0112018E
:100F53003877CA01120138F2CA0112013849CB01AC
:100F63001201380080021201382280021201383344
:100F73008202120138F284021201381C8602120125
:100F830038DA8602120138C68702120138F89C0348
:100F93001201381D9D03120138939D03120138D4A9
:100FA300C002120138DDC002120138E6C00212018C
:100FB30038BEC1021201386FC3021201389FC30247
:100FC300120138CAC302120138FAC30212013825CA
:100FD300C40212013859C40212013885C402120135
:100FE30038C8C402120138F3C4021201383AC502E8
:100FF3001201388FC502120138D1C5021201382BF4
:10100300C60212013856C602120138A5C6021201E1
:1010130038D5C60212013800C7021201382EC702A2
:1010230012013851C70212013890A903120138BCCA
:10103300A903120138E9A903120138F3A903120124
:101043003803AA03120138FDCE0212013807CF027A
:1010530012013848CF0212013891CF02120138CB66
:10106300CF0212013821D00212013842D0021201FC
:10107300384BD0021201389FD002120138C8D00277
:10108300120138D2D00212013840D102120138D0F5
:10109300D1021201382BD20212013859D2021201A5
:1010A30038E1D20212013820D30212013855D3029B
:1010B30012013867D30212013886D3021201388F26
:1010C300D30212013856D40212013813A4031201B9
:1010D30038079B031201383D9B03120138719B03B0
:1010E300120138BE9C0312013871A803120138871C
:1010F300A80312013891A803120138DBA8031201D7
:10110300386EAA03120138BEE702120138D1E70292
:1011130012013892E802120138D1E802120138EEC6
:10112300E80212013827E90212013874E9021201B8
:1011330038A6E902120138DDE902120138E6EB02B2
:1011430012013852EC021201380AA5031201382D9C
:10115300A5031201385CA50312013874A50312011B
:1011630038B6A503120138618A03120138868A034F
:10117300120138B08A0312013825AB03120138D9A2
:101183006C00120138786E00120138236F001201CF
:1011930038A36F0012013828700012013851700013
:1011A3001201382C7400120138A37400120138BAEA
:1011B3007500120138F475001201383576001201FA
:1011C300387C7700120138D277001201381B78007F
:1011D3001201388A7800120138F678001201382794
:1011E30079001201383F7900120138587A00120150
:1011F30038687A001201381E7C00120138357C00F1
:10120300120138677C00120138097E001201389DF3
:101213007E00120138B5A703120138C6A7031201D5
:101223003866A8031201387BAB03120138BAAB034B
:10123300120138E2AB03120138FFA5031201380F84
:10124300A60312013824A603120138D8A6031201FB
:101253003811A30312013896A303120138FAA3032A
:10126300120138019903120138449903120138ED30
:101273009903120138279A03120138869A0312013F
:1012830038FB9A03120138FE9A03120138B4F002B4
:10129300120138CBF00212013845F102120138294C
:1012A300F20212013800F40212013865F40212014D
:1012B30038BCF402120138F87F00120138B69403E7
:1012C300120138469603120138A79603120138ED2E
:1012D300960312013864A003120138B6A003120169
:1012E3003829A10312013896A1031201386F920322
:1012F300120138999203120138689303120138449A
:1013030094031201386EB0021201383AB10212018D
:10131300387BB102120138B5B10212013813B2029F
:1013230012013867B202120138C5B2021201385BEA
:10133300B30212013863B402120138EDB50212018F
:10134300388BB602120138F2B60212013805B70221
:10135300120138F9B70212013842B802120138708B
:10136300D901120138A2DC0112013833DE01120166
:10137300388ADE01120138A7DE0112013827DF01A6
:10138300120138A3E00112013872E101120138DFC2
:10139300E401120138C9E501120138A4B8021201AF
:1013A3003860BA021201383EBB021201382BBC026C
:1013B30012013885BD0212013838BE021201387796
:1013C300BE02120138F6BE02120138EEBF0212014C
:1013D300380FC0021201382EC00212013874C00245
:1013E3001201387FC00212013893FC02120138D473
:1013F300FC02120138F1FC0212013866FD021201EF
:1014030038B9FD02120138A6FE02120138A9FF0203
:10141300120138C4AB03120138458D03120138DBC6
:101423007E001201380DAA03120138F0960312014F
:1014330038C7FF01120138BCF802120138E2FF027B
:10144300E066701008A3E066700A08A3E066700403
:1014530008A3E06622C3E7960809E7960809E7961A
:101463000809E79622C3E09608A3E09608A3E0964E
:1014730008A3E09622C008C3E096F50808A3E09607
:10148300420808A3E096420808A3E09645087001C5
:10149300D3D00822080808E630E711121D5D1214A4
:1014A300AF080808C64480C618181822181818E987
:1014B300799EC608CAC608CBC608CCC6C3702079B5
:1014C30096CACBCC7019798ECBCC70137986CC703D
:1014D3000EF9802ACA33CACB33CBCC33CC33193081
:1014E300E7F2CCCBCA3350147004EA30E00DE4CAFF
:1014F3003ACACB3BCBCC3CCC500209C3E913C6CC94
:10150300182313C6CB18C6CA18C6F9228A088B0932
:101513008C0A8D0B780812155920F01430E72B74C0
:10152300FFFCFBFA747F8022E4FCFBFA7480801AD0
:10153300B48008BC00F2BB00EF800F50EBF9E4C3AA
:101543009AFAE49BFBE49CFCE499C6CC18C6CB183E
:10155300C6CA18C6F922E4C9C608CAC608CBC6D388
:10156300330308CCC63392F0C3947F402E941840C3
:1015730019C9B90704CACBCC225025C309CA33CA37
:10158300CB33CBCC33CC33D9F422F4600DC9CCC3E9
:1015930013CB13CBCA13CAD9F6CC22E4FCFBFA2231
:1015A30014FCFBFA22E6C33318461846184622E712
:1015B300C33319471947194722181818E60846086C
:1015C300700AE608C3337005E633F42208221919BA
:1015D30019E7094709700AE709C3337005E733F4CC
:1015E300220922E6084608C3134608336002E6339D
:1015F300F422E7094709C3134709336002E733F4C9
:10160300221215E660251215F560201215A8700345
:101613000215B2080808E76670101819E766700A21
:101623001819E76670041819E76622F4221215E602
:10163300601C1215F560171215A870071215B27009
:1016430001D322C0D01215B27006D0D0B322C32268
:1016530033D0D0501430E0F6C3E7960809E7960874
:1016630009E7960809E796B32220E0D5E69708092B
:10167300E6970809E6970809E697B3221215E6608C
:101683001B1215F560161215A870071215B2600C1F
:10169300B322C0D01215B27005D0D022C32233D0EA
:1016A300D0501330E0EBC3E7960809E7960809E743
:1016B300960809E7962220E0E4E6970809E69708EA
:1016C30009E6970809E69722001215E6604F1215FE
:1016D300F56012E7548066F61215BC70111215B24C
:1016E300703B090909F4F618F618F618F6221215D4
:1016F300D170151215A808080860EAE6447FF618A9
:10170300768018E4F618F6221215A860161215B2A0
:101713007012E4F608F608F608E65480F60909099B
:1017230018181822EAC0E0EBC0E0ECC0E0EDC0E01E
:10173300E687F0A4FBACF008E687F0A42CFCE435C4
:10174300F0FA1809E687F0A42C4B60027401CA353D
:10175300F0FCE433FB09E687F0D2F7A42CCB35F099
:10176300FC1908E687F0A42BCC35F0FBE433FD0825
:1017730019E687F0D2E7A42C4ACB35F0CD3400FC30
:1017830009E687F0D2E7A42DCC35F0FDE433FA095E
:1017930018E687F0D2F7A42CCD35F0CA3400FC0844
:1017A300E687F0D2E7D2F7A42ACC35F07A7E20E799
:1017B3000B0ACB33CBCD33CDCC33CC33CB3350141B
:1017C3007004ED30E00ED2F1E4CD3DCDCC3CCC3B0A
:1017D3005005DA05C2F1EB547FC63308E63392F0C5
:1017E300FBE73309E733C39A502D2B70190C0D4CCB
:1017F3004D70151806E608C333700D20F10AA2F0E8
:1018030013F6E418800B4024E4F630F002768018D7
:10181300F618F618F68024D33B14501074FFA2F088
:1018230013F6187680E418F618F6800FA2F013F674
:1018330018E63303F618ECF618EDF6D0E0FDD0E029
:10184300FCD0E0FBD0E0FA221215F560461215E653
:10185300603DE9687008F618F618F618F6227480E9
:1018630067F712187F090909748067F7221215E6D2
:10187300601D1215F57005191919801A1215BC701F
:101883001F1215D1C37003E66733191919400718DE
:1018930018182208080874FFF618F618F618F62226
:1018A3001215D160171215B2702192F01215A8709B
:1018B30019501720F014080808090909E7F6181940
:1018C300E7F61819E7F61819E7F6221215A860E6E5
:1018D300E869701F0808E62480F608E436F6185411
:1018E3007FB47F0CE654806007F6E418F618F622FE
:1018F300181822E9C6CC08C6CD08C6CE08C6CFC084
:10190300E0E8C0E0EAC0E0EBC0E009E9F809E7FA83
:1019130009E7FBE6F918E6F8C3EC98ED99EE9AEBC4
:10192300C2E7F5F0EFC2E795F0500E600CEBCFFB8A
:10193300EACEFAE9CDF9E8CCF8EAA2E7D2E7FAEB86
:1019430033FB13F5F0EEA2E7D2E7FEEF33FFC5F06A
:1019530013A2E730E601B313C5F0C3C0E0C0F07FC4
:1019630000C39BFB605B9418600C401AD0E023F922
:10197300D0E0F8021A4E8AF0E9486003D2F0E4AFEF
:10198300F0FAF9F8803BEB30E40D89F0EA6003D21A
:10199300F0E4AFF0F9CAF8EB30E30D88F0EF600242
:1019A300D2F0AFF0E4CAC9F8EB54076014FBC3EA02
:1019B30013FAE913F9E813F8EF135002D2E0FFDB4F
:1019C300EDD0E0C0E030E739C3E49FFFF5F0EC98D9
:1019D300FC42F0ED99FD42F0EE9AFE42F0D0E0F9C0
:1019E300D0E0F8E5F0607AE923F9EE20E742D80287
:1019F3008067C3EF33FFEC33FCED33FDEE33FE8042
:101A0300EAEC28FCED39FDEE3AFED0E023F9D0E014
:101A1300F84002801BC3EE13FEED13FDEC13FCEF45
:101A2300135002D2E0FF08B800067F7F74FF802EB8
:101A3300EF3350178CF020F00260100CBC000C0D3B
:101A4300BD00080EBE000408E860DFE933E813FFB9
:101A5300EE2313FE4F4D4C8008E95480FFE4FEFD56
:101A6300FCEE33EF33F47004FCFD7E80D0E0FBD05A
:101A7300E0FAD0E0F8D0E0CFC618CEC618CDC6182D
:101A8300CCC6F9221215E67004181818221215F59F
:101A9300700D74FFF61819F61819F61819F622E7DF
:101AA300548066F61215A8700F1215B270F014F672
:101AB30008F608F608F680D11215B2700CF608F68F
:101AC30008768008E6447F80EC1215D4700C12155A
:101AD300BF60BFE65480F6E480BB1215BF700519E2
:101AE300191980A5E869700C763F18768018F618E6
:101AF300F6E8F922E6CDC0E018ECC0E0E633CD33DA
:101B0300CDD313F6E719FCE7191933CC33C3947F0C
:101B1300400ECD9D502408E65480F6E418F6800F5D
:101B2300F4043D14501408E6447FF6187680E41854
:101B3300F618F6D0E0FCD0E0FD22CCD313CCFD1890
:101B4300E4C6CBC0E018E4C6CAC0E00808ED08C686
:101B530033E613F618E433C675F003C3CA97CA090C
:101B6300CB97CB199C40047D08802EBD0003021C3B
:101B73003016B6FF050606081618C3CA33CACB3398
:101B8300CB33CA27CA09CB37CB193CC37D08803E68
:101B9300187D0820E75CC633C6CA33CACB33CB33C0
:101BA300DDF1D5F0EB30E77BCA97CA09CB974ACB77
:101BB300199C406F4B7025E620E0218066187D0854
:101BC300C3CA97CA09CB97CB199CD3C633C6CA33AA
:101BD300CACB33CB3350C9DDE7D5F0E1D3E4C63606
:101BE300C608C636C608C636C608C636C618181886
:101BF3008031C3CA97CA09CB97CB199CB34097C608
:101C030033C6CA33CACB33CB33DD34D5F02EC6A2A9
:101C1300E0C640C8CA27CA09CB37194A70BECB3CB5
:101C2300B480B90808E63308E633601F181818D0E3
:101C3300E0FAD0E0FBD0E0FCD0E0FD22187D08CA3A
:101C430027CA09CB37CB193CD3808013F618E4B6E7
:101C53007F11F618B6FF0EF618C60470D208087680
:101C63008080CAF618F618F680C5080808EAC0E0AE
:101C7300EBC0E086F0E7A4FA180986F0E7A42AFA95
:101C8300180986F0E7A42AFA180986F0E7A42AFAC5
:101C93001986F0E7A4FBE5F02AFA190886F0E7A411
:101CA3002BFBE5F03AFA190886F0E7A42BFBE5F0E5
:101CB3003AFA18180986F0E7A4C5F02BFBE43AFAC0
:101CC3001908E7C5F0C6A426F6E5F03BFBE43AFAAB
:101CD3001886F0E7A4F6E5F00826F6E43B08F6E4F8
:101CE3003A08F6D0E0FBD0E0FA22E4CFC0E0E4CE3D
:101CF300C0E0E4CDC0E0E4CCC0E075F020C3E6333F
:101D0300F608E633F608E633F608E633F61818184D
:101D1300EC33FCED33FDEE33FEEF33FFC3EC9709F9
:101D2300ED9709EE9709EF97191919400FFFEC97F3
:101D3300FC09ED97FD09EE97FE191906D5F0BEECE7
:101D4300F709EDF709EEF709EFF7191919D0E0FCD8
:101D5300D0E0FDD0E0FED0E0FF22181818E4C396CF
:101D6300F608E496F608E496F608E496F62260167A
:101D7300080808C6C313C618C613C618C613C61860
:101D8300C613C6D5E0EA22700908080822601618AF
:101D93001818C6C333C608C633C608C633C608C632
:101DA30033C6D5E0EA22E627F60809E637F608093E
:101DB300E637F60809E637F622E026F608A3E0360A
:101DC300F608A3E036F608A3E036F622E026F0088C
:101DD300A3E036F008A3E036F008A3E036F022C310
:101DE300E697F60809E697F60809E697F60809E67E
:101DF30097F622C3E096F008A3E096F008A3E096D6
:101E0300F008A3E096F022E056F608A3E056F608A1
:101E1300A3E056F608A3E056F622E056F008A3E046
:101E230056F008A3E056F008A3E056F022E0F608C7
:101E3300A3E0F608A3E0F608A3E0F622E6F008A381
:101E4300E6F008A3E6F008A3E6F022E0FAA3E0FB3D
:101E5300A3E0FCA3E0FD22EAF0A3EBF0A3ECF0A3E4
:101E6300EDF022CAC0E0E6F0A308DAFAD0E0FA22E5
:101E7300CAC0E0E0A3C582CCC582C583CDC583F0CB
:101E8300A3C582CCC582C583CDC583DAE6D0E0CABB
:101E930022C3E498F8E499F9121ED58026C3E49A84
:101EA300FAE49BFBE920E7E9121ED5E498F8E499EC
:101EB300F922C3E498F8E499F9121ED5E498F8E4FA
:101EC30099F9C3E49AFAE49BFB22EB20E7CFE920DC
:101ED300E7E0B90010BB0008E88AF084F8AAF02212
:101EE300E4FBC8FA22EB70227B10C833C8C933C99C
:101EF300335007C39AC3DBF280069A50012ADBEA08
:101F0300C833F4C8C933F4C9FA2275F008E4C833F6
:101F1300C8C933C933C99AC99B5004C92AC93BD517
:101F2300F0ECFBC833F4C8E4C9FA22600D08C6A27A
:101F3300E713C618C613C6D5E0F322600C08C6C360
:101F430013C618C613C6D5E0F422700422600D1818
:101F5300C6C333C608C633C6D5E0F4182225181005
:101F6300AF08F518400215198008F5184002151935
:101F7300D2AF22C0D0251810AF08F51850020519AA
:101F83008008F51850020519D2AFD0D0222518F5D4
:101F93008210AF08F518400215198008F5184002A1
:101FA3001519D2AF851983222518F582E43519F561
:101FB3008322E4732518C582C0E0E51934FFC58385
:101FC300C0E0E518C3958224F810AF08858319850E
:101FD30082188008858319858218D2AFCEF0A3E5D5
:101FE30020F0A37808E608F0A3DEFAEFF0A3E5817A
:101FF30024FAF8E608F0A3E608F0A3E608F0A3083D
:1020030008E608F0A3E608F0A315811581D0E0FEE9
:10201300D0E0F8158115811581E8C0E0EEC0E0221B
:102023002518C582C0E0E51934FFC583C0E0E51873
:10203300C3958224F910AF08858319858218800817
:10204300858319858218D2AFCEF0A3E520F0A3785B
:1020530008E608F0A3DEFAEFF0A3E58124FBF8E637
:1020630008F0A3E608F0A30808E608F0A3E608F0E2
:10207300A315811581D0E0FED0E0F815811581E824
:10208300C0E0EEC0E022851983851882E0A3FEE05C
:10209300A3F5207808E0A3F608DFFAE0A3FFE0A3A6
:1020A300C0E0E0A3C0E0E0A3C0E0E0A3C0E0E0A3A1
:1020B300C0E010AF088582188583198008858218CF
:1020C300858319D2AFD083D08202013585198385E8
:1020D3001882E0A3FEE0A3F5207808E0A3F608DF6A
:1020E300FAE0A3FFE0A3C0E0E0A3C0E0E0A3C0E008
:1020F300E0A3C0E010AF08858218858319800885A6
:102103008218858319D2AFD083D08222C0D02518FC
:10211300C582C0E0E51934FFC583C0E0E518C39567
:102123008224F310AF08858319858218800885837C
:1021330019858218D2AFC8F0A3E9F0A3EAF0A3EBA4
:10214300F0A37908E709F0A3D8FAECF0A3EDF0A324
:10215300EEF0A3EFF0A3D0E0F0A3D0E0F0A3D0E043
:10216300F0A3E520F0A3E5F0F0A3228519838518F9
:1021730082E0C0E0A3E0F9A3E0FAA3E0FBA37808C0
:10218300E0F608A3DFFAE0FCA3E0FDA3E0FEA3E092
:10219300FFA3E0C0E0A3E0C0E0A3E0F5D0A3E0F537
:1021A30020A3E0A3F5F010AF08858319858218807A
:1021B30008858319858218D2AFD082D083D0E0F806
:1021C300D0E03274048006740280027401C0E0F42B
:1021D30004121F90D0E0121E66227404800474025D
:1021E3008000CCC0E0EDC0E0E518C39CCCAD195035
:1021F300011D10AF068C188D1980068C188D19D20D
:10220300AF121E73D0E0FDD0E0FC22D083D082E970
:10221300C0E0E493A3C386F0C5F095F0F908E49316
:10222300A386F0C5F095F0700BE493A3C399400522
:10223300E9048002A3E475F002A42582F582E5F0A7
:102243003583F583D0E0F9E493A3C0E0E493C0E0E1
:1022530022D083D082ECC0E0EDC0E0E493A3FCE4A1
:1022630093A3FDED4C600D1222A0EC24FFFCED3492
:10227300FFFD80EFE493A3FCE493A3FDED4C600D1D
:102283001222DFEC24FFFCED34FFFD80EFD0E0FDF4
:10229300D0E0FCE493A3C0E0E493C0E022C0E0C339
:1022A300E49396087401939618400FE493667008BC
:1022B30008740193661870007019A3A3C3E493967E
:1022C300087401939618A3A3400DD0E0D0E0D0E0AA
:1022D300022290A3A3A3A3A3A3D0E022C0E0C0F053
:1022E30088F0E4936670080874019366187000A878
:1022F300F0A3A3700BD0F0D0E0D0E0D0E0022290A6
:07230300A3A3D0F0D0E022FB
:10230C0074F5122023EAFEEBFFEE2434F8EF3400D0
:10231C00F988088909EE2435122444F8EE24371282
:10232C002444F50AEC850AF0A4FCAAF0850AF0ED29
:10233C00A42AFDE82CF8E43DF97A257B00121ED581
:10234C00EA850882850983F05407F87401B8000205
:10235C008004C333D8FCC0E0E0131313541FF8EE11
:10236C0028F8EF3400F9E8245DF582E93400F583B0
:10237C00D0E0F8E0586008850882850983801DEE5E
:10238C002436122444F5F0EA84A8F0EE28F8EF3451
:10239C0000F9E82438F582E93400F583E0F97F048C
:1023AC000220CF74F5122023EAFEEBFFEE24341248
:1023BC002444C0E0EE2435F582EF3400F583D0E000
:1023CC00F08E828F83A3A3A3A3A3E0FAA3E0FB8EDA
:1023DC00828F83A3A3A3A3A3A3A3E0FCA3E0FDECA0
:1023EC00C39AF50AED9BF50BEE2480F508EF34004B
:1023FC00F509850882F583E06401702BEE2481F5E4
:10240C0082EF3400F5831221E112244D7402121F65
:10241C0076E960137CFD7D04EEFAEFFB120BC785A9
:10242C000882850983E4F0AC0AAD0BEEFAEFFB12DF
:10243C00230C122C060223AAF582EF3400F583E05C
:10244C0022C082C083851882851983E0F8A3E0F945
:10245C00C3EA9CEB9D5012C3EC98ED994019C3EA6A
:10246C0098EB99501279018010C3EA98EB9940F5DA
:10247C00C3EC98ED9950EE7900D083D08222EAC358
:10248C009CFAEB9DFB2200008521878522C622C089
:10249C00E074EF12210F759B00906182E0A2E64080
:1024AC000302255CE591A2E6400302255C7591BF11
:1024BC009003C2E064057008120D65120D71800363
:1024CC00120D6B752100120DDDE99003C3F079003C
:1024DC00120DD1120B317A017B009003C1E0F9127D
:1024EC0010A1907803E0644260030225A590055F7B
:1024FC00E014F060030225A5C2AF12250900782A6A
:10250C00D0E0F618D0E0F6E59F5407F97005908FEF
:10251C00748003908F4C7808121E30E9C4C0E078A8
:10252C0029E65508F50808E65509F509740B7808ED
:10253C00121F3ED0E02508F8906270E0A2E740F848
:10254C00E8C333906272F0906270E0D2E0F08049A0
:10255C00E0A2E55024E591A2E5501E7591DF9003B1
:10256C00C2E0640D70139003E4E004F06428700280
:10257C00E4F07A00E0F9120E4F906181E0A2E35092
:10258C0009E5E9A2E3500375E9F7A3E0A2E75009D6
:10259C00E591A2E7500375917F7F0402216EC0E0A4
:1025AC00C0D0C082C083906183E0A2E05009E5BF37
:1025BC00A2E0500375BFFEE0A2E15009E5BFA2E125
:1025CC00500375BFFDE0A2E25009E5BFA2E2500343
:1025DC0075BFFBE0A2E35009E5BFA2E3500375BF52
:1025EC00F7E0A2E45009E5BFA2E4500375BFEFE0A9
:1025FC00A2E55009E5BFA2E5500375BFDFE0A2E6F6
:10260C005009E5BFA2E6500375BFBFD083D082D07E
:10261C00D0D0E032C0E074F212210FE5A7A2E45052
:10262C000FE5A1A2E4500953A7EF75A1EF12267490
:10263C00E5A7A2E5500CE5A1A2E5500653A7DF756E
:10264C00A1DFE5A7A2E15009E5A1A2E1500375A124
:10265C00FDE5A7A2E2500CE5A1A2E2500653A7FBB0
:10266C0075A1FB7F0102216E74F8122023752101E4
:10267C009003C2E0640670077A007B00120D4DA235
:10268C00AFE433FED2AF9003C8E0640170187A2037
:10269C007B009003C1E0F912112B7A207B00900390
:1026AC00C1E0F91210A7906182E0D2E6F090055ECD
:1026BC00E0602185C62280169003C7E06401700893
:1026CC00E5C654F84405F5C653BEFC1224947401B7
:1026DC00652160E4EEA2E092AF7F010220CF000002
:1026EC008E238F24858228858327851882851983DC
:1026FC00E0CEA3E0CF852882852783EBC9EAC8ED1D
:10270C00CBECCA75F010C3E833C8E933C9EA33CA55
:10271C00EB33CBC3EA9EF526EB9FF525B35004AB08
:10272C0025AA26EC33CCED33CDD5F0DAAE23AF248D
:10273C002274E912202374FA121F60EAFEEBFF8C5C
:10274C00088D099003C2E024F7C394055006908FBE
:10275C00E4022864120CC98A0A8B0BEA450B70033D
:10276C00022861120D838A0C8B0D120D83EA650C05
:10277C007003EB650D60ECEEFCEFFD85188285199E
:10278C0083AA82AB83120D89850A82850B83A3A34E
:10279C00780C121E30908FB0780C121E0A8518829D
:1027AC008519837814121E30908FB07814121E0A7B
:1027BC00780C7914121458501F780C7914121DE2ED
:1027CC00908F6C780C1214784047850C10850D1185
:1027DC00850E12850F1380418514108515118516F1
:1027EC00128517137810790C121DE2908F6C7810EB
:1027FC00121478501C7510007511007512007513A9
:10280C000178107914121DE27810790C121DA98030
:10281C0008908FE47810121E3074097810121D8AFB
:10282C00908FD4780C121E307810790C121CED900D
:10283C0003C2E06408600AE064066005E0640570A9
:10284C001C908FC878101214785012908F707810DA
:10285C00121DBC8008908F947810121E308508824F
:10286C008509837810121E3F7406121F767F1002A2
:10287C0020CF74F7122023120D9B90055CE06401AD
:10288C007010906245E4F0A3F053F4F343FE0C5344
:10289C0090F3120D3BE5C654804449F5C6E59E54B1
:1028AC007F644970F8906185740FF090055AE0F4DC
:1028BC007002A3E0602C75080175090090055AE0C0
:1028CC007808121F4DE508F4FAA3E0600814600ABA
:1028DC0014600C800DEA52808008EA52908003EA62
:1028EC0052A079007F020220CF74F7122023E9FE58
:1028FC00EAFF74016E700C7A807B009003C1E0F9E2
:10290C001210A1902CD4E493F46008E493F9120B08
:10291C0013800953C680E59E547F70FA120D4190C6
:10292C00055CE064017003120B4990055AE0F470E9
:10293C0002A3E0602A75080175090090055AE07839
:10294C0008121F4DAA08A3E0600814600A14600C5A
:10295C00800DEA42808008EA42908003EA42A0128D
:10296C000CC98A088B09A808A909E8496017E5E190
:10297C0070FCE82414F582E93400F583E0F874FF68
:10298C0068600288E174016F700A7A019003C1E0FB
:10299C00F91210F50228F074F11220238A088B0921
:1029AC008C0A8D0B740F121FAB780C121E30908F8B
:1029BC00B07808121E0A908FB0780C121E0A780894
:1029CC00790C12145850157808790C121DE2908F5E
:1029DC006C7808121478401579018013780C7908FA
:1029EC00121DE2908F6C780C12147840EB79007FFA
:1029FC00080220CF74ED1220238A088B098C0A8DD3
:102A0C000B7413121FAB780C121E30908FB0780819
:102A1C00121E0A908FB0780C121E0A780C790812CC
:102A2C00145840117808790C121DE2AA08AB09ACB5
:102A3C000AAD0B802275100075110075120075130C
:102A4C00017810790C121DE278107908121DA9AAD0
:102A5C0010AB11AC12AD137F0C0220CF908FB0785D
:102A6C0008121E308A828B837808121E1D7F040286
:102A7C0020CF74F51220238C828D837808121E309F
:102A8C008A828B837808121DF6122AD2C3E098F042
:102A9C00A3E099122AC4401E908FF07808121E30C1
:102AAC008A828B837808121DCF8E828F83E024203C
:102ABC00F0A3E0344EF080A4F08E828F83C3E094B8
:102ACC0020A3E0944E22EA2404F8EB3400F9E8FE4B
:102ADC00E9FF8C828D83A3A3A3A3E0F8A3E0F98E76
:102AEC00828F832274F5122023E9FE900514E0FAFC
:102AFC00A3E0FBEEC333F8E433F974E728F58274F2
:102B0C008E39F583E02AF508A3E03BF50978081225
:102B1C0021CA908FEC121E4E1226EC7402121F76F4
:102B2C008A088B098C0A8D0B74107808121D71AAF7
:102B3C0008AB097F040220CF74F11220238A0C8B7E
:102B4C000D8C0E8D0F740F121FABE0FAA3E0FB740B
:102B5C0011121FABE0F508A3E0F5097413121FABBB
:102B6C00E0FEA3E0FF78081221CAEA2401F508EB85
:102B7C003400F509E4F50AF50B780C7908121C6D94
:102B8C00908F7C7808121E30780C7908121C6DAA74
:102B9C000CAB0DAC0EAD0F1226EC7402121F768B23
:102BAC0009EA450960047A0180027A00EC2AFCEDFE
:102BBC003400FDECF8EDF97A717B02121ED5880811
:102BCC008909E4F50AF50B8E828F837808121E3F73
:102BDC00ECF8EDF97A717B02121ED58A088B097418
:102BEC00057808121F4D8E828F83A3A3A3A3E5083B
:102BFC00F0A3E509F07F080220CFC082C083E990E2
:102C0C006000F0D083D08222C0E074F212210FA2B7
:102C1C00AFE433FED2AFE589A2E04012E589A2E130
:102C2C00400CE589A2E24006E589A2E450031212A9
:102C3C007B758900758900758900758900C2C57519
:102C4C001A00EEA2E092AF7F0102216EC0E074F296
:102C5C0012210FA2AFE433FED2AFE58AA2E4400CFE
:102C6C00E58AA2E54006E58AA2E6500312127B75BE
:102C7C008A00758A00758A00C2EB80C3C0E074F2CA
:102C8C0012210FA2AFE433FED2AFE58AA2E4400CCE
:102C9C00E58AA2E54006E58AA2E6500312127B758E
:102CAC008A00758A00758A00C2E88093C0E0C0D0A3
:102CBC00E8C0E0E5A8D2AFC2C7751A00A2E792AF90
:102CCC00D0E0F8D0D0D0E032FFFFFFFFFFFFFFFFD6
:102CDC00C082C083E9900A25F0022F6074F7121F9E
:102CEC00B7E99002E0F07C187D037AFF7BFF1208B5
:102CFC00499002E174FFF0A3F0A3E4F0A3F079058E
:102D0C001207D19002E0E0F91206F97A677B0812FB
:102D1C000A29023C6E74F4121FB78A088B09EB5413
:102D2C008060309002E0E0F91210898A0A8B0BAEB9
:102D3C000AAF0BEE4F60138E828F83E064B070038A
:102D4C001207E9EEFAEFFB121077AA08E509648086
:102D5C00FB80047A007B00022F2F74F2121FB774D1
:102D6C00FC121F60EAFEEBFF7412121FAB124155EE
:102D7C00EE4F7003022E097402121FABEEF0A3EF9C
:102D8C0012316AECF0A3ED12316AAA82AB831206FF
:102D9C00F3E9F50A706AE508450960648E828F8351
:102DAC0012413BEE4F60567A067B001210DD8A0C06
:102DBC008B0DA80CA90DE8497005750A1380418884
:102DCC00828983E4122E16EEF0A3EF124166E50819
:102DDC00F0A3E509F09002E6122E9D9002E6700534
:102DEC00123C18801B123C068003EAFCEBFD8C8223
:102DFC008D83122E9D70F38C828D8380E3750A0275
:102E0C00A90A7404121F76024355F0A312410CA3B5
:102E1C002274F2121FB7890AE975F017A4FEAFF0FD
:102E2C009002E5E4F09002E3122E9D600A1210E38A
:102E3C009002E3E4F0A3F0EEFAEFFB1210DD8A0847
:102E4C008B09EA4509602FEEFCEFFD790012106545
:102E5C009002E3E508F0A3E509F07B008008122E50
:102E6C0087E4F0A3F00BEBC3950A40F2E50A90025D
:102E7C00E5F0790080027913024355EB75F017A445
:102E8C00F8A9F09002E3E028FAA3E0398A82F583EE
:102E9C00221238AAEA4B2274F4121FB7740C121FB8
:102EAC00AB124130FEE9FF750800750900800CE596
:102EBC00082401F508E5093400F509C3E5089CE58B
:102ECC00099D503285080A85090B7403780A121F74
:102EDC004DEA250AF8EB350BF988828983A3A3A365
:102EEC00A3A3A3123CEDEE650A7003EF650B70BF54
:102EFC00E8FAE9FB80047A007B00802774F4121F47
:102F0C00B77900EAA2E0501B75084675098F78085E
:102F1C001221CA7C047D007A277B0A1207CB74022B
:102F2C00121F767F04022089C082C0839002E612B1
:102F3C002F67601C88828983A3A3E06A7003A3E0D7
:102F4C006B8882898370E8A3A3A3A31238A680049C
:102F5C007A007B00D083D08202013512443BE849D1
:102F6C002274EE121FB774FC121F60EAFEEBFF8591
:102F7C001882851983E4F0A3F0EE2402123BF8EEDC
:102F8C002405124113EE2404F50EEF12351FE02434
:102F9C00FE603924FC604624FE605224FE605E24F0
:102FAC00FE700302308024FE70030230E424FE70B5
:102FBC00030230F324FE700302310224FC7003027E
:102FCC00311124FE700302312002315D9002FF7436
:102FDC0017F0A3E412317212047102315D8518826C
:102FEC00851983AC82AD831207EF02312D851882CF
:102FFC00851983AC82AD831207F502312D850C083F
:10300C00850D097402121FABAC82AD8385088285D5
:10301C0009831238A61207178A0C8B0DAC0CAD0D58
:10302C00EC4D603BE4F50CF50D780C1221CA750CD7
:10303C00FF750D02780C1221CA750C00750D037802
:10304C000C1221CA7408121FAB1221E11245B712DF
:10305C001F76E9F50C700B12389C120489800F75E1
:10306C000C01850882850983123160123C18850C8D
:10307C00080231307402121FABAC82AD83850C8216
:10308C00850D83123671603C850C82850D83A3A35C
:10309C001221E17510FF75110278101221CA7510FA
:1030AC000075110378101221CA7408121FAB12217B
:1030BC00E11245B7121F76E9F509700B12389C1214
:1030CC00048F800F750901850C82850D8312316088
:1030DC00123C18850908804C851882851983AC82AE
:1030EC00AD831207FB803A851882851983AC82ADBB
:1030FC0083120801802B851882851983AC82AD83DD
:10310C00120807801C851882851983AC82AD831246
:10311C00080D800D851882851983AC82AD83120849
:10312C0013E9F508E50860298E828F83A3E0641407
:10313C00601F850E82850F83E09002FF12316A12A8
:10314C004437900300123C18E508A31231721204A4
:10315C006B023B0712443B85188285198322F0854C
:10316C00188285198322F07CFF7D02850A82850BEB
:10317C00831238AA2274EE121FB774FC121F608AD5
:10318C000A8B0B8C0E8D0FEA2405F508EB3400F539
:10319C00097C157D0079007AFF7B02121065E50829
:1031AC002402F50CE50912411685188285198385D0
:1031BC00821085831178101221CA850882850983B3
:1031CC00A3A3A3A31236681221CAE5082405F5109F
:1031DC00E5093400F51178101221CA850C82850D91
:1031EC00831239BD1207117406121F768A108B11C7
:1031FC00AE10AF11E50A2402F50AE50B123BFBEE0B
:10320C004F700302333F80177402121FAB1238A6A3
:10321C0088828983EAF0A3EBF09002FFE004F0903F
:10322C0002FFE0C39405400302333FE4F510F511AF
:10323C0078101221CA7510E875110278101221CA83
:10324C007510E975110278101221CA7406121FABA1
:10325C001221E17910EEFCEFFD1245B9121F76E94F
:10326C00705E850882850983A3A3A3A3A3A3A3E00F
:10327C00F89002E8E06870481236681221CA7CE9BE
:10328C007D02E5082408FAE5093400FB12105F748E
:10329C0002121F76E960298E828F83A3A3A3A31247
:1032AC0038A69002FFE0F51074027810121F4D74CE
:1032BC00002510F58274033511F583EAF0A3EBF0C9
:1032CC007402121FAB85821085831178101221CAEB
:1032DC007402121FAB1221E1850C82850D8312380A
:1032EC00CC121F768A108B11AE10AF119002FFE03A
:1032FC00F51075110074027810121F4D74FF251013
:10330C00F874023511F988828983A3122E9D7003FB
:10331C0002320BE82403080808E93400F9EE4F6088
:10332C00030232148882898374FFF0A3F09002FFA9
:10333C00E004F09002FFE0600A12389C12047D79E0
:10334C0000800B850882850983123C0F790A023BA9
:10335C000774EA121FB774FE121F608C128D13EAE9
:10336C002405F50CEB1245A112413F7508007509B7
:10337C0000EA2402F510EB3400F51185188285194A
:10338C008385820A85830B780A1221CA850C828573
:10339C000D83A3A3A3A31235351221CAE50C240572
:1033AC00F50AE50D123BFB780A1221CA850C8285C1
:1033BC000D831235391207117406121F768A0A8B87
:1033CC000BEA450B70030234DAEA2404F50EEB1217
:1033DC00351F12413F8A828B83A3A3A3E0F985108A
:1033EC00828511831238B060030234DAE4F514F5E7
:1033FC001578141221CA7514E87515027814122167
:10340C00CA7514E975150278141221CA7406121FB4
:10341C00AB1221E17913AC0AAD0B851082851183B7
:10342C001245BF121F76E9F50960030234DA9002E7
:10343C00E8E0F8E5087009E02402900300F080143D
:10344C00900300E0FCE82402FAE43400FBEA6C7020
:10345C0001EB707E850882AA8212365F94141236B4
:10346C0057506B850E82850F83E0C0E074012A12E1
:10347C003516D0E0F00508850E82850F83A3E0C0D9
:10348C00E085080A7401250A123516D0E0F005080B
:10349C009002E81235351221CA7CE97D0285080AB2
:1034AC007401250A123529121F769002E8E02508CE
:1034BC00F50874FF6E700374FF6F6012EE24010E3A
:1034CC00EF3400FFE508C394145003023387E5087A
:1034DC0060131238BA8510828511831238A6120433
:1034EC008379008014E509700375090A85128285B9
:1034FC001383EEF0A3EFF0A9097402121F767F0E6E
:10350C0002208985080C7401250CF58274033400A3
:10351C00F583223400F50F850E82F58322FA7403AD
:10352C003400FB12104D74022212417522A3A31217
:10353C00353F22123C06FDEEFAEFFB2274EE121F11
:10354C00B774FE121F608C0E8D0FEA2405F50CEB80
:10355C00124116750B009002FFE4F0F50AEA240202
:10356C00F508EB3400F50980449002FFE0FA900274
:10357C00E8E0F812365F9417123657400D9002FFB0
:10358C00E0F87416C3989002E8F01236681221CA5B
:10359C007CE97D0274002AFA740312352C121F7612
:1035AC009002E8E0F89002FFE028F0050AE50C2410
:1035BC0016F582E50D12351AE0F8E50AC398507439
:1035CC009002FFE0C39416506BE50AC333F8E43362
:1035DC00F9E50C28FEE50D39FF851882851983ACB9
:1035EC0082AD838E828F831236717008750B011237
:1035FC003C0B8050E4F510F51178101221CA7510AF
:10360C00E875110278101221CA7510E9751102784B
:10361C00101221CA7406121FAB1221E1791685080B
:10362C00828509831245BF121F76E9F50B700302E0
:10363C00357580BB7CFF7D02850882850983123835
:10364C00A6120495A90B7402023B09E99400C36508
:10365C00D03322EA28F8E43400F9E822E0F51075BA
:10366C001100781022123AFE8A108B11AC10AD1199
:10367C00EC4D2274EA121FB774FC121F608A0C8B7B
:10368C000D8C128D13EA2405F50AEB123BFB750821
:10369C0000750900E50A2402F510E50B3400F5115C
:1036AC007402121FAB85820E85830F780E1221CA0D
:1036BC00850A82850B83A3A3A3A312411B1221CAE3
:1036CC00E50A2405F50EE50B3400F50F780E1221F2
:1036DC00CA851082851183123C011238A012071181
:1036EC007406121F768A0E8B0FAE0EAF0FE50C24EC
:1036FC0002F50EE50D3400F50F803888828983744D
:10370C00FFF0050812350F74FFF005089002E8E091
:10371C00F50C750D00780C1221CA7CE97D02850828
:10372C000C7401250C123529121F769002E8E02545
:10373C0008F508EE4F60278E828F83A3A3A3E0F9D0
:10374C00850E82850F831238B0EE2404124113E9E2
:10375C006027850C82850D83123892123C18E5087F
:10376C0070030238781238BA850E82850F831238AE
:10377C00A612049B790002388DE4F514F515781423
:10378C001221CA7514E875150278141221CA751421
:10379C00E975150278141221CA7408121FAB122194
:1037AC00E17911EEFCEFFD850E82850F831245BF8A
:1037BC00121F76E9F509709A850882AA82EA9002AE
:1037CC00E87009E02404900300F08025E0F89003F1
:1037DC0000E0F514E82404FCE43400FDEC651470FE
:1037EC0001ED708112365F94121236574003023786
:1037FC0071850C82850D83E0C0E074012A123516A8
:10380C00D0E0F00508850C82850D83A3E0C0E012A2
:10381C00350FD0E01238D585820C85830D780C12CB
:10382C0021CA7404121FAB1221E185108285118309
:10383C001238CC121F768A0C8B0DAE0CAF0D85088E
:10384C000C7401250CF874033400F9EE4F7003026C
:10385C003707851882851983E0888289831238D5C9
:10386C00A3E0C0E012350FD0E0023715E509700374
:10387C0075090A850A82850B83123892123C18A9A5
:10388C0009740402350712443B8512828513832286
:10389C007CFF7D02850A82850B831238AA22E0FA0E
:1038AC00A3E0FB221238AA1206FFE9F509229003C5
:1038BC0000E0F5F0E508849002FFF07CFF7D022229
:1038CC0012353F12071D740422F0050885188285F5
:1038DC0019832274EC121FB774FE121F608A088BB6
:1038EC00098C0E8D0FEA2405FEEB3400FF123AE82A
:1038FC00EE2418124113EA450B700302398B123A6D
:10390C00D150291239B08A108B11EA4511606B79AC
:10391C0012AC0AAD0B8508828509831238A6851076
:10392C0082851183121FB5E9F50A7058E4F50AF582
:10393C000B780A1221CA8E828F83A3A3E0F50A7832
:10394C000A1221CAEE2403123BF8780A1221CA8EFD
:10395C00828F831239BD1208377406121F76E9F56F
:10396C000A7021850C82850D83E0701F8508828585
:10397C0009831238A61204A18011750A0E800975EC
:10398C000A018004E50A6003123C0B850C82850D4C
:10399C0083E0600479008002A90A7402121F767F0A
:1039AC000C0220898518828519831238AA120825E1
:1039BC0022123C06FD8508828509831238AA2274DE
:1039CC00EE121FB774FE121F608A088B098C0C8DC7
:1039DC000DEA2405FEEB3400FF750E00123AE8EAFE
:1039EC00450B7003023AAF123AD1502C1239B08AFF
:1039FC000E8B0FEA450F604A7912AC0AAD0B8508A5
:103A0C00828509831238A6850E82850F83121FB515
:103A1C00E9F50E6003023AB2850882850983123CEF
:103A2C00EDAA0AFB123AC370147AFF7BFF123AC359
:103A3C00606C88828983E50AF0A3E50BF0750A00B7
:103A4C008007750E0E805F050A9002E5E0FAE50A24
:103A5C00C39A504AE50A75F017A4FAABF08882892C
:103A6C0083A3A3E02AFAA3E03BFB8A828B83123C5C
:103A7C0001EC4D70D2750A17750B00780A1221CA29
:103A8C00EEFCEFFD12104D7402121F76EEFCEFFDF2
:103A9C008508828509831238A61204A78014750E36
:103AAC00098003750E01124433850C82850D831237
:103ABC003C18A90E0236521208198A108B11A81044
:103ACC00A911E84922E5082402F508E5093400F5B6
:103ADC00098A828B83A3A3A3E0A2E52285188285A1
:103AEC001983AC82AD838E828F83123AFE8A0A8B45
:103AFC000B22E0FAA3E0FB120717227404121F76C4
:103B0C007F0A02208974EC121FB78C108D11EA24E5
:103B1C0005F50CEB124116750F00EA2402F50AEBC1
:103B2C00123BFB850A82F5831238A61246457003B8
:103B3C00023BED750E008071850C82850D83E0646F
:103B4C0001704F8E828F83A3A31221E18E828F830B
:103B5C00A3A3A3A3E0F51275130078121221CAEEE9
:103B6C002405F512EF3400F51378121221CA12381D
:103B7C00A01208377406121F76E9F50F6014850C35
:103B8C0082850D83E4F012443385108285118312F3
:103B9C003C187C177D007900EEFAEFFB1210658E55
:103BAC00828F83E4F0A3F0050E9002E5E0F8E50EB9
:103BBC00C398501EE50E75F017A4F8A9F08508827D
:103BCC00850983A3A31245AB123C01EC4D600302A3
:103BDC003B4485088285098374FFF0A3F0E50F70E0
:103BEC00061238A01204ADA90F0239ABF50AEF3456
:103BFC0000F50B22A3123C06FD22E0FCA3E0228E72
:103C0C00828F8312443B850E82850F83E8F0A3E9F3
:103C1C00F022C082C0839002E1E06A7003A3E06BE3
:103C2C0070067AE17B0280047A007B00022F6074BC
:103C3C00F7121FB77F00EF75F003A4F8A9F0EC287A
:103C4C00F8ED39F988828983E06A7003A3E06B7020
:103C5C0006E8FAE9FB800B0FEFC3940240D87A0018
:103C6C007B007F0102208974F6121FB71242247068
:103C7C00067A007B008007A3A3A3A31238A60242F6
:103C8C00E574F2121FB7E9FE740E121FAB123CED75
:103C9C007410121FAB1241558C828D83E06402703C
:103CAC003BA312443788828983E0F50CA3E0F9A882
:103CBC000C74026870037429697021750C02750DFF
:103CCC0000780C1221CA78081221CA780A1221CA6B
:103CDC00EEF912085B7406121F768002790102431A
:103CEC0055E0F50AA3E0F50B2274E8121FB774FB3C
:103CFC00121F60E9851882851983F08A168B178C40
:103D0C000E8D0F741F121FAB1241557421121FAB75
:103D1C00123CED7423121FAB12413F7510008C82C4
:103D2C008D83A3A3A3E0A2E4502A741D121FAB122F
:103D3C0039B68A828B83E58245837003023E017912
:103D4C000AAC0EAD0FAA16AB17121FB5E9F5106031
:103D5C0003023E04850E82850F83E0640260030239
:103D6C0040BAA3124437850882850983A385821241
:103D7C00858313E50E2406F50CE50F124116888297
:103D8C008983E0FAA3E0F9EA2400F514E439F51587
:103D9C007814122254010000280128C93D070002A2
:103DAC0028A03E0328103E0029CA3F0129F23F02F9
:103DBC0029993F0329CA3F04295B40BA40EE4F7052
:103DCC003E850C82850D83124130FAE9FB8A828B89
:103DDC0083E0850A82850B8312416C1221CA8A8288
:103DEC008B83A3123C06FDAA08AB0912104D74027A
:103DFC00121F76800375100EA91074050245997573
:103E0C00100B80F4EE4F70F7850A82850B837401DA
:103E1C00F0124145850882850983F07C007D008580
:103E2C000E82850F83A3A3A3A3E02401FAA3E0349D
:103E3C0000FB120717EA4B60418A828B83E0240255
:103E4C00F8850A82850B83E028F0EA2404F8EB3429
:103E5C0000F988828983E085128285138312417E62
:103E6C0012416C1221CA8A828B83123C00E5082411
:103E7C0003FAE5093400FB023DF7850A82850B83C2
:103E8C00E02404F07C047D007900AA12AB1312101C
:103E9C0065023E04EE4F6003023E0B124145FEA349
:103EAC00E0FF850A82850B837404F0EE8508828519
:103EBC000983F0EF851282851383F07403121FAB14
:103ECC00AC82AD83EEFAEFFB1242127003023F7626
:103EDC008A828B83A3A312413B7401121FAB858290
:103EEC000E85830F780E1221CA7405121FAB122196
:103EFC00E17CFF7DFF12071D7404121F768B0FEA05
:103F0C00450F7033850C82850D8312411B1221CA1B
:103F1C00850C82850D83A31221E17C027D007A2A17
:103F2C007B901205497404121F76E9700A74011211
:103F3C001FAB74FFF0A3F08E828F83E064027034A9
:103F4C00750C02750D00780C1221CA8E828F8312AB
:103F5C003C00E5082404FAE50912352C121F76857D
:103F6C000A82850B83E0240280097401121FABEED8
:103F7C00F0A3EFF07401121FAB12412CF07401127C
:103F8C001FABA3124124A3A3A3F0023E04EE4F6087
:103F9C0003023E0B850C82850D83123C01AA16ABE5
:103FAC001712084F850A82850B837402F0EA850884
:103FBC0082850983F0851282851383EB80CBEE4FCB
:103FCC006003023E0B124145F8A3E0F9850A828595
:103FDC000B837402F0E8850882850983F0E9851269
:103FEC008285138380A3850C82850D831238A612DB
:103FFC001047EAFC8C82A882C39EE49F404BE86E7B
:10400C007001EF70047C00801F851882851983E095
:10401C00FAEE2AFAEF3400FBC3EA98EB9400500353
:10402C00E08004EECCC39CFCEC850A82850B83F00B
:10403C008C0A750B00780A1221CA850C82850D83B7
:10404C00E02EFCA3E03F023DF2751007023E04EEA9
:10405C004F6003023E0B850C82850D83124437851D
:10406C000A82850B837407F088828983124124129B
:10407C00410CE0851282851383F0E82402FAE934BE
:10408C0000FB8A828B8312412412415D12412CA3C6
:10409C00124166124135F0E82405F8E93400F9883C
:1040AC00828983124135A312417EA3023F92741D73
:1040BC00121FAB12421D7003023E01124437880CD2
:1040CC00890DE8450D7003023E018E108F1178109A
:1040DC001221CA780A1221CA78081221CA7406124F
:1040EC001FABE0F9AC0EAD0FAA16AB17850C828591
:1040FC000D83121FB57406121F76E9F510023E04EB
:10410C00F088828983A322F50CEF3400F50D22E0B0
:10411C00F50E750F00780E22E08508828509832242
:10412C001241852212443BE822124185A3A322A30B
:10413C00A3A3A3E0FEA3E0FF22850C82850D83E000
:10414C00F8A3E0F5838882E022E0F508A3E0F50906
:10415C0022A3A3F08A828B83A322122E18A3A3225C
:10416C00F08A828B8312417522E0F50A750B007878
:10417C000A2212410C12418522E0850882850983AE
:10418C00A3A32274EE121FB774FE121F608A0A8B4F
:10419C000BECFAEDFB7414121FABE0F510A3E0F579
:1041AC00117416121FABE0FE7418121FABE0F50E63
:1041BC00A3E0F50F851882851983AC82AD8312427A
:1041CC0012603E85188285198312421D602FA3A3AD
:1041DC00124155E50845096024780E1221CA781061
:1041EC001221CAEEF9AC0CAD0DAA0AAB0B850882F4
:1041FC00850983121FB57404121F768006790E8010
:10420C000279010236521207178A0C8B0DEA450D02
:10421C00221238AA124224221207E38A828B83E5E7
:10422C008245832274F6121FB774FE121F60740C41
:10423C00121FAB124130851882851983F07401125C
:10424C001FABE9F0E4F508F50978081221CA7508E6
:10425C000278081221CA7404121FAB858208858368
:10426C000978081221CA1208377406121F767402D4
:10427C00121F76806474F7121FB7EAFEEBFF8908F1
:10428C007C187D0312084FEA5402600BA908EEFA61
:10429C00EFFB12070B80027901023C6E74F6121FC1
:1042AC00B774FF6A700374FF6B701C7B00EB75F0C6
:1042BC0003A4F8A9F0EC28F8ED39F91242EA0BEB5B
:1042CC00C39402501480E612081F8A088B09A808B0
:1042DC00A909E84960031242EA7F02022089888218
:1042EC00898374FF122E16E4F02274F6121FB71293
:1042FC00081F8A828B83E58245836006A3A3E0FABC
:10430C0080027A007B0080D174F2121FB78A088B6E
:10431C0009ECFEEDFF740E121FABE0F50A12435AC6
:10432C00701CEEFCEFFD7AFF7BFF12435A70047990
:10433C0011801688828983E508F0A3E509F088824C
:10434C008983A3A3E50AF079007F0602208912086D
:10435C001F8A0C8B0DA80CA90DE8492274EE121FB4
:10436C00B7EAFEEBFF8C088D09890C7412121FAB97
:10437C001244377414121FAB123C017416121FAB8B
:10438C001238A6750D00EC4D600302442B740265C7
:10439C000C600302442688828983123C06F9EC24C3
:1043AC0000F50EE439F50FEAF4F8EBF4F9EC58F8F3
:1043BC00E50F59F9E849705DE5082406F8E509347C
:1043CC0000F9880A890B8882F58312353B12084F55
:1043DC008A108B11E50E65107004E50F65116042B3
:1043EC00780E1221CA850A82850B8312353B12087E
:1043FC00557402121F76E9F50D7027780E1221CA3A
:10440C00850882850983A3A312353912086D7402BD
:10441C00121F76800D750D808008750D0D8003754B
:10442C000D0BA90D023B0C8E828F8312443B22E0B4
:10443C00F8A3E0F92274E8121FB774E7121F608525
:10444C001882851983EAF0A3EBF08C168D17890E70
:10445C007431121FABE0F512A3E0F5137433121F85
:10446C00ABE0F514A3E0F5157435121FABE0F50FB6
:10447C00750800750900E50975F003A4F8A9F08525
:10448C0018828519831245ABE0F47003A3E0F47035
:10449C0003024589EE2402F50CEF1245A1E07003EE
:1044AC0002458985160A85170B780A1221CAAC14A5
:1044BC00AD15AA12AB131207D77402121F768A0A13
:1044CC008B0BEA450B7003024589E4F510F5117866
:1044DC00101221CA7406121FAB85821085831178C5
:1044EC00101221CA7409121FAB85821085831178B2
:1044FC00101221CA851282851383A3A3A3A31221B0
:10450C00E17914AC0AAD0B8E828F831245BF121F5A
:10451C0076E97069850A82850B83A3A3A3A3124451
:10452C00377402121FAB123C18850C82850D83E088
:10453C00A2E05018A90E7402121FABAC82AD838E90
:10454C00828F831238A612072FE94208850C8285C8
:10455C000D83E0A2E15026E50FF50A780A1221CE70
:10456C00A90E7403121FABAC82AD838E828F8312A3
:10457C0038A61207297401121F76E942080509E5CD
:10458C0009C394025003024482A9087419121F76BD
:10459C007F100220893400F50D850C82F58322E012
:1045AC0028FEA3E039FF8E828F83227916850A823A
:1045BC00850B831238AA12083174082274F2121F68
:1045CC00B7EAFEEBFF890B7401650B600E74026594
:1045DC000B70637901120A47E9705BEEFAEFFB127C
:1045EC0046456047750A00800B7C177D00790012E8
:1045FC001065050A9002E5E0F8E50AC3985021E53C
:10460C000A75F017A4F8A9F0850882850983A3A37D
:10461C00E028FAA3E039FB8A828B83122F6770C9DA
:10462C0085088285098374FFF0A3F07C187D03EE66
:10463C00FAEFFB1208490243551208198A088B0934
:10464C00EA45092274F2121FB78A088B09ECFEEDB9
:10465C00FF740E121FAB123CED900A25E0F4603D86
:10466C007A097B00121071EA4B60328A828B837458
:10467C00B1F0A3E412415FA312415DA3E508F0A3DE
:10468C00E5091246ACEEF0A3EF1246ACA3A3E50A83
:10469C00F0A3E50BF0900A25E0F912107D024355CA
:1046AC00F08A828B83A3A3A3A3A322C082C083908E
:1046BC0061907404F0A37448F0A3E4F090618074EA
:1046CC0040F09061BC7407F09061877469F0906160
:1046DC00B67416F07900120B377902120B3D902C40
:1046EC00D4E493F46006E493F9120B137905120EDB
:1046FC0031024AF9C082C083E9540FF9906185E018
:10470C00696012E5C654804449F5C6E59E547F6441
:10471C004970F8E9F053C680E59E547F70FA024A5E
:10472C00F974F7121FB7E5A8FE53A87E120B1FC22F
:10473C00BA539AFEC289759B00C2C2120B2575A989
:10474C001175B905120B2BD2BA439A0174805E42D3
:10475C00A8025086C082C083906181E4F0A3024A13
:10476C00F675E90075910075BF00020135C082C075
:10477C0083906181E4F0A374C0F0A3E4024AF8C012
:10478C0082C08374F8121F609003C4124F68E8490A
:10479C0070030248429003C4E054406023790885BA
:1047AC001882851983AA82AB83120C2D85188285F9
:1047BC001983AA82AB831208D99003C4E054BFF0CA
:1047CC00E054806010790C7A807B05120C2D9003DC
:1047DC00C4E0547FF0E0A2E05008790012484A543B
:1047EC00FEF0E054026008790112484A54FDF0E0F2
:1047FC0054046008790012485554FBF0E0540860EA
:10480C0008790112485554F7F0E054106008790209
:10481C0012485554EFF0E0542060087903124855C3
:10482C0054DFF0A3E05401600D120B491208EB9019
:10483C0003C5E054FEF07408121F76024AF9120BFD
:10484C00371208DF9003C4E022120B3D1208E590EA
:10485C0003C4E022C082C083E9600514602A804F43
:10486C0090619A7433F0A37455F09061A0743AF08F
:10487C0090055CE064017009C2919003C674678076
:10488C002D9003C67461802690619A743FF0A374D6
:10489C005AF09061A0747FF090055CE0640170099F
:1048AC00D2919003C6747180059003C6746AF002AD
:1048BC004AF9C082C083E9600B14600D14600F14B8
:1048CC0060118020902CD88015902CD98010902CC1
:1048DC00DA800B90055CE0640160F3902CDBE493D0
:1048EC00906186F0024AF974EE121FB774F4121F2D
:1048FC0060851882851983AC82AD8375838F758230
:10490C00887404121E73902CD893F46003024A85A9
:10491C00907808E0C394025003024A657404121F95
:10492C00ABAC82AD8375838F7582207408121E73B5
:10493C00F97AFF7BFF7FFF7E0089828582108018C9
:10494C0074086E7003024A1A74096E7003024A1AD4
:10495C00740A6E7003024A1AE510C333FCE433FD8B
:10496C007404121FABE5822CF582E5833DF583E0E0
:10497C00F50EA3E0F50F8E08750900740278081285
:10498C001F4D74482508FC74783509FD8C828D8385
:10499C007808121E3074087808121D7185080C8571
:1049AC00090D8C828D837808121E307418780812C9
:1049BC001D71E50C4508F508E50DF509C3E50E95E7
:1049CC0008E50F95098C828D837808121E308C8235
:1049DC008D837808121E30741878084014121D71DB
:1049EC00E50C4508FCAD0DE50EC39CFCE50F9D8068
:1049FC000F121D71E50C4508C3950EFCE50D950FC6
:104A0C00FDC3EC9AED9B5006ECFAEDFBEEFF0EEEBF
:104A1C00C39413500302494C74FF6A700374FF6B08
:104A2C00602D8F0874027808121F4D7448125714A9
:104A3C0074783509F5837808121E3085188285192B
:104A4C0083E5822510F582E5831254A1E508F0096F
:104A5C00E9C39404500302493D75080175090078B7
:104A6C00081221CA7402121FABAC82AD837A367B5A
:104A7C000B1212577402121F76740C121F767F0AD7
:104A8C00022089C082C083906186E0F8902CDBE420
:104A9C0093687009902CDAE493906186F09061AE83
:104AAC007468F0A3746AF090624574FBF0A304F090
:104ABC0053F4FD43FE0290055C7401F09061A0E09C
:104ACC00643A7004790080027901120B37024AF9BA
:104ADC00C082C08390050EE06401700A900513E05B
:104AEC006004790C800279008003F0A3F0D083D0AD
:104AFC0082020135C082C08375E1F1900511E0603E
:104B0C004D1460081460511460498051120B5B9075
:104B1C000507E0F97A087B05120DB3908F84121EFD
:104B2C004E120DE9908FCC121E4E120DBF90051235
:104B3C00E0F9120DCB7901120E25900505E0241633
:104B4C00124C8E7473F0A3740BF07900809F120BCF
:104B5C006180BC120B6780B7120B6D80B27912802A
:104B6C00EB74F4121FB775D90D9004F6E0A2E0E4D3
:104B7C00331313F8124BFA484401F5D97800124C50
:104B8C007840FB7800880874F71257147404124CA0
:104B9C008240F275E1959004F6E0F97AF77B041205
:104BAC000DB9900A4774E9F0A3740A124C9D124C8B
:104BBC00BD124CB4124DF5124C047808121E3090F4
:104BCC008F807808121DBC908FB07808121E0A12C4
:104BDC004C887808121E3F900505E02414124C8E68
:104BEC007413F09003C27402F07F040220899005C4
:104BFC0007E0C4333354C022900505E0F8A3E0F578
:104C0C00838882A3A32274F6121FB7124DC68AD9C9
:104C1C007800124C7840FB78008006124D2C124E16
:104C2C0078E8C39940F5124DB8124C7840FB7800E7
:104C3C0080081257107405124E78E8C39940F3752A
:104C4C00E195900A4774F5F0A3740A124C9D124C2E
:104C5C00A7121E4E124C88121E5A900505E0241401
:104C6C00124C8E7412F09003C202506388087408C0
:104C7C002508F5827405124FD4940622900505E0A0
:104C8C00240EF8A3E0124C95223400F98882898313
:104C9C0022124DDE74EFF0A3740A22124CBD124C9A
:104CAC00B4124DF9908FF022F0A37407F0A3740B9B
:104CBC0022124CC122124CC522F0A37499F0A37499
:104CCC000C2274F6121FB7124D21124BFA4402F546
:104CDC00D97800124C7840FB78008006124D2C12CB
:104CEC004E78E8C39940F575E195900A47124D3717
:104CFC00F0A3124D37124CAA121E4E124C88121EE3
:104D0C005A900505E02414124C8E7414F09003C2D2
:104D1C007404025065900517E0F9740729F5D9223F
:104D2C00880874182508F5827405227401124D4404
:104D3C00124D44F0A3740B22F0A3740BF0A3740176
:104D4C002274F6121FB7124DC674064AF5D97800B4
:104D5C00124C7840FB78008006124D2C124E78E8ED
:104D6C00C39940F5124DB8124C7840FB780080087E
:104D7C001257107405124E78E8C39940F375E195FB
:104D8C00900A4774FBF0A3740A124DD4124CA7126C
:104D9C001E4E124C88121E5A900505E02414124C1B
:104DAC008E7415F09003C27403025065900537128F
:104DBC004D2474044AF5D9780022124D2190050730
:104DCC00E0C4333354C0FA22124DDE7499F0A3744C
:104DDC000C22124DE222124DEF7499F0A3740C12B6
:104DEC004DEF22124CC5F0A322124DF922F0900A7D
:104DFC00557499F0A3740C124DE27499F0A3740CD1
:104E0C00124CC1F022C082C083124C04A3A3A3A3F2
:104E1C00E4024AF674F7121FB7125956F8740339A4
:104E2C00F9E82405FAE93400FB8A828B831256C513
:104E3C0088828983A3A3A3A3A3A3A3A3A3ECF0A316
:104E4C00EDF088828983A3A3A3A3A3A3A3E024FFEB
:104E5C00F8A3E034FFF98A828B83E8F0A3E9F0022F
:104E6C005086880874602508F58274051255ECF597
:104E7C00D90822EAFEEBFF9061D0E0F87480C39869
:104E8C00FAEE248322124E979404221254AFE0F5CA
:104E9C00D90AEAC32274F6121FB7EAFEEBFF90613F
:104EAC00D0E0707575D90E75D90375D9047A008A5E
:104EBC0008EE2508125A24248C124F3A40F17A003D
:104ECC008A08EE2508125A242484124E9140F1755A
:104EDC00E1957908EE248C124F332484124F2A7CEE
:104EEC00008C82AA82C3E49AF895E0F9EE28F8EFD8
:104EFC0039F9E8248BF582E91255E8C0E0EE2A1264
:104F0C005A2424ABF582E91254A1D0E0F00CECC386
:104F1C00940840CD124FF080027900025066FAEFEF
:104F2C003400FB120C2122124F2A7904EE22124E6D
:104F3C0097940822C082C08375D90275D90375D99C
:104F4C000575E195EA2470F582EB124F65EA24723F
:104F5C00F582EB125002024AF91254B2124F6C2233
:104F6C00E0F8A3E0F92274F6121FB7EAFEEBFF900B
:104F7C0005607406124FDE1221CA7C0179031253AC
:104F8C000A121F7675D90675D9037800124FC440E2
:104F9C00FB75E1959003C2E064087017EE2470F580
:104FAC0082EF124F65EE2472F582EF1254A1E8F0F5
:104FBC00A3E9F07901025066880874602508F5822F
:104FCC007405124FD49405221254B2E0F5D908E8B6
:104FDC00C322F075086075090578082275E195798A
:104FEC0004120DEFEE2470F582EF1254B2124F6CD6
:104FFC00EE2472F582EF1254B2E8F0A3E9F07901D5
:10500C002274F6121FB7EAFEEBFF9061D0E07043FA
:10501C007901900560740BF09003C2E0640770177F
:10502C0075086075090578081221CA7C01090912F6
:10503C00530A121F767905740129F5D975D90378AD
:10504C00008003124E6EE8C39940F875E195124F3B
:10505C00F08002790080037401F07F0202208974D1
:10506C00F7121FB7EAFEEBFF75D90375D90375D993
:10507C000DEE24DE12508B124FE87F01022089F5D1
:10508C0082EF1255ECF5D9227F0302208974012599
:10509C000AF5D975D90378002274F5121FB712518D
:1050AC001A6004780480027800E8240BF8EAC398AC
:1050BC004041750A099005607409F0790812510392
:1050CC00601475086075090578081221CA1253021C
:1050DC00121F76750A0D1250998003124E6EE8C39A
:1050EC00950A40F775E1957904120DEF12527F790C
:1050FC0001800279008091EE24E3FCEF3400FD7A0C
:10510C00617B05120C1B850882850983E022124EF7
:10511C007FF8EF1256B9F583E02274F3121FB78AA9
:10512C00088B09125315FAE5082483F50AEB125182
:10513C00E46004780480027800E82408F8EAC39854
:10514C0050030251DD750C06900560740CF0900351
:10515C00DFE0900561F07402C0E0F97CE07D037A39
:10516C00627B05120C1BD0E0F97CE27D03120C1B58
:10517C00850A82850B83E0601C750A60750B0578C7
:10518C000A1221CA7C067903AA08AB0912530A1227
:10519C001F76750C0A7401250CF5D975D9037800A6
:1051AC008009880A7460250A124E74E8C3950C4075
:1051BC00F175E1957904120DEFE5082470F582E59F
:1051CC0009124F65E5082472F582E5091250028038
:1051DC000279007F050220893400F50B850A82F5DF
:1051EC0083E02274F6121FB7EAFEEBFF125315FC94
:1051FC00EE2483F8EF12531060047A0480027A00D4
:10520C00EA2404FAECC39A405E7A02900560EAF054
:10521C00EE24F5F582EF12528B6019750860750952
:10522C000578081221CA7C027903EEFA12530A128D
:10523C001F767A0674012AF5D975D9037800800394
:10524C00124E6EE8C39A40F875E195EE2474125232
:10525C0078EE248012527812527F7904120DEFEE00
:10526C00240D124FF380027900025066F582EF1282
:10527C0053FB22EE241DF582EF1253FBA3F02212F6
:10528C0055EC900561F088828983E02274F6121F38
:10529C00B7125315FEEA2483F8EB12531060047C0A
:1052AC000480027C00EC2404FCEEC39C40437C0292
:1052BC009005607407F0EA24F6F582EB12528B60CD
:1052CC001575086075090578081221CA79031253FF
:1052DC000A121F767C0674012CF5D975D903780057
:1052EC008003124E6EE8C39C40F875E195790180FD
:1052FC000279000250667C097903EEFAEFFB120C7E
:10530C008D740222124C95E0229061D0E0F87480EA
:10531C00C3982274F5121FB7E9FEA2AFE433F50A65
:10532C00C2AF7F00EA246FF8EB3400F980010F88DC
:10533C00828983E0FCEFC39C50188F08EA2508FC97
:10534C00EB3400FDEC246BF582ED1255E86E70DE4B
:10535C008010EA2CFAEB3400FB12549BEE125291A3
:10536C0004F0E50AA2E092AF02509474F6121FB753
:10537C00A2AFE433FFC2AFEA246FF8EB125A26FC5B
:10538C00E9FD8C828D83E014F07E0080218E08EA8A
:10539C002508F8EB125A26246CF582E91255E8C060
:1053AC00E0E8246BF582E91254A1D0E0F00E8C8277
:1053BC008D83E0F8EEC39840D4EA246E12549E74A8
:1053CC00FF1253F0EFA2E092AF025066C082C0838E
:1053DC00E5A8F8C2AF12549BE91253F0E8A2E79289
:1053EC00AF024AF9F0EA246AF582EB1253FB22125F
:1053FC0054B2E4F02274F2121FB78C828D83A3A3F3
:10540C00A3A3E0541FF0EA243612575D8E828F83DB
:10541C00E4F0F50C850C8285820AEC250AF8ED1275
:10542C0056B5F583E0C0E0EA250AF8EB1254A5D096
:10543C00E0F0750D00850882850983E0F50A750B8F
:10544C0000E50D780A121F2EE50AA2E0502AE50CA1
:10545C0033333354F8250DC0E08E828F83E0F8EAA5
:10546C0028F8EB125A262438F582E91254A1D0E020
:10547C00F08E828F83E004F0050DE50DC394084097
:10548C00B4050CE50CC39405408A7F06022089EA1A
:10549C00246BF582EB1254B2223400F9E8245D122D
:1054AC0054AF22F582E93400F5832274F6121FB74B
:1054BC009003EEE0640170077A007B000255E27EF7
:1054CC00009003F4E070F17401F0A3E4F0A3F09009
:1054DC00045404F0900457E4F0A3F090045A04F040
:1054EC009003F7E41255F990040104F0900427E4BA
:1054FC00F0908F94121E4E90040A121E5A90040EB5
:10550C00E4F0A3F0A3F0900472F0900466F0900421
:10551C005B7480F0A3E4F0900461F0900459F09077
:10552C0004DD1255F19004E6F0900475F09004C57A
:10553C00F0A3F0908F94121E4E9004C7121E5A9036
:10554C008F94121E4E9004CB121E5A9004D1E4F08C
:10555C009004D3F09004CFF09004E91255F18E082A
:10556C00745D12571474041254A174FFF00EEEC340
:10557C00940440EA7E008E82A88274FD28F5827421
:10558C00041255E8C0E0744F28F58274041254A13B
:10559C00D0E0F00EEEC3940540DC7E008E82A88233
:1055AC0074D628F58274031255E8C0E074D528F53A
:1055BC008274041254A1D0E0F00EEEC3940840DCC7
:1055CC009003EEE004F0640170089003F6E09003A1
:1055DC00F0F07AF27B03025066F582EF1255EC2262
:1055EC001254B2E0221255F9A31255F922F0A3F08D
:1055FC00A3F0A3F022C082C083EA2403F582EB124D
:10560C0055E86008E4F09003EFE014F09003EEE04E
:10561C0014F070069003F074FFF08A828B83A3A3BE
:10562C00E4F0900502E0700D9003EFE0640170056A
:10563C007900120DD1024AF9C082C0839003F5E4BF
:10564C00F09003F4F09003EEF0A3F0A374FFF07568
:10565C00E1F1024AF9C082C083780079009003F529
:10566C00E0600478F2790388828983A3A3A3A3E082
:10567C00F9024AF974F6121FB7EAFEEBFF120BD3CC
:10568C00EE2465F8EF1256B51256C3EC4D6010902F
:10569C0003F012594E850882850983E4F0A3F0EEDD
:1056AC00FAEFFB120CC30250661256B9223400F901
:1056BC0088088909888222F583E0FCA3E0FD227426
:1056CC00F7121FB7EAFEEBFF8E828F83A3A3A3A36F
:1056DC00E0FA7B00120951EEFAEFFB120BE5120C0B
:1056EC00A502508674F6121FB77800880874D6127B
:1056FC005714740312527B08E8C3940840ED9003CE
:10570C00D6025063880874382508F5822274F61284
:10571C001FB7EA240D12575DEC2403F8ED3400F9A1
:10572C0088088909EC2407F8ED125A26FCE9FD12C9
:10573C005767121ED58E828F83E8F0A3E9F01257BB
:10574C0067121ED58B09EA4509600312577A02507D
:10575C0066F8EB3400F9E8FEE9FF228C828D8312A7
:10576C004F6C850882850983E0FAA3E0FB228E82C8
:10577C008F83E02401F0A3E03400F02274F6121FB2
:10578C00B7EA242EF582EB34001256C3EA247012C9
:10579C00575D780079FAECFAEDFB121ED58E828FEC
:1057AC0083E8F0A3E9F0780079FAECFAEDFB121E2D
:1057BC00D58B09EA4509600312577A02506674F0DA
:1057CC00121FB7EAFEEBFF7410121FAB7808121E03
:1057DC0030120D7D8A0C8B0D8C0E8D0F908F78787E
:1057EC000C121DBC908FB0780C121E0A780C122172
:1057FC00C68E828F83124C07121E4E1229A374047C
:10580C00121F76E960030258B28E828F83E0240265
:10581C00F8A3E0125A26FAE9FB8A828B83780812E5
:10582C001DCF908FB07808121E308A828B83780837
:10583C00121E1DEE240BF582EF1254A1C082C08300
:10584C008E828F83A3A3A3A3A3E02401F8A3E03447
:10585C0000F9D083D082E0687003A3E0697004790A
:10586C00018045EE2407F8EF124C9512577EEE247A
:10587C0074125A2B7014EE24751258B97003A3E0ED
:10588C006D70078A828B8312577EEE2480125A2BFE
:10589C007014EE24811258B97003A3E06D70078A5E
:1058AC00828B8312577E79007F08022089FAEF34AD
:1058BC0000FB8A828B83E0FCA3E0FD88828983E075
:1058CC006C2274F3121FB7125956FE740339FFEE93
:1058DC002404F50AEF3400F50BEE2465F508EF34DB
:1058EC0000F50980101256C5850882850983E4F0FD
:1058FC00A3F01259488508828509831256C5EC4DD0
:10590C006030EE24641255E5F50C780C1221CEEEC5
:10591C0024631255E5F9EEFAEFFB120C0F74011229
:10592C001F76E985088285098360BA124F68E849B9
:10593C0070077C007D001259480251DF850A828570
:10594C000B83E0FA7B0012090F229003F0E0F8754C
:10595C00F004A4C8AAF02AF974F2282274F2121FD7
:10596C00B7EAFEEBFF890A740E121FABE0FAEE24C5
:10597C0062125A2B6003025A1F125315F50CEE24B7
:10598C00831255E5FB60047804800278008908E9ED
:10599C0028F8E4125A2624020808E93400F9E50C28
:1059AC0098E499A2D265D0334065EA7005750B0274
:1059BC008003750B01EB603375090078081221CA5E
:1059CC007A607B05120C577402121F76750860758D
:1059DC00090578081221CAAC0AA90B125306121F2A
:1059EC00767404250AF50A7C607D057401250AF598
:1059FC00D9850BD97800800A8808EC125714ED125F
:105A0C004E78E8C3950A40F075E1957900800679E7
:105A1C0007800279FF025496F8EF3400F9E822F57A
:105A2C0082EF1255EC640122C082C0838003125AAB
:105A3C0062E9F874FF28190470F4ECFAEDFB024AE1
:105A4C00F9C082C0838003125A62E9F874FF2819E6
:105A5C000470F4024AF98C828D83E08A828B83F085
:105A6C008C828D83A3AC82AD838A828B83A3AA8222
:105A7C00AB832274E8121FB7907803E06442705E27
:105A8C0090055FE014F07056C2AF125A9900782A54
:105A9C00D0E0F618D0E0F6E59F5407F97005908F2A
:105AAC00748003908F4C7808121E30E9C4C0E078E3
:105ABC0029E65508F50808E65509F509740B780828
:105ACC00121F3ED0E02508F8906270E0A2E740F883
:105ADC00E8C333906272F0906270E0D2E0F0900311
:105AEC00F0E0F874FF687003025DB1E812680A24F4
:105AFC0002F8EF3401F988828983126884EA4B60DA
:105B0C000FEE2401F582EF3401F583E0F91210A1B8
:105B1C00EE2405F514EF3400F5158E828F83A3A3C4
:105B2C00A3A3A3A3A3126296126820906054E090E2
