:020000040000FA
:0600000002011D021D8239
:03002B0002243379
:030033000224158F
:03005300021DF893
:03006B000223EC81
:10008300021C73E5C754F84401F5C7790122000047
:100093000080FB120086B90003020107E47921788E
:1000A30008B800028004F709D8FCE479297802B87B
:1000B30000028004F709D8FCE490028178F1790703
:1000C3008002F0A3D8FCD9FA781A90014D7A01BACC
:1000D30000028007E493A3F608DAF9900971AA8273
:1000E300AB8390014E78BE79038015E493A3AC8271
:1000F300AD838A828B83F0A3AA82AB838C828D83A8
:10010300D8E9D9E775821175839F740312012F759E
:100113008291758300740012012F75D00075813FA1
:10012300751881751902759F00020096C09FF59F8F
:10013300E473D09F22D083D082C09FE493C0E07445
:100143000193C0E0740293F59F2202FF0000B40004
:100153000028002800283075A000A000A000A000FF
:1001630000080008E001F00010001000100010006B
:100173001000100050005000500010001000D00775
:100183000000000000000F000100050030750700AB
:100193001000010081FF0000FF090627060F06FF7C
:1001A30002020208025000A0000000E803022093AC
:1001B3000100000293021C93010000C6090216937A
:1001C300010000B202021C93010000C7090214934C
:1001D300010000C802021C93010000C809024293F7
:1001E300010000CA02021C93010000C90902129314
:1001F300080000CB02021C93010000CA09021093FD
:10020300010000CB09FF0100FF2002209301000041
:100213000893021C930100002F0A020E93000000B2
:1002230000000218930300001803390C390C390C31
:10023300390C390C390C390C390C390C390C390C93
:10024300390C390C0F0F270F090FFFFF02020202AF
:100253000202020202010D000000100102209301BC
:1002630000000B93021C93010000720A02369301F3
:1002730000007807021C93010000730A0234930103
:1002830000009691021C93010000740A023293014C
:1002930000006D91021C93010000750A0230930166
:1002A3000000DD90021C93010000760A022E9301E8
:1002B3000000CB90021C93010000770A022C9301EB
:1002C3000000A790021C93010000780A022A930100
:1002D3000000B990021C93010000790A02289301DF
:1002E30000007B91021C930100007A0A022693010D
:1002F30000007B0A01053F10FF0001307503020176
:1003030006000000000000000000000000000000E4
:1003130000000000000000000000000000FFFF06D6
:1003230000800CE80309094C4F53542D424C4505FA
:100333001228009001020A000201060302F0FF4C9A
:100343004F53542D424C45000000000000000000B4
:1003530000000000A7130000AD130101084368610A
:100363007261637465726973746963203100104349
:1003730068617261637465726973746963203200C2
:100383000220930100000593021C93010000820BDD
:100393000240930300006409021A93010000830BD7
:1003A300021C93010000940B023C930000006A09B5
:1003B3000218930300006B09021A93010000950BC6
:1003C300000000000000000000000000000000002A
:1003D300000000000000000000000000000000001A
:1003E300000000000000000000000000000000000A
:1003F30000000000000000000000000000000000FA
:100403000000000000000000120138BD910312013A
:1004130038D491031201380392031201383C92033A
:10042300120138649203120138929203120138A91F
:100433009203120138C09203120138D692031201BB
:1004430038FD9203120138109303120138269303E7
:100453001201383993031201385E9303120138A055
:1004630097021201389F9802120138D498021201A0
:1004730038F59802120138059902120138269902BB
:10048300120138329A02120138FF9A0212013872AD
:100493009B02120138F89B021201383B9C021201A5
:1004A30038729C02120138F89C02120138CA9D026C
:1004B300120138289E02120138409E02120138BAF6
:1004C3009E02120138BD9E02120138C09E02120123
:1004D30038679F021201387F9F02120138AF9F02D3
:1004E300120138CF9F02120138BDA00212013873E6
:1004F300A102120138DBDC0212013803DD02120112
:100503003831DD0212013868DD02120138D0DD0214
:1005130012013819DE0212013864DE02120138A218
:10052300DE02120138DFDE021201380DDF02120192
:1005330038B4DF02120138BEDF02120138CBDF020A
:10054300120138FEDF02120138C0E002120138CC7A
:10055300E002120138E4E002120138EEE002120177
:1005630038249C03120138329C031201384A9C033D
:10057300120138629C03120138CBB10112013869B0
:10058300B201120138E1B201120138F6B3011201CE
:100593003830B401120138D9B401120138AEB501B3
:1005A30012013812B70112013869B701120138F08C
:1005B300B701120138D7B80112013824B901120169
:1005C30038B2B901120138D6B901120138ABBB01F7
:1005D300120138ECBB011201380EBC011201388F35
:1005E300BC0112013879BD011201383FBE0112016D
:1005F30038D5C102120138A7C20212013850C30212
:1006030012013893C30212013820C402120138AC1C
:10061300C4021201388DC502120138BCC502120191
:1006230038B8C60212013800C70212013802C802E4
:1006330012013846C8021201386CC802120138ACE4
:100643009D0312013865F6021201387BF60212018E
:1006530038A1F602120138C9F702120138D3F702A2
:100663001201382CF9021201382CFA02120138490E
:10067300CE021201387ECF02120138B1CF0212012D
:1006830038FBCF02120138B9D10212013846930167
:10069300120138A99301120138EE9401120138FEB8
:1006A30094011201382195011201386C9501120150
:1006B30038119601120138079701120138D19701B9
:1006C3001201384999011201388B99011201382915
:1006D3009A01120138769A011201389C9A0112018B
:1006E300388A9C011201388F9C01120138709E01D7
:1006F300120138C49E01120138269F011201384E9F
:100703009F01120138F29F01120138B4A0011201B6
:1007130038E5A001120138E8A00112013830A10127
:1007230012013872A101120138D9A1011201382D29
:1007330089031201384089031201385989031201D0
:1007430038A489031201387F8A031201380E8B0300
:10075300120138598B0312013858240012013864EE
:1007630024001201389D2400120138E224001201F2
:10077300389925001201381F2600120138842600FB
:10078300120138B02600120138E92600120138FDA3
:100793002800120138D92A00120138C42C00120192
:1007A30038FB2D001201385B30001201384731004D
:1007B3001201388D32001201389A3300120138B712
:1007C3003300120138EF33001201380934001201EB
:1007D300387134001201380B3900120138AC39007A
:1007E300120138FD3900120138243A00120138721F
:1007F3003A00120138903A00120138E43A0012012B
:1008030038BD3B00120138443D00120138CC3D0095
:1008130012013831D8021201383BD80212013806CE
:10082300D90212013821D90212013847D902120123
:10083300388BD902120138C3D902120138ECD9021C
:1008430012013865DA021201387ADA021201388F9E
:10085300DA02120138C6DA02120138DADA021201B8
:10086300380BDB0212013845DB0212013871DB025F
:10087300120138C7DB021201381BDC021201386493
:10088300DC021201388EDC02120138B3DC021201E1
:100893003895EE021201385FEF0212013842F0027E
:1008A300120138B8F002120138FAF00212013827A7
:1008B300F20212013800800212013829800212016B
:1008C30038428002120138878102120138658202A0
:1008D3001201388482021201381183021201385442
:1008E3008302120138A184021201384085021201E9
:1008F30038BF87021201385688021201382A89024A
:100903001201380C8A02120138788B021201380B5B
:100913008C021201383498031201389D9803120196
:1009230038F1980312013818990312013824E602AA
:1009330012013891E602120138DCE602120138D1C5
:10094300E702120138CDE802120138B7E9021201B9
:1009530038DEA10212013820A202120138FAA202E3
:10096300120138D3A302120138CEA402120138AD0A
:10097300A50212013819A602120138E0A6021201DB
:10098300384BA702120138B2A702120138DDA702C1
:100993001201384EA802120138E1A8021201384AA6
:1009A300A9021201385FA902120138A7A902120194
:1009B30038C0A90212013825AA0212013828AA0256
:1009C3001201384F8303120138778303120138B5BC
:1009D3008303120138738403120138DE8403120186
:1009E30038FA840312013822850312013852850331
:1009F300120138618503120138DB850312013801C6
:100A03008603120138A3A20112013840A401120186
:100A13003826A601120138F0A60112013837A701C2
:100A23001201387EA70112013890A701120138D0B4
:100A3300A701120138FFA7011201384BA8011201C7
:100A43003883A801120138B1A80112013802A901A3
:100A530012013891A9011201387FAC0112013859F2
:100A6300AE0112013895AE01120138EFAF01120148
:100A73003836B001120138ABB001120138F9B001B8
:100A830012013830B10112013856F60112013873E0
:100A9300F6011201380DFC011201380FFD0112019C
:100AA3003889FE0112013837FF01120138333E0045
:100AB3001201387C3E00120138A93E00120138DCD5
:100AC3003E00120138E93E00120138F53E001201E2
:100AD30038073F00120138DC3F001201383A40006A
:100AE3001201386F40001201380B420012013858CE
:100AF30042001201387C4200120138E9420012011F
:100B0300388E43001201384A4400120138C94400A8
:100B13001201388D45001201389C45001201381D21
:100B23004600120138BC4600120138EE460012019D
:100B330038894700120138E747001201382148007D
:100B4300120138A248001201386B4900120138140F
:100B53004A001201389B4A00120138F34A0012017D
:100B630038544B001201387D4B00120138334C00CE
:100B73001201387D4D00120138C04D00120138DDDD
:100B83004D00120138FC4D00120138474E0012018E
:100B9300386C4E00120138954E00120138044F0094
:100BA300120138464F001201384A5000120138E44E
:100BB3005000120138B05100120138C9510012011E
:100BC30038577600120138AA7600120138B676003B
:100BD3001201388B7700120138B27700120138ED19
:100BE30077001201385978001201388D780012010C
:100BF30038C67800120138DE7800120138377900E0
:100C0300120138507900120138997900120138AC79
:100C13007900120138C67900120138DC790012011B
:100C230038F87A00120138097C00120138567D0029
:100C33001201383B7E00120138F3FF0212013870B3
:100C4300E901120138A4E9011201380FED01120183
:100C53003859EE0112013823EF01120138ADF001CA
:100C630012013888F101120138C2F101120138E58D
:100C7300F10112013827F20112013830F201120199
:100C8300387AF20112013884F20112013830F3018B
:100C930012013804F40112013858F401120138BA70
:100CA300F4011201380DF5011201383CF50112016E
:100CB300387BF501120138FB5100120138555A00F7
:100CC3001201385B5A00120138166000120138FC19
:100CD300630012013836FA02120138ACFA0212012B
:100CE30038C2FA02120138FFFA0212013837FB0246
:100CF300120138B4FB02120138EFFB021201386A09
:100D0300FC02120138A6FC02120138AFFC021201E8
:100D130038BBFC02120138D5FC02120138FAFC027E
:100D230012013810FD0212013839FD021201389CFC
:100D3300FD021201386FD30212013882D30212016D
:100D4300389CD302120138C5D30212013808D402E9
:100D530012013847D40212013885D402120138EA4D
:100D6300D402120138FFD4021201380AD50212014B
:100D73003817D5021201382ED5021201383CD5029C
:100D830012013847D50212013853D50212013866D1
:100D9300D50212013871D50212013894D50212011D
:100DA300383DD6021201384DD60212013867D602F9
:100DB30012013884D602120138A0D602120138C5B6
:100DC300D602120138CFD602120138E3D60212013D
:100DD3003802D70212013863D70212013869D702E9
:100DE3001201386FD70212013875D7021201388108
:100DF300D702120138B4D702120138F7CE0112011B
:100E03003879CF0112013822D0011201386AD10199
:100E130012013878D3011201385ED40112013893DC
:100E2300D401120138B5D4011201385ED501120183
:100E3300382ED70112013857D701120138CFD70105
:100E430012013801D8011201380ED80112013859A4
:100E5300D8011201387DD801120138CEDA0112010E
:100E630038D8DB0112013834DC0112013874C001B7
:100E730012013885C10112013869C20112013873A8
:100E8300C20112013895C201120138A1C201120137
:100E93003845C40112013872C40112013888C501F2
:100EA300120138DDC5011201382CC70112013801C6
:100EB300C8011201385DC801120138C8C801120106
:100EC30038FDC80112013840C9011201380ACC01AA
:100ED30012013822CC01120138B3CC01120138C1FE
:100EE300CC011201380ECD011201381CCD011201C3
:100EF3003888CD0112013803CE011201385ACE01D0
:100F0300120138828C02120138A48C02120138B506
:100F13008E021201387491021201389E920212015C
:100F2300385C93021201384894021201380490038A
:100F33001201382990031201389F9003120138B827
:100F4300BA02120138C1BA02120138CABA02120136
:100F530038A2BB0212013853BD0212013883BD020D
:100F6300120138AEBD02120138DEBD02120138098A
:100F7300BE021201383DBE0212013869BE021201DF
:100F830038ACBE02120138D7BE021201381EBF02AE
:100F930012013873BF02120138B5BF021201380FB4
:100FA300C0021201383AC00212013889C00212018C
:100FB30038B9C002120138E4C00212013812C1026A
:100FC30012013835C102120138359E03120138610E
:100FD3009E031201388E9E03120138989E0312015C
:100FE30038A89E0312013882B2021201388CB20271
:100FF300120138CDB20212013816B3021201385071
:10100300B302120138A6B302120138C7B3021201A8
:101013003876B6021201387FB602120138D3B6020F
:10102300120138FCB60212013806B70212013874F5
:10103300B70212013804B8021201385FB802120174
:10104300388DB80212013815B90212013854B902A9
:1010530012013889B9021201389BB902120138BA58
:10106300B902120138C3B9021201388ABA02120155
:10107300384B9A03120138CCFD0212013802FE02EA
:1010830012013836FE0212013883FF021201385969
:10109300FF011201386FFF0112013879FF011201BC
:1010A30038C3FF01120138B29E0312013883E102F3
:1010B30012013896E10212013857E2021201389602
:1010C300E202120138B3E202120138ECE202120129
:1010D3003839E3021201386BE302120138A2E3024A
:1010E300120138ABE50212013817E602120138A7E4
:1010F3009603120138CA9603120138F996031201B6
:1011030038919703120138A99703120138EB97031B
:101113001201384986031201386E8603120138988A
:101123008603120138699F031201385564001201C6
:1011330038F465001201389F66001201381F6700FA
:10114300120138A46700120138CD6700120138A8D4
:101153006B001201381F6C00120138366D0012014A
:1011630038706D00120138B16D00120138F86E004D
:101173001201384E6F00120138976F0012013806C2
:101183007000120138727000120138A3700012014E
:1011930038BB7000120138D47100120138E47100B9
:1011A3001201389A7300120138B17300120138E347
:1011B3007300120138857500120138197600120187
:1011C30038FB9C031201380C9D03120138BF9F03A7
:1011D300120138FE9F03120138EFFF01120138425A
:1011E3009B03120138529B031201386A9B031201BD
:1011F300381E9C03120138499903120138CE990312
:10120300120138329A03120138709303120138998C
:101213009303120138FC93031201381C9403120147
:10122300386D9403120138C89403120138029503F0
:1012330012013805950312013881F202120138A612
:10124300F202120138C3F202120138E0F202120173
:101253003805F30212013826F30212013850F30263
:101263001201380DF4021201388BF402120138B264
:10127300F402120138BCF402120138E1F502120142
:101283003879EA0212013890EA021201380AEB02B5
:10129300120138EEEB02120138C5ED021201382AB1
:1012A300EE0212013881EE02120138F87F001201BA
:1012B30038CA8D031201385A8F03120138BB8F03CA
:1012C3001201380190031201385DA0031201380F97
:1012D3009503120138619503120138D49503120165
:1012E30038419603120138838B03120138AD8B0307
:1012F3001201387C8C03120138588D031201384CCB
:10130300AA0212013818AB0212013859AB021201BA
:101313003893AB02120138F1AB0212013845AC022B
:10132300120138A3AC0212013839AD02120138415F
:10133300AE02120138CBAF0212013869B0021201BA
:1013430038D0B002120138E3B002120138D7B1022B
:1013530012013820B20212013881DC01120138B3C4
:10136300DF0112013844E1011201389BE10112014E
:1013730038B8E10112013838E201120138B4E3014F
:1013830012013883E401120138F0E701120138DA5F
:10139300E801120138E1C8021201387FCA021201C2
:1013A3003868CB021201381DCC0212013830CD024D
:1013B30012013863CD02120138E4CD021201380361
:1013C300CE0212013800800312013841800312015A
:1013D300385E8003120138D380031201382681035B
:1013E30012013813820312013816830312013808DD
:1013F300A003120138BDFF0212013835A003120108
:101403003883A003E066701008A3E066700A08A39F
:10141300E066700408A3E06622C3E7960809E7962E
:101423000809E7960809E79622C3E09608A3E09621
:1014330008A3E09608A3E09622C008C3E096F50847
:1014430008A3E096420808A3E096420808A3E096A2
:1014530045087001D3D00822080808EAC0E0EBC0B1
:10146300E086F0E7A4FA180986F0E7A42AFA180937
:1014730086F0E7A42AFA180986F0E7A42AFA19865F
:10148300F0E7A4FBE5F02AFA190886F0E7A42BFBA2
:10149300E5F03AFA190886F0E7A42BFBE5F03AFAEF
:1014A30018180986F0E7A4C5F02BFBE43AFA1908EB
:1014B300E7C5F0C6A426F6E5F03BFBE43AFA188646
:1014C300F0E7A4F6E5F00826F6E43B08F6E43A086C
:1014D300F6D0E0FBD0E0FA22E4CFC0E0E4CEC0E0F7
:1014E300E4CDC0E0E4CCC0E075F020C3E633F608F9
:1014F300E633F608E633F608E633F6181818EC3345
:10150300FCED33FDEE33FEEF33FFC3EC9709ED97AC
:1015130009EE9709EF97191919400FFFEC97FC098A
:10152300ED97FD09EE97FE191906D5F0BEECF70904
:10153300EDF709EEF709EFF7191919D0E0FCD0E040
:10154300FDD0E0FED0E0FF226016080808C6C313F2
:10155300C618C613C618C613C618C613C6D5E0EAFE
:10156300227009080808226016181818C6C333C663
:1015730008C633C608C633C608C633C6D5E0EA2252
:10158300E627F60809E637F60809E637F60809E616
:1015930037F622E026F608A3E036F608A3E036F68F
:1015A30008A3E036F622E026F008A3E036F008A30D
:1015B300E036F008A3E036F022C3E697F60809E622
:1015C30097F60809E697F60809E697F622C3E09628
:1015D300F008A3E096F008A3E096F008A3E096F0E5
:1015E30022E056F608A3E056F608A3E056F608A351
:1015F300E056F622E056F008A3E056F008A3E056C2
:10160300F008A3E056F022E0F608A3E0F608A3E012
:10161300F608A3E0F622E6F008A3E6F008A3E6F056
:1016230008A3E6F022E0FAA3E0FBA3E0FCA3E0FDBD
:1016330022EAF0A3EBF0A3ECF0A3EDF022CAC0E0A2
:10164300E6F0A308DAFAD0E0FA22CAC0E0E0A3C5C4
:1016530082CCC582C583CDC583F0A3C582CCC582A8
:10166300C583CDC583DAE6D0E0CA22C3E498F8E4A3
:1016730099F91216AF8026C3E49AFAE49BFBE9209A
:10168300E7E91216AFE498F8E499F922C3E498F86D
:10169300E499F91216AFE498F8E499F9C3E49AFAD5
:1016A300E49BFB22EB20E7CFE920E7E0B90010BB86
:1016B3000008E88AF084F8AAF022E4FBC8FA22EBD7
:1016C30070227B10C833C8C933C9335007C39AC3C8
:1016D300DBF280069A50012ADBEAC833F4C8C93327
:1016E300F4C9FA2275F008E4C833C8C933C933C949
:1016F3009AC99B5004C92AC93BD5F0ECFBC833F403
:10170300C8E4C9FA22600D08C6A2E713C618C613B7
:10171300C6D5E0F322600C08C6C313C618C613C6A9
:10172300D5E0F422700422600D18C6C333C608C680
:1017330033C6D5E0F41822251810AF08F518400277
:1017430015198008F51840021519D2AF22C0D0250B
:101753001810AF08F518500205198008F518500243
:101763000519D2AFD0D0222518F58210AF08F5188D
:10177300400215198008F51840021519D2AF8519D2
:1017830083222518F582E43519F58322E47325189D
:10179300C582C0E0E51934FFC583C0E0E518C395F1
:1017A3008224F810AF088583198582188008858301
:1017B30019858218D2AFCEF0A3E520F0A37808E60E
:1017C30008F0A3DEFAEFF0A3E58124FAF8E608F0C7
:1017D300A3E608F0A3E608F0A30808E608F0A3E6EA
:1017E30008F0A315811581D0E0FED0E0F81581152E
:1017F300811581E8C0E0EEC0E0222518C582C0E073
:10180300E51934FFC583C0E0E518C3958224F910B8
:10181300AF08858319858218800885831985821806
:10182300D2AFCEF0A3E520F0A37808E608F0A3DE5C
:10183300FAEFF0A3E58124FBF8E608F0A3E608F04D
:10184300A30808E608F0A3E608F0A315811581D0E4
:10185300E0FED0E0F815811581E8C0E0EEC0E0229B
:10186300851983851882E0A3FEE0A3F5207808E0BC
:10187300A3F608DFFAE0A3FFE0A3C0E0E0A3C0E023
:10188300E0A3C0E0E0A3C0E0E0A3C0E010AF0885A0
:1018930082188583198008858218858319D2AFD071
:1018A30083D082020135851983851882E0A3FEE087
:1018B300A3F5207808E0A3F608DFFAE0A3FFE0A38E
:1018C300C0E0E0A3C0E0E0A3C0E0E0A3C0E010AF4D
:1018D300088582188583198008858218858319D223
:1018E300AFD083D08222C0D02518C582C0E0E519CD
:1018F30034FFC583C0E0E518C3958224F310AF0815
:101903008583198582188008858319858218D2AF4B
:10191300C8F0A3E9F0A3EAF0A3EBF0A37908E70981
:10192300F0A3D8FAECF0A3EDF0A3EEF0A3EFF0A34D
:10193300D0E0F0A3D0E0F0A3D0E0F0A3E520F0A343
:10194300E5F0F0A322851983851882E0C0E0A3E0C7
:10195300F9A3E0FAA3E0FBA37808E0F608A3DFFA13
:10196300E0FCA3E0FDA3E0FEA3E0FFA3E0C0E0A34F
:10197300E0C0E0A3E0F5D0A3E0F520A3E0A3F5F0F9
:1019830010AF08858319858218800885831985829D
:1019930018D2AFD082D083D0E0F8D0E03274048084
:1019A30006740280027401C0E0F40412176AD0E0E6
:1019B300121640227404800474028000CCC0E0ED4F
:1019C300C0E0E518C39CCCAD1950011D10AF068CC7
:1019D300188D1980068C188D19D2AF12164DD0E0D0
:1019E300FDD0E0FC22D083D082E9C0E0E493A3C31E
:1019F30086F0C5F095F0F908E493A386F0C5F09559
:101A0300F0700BE493A3C3994005E9048002A3E4B7
:101A130075F002A42582F582E5F03583F583D0E0E5
:101A2300F9E493A3C0E0E493C0E022D083D082EC36
:101A3300C0E0EDC0E0E493A3FCE493A3FDED4C60B0
:101A43000D121A7AEC24FFFCED34FFFD80EFE493D2
:101A5300A3FCE493A3FDED4C600D121AB9EC24FF33
:101A6300FCED34FFFD80EFD0E0FDD0E0FCE493A378
:101A7300C0E0E493C0E022C0E0C3E493960874019D
:101A8300939618400FE493667008087401936618E0
:101A930070007019A3A3C3E4939608740193961876
:101AA300A3A3400DD0E0D0E0D0E0021A6AA3A3A321
:101AB300A3A3A3D0E022C0E0C0F088F0E493667053
:101AC300080874019366187000A8F0A3A3700BD0E4
:101AD300F0D0E0D0E0D0E0021A6AA3A3D0F0D0E0C7
:101AE3002274F51217FDEAFEEBFFEE2434F8EF340F
:101AF30000F988088909EE2435121C1CF8EE2437F6
:101B0300121C1CF50AEC850AF0A4FCAAF0850AF065
:101B1300EDA42AFDE82CF8E43DF97A257B001216A2
:101B2300AFEA850882850983F05407F87401B80089
:101B3300028004C333D8FCC0E0E0131313541FF82E
:101B4300EE28F8EF3400F9E8245DF582E93400F576
:101B530083D0E0F8E0586008850882850983801DFA
:101B6300EE2436121C1CF5F0EA84A8F0EE28F8EFF8
:101B73003400F9E82438F582E93400F583E0F97F8D
:101B8300040218A974F51217FDEAFEEBFFEE2434E4
:101B9300121C1CC0E0EE2435F582EF3400F583D02F
:101BA300E0F08E828F83A3A3A3A3A3E0FAA3E0FBB9
:101BB3008E828F83A3A3A3A3A3A3A3E0FCA3E0FD2F
:101BC300ECC39AF50AED9BF50BEE2480F508EF3490
:101BD30000F509850882F583E06401702BEE24810A
:101BE300F582EF3400F5831219BB121C257402121F
:101BF3001750E960137CFD7D04EEFAEFFB120B67CF
:101C0300850882850983E4F0AC0AAD0BEEFAEFFB9D
:101C1300121AE41223DE021B82F582EF3400F583ED
:101C2300E022C082C083851882851983E0F8A3E08F
:101C3300F9C3EA9CEB9D5012C3EC98ED994019C38C
:101C4300EA98EB99501279018010C3EA98EB994016
:101C5300F5C3EC98ED9950EE7900D083D08222EA57
:101C6300C39CFAEB9DFB2200008521878522C622B7
:101C7300C0E074EF1218E9759B00906182E0A2E660
:101C83004003021D34E591A2E64003021D34759121
:101C9300BF9003C2E064057008120D05120D118098
:101CA30003120D0B752100120D7DE99003C3F0792A
:101CB30000120D71120AD17A017B009003C1E0F981
:101CC300121047907803E064426003021D7D900583
:101CD3005FE014F06003021D7DC2AF121CE10078C7
:101CE3002AD0E0F618D0E0F6E59F5407F970059086
:101CF30092DA8003909262780812160AE9C4C0E06F
:101D03007829E65508F50808E65509F509740B78AE
:101D130008121718D0E02508F8906270E0A2E74097
:101D2300F8E8C333906272F0906270E0D2E0F08022
:101D330049E0A2E55024E591A2E5501E7591DF909C
:101D430003C2E0640D70139003E4E004F0642870B0
:101D530002E4F07A00E0F9120DEF906181E0A2E372
:101D63005009E5E9A2E3500375E9F7A3E0A2E750C0
:101D730009E591A2E7500375917F7F04021948C0DA
:101D8300E0C0D0C082C083906183E0A2E05009E547
:101D9300BFA2E0500375BFFEE0A2E15009E5BFA278
:101DA300E1500375BFFDE0A2E25009E5BFA2E25096
:101DB3000375BFFBE0A2E35009E5BFA2E35003753F
:101DC300BFF7E0A2E45009E5BFA2E4500375BFEFFB
:101DD300E0A2E55009E5BFA2E5500375BFDFE0A22D
:101DE300E65009E5BFA2E6500375BFBFD083D0829A
:101DF300D0D0D0E032C0E074F21218E9E5A7A2E433
:101E0300500FE5A1A2E4500953A7EF75A1EF121EED
:101E13004CE5A7A2E5500CE5A1A2E5500653A7DFC8
:101E230075A1DFE5A7A2E15009E5A1A2E150037581
:101E3300A1FDE5A7A2E2500CE5A1A2E2500653A73B
:101E4300FB75A1FB7F0102194874F81217FD752178
:101E5300019003C2E0640670077A007B00120CED68
:101E6300A2AFE433FED2AF9003C8E0640170187AE6
:101E7300207B009003C1E0F91210D17A207B0090FF
:101E830003C1E0F912104D906182E0D2E6F09005B3
:101E93005EE0602185C62280169003C7E06401706E
:101EA30008E5C654F84405F5C653BEFC121C6C7411
:101EB30001652160E4EEA2E092AF7F010218A90060
:101EC300008E238F24858228858327851882851990
:101ED30083E0CEA3E0CF852882852783EBC9EAC8B8
:101EE300EDCBECCA75F010C3E833C8E933C9EA3364
:101EF300CAEB33CBC3EA9EF526EB9FF525B350041B
:101F0300AB25AA26EC33CCED33CDD5F0DAAE23AF37
:101F1300242274E91217FD74FA12173AEAFEEBFF52
:101F23008C088D099003C2E024F7C39405500690F2
:101F3300927602203C120C698A0A8B0BEA450B70DD
:101F430003022039120D238A0C8B0D120D23EA652F
:101F53000C7003EB650D60ECEEFCEFFD85188285DC
:101F63001983AA82AB83120D29850A82850B83A369
:101F7300A3780C12160A909292780C1215E4851825
:101F830082851983781412160A9092927814121586
:101F9300E4780C791412141C501F780C7914121560
:101FA300BC9092A6780C12143C4047850C10850D0A
:101FB30011850E12850F1380418514108515118527
:101FC30016128517137810790C1215BC9092A67807
:101FD3001012143C501C7510007511007512007519
:101FE3001301781079141215BC7810790C1215832B
:101FF3008008909276781012160A740978101215D8
:1020030064909282780C12160A7810790C1214DB01
:102013009003C2E06408600AE064066005E06405BA
:10202300701C90928E781012143C50129092A278E9
:1020330010121596800890926A781012160A850875
:1020430082850983781012161974061217507F10AF
:102053000218A974F71217FD120D3B90055CE0649A
:10206300017010906245E4F0A3F053F4F343FE0CC7
:102073005390F3120CDBE5C654804449F5C6E59E44
:10208300547F644970F8906185740FF090055AE0AD
:10209300F47002A3E0602C75080175090090055ADD
:1020A300E07808121727E508F4FAA3E06008146043
:1020B3000A14600C800DEA52808008EA5290800373
:1020C300EA52A079007F020218A974F71217FDE9FA
:1020D300FEEAFF74016E700C7A807B009003C1E00E
:1020E300F9121047902450E493F46008E493F91232
:1020F3000AB3800953C680E59E547F70FA120CE13F
:1021030090055CE064017003120AE990055AE0F45B
:102113007002A3E0602A75080175090090055AE072
:102123007808121727AA08A3E0600814600A14604D
:102133000C800DEA42808008EA42908003EA42A0C4
:10214300120C698A088B09A808A909E8496017E5F0
:10215300E170FCE82414F582E93400F583E0F874B7
:10216300FF68600288E174016F700A7A019003C10D
:10217300E0F912109B0220C874F11217FD8A088B34
:10218300098C0A8D0B740F121785780C12160A909E
:10219300929278081215E4909292780C1215E478D2
:1021A30008790C12141C50157808790C1215BC9080
:1021B30092A6780812143C401579018013780C79A3
:1021C300081215BC9092A6780C12143C40EB7900CF
:1021D3007F080218A974ED1217FD8A088B098C0A6F
:1021E3008D0B7413121785780C12160A909292783D
:1021F300081215E4909292780C1215E4780C790881
:1022030012141C40117808790C1215BCAA08AB09EA
:10221300AC0AAD0B802275100075110075120075A4
:1022230013017810790C1215BC78107908121583F4
:10223300AA10AB11AC12AD137F0C0218A9909292A5
:10224300780812160A8A828B8378081215F77F049E
:102253000218A974F51217FD8C828D837808121663
:102263000A8A828B8378081215D01222AAC3E098B7
:10227300F0A3E09912229C401E9092C67808121691
:102283000A8A828B8378081215A98E828F83E024B1
:1022930020F0A3E0344EF080A4F08E828F83C3E05D
:1022A3009420A3E0944E22EA2404F8EB3400F9E8E6
:1022B300FEE9FF8C828D83A3A3A3A3E0F8A3E0F937
:1022C3008E828F832274F51217FDE9FE900514E0C8
:1022D300FAA3E0FBEEC333F8E433F9742128F58263
:1022E300749139F583E02AF508A3E03BF5097808F2
:1022F3001219A49092C2121628121EC47402121745
:10230300508A088B098C0A8D0B7410780812154BB0
:10231300AA08AB097F040218A974F11217FD8A0CED
:102323008B0D8C0E8D0F740F121785E0FAA3E0FB53
:102333007411121785E0F508A3E0F5097413121759
:1023430085E0FEA3E0FF78081219A4EA2401F5084A
:10235300EB3400F509E4F50AF50B780C790812144F
:102363005B90929E780812160A780C790812145B17
:10237300AA0CAB0DAC0EAD0F121EC4740212175093
:102383008B09EA450960047A0180027A00EC2AFC91
:10239300ED3400FDECF8EDF97A717B021216AF888B
:1023A300088909E4F50AF50B8E828F8378081216E3
:1023B30019ECF8EDF97A717B021216AF8A088B09D2
:1023C300740578081217278E828F83A3A3A3A3E52E
:1023D30008F0A3E509F07F080218A9C082C083E9C9
:1023E300906000F0D083D08222C0E074F21218E92A
:1023F300A2AFE433FED2AFE589A2E1500312122764
:10240300758900C2C5751A00EEA2E092AF7F010282
:102413001948C0E074F21218E9A2AFE433FED2AF58
:10242300E58BA2E05003121227758B00C2E880D51A
:10243300C0E0C0D0E8C0E0E5A8D2AFC2C7751A00BB
:0C244300A2E792AFD0E0F8D0D0D0E03299
:10245000FFFFFFFFFFFFFFFFC082C083E9900A2E4E
:10246000F00226DC74F7121791E99002E0F07C1874
:102470007D037AFF7BFF1207E99002E174FFF0A36E
:10248000F0A3E4F0A3F079051207719002E0E0F9FF
:102490001206997A077B081209C90233EA74F4120A
:1024A00017918A088B09EB548060309002E0E0F9C4
:1024B00012102F8A0A8B0BAE0AAF0BEE4F60138EF1
:1024C000828F83E064B07003120789EEFAEFFB128B
:1024D000101DAA08E5096480FB80047A007B0002D5
:1024E00026AB74F212179174FC12173AEAFEEBFF56
:1024F00074121217851238D1EE4F700302258574BD
:1025000002121785EEF0A3EF1228E6ECF0A3ED120D
:1025100028E6AA82AB83120693E9F50A706AE508F9
:10252000450960648E828F831238B7EE4F60567A09
:10253000067B001210838A0C8B0DA80CA90DE849AC
:102540007005750A13804188828983E4122592EE12
:10255000F0A3EF1238E2E508F0A3E509F09002E6F7
:102560001226199002E67005123394801B123382F2
:102570008003EAFCEBFD8C828D8312261970F38CAC
:10258000828D8380E3750A02A90A7404121750022F
:102590003AD1F0A3123888A32274F2121791890A53
:1025A000E975F017A4FEAFF09002E5E4F09002E3C5
:1025B000122619600A1210899002E3E4F0A3F0EEEB
:1025C000FAEFFB1210838A088B09EA4509602FEEA7
:1025D000FCEFFD79001210059002E3E508F0A3E599
:1025E00009F07B008008122603E4F0A3F00BEBC394
:1025F000950A40F2E50A9002E5F07900800279132D
:10260000023AD1EB75F017A4F8A9F09002E3E028A4
:10261000FAA3E0398A82F58322123026EA4B22742B
:10262000F4121791740C1217851238ACFEE9FF757D
:102630000800750900800CE5082401F508E5093457
:1026400000F509C3E5089CE5099D503285080A8517
:10265000090B7403780A121727EA250AF8EB350BE1
:10266000F988828983A3A3A3A3A3A3123469EE6587
:102670000A7003EF650B70BFE8FAE9FB80047A008B
:102680007B00802774F41217917900EAA2E0501BB6
:1026900075084E75099278081219A47C047D007A99
:1026A000307B0A12076B74021217507F0402186302
:1026B000C082C0839002E61226E3601C8882898370
:1026C000A3A3E06A7003A3E06B8882898370E8A308
:1026D000A3A3A312302280047A007B00D083D0828F
:1026E000020135123BB7E8492274EE12179174FCCF
:1026F00012173AEAFEEBFF851882851983E4F0A3EE
:10270000F0EE2402123374EE240512388FEE240406
:10271000F50EEF122C9BE024FE603924FC60462469
:10272000FE605224FE605E24FE70030227FC24FE3D
:10273000700302286024FE700302286F24FE7003D9
:1027400002287E24FC700302288D24FE70030228D8
:102750009C0228D99002FF7417F0A3E41228EE120D
:1027600004110228D9851882851983AC82AD8312A1
:10277000078F0228A9851882851983AC82AD831240
:1027800007950228A9850C08850D09740212178582
:10279000AC82AD838508828509831230221206B788
:1027A0008A0C8B0DAC0CAD0DEC4D603BE4F50CF5DB
:1027B0000D780C1219A4750CFF750D02780C121906
:1027C000A4750C00750D03780C1219A47408121767
:1027D000851219BB123D33121750E9F50C700B121C
:1027E0003018120429800F750C0185088285098331
:1027F0001228DC123394850C080228AC74021217DC
:1028000085AC82AD83850C82850D83122DED603CF5
:10281000850C82850D83A3A31219BB7510FF75115A
:102820000278101219A4751000751103781012198E
:10283000A474081217851219BB123D33121750E900
:10284000F509700B12301812042F800F75090185DD
:102850000C82850D831228DC123394850908804C84
:10286000851882851983AC82AD8312079B803A85D7
:102870001882851983AC82AD831207A1802B85183D
:1028800082851983AC82AD831207A7801C851882CC
:10289000851983AC82AD831207AD800D85188285C2
:1028A0001983AC82AD831207B3E9F508E508602906
:1028B0008E828F83A3E06414601F850E82850F8350
:1028C000E09002FF1228E6123BB39003001233940B
:1028D000E508A31228EE12040B023283123BB785DF
:1028E000188285198322F085188285198322F07C4D
:1028F000FF7D02850A82850B831230262274EE1238
:10290000179174FC12173A8A0A8B0B8C0E8D0FEA02
:102910002405F508EB3400F5097C157D0079007A73
:10292000FF7B02121005E5082402F50CE5091238B8
:1029300092851882851983858210858311781012FB
:1029400019A4850882850983A3A3A3A3122DE412E9
:1029500019A4E5082405F510E5093400F5117810EF
:102960001219A4850C82850D831231391206B174B7
:10297000061217508A108B11AE10AF11E50A24020F
:10298000F50AE50B123377EE4F7003022ABB80176E
:10299000740212178512302288828983EAF0A3EB31
:1029A000F09002FFE004F09002FFE0C394054003C2
:1029B000022ABBE4F510F51178101219A47510E87D
:1029C00075110278101219A47510E97511027810AA
:1029D0001219A474061217851219BB7910EEFCEFB8
:1029E000FD123D35121750E9705E85088285098316
:1029F000A3A3A3A3A3A3A3E0F89002E8E068704810
:102A0000122DE41219A47CE97D02E5082408FAE5F8
:102A1000093400FB120FFF7402121750E960298E6F
:102A2000828F83A3A3A3A31230229002FFE0F510AC
:102A30007402781012172774002510F5827403357C
:102A400011F583EAF0A3EBF074021217858582106A
:102A500085831178101219A474021217851219BBFC
:102A6000850C82850D831230481217508A108B1105
:102A7000AE10AF119002FFE0F510751100740278EE
:102A80001012172774FF2510F874023511F9888287
:102A90008983A31226197003022987E824030808F2
:102AA00008E93400F9EE4F60030229908882898397
:102AB00074FFF0A3F09002FFE004F09002FFE060EA
:102AC0000A12301812041D7900800B8508828509CE
:102AD0008312338B790A02328374EA12179174FEDF
:102AE00012173A8C128D13EA2405F50CEB123D1DDA
:102AF0001238BB750800750900EA2402F510EB34A2
:102B000000F51185188285198385820A85830B78E3
:102B10000A1219A4850C82850D83A3A3A3A3122CEA
:102B2000B11219A4E50C2405F50AE50D12337778E6
:102B30000A1219A4850C82850D83122CB51206B1D8
:102B400074061217508A0A8B0BEA450B7003022C8D
:102B500056EA2404F50EEB122C9B1238BB8A828BAA
:102B600083A3A3A3E0F985108285118312302C6022
:102B700003022C56E4F514F51578141219A47514F3
:102B8000E875150278141219A47514E97515027800
:102B9000141219A474061217851219BB7913AC0A02
:102BA000AD0B851082851183123D3B121750E9F55C
:102BB000096003022C569002E8E0F8E5087009E08D
:102BC0002402900300F08014900300E0FCE824024B
:102BD000FAE43400FBEA6C7001EB707E850882AA8F
:102BE00082122DDB9414122DD3506B850E82850F2B
:102BF00083E0C0E074012A122C92D0E0F005088531
:102C00000E82850F83A3E0C0E085080A7401250ABF
:102C1000122C92D0E0F005089002E8122CB11219A3
:102C2000A47CE97D0285080A7401250A122CA512EC
:102C300017509002E8E02508F50874FF6E700374E1
:102C4000FF6F6012EE24010EEF3400FFE508C3941D
:102C5000145003022B03E5086013123036851082EE
:102C600085118312302212042379008014E5097043
:102C70000375090A851282851383EEF0A3EFF0A98C
:102C80000974021217507F0E02186385080C740134
:102C9000250CF58274033400F583223400F50F858A
:102CA0000E82F58322FA74033400FB120FED7402D6
:102CB000221238F122A3A3122CBB22123382FDEE82
:102CC000FAEFFB2274EE12179174FE12173A8C0E73
:102CD0008D0FEA2405F50CEB123892750B0090026B
:102CE000FFE4F0F50AEA2402F508EB3400F5098068
:102CF000449002FFE0FA9002E8E0F8122DDB94170E
:102D0000122DD3400D9002FFE0F87416C398900284
:102D1000E8F0122DE41219A47CE97D0274002AFA6D
:102D20007403122CA81217509002E8E0F89002FFEA
:102D3000E028F0050AE50C2416F582E50D122C9624
:102D4000E0F8E50AC39850749002FFE0C39416506F
:102D50006BE50AC333F8E433F9E50C28FEE50D39D9
:102D6000FF851882851983AC82AD838E828F831292
:102D70002DED7008750B011233878050E4F510F5C6
:102D80001178101219A47510E87511027810121933
:102D9000A47510E975110278101219A4740612179F
:102DA000851219BB7916850882850983123D3B126D
:102DB0001750E9F50B7003022CF180BB7CFF7D02FC
:102DC000850882850983123022120435A90B74020A
:102DD000023285E99400C365D03322EA28F8E4344E
:102DE00000F9E822E0F51075110078102212327A0D
:102DF0008A108B11AC10AD11EC4D2274EA121791B0
:102E000074FC12173A8A0C8B0D8C128D13EA240570
:102E1000F50AEB123377750800750900E50A2402FC
:102E2000F510E50B3400F511740212178585820E3A
:102E300085830F780E1219A4850A82850B83A3A3BC
:102E4000A3A31238971219A4E50A2405F50EE50B81
:102E50003400F50F780E1219A485108285118312A3
:102E6000337D12301C1206B174061217508A0E8B75
:102E70000FAE0EAF0FE50C2402F50EE50D3400F594
:102E80000F80388882898374FFF00508122C8B74B8
:102E9000FFF005089002E8E0F50C750D00780C12C3
:102EA00019A47CE97D0285080C7401250C122CA55F
:102EB0001217509002E8E02508F508EE4F60278EC3
:102EC000828F83A3A3A3E0F9850E82850F8312303E
:102ED0002CEE240412388FE96027850C82850D833F
:102EE00012300E123394E5087003022FF4123036BC
:102EF000850E82850F8312302212043B7900023046
:102F000009E4F514F51578141219A47514E875156B
:102F10000278141219A47514E9751502781412199F
:102F2000A474081217851219BB7911EEFCEFFD8508
:102F30000E82850F83123D3B121750E9F509709AF6
:102F4000850882AA82EA9002E87009E024049003CE
:102F500000F08025E0F8900300E0F514E82404FC7C
:102F6000E43400FDEC65147001ED7081122DDB94EA
:102F700012122DD34003022EED850C82850D83E0C5
:102F8000C0E074012A122C92D0E0F00508850C8272
:102F9000850D83A3E0C0E0122C8BD0E01230518568
:102FA000820C85830D780C1219A4740412178512F3
:102FB00019BB8510828511831230481217508A0C74
:102FC0008B0DAE0CAF0D85080C7401250CF8740345
:102FD0003400F9EE4F7003022E8385188285198321
:102FE000E088828983123051A3E0C0E0122C8BD09C
:102FF000E0022E91E509700375090A850A82850BA6
:103000008312300E123394A9097404022C83123BEC
:10301000B7851282851383227CFF7D02850A828513
:103020000B8312302622E0FAA3E0FB221230261294
:10303000069FE9F50922900300E0F5F0E508849089
:1030400002FFF07CFF7D0222122CBB1206BD74042D
:1030500022F005088518828519832274EC121791D5
:1030600074FE12173A8A088B098C0E8D0FEA24051C
:10307000FEEB3400FF123264EE241812388FEA455A
:103080000B700302310712324D502912312C8A1075
:103090008B11EA4511606B7912AC0AAD0B85088281
:1030A00085098312302285108285118312178FE9DA
:1030B000F50A7058E4F50AF50B780A1219A48E8205
:1030C0008F83A3A3E0F50A780A1219A4EE24031251
:1030D0003374780A1219A48E828F83123139120741
:1030E000D77406121750E9F50A7021850C82850DF8
:1030F00083E0701F85088285098312302212044103
:103100008011750A0E8009750A018004E50A6003C2
:10311000123387850C82850D83E06004790080027C
:10312000A90A74021217507F0C0218638518828551
:1031300019831230261207C522123382FD850882B8
:103140008509831230262274EE12179174FE12172D
:103150003A8A088B098C0C8D0DEA2405FEEB3400AD
:10316000FF750E00123264EA450B700302322B1217
:10317000324D502C12312C8A0E8B0FEA450F604ACB
:103180007912AC0AAD0B850882850983123022853D
:103190000E82850F8312178FE9F50E600302322E1F
:1031A000850882850983123469AA0AFB12323F70AE
:1031B000147AFF7BFF12323F606C88828983E50AB4
:1031C000F0A3E50BF0750A008007750E0E805F0511
:1031D0000A9002E5E0FAE50AC39A504AE50A75F05A
:1031E00017A4FAABF088828983A3A3E02AFAA3E0AC
:1031F0003BFB8A828B8312337DEC4D70D2750A17AC
:10320000750B00780A1219A4EEFCEFFD120FED7495
:1032100002121750EEFCEFFD8508828509831230FB
:10322000221204478014750E098003750E01123BAB
:10323000AF850C82850D83123394A90E022DCE1218
:1032400007B98A108B11A810A911E84922E50824B2
:1032500002F508E5093400F5098A828B83A3A3A34C
:10326000E0A2E522851882851983AC82AD838E8227
:103270008F8312327A8A0A8B0B22E0FAA3E0FB12C8
:1032800006B72274041217507F0A02186374EC12F6
:1032900017918C108D11EA2405F50CEB12389275FC
:1032A0000F00EA2402F50AEB123377850A82F583D0
:1032B000123022123DC17003023369750E00807115
:1032C000850C82850D83E06401704F8E828F83A30D
:1032D000A31219BB8E828F83A3A3A3A3E0F512755B
:1032E000130078121219A4EE2405F512EF3400F53C
:1032F0001378121219A412301C1207D77406121771
:1033000050E9F50F6014850C82850D83E4F0123BC3
:10331000AF8510828511831233947C177D0079006C
:10332000EEFAEFFB1210058E828F83E4F0A3F00516
:103330000E9002E5E0F8E50EC398501EE50E75F01C
:1033400017A4F8A9F0850882850983A3A3123D2755
:1033500012337DEC4D60030232C0850882850983FB
:1033600074FFF0A3F0E50F700612301C12044DA993
:103370000F023127F50AEF3400F50B22A312338236
:10338000FD22E0FCA3E0228E828F83123BB7850EE4
:1033900082850F83E8F0A3E9F022C082C083900207
:1033A000E1E06A7003A3E06B70067AE17B028004BF
:1033B0007A007B000226DC74F71217917F00EF750C
:1033C000F003A4F8A9F0EC28F8ED39F98882898394
:1033D000E06A7003A3E06B7006E8FAE9FB800B0F6C
:1033E000EFC3940240D87A007B007F010218637417
:1033F000F61217911239A070067A007B008007A39D
:10340000A3A3A3123022023A6174F2121791E9FECB
:10341000740E12178512346974101217851238D180
:103420008C828D83E06402703BA3123BB388828957
:1034300083E0F50CA3E0F9A80C740268700374290A
:10344000697021750C02750D00780C1219A47808AA
:103450001219A4780A1219A4EEF91207FB740612C5
:10346000175080027901023AD1E0F50AA3E0F50B8A
:103470002274E812179174FB12173AE985188285B5
:103480001983F08A168B178C0E8D0F741F121785F7
:103490001238D174211217851234697423121785DA
:1034A0001238BB7510008C828D83A3A3A3E0A2E425
:1034B000502A741D1217851231328A828B83E5825D
:1034C0004583700302357D790AAC0EAD0FAA16ABA9
:1034D0001712178FE9F5106003023580850E82857B
:1034E0000F83E064026003023836A3123BB3850801
:1034F00082850983A3858212858313E50E2406F550
:103500000CE50F12389288828983E0FAA3E0F9EA89
:103510002400F514E439F5157814121A2E01000070
:103520002801284535070002281C3603288C350061
:1035300029463701296E37022915370329463704F2
:1035400029D7373638EE4F703E850C82850D8312B1
:1035500038ACFAE9FB8A828B83E0850A82850B838B
:103560001238E81219A48A828B83A3123382FDAA2F
:1035700008AB09120FED7402121750800375100E7C
:10358000A9107405023D1575100B80F4EE4F70F70D
:10359000850A82850B837401F01238C18508828503
:1035A0000983F07C007D00850E82850F83A3A3A391
:1035B000A3E02401FAA3E03400FB1206B7EA4B6053
:1035C000418A828B83E02402F8850A82850B83E09E
:1035D00028F0EA2404F8EB3400F988828983E08536
:1035E00012828513831238FA1238E81219A48A82DB
:1035F0008B8312337CE5082403FAE5093400FB02CF
:103600003573850A82850B83E02404F07C047D00F9
:103610007900AA12AB13121005023580EE4F600339
:103620000235871238C1FEA3E0FF850A82850B832D
:103630007404F0EE850882850983F0EF8512828597
:103640001383F07403121785AC82AD83EEFAEFFB9F
:1036500012398E70030236F28A828B83A3A312384A
:10366000B7740112178585820E85830F780E1219A3
:10367000A474051217851219BB7CFF7DFF1206BDCD
:1036800074041217508B0FEA450F7033850C828536
:103690000D831238971219A4850C82850D83A3120D
:1036A00019BB7C027D007A1E7B931204E97404121C
:1036B0001750E9700A740112178574FFF0A3F08E99
:1036C000828F83E064027034750C02750D00780CF3
:1036D0001219A48E828F8312337CE5082404FAE544
:1036E00009122CA8121750850A82850B83E0240248
:1036F00080097401121785EEF0A3EFF07401121720
:10370000851238A8F07401121785A31238A0A3A35C
:10371000A3F0023580EE4F6003023587850C828569
:103720000D8312337DAA16AB171207EF850A828527
:103730000B837402F0EA850882850983F085128282
:10374000851383EB80CBEE4F60030235871238C1BF
:10375000F8A3E0F9850A82850B837402F0E88508F6
:1037600082850983F0E985128285138380A3850C05
:1037700082850D83123022120FE7EAFC8C82A88228
:10378000C39EE49F404BE86E7001EF70047C0080A4
:103790001F851882851983E0FAEE2AFAEF3400FBC0
:1037A000C3EA98EB94005003E08004EECCC39CFC89
:1037B000EC850A82850B83F08C0A750B00780A125F
:1037C00019A4850C82850D83E02EFCA3E03F023511
:1037D0006E751007023580EE4F6003023587850C49
:1037E00082850D83123BB3850A82850B837407F0B3
:1037F000888289831238A0123888E0851282851366
:1038000083F0E82402FAE93400FB8A828B831238C1
:10381000A01238D91238A8A31238E21238B1F0E851
:103820002405F8E93400F9888289831238B1A3129B
:1038300038FAA302370E741D1217851239997003D6
:1038400002357D123BB3880C890DE8450D700302EB
:10385000357D8E108F1178101219A4780A1219A4D0
:1038600078081219A47406121785E0F9AC0EAD0F92
:10387000AA16AB17850C82850D8312178F7406125A
:103880001750E9F510023580F088828983A322F56C
:103890000CEF3400F50D22E0F50E750F00780E22C6
:1038A000E08508828509832212390122123BB7E89C
:1038B00022123901A3A322A3A3A3A3E0FEA3E0FF46
:1038C00022850C82850D83E0F8A3E0F5838882E0F1
:1038D00022E0F508A3E0F50922A3A3F08A828B83F6
:1038E000A322122594A3A322F08A828B831238F19B
:1038F00022E0F50A750B00780A2212388812390185
:1039000022E0850882850983A3A32274EE12179111
:1039100074FE12173A8A0A8B0BECFAEDFB74141240
:103920001785E0F510A3E0F5117416121785E0FE77
:103930007418121785E0F50EA3E0F50F851882853F
:103940001983AC82AD8312398E603E851882851949
:1039500083123999602FA3A31238D1E50845096075
:1039600024780E1219A478101219A4EEF9AC0CAD3B
:103970000DAA0AAB0B85088285098312178F740480
:103980001217508006790E80027901022DCE1206A0
:10399000B78A0C8B0DEA450D221230261239A0226F
:1039A0001207838A828B83E58245832274F612177D
:1039B0009174FE12173A740C1217851238AC8518E0
:1039C00082851983F07401121785E9F0E4F508F592
:1039D0000978081219A475080278081219A4740449
:1039E00012178585820885830978081219A41207A1
:1039F000D774061217507402121750806474F712AD
:103A00001791EAFEEBFF89087C187D031207EFEAA5
:103A10005402600BA908EEFAEFFB1206AB800279A4
:103A2000010233EA74F612179174FF6A700374FF8F
:103A30006B701C7B00EB75F003A4F8A9F0EC28F880
:103A4000ED39F9123A660BEBC39402501480E6127A
:103A500007BF8A088B09A808A909E8496003123A38
:103A6000667F020218638882898374FF122592E4BC
:103A7000F02274F61217911207BF8A828B83E582B7
:103A800045836006A3A3E0FA80027A007B0080D120
:103A900074F21217918A088B09ECFEEDFF740E1276
:103AA0001785E0F50A123AD6701CEEFCEFFD7AFF9E
:103AB0007BFF123AD670047911801688828983E5DB
:103AC00008F0A3E509F088828983A3A3E50AF079C9
:103AD000007F060218631207BF8A0C8B0DA80CA981
:103AE0000DE8492274EE121791EAFEEBFF8C088D67
:103AF00009890C7412121785123BB37414121785BE
:103B000012337D7416121785123022750D00EC4D9C
:103B10006003023BA77402650C6003023BA288822B
:103B20008983123382F9EC2400F50EE439F50FEAAB
:103B3000F4F8EBF4F9EC58F8E50F59F9E849705D41
:103B4000E5082406F8E5093400F9880A890B88821B
:103B5000F583122CB71207EF8A108B11E50E651052
:103B60007004E50F65116042780E1219A4850A826F
:103B7000850B83122CB71207F57402121750E9F562
:103B80000D7027780E1219A4850882850983A3A3D6
:103B9000122CB512080D7402121750800D750D808D
:103BA0008008750D0D8003750D0BA90D0232888EEE
:103BB000828F83123BB722E0F8A3E0F92274E81267
:103BC000179174E712173A851882851983EAF0A3D2
:103BD000EBF08C168D17890E7431121785E0F512F3
:103BE000A3E0F5137433121785E0F514A3E0F5157F
:103BF0007435121785E0F50F750800750900E509A1
:103C000075F003A4F8A9F0851882851983123D2761
:103C1000E0F47003A3E0F47003023D05EE2402F526
:103C20000CEF123D1DE07003023D0585160A851755
:103C30000B780A1219A4AC14AD15AA12AB13120713
:103C40007774021217508A0A8B0BEA450B70030235
:103C50003D05E4F510F51178101219A47406121739
:103C60008585821085831178101219A474091217A2
:103C70008585821085831178101219A4851282859A
:103C80001383A3A3A3A31219BB7914AC0AAD0B8EA3
:103C9000828F83123D3B121750E97069850A828535
:103CA0000B83A3A3A3A3123BB37402121785123391
:103CB00094850C82850D83E0A2E05018A90E740251
:103CC000121785AC82AD838E828F8312302212064A
:103CD000CFE94208850C82850D83E0A2E15026E5FC
:103CE0000FF50A780A1219A8A90E7403121785ACE9
:103CF00082AD838E828F831230221206C974011224
:103D00001750E942080509E509C394025003023B34
:103D1000FEA90874191217507F100218633400F5B9
:103D20000D850C82F58322E028FEA3E039FF8E8208
:103D30008F83227916850A82850B8312302612071B
:103D4000D174082274F2121791EAFEEBFF890B740A
:103D500001650B600E7402650B706379011209E74F
:103D6000E9705BEEFAEFFB123DC16047750A008017
:103D70000B7C177D007900121005050A9002E5E022
:103D8000F8E50AC3985021E50A75F017A4F8A9F0E0
:103D9000850882850983A3A3E028FAA3E039FB8A7A
:103DA000828B831226E370C985088285098374FF9C
:103DB000F0A3F07C187D03EEFAEFFB1207E9023A5C
:103DC000D11207B98A088B09EA45092274F2121741
:103DD000918A088B09ECFEEDFF740E1217851234E0
:103DE00069900A2EE0F4603D7A097B00121017EA10
:103DF0004B60328A828B8374B1F0A3E41238DBA368
:103E00001238D9A3E508F0A3E509123E28EEF0A385
:103E1000EF123E28A3A3E50AF0A3E50BF0900A2ECB
:103E2000E0F9121023023AD1F08A828B83A3A3A374
:103E3000A3A322C082C0839061907404F0A374484D
:103E4000F0A3E4F09061807440F09061BC7407F0DE
:103E50009061877469F09061B67416F07900120A67
:103E6000D77902120ADD902450E493F46006E493BB
:103E7000F9120AB37905120DD1024275C082C083CE
:103E8000E9540FF9906185E0696012E5C6548044F9
:103E900049F5C6E59E547F644970F8E9F053C68041
:103EA000E59E547F70FA02427574F7121791E5A8E7
:103EB000FE53A87E120ABFC2BA539AFEC289759BEE
:103EC00000C2C2120AC575A91175B905120ACBD272
:103ED000BA439A0174805E42A8024802C082C0833D
:103EE000906181E4F0A302427275E900759100755A
:103EF000BF00020135C082C083906181E4F0A374E9
:103F0000C0F0A3E4024274C082C08374F812173A6E
:103F10009003C41246E4E8497003023FBE9003C414
:103F2000E0544060237908851882851983AA82AB02
:103F300083120BCD851882851983AA82AB83120860
:103F4000799003C4E054BFF0E054806010790C7A9B
:103F5000807B05120BCD9003C4E0547FF0E0A2E01B
:103F600050087900123FC654FEF0E0540260087910
:103F700001123FC654FDF0E0540460087900123F7E
:103F8000D154FBF0E0540860087901123FD154F796
:103F9000F0E0541060087902123FD154EFF0E05481
:103FA0002060087903123FD154DFF0A3E054016090
:103FB0000D120AE912088B9003C5E054FEF0740854
:103FC000121750024275120AD712087F9003C4E0FC
:103FD00022120ADD1208859003C4E022C082C08349
:103FE000E9600514602A804F90619A7433F0A374DD
:103FF00055F09061A0743AF090055CE0640170099E
:10400000C2919003C67467802D9003C674618026A8
:1040100090619A743FF0A3745AF09061A0747FF09D
:1040200090055CE064017009D2919003C6747180C0
:10403000059003C6746AF0024275C082C083E960CD
:104040000B14600D14600F146011802090245480B4
:10405000159024558010902456800B90055CE064E8
:104060000160F3902457E493906186F002427574E6
:10407000EE12179174F412173A851882851983ACE1
:1040800082AD837583927582CA740412164D902492
:104090005493F46003024201907808E0C394025004
:1040A000030241E17404121785AC82AD83758392DB
:1040B000758228740812164DF97AFF7BFF7FFF7E08
:1040C000008982858210801874086E700302419600
:1040D00074096E7003024196740A6E700302419671
:1040E000E510C333FCE433FD7404121785E5822C1C
:1040F000F582E5833DF583E0F50EA3E0F50F8E082C
:104100007509007402780812172774482508FC7492
:10411000783509FD8C828D83780812160A74087828
:104120000812154B85080C85090D8C828D83780843
:1041300012160A7418780812154BE50C4508F50894
:10414000E50DF509C3E50E9508E50F95098C828DFF
:1041500083780812160A8C828D83780812160A74E6
:10416000187808401412154BE50C4508FCAD0DE518
:104170000EC39CFCE50F9D800F12154BE50C450806
:10418000C3950EFCE50D950FFDC3EC9AED9B500613
:10419000ECFAEDFBEEFF0EEEC3941350030240C8A1
:1041A00074FF6A700374FF6B602D8F0874027808C7
:1041B0001217277448124E9074783509F5837808E1
:1041C00012160A851882851983E5822510F582E585
:1041D00083124C1DE508F009E9C394045003024022
:1041E000B975080175090078081219A4740212172C
:1041F00085AC82AD837A157B091211FD740212170A
:1042000050740C1217507F0A021863C082C083904A
:104210006186E0F8902457E493687009902456E48E
:1042200093906186F09061AE7468F0A3746AF09028
:10423000624574FBF0A304F053F4FD43FE029005C5
:104240005C7401F09061A0E0643A7004790080022F
:104250007901120AD7024275C082C08390050EE030
:104260006401700A900513E06004790C8002790003
:104270008003F0A3F0D083D082020135C082C083D6
:1042800075E1F1900511E0604D146008146051145F
:1042900060498051120AFB900507E0F97A087B0516
:1042A000120D539092CE121628120D8990928A12F6
:1042B0001628120D5F900512E0F9120D6B790112AC
:1042C0000DC5900505E0241612440A7413F0A3747A
:1042D0000BF07900809F120B0180BC120B0780B796
:1042E000120B0D80B2791280EB74F412179175D90C
:1042F0000D9004F6E0A2E0E4331313F8124376487D
:104300004401F5D978001243F440FB780088087422
:10431000F7124E9074041243FE40F275E19590043A
:10432000F6E0F97AF77B04120D59900A507489F07F
:10433000A3740A12441912443912443012457112FE
:104340004380780812160A9092D278081215969037
:10435000929278081215E412440478081216199003
:104360000505E0241412440A7413F09003C2740289
:10437000F07F04021863900507E0C4333354C02271
:10438000900505E0F8A3E0F5838882A3A32274F6E4
:104390001217911245428AD978001243F440FB78F3
:1043A0000080061244A81245F4E8C39940F512456E
:1043B000341243F440FB78008008124E8C740512CE
:1043C00045F4E8C39940F375E195900A507495F06F
:1043D000A3740A1244191244231216281244041218
:1043E0001634900505E0241412440A7412F0900368
:1043F000C20247DF880874082508F5827405124751
:1044000050940622900505E0240EF8A3E012441112
:10441000223400F9888289832212455A748FF0A3CE
:10442000740A221244391244301245759092C62201
:10443000F0A374A7F0A3740A2212443D221244414F
:1044400022F0A37439F0A3740C2274F6121791129F
:10445000449D1243764402F5D978001243F440FBA0
:10446000780080061244A81245F4E8C39940F57517
:10447000E195900A501244B3F0A31244B3124426BB
:10448000121628124404121634900505E024141262
:10449000440A7414F09003C274040247E1900517B3
:1044A000E0F9740729F5D922880874182508F582DF
:1044B00074052274A11244C01244C0F0A3740A22ED
:1044C000F0A3740AF0A374A12274F6121791124596
:1044D0004274064AF5D978001243F440FB78008014
:1044E000061244A81245F4E8C39940F51245341267
:1044F00043F440FB78008008124E8C74051245F49A
:10450000E8C39940F375E195900A50749BF0A37449
:104510000A1245501244231216281244041216346B
:10452000900505E0241412440A7415F09003C27437
:10453000030247E19005371244A074044AF5D97884
:10454000002212449D900507E0C4333354C0FA2280
:1045500012455A7439F0A3740C2212455E2212459A
:104560006B7439F0A3740C12456B22124441F0A312
:104570002212457522F0900A5E7439F0A3740C1271
:10458000455E7439F0A3740C12443DF022C082C021
:1045900083124380A3A3A3A3E402427274F7121709
:1045A000911250D2F8740339F9E82405FAE934007D
:1045B000FB8A828B83124E4188828983A3A3A3A3A3
:1045C000A3A3A3A3A3ECF0A3EDF088828983A3A304
:1045D000A3A3A3A3A3E024FFF8A3E034FFF98A82F6
:1045E0008B83E8F0A3E9F00248028808746025088C
:1045F000F5827405124D68F5D90822EAFEEBFF90AA
:1046000061D0E0F87480C398FAEE24832212461336
:10461000940422124C2BE0F5D90AEAC32274F61254
:104620001791EAFEEBFF9061D0E0707575D90E75B9
:10463000D90375D9047A008A08EE25081251A024FE
:104640008C1246B640F17A008A08EE25081251A075
:10465000248412460D40F175E1957908EE248C1200
:1046600046AF24841246A67C008C82AA82C3E49AB8
:10467000F895E0F9EE28F8EF39F9E8248BF582E9AE
:10468000124D64C0E0EE2A1251A024ABF582E9126B
:104690004C1DD0E0F00CECC3940840CD12476C8068
:1046A0000279000247E2FAEF3400FB120BC122123A
:1046B00046A67904EE22124613940822C082C083D3
:1046C00075D90275D90375D90575E195EA2470F598
:1046D00082EB1246E1EA2472F582EB12477E024237
:1046E00075124C2E1246E822E0F8A3E0F92274F687
:1046F000121791EAFEEBFF900560740612475A12FA
:1047000019A47C017903124A8612175075D90675CF
:10471000D903780012474040FB75E1959003C2E051
:1047200064087017EE2470F582EF1246E1EE2472F1
:10473000F582EF124C1DE8F0A3E9F079010247E29F
:10474000880874602508F582740512475094052284
:10475000124C2EE0F5D908E8C322F07508607509FF
:104760000578082275E1957904120D8FEE2470F515
:1047700082EF124C2E1246E8EE2472F582EF124CB4
:104780002EE8F0A3E9F079012274F6121791EAFEFF
:10479000EBFF9061D0E070437901900560740BF0FD
:1047A0009003C2E064077017750860750905780802
:1047B0001219A47C010909124A861217507905744E
:1047C0000129F5D975D903780080031245EAE8C3B9
:1047D0009940F875E19512476C8002790080037466
:1047E00001F07F0202186374F7121791EAFEEBFFE3
:1047F00075D90375D90375D90DEE24DE1248071259
:1048000047647F01021863F582EF124D68F5D922E3
:104810007F030218637401250AF5D975D90378005E
:104820002274F51217911248966004780480027879
:1048300000E8240BF8EAC3984041750A0990056026
:104840007409F0790812487F6014750860750905CD
:1048500078081219A4124A7E121750750A0D1248D0
:104860001580031245EAE8C3950A40F775E195798A
:1048700004120D8F1249FB7901800279008091EEBC
:1048800024E3FCEF3400FD7A617B05120BBB850845
:1048900082850983E0221245FBF8EF124E35F5833D
:1048A000E02274F31217918A088B09124A91FAE5F3
:1048B000082483F50AEB12496060047804800278CA
:1048C00000E82408F8EAC3985003024959750C0619
:1048D000900560740CF09003DFE0900561F07402C5
:1048E000C0E0F97CE07D037A627B05120BBBD0E06F
:1048F000F97CE27D03120BBB850A82850B83E060A5
:104900001C750A60750B05780A1219A47C067903D8
:10491000AA08AB09124A86121750750C0A740125B1
:104920000CF5D975D90378008009880A7460250AC6
:104930001245F0E8C3950C40F175E1957904120D2C
:104940008FE5082470F582E5091246E1E508247236
:10495000F582E50912477E800279007F050218631F
:104960003400F50B850A82F583E02274F612179164
:10497000EAFEEBFF124A91FCEE2483F8EF124A8C18
:1049800060047A0480027A00EA2404FAECC39A40B4
:104990005E7A02900560EAF0EE24F5F582EF124AA5
:1049A00007601975086075090578081219A47C025A
:1049B0007903EEFA124A861217507A0674012AF524
:1049C000D975D903780080031245EAE8C39A40F804
:1049D00075E195EE24741249F4EE24801249F41224
:1049E00049FB7904120D8FEE240D12476F80027976
:1049F000000247E2F582EF124B7722EE241DF5828A
:104A0000EF124B77A3F022124D68900561F0888277
:104A10008983E02274F6121791124A91FEEA2483E8
:104A2000F8EB124A8C60047C0480027C00EC2404C5
:104A3000FCEEC39C40437C029005607407F0EA24BE
:104A4000F6F582EB124A076015750860750905785E
:104A5000081219A47903124A861217507C067401B1
:104A60002CF5D975D903780080031245EAE8C39C78
:104A700040F875E1957901800279000247E27C09EE
:104A80007903EEFAEFFB120C2D740222124411E0AE
:104A9000229061D0E0F87480C3982274F5121791C7
:104AA000E9FEA2AFE433F50AC2AF7F00EA246FF853
:104AB000EB3400F980010F88828983E0FCEFC39C0E
:104AC00050188F08EA2508FCEB3400FDEC246BF548
:104AD00082ED124D646E70DE8010EA2CFAEB340029
:104AE000FB124C17EE124A0D04F0E50AA2E092AF59
:104AF00002481074F6121791A2AFE433FFC2AFEA76
:104B0000246FF8EB1251A2FCE9FD8C828D83E01436
:104B1000F07E0080218E08EA2508F8EB1251A224CD
:104B20006CF582E9124D64C0E0E8246BF582E9126D
:104B30004C1DD0E0F00E8C828D83E0F8EEC39840DF
:104B4000D4EA246E124C1A74FF124B6CEFA2E0925E
:104B5000AF0247E2C082C083E5A8F8C2AF124C178B
:104B6000E9124B6CE8A2E792AF024275F0EA246AC0
:104B7000F582EB124B7722124C2EE4F02274F212E3
:104B800017918C828D83A3A3A3A3E0541FF0EA2482
:104B900036124ED98E828F83E4F0F50C850C828517
:104BA000820AEC250AF8ED124E31F583E0C0E0EA06
:104BB000250AF8EB124C21D0E0F0750D0085088233
:104BC000850983E0F50A750B00E50D780A121708D0
:104BD000E50AA2E0502AE50C33333354F8250DC022
:104BE000E08E828F83E0F8EA28F8EB1251A2243895
:104BF000F582E9124C1DD0E0F08E828F83E004F044
:104C0000050DE50DC3940840B4050CE50CC39405EF
:104C1000408A7F06021863EA246BF582EB124C2E61
:104C2000223400F9E8245D124C2B22F582E934008D
:104C3000F5832274F61217919003EEE06401700779
:104C40007A007B00024D5E7E009003F4E070F17408
:104C500001F0A3E4F0A3F090045404F0900457E4AE
:104C6000F0A3F090045A04F09003F7E4124D75900D
:104C7000040104F0900427E4F090926A1216289040
:104C8000040A12163490040EE4F0A3F0A3F090048A
:104C900072F0900466F090045B7480F0A3E4F090EE
:104CA0000461F0900459F09004DD124D6D9004E61B
:104CB000F0900475F09004C5F0A3F090926A12167B
:104CC000289004C712163490926A1216289004CBCA
:104CD0001216349004D1E4F09004D3F09004CFF095
:104CE0009004E9124D6D8E08745D124E907404129A
:104CF0004C1D74FFF00EEEC3940440EA7E008E82D9
:104D0000A88274FD28F5827404124D64C0E0744FCB
:104D100028F5827404124C1DD0E0F00EEEC3940509
:104D200040DC7E008E82A88274D628F5827403123D
:104D30004D64C0E074D528F5827404124C1DD0E097
:104D4000F00EEEC3940840DC9003EEE004F0640142
:104D500070089003F6E09003F0F07AF27B030247CC
:104D6000E2F582EF124D6822124C2EE022124D75B0
:104D7000A3124D7522F0A3F0A3F0A3F022C082C0CD
:104D800083EA2403F582EB124D646008E4F090039B
:104D9000EFE014F09003EEE014F070069003F0746E
:104DA000FFF08A828B83A3A3E4F0900502E0700DEC
:104DB0009003EFE0640170057900120D71024275F5
:104DC000C082C0839003F5E4F09003F4F09003EE0A
:104DD000F0A3F0A374FFF075E1F1024275C082C048
:104DE00083780079009003F5E0600478F279038815
:104DF000828983A3A3A3A3E0F902427574F6121774
:104E000091EAFEEBFF120B73EE2465F8EF124E31C0
:104E1000124E3FEC4D60109003F01250CA8508828C
:104E2000850983E4F0A3F0EEFAEFFB120C6302476E
:104E3000E2124E35223400F988088909888222F569
:104E400083E0FCA3E0FD2274F7121791EAFEEBFF6A
:104E50008E828F83A3A3A3A3E0FA7B001208F1EE56
:104E6000FAEFFB120B85120C4502480274F612177A
:104E7000917800880874D6124E9074031249F7088E
:104E8000E8C3940840ED9003D60247DF88087438E1
:104E90002508F5822274F6121791EA240D124ED9D4
:104EA000EC2403F8ED3400F988088909EC2407F8AC
:104EB000ED1251A2FCE9FD124EE31216AF8E828F65
:104EC00083E8F0A3E9F0124EE31216AF8B09EA452E
:104ED000096003124EF60247E2F8EB3400F9E8FEEF
:104EE000E9FF228C828D831246E88508828509833A
:104EF000E0FAA3E0FB228E828F83E02401F0A3E09E
:104F00003400F02274F6121791EA242EF582EB3465
:104F100000124E3FEA2470124ED9780079FAECFA6A
:104F2000EDFB1216AF8E828F83E8F0A3E9F07800D4
:104F300079FAECFAEDFB1216AF8B09EA450960032A
:104F4000124EF60247E274F0121791EAFEEBFF747C
:104F500010121785780812160A120D1D8A0C8B0D77
:104F60008C0E8D0F9092D6780C12159690929278A6
:104F70000C1215E4780C1219A08E828F83124383D1
:104F800012162812217B7404121750E96003025094
:104F90002E8E828F83E02402F8A3E01251A2FAE958
:104FA000FB8A828B8378081215A990929278081256
:104FB000160A8A828B8378081215F7EE240BF58285
:104FC000EF124C1DC082C0838E828F83A3A3A3A344
:104FD000A3E02401F8A3E03400F9D083D082E06894
:104FE0007003A3E069700479018045EE2407F8EFAF
:104FF000124411124EFAEE24741251A77014EE24CA
:10500000751250357003A3E06D70078A828B83128E
:105010004EFAEE24801251A77014EE2481125035FE
:105020007003A3E06D70078A828B83124EFA7900B9
:105030007F08021863FAEF3400FB8A828B83E0FC5E
:10504000A3E0FD88828983E06C2274F31217911229
:1050500050D2FE740339FFEE2404F50AEF3400F554
:105060000BEE2465F508EF3400F5098010124E416F
:10507000850882850983E4F0A3F01250C485088274
:10508000850983124E41EC4D6030EE2464124D616F
:10509000F50C780C1219A8EE2463124D61F9EEFAA2
:1050A000EFFB120BAF7401121750E98508828509D6
:1050B0008360BA1246E4E84970077C007D00125014
:1050C000C402495B850A82850B83E0FA7B001208E3
:1050D000AF229003F0E0F875F004A4C8AAF02AF912
:1050E00074F2282274F2121791EAFEEBFF890A7417
:1050F0000E121785E0FAEE24621251A760030251E6
:105100009B124A91F50CEE2483124D61FB600478EA
:1051100004800278008908E928F8E41251A22402E8
:105120000808E93400F9E50C98E499A2D265D03377
:105130004065EA7005750B028003750B01EB603367
:1051400075090078081219A47A607B05120BF774B0
:105150000212175075086075090578081219A4AC79
:105160000AA90B124A821217507404250AF50A7C08
:10517000607D057401250AF5D9850BD97800800A70
:105180008808EC124E90ED1245F4E8C3950A40F001
:1051900075E195790080067907800279FF024C124B
:1051A000F8EF3400F9E822F582EF124D686401222D
:1051B000C082C08380031251DEE9F874FF2819040D
:1051C00070F4ECFAEDFB024275C082C083800312DA
:1051D00051DEE9F874FF28190470F40242758C82DC
:1051E0008D83E08A828B83F08C828D83A3AC82AD29
:1051F000838A828B83A3AA82AB832274E8121791DD
:10520000907803E06442705E90055FE014F07056A1
:10521000C2AF12521500782AD0E0F618D0E0F6E5B9
:105220009F5407F970059092DA8003909262780893
:1052300012160AE9C4C0E07829E65508F50808E620
:105240005509F509740B7808121718D0E02508F8ED
:10525000906270E0A2E740F8E8C333906272F09089
:105260006270E0D2E0F09003F0E0F874FF68700341
:1052700002552DE8125F862402F8EF3401F9888286
:105280008983126000EA4B600FEE2401F582EF344F
:1052900001F583E0F9121047EE2405F514EF340010
:1052A000F5158E828F83A3A3A3A3A3A3A3125A12DF
:1052B000125F9C906054E09003C9F0906055E090BC
:1052C00003CAF0906056E09003CBF0906057E090F6
:1052D00003CCF0906058E09003CDF0906059E090DE
:1052E00003CEF090605AE09003CFF090605BE090C6
:1052F00003D0F090605CE0FC9003D1F090605DE042
:10530000FD9003D2F090605EE0F50C9003D3F09036
:10531000605FE0F50D9003D4F09003CFE0F5108CC2
:10532000082508F8E43400F9850C081259BD8D08E9
:105330001259BD850D081259BDEE24F7125F4812AF
:105340005FF28C8285820AEE24F9F582EF125A060A
:10535000EE24FB1259FAEE24FFFAEF3400FB8A82A6
:105360008B83E0F508A3E0F509E5084509603A906C
:105370006000E0C333F508E433F5098A828B83E0EB
:105380002508F50EA3E03509850E82F583125FF23C
:10539000906000E0C333F8E433F98A828B83125FB4
:1053A000AD244AF582E9125A06EE240BF8EF3400D8
:1053B000F9EE241DF50EEF3400F50FEE2420FAEF80
:1053C0003400FBEE241C125F30EE240FF50AEF349C
:1053D00000F50BE510700BED7008E50C7004E50DA1
:1053E0006079851482851583125FC8EE240D125FE3
:1053F000522CFCA3E03DFD88828983ECF0A3EDF004
:105400001259D77003125A3D9003CAE060248508F0
:10541000828509837401F0EE246A125F527013EEE4
:105420002474125F52700BEE2480125F52700312CC
:105430005A3D906062E08E828F8370030254C0E018
:105440002406FCA3E03400FD125FDF120D178E82EC
:105450008F83E02412125FA2E48079EC6018125965
:10546000D770238A828B83125FC8850E82850F8353
:10547000ECF0A3ED800FEE24FD1259FA850E828523
:105480000F83E4F0A3F088828983125A12E06870D7
:1054900003A3E0696003025408850A82850B83E058
:1054A000600F851482851583E064057002A3E060B7
:1054B0000B7908EEFAEFFB120B8B8071793E80F3CB
:1054C000E0F8A3E0F5838882A3A3A3A3A3A3E4F059
:1054D000A312639BF0A3F0906060E0C0E0EE24694B
:1054E000125F48D0E0F09003CFE0F8125F4F28F051
:1054F000EE247AF516EF3400F51702561990055D83
:10550000E06401702B120DDD125F4F700690606039
:105510007480F0EEFAEFFB120CC9E96401600E1220
:105520000BA9120CC3E964016003120C45025A5026
:10553000EE2483125F526004780480027800E50C48
:10554000C398F91208A38A0A8B0BEA450B60B6EEE2
:105550002483125F5270048A088B0978008015E555
:10556000D9C0E08810E5082510F582E509125F4BE7
:10557000D0E0F008E8C3950C40E5EE2483125F52BA
:10558000603774FC250CF50C78081219A4AC0CA932
:105590000DEEFAEFFB120C337402121750E970197A
:1055A0007403650D7003025653E50A24FBFAE50BFC
:1055B00034FFFB1210890256537403650D70030209
:1055C0005658850C1075110078101219A4AC08AD4E
:1055D00009AA0AAB0B120BF77402121750EE2469DA
:1055E000125F5264807004747F8001E0F5087808CF
:1055F0001219A8E50DF50878081219A8A90CAC0A2B
:10560000AD0B9003F0E0FA7B001208A974021217A8
:1056100050120DE9125F4F14F0E0700302550D7542
:105620000860750905750A00750B00E5D914F50CBD
:10563000E5D95403F50D601B7403650D7003025525
:105640005BE50C70030254FDEE2468125F526003A8
:105650000254FD793D0254B3850882850983E0FA3E
:10566000A3858208858309A3A882A9836038147062
:10567000030257AB1470030259611470030257EC14
:1056800024FD700302588F1460871470030258B60B
:1056900024FE70030258981470030258B11470036A
:1056A00002590902590E850882850983E0C0E0EE9F
:1056B0002477125F48D0E0F0880889097902AC08A5
:1056C000AD09EE247812597E7902AC08AD09AA160C
:1056D000AB17120BB58A088B097902AC08AD09EE3D
:1056E000247C1259A3247E12597EEE2477125F5235
:1056F000C333F0EE2478125F48125A32EE24781247
:105700005F99125A2C851682851783125F9CEE24AE
:105710007E125F52F50AA3E0F50B7404780A1217A3
:1057200027EE247E125F48E50AF0A3E50BF079022C
:10573000AC08AD09EE247512598F2475125F48C06C
:1057400082C083851482851583125FB9D083D0828D
:10575000125A1C400579280254B3EE247C125F5281
:105760002401F508A3E0125F33E4F50AF50B125AA1
:105770002C88108911E4F512F513780879101214A9
:105780005BEE247E125F52F510A3E0F511781079DC
:105790000812141C4005793B0254B3EE24741263C2
:1057A0007912639BE4F0A3F00256117402C0E07911
:1057B00005AC08AD097AFD7B04120BB5EAFCEBFDE4
:1057C000D0E0F9EE248112598F2481125F48C08203
:1057D000C083851482851583125FB9D083D082126D
:1057E0005A1C4003025755EE248080B2EE24E21288
:1057F0005F5270147A001259AEC0E01259C6D0E060
:10580000F00AEAC3940840EEEE24E3125F52A2E0ED
:10581000EE401424DE125F48741AF0790DEEFAEFB0
:10582000FB120B550256111259ED24E1125F7779E4
:1058300008AC08AD09EE249C1259A324A412599D6A
:10584000AC08AD09EE249412599DEE2494FAEF347D
:1058500000FB120BC17904AC08AD09EE2488125983
:10586000947904EE2488FAEF3400FB120BC1EE2485
:105870008CFAEF3400FB120BD3EE2484FAEF3400E1
:10588000FB120BD99003C4E04480F07904808EEEC3
:1058900024DF1263790257A7EE1259ED24D3125F69
:1058A00069EE24DD12638724D4125F69790B0258F4
:1058B0001DEE24E080DC7A001259AEC0E01259C619
:1058C000D0E0F00AEAC3940840EE7A008A82A88207
:1058D00074D628F5827403125F4BC082C08385089A
:1058E00082850983E0D083D082FBE05BC0E012595F
:1058F000C6D0E01259E5A38582088583090AEAC368
:10590000940840C8790902581D12638D700DEE2469
:10591000F6125F48EAF0790702581D85088285096A
:1059200083E0C0E0EE24EE125F48D0E0F088088902
:10593000097402C0E0F9AC08AD09EE24EF125994E5
:10594000EAFCEBFDD0E0F9EE24F112598F24EB12C2
:10595000638724ED125F526003025611790C0258DE
:105960001DEE24F5F8EF125F7CE088828983F0EE6B
:1059700024F4125F7788828983E0F90254B31259C4
:105980008222FAEF3400FB120BB58A088B0922122F
:105990005994EE22FAEF3400FB120BB52212598211
:1059A0007908221259827902AC08AD09EE228A8266
:1059B000A88274D628F5827403125F5922E825085C
:1059C000F8E93400F922EE28F8EF3400F9E824E38E
:1059D000F582E9125F7222850A82850B83E41259EF
:1059E000E5E0640122F085088285098322246212A1
:1059F0005F6FE41263AAE4F0EE22125F562401F016
:105A0000A3E03400F022125F59250AF0A3E034002D
:105A1000F022125FBD85148285158322E0C398F8B9
:105A2000A3E099F9C3E894FFE9947F228516828563
:105A30001783125FBDE8C333F8E933F9228A828BFA
:105A400083125FBD850E82850F83E8F0A3E9F02203
:105A50007F1002186353BFEF02013574E8121791EB
:105A60009003F0E0F8125F862420F50EEF3400F585
:105A70000FEE241CF50CEF3400F50DEE241DF5108F
:105A8000EF3400F5119061D0E0600B851082851134
:105A900083E4F0A38030EE246A125F527029EE2472
:105AA00074125F527021EE2480125F527019850CBF
:105AB00082850D83E06401700E850E82850F83124E
:105AC0005FCEE8F0A3E9F0EE2407125F308E828FFC
:105AD00083A3A3A3A3A3125FCE125FAD240108E9A1
:105AE000125F7C125F9CEEFAEFFB120CCFE96401AF
:105AF0006008900504E06401701F851082851183A1
:105B0000E4F0A3F08E828F83A3A3A3A3A3E02401D8
:105B1000F8A3E0125F7C125F9CEE24741263906025
:105B200003025CC2EE2475125F381219BB8508822D
:105B3000850983125FC88E828F83A3A3A3A3A312B8
