:020000040000FA
:0600000002011D021D9229
:03002B0002244369
:030033000224257F
:03005300021E0882
:03006B000223FC71
:10008300021C83E5C754F84401F5C7790122000037
:100093000080FB120086B90003020107E47921788E
:1000A30008B800028004F709D8FCE479297802B87B
:1000B30000028004F709D8FCE490028178F1790703
:1000C3008002F0A3D8FCD9FA781A90014D7A01BACC
:1000D30000028007E493A3F608DAF9900971AA8273
:1000E300AB8390014E78BF79038015E493A3AC8270
:1000F300AD838A828B83F0A3AA82AB838C828D83A8
:10010300D8E9D9E77582A57583FF740112012F75AC
:100113008291758300740012012F75D00075813FA1
:10012300751881751902759F00020096C09FF59F8F
:10013300E473D09F22D083D082C09FE493C0E07445
:100143000193C0E0740293F59F2202FF0000B40004
:100153000028002800283075A000A000A000A000FF
:1001630000080008E001F00010001000100010006B
:100173001000100050005000500010001000D00775
:100183000000000000000F000100050030750700AB
:100193001000010081FF0000FF0A0628061006FF79
:1001A30002020208025000A0000000E8030230939C
:1001B3000100001293022C93010000C6090226934A
:1001C300010000B202022C93010000C7090224932C
:1001D300010000C802022C93010000C80902229307
:1001E300010000CA02022C93010000C909025293C4
:1001F300080000CB02022C93010000CA09022093DD
:10020300010000CB09FF0100FF2002309301000031
:100213001893022C930100002F0A021E9300000082
:1002230000000228930300001803460C460C460CFA
:10023300460C460C460C460C460C460C460C460C2B
:10024300460C460C1C0F340F160FFFFF020202026E
:100253000202020202010D000000100102309301AC
:1002630000001B93022C93010000720A02469301C3
:1002730000007807022C93010000730A02449301E3
:1002830000009691022C93010000740A024293012C
:1002930000007B91022C93010000750A0240930138
:1002A3000000B990022C93010000760A023E9301EC
:1002B3000000CB90022C93010000770A023C9301CB
:1002C3000000DD90022C93010000780A023A9301AA
:1002D3000000A790022C93010000790A02389301D1
:1002E30000005F91022C930100007A0A0236930109
:1002F30000007B0A01053F10FF0001307503020176
:1003030006000000000000000000000000000000E4
:1003130000000000000000000000000000FFFF06D6
:1003230000800CE80309094C4F53542D424C4505FA
:100333001228009001020A000201060302F0FF4C9A
:100343004F53542D424C45000000000000000000B4
:1003530000000000B4130000BA130201010843684F
:10036300617261637465726973746963203100102B
:10037300436861726163746572697374696320327F
:10038300000230930100001593022C9301000083B7
:100393000B0250930300006409022A9301000084B6
:1003A3000B022C93010000950B024C930000006A92
:1003B300090228930300006B09022A9301000096A7
:1003C3000B0000000000000000000000000000001F
:1003D300000000000000000000000000000000001A
:1003E300000000000000000000000000000000000A
:1003F30000000000000000000000000000000000FA
:10040300000000000000000000120138AE93031248
:100413000138C59303120138F493031201382D9464
:1004230003120138559403120138839403120138DF
:100433009A9403120138B19403120138C79403123A
:100443000138EE9403120138019503120138179510
:10045300031201382A95031201384F95031201380C
:10046300A097021201389F9802120138D498021201
:100473000138F598021201380599021201382699BC
:1004830002120138329A02120138FF9A021201381D
:10049300729B02120138F89B021201383B9C021234
:1004A3000138729C02120138F89C02120138CA9D6D
:1004B30002120138289E02120138409E02120138AE
:1004C300BA9E02120138BD9E02120138C09E02126A
:1004D3000138679F021201387F9F02120138AF9FD4
:1004E30002120138CF9F02120138BDA00212013857
:1004F30073A102120138BDDE02120138E5DE0212D9
:10050300013813DF021201384ADF02120138B2DF69
:1005130002120138FBDF0212013846E002120138F1
:1005230084E002120138C1E002120138EFE0021246
:10053300013896E102120138A0E102120138ADE15F
:1005430002120138E0E102120138A2E2021201387C
:10055300AEE202120138C6E202120138D0E2021200
:100563000138159E03120138239E031201383B9E66
:1005730003120138539E03120138ACB20112013841
:100583004AB301120138C2B301120138D7B40112C0
:10059300013811B501120138BAB5011201388FB60D
:1005A30001120138F3B7011201384AB801120138B8
:1005B300D1B801120138B8B90112013805BA0112D4
:1005C300013893BA01120138B7BA011201388CBC51
:1005D30001120138CDBC01120138EFBC0112013800
:1005E30070BD011201385ABE0112013820BF011239
:1005F300013808C302120138DAC30212013883C476
:1006030002120138C6C40212013853C5021201385E
:10061300DFC502120138C0C602120138EFC602124A
:100623000138EBC70212013833C80212013835C949
:100633000212013879C9021201389FC90212013826
:100643006A7F0012013847F8021201385DF802127E
:10065300013883F802120138ABF902120138B5F9F7
:10066300021201380EFB021201380EFC021201388D
:10067300CCCF0212013801D10212013834D1021257
:1006830001387ED1021201383CD3021201384FA344
:1006930001120138B2A301120138F7A40112013883
:1006A30007A5011201382AA50112013875A5011207
:1006B30001381AA60112013810A701120138DAA76E
:1006C3000112013852A90112013894A9011201380B
:1006D30032AA011201387FAA01120138A5AA011218
:1006E300013893AC0112013898AC0112013879AE8C
:1006F30001120138CDAE011201382FAF01120138BA
:1007030057AF01120138FBAF01120138BDB001121E
:100713000138EEB001120138F1B00112013839B1DC
:10072300011201387BB101120138E2B10112013823
:100733002D890312013840890312013859890312A4
:100743000138A489031201387F8A031201380E8B02
:1007530003120138598B031201386824001201383F
:10076300742400120138AD2400120138F22400125F
:100773000138A925001201382F26001201389426CA
:1007830000120138C02600120138F9260012013880
:100793000D2900120138E92A00120138D42C001265
:1007A30001380B2E001201386B300012013857311B
:1007B300001201389D3200120138AA3300120138A9
:1007C300C73300120138FF33001201381934001205
:1007D30001388134001201381B3900120138BC3949
:1007E300001201380D3A00120138343A0012013870
:1007F300823A00120138A03A00120138F43A00128A
:100803000138CD3B00120138543D00120138DC3D64
:1008130000120138F2D402120138FCD4021201385A
:10082300C7D502120138E2D50212013808D60212E6
:1008330001384CD60212013884D602120138ADD6E3
:100843000212013826D7021201383BD702120138AF
:1008530050D70212013887D7021201389BD70212F0
:100863000138CCD70212013806D80212013832D827
:10087300021201386AD802120138E7D8021201388D
:100883003BD90212013884D902120138AED90212BF
:100893000138D3D90212013877F00212013841F13D
:1008A3000212013824F2021201389AF202120138BC
:1008B300DCF20212013809F402120138008002123C
:1008C30001382980021201384280021201388781DF
:1008D3000212013865820212013884820212013841
:1008E300118302120138548302120138A1840212C7
:1008F3000138408502120138BF8702120138568839
:10090300021201382A89021201380C8A02120138B4
:10091300788B021201380B8C02120138259A0312CC
:1009230001388E9A03120138E29A03120138099BA7
:100933000312013806E80212013873E80212013883
:10094300BEE802120138B3E902120138AFEA02121B
:10095300013899EB0212013837F70112013879F7A0
:100963000112013853F8011201382CF90112013830
:1009730027FA0112013806FB0112013872FB01123A
:10098300013839FC01120138A4FC011201380BFDB6
:100993000112013836FD01120138A7FD0112013899
:1009A3003AFE01120138A3FE01120138B8FE01120A
:1009B300013800FF0112013819FF011201387EFFCF
:1009C3000112013881FF011201384F8303120138EC
:1009D300778303120138B58303120138738403123A
:1009E3000138DE8403120138FA84031201382285A8
:1009F300031201385285031201386185031201384D
:100A0300DB85031201380186031201385693011264
:100A13000138F39401120138D99601120138A397D2
:100A230001120138EA970112013831980112013895
:100A3300439801120138839801120138B2980112C8
:100A43000138FE9801120138369901120138649970
:100A530001120138B59901120138449A0112013883
:100A6300329D011201380C9F01120138489F011277
:100A73000138A2A001120138E9A0011201385EA1D8
:100A830001120138ACA101120138D2A101120138BF
:100A9300B4A201120138677600120138847600127D
:100AA30001381E7C00120138207D001201389A7E25
:100AB30000120138487F00120138433E001201380A
:100AC3008C3E00120138B93E00120138EC3E001290
:100AD3000138F93E00120138053F00120138173F73
:100AE30000120138EC3F001201384A40001201386D
:100AF3007F40001201381B42001201386842001285
:100B030001388C4200120138F942001201389E4329
:100B1300001201385A4400120138D9440012013836
:100B23009D4500120138AC45001201382D460012D4
:100B33000138CC4600120138FE46001201389947AD
:100B430000120138F747001201383148001201380A
:100B5300B248001201387B4900120138244A0012BE
:100B63000138AB4A00120138034B00120138644BC1
:100B7300001201388D4B00120138434C001201382A
:100B83008D4D00120138D04D00120138ED4D001289
:100B930001380C4E00120138574E001201387C4EBA
:100BA30000120138A54E00120138144F001201380B
:100BB300564F001201385A5000120138F4500012F7
:100BC3000138C05100120138D95100120138DEA199
:100BD3000212013831A2021201383DA20212013879
:100BE30012A30212013839A30212013874A30212AC
:100BF3000138E0A30212013814A4021201384DA4F3
:100C03000212013865A402120138BEA4021201388F
:100C1300D7A40212013820A50212013833A502120B
:100C230001384DA50212013863A5021201387FA6CF
:100C33000212013890A702120138DDA8021201380E
:100C4300C2A902120138F37F0012013851EA0112DE
:100C5300013885EA01120138F0ED011201383AEF4B
:100C63000112013804F0011201388EF1011201382A
:100C730069F201120138A3F201120138C6F201121E
:100C8300013808F30112013811F3011201385BF343
:100C93000112013865F30112013811F40112013810
:100CA300E5F40112013839F5011201389BF50112FF
:100CB3000138EEF5011201381DF6011201385CF618
:100CC300011201380B5200120138655A0012013823
:100CD3006B5A001201382660001201380C640012AE
:100CE300013818FC021201388EFC02120138A4FCF0
:100CF30002120138E1FC0212013819FD0212013817
:100D030096FD02120138D1FD021201384CFE021287
:100D1300013888FE0212013891FE021201389DFE4D
:100D230002120138B7FE02120138DCFE021201384A
:100D3300F2FE021201381BFF021201387EFF02127B
:100D43000138FBD9021201380EDA0212013828DA0F
:100D53000212013851DA0212013894DA0212013810
:100D6300D3DA0212013811DB0212013876DB0212E8
:100D730001388BDB0212013896DB02120138A3DB48
:100D830002120138BADB02120138C8DB0212013841
:100D9300D3DB02120138DFDB02120138F2DB02126D
:100DA3000138FDDB0212013820DC02120138C9DCF4
:100DB30002120138D9DC02120138F3DC02120138C5
:100DC30010DD021201382CDD0212013851DD02124E
:100DD30001385BDD021201386FDD021201388EDD4E
:100DE30002120138EFDD02120138F5DD021201387B
:100DF300FBDD0212013801DE021201380DDE0212A0
:100E0300013840DE02120138D8CF011201385AD01E
:100E13000112013803D1011201384BD201120138FA
:100E230059D4011201383FD50112013874D501128A
:100E3300013896D5011201383FD6011201380FD877
:100E43000112013838D801120138B0D80112013823
:100E5300E2D801120138EFD8011201383AD9011250
:100E630001385ED901120138AFDB01120138B9DC58
:100E73000112013815DD0112013855C10112013883
:100E830066C2011201384AC30112013854C3011268
:100E9300013876C30112013882C30112013826C515
:100EA3000112013853C50112013869C60112013814
:100EB300BEC6011201380DC801120138E2C8011281
:100EC30001383EC901120138A9C901120138DEC92E
:100ED3000112013821CA01120138EBCC0112013889
:100EE30003CD0112013894CD01120138A2CD0112B4
:100EF3000138EFCD01120138FDCD0112013869CE61
:100F030001120138E4CE011201383BCF011201383E
:100F1300828C02120138A48C02120138B58E02129F
:100F230001387491021201389E92021201385C93C7
:100F330002120138489402120138F5910312013864
:100F43001A9203120138909203120138EBBB02127A
:100F53000138F4BB02120138FDBB02120138D5BCC3
:100F63000212013886BE02120138B6BE02120138DF
:100F7300E1BE0212013811BF021201383CBF021256
:100F8300013870BF021201389CBF02120138DFBF63
:100F9300021201380AC00212013851C0021201388C
:100FA300A6C002120138E8C00212013842C102127F
:100FB30001386DC102120138BCC102120138ECC103
:100FC3000212013817C20212013845C20212013857
:100FD30068C20212013833A0031201385FA0031262
:100FE30001388CA00312013896A003120138A6A081
:100FF30003120138B5B302120138BFB3021201382C
:1010030000B40212013849B40212013883B4021247
:101013000138D9B402120138FAB402120138A9B75F
:1010230002120138B2B70212013806B802120138AF
:101033002FB80212013839B802120138A7B80212C8
:10104300013837B90212013892B902120138C0B916
:101053000212013848BA0212013887BA0212013863
:10106300BCBA02120138CEBA02120138EDBA02122A
:101073000138F6BA02120138BDBB021201383C9C9A
:10108300031201380490031201383A900312013815
:101093006E9003120138BB91031201389D9F031216
:1010A3000138B39F03120138BD9F0312013807A013
:1010B30003120138B0A00312013865E302120138AC
:1010C30078E30212013839E40212013878E402129B
:1010D300013895E402120138CEE4021201381BE50F
:1010E300021201384DE50212013884E5021201387B
:1010F3008DE702120138F9E70212013898980312BA
:101103000138BB9803120138EA9803120138829917
:10111300031201389A9903120138DC99031201383A
:101123004986031201386E8603120138988603122A
:1011330001380FA1031201386564001201380466F7
:1011430000120138AF66001201382F670012013810
:10115300B46700120138DD6700120138B86B001262
:1011630001382F6C00120138466D00120138806D72
:1011730000120138C16D00120138086F00120138E6
:101183005E6F00120138A76F00120138167000124B
:101193000138827000120138B37000120138CB702D
:1011A30000120138E47100120138F47100120138A1
:1011B300AA7300120138C17300120138F3730012CD
:1011C3000138957500120138297600120138EC9E1A
:1011D30003120138FD9E03120138AEFF02120138DB
:1011E300EDFF0212013834A203120138339D0312BA
:1011F3000138439D031201385B9D031201380F9E92
:10120300031201383A9B03120138BF9B03120138C2
:10121300239C031201386195031201388A95031246
:101223000138ED95031201380D96031201385E96CD
:1012330003120138B99603120138F39603120138E9
:10124300F6960312013863F40212013888F402128D
:101253000138A5F402120138C2F402120138E7F48E
:101263000212013808F50212013832F50212013870
:10127300EFF5021201386DF60212013894F60212EC
:1012830001389EF602120138C3F7021201385BECF3
:101293000212013872EC02120138ECEC021201382E
:1012A300D0ED02120138A7EF021201380CF002123E
:1012B300013863F002120138F87F00120138CA8D39
:1012C300031201385A8F03120138BB8F03120138FE
:1012D300019003120138F0A10312013800970312A1
:1012E3000138529703120138C59703120138329817
:1012F30003120138838B03120138AD8B03120138BB
:101303007C8C03120138588D031201387FAB021213
:1013130001384BAC021201388CAC02120138C6AC56
:101323000212013824AD0212013878AD02120138DD
:10133300D6AD021201386CAE0212013874AF02123C
:101343000138FEB0021201389CB10212013803B217
:101353000212013816B2021201380AB3021201381E
:1013630053B30212013862DD0112013894E0011215
:10137300013825E2011201387CE20112013899E2B9
:101383000112013819E30112013895E40112013801
:1013930064E501120138D1E801120138BBE90112F9
:1013A300013814CA02120138B2CB021201389BCCA5
:1013B30002120138A0CD02120138B3CE0212013855
:1013C300E6CE0212013867CF0212013886CF02122D
:1013D30001380080031201384180031201385E8016
:1013E30003120138D3800312013826810312013816
:1013F3001382031201381683031201389BA10312CF
:10140300013865A103120138C8A10312013816A2DD
:1014130003E066701008A3E066700A08A3E0667034
:101423000408A3E06622C3E7960809E7960809E7DC
:10143300960809E79622C3E09608A3E09608A3E07E
:101443009608A3E09622C008C3E096F50808A3E037
:1014530096420808A3E096420808A3E09645087060
:1014630001D3D00822080808EAC0E0EBC0E086F008
:10147300E7A4FA180986F0E7A42AFA180986F0E720
:10148300A42AFA180986F0E7A42AFA1986F0E7A431
:10149300FBE5F02AFA190886F0E7A42BFBE5F03AFE
:1014A300FA190886F0E7A42BFBE5F03AFA181809B5
:1014B30086F0E7A4C5F02BFBE43AFA1908E7C5F078
:1014C300C6A426F6E5F03BFBE43AFA1886F0E7A457
:1014D300F6E5F00826F6E43B08F6E43A08F6D0E031
:1014E300FBD0E0FA22E4CFC0E0E4CEC0E0E4CDC01C
:1014F300E0E4CCC0E075F020C3E633F608E633F64B
:1015030008E633F608E633F6181818EC33FCED3327
:10151300FDEE33FEEF33FFC3EC9709ED9709EE972A
:1015230009EF97191919400FFFEC97FC09ED97FD87
:1015330009EE97FE191906D5F0BEECF709EDF70988
:10154300EEF709EFF7191919D0E0FCD0E0FDD0E070
:10155300FED0E0FF226016080808C6C313C618C6EB
:1015630013C618C613C618C613C6D5E0EA227009F7
:10157300080808226016181818C6C333C608C633ED
:10158300C608C633C608C633C6D5E0EA22E627F640
:101593000809E637F60809E637F60809E637F622BA
:1015A300E026F608A3E036F608A3E036F608A3E043
:1015B30036F622E026F008A3E036F008A3E036F082
:1015C30008A3E036F022C3E697F60809E697F60883
:1015D30009E697F60809E697F622C3E096F008A312
:1015E300E096F008A3E096F008A3E096F022E05618
:1015F300F608A3E056F608A3E056F608A3E056F66D
:1016030022E056F008A3E056F008A3E056F008A342
:10161300E056F022E0F608A3E0F608A3E0F608A3FC
:10162300E0F622E6F008A3E6F008A3E6F008A3E656
:10163300F022E0FAA3E0FBA3E0FCA3E0FD22EAF042
:10164300A3EBF0A3ECF0A3EDF022CAC0E0E6F0A315
:1016530008DAFAD0E0FA22CAC0E0E0A3C582CCC51A
:1016630082C583CDC583F0A3C582CCC582C583CD96
:10167300C583DAE6D0E0CA22C3E498F8E499F91204
:1016830016BC8026C3E49AFAE49BFBE920E7E9123F
:1016930016BCE498F8E499F922C3E498F8E499F9BC
:1016A3001216BCE498F8E499F9C3E49AFAE49BFBB4
:1016B30022EB20E7CFE920E7E0B90010BB0008E800
:1016C3008AF084F8AAF022E4FBC8FA22EB70227BAA
:1016D30010C833C8C933C9335007C39AC3DBF28078
:1016E300069A50012ADBEAC833F4C8C933F4C9FAAD
:1016F3002275F008E4C833C8C933C933C99AC99BF2
:101703005004C92AC93BD5F0ECFBC833F4C8E4C97B
:10171300FA22600D08C6A2E713C618C613C6D5E0A1
:10172300F322600C08C6C313C618C613C6D5E0F46B
:1017330022700422600D18C6C333C608C633C6D54B
:10174300E0F41822251810AF08F518400215198087
:1017530008F51840021519D2AF22C0D0251810AFD2
:1017630008F518500205198008F51850020519D21A
:10177300AFD0D0222518F58210AF08F51840021516
:10178300198008F51840021519D2AF85198322254F
:1017930018F582E43519F58322E4732518C582C050
:1017A300E0E51934FFC583C0E0E518C3958224F84A
:1017B30010AF08858319858218800885831985826F
:1017C30018D2AFCEF0A3E520F0A37808E608F0A383
:1017D300DEFAEFF0A3E58124FAF8E608F0A3E608C1
:1017E300F0A3E608F0A30808E608F0A3E608F0A3D0
:1017F30015811581D0E0FED0E0F8158115811581A2
:10180300E8C0E0EEC0E0222518C582C0E0E5193447
:10181300FFC583C0E0E518C3958224F910AF08859E
:1018230083198582188008858319858218D2AFCEE3
:10183300F0A3E520F0A37808E608F0A3DEFAEFF0C2
:10184300A3E58124FBF8E608F0A3E608F0A3080863
:10185300E608F0A3E608F0A315811581D0E0FED0D9
:10186300E0F815811581E8C0E0EEC0E02285198318
:10187300851882E0A3FEE0A3F5207808E0A3F6082C
:10188300DFFAE0A3FFE0A3C0E0E0A3C0E0E0A3C071
:10189300E0E0A3C0E0E0A3C0E010AF0885821885B4
:1018A30083198008858218858319D2AFD083D082AB
:1018B300020135851983851882E0A3FEE0A3F52094
:1018C3007808E0A3F608DFFAE0A3FFE0A3C0E0E0B6
:1018D300A3C0E0E0A3C0E0E0A3C0E010AF088582AE
:1018E300188583198008858218858319D2AFD08320
:1018F300D08222C0D02518C582C0E0E51934FFC5C7
:1019030083C0E0E518C3958224F310AF08858319DB
:101913008582188008858319858218D2AFC8F0A301
:10192300E9F0A3EAF0A3EBF0A37908E709F0A3D861
:10193300FAECF0A3EDF0A3EEF0A3EFF0A3D0E0F008
:10194300A3D0E0F0A3D0E0F0A3E520F0A3E5F0F00E
:10195300A322851983851882E0C0E0A3E0F9A3E000
:10196300FAA3E0FBA37808E0F608A3DFFAE0FCA300
:10197300E0FDA3E0FEA3E0FFA3E0C0E0A3E0C0E03E
:10198300A3E0F5D0A3E0F520A3E0A3F5F010AF08A2
:101993008583198582188008858319858218D2AFBB
:1019A300D082D083D0E0F8D0E03274048006740291
:1019B30080027401C0E0F404121777D0E012164DD0
:1019C300227404800474028000CCC0E0EDC0E0E522
:1019D30018C39CCCAD1950011D10AF068C188D197E
:1019E30080068C188D19D2AF12165AD0E0FDD0E0C4
:1019F300FC22D083D082E9C0E0E493A3C386F0C580
:101A0300F095F0F908E493A386F0C5F095F0700B18
:101A1300E493A3C3994005E9048002A3E475F002AB
:101A2300A42582F582E5F03583F583D0E0F9E493CC
:101A3300A3C0E0E493C0E022D083D082ECC0E0ED09
:101A4300C0E0E493A3FCE493A3FDED4C600D121AF4
:101A530087EC24FFFCED34FFFD80EFE493A3FCE46B
:101A630093A3FDED4C600D121AC6EC24FFFCED347C
:101A7300FFFD80EFD0E0FDD0E0FCE493A3C0E0E401
:101A830093C0E022C0E0C3E49396087401939618D0
:101A9300400FE49366700808740193661870007031
:101AA30019A3A3C3E49396087401939618A3A340C0
:101AB3000DD0E0D0E0D0E0021A77A3A3A3A3A3A3A1
:101AC300D0E022C0E0C0F088F0E4936670080874A8
:101AD300019366187000A8F0A3A3700BD0F0D0E0B8
:0E1AE300D0E0D0E0021A77A3A3D0F0D0E0222A
:101AF40074F512180AEAFEEBFFEE2434F8EF340012
:101B0400F988088909EE2435121C2CF8EE243712C2
:101B14001C2CF50AEC850AF0A4FCAAF0850AF0ED69
:101B2400A42AFDE82CF8E43DF97A257B001216BCC2
:101B3400EA850882850983F05407F87401B8000225
:101B44008004C333D8FCC0E0E0131313541FF8EE31
:101B540028F8EF3400F9E8245DF582E93400F583D0
:101B6400D0E0F8E0586008850882850983801DEE7E
:101B74002436121C2CF5F0EA84A8F0EE28F8EF3491
:101B840000F9E82438F582E93400F583E0F97F04AC
:101B94000218B674F512180AEAFEEBFFEE243412AA
:101BA4001C2CC0E0EE2435F582EF3400F583D0E040
:101BB400F08E828F83A3A3A3A3A3E0FAA3E0FB8EFA
:101BC400828F83A3A3A3A3A3A3A3E0FCA3E0FDECC0
:101BD400C39AF50AED9BF50BEE2480F508EF34006B
:101BE400F509850882F583E06401702BEE2481F504
:101BF40082EF3400F5831219C8121C3574021217CF
:101C04005DE960137CFD7D04EEFAEFFB120B748535
:101C14000882850983E4F0AC0AAD0BEEFAEFFB12FF
:101C24001AF41223EE021B92F582EF3400F583E0DE
:101C340022C082C083851882851983E0F8A3E0F965
:101C4400C3EA9CEB9D5012C3EC98ED994019C3EA8A
:101C540098EB99501279018010C3EA98EB9940F5FA
:101C6400C3EC98ED9950EE7900D083D08222EAC378
:101C74009CFAEB9DFB2200008521878522C622C0A9
:101C8400E074EF1218F6759B00906182E0A2E640C2
:101C940003021D44E591A2E64003021D447591BF71
:101CA4009003C2E064057008120D12120D1E800329
:101CB400120D18752100120D8AE99003C3F0790002
:101CC400120D7E120ADE7A017B009003C1E0F91244
:101CD4001054907803E064426003021D8D90055F08
:101CE400E014F06003021D8DC2AF121CF100782ACB
:101CF400D0E0F618D0E0F6E59F5407F9700590920D
:101D0400EA800390928A7808121617E9C4C0E07832
:101D140029E65508F50808E65509F509740B78080D
:101D2400121725D0E02508F8906270E0A2E740F889
:101D3400E8C333906272F0906270E0D2E0F08049C0
:101D4400E0A2E55024E591A2E5501E7591DF9003D1
:101D5400C2E0640D70139003E4E004F064287002A0
:101D6400E4F07A00E0F9120DFC906181E0A2E35006
:101D740009E5E9A2E3500375E9F7A3E0A2E75009F6
:101D8400E591A2E7500375917F7F04021955C0E0E5
:101D9400C0D0C082C083906183E0A2E05009E5BF57
:101DA400A2E0500375BFFEE0A2E15009E5BFA2E145
:101DB400500375BFFDE0A2E25009E5BFA2E2500363
:101DC40075BFFBE0A2E35009E5BFA2E3500375BF72
:101DD400F7E0A2E45009E5BFA2E4500375BFEFE0C9
:101DE400A2E55009E5BFA2E5500375BFDFE0A2E616
:101DF4005009E5BFA2E6500375BFBFD083D082D09F
:101E0400D0D0E032C0E074F21218F6E5A7A2E45094
:101E14000FE5A1A2E4500953A7EF75A1EF121E5CD0
:101E2400E5A7A2E5500CE5A1A2E5500653A7DF758E
:101E3400A1DFE5A7A2E15009E5A1A2E1500375A144
:101E4400FDE5A7A2E2500CE5A1A2E2500653A7FBD0
:101E540075A1FB7F0102195574F812180A75210146
:101E64009003C2E0640670077A007B00120CFAA2A9
:101E7400AFE433FED2AF9003C8E0640170187A2057
:101E84007B009003C1E0F91210DE7A207B009003FE
:101E9400C1E0F912105A906182E0D2E6F090055E3A
:101EA400E0602185C62280169003C7E064017008B3
:101EB400E5C654F84405F5C653BEFC121C7C7401F7
:101EC400652160E4EEA2E092AF7F010218B6000043
:101ED4008E238F24858228858327851882851983FC
:101EE400E0CEA3E0CF852882852783EBC9EAC8ED3D
:101EF400CBECCA75F010C3E833C8E933C9EA33CA76
:101F0400EB33CBC3EA9EF526EB9FF525B35004AB28
:101F140025AA26EC33CCED33CDD5F0DAAE23AF24AD
:101F24002274E912180A74FA121747EAFEEBFF8CBE
:101F3400088D099003C2E024F7C3940550069092DB
:101F44008202204C120C768A0A8B0BEA450B700332
:101F5400022049120D308A0C8B0D120D30EA650CEB
:101F64007003EB650D60ECEEFCEFFD8518828519BE
:101F740083AA82AB83120D36850A82850B83A3A3C1
:101F8400780C12161790929E780C1215F18518820F
:101F9400851983781412161790929E78141215F1ED
:101FA400780C7914121429501F780C79141215C95D
:101FB4009092B2780C1214494047850C10850D118B
:101FC400850E12850F138041851410851511851611
:101FD400128517137810790C1215C99092B27810E3
:101FE400121449501C7510007511007512007513F8
:101FF40001781079141215C97810790C1215908093
:1020040008909282781012161774097810121571BC
:102014009092FE780C1216177810790C1214E8902E
:1020240003C2E06408600AE064066005E0640570C9
:102034001C90929A781012144950129092AE781013
:102044001215A380089092767810121617850882CC
:102054008509837810121626740612175D7F100204
:1020640018B674F712180A120D4890055CE0640162
:102074007010906245E4F0A3F053F4F343FE0C5364
:1020840090F3120CE8E5C654804449F5C6E59E5425
:102094007F644970F8906185740FF090055AE0F4FC
:1020A4007002A3E0602C75080175090090055AE0E0
:1020B4007808121734E508F4FAA3E0600814600AFB
:1020C40014600C800DEA52808008EA52908003EA82
:1020D40052A079007F020218B674F712180AE9FEBA
:1020E400EAFF74016E700C7A807B009003C1E0F902
:1020F400121054902460E493F46008E493F9120AF3
:10210400C0800953C680E59E547F70FA120CEE908D
:10211400055CE064017003120AF690055AE0F4705D
:1021240002A3E0602A75080175090090055AE07859
:1021340008121734AA08A3E0600814600A14600C9B
:10214400800DEA42808008EA42908003EA42A012AD
:102154000C768A088B09A808A909E8496017E5E103
:1021640070FCE82414F582E93400F583E0F874FF88
:1021740068600288E174016F700A7A019003C1E01B
:10218400F91210A80220D874F112180A8A088B09CF
:102194008C0A8D0B740F121792780C1216179092EA
:1021A4009E78081215F190929E780C1215F1780819
:1021B400790C12142950157808790C1215C99092CB
:1021C400B27808121449401579018013780C790803
:1021D4001215C99092B2780C12144940EB79007F21
:1021E400080218B674ED12180A8A088B098C0A8D35
:1021F4000B7413121792780C12161790929E78088B
:102204001215F190929E780C1215F1780C7908123F
:10221400142940117808790C1215C9AA08AB09AC25
:102224000AAD0B802275100075110075120075132C
:10223400017810790C1215C978107908121590AA32
:1022440010AB11AC12AD137F0C0218B690929E78AD
:10225400081216178A828B8378081216047F0402E8
:1022640018B674F512180A8C828D83780812161722
:102274008A828B8378081215DD1222BAC3E098F0A3
:10228400A3E0991222AC401E9092D278081216173D
:102294008A828B8378081215B68E828F83E024207D
:1022A400F0A3E0344EF080A4F08E828F83C3E094D8
:1022B40020A3E0944E22EA2404F8EB3400F9E8FE6B
:1022C400E9FF8C828D83A3A3A3A3E0F8A3E0F98E96
:1022D400828F832274F512180AE9FE900514E0FA3D
:1022E400A3E0FBEEC333F8E433F9742128F58274D8
:1022F4009139F583E02AF508A3E03BF50978081243
:1023040019B19092CE121635121ED4740212175DB2
:102314008A088B098C0A8D0B74107808121558AA38
:1023240008AB097F040218B674F112180A8A0C8BE0
:102334000D8C0E8D0F740F121792E0FAA3E0FB744C
:1023440011121792E0F508A3E0F50974131217921D
:10235400E0FEA3E0FF78081219B1EA2401F508EBC6
:102364003400F509E4F50AF50B780C7908121468C1
:102374009092AA7808121617780C7908121468AA91
:102384000CAB0DAC0EAD0F121ED4740212175D8B84
:1023940009EA450960047A0180027A00EC2AFCED1E
:1023A4003400FDECF8EDF97A717B021216BC880852
:1023B4008909E4F50AF50B8E828F837808121626B4
:1023C400ECF8EDF97A717B021216BC8A088B097459
:1023D4000578081217348E828F83A3A3A3A3E5087C
:1023E400F0A3E509F07F080218B6C082C083E99023
:1023F4006000F0D083D08222C0E074F21218F6A2FA
:10240400AFE433FED2AFE589A2E150031212347572
:102414008900C2C5751A00EEA2E092AF7F010219CD
:1024240055C0E074F21218F6A2AFE433FED2AFE561
:102434008BA2E05003121234758B00C2E880D5C021
:10244400E0C0D0E8C0E0E5A8D2AFC2C7751A00A2C8
:0B245400E792AFD0E0F8D0D0D0E0322B
:10246000FFFFFFFFFFFFFFFFC082C083E9900A2E3E
:10247000F00226EC74F712179EE99002E0F07C1847
:102480007D037AFF7BFF1207EA9002E174FFF0A35D
:10249000F0A3E4F0A3F079051207729002E0E0F9EE
:1024A00012069A7A087B081209D00233FA74F412E1
:1024B000179E8A088B09EB548060309002E0E0F9A7
:1024C00012103C8A0A8B0BAE0AAF0BEE4F60138ED4
:1024D000828F83E064B0700312078AEEFAEFFB127A
:1024E000102AAA08E5096480FB80047A007B0002B8
:1024F00026BB74F212179E74FC121747EAFEEBFF1C
:1025000074121217921238E1EE4F7003022595747F
:1025100002121792EEF0A3EF1228F6ECF0A3ED12E0
:1025200028F6AA82AB83120694E9F50A706AE508D8
:10253000450960648E828F831238C7EE4F60567AE9
:10254000067B001210908A0C8B0DA80CA90DE8498F
:102550007005750A13804188828983E41225A2EEF2
:10256000F0A3EF1238F2E508F0A3E509F09002E6D7
:102570001226299002E670051233A4801B123392B2
:102580008003EAFCEBFD8C828D8312262970F38C8C
:10259000828D8380E3750A02A90A740412175D0212
:1025A0003AE1F0A3123898A32274F212179E890A16
:1025B000E975F017A4FEAFF09002E5E4F09002E3B5
:1025C000122629600A1210969002E3E4F0A3F0EEBE
:1025D000FAEFFB1210908A088B09EA4509602FEE8A
:1025E000FCEFFD79001210129002E3E508F0A3E57C
:1025F00009F07B008008122613E4F0A3F00BEBC374
:10260000950A40F2E50A9002E5F07900800279131C
:10261000023AE1EB75F017A4F8A9F09002E3E02884
:10262000FAA3E0398A82F58322123036EA4B22740B
:10263000F412179E740C1217921238BCFEE9FF7543
:102640000800750900800CE5082401F508E5093447
:1026500000F509C3E5089CE5099D503285080A8507
:10266000090B7403780A121734EA250AF8EB350BC4
:10267000F988828983A3A3A3A3A3A3123479EE6567
:102680000A7003EF650B70BFE8FAE9FB80047A007B
:102690007B00802774F412179E7900EAA2E0501B99
:1026A00075086075099278081219B17C047D007A6A
:1026B000307B0A12076C740212175D7F04021870D7
:1026C000C082C0839002E61226F3601C8882898350
:1026D000A3A3E06A7003A3E06B8882898370E8A3F8
:1026E000A3A3A312303280047A007B00D083D0826F
:1026F000020135123BC7E8492274EE12179E74FCA2
:10270000121747EAFEEBFF851882851983E4F0A3D0
:10271000F0EE2402123384EE240512389FEE2404D6
:10272000F50EEF122CABE024FE603924FC60462449
:10273000FE605224FE605E24FE700302280C24FE1C
:10274000700302287024FE700302287F24FE7003A9
:1027500002288E24FC700302289D24FE70030228A8
:10276000AC0228E99002FF7417F0A3E41228FE12CD
:1027700004120228E9851882851983AC82AD831280
:1027800007900228B9851882851983AC82AD83121F
:1027900007960228B9850C08850D09740212179254
:1027A000AC82AD838508828509831230321206B867
:1027B0008A0C8B0DAC0CAD0DEC4D603BE4F50CF5CB
:1027C0000D780C1219B1750CFF750D02780C1219E9
:1027D000B1750C00750D03780C1219B1740812173D
:1027E000921219C8123D4312175DE9F50C700B12D5
:1027F000302812042A800F750C0185088285098310
:102800001228EC1233A4850C080228BC740212179B
:1028100092AC82AD83850C82850D83122DFD603CC8
:10282000850C82850D83A3A31219C87510FF75113D
:102830000278101219B17510007511037810121971
:10284000B174081217921219C8123D4312175DE9AC
:10285000F509700B123028120430800F75090185BC
:102860000C82850D831228EC1233A4850908804C54
:10287000851882851983AC82AD8312079C803A85C6
:102880001882851983AC82AD831207A2802B85182C
:1028900082851983AC82AD831207A8801C851882BB
:1028A000851983AC82AD831207AE800D85188285B1
:1028B0001983AC82AD831207B4E9F508E5086029F5
:1028C0008E828F83A3E06414601F850E82850F8340
:1028D000E09002FF1228F6123BC39003001233A4CB
:1028E000E508A31228FE12040C023293123BC7859E
:1028F000188285198322F085188285198322F07C3D
:10290000FF7D02850A82850B831230362274EE1217
:10291000179E74FC1217478A0A8B0B8C0E8D0FEAD8
:102920002405F508EB3400F5097C157D0079007A63
:10293000FF7B02121012E5082402F50CE50912389B
:10294000A2851882851983858210858311781012DB
:1029500019B1850882850983A3A3A3A3122DF412BC
:1029600019B1E5082405F510E5093400F5117810D2
:102970001219B1850C82850D831231491206B27489
:102980000612175D8A108B11AE10AF11E50A2402F2
:10299000F50AE50B123387EE4F7003022ACB80173E
:1029A000740212179212303288828983EAF0A3EB04
:1029B000F09002FFE004F09002FFE0C394054003B2
:1029C000022ACBE4F510F51178101219B17510E850
:1029D00075110278101219B17510E975110278108D
:1029E0001219B174061217921219C87910EEFCEF81
:1029F000FD123D4512175DE9705E850882850983E9
:102A0000A3A3A3A3A3A3A3E0F89002E8E0687048FF
:102A1000122DF41219B17CE97D02E5082408FAE5CB
:102A2000093400FB12100C740212175DE960298E44
:102A3000828F83A3A3A3A31230329002FFE0F5108C
:102A40007402781012173474002510F5827403355F
:102A500011F583EAF0A3EBF074021217928582104D
:102A600085831178101219B174021217921219C8C5
:102A7000850C82850D8312305812175D8A108B11D8
:102A8000AE10AF119002FFE0F510751100740278DE
:102A90001012173474FF2510F874023511F988826A
:102AA0008983A31226297003022997E824030808C2
:102AB00008E93400F9EE4F60030229A08882898377
:102AC00074FFF0A3F09002FFE004F09002FFE060DA
:102AD0000A12302812041E7900800B8508828509AD
:102AE0008312339B790A02329374EA12179E74FEA2
:102AF0001217478C128D13EA2405F50CEB123D2DAD
:102B00001238CB750800750900EA2402F510EB3481
:102B100000F51185188285198385820A85830B78D3
:102B20000A1219B1850C82850D83A3A3A3A3122CCD
:102B3000C11219B1E50C2405F50AE50D12338778A9
:102B40000A1219B1850C82850D83122CC51206B2AA
:102B5000740612175D8A0A8B0BEA450B7003022C70
:102B600066EA2404F50EEB122CAB1238CB8A828B6A
:102B700083A3A3A3E0F985108285118312303C6002
:102B800003022C66E4F514F51578141219B17514C6
:102B9000E875150278141219B17514E975150278E3
:102BA000141219B174061217921219C87913AC0ACB
:102BB000AD0B851082851183123D4B12175DE9F52F
:102BC000096003022C669002E8E0F8E5087009E06D
:102BD0002402900300F08014900300E0FCE824023B
:102BE000FAE43400FBEA6C7001EB707E850882AA7F
:102BF00082122DEB9414122DE3506B850E82850FFB
:102C000083E0C0E074012A122CA2D0E0F005088510
:102C10000E82850F83A3E0C0E085080A7401250AAF
:102C2000122CA2D0E0F005089002E8122CC1121973
:102C3000B17CE97D0285080A7401250A122CB512BF
:102C4000175D9002E8E02508F50874FF6E700374C4
:102C5000FF6F6012EE24010EEF3400FFE508C3940D
:102C6000145003022B13E5086013123046851082BE
:102C700085118312303212042479008014E5097022
:102C80000375090A851282851383EEF0A3EFF0A97C
:102C900009740212175D7F0E02187085080C74010A
:102CA000250CF58274033400F583223400F50F857A
:102CB0000E82F58322FA74033400FB120FFA7402B9
:102CC0002212390122A3A3122CCB22123392FDEE41
:102CD000FAEFFB2274EE12179E74FE1217478C0E49
:102CE0008D0FEA2405F50CEB1238A2750B0090024B
:102CF000FFE4F0F50AEA2402F508EB3400F5098058
:102D0000449002FFE0FA9002E8E0F8122DEB9417ED
:102D1000122DE3400D9002FFE0F87416C398900264
:102D2000E8F0122DF41219B17CE97D0274002AFA40
:102D30007403122CB812175D9002E8E0F89002FFBD
:102D4000E028F0050AE50C2416F582E50D122CA604
:102D5000E0F8E50AC39850749002FFE0C39416505F
:102D60006BE50AC333F8E433F9E50C28FEE50D39C9
:102D7000FF851882851983AC82AD838E828F831282
:102D80002DFD7008750B011233978050E4F510F596
:102D90001178101219B17510E87511027810121916
:102DA000B17510E975110278101219B17406121775
:102DB000921219C87916850882850983123D4B1233
:102DC000175DE9F50B7003022D0180BB7CFF7D02CE
:102DD000850882850983123032120436A90B7402E9
:102DE000023295E99400C365D03322EA28F8E4342E
:102DF00000F9E822E0F51075110078102212328AED
:102E00008A108B11AC10AD11EC4D2274EA12179E92
:102E100074FC1217478A0C8B0D8C128D13EA240553
:102E2000F50AEB123387750800750900E50A2402DC
:102E3000F510E50B3400F511740212179285820E1D
:102E400085830F780E1219B1850A82850B83A3A39F
:102E5000A3A31238A71219B1E50A2405F50EE50B54
:102E60003400F50F780E1219B18510828511831286
:102E7000338D12302C1206B2740612175D8A0E8B37
:102E80000FAE0EAF0FE50C2402F50EE50D3400F584
:102E90000F80388882898374FFF00508122C9B7498
:102EA000FFF005089002E8E0F50C750D00780C12B3
:102EB00019B17CE97D0285080C7401250C122CB532
:102EC00012175D9002E8E02508F508EE4F60278EA6
:102ED000828F83A3A3A3E0F9850E82850F8312302E
:102EE0003CEE240412389FE96027850C82850D830F
:102EF00012301E1233A4E50870030230041230466B
:102F0000850E82850F8312303212043C7900023024
:102F100019E4F514F51578141219B17514E875153E
:102F20000278141219B17514E97515027814121982
:102F3000B174081217921219C87911EEFCEFFD85D1
:102F40000E82850F83123D4B12175DE9F509709AC9
:102F5000850882AA82EA9002E87009E024049003BE
:102F600000F08025E0F8900300E0F514E82404FC6C
:102F7000E43400FDEC65147001ED7081122DEB94CA
:102F800012122DE34003022EFD850C82850D83E095
:102F9000C0E074012A122CA2D0E0F00508850C8252
:102FA000850D83A3E0C0E0122C9BD0E01230618538
:102FB000820C85830D780C1219B1740412179212C9
:102FC00019C885108285118312305812175D8A0C3A
:102FD0008B0DAE0CAF0D85080C7401250CF8740335
:102FE0003400F9EE4F7003022E9385188285198301
:102FF000E088828983123061A3E0C0E0122C9BD06C
:10300000E0022EA1E509700375090A850A82850B85
:103010008312301E1233A4A9097404022C93123BAC
:10302000C7851282851383227CFF7D02850A8285F3
:103030000B8312303622E0FAA3E0FB221230361264
:1030400006A0E9F50922900300E0F5F0E508849078
:1030500002FFF07CFF7D0222122CCB1206BE74040C
:1030600022F005088518828519832274EC12179EB8
:1030700074FE1217478A088B098C0E8D0FEA2405FF
:10308000FEEB3400FF123274EE241812389FEA452A
:103090000B700302311712325D502912313C8A1035
:1030A0008B11EA4511606B7912AC0AAD0B85088271
:1030B00085098312303285108285118312179CE9AD
:1030C000F50A7058E4F50AF50B780A1219B18E82E8
:1030D0008F83A3A3E0F50A780A1219B1EE24031234
:1030E0003384780A1219B18E828F83123149120704
:1030F000D8740612175DE9F50A7021850C82850DDA
:1031000083E0701F850882850983123032120442E1
:103110008011750A0E8009750A018004E50A6003B2
:10312000123397850C82850D83E06004790080025C
:10313000A90A740212175D7F0C0218708518828527
:1031400019831230361207C622123392FD85088287
:103150008509831230362274EE12179E74FE121700
:10316000478A088B098C0C8D0DEA2405FEEB340090
:10317000FF750E00123274EA450B700302323B12E7
:10318000325D502C12313C8A0E8B0FEA450F604A9B
:103190007912AC0AAD0B850882850983123032851D
:1031A0000E82850F8312179CE9F50E600302323EF2
:1031B000850882850983123479AA0AFB12324F707E
:1031C000147AFF7BFF12324F606C88828983E50A94
:1031D000F0A3E50BF0750A008007750E0E805F0501
:1031E0000A9002E5E0FAE50AC39A504AE50A75F04A
:1031F00017A4FAABF088828983A3A3E02AFAA3E09C
:103200003BFB8A828B8312338DEC4D70D2750A178B
:10321000750B00780A1219B1EEFCEFFD120FFA746B
:103220000212175DEEFCEFFD8508828509831230DE
:10323000321204488014750E098003750E01123B8A
:10324000BF850C82850D831233A4A90E022DDE12D8
:1032500007BA8A108B11A810A911E84922E50824A1
:1032600002F508E5093400F5098A828B83A3A3A33C
:10327000E0A2E522851882851983AC82AD838E8217
:103280008F8312328A8A0A8B0B22E0FAA3E0FB12A8
:1032900006B822740412175D7F0A02187074EC12CB
:1032A000179E8C108D11EA2405F50CEB1238A275CF
:1032B0000F00EA2402F50AEB123387850A82F583B0
:1032C000123032123DD17003023379750E008071D5
:1032D000850C82850D83E06401704F8E828F83A3FD
:1032E000A31219C88E828F83A3A3A3A3E0F512753E
:1032F000130078121219B1EE2405F512EF3400F51F
:103300001378121219B112302C1207D87406121742
:103310005DE9F50F6014850C82850D83E4F0123BA6
:10332000BF8510828511831233A47C177D0079003C
:10333000EEFAEFFB1210128E828F83E4F0A3F005F9
:103340000E9002E5E0F8E50EC398501EE50E75F00C
:1033500017A4F8A9F0850882850983A3A3123D3735
:1033600012338DEC4D60030232D0850882850983CB
:1033700074FFF0A3F0E50F700612302C12044EA972
:103380000F023137F50AEF3400F50B22A312339206
:10339000FD22E0FCA3E0228E828F83123BC7850EC4
:1033A00082850F83E8F0A3E9F022C082C0839002F7
:1033B000E1E06A7003A3E06B70067AE17B028004AF
:1033C0007A007B000226EC74F712179E7F00EF75DF
:1033D000F003A4F8A9F0EC28F8ED39F98882898384
:1033E000E06A7003A3E06B7006E8FAE9FB800B0F5C
:1033F000EFC3940240D87A007B007F0102187074FA
:10340000F612179E1239B070067A007B008007A36F
:10341000A3A3A3123032023A7174F212179EE9FE8E
:10342000740E12179212347974101217921238E136
:103430008C828D83E06402703BA3123BC388828937
:1034400083E0F50CA3E0F9A80C74026870037429FA
:10345000697021750C02750D00780C1219B178088D
:103460001219B1780A1219B1EEF91207FC7406129A
:10347000175D80027901023AE1E0F50AA3E0F50B5D
:103480002274E812179E74FB121747E9851882858B
:103490001983F08A168B178C0E8D0F741F121792DA
:1034A0001238E17421121792123479742312179290
:1034B0001238CB7510008C828D83A3A3A3E0A2E405
:1034C000502A741D1217921231428A828B83E58230
:1034D0004583700302358D790AAC0EAD0FAA16AB89
:1034E0001712179CE9F5106003023590850E82854E
:1034F0000F83E064026003023846A3123BC38508D1
:1035000082850983A3858212858313E50E2406F53F
:103510000CE50F1238A288828983E0FAA3E0F9EA69
:103520002400F514E439F5157814121A3B01000053
:103530002801285535070002282C3603289C350021
:1035400029563701297E37022925370329563704A2
:1035500029E7374638EE4F703E850C82850D831281
:1035600038BCFAE9FB8A828B83E0850A82850B836B
:103570001238F81219B18A828B83A3123392FDAAF2
:1035800008AB09120FFA740212175D800375100E52
:10359000A9107405023D2575100B80F4EE4F70F7ED
:1035A000850A82850B837401F01238D185088285E3
:1035B0000983F07C007D00850E82850F83A3A3A381
:1035C000A3E02401FAA3E03400FB1206B8EA4B6042
:1035D000418A828B83E02402F8850A82850B83E08E
:1035E00028F0EA2404F8EB3400F988828983E08526
:1035F000128285138312390A1238F81219B18A829D
:103600008B8312338CE5082403FAE5093400FB02AE
:103610003583850A82850B83E02404F07C047D00D9
:103620007900AA12AB13121012023590EE4F60030C
:103630000235971238D1FEA3E0FF850A82850B83FD
:103640007404F0EE850882850983F0EF8512828587
:103650001383F07403121792AC82AD83EEFAEFFB82
:1036600012399E70030237028A828B83A3A3123819
:10367000C7740112179285820E85830F780E121976
:10368000B174051217921219C87CFF7DFF1206BE95
:10369000740412175D8B0FEA450F7033850C828519
:1036A0000D831238A71219B1850C82850D83A312E0
:1036B00019C87C027D007A2E7B931204EA740412EE
:1036C000175DE9700A740112179274FFF0A3F08E6F
:1036D000828F83E064027034750C02750D00780CE3
:1036E0001219B18E828F8312338CE5082404FAE517
:1036F00009122CB812175D850A82850B83E024021B
:1037000080097401121792EEF0A3EFF07401121702
:10371000921238B8F07401121792A31238B0A3A312
:10372000A3F0023590EE4F6003023597850C828539
:103730000D8312338DAA16AB171207F0850A828506
:103740000B837402F0EA850882850983F085128272
:10375000851383EB80CBEE4F60030235971238D18F
:10376000F8A3E0F9850A82850B837402F0E88508E6
:1037700082850983F0E985128285138380A3850CF5
:1037800082850D83123032120FF4EAFC8C82A882FB
:10379000C39EE49F404BE86E7001EF70047C008094
:1037A0001F851882851983E0FAEE2AFAEF3400FBB0
:1037B000C3EA98EB94005003E08004EECCC39CFC79
:1037C000EC850A82850B83F08C0A750B00780A124F
:1037D00019B1850C82850D83E02EFCA3E03F0235F4
:1037E0007E751007023590EE4F6003023597850C09
:1037F00082850D83123BC3850A82850B837407F093
:10380000888289831238B0123898E0851282851335
:1038100083F0E82402FAE93400FB8A828B831238B1
:10382000B01238E91238B8A31238F21238C1F0E8F1
:103830002405F8E93400F9888289831238C1A3127B
:10384000390AA302371E741D1217921239A9700388
:1038500002358D123BC3880C890DE8450D700302BB
:10386000358D8E108F1178101219B1780A1219B196
:1038700078081219B17406121792E0F9AC0EAD0F68
:10388000AA16AB17850C82850D8312179C7406123D
:10389000175DE9F510023590F088828983A322F53F
:1038A0000CEF3400F50D22E0F50E750F00780E22B6
:1038B000E08508828509832212391122123BC7E86C
:1038C00022123911A3A322A3A3A3A3E0FEA3E0FF26
:1038D00022850C82850D83E0F8A3E0F5838882E0E1
:1038E00022E0F508A3E0F50922A3A3F08A828B83E6
:1038F000A3221225A4A3A322F08A828B831239016A
:1039000022E0F50A750B00780A2212389812391154
:1039100022E0850882850983A3A32274EE12179EF4
:1039200074FE1217478A0A8B0BECFAEDFB74141223
:103930001792E0F510A3E0F5117416121792E0FE4D
:103940007418121792E0F50EA3E0F50F8518828522
:103950001983AC82AD8312399E603E851882851929
:10396000831239A9602FA3A31238E1E50845096045
:1039700024780E1219B178101219B1EEF9AC0CAD11
:103980000DAA0AAB0B85088285098312179C740463
:1039900012175D8006790E80027901022DDE120673
:1039A000B88A0C8B0DEA450D221230361239B0223E
:1039B0001207848A828B83E58245832274F612176C
:1039C0009E74FE121747740C1217921238BC851899
:1039D00082851983F07401121792E9F0E4F508F575
:1039E0000978081219B175080278081219B174041F
:1039F00012179285820885830978081219B1120777
:103A0000D8740612175D740212175D806474F71281
:103A1000179EEAFEEBFF89087C187D031207F0EA87
:103A20005402600BA908EEFAEFFB1206AC80027993
:103A3000010233FA74F612179E74FF6A700374FF62
:103A40006B701C7B00EB75F003A4F8A9F0EC28F870
:103A5000ED39F9123A760BEBC39402501480E6125A
:103A600007C08A088B09A808A909E8496003123A27
:103A7000767F020218708882898374FF1225A2E47F
:103A8000F02274F612179E1207C08A828B83E58299
:103A900045836006A3A3E0FA80027A007B0080D110
:103AA00074F212179E8A088B09ECFEEDFF740E1259
:103AB0001792E0F50A123AE6701CEEFCEFFD7AFF71
:103AC0007BFF123AE670047911801688828983E5BB
:103AD00008F0A3E509F088828983A3A3E50AF079B9
:103AE000007F060218701207C08A0C8B0DA80CA963
:103AF0000DE8492274EE12179EEAFEEBFF8C088D4A
:103B000009890C7412121792123BC3741412179283
:103B100012338D7416121792123032750D00EC4D5F
:103B20006003023BB77402650C6003023BB28882FB
:103B30008983123392F9EC2400F50EE439F50FEA8B
:103B4000F4F8EBF4F9EC58F8E50F59F9E849705D31
:103B5000E5082406F8E5093400F9880A890B88820B
:103B6000F583122CC71207F08A108B11E50E651031
:103B70007004E50F65116042780E1219B1850A8252
:103B8000850B83122CC71207F6740212175DE9F534
:103B90000D7027780E1219B1850882850983A3A3B9
:103BA000122CC512080E740212175D800D750D805F
:103BB0008008750D0D8003750D0BA90D0232988ECE
:103BC000828F83123BC722E0F8A3E0F92274E81247
:103BD000179E74E7121747851882851983EAF0A3A8
:103BE000EBF08C168D17890E7431121792E0F512D6
:103BF000A3E0F5137433121792E0F514A3E0F51562
:103C00007435121792E0F50F750800750900E50983
:103C100075F003A4F8A9F0851882851983123D3741
:103C2000E0F47003A3E0F47003023D15EE2402F506
:103C30000CEF123D2DE07003023D1585160A851725
:103C40000B780A1219B1AC14AD15AA12AB131207F6
:103C500078740212175D8A0A8B0BEA450B70030217
:103C60003D15E4F510F51178101219B1740612170C
:103C70009285821085831178101219B17409121778
:103C80009285821085831178101219B18512828570
:103C90001383A3A3A3A31219C87914AC0AAD0B8E86
:103CA000828F83123D4B12175DE97069850A828508
:103CB0000B83A3A3A3A3123BC37402121792123364
:103CC000A4850C82850D83E0A2E05018A90E740231
:103CD000121792AC82AD838E828F8312303212061D
:103CE000D0E94208850C82850D83E0A2E15026E5EB
:103CF0000FF50A780A1219B5A90E7403121792ACBF
:103D000082AD838E828F831230321206CA74011202
:103D1000175DE942080509E509C394025003023C16
:103D20000EA908741912175D7F100218703400F57F
:103D30000D850C82F58322E028FEA3E039FF8E82F8
:103D40008F83227916850A82850B831230361207FB
:103D5000D274082274F212179EEAFEEBFF890B74EC
:103D600001650B600E7402650B706379011209EE38
:103D7000E9705BEEFAEFFB123DD16047750A0080F7
:103D80000B7C177D007900121012050A9002E5E005
:103D9000F8E50AC3985021E50A75F017A4F8A9F0D0
:103DA000850882850983A3A3E028FAA3E039FB8A6A
:103DB000828B831226F370C985088285098374FF7C
:103DC000F0A3F07C187D03EEFAEFFB1207EA023A4B
:103DD000E11207BA8A088B09EA45092274F2121720
:103DE0009E8A088B09ECFEEDFF740E1217921234B6
:103DF00079900A2EE0F4603D7A097B00121024EAE3
:103E00004B60328A828B8374B1F0A3E41238EBA347
:103E10001238E9A3E508F0A3E509123E38EEF0A355
:103E2000EF123E38A3A3E50AF0A3E50BF0900A2EAB
:103E3000E0F9121030023AE1F08A828B83A3A3A347
:103E4000A3A322C082C0839061907404F0A374483D
:103E5000F0A3E4F09061807440F09061BC7407F0CE
:103E60009061877469F09061B67416F07900120A57
:103E7000E47902120AEA902460E493F46006E49381
:103E8000F9120AC07905120DDE024285C082C08394
:103E9000E9540FF9906185E0696012E5C6548044E9
:103EA00049F5C6E59E547F644970F8E9F053C68031
:103EB000E59E547F70FA02428574F712179EE5A8BA
:103EC000FE53A87E120ACCC2BA539AFEC289759BD1
:103ED00000C2C2120AD275A91175B905120AD8D248
:103EE000BA439A0174805E42A8024812C082C0831D
:103EF000906181E4F0A302428275E900759100753A
:103F0000BF00020135C082C083906181E4F0A374D8
:103F1000C0F0A3E4024284C082C08374F812174741
:103F20009003C41246F4E8497003023FCE9003C4E4
:103F3000E0544060237908851882851983AA82ABF2
:103F400083120BDA851882851983AA82AB83120843
:103F5000809003C4E054BFF0E054806010790C7A84
:103F6000807B05120BDA9003C4E0547FF0E0A2E0FE
:103F700050087900123FD654FEF0E05402600879F0
:103F800001123FD654FDF0E0540460087900123F5E
:103F9000E154FBF0E0540860087901123FE154F766
:103FA000F0E0541060087902123FE154EFF0E05461
:103FB0002060087903123FE154DFF0A3E054016070
:103FC0000D120AF61208929003C5E054FEF0740830
:103FD00012175D024285120AE41208869003C4E0BB
:103FE00022120AEA12088C9003C4E022C082C08325
:103FF000E9600514602A804F90619A7433F0A374CD
:1040000055F09061A0743AF090055CE0640170098D
:10401000C2919003C67467802D9003C67461802698
:1040200090619A743FF0A3745AF09061A0747FF08D
:1040300090055CE064017009D2919003C6747180B0
:10404000059003C6746AF0024285C082C083E960AD
:104050000B14600D14600F14601180209024648094
:10406000159024658010902466800B90055CE064B8
:104070000160F3902467E493906186F002428574B6
:10408000EE12179E74F4121747851882851983ACB7
:1040900082AD837583927582DA740412165A902465
:1040A0006493F46003024211907808E0C3940250D4
:1040B000030241F17404121792AC82AD83758392AE
:1040C000758232740812165AF97AFF7BFF7FFF7EE1
:1040D000008982858210801874086E70030241A6E0
:1040E00074096E70030241A6740A6E70030241A641
:1040F000E510C333FCE433FD7404121792E5822CFF
:10410000F582E5833DF583E0F50EA3E0F50F8E081B
:104110007509007402780812173474482508FC7475
:10412000783509FD8C828D8378081216177408780B
:104130000812155885080C85090D8C828D83780826
:1041400012161774187808121558E50C4508F5086A
:10415000E50DF509C3E50E9508E50F95098C828DEF
:104160008378081216178C828D83780812161774BC
:104170001878084014121558E50C4508FCAD0DE5FB
:104180000EC39CFCE50F9D800F121558E50C4508E9
:10419000C3950EFCE50D950FFDC3EC9AED9B500603
:1041A000ECFAEDFBEEFF0EEEC3941350030240D881
:1041B00074FF6A700374FF6B602D8F0874027808B7
:1041C0001217347448124EA074783509F5837808B4
:1041D000121617851882851983E5822510F582E568
:1041E00083124C2DE508F009E9C394045003024002
:1041F000C975080175090078081219B174021217FF
:1042000092AC82AD837A197B0912120A74021217DA
:104210005D740C12175D7F0A021870C082C0839013
:104220006186E0F8902467E493687009902466E45E
:1042300093906186F09061AE7468F0A3746AF09018
:10424000624574FBF0A304F053F4FD43FE029005B5
:104250005C7401F09061A0E0643A7004790080021F
:104260007901120AE4024285C082C08390050EE003
:104270006401700A900513E06004790C80027900F3
:104280008003F0A3F0D083D082020135C082C083C6
:1042900075E1F1900511E0604D146008146051144F
:1042A00060498051120B08900507E0F97A087B05F8
:1042B000120D609092DE121635120D9690929612A3
:1042C0001635120D6C900512E0F9120D7879011275
:1042D0000DD2900505E0241612441A7420F0A37440
:1042E0000BF07900809F120B0E80BC120B1480B76C
:1042F000120B1A80B2791280EB74F412179E75D9E2
:104300000D9004F6E0A2E0E4331313F8124386485C
:104310004401F5D9780012440440FB780088087401
:10432000F7124EA0740412440E40F275E195900409
:10433000F6E0F97AF77B04120D66900A507496F055
:10434000A3740A12442912444912444012458112AE
:10435000439078081216179092E278081215A390ED
:10436000929E78081215F1124414780812162690BD
:104370000505E0241412441A7413F09003C2740269
:10438000F07F04021870900507E0C4333354C02254
:10439000900505E0F8A3E0F5838882A3A32274F6D4
:1043A00012179E1245528AD9780012440440FB78B5
:1043B0000080061244B8124604E8C39940F512453D
:1043C0004412440440FB78008008124E9C7405128D
:1043D0004604E8C39940F375E195900A5074A2F041
:1043E000A3740A12442912443312163512441412CB
:1043F0001641900505E0241412441A7412F090033B
:10440000C20247EF880874082508F5827405124730
:1044100060940622900505E0240EF8A3E0124421E2
:10442000223400F9888289832212456A749CF0A3A1
:10443000740A221244491244401245859092D222B5
:10444000F0A374B4F0A3740A2212444D2212445112
:1044500022F0A37446F0A3740C2274F612179E1275
:1044600044AD1243864402F5D9780012440440FB5F
:10447000780080061244B8124604E8C39940F575E6
:10448000E195900A501244C3F0A31244C31244367B
:10449000121635124414121641900505E024141228
:1044A000441A7414F09003C274040247F190051783
:1044B000E0F9740729F5D922880874182508F582CF
:1044C00074052274AE1244D01244D0F0A3740A22B0
:1044D000F0A3740AF0A374AE2274F612179E12456C
:1044E0005274064AF5D9780012440440FB780080E3
:1044F000061244B8124604E8C39940F51245441226
:10450000440440FB78008008124E9C740512460457
:10451000E8C39940F375E195900A5074A8F0A3742C
:104520000A12456012443312163512441412164111
:10453000900505E0241412441A7415F09003C27417
:10454000030247F19005371244B074044AF5D97854
:1045500000221244AD900507E0C4333354C0FA2260
:1045600012456A7446F0A3740C2212456E2212455D
:104570007B7446F0A3740C12457B22124451F0A3C5
:104580002212458522F0900A5E7446F0A3740C1244
:10459000456E7446F0A3740C12444DF022C082C0E4
:1045A00083124390A3A3A3A3E402428274F71217D9
:1045B0009E1250E2F8740339F9E82405FAE9340050
:1045C000FB8A828B83124E5188828983A3A3A3A383
:1045D000A3A3A3A3A3ECF0A3EDF088828983A3A3F4
:1045E000A3A3A3A3A3E024FFF8A3E034FFF98A82E6
:1045F0008B83E8F0A3E9F00248128808746025086C
:10460000F5827405124D78F5D90822EAFEEBFF9089
:1046100061D0E0F87480C398FAEE24832212462316
:10462000940422124C3BE0F5D90AEAC32274F61234
:10463000179EEAFEEBFF9061D0E0707575D90E759C
:10464000D90375D9047A008A08EE25081251B024DE
:104650008C1246C640F17A008A08EE25081251B045
:10466000248412461D40F175E1957908EE248C12E0
:1046700046BF24841246B67C008C82AA82C3E49A88
:10468000F895E0F9EE28F8EF39F9E8248BF582E99E
:10469000124D74C0E0EE2A1251B024ABF582E9123B
:1046A0004C2DD0E0F00CECC3940840CD12477C8038
:1046B0000279000247F2FAEF3400FB120BCE22120D
:1046C00046B67904EE22124623940822C082C083A3
:1046D00075D90275D90375D90575E195EA2470F588
:1046E00082EB1246F1EA2472F582EB12478E024207
:1046F00085124C3E1246F822E0F8A3E0F92274F647
:1047000012179EEAFEEBFF900560740612476A12CC
:1047100019B17C017903124A9612175D75D9067595
:10472000D903780012475040FB75E1959003C2E031
:1047300064087017EE2470F582EF1246F1EE2472D1
:10474000F582EF124C2DE8F0A3E9F079010247F26F
:10475000880874602508F582740512476094052264
:10476000124C3EE0F5D908E8C322F07508607509DF
:104770000578082275E1957904120D9CEE2470F5F8
:1047800082EF124C3E1246F8EE2472F582EF124C84
:104790003EE8F0A3E9F079012274F612179EEAFED2
:1047A000EBFF9061D0E070437901900560740BF0ED
:1047B0009003C2E0640770177508607509057808F2
:1047C0001219B17C010909124A9612175D79057414
:1047D0000129F5D975D903780080031245FAE8C399
:1047E0009940F875E19512477C8002790080037446
:1047F00001F07F0202187074F712179EEAFEEBFFB9
:1048000075D90375D90375D90DEE24DE1248171238
:1048100047747F01021870F582EF124D78F5D922A6
:104820007F030218707401250AF5D975D903780041
:104830002274F512179E1248A6600478048002784C
:1048400000E8240BF8EAC3984041750A0990056016
:104850007409F0790812488F6014750860750905AD
:1048600078081219B1124A8E12175D750A0D124896
:104870002580031245FAE8C3950A40F775E195795A
:1048800004120D9C124A0B7901800279008091EE8E
:1048900024E3FCEF3400FD7A617B05120BC8850828
:1048A00082850983E02212460BF8EF124E45F5830C
:1048B000E02274F312179E8A088B09124AA1FAE5C6
:1048C000082483F50AEB12497060047804800278AA
:1048D00000E82408F8EAC3985003024969750C06F9
:1048E000900560740CF09003DFE0900561F07402B5
:1048F000C0E0F97CE07D037A627B05120BC8D0E052
:10490000F97CE27D03120BC8850A82850B83E06087
:104910001C750A60750B05780A1219B17C067903BB
:10492000AA08AB09124A9612175D750C0A74012584
:104930000CF5D975D90378008009880A7460250AB6
:10494000124600E8C3950C40F175E1957904120D0B
:104950009CE5082470F582E5091246F1E508247209
:10496000F582E50912478E800279007F05021870F2
:104970003400F50B850A82F583E02274F612179E47
:10498000EAFEEBFF124AA1FCEE2483F8EF124A9CE8
:1049900060047A0480027A00EA2404FAECC39A40A4
:1049A0005E7A02900560EAF0EE24F5F582EF124A95
:1049B00017601975086075090578081219B17C022D
:1049C0007903EEFA124A9612175D7A0674012AF5F7
:1049D000D975D903780080031245FAE8C39A40F8E4
:1049E00075E195EE2474124A04EE2480124A0412F2
:1049F0004A0B7904120D9CEE240D12477F80027938
:104A0000000247F2F582EF124B8722EE241DF58259
:104A1000EF124B87A3F022124D78900561F0888247
:104A20008983E02274F612179E124AA1FEEA2483BB
:104A3000F8EB124A9C60047C0480027C00EC2404A5
:104A4000FCEEC39C40437C029005607407F0EA24AE
:104A5000F6F582EB124A176015750860750905783E
:104A6000081219B17903124A9612175D7C06740177
:104A70002CF5D975D903780080031245FAE8C39C58
:104A800040F875E1957901800279000247F27C09CE
:104A90007903EEFAEFFB120C3A740222124421E081
:104AA000229061D0E0F87480C3982274F512179EAA
:104AB000E9FEA2AFE433F50AC2AF7F00EA246FF843
:104AC000EB3400F980010F88828983E0FCEFC39CFE
:104AD00050188F08EA2508FCEB3400FDEC246BF538
:104AE00082ED124D746E70DE8010EA2CFAEB340009
:104AF000FB124C27EE124A1D04F0E50AA2E092AF29
:104B000002482074F612179EA2AFE433FFC2AFEA48
:104B1000246FF8EB1251B2FCE9FD8C828D83E01416
:104B2000F07E0080218E08EA2508F8EB1251B224AD
:104B30006CF582E9124D74C0E0E8246BF582E9124D
:104B40004C2DD0E0F00E8C828D83E0F8EEC39840BF
:104B5000D4EA246E124C2A74FF124B7CEFA2E0922E
:104B6000AF0247F2C082C083E5A8F8C2AF124C275B
:104B7000E9124B7CE8A2E792AF024285F0EA246A90
:104B8000F582EB124B8722124C3EE4F02274F212B3
:104B9000179E8C828D83A3A3A3A3E0541FF0EA2465
:104BA00036124EE98E828F83E4F0F50C850C8285F7
:104BB000820AEC250AF8ED124E41F583E0C0E0EAE6
:104BC000250AF8EB124C31D0E0F0750D0085088213
:104BD000850983E0F50A750B00E50D780A121715B3
:104BE000E50AA2E0502AE50C33333354F8250DC012
:104BF000E08E828F83E0F8EA28F8EB1251B2243875
:104C0000F582E9124C2DD0E0F08E828F83E004F023
:104C1000050DE50DC3940840B4050CE50CC39405DF
:104C2000408A7F06021870EA246BF582EB124C3E34
:104C3000223400F9E8245D124C3B22F582E934006D
:104C4000F5832274F612179E9003EEE0640170075C
:104C50007A007B00024D6E7E009003F4E070F174E8
:104C600001F0A3E4F0A3F090045404F0900457E49E
:104C7000F0A3F090045A04F09003F7E4124D8590ED
:104C8000040104F0900427E4F09092761216359017
:104C9000040A12164190040EE4F0A3F0A3F090046D
:104CA00072F0900466F090045B7480F0A3E4F090DE
:104CB0000461F0900459F09004DD124D7D9004E6FB
:104CC000F0900475F09004C5F0A3F090927612165F
:104CD000359004C71216419092761216359004CB87
:104CE0001216419004D1E4F09004D3F09004CFF078
:104CF0009004E9124D7D8E08745D124EA07404126A
:104D00004C2D74FFF00EEEC3940440EA7E008E82B8
:104D1000A88274FD28F5827404124D74C0E0744FAB
:104D200028F5827404124C2DD0E0F00EEEC39405E9
:104D300040DC7E008E82A88274D628F5827403122D
:104D40004D74C0E074D528F5827404124C2DD0E067
:104D5000F00EEEC3940840DC9003EEE004F0640132
:104D600070089003F6E09003F0F07AF27B030247BC
:104D7000F2F582EF124D7822124C3EE022124D8560
:104D8000A3124D8522F0A3F0A3F0A3F022C082C0AD
:104D900083EA2403F582EB124D746008E4F090037B
:104DA000EFE014F09003EEE014F070069003F0745E
:104DB000FFF08A828B83A3A3E4F0900502E0700DDC
:104DC0009003EFE0640170057900120D7E024285C8
:104DD000C082C0839003F5E4F09003F4F09003EEFA
:104DE000F0A3F0A374FFF075E1F1024285C082C028
:104DF00083780079009003F5E0600478F279038805
:104E0000828983A3A3A3A3E0F902428574F6121753
:104E10009EEAFEEBFF120B80EE2465F8EF124E4186
:104E2000124E4FEC4D60109003F01250DA8508825C
:104E3000850983E4F0A3F0EEFAEFFB120C70024751
:104E4000F2124E45223400F988088909888222F539
:104E500083E0FCA3E0FD2274F712179EEAFEEBFF4D
:104E60008E828F83A3A3A3A3E0FA7B001208F8EE3F
:104E7000FAEFFB120B92120C5202481274F6121740
:104E80009E7800880874D6124EA07403124A070850
:104E9000E8C3940840ED9003D60247EF88087438C1
:104EA0002508F5822274F612179EEA240D124EE9A7
:104EB000EC2403F8ED3400F988088909EC2407F89C
:104EC000ED1251B2FCE9FD124EF31216BC8E828F28
:104ED00083E8F0A3E9F0124EF31216BC8B09EA4501
:104EE000096003124F060247F2F8EB3400F9E8FEBE
:104EF000E9FF228C828D831246F88508828509831A
:104F0000E0FAA3E0FB228E828F83E02401F0A3E08D
:104F10003400F02274F612179EEA242EF582EB3448
:104F200000124E4FEA2470124EE9780079FAECFA3A
:104F3000EDFB1216BC8E828F83E8F0A3E9F07800B7
:104F400079FAECFAEDFB1216BC8B09EA450960030D
:104F5000124F060247F274F012179EEAFEEBFF743E
:104F6000101217927808121617120D2A8A0C8B0D40
:104F70008C0E8D0F9092E6780C1215A390929E786D
:104F80000C1215F1780C1219AD8E828F8312439397
:104F900012163512218B740412175DE9600302505A
:104FA0003E8E828F83E02402F8A3E01251B2FAE928
:104FB000FB8A828B8378081215B690929E7808122D
:104FC00016178A828B837808121604EE240BF5825A
:104FD000EF124C2DC082C0838E828F83A3A3A3A324
:104FE000A3E02401F8A3E03400F9D083D082E06884
:104FF0007003A3E069700479018045EE2407F8EF9F
:10500000124421124F0AEE24741251B77014EE2488
:10501000751250457003A3E06D70078A828B83126E
:105020004F0AEE24801251B77014EE2481125045BD
:105030007003A3E06D70078A828B83124F0A790098
:105040007F08021870FAEF3400FB8A828B83E0FC41
:10505000A3E0FD88828983E06C2274F312179E120C
:1050600050E2FE740339FFEE2404F50AEF3400F534
:105070000BEE2465F508EF3400F5098010124E514F
:10508000850882850983E4F0A3F01250D485088254
:10509000850983124E51EC4D6030EE2464124D713F
:1050A000F50C780C1219B5EE2463124D71F9EEFA75
:1050B000EFFB120BBC740112175DE98508828509AC
:1050C0008360BA1246F4E84970077C007D001250F4
:1050D000D402496B850A82850B83E0FA7B001208B3
:1050E000B6229003F0E0F875F004A4C8AAF02AF9FB
:1050F00074F2282274F212179EEAFEEBFF890A74FA
:105100000E121792E0FAEE24621251B760030251B8
:10511000AB124AA1F50CEE2483124D71FB600478AA
:1051200004800278008908E928F8E41251B22402C8
:105130000808E93400F9E50C98E499A2D265D03367
:105140004065EA7005750B028003750B01EB603357
:1051500075090078081219B17A607B05120C047485
:105160000212175D75086075090578081219B1AC4F
:105170000AA90B124A9212175D7404250AF50A7CDB
:10518000607D057401250AF5D9850BD97800800A60
:105190008808EC124EA0ED124604E8C3950A40F0D0
:1051A00075E195790080067907800279FF024C222B
:1051B000F8EF3400F9E822F582EF124D786401220D
:1051C000C082C08380031251EEE9F874FF281904ED
:1051D00070F4ECFAEDFB024285C082C083800312BA
:1051E00051EEE9F874FF28190470F40242858C82AC
:1051F0008D83E08A828B83F08C828D83A3AC82AD19
:10520000838A828B83A3AA82AB832274E812179EBF
:10521000907803E06442705E90055FE014F0705691
:10522000C2AF12522500782AD0E0F618D0E0F6E599
:105230009F5407F970059092EA800390928A78084B
:10524000121617E9C4C0E07829E65508F50808E603
:105250005509F509740B7808121725D0E02508F8D0
:10526000906270E0A2E740F8E8C333906272F09079
:105270006270E0D2E0F09003F0E0F874FF68700331
:1052800002553DE8125F962402F8EF3401F9888256
:105290008983126010EA4B600FEE2401F582EF342F
:1052A00001F583E0F9121054EE2405F514EF3400F3
:1052B000F5158E828F83A3A3A3A3A3A3A3125A22BF
:1052C000125FAC906054E09003C9F0906055E0909C
:1052D00003CAF0906056E09003CBF0906057E090E6
:1052E00003CCF0906058E09003CDF0906059E090CE
:1052F00003CEF090605AE09003CFF090605BE090B6
:1053000003D0F090605CE0FC9003D1F090605DE031
:10531000FD9003D2F090605EE0F50C9003D3F09026
:10532000605FE0F50D9003D4F09003CFE0F5108CB2
:10533000082508F8E43400F9850C081259CD8D08C9
:105340001259CD850D081259CDEE24F7125F58126F
:1053500060028C8285820AEE24F9F582EF125A16D9
:10536000EE24FB125A0AEE24FFFAEF3400FB8A8285
:105370008B83E0F508A3E0F509E5084509603A905C
:105380006000E0C333F508E433F5098A828B83E0DB
:105390002508F50EA3E03509850E82F5831260021B
:1053A000906000E0C333F8E433F98A828B83125FA4
:1053B000BD244AF582E9125A16EE240BF8EF3400A8
:1053C000F9EE241DF50EEF3400F50FEE2420FAEF70
:1053D0003400FBEE241C125F40EE240FF50AEF347C
:1053E00000F50BE510700BED7008E50C7004E50D91
:1053F0006079851482851583125FD8EE240D125FC3
:10540000622CFCA3E03DFD88828983ECF0A3EDF0E3
:105410001259E77003125A4D9003CAE060248508C0
:10542000828509837401F0EE246A125F627013EEC4
:105430002474125F62700BEE2480125F627003129C
:105440005A4D906062E08E828F8370030254D0E0E8
:105450002406FCA3E03400FD125FEF120D248E82BF
:105460008F83E02412125FB2E48079EC6018125945
:10547000E770238A828B83125FD8850E82850F8323
:10548000ECF0A3ED800FEE24FD125A0A850E828502
:105490000F83E4F0A3F088828983125A22E06870B7
:1054A00003A3E0696003025418850A82850B83E038
:1054B000600F851482851583E064057002A3E060A7
:1054C0000B7908EEFAEFFB120B988071793E80F3AE
:1054D000E0F8A3E0F5838882A3A3A3A3A3A3E4F049
:1054E000A31263ABF0A3F0906060E0C0E0EE24692B
:1054F000125F58D0E0F09003CFE0F8125F5F28F021
:10550000EE247AF516EF3400F51702562990055D62
:10551000E06401702B120DEA125F5F70069060600C
:105520007480F0EEFAEFFB120CD6E96401600E1203
:105530000BB6120CD0E964016003120C52025A60DF
:10554000EE2483125F626004780480027800E50C28
:10555000C398F91208AA8A0A8B0BEA450B60B6EECB
:105560002483125F6270048A088B0978008015E535
:10557000D9C0E08810E5082510F582E509125F5BC7
:10558000D0E0F008E8C3950C40E5EE2483125F629A
:10559000603774FC250CF50C78081219B1AC0CA915
:1055A0000DEEFAEFFB120C40740212175DE9701950
:1055B0007403650D7003025663E50A24FBFAE50BDC
:1055C00034FFFB1210960256637403650D700302DC
:1055D0005668850C1075110078101219B1AC08AD21
:1055E00009AA0AAB0B120C04740212175DEE2469AF
:1055F000125F6264807004747F8001E0F5087808AF
:105600001219B5E50DF50878081219B5A90CAC0A00
:10561000AD0B9003F0E0FA7B001208B07402121791
:105620005D120DF6125F5F14F0E0700302551D75F8
:105630000860750905750A00750B00E5D914F50CAD
:10564000E5D95403F50D601B7403650D7003025515
:105650006BE50C700302550DEE2468125F62600367
:1056600002550D793D0254C3850882850983E0FA0D
:10567000A3858208858309A3A882A9836038147052
:10568000030257BB1470030259711470030257FCD4
:1056900024FD700302589F1460871470030258C6DB
:1056A00024FE70030258A81470030258C11470033A
:1056B00002591902591E850882850983E0C0E0EE6F
:1056C0002477125F58D0E0F0880889097902AC0885
:1056D000AD09EE247812598E7902AC08AD09AA16EC
:1056E000AB17120BC28A088B097902AC08AD09EE20
:1056F000247C1259B3247E12598EEE2477125F62F5
:10570000C333F0EE2478125F58125A42EE24781216
:105710005FA9125A3C851682851783125FACEE246E
:105720007E125F62F50AA3E0F50B7404780A121783
:1057300034EE247E125F58E50AF0A3E50BF07902FF
:10574000AC08AD09EE247512599F2475125F58C03C
:1057500082C083851482851583125FC9D083D0826D
:10576000125A2C400579280254C3EE247C125F6241
:105770002401F508A3E0125F43E4F50AF50B125A81
:105780003C88108911E4F512F51378087910121489
:1057900068EE247E125F62F510A3E0F511781079AF
:1057A000081214294005793B0254C3EE2474126395
:1057B000891263ABE4F0A3F00256217402C0E079D1
:1057C00005AC08AD097AFD7B04120BC2EAFCEBFDC7
:1057D000D0E0F9EE248112599F2481125F58C082D3
:1057E000C083851482851583125FC9D083D082124D
:1057F0005A2C4003025765EE248080B2EE24E21258
:105800005F6270147A001259BEC0E01259D6D0E01F
:10581000F00AEAC3940840EEEE24E3125F62A2E0CD
:10582000EE401424DE125F58741AF0790DEEFAEF90
:10583000FB120B620256211259FD24E1125F877997
:1058400008AC08AD09EE249C1259B324A41259AD3A
:10585000AC08AD09EE24941259ADEE2494FAEF345D
:1058600000FB120BCE7904AC08AD09EE2488125966
:10587000A47904EE2488FAEF3400FB120BCEEE2458
:105880008CFAEF3400FB120BE0EE2484FAEF3400C4
:10589000FB120BE69003C4E04480F07904808EEEA6
:1058A00024DF1263890257B7EE1259FD24D3125F29
:1058B00079EE24DD12639724D4125F79790B0258B4
:1058C0002DEE24E080DC7A001259BEC0E01259D6D9
:1058D000D0E0F00AEAC3940840EE7A008A82A882F7
:1058E00074D628F5827403125F5BC082C08385087A
:1058F00082850983E0D083D082FBE05BC0E012594F
:10590000D6D0E01259F5A38582088583090AEAC337
:10591000940840C8790902582D12639D700DEE2439
:10592000F6125F58EAF0790702582D85088285093A
:1059300083E0C0E0EE24EE125F58D0E0F0880889E2
:10594000097402C0E0F9AC08AD09EE24EF1259A4C5
:10595000EAFCEBFDD0E0F9EE24F112599F24EB12A2
:10596000639724ED125F626003025621790C02589E
:105970002DEE24F5F8EF125F8CE088828983F0EE3B
:1059800024F4125F8788828983E0F90254C3125994
:105990009222FAEF3400FB120BC28A088B09221202
:1059A00059A4EE22FAEF3400FB120BC222125992D4
:1059B0007908221259927902AC08AD09EE228A8246
:1059C000A88274D628F5827403125F6922E825083C
:1059D000F8E93400F922EE28F8EF3400F9E824E37E
:1059E000F582E9125F8222850A82850B83E41259CF
:1059F000F5E0640122F08508828509832224621281
:105A00005F7FE41263BAE4F0EE22125F662401F0D5
:105A1000A3E03400F022125F69250AF0A3E034000D
:105A2000F022125FCD85148285158322E0C398F899
:105A3000A3E099F9C3E894FFE9947F228516828553
:105A40001783125FCDE8C333F8E933F9228A828BDA
:105A500083125FCD850E82850F83E8F0A3E9F022E3
:105A60007F1002187053BFEF02013574E812179EC1
:105A70009003F0E0F8125F962420F50EEF3400F565
:105A80000FEE241CF50CEF3400F50DEE241DF5107F
:105A9000EF3400F5119061D0E0600B851082851124
:105AA00083E4F0A38030EE246A125F627029EE2452
:105AB00074125F627021EE2480125F627019850C8F
:105AC00082850D83E06401700E850E82850F83123E
:105AD0005FDEE8F0A3E9F0EE2407125F408E828FCC
:105AE00083A3A3A3A3A3125FDE125FBD240108E971
:105AF000125F8C125FACEEFAEFFB120CDCE9640172
:105B00006008900504E06401701F85108285118390
:105B1000E4F0A3F08E828F83A3A3A3A3A3E02401C8
:105B2000F8A3E0125F8C125FACEE24741263A060E5
:105B300003025CD2EE2475125F481219C8850882F0
