:020000040000FA
:0600000002010A0219775B
:03002B00021DD2E1
:03003300021DB4F7
:030053000219EAA5
:03006B00021D8EE5
:1000830002182BE5C754F84401F5C7790122000093
:100093000080FB120086B900030200F4E4792178A2
:1000A30008B800028004F709D8FCE479297802B87B
:1000B30000028004F709D8FCE490028178A879074C
:1000C3008002F0A3D8FCD9FA900928AA82AB8390C6
:1000D300013A780379028015E493A3AC82AD838A55
:1000E300828B83F0A3AA82AB838C828D83D8E9D9D8
:1000F300E77582C67583E0740212011C75829175DF
:100103008300740012011C75D00075813F7518813E
:10011300751902759F00020096C09FF59FE473D086
:100123009F22D083D082C09FE493C0E0740193C028
:10013300E0740293F59F22FF0000B400002800281A
:1001430000283075A000A000A000A000000800084F
:10015300E001F0001000100010001000100010006B
:1001630050005000500010001000D00700000000A5
:1001730000000F00010005003075070010000100AA
:1001830081FF0000FFFF02020208025000A00000EE
:1001930000E803027B830100006883027783010088
:1001A300007709027F83010000AE0202778301001A
:1001B300007809026B83010000C402027783010007
:1001C300007909026D83010000C6020277830100F2
:1001D300007A09026F83080000C7020277830100D7
:1001E300007B090271830100007C09FF3209320997
:1001F3003209320932093209320932093209320924
:10020300320932093209FFFF01053F10FF000130B7
:10021300750302010600000000000000000000005A
:1002230000000000000000000000000000000000CB
:1002330000FFFF0600800CE80312012521D3021200
:10024300012538D30212012567D302120125A0D359
:1002530002120125C8D302120125F6D30212012589
:100263000DD40212012524D4021201253AD402121C
:10027300012561D40212012574D4021201258AD406
:1002830002120125B2D4021201253BF0011201250D
:100293003AF1011201256FF10112012590F10112CA
:1002A3000125A0F101120125C1F101120125CDF2B1
:1002B300011201259AF3011201250DF40112012502
:1002C30093F401120125D6F4011201250DF5011253
:1002D300012593F50112012565F601120125C3F6E7
:1002E30001120125DBF60112012555F70112012543
:1002F30058F7011201255BF70112012502F80112DB
:1003030001251AF8011201254AF8011201256AF89C
:100313000112012558F9011201250EFA01120125D6
:100323003AAB0212012573AB02120125BCAB0212D8
:10033300012507AC0212012545AC0212012582AC4E
:1003430002120125B0AC0212012557AD021201259C
:1003530061AD021201256EAD02120125A1AD02129B
:10036300012563AE021201256FAE0212012587AE8D
:100373000212012591AE0212012559DD0212012557
:1003830067DD021201257FDD0212012597DD0212CE
:10039300012506B101120125A4B1011201251CB2E8
:1003A3000112012531B3011201256BB3011201259D
:1003B30014B401120125E9B4011201254DB601124D
:1003C3000125A4B6011201252BB70112012512B88C
:1003D300011201255FB801120125EDB801120125B3
:1003E30011B901120125E6BA0112012527BB011239
:1003F300012549BB011201251ABC011201259AC12D
:10040300021201256CC2021201251CC3021201252E
:1004130031C40212012557C40212012574DF0212EE
:10042300012512B30212012524B3021201254AB396
:100433000212012572B4021201257CB402120125B5
:10044300D5B5021201255CD60212012598D70212F6
:1004530001253BA3011201259EA301120125AEA391
:1004630001120125D1A3011201251CA401120125AA
:10047300C1A401120125B7A50112012581A601120C
:100483000125F9A7011201253BA801120125D9A8CD
:1004930001120125FFA801120125EDAA0112012570
:1004A300F2AA01120125D3AC0112012527AD0112D5
:1004B300012589AD01120125B1AD0112012555AE0A
:1004C3000112012517AF0112012548AF01120125C1
:1004D3004BAF0112012593AF01120125D5AF0112D4
:1004E30001253CB001120125DACA02120125EDCA29
:1004F3000212012506CB0212012551CB021201255E
:100503002CCC02120125BBCC0212012506CD02120E
:100513000125234C001201255C4C00120125A84C37
:1005230000120125334D001201256C4D00120125E7
:10053300804F001201255C51001201254753001220
:1005430001257E5400120125DE5600120125CA57EB
:10055300001201251059001201251D5A0012012510
:100563003A5A00120125725A00120125945A0012B8
:1005730001252E5F00120125CF5F001201252060A7
:100583000012012547600012012595600012012524
:10059300F56000120125D5B602120125DFB602125D
:1005A3000125AAB702120125C5B70212012509B810
:1005B3000212012541B8021201256AB8021201256F
:1005C300E3B802120125F8B8021201251CB9021280
:1005D300012530B90212012561B902120125D2B9F0
:1005E300021201251BBA0212012545BA0212012586
:1005F3006ABA0212012526AF02120125F0AF0212D8
:100603000125D3B00212012549B1021201258BB194
:1006130002120125B8B2021201255FCB0112012596
:1006230088CB01120125A1CB01120125E6CC0112D1
:100633000125C4CD01120125E3CD0112012570CEA0
:1006430001120125B3CE0112012500D001120125AB
:100653009FD0011201251ED301120125B5D301122A
:10066300012589D4011201256BD501120125D7D6A5
:10067300011201256AD7011201256ED90212012543
:10068300D7D9021201252BDA0212012552DA0212FE
:100693000125579E02120125C49E021201250F9FB8
:1006A3000212012504A00212012500A10212012554
:1006B300EAA10212012500800212012542800212E2
:1006C30001251C8102120125F58102120125F08208
:1006D30002120125CF83021201253B840212012558
:1006E3000285021201256D8502120125D4850212AD
:1006F3000125FF8502120125708602120125038759
:10070300021201256C87021201258187021201253D
:10071300C98702120125E2870212012547880212C6
:1007230001254A8802120125E0C70212012508C8E3
:100733000212012546C80212012504C9021201252D
:100743006FC9021201258BC902120125B3C9021216
:100753000125E3C902120125F2C9021201256CCA5F
:100763000212012592CA0212012552E40112012547
:100773002FE6011201252AE801120125FDE80112E5
:10078300012548E9011201255AE9011201259AE9D7
:1007930001120125CFE9011201251BEA01120125EE
:1007A3004AEA011201256DEA01120125BAEA011292
:1007B300012543EB0112012550ED011201253BEF09
:1007C3000112012583EF01120125C4EF0112012556
:1007D30010F001120125E1D7011201250CD80112F5
:1007E3000125F3DE0112012517E101120125D2E2F1
:1007F300011201252FE401120125F41D0012012528
:100803008B1E00120125D11E00120125102000129B
:100813000125A721001201252122001201253C22D6
:1008230000120125B12200120125E0230012012547
:100833003B25001201253D26001201259A270012AF
:100843000125B32700120125102800120125F228E3
:1008530000120125252900120125952900120125E1
:100863000F2A001201255E2A001201252A2B0012ED
:1008730001252F2C001201250E2D00120125992D83
:1008830000120125072E001201257B2E00120125DF
:10089300A42E00120125632F00120125DD30001262
:1008A3000125FA3000120125193100120125AA3160
:1008B30000120125CF3100120125F7310012012565
:1008C300723200120125CC320012012520340012AD
:1008D3000125DD3400120125B035001201256C9588
:1008E30001120125BC9501120125C89501120125AC
:1008F300A59601120125D596011201250D97011226
:1009030001258C9701120125C49701120125169820
:1009130001120125539801120125789A011201252C
:10092300A49C011201259F9E011201257AA00112A8
:100933000125FB7F001201257D6100120125C7619E
:1009430000120125A667001201252769001201255F
:10095300866F00120125817000120125BE700012FE
:100963000125DF70001201252171001201250D728E
:1009730000120125017300120125DE350012012545
:100983005640001201255C40001201256847001201
:100993000125CAC402120125C8C5021201251EC6BB
:1009A300021201255CC602120125B9C602120125F5
:1009B30036C7021201253FC7021201254BC7021297
:1009C30001255EC7021201259AC702120125B0C78D
:1009D30002120125ACA202120125B9A202120125BD
:1009E300D3A20212012512A30212012550A302125F
:1009F3000125B5A302120125CAA302120125D5A31D
:100A030002120125E2A302120125F9A30212012514
:100A130007A40212012512A4021201251EA4021228
:100A230001252DA40212012538A4021201255BA47D
:100A33000212012504A50212012514A502120125A3
:100A43002EA5021201254BA50212012567A502124C
:100A530001258CA50212012596A502120125AAA53E
:100A630002120125C9A5021201252AA60212012597
:100A730030A60212012536A6021201253CA6021257
:100A8300012548A6021201257BA60212012554BEA8
:100A930001120125D6BE011201257FBF01120125D6
:100AA300C7C001120125D5C201120125BBC3011222
:100AB3000125F0C30112012512C401120125B4C49A
:100AC3000112012584C601120125ADC601120125BB
:100AD300DFC601120125ECC60112012537C7011239
:100AE30001255BC701120125ACC901120125B6CA54
:100AF3000112012512CB01120125197500120125DE
:100B03002A76001201250E77001201253077001294
:100B130001253C7700120125E078001201250D79AB
:100B230000120125237A00120125737A0012012590
:100B3300C27B00120125977C00120125F37C001271
:100B430001255E7D00120125FF7D001201256B7ECC
:100B530000120125E67E0012012568D1021201254B
:100B63008DD10212012503D2021201259A98021295
:100B73000125A39802120125AC980212012584993C
:100B830002120125359B02120125659B02120125E4
:100B9300909B02120125BB9B02120125EF9B0212BF
:100BA30001252E9C02120125599C02120125C19C8C
:100BB30002120125EC9C021201253B9D0212012524
:100BC300669D02120125949D02120125B79D021212
:100BD30001257E7F00120125AA7F00120125D77F00
:100BE30000120125E17F00120125F17F001201258A
:100BF30079FA0112012583FA01120125C4FA0112BF
:100C030001250DFB0112012547FB011201259DFB67
:100C130001120125BEFB01120125C7FB01120125AB
:100C23001BFC0112012544FC011201254EFC01129B
:100C33000125BCFC011201254CFD01120125A7FD74
:100C430001120125D5FD011201255DFE01120125C9
:100C53009CFE01120125D1FE01120125E3FE0112C2
:100C6300012502FF011201250BFF01120125CDFF12
:100C73000112012585DB0212012577CF021201251E
:100C8300ADCF02120125E1CF021201252ED10212AE
:100C93000125FDDF0212012513E0021201251DE0EB
:100CA3000212012567E002120125F8A602120125AE
:100CB3000BA702120125CFA7021201250EA80212CB
:100CC30001252BA80212012564A802120125B1A84F
:100CD30002120125E3A8021201251AA90212012515
:100CE3002DAB021201257CDC021201259FDC0212CE
:100CF3000125CEDC0212012510DD021201258C83B1
:100D0300011201252B8501120125D685011201252A
:100D1300568601120125E28601120125BD8A0112C0
:100D23000125348B011201254B8C01120125858C81
:100D330001120125C68C011201250D8E0112012518
:100D4300638E01120125AC8E011201251B8F011246
:100D53000125878F01120125B88F01120125D08F3C
:100D630001120125E99001120125F99001120125D3
:100D7300AF9201120125C69201120125F8920112C8
:100D830001259A94011201252E950112012530DEC9
:100D93000212012541DE0212012569E10212012539
:100DA300A8E102120125FDE102120125E1DE021292
:100DB3000125F1DE0212012509DF0212012571DF8F
:100DC3000212012583DA0212012508DB0212012532
:100DD3006CDB02120125F4D7021201251DD8021281
:100DE300012588D802120125D9D80212012534D948
:100DF3000212012543BE0212012568BE021201251B
:100E030085BE02120125A2BE02120125C7BE02122F
:100E13000125E8BE0212012512BF02120125CFBF30
:100E2300021201254DC00212012574C002120125D0
:100E33007EC00212012592BA02120125A9BA02123A
:100E4300012523BB0212012507BC02120125DEBDC9
:100E530002120125C4D40212012516D5021201255E
:100E630089D502120125F6D50212012530CD0212D1
:100E730001255ACD0212012529CE0212012505CFE3
:100E8300021201256E88021201253A8902120125F8
:100E93007B8902120125B58902120125138A0212E8
:100EA3000125678A02120125C58A021201255B8B7F
:100EB30002120125638C02120125ED8D0212012518
:100EC3008B8E02120125F28E02120125058F02126A
:100ED3000125F98F02120125429002120125C990C2
:100EE30002120125E69002120125669102120125E4
:100EF300E29202120125B193021201251E970212FA
:100F0300012504980212012519E1021201253DE190
:100F130002120125B2E102120125DFE102E066704F
:100F23001008A3E066700A08A3E066700408A3E053
:100F33006622C3E7960809E7960809E7960809E7D2
:100F43009622C3E09608A3E09608A3E09608A3E0E0
:100F53009622C008C3E096F50808A3E09642080865
:100F6300A3E096420808A3E09645087001D3D00891
:100F730022080808EAC0E0EBC0E086F0E7A4FA180C
:100F83000986F0E7A42AFA180986F0E7A42AFA18D2
:100F93000986F0E7A42AFA1986F0E7A4FBE5F02A0C
:100FA300FA190886F0E7A42BFBE5F03AFA1908864C
:100FB300F0E7A42BFBE5F03AFA18180986F0E7A44A
:100FC300C5F02BFBE43AFA1908E7C5F0C6A426F6E8
:100FD300E5F03BFBE43AFA1886F0E7A4F6E5F008FF
:100FE30026F6E43B08F6E43A08F6D0E0FBD0E0FA54
:100FF30022E4CFC0E0E4CEC0E0E4CDC0E0E4CCC066
:10100300E075F020C3E633F608E633F608E633F678
:1010130008E633F6181818EC33FCED33FDEE33FE17
:10102300EF33FFC3EC9709ED9709EE9709EF971993
:101033001919400FFFEC97FC09ED97FD09EE97FE98
:10104300191906D5F0BEECF709EDF709EEF709EF2C
:10105300F7191919D0E0FCD0E0FDD0E0FED0E0FF95
:10106300226016080808C6C313C618C613C618C6D6
:1010730013C618C613C6D5E0EA2270090808082269
:101083006016181818C6C333C608C633C608C63355
:10109300C608C633C6D5E0EA22E627F60809E637CE
:1010A300F60809E637F60809E637F622E026F608D9
:1010B300A3E036F608A3E036F608A3E036F622E00E
:1010C30026F008A3E036F008A3E036F008A3E036E4
:1010D300F022C3E697F60809E697F60809E697F6BD
:1010E3000809E697F622C3E096F008A3E096F00815
:1010F300A3E096F008A3E096F022E056F608A3E0FA
:1011030056F608A3E056F608A3E056F622E056F09A
:1011130008A3E056F008A3E056F008A3E056F02237
:10112300E0F608A3E0F608A3E0F608A3E0F622E65B
:10113300F008A3E6F008A3E6F008A3E6F022E0FA3D
:10114300A3E0FBA3E0FCA3E0FD22EAF0A3EBF0A302
:10115300ECF0A3EDF022CAC0E0E6F0A308DAFAD07F
:10116300E0FA22CAC0E0E0A3C582CCC582C583CD24
:10117300C583F0A3C582CCC582C583CDC583DAE61A
:10118300D0E0CA22C3E498F8E499F91211C8802682
:10119300C3E49AFAE49BFBE920E7E91211C8E49857
:1011A300F8E499F922C3E498F8E499F91211C8E430
:1011B30098F8E499F9C3E49AFAE49BFB22EB20E75D
:1011C300CFE920E7E0B90010BB0008E88AF084F813
:1011D300AAF022E4FBC8FA22EB70227B10C833C8C2
:1011E300C933C9335007C39AC3DBF280069A50014F
:1011F3002ADBEAC833F4C8C933F4C9FA2275F00804
:10120300E4C833C8C933C933C99AC99B5004C92A2E
:10121300C93BD5F0ECFBC833F4C8E4C9FA22600D2E
:1012230008C6A2E713C618C613C6D5E0F322600C9E
:1012330008C6C313C618C613C6D5E0F42270042229
:10124300600D18C6C333C608C633C6D5E0F41822EA
:10125300251810AF08F518400215198008F5184035
:10126300021519D2AF22C0D0251810AF08F51850B7
:101273000205198008F51850020519D2AFD0D02203
:101283002518F58210AF08F518400215198008F5E6
:101293001840021519D2AF851983222518F582E467
:1012A3003519F58322E4732518C582C0E0E51934A6
:1012B300FFC583C0E0E518C3958224F810AF088505
:1012C30083198582188008858319858218D2AFCE49
:1012D300F0A3E520F0A37808E608F0A3DEFAEFF028
:1012E300A3E58124FAF8E608F0A3E608F0A3E608EC
:1012F300F0A30808E608F0A3E608F0A3158115811A
:10130300D0E0FED0E0F8158115811581E8C0E0EE4C
:10131300C0E0222518C582C0E0E51934FFC583C0AB
:10132300E0E518C3958224F910AF088583198582F7
:10133300188008858319858218D2AFCEF0A3E520E3
:10134300F0A37808E608F0A3DEFAEFF0A3E5812422
:10135300FBF8E608F0A3E608F0A30808E608F0A304
:10136300E608F0A315811581D0E0FED0E0F81581E1
:101373001581E8C0E0EEC0E022851983851882E07C
:10138300A3FEE0A3F5207808E0A3F608DFFAE0A3C4
:10139300FFE0A3C0E0E0A3C0E0E0A3C0E0E0A3C09F
:1013A300E0E0A3C0E010AF088582188583198008A8
:1013B300858218858319D2AFD083D082020122851A
:1013C3001983851882E0A3FEE0A3F5207808E0A343
:1013D300F608DFFAE0A3FFE0A3C0E0E0A3C0E0E08B
:1013E300A3C0E0E0A3C0E010AF088582188583198D
:1013F3008008858218858319D2AFD083D08222C01A
:10140300D02518C582C0E0E51934FFC583C0E0E5E7
:1014130018C3958224F310AF088583198582188039
:1014230008858319858218D2AFC8F0A3E9F0A3EA2F
:10143300F0A3EBF0A37908E709F0A3D8FAECF0A343
:10144300EDF0A3EEF0A3EFF0A3D0E0F0A3D0E0F033
:10145300A3D0E0F0A3E520F0A3E5F0F0A3228519E3
:1014630083851882E0C0E0A3E0F9A3E0FAA3E0FBE0
:10147300A37808E0F608A3DFFAE0FCA3E0FDA3E00D
:10148300FEA3E0FFA3E0C0E0A3E0C0E0A3E0F5D04B
:10149300A3E0F520A3E0A3F5F010AF088583198539
:1014A30082188008858319858218D2AFD082D083B1
:1014B300D0E0F8D0E0327404800674028002740134
:1014C300C0E0F404121283D0E01211592274048094
:1014D3000474028000CCC0E0EDC0E0E518C39CCCEE
:1014E300AD1950011D10AF068C188D1980068C188C
:1014F3008D19D2AF121166D0E0FDD0E0FC22D0836B
:10150300D082ECC0E0EDC0E0E493A3FCE493A3FD40
:10151300ED4C600D12154DEC24FFFCED34FFFD8006
:10152300EFE493A3FCE493A3FDED4C600D12158C43
:10153300EC24FFFCED34FFFD80EFD0E0FDD0E0FCB8
:10154300E493A3C0E0E493C0E022C0E0C3E4939635
:10155300087401939618400FE493667008087401A9
:1015630093661870007019A3A3C3E49396087401DB
:10157300939618A3A3400DD0E0D0E0D0E002153D30
:10158300A3A3A3A3A3A3D0E022C0E0C0F088F0E408
:10159300936670080874019366187000A8F0A3A3FB
:1015A300700BD0F0D0E0D0E0D0E002153DA3A3D083
:0415B300F0D0E02272
:1015B80074F5121316EAFEEBFFEE2434F8EF34004C
:1015C800F988088909EE2435F582EF3400F583E0BF
:1015D800F8EE2437F582EF3400F583E0F50AEC8560
:1015E8000AF0A4FCAAF0850AF0EDA42AFDE82CF87C
:1015F800E43DF97A257B001211C8EA85088285093D
:1016080083F05407F87401B800028004C333D8FC8F
:10161800C0E0E0131313541FF8EE28F8EF3400F974
:10162800E8245DF582E93400F583D0E0F8E05860FD
:1016380008EE2434F582EF801EEE2436F582EF346E
:1016480000F583E0F5F0EA84A8F0EE28F8EF34001E
:10165800F9E82438F582E93400F583E0F97F0402DB
:1016680013C274F5121316EAFEEBFFEE2434F5826A
:10167800EF3400F583E0C0E0EE2435F582EF340066
:10168800F583D0E0F08E828F83A3A3A3A3A3A3A3A3
:10169800C082C0838E828F83A3A3A3A3A3E0F8A3F1
:1016A800E0F9D083D082E0C398F508A3E099F50962
:1016B800EE2480F582EF3400F583E064017069EE72
:1016C8002481F582EF3400F583E0F8A3E0F98E82F7
:1016D8008F83A3A3A3A3A3A3A3E0FCA3E0FD8E820F
:1016E8008F83A3A3A3A3A3E0FAA3E0FBC3EA9CEB25
:1016F8009D5027C3EC98ED99402EC3EA98EB99507A
:10170800277CF97D04EEFAEFFB120890EE2480F5B1
:1017180082EF3400F583E4F0800EC3EA98EB994039
:10172800E0C3EC98ED9950D9EE2434F8EF3400F981
:10173800E8FCE9FDEE2435F582EF3400F583E0F8A6
:10174800EE2437F582EF3400F583E0F50AE50885E5
:101758000AF0A4F508AAF0850AF0E509A42AF50913
:10176800E82508F8E43509F97A257B001211C8EA5A
:101778008C828D83F05407F87401B800028004C38A
:1017880033D8FCC0E0E0131313541FF8EE28F8EF29
:101798003400F9E8245DF582E93400F583D0E0F8F7
:1017A800E0586008EE2434F582EF801EEE2436F50A
:1017B80082EF3400F583E0F5F0EA84A8F0EE28F82B
:1017C800EF3400F9E82438F582E93400F583E0F9CC
:1017D800121D80021665C082C08385188285198310
:1017E800E0F8A3E0F9C3EA9CEB9D5012C3EC98ED36
:1017F800994019C3EA98EB99501279018010C3EA0D
:1018080098EB9940F5C3EC98ED9950EE7900D083A8
:10181800D08222EAC39CFAEB9DFB220085218785B2
:1018280022C622C0E0C0D0E8C0E0E9C0E0EAC0E0DB
:10183800EBC0E0ECC0E0EDC0E0C008C009C00AC0E1
:101848000BC082C083C0F0759B00906182E0A2E665
:101858004003021909E591A2E640030219097591AE
:10186800BF9003BEE0640570081209B01209BC807D
:10187800031209B6752100120A10E99003BFF07926
:1018880000120A041208067A017B009003BDE0F9F1
:10189800120C4A907803E0644260030219529005E2
:1018A8005BE014F06003021952C2AF1218B6007858
:1018B8002AD0E0F618D0E0F6E59F5407F9700590B5
:1018C8008308800390830C7808121123E9C4C0E0D0
:1018D8007829E65508F50808E65509F509740B78DE
:1018E80008121231D0E02508F8906270E0A2E740B3
:1018F800F8E8C333906272F0906270E0D2E0F08052
:1019080049E0A2E55024E591A2E5501E7591DF90CB
:1019180003BEE0640D70139003E0E004F0642870E7
:1019280002E4F07A00E0F9120A82906181E0A2E311
:101938005009E5E9A2E3500375E9F7A3E0A2E750EF
:1019480009E591A2E7500375917FD0F0D083D0824A
:10195800D00BD00AD009D008D0E0FDD0E0FCD0E010
:10196800FBD0E0FAD0E0F9D0E0F8D0D0D0E032C037
:10197800E0C0D0C082C083906183E0A2E05009E556
:10198800BFA2E0500375BFFEE0A2E15009E5BFA287
:10199800E1500375BFFDE0A2E25009E5BFA2E250A5
:1019A8000375BFFBE0A2E35009E5BFA2E35003754E
:1019B800BFF7E0A2E45009E5BFA2E4500375BFEF0A
:1019C800E0A2E55009E5BFA2E5500375BFDFE0A23C
:1019D800E65009E5BFA2E6500375BFBFD083D082A9
:1019E8008088C0E0C0D0E8C0E0E9C0E0EAC0E0EB31
:1019F800C0E0ECC0E0EDC0E0C0F0E5A7A2E6500F03
:101A0800E5A1A2E6500953A7BF75A1BF121A4FE579
:101A1800A7A2E5500CE5A1A2E5500653A7DF75A1E2
:101A2800DFE5A7A2E15009E5A1A2E1500375A1FDF8
:101A3800E5A7A2E2500CE5A1A2E2500653A7FB7568
:101A4800A1FBD0F002196074F812131675210190E9
:101A580003BEE06406701512095C8A828B83A3A317
:101A6800A3A3A3A3E0FAA3E0FB12099EA2AFE43369
:101A7800FED2AF9003C4E0640170187A207B009016
:101A880003BDE0F9120CCE7A207B009003BDE0F98B
:101A9800120C50906182E0D2E6F090055AE0602185
:101AA80085C62280169003C3E064017008E5C65419
:101AB800F84405F5C653BEFC12182474016521606C
:101AC800E4EEA2E092AF7F010213C2008E238F24BE
:101AD800858228858327851882851983E0CEA3E02F
:101AE800CF852882852783EBC9EAC8EDCBECCA7578
:101AF800F010C3E833C8E933C9EA33CAEB33CBC3C0
:101B0800EA9EF526EB9FF525B35004AB25AA26ECF3
:101B180033CCED33CDD5F0DAAE23AF242274F112F5
:101B280013168A088B098C0A8D0B740F12129E7873
:101B38000C12112390834078081210FD908340788E
:101B48000C1210FD7808790C120F355015780879A9
:101B58000C1210D59083287808120F55401579017A
:101B68008013780C79081210D5908328780C120FFE
:101B78005540EB79007F080213C274ED1213168AE0
:101B8800088B098C0A8D0B741312129E780C121193
:101B98002390834078081210FD908340780C12102F
:101BA800FD780C7908120F3540117808790C12105D
:101BB800D5AA08AB09AC0AAD0B80227510007511C7
:101BC800007512007513017810790C1210D5781071
:101BD800790812109CAA10AB11AC12AD137F0C023D
:101BE80013C290834078081211238A828B83780865
:101BF8001211107F040213C274F51213168C828D11
:101C08008378081211238A828B8378081210E9EAF4
:101C18002404F8EB3400F98C828D83A3A3A3A3E0FA
:101C2800FCA3E0FD88828983C3E09CF0A3E09DF0DB
:101C380088828983C3E09420A3E0944E4022908355
:101C48005078081211238A828B8378081210C28A6E
:101C5800828B83A3A3A3A3E02420F0A3E0344EF057
:101C6800808074F5121316E9FE900510E0FAA3E0DF
:101C7800FBEEC333F8E433F974B128F58274823982
:101C8800F583E02AF508A3E03BF50978081214BDAE
:101C980090834C121141121AD474021212698A08E4
:101CA8008B098C0A8D0B74107808121064AA08AB83
:101CB800097F040213C274F11213168A0C8B0D8C5F
:101CC8000E8D0F740F12129EE0FAA3E0FB7411122E
:101CD800129EE0F508A3E0F509741312129EE0FEC7
:101CE800A3E0FF78081214BDEA2401F508EB3400DC
:101CF800F509E4F50AF50B780C7908120F7490834E
:101D0800347808121123780C7908120F74AA0CABD6
:101D18000DAC0EAD0F121AD474021212698B09EAB7
:101D2800450960047A0180027A00EC2AFCED34004F
:101D3800FDECF8EDF97A717B021211C8880889095F
:101D4800E4F50AF50B8E828F837808121132ECF8CD
:101D5800EDF97A717B021211C88A088B097405782B
:101D6800081212408E828F83A3A3A3A3E508F0A3D1
:101D7800E509F07F080213C2C082C083E9906000C1
:101D8800F0D083D08222C0E074F2121402A2AFE431
:101D980033FED2AFE589A2E15003120DEE7589003A
:101DA800C2C5EEA2E092AF7F01021461C0E074F2F6
:101DB800121402A2AFE433FED2AFE58BA2E05003C7
:101DC800120DEE758B00C2E880D8C0E0C0D0E8C024
:101DD800E0E5A8D2AFC2C7A2E792AFD0E0F8D0D072
:031DE800D0E03216
:101DEC00FFFFFFFFFFFFFFFFC082C0839061907475
:101DFC0004F0A37448F0A37402F09061807440F076
:101E0C009061BC7403F09061877419F090626574F2
:101E1C001BF090619C740DF090619A7433F0A37474
:101E2C0055F09061A0743AF0900558E06401700987
:101E3C00C2919003C2746780059003C27461F090E4
:101E4C001DF2E493906186F0901DECE493F460270E
:101E5C00E493540FF8906185E0686012E5C65480F5
:101E6C004449F5C6E59E547F644970F8E8F053C6C2
:101E7C0080E59E547F70FA7905120A64022009C02D
:101E8C0082C083E5A8F853A87E906181E4F0A3F0AA
:101E9C00A3F0C2BA539AFEC289759B00C2C275E9FF
:101EAC000075910075BF0075A91175B90590618118
:101EBC00F0A374C0F0A3E4F0D2BA439A0174805832
:101ECC0042A8022009C082C08374F81212539003F6
:101EDC00C0E0F8A3E0F9E8497003021FFF9003C0CB
:101EEC00E0544060237908851882851983AA82AB57
:101EFC00831208EA851882851983AA82AB8312059E
:101F0C00DE9003C0E054BFF0E054806010790C7A8E
:101F1C007C7B051208EA9003C0E0547FF0E0A2E05D
:101F2C00503190619A7433F0A37455F09061A074A1
:101F3C003AF0900558E064017009C2919003C274A4
:101F4C006780059003C27461F01205E49003C0E051
:101F5C0054FEF0E05402603190619A743FF0A37427
:101F6C005AF09061A0747FF0900558E064017009FC
:101F7C00D2919003C2747180059003C2746AF012FE
:101F8C0005E49003C0E054FDF0E054046013901D90
:101F9C00F0E493906186F01205EA9003C0E054FBE4
:101FAC00F0E054086013901DF1E493906186F012F8
:101FBC0005EA9003C0E054F7F0E054106013901D54
:101FCC00F2E493906186F01205EA9003C0E054EFBE
:101FDC00F0E05420600A1205EA9003C0E054DFF0F0
:101FEC00A3E05401600D1208121205F09003C1E039
:101FFC0054FEF074081212698003F0A3F0D083D061
:10200C008202012274EC1212AA74F4121253851873
:10201C0082851983AC82AD837583827582F47404D6
:10202C00121166901DF093F4600302219D907808C4
:10203C00E0C39402500302217D740412129EAC8200
:10204C00AD837583827582DF7408121166851882E0
:10205C00851983858212858313740412129EAC82B7
:10206C00AD83750EFF750FFF7FFF7E00750C4875F5
:10207C000D78801574086E700302211074096E704F
:10208C0003022110740A6E607B850C82850D8378A7
:10209C00081211238C828D83A909E50AC9F88810CE
:1020AC0074187808121064E5104508F8C3E098A37A
:1020BC00E099850C82850D83780812112340188CC9
:1020CC00828D8374187808121064E5104508F8E0C6
:1020DC00C398F8A3E0801C74187808121064E510FB
:1020EC004508FAE9FB8C828D83E0F8A3E0F9EAC39A
:1020FC0098F8EB99F9C3E8950EE9950F5006880E00
:10210C00890FEEFF0EE50C2404F50CE50D3400F5FB
:10211C000DEEC39413500302208074FF650E7004FF
:10212C0074FF650F60238F087402780812124074D4
:10213C00482508F58274783509F58378081211233F
:10214C00851282851383E508F0EC24020C0CED3427
:10215C0000FD851282851383A385821285831374F7
:10216C000C12129EE5826C7003E5836D60030220F5
:10217C006E75080175090078081214BD74021212EC
:10218C009EAC82AD837A7C7B07120DCA740212124C
:10219C0069740C1212697F0C02137CC082C083908C
:1021AC0061AE7468F0A3746AF090624574FBF0A39E
:1021BC0004F053F4FD43FE029005587401F0906155
:1021CC00A0E0643A90619A70237433F0A37455F0D4
:1021DC009061A0743AF0740164017009C29190038B
:1021EC00C2746780289003C274618021743FF0A38D
:1021FC00745AF09061A0747FF0740164017009D27C
:10220C00919003C2747180059003C2746A02200815
:10221C007F0402137CC082C08390050AE0640170C5
:10222C000A90050FE06004790C8002790002200905
:10223C00C082C08375E1F190050DE0605514600813
:10224C001460591460518059120824900503E0F968
:10225C007A047B051209E69082F8121141120A1CCD
:10226C0090832C1211411209F290050EE0F912091B
:10227C00FE7901120A58900501E02416F8A3E03407
:10228C0000F988828983743CF0A37408F079000209
:10229C00200912082A80B412083080AF1208368048
:1022AC00AA791280EA74F41212AA75D90D9004F26C
:1022BC00E0A2E0E4331313F8900503E0C433335485
:1022CC00C0484401F5D97801790588828983A3A394
:1022DC00A3E0F5D988828983A3A882A983E864073F
:1022EC007003E9640570E378F2790488828983A32A
:1022FC00E0F5D988828983A3A882A983E864F87061
:10230C0003E9640470E575E1959004F2E0F97AF361
:10231C007B041209EC9009DD74D6F0A37407F0A3CA
:10232C007432F0A37409F0A37432F0A37409F0A30F
:10233C007432F0A37409F0A374DCF0A37407F0A357
:10234C007432F0A37409F0A374F4F0A37407F09042
:10235C0009EB7432F0A37409F0A37432F0A374097E
:10236C00F0A37432F0A37409F0A37432F0A37409CF
:10237C00F0A37432F0A37409F0A37432F0A37409BF
:10238C00F0900501E0F8A3E0F5838882A3A3780818
:10239C001211239082FC78081210AF9083407808B9
:1023AC001210FD900501E0240EF8A3E03400F9882A
:1023BC008289837808121132900501E02414F8A365
:1023CC00E03400F9888289837413F09003BE7402A0
:1023DC00F002221CC082C083900513E02407F5D9BB
:1023EC00900503E0C4333354C0F5D97801790588DE
:1023FC00828983A3A3A3E0F5D988828983A3A882C9
:10240C00A983E864077003E9640570E3900513E0A1
:10241C00601F78017905FAE82413F582E93400F598
:10242C0083E0F5D988828983A3A882A9831AEA70EC
:10243C00E6900533E02407F5D9900503E0C4333367
:10244C0054C04404F5D97801790588828983A3A303
:10245C00A3E0F5D988828983A3A882A983E86407BD
:10246C007003E9640570E3900533E0601F7801792F
:10247C0005FAE82433F582E93400F583E0F5D988D0
:10248C00828983A3A882A9831AEA70E675E19590E4
:10249C0009DD74E2F0A37407F0A37432F0A374099D
:1024AC00F0A37432F0A37409F0A37432F0A374098E
:1024BC00F0A374DCF0A37407F0A37432F0A37409D6
:1024CC00F0A374F4F0A37407F09009EB7432F0A34A
:1024DC007409F0A37432F0A37409F0A37432F0A35E
:1024EC007409F0A37432F0A37409F0A37432F0A34E
:1024FC007409F0A37432F0A37409F0908350121194
:10250C0041900501E0240EF8A3E03400F98882899B
:10251C008312114D900501E02414F8A3E03400F966
:10252C00888289837412F09003BE7401022008C063
:10253C0082C083900513E02407F5D9900503E0C40D
:10254C00333354C04402F5D97801790588828983E4
:10255C00A3A3A3E0F5D988828983A3A882A983E8E1
:10256C0064077003E9640570E3900513E0601F785D
:10257C00017905FAE82413F582E93400F583E0F5D6
:10258C00D988828983A3A882A9831AEA70E675E1A7
:10259C00959009DD74EEF0A37407F0A374EEF0A32C
:1025AC007407F0A374EEF0A37407F0A374EEF0A319
:1025BC007407F0A374EEF0A37407F0A374EEF0A309
:1025CC007407F0A374F4F0A37407F09009EB743261
:1025DC00F0A37409F0A37432F0A37409F0A374325D
:1025EC00F0A37409F0A37432F0A37409F0A374324D
:1025FC00F0A37409F0A37432F0A37409F090835023
:10260C00121141900501E0240EF8A3E03400F98882
:10261C0082898312114D900501E02414F8A3E03453
:10262C0000F9888289837414F09003BE740402202C
:10263C0008C082C083900513E02407F5D9900503E8
:10264C00E0C4333354C04406F5D978017905888247
:10265C008983A3A3A3E0F5D988828983A3A882A93F
:10266C0083E864077003E9640570E3900513E06088
:10267C001F78017905FAE82413F582E93400F58313
:10268C00E0F5D988828983A3A882A9831AEA70E627
:10269C00900533E02407F5D9900503E0C433335497
:1026AC00C04404F5D97801790588828983A3A3A352
:1026BC00E0F5D988828983A3A882A983E86407708E
:1026CC0003E9640570E3900533E0601F7801790538
:1026DC00FAE82433F582E93400F583E0F5D98882F1
:1026EC008983A3A882A9831AEA70E675E1959009FB
:1026FC00DD74E8F0A37407F0A37432F0A37409F04E
:10270C00A37432F0A37409F0A37432F0A37409F02B
:10271C00A37432F0A37409F0A37432F0A37409F01B
:10272C00A374F4F0A37407F09009EB7432F0A37463
:10273C0009F0A37432F0A37409F0A37432F0A374FB
:10274C0009F0A37432F0A37409F0A37432F0A374EB
:10275C0009F0A37432F0A37409F090835012114164
:10276C00900501E0240EF8A3E03400F988828983F7
:10277C0012114D900501E02414F8A3E03400F988FF
:10278C008289837415F09003BE7403022008C08202
:10279C00C083900501E0F8A3E0F5838882A3A3A38E
:1027AC00A3A3A3E402200674F71212AA9003ECE090
:1027BC00F875F004A4C8AAF02AF974EE28F874038A
:1027CC0039F9E82405FAE93400FB8A828B83E0FCB2
:1027DC00A3E0FD88828983A3A3A3A3A3A3A3A3A39C
:1027EC00ECF0A3EDF088828983A3A3A3A3A3A3A3F6
:1027FC00E024FFF8A3E034FFF98A828B83E8F0A38E
:10280C00E9022A5874F71212AAEAFEEBFF9061D083
:10281C00E060030228ED75D90E75D90375D904EE65
:10282C00248CF582EF3400F583E5822408F8E583E7
:10283C003400F9E0F5D9A3E865827003E96583708B
:10284C00F2EE2484F582EF3400F583E5822404F85B
:10285C00E5833400F9E0F5D9A3E865827003E965F6
:10286C008370F275E1957908EE248CFAEF3400FB55
:10287C001208DE7904EE2484FAEF3400FB1208DE31
:10288C007C00EEF8EFF9ECFAC3E49AFA95E0FBEE73
:10289C002AFAEF3BFBEA248BF582EB3400F583E05C
:1028AC00C0E0E824ABF582E93400F583D0E0F00C0D
:1028BC0088828983A3A882A983ECC3940840C7EEBD
:1028CC002470F582EF3400F583E0F8A3E0F9EE24F0
:1028DC0072F582EF3400F583E8F0A3E9F07901801A
:1028EC00027900022A59C082C08375D90275D903B6
:1028FC0075D90575E195EA2470F582EB3400F58302
:10290C00E0F8A3E0F9EA2472F582EB3400F583E8F1
:10291C00F0A3E9F0790102200974F61212AAEAFE7A
:10292C00EBFF90055C7406F075085C75090578087A
:10293C001214BD7C017903120926740212126975F6
:10294C00D90675D90375825C758305E0F5D9A3E5C5
:10295C008264617004E583640570F075E195900301
:10296C00BEE06408701EEE2470F582EF3400F5832F
:10297C00E0F8A3E0F9EE2472F582EF3400F583E879
:10298C00F0A3E9F07901022B2574F61212AAEAFEE3
:10299C00EBFF9061D0E07066780190055C740BF0F1
:1029AC009003BEE06407701975085C75090578081A
:1029BC001214BD7C01790312092674021212697873
:1029CC0005740128F5D975D90375825C758305E802
:1029DC00FAE0F5D9A31AEA70F875E195EE2470F5D2
:1029EC0082EF3400F583E0F8A3E0F9EE2472F5826F
:1029FC00EF3400F583E8F0A3E9F079018002790067
:102A0C00022B2574F71212AAEAFEEBFF75D9037597
:102A1C00D90375D90DEE24DEF582EF3400F583E091
:102A2C00F5D975E1957904120A22EE2470F582EF3E
:102A3C003400F583E0F8A3E0F9EE2472F582EF346C
:102A4C0000F583E8F0A3E9F079018001F07F010241
:102A5C00137C74F61212AAEAFEEBFF9061D0E0F838
:102A6C007480C398FAEE2483F582EF3400F583E08A
:102A7C006004780480027800E8240BF8EAC39850CC
:102A8C0003022B237D0990055CEDF0EE24E3F8EFB7
:102A9C003400F97A5D7B057C0888828983E08A8220
:102AAC008B83F088828983A3A882A9838A828B83F3
:102ABC00A3AA82AB831CEC70E0EE2483F582EF3486
:102ACC0000F583E0601D75085C7509057808121423
:102ADC00BD7C097903EEFAEFFB120926740212127F
:102AEC00697D0D74012DF5D975D90375825C7583DB
:102AFC00058D08E0F5D9A31508E50870F675E19584
:102B0C007904120A22EE241DF582EF3400F583E4D9
:102B1C00F0A3F07901800279007F0202137C74F635
:102B2C001212AAEAFEEBFF9061D0E0F87480C39811
:102B3C00FAEE2483F582EF3400F583E06004780428
:102B4C0080027800E82408F8EAC3985003022C2A83
:102B5C007D0690055C740CF09003DBE090055DF055
:102B6C007ADC7B03785E79057C028A828B83E08831
:102B7C00828983F08A828B83A3AA82AB8388828921
:102B8C0083A3A882A9831CEC70E07ADE7B037C0211
:102B9C008A828B83E088828983F08A828B83A3AAC2
:102BAC0082AB8388828983A3A882A9831CEC70E002
:102BBC00EE2483F582EF3400F583E0601D75085C2C
:102BCC0075090578081214BD7C067903EEFAEFFB43
:102BDC0012092674021212697D0A74012DF5D97539
:102BEC00D90375825C7583058D08E0F5D9A31508AA
:102BFC00E50870F675E1957904120A22EE2470F559
:102C0C0082EF3400F583E0F8A3E0F9EE2472F5824C
:102C1C00EF3400F583E8F0A3E9F079018002790044
:102C2C00022B2574F61212AAEAFEEBFF9061D0E09B
:102C3C00F87480C398FAEE2483F582EF3400F583A0
:102C4C00E06004780480027800E82404F8EAC39871
:102C5C005003022D09780290055CE8F0EE24F5F59E
:102C6C0082EF3400F583E090055DF0EE2483F5826D
:102C7C00EF3400F583E0601B75085C750905780876
:102C8C001214BD7C027903EEFA1209267402121298
:102C9C00697806740128F5D975D90375825C75833A
:102CAC00058808E0F5D9A31508E50870F675E195D7
:102CBC00EE2474F582EF3400F583E4F0EE2480F515
:102CCC0082EF3400F583E4F0EE241DF582EF34003E
:102CDC00F583E4F0A3F07904120A22EE240DF582B8
:102CEC00EF3400F583E0F8A3E0F9EE2472F582EFFF
:102CFC003400F583E8F0A3E9F07901800279000251
:102D0C002B2574F61212AA9061D0E0F87480C39847
:102D1C00FCEA2483F582EB3400F583E0600478044C
:102D2C0080027800E82404F8ECC398405B790290A8
:102D3C00055C7407F0EA24F6F582EB3400F583E0C9
:102D4C0090055DF0EA2483F582EB3400F583E060B6
:102D5C001875085C75090578081214BD7C020912F7
:102D6C00092674021212697906740129F5D975D9EC
:102D7C000375825C758305E9F8E0F5D9A318E87052
:102D8C00F875E195790180027900022B2574F51212
:102D9C0012AAE9FCA2AFE433F50AC2AF7D008001B0
:102DAC000DEA246FF582EB3400F583E0F8EDC3985F
:102DBC00501A8D08EA2508F8EB3400F9E8246BF575
:102DCC0082E93400F583E06C70D68024EA246FF835
:102DDC00EB3400F9E0FEEA2EFAEB3400FBEA246B4C
:102DEC00F582EB3400F583ECF088828983E004F003
:102DFC00E50AA2E092AF7F0302137C74F61212AACA
:102E0C00A2AFE433FDC2AFEA246FF582EB3400F5D8
:102E1C0083E014F07C0060368C08EA2508F8EB346B
:102E2C0000F9E8246CF582E93400F583E0C0E0E8B1
:102E3C00246BF582E93400F583D0E0F00CEA246FC2
:102E4C00F582EB3400F583E0F8ECC39840CAEA2431
:102E5C006EF582EB3400F58374FFF0EA246AF58298
:102E6C00EB3400F583E4F0EDA2E092AF022B25C029
:102E7C0082C083E5A8F8C2AFEA246BF582EB34007C
:102E8C00F583E9F0EA246AF582EB3400F583E4F08B
:102E9C00E8A2E792AF02200974F31212AAEAFEEB41
:102EAC00FFECFAEDFB8A828B83A3A3A3A3E0541F50
:102EBC00F0EE2436F582EF3400F583E4F0F50AEEFB
:102ECC00FCEFFD8A828B83E0C0E0EC245DF582EDA3
:102EDC003400F583D0E0F0750B00E50A333333543E
:102EEC00F8F50C8A828B83E0F508750900E50B7800
:102EFC0008121221E508A2E0502FEE2436F8EF3428
:102F0C0000F988828983E0F508EE2508F508EF348E
:102F1C0000F509E5082438F582E5093400F583E568
:102F2C000CF088828983E004F0050B050CE50BC3DB
:102F3C00940840AF050A8A828B83A3AA82AB838C48
:102F4C00828D83A3AC82AD83E50AC3940550030242
:102F5C002ECF7F0502137C74F71212AA9003EAE0BD
:102F6C00640170077A007B000230DA7E009003F077
:102F7C00E070F17401F0A3E4F0A3F090045004F0BD
:102F8C00900453E4F0A3F090045604F09003F3E49F
:102F9C00F0A3F0A3F0A3F09003FD04F0900423E45D
:102FAC00F090834412114190040612114D90040AC2
:102FBC00E4F0A3F0A3F090046EF0900462F090049F
:102FCC00577480F0A3E4F090045DF0900455F090F9
:102FDC0004D9F0A3F0A3F0A3F0A3F0A3F0A3F0A303
:102FEC00F09004E2F0900471F09004C1F0A3F09022
:102FFC0083441211419004C312114D908344121159
:10300C00419004C712114D9004CDE4F09004CFF020
:10301C009004CBF09004E5F0A3F0A3F0A3F0A3F0A0
:10302C00A3F0A3F0A3F078EA7903E8246FF582E922
:10303C003400F58374FFF00E88828983A3A882A9DB
:10304C0083EEC3940440E37AEA7B0378F97904882D
:10305C00828983E0C0E0EA2461F582EB3400F583D9
:10306C00D0E0F088828983A3A882A9838A828B838B
:10307C00A3AA82AB83E864FE7003E9640470D07A7F
:10308C00EA7B0378D1790388828983A3E0C0E0EAE4
:10309C0024E7F582EB3400F583D0E0F08882898355
:1030AC00A3A882A9838A828B83A3AA82AB83E864B8
:1030BC00D97003E9640370CF9003EAE004F0640173
:1030CC0070089003F2E09003ECF07AEE7B03022A96
:1030DC0059C082C0839003F1E4F09003F0F09003A8
:1030EC00EAF0A3F0A374FFF075E1F1022009C082AD
:1030FC00C083780079009003F1E0600478EE7903E6
:10310C0088828983A3A3A3A3E0F902200974F61291
:10311C0012AAEAFEEBFF8E828F83A3A3A3E0600FBB
:10312C008E828F83A3A3A3E4F09003EBE014F090C2
:10313C0003EAE014F070069003EC74FFF08E828FBB
:10314C0083A3A3E4F09004FEE0700D9003EBE06425
:10315C000170057900120A04EE2465F582EF340043
:10316C00F583E0F8A3E0F9E8496029EE2465F8EF6F
:10317C003400F9880889098882F583E0FCA3E0FD16
:10318C009003ECE0FA7B0012061485088285098313
:10319C00E4F0A3F0EEFAEFFB120956022B2574F7BC
:1031AC001212AAEAFEEBFF8E828F83A3A3A3A3E0E5
:1031BC00FA7B00120656EEFAEFFB1208A812093E33
:1031CC00022A59C082C08378D1790388828983A36B
:1031DC00E4F088828983A3A882A983E864D9700368
:1031EC00E9640370E69003D202253674F61212AA33
:1031FC00EAFEEBFFEC2403F8ED3400F988088909AA
:10320C00EC2407F8ED3400F9E8FCE9FD8C828D83A1
:10321C00E0F8A3E0F9850882850983E0FAA3E0FBD6
:10322C001211C8EE240DF582EF3400F583E8F0A3FB
:10323C00E9F08C828D83E0F8A3E0F985088285099A
:10324C0083E0FAA3E0FB1211C88B09EA450960136D
:10325C00EE240DF582EF3400F583E02401F0A3E0B9
:10326C003400F0022B2574F61212AAEAFEEBFFEEE4
:10327C00242EF582EF3400F583E0FCA3E0FD78000A
:10328C0079FAECFAEDFB1211C8EE2470F582EF34EA
:10329C0000F583E8F0A3E9F0780079FAECFAEDFB9D
:1032AC001211C88B09EA45096013EE2470F582EF00
:1032BC003400F583E02401F0A3E03400F0022B2568
:1032CC0074F01212AAEAFEEBFF741012129E780828
:1032DC001211231209C88A0C8B0D8C0E8D0F908342
:1032EC0000780C1210AF908340780C1210FD780C03
:1032FC001214B98E828F83E0F8A3E0F5838882A341
:10330C00A3121141121B257404121269E960030205
:10331C0034198E828F83E02402F8A3E03400F9E89C
:10332C00FAE9FB8A828B8378081210C2908340786A
:10333C00081211238A828B837808121110EE240B49
:10334C00F582EF3400F583C082C0838E828F83A315
:10335C00A3A3A3A3E02401F8A3E03400F9D083D005
:10336C0082E0687003A3E0697005790102341B8E5A
:10337C00828F83A3A3A3A3A3A3A3E02401F0A3E0C0
:10338C003400F0EE2474F582EF3400F583E0640130
:10339C007036EE2475F582EF3400F583E0F8A3E087
:1033AC00F98E828F83A3A3A3A3A3A3A3E0687003C6
:1033BC00A3E0697013EE2475F582EF3400F583E019
:1033CC002401F0A3E03400F0EE2480F582EF340009
:1033DC00F583E064017036EE2481F582EF3400F55C
:1033EC0083E0F8A3E0F98E828F83A3A3A3A3A3A306
:1033FC00A3E0687003A3E0697013EE2481F582EFFB
:10340C003400F583E02401F0A3E03400F079007F70
:10341C000802137C74F71212AA9003ECE0F875F012
:10342C0004A4C8AAF02AF974EE28FE740339FF80AC
:10343C0028EE2465F8EF3400F988828983E0FCA338
:10344C00E0FD88828983E4F0A3F08E828F83A3A3AE
:10345C00A3A3E0FA7B00120614EE2465F582EF3488
:10346C0000F583E0F8A3E0F9E849604FEE2464F539
:10347C0082EF3400F583E0F50878081214C1EE24CD
:10348C0063F582EF3400F583E0F9EE2465F582EF05
:10349C003400F583E0FCA3E0FDEEFAEFFB1208D25A
:1034AC007401121269E96089EE2465F582EF34002B
:1034BC00F583E0F8A3E0F9E84970137C007D008EF9
:1034CC00828F83A3A3A3A3E0FA7B00120614022A23
:1034DC005974F21212AAEAFEEBFF890A740E121248
:1034EC009EE0FAEE2462F582EF3400F583E064018D
:1034FC0060030235A99061D0E0F87480C398F50C94
:10350C00EE2483F582EF3400F583E06004780480C8
:10351C000278008908E928F8E43400F9E824020864
:10352C0008E93400F9E50C98E499A2D265D033404F
:10353C0068EA7005750B028003750B01E060397544
:10354C00090078081214BD7A5C7B05120908740214
:10355C0012126975085C75090578081214BDAC0A5D
:10356C00A90BEEFAEFFB120926740212126974040D
:10357C00250AF50A7C5C7D057401250AF5D9850BB5
:10358C00D9E50A600D8C828D83F8E0F5D9A318E893
:10359C0070F875E195790080067907800279FF7FD4
:1035AC000602137CC082C083E960208C828D83E08C
:1035BC008A828B83F08C828D83A3AC82AD838A82CA
:1035CC008B83A3AA82AB8319E970E0ECFAEDFB02C2
:1035DC00200974EA1212AA907803E06442705E909B
:1035EC00055BE014F07056C2AF1235F800782AD0A3
:1035FC00E0F618D0E0F6E59F5407F97005908308C3
:10360C00800390830C7808121123E9C4C0E0782958
:10361C00E65508F50808E65509F509740B78081203
:10362C001231D0E02508F8906270E0A2E740F8E88B
:10363C00C333906272F0906270E0D2E0F09003ECD1
:10364C00E0F47003023A01E0F875F004A4C8AAF0A3
:10365C002AF974EE28FE740339FFEE2402F582EF8A
:10366C003401F583E0F8A3E0F9E849601EEE24028A
:10367C00F582EF3401F583E0FAA3E0FBEE2401F5CB
:10368C0082EF3401F583E0F9120C4A8E828F83A30A
:10369C00A3A3A3A3A3A3E0F8A3E0F98E828F83A333
:1036AC00A3A3A3A3E8F0A3E9F0906054E09003C5B2
:1036BC00F0906055E09003C6F0906056E09003C720
:1036CC00F0906057E09003C8F0906058E09003C908
:1036DC00F0906059E09003CAF090605AE09003CBF0
:1036EC00F090605BE09003CCF090605CE0FC9003A9
:1036FC00CDF090605DE0FB9003CEF090605EE0FD5D
:10370C009003CFF090605FE0FA9003D0F09003CB81
:10371C00E08C082508F8E43400F98D08E82508F851
:10372C00E93400F98B08E82508F8E93400F98A082F
:10373C00E82508FAE93400FBEE24F7F582EF3400B3
:10374C00F583E02AF0A3E03BF08C08EE24F9F58237
:10375C00EF3400F583E02508F0A3E03400F0EE240C
:10376C00FBF582EF3400F583E02401F0A3E0340094
:10377C00F0EE24FFF582EF3400F583E0F8A3E0F9D6
:10378C00E8496042906000E0C333FCE433FDE82C70
:10379C00F582E93DF583E02AF0A3E03BF090600070
:1037AC00E0FA9003CDE0FCEAC333FAE433FBE82AF9
:1037BC00F8E93BF9E8244AF582E93400F583E02C7A
:1037CC00F0A3E03400F09003CBE070119003CEE056
:1037DC00700BA3E07007A3E070030238E18E828FB8
:1037EC0083A3A3A3A3A3E0F8A3E0F9EE240DF58231
:1037FC00EF3400F583E028F8A3E039F9EE240BF55B
:10380C0082EF3400F583E8F0A3E9F0EE240FF582A3
:10381C00EF3400F583E4F0EE241CF582EF3400F570
:10382C0083E06401701EEE2420F582EF3400F583F2
:10383C00E0F8A3E0F9EE241DF582EF3400F583E8FF
:10384C00F0A3E9F09003C6E06052EE241CF582EF81
:10385C003400F5837401F0EE246AF582EF3400F540
:10386C0083E07038EE2474F582EF3400F583E07059
:10387C002BEE2480F582EF3400F583E0701EEE24ED
:10388C0020F582EF3400F583E0F8A3E0F9EE241D77
:10389C00F582EF3400F583E8F0A3E9F0906062E084
:1038AC0070030239948E828F83E0F8A3E0F9E82448
:1038BC0006FCE93400FDE82402FAE93400FB1209A5
:1038CC00C28E828F83E02412F8A3E03400F9888240
:1038DC00898302399E9003CDE0603AEE240FF58285
:1038EC00EF3400F583E4F0EE241CF582EF3400F5A0
:1038FC0083E064017040EE2420F582EF3400F58300
:10390C00E0F8A3E0F9EE241DF582EF3400F583E82E
:10391C00F0A3E98020EE24FDF582EF3400F583E07E
:10392C002401F0A3E03400F0EE241DF582EF340006
:10393C00F583E4F0A3F0EE240BF582EF3400F5836D
:10394C00E0F8A3E0F98E828F83A3A3A3A3A3E0687E
:10395C007003A3E0696003023850EE240FF582EF88
:10396C003400F583E060128E828F83A3A3A3A3A3FC
:10397C00E064057002A3E0600B7908EEFAEFFB122D
:10398C0008AE8071793E80F3EE241DF582EF340091
:10399C00F583E4F0A3F0906060E0C0E0EE2469F5FC
:1039AC0082EF3400F583D0E0F09003CBE0F8EE2406
:1039BC0067F582EF3400F583E028023B019005594E
:1039CC00E064017035120A70EE2467F582EF340062
:1039DC00F583E070069060607480F0EEFAEFFB12F5
:1039EC00098CE96401600E1208CC120986E96401A5
:1039FC00600312093E7F0E02137CEE2483F582EFE6
:103A0C003400F583E06004780480027800E50CC390
:103A1C0098F91206088A0A8B0BEA450B60A7EE246C
:103A2C0083F582EF3400F583E070048A088B09E596
:103A3C000C6012850882850983F512E5D9F0A3156F
:103A4C0012E51270F6EE2483F582EF3400F583E074
:103A5C00603774FC250CF50C78081214BDAC0CA95D
:103A6C000DEEFAEFFB12092C7402121269E97019AF
:103A7C007403650D7003023B41E50A24FBFAE50B68
:103A8C0034FFFB120C8C023B417403650D70030276
:103A9C003B46850C0E750F00780E1214BDAC08ADAC
:103AAC0009AA0AAB0B1209087402121269EE2469F6
:103ABC00F582EF3400F583E064807004747F80013C
:103ACC00E0F50878081214C1E50DF5087808121411
:103ADC00C1A90CAC0AAD0B9003ECE0FA7B0012060A
:103AEC000E7402121269120A7CEE2467F582EF340E
:103AFC0000F583E014F0E070030239E175085C75A1
:103B0C000905750A00750B00E5D914F50CE5D954B7
:103B1C0003F50D60207403650D7003023A3BE50C50
:103B2C0070030239C9EE2468F582EF3400F583E0A6
:103B3C0060030239C9793D0239878508828509837A
:103B4C00E0F8A3858208858309603B147003023D6D
:103B5C003E147003024032147003023D9C24FD702D
:103B6C0003023EBC147003023AF2147003023F12BB
:103B7C0024FE7003023ECB147003023F0D1470033D
:103B8C00023FA7023FB6EE2477F510EF3400F51193
:103B9C00E0851082851183F0850882850983A385D1
:103BAC008208858309EE2478F50EEF3400F50F7941
:103BBC0002AC08AD09AA0EFB1208D88A088B09EED4
:103BCC00247AF50CEF3400F50D7902AC08AD09AA96
:103BDC000CFB1208D88A088B097902AC08AD09EEE7
:103BEC00247CFAEF3400FB1208D88A088B09EE24E7
:103BFC007EF50AEF3400F50B7902AC08AD09AA0A80
:103C0C00FB1208D88A088B09851082851183E0C3C2
:103C1C0033F0850E82850F83E0F8A3E0F9E8C33317
:103C2C00F8E933F9850E82850F83E8F0A3E9F08576
:103C3C000C82850D83E0F8A3E0F9E8C333F8E9338F
:103C4C00F9850C82850D83E8F0A3E9F0850A82855D
:103C5C000B83E0F50CA3E0F50D7404780C12124004
:103C6C00850A82850B83E50CF0A3E50DF0EE247537
:103C7C00F50AEF3400F50B7902AC08AD09AA0AFB82
:103C8C001208D8850A82850B83C082C0838E828FEE
:103C9C0083A3A3A3A3A3E0F8A3E0F9D083D082E08D
:103CAC00C398F8A3E099F9C3E894FFE9947F400521
:103CBC007928023987EE247CF582EF3400F583E015
:103CCC002401F508A3E03400F509E4F50AF50BEE40
:103CDC00247AF582EF3400F583E0F8A3E0F9E8C329
:103CEC0033F8E933F9880C890DE4F50EF50F7808F3
:103CFC00790C120F74EE247EF582EF3400F583E01C
:103D0C00F50CA3E0F50D780C7908120F3540057908
:103D1C003B023987EE2474F582EF3400F58374018D
:103D2C00F0EE241DF582EF3400F583E4F0A3F002ED
:103D3C003AF2EE2481F50AEF3400F50B7402C0E080
:103D4C007905AC08AD097AF97B041208D8EAFCEBCA
:103D5C00FDD0E0F9AA0AAB0B1208D8850A82850BB4
:103D6C0083C082C0838E828F83A3A3A3A3A3E0F816
:103D7C00A3E0F9D083D082E0C398F8A3E099F9C30B
:103D8C00E894FFE9947F4003023CBCEE24808087DA
:103D9C00EE24E2F582EF3400F583E07039EEF8EFB3
:103DAC00F97AD17B038A828B83A3E0C0E0E824E319
:103DBC00F582E93400F583D0E0F08A828B83A3AAE4
:103DCC0082AB8388828983A3A882A983EA64D97091
:103DDC0003EB640370CFEE24E3F582EF3400F5833C
:103DEC00E0A2E0EE401824DEF582EF3400F5837497
:103DFC001AF0790DEEFAEFFB12087E023AF2246209
:103E0C00F582EF3400F583E4F0EE2468F582EF34AC
:103E1C0000F583E4F0EE24E1F582EF3400F58374D1
:103E2C0001F07908AC08AD09EE249CFAEF3400FBE4
:103E3C001208D88A088B097902AC08AD09EE24A4C3
:103E4C00FAEF3400FB1208D88A088B09EE2494F59B
:103E5C000AEF3400F50B7908AC08AD09AA0AFB127D
:103E6C0008D88A088B097908AA0AAB0B1208DEEE6F
:103E7C002488F50AEF3400F50B7904AC08AD09AAD7
:103E8C000AFB1208D87904AA0AAB0B1208DEEE243E
:103E9C008CFAEF3400FB1208F0EE2484FAEF3400B5
:103EAC00FB1208F69003C0E04480F07904023E0057
:103EBC00EE24DFF582EF3400F5837401023D3AEE17
:103ECC002462F582EF3400F583E4F0EE2468F58289
:103EDC00EF3400F583E4F0EE24D3F582EF3400F5F3
:103EEC0083E4F0EE24DDF582EF3400F5837401F009
:103EFC00EE24D4F582EF3400F583E4F0790B023E26
:103F0C0000EE24E080ADEEF8EFF97AD17B038A82E3
:103F1C008B83A3E0C0E0E824E3F582E93400F58369
:103F2C00D0E0F08A828B83A3AA82AB8388828983B8
:103F3C00A3A882A983EA64D97003EB640370CFEE63
:103F4C00F8EFF97AD17B038A828B83A3C082C0837A
:103F5C00850882850983E0D083D082FCE05CC0E0D8
:103F6C00E824E3F582E93400F583D0E0F08508829B
:103F7C00850983A38582088583098A828B83A3AAFA
:103F8C0082AB8388828983A3A882A983EA64D970CF
:103F9C0003EB640370B17909023E00EE24EBF58269
:103FAC00EF3400F583E064017011EE24F6F582EF36
:103FBC003400F583E8F07907023E00850882850914
:103FCC0083E0C0E0EE24EEF582EF3400F583D0E020
:103FDC00F0850882850983A385820885830974028C
:103FEC00C0E0F9AC08AD09EE24EFFAEF3400FB1297
:103FFC0008D8EAFCEBFDD0E0F9EE24F1FAEF34003E
:10400C00FB1208D8EE24EBF582EF3400F583740133
:10401C00F0EE24EDF582EF3400F583E06003023A14
:10402C00F2790C023E00EE24F5F8EF3400F9E0884A
:10403C00828983F0EE24F4F582EF3400F583740169
:10404C00F088828983E0F902398753BFEF0201229D
:10405C0074F01212AA9003ECE0F875F004A4C8AA4C
:10406C00F02AF974EE28FE740339FF9061D0E060F9
:10407C000FEE241DF582EF3400F583E4F0A380539A
:10408C00EE246AF582EF3400F583E07047EE247479
:10409C00F582EF3400F583E0703AEE2480F582EF80
:1040AC003400F583E0702DEE241CF582EF3400F51E
:1040BC0083E06401701EEE2420F582EF3400F5835A
:1040CC00E0F8A3E0F9EE241DF582EF3400F583E867
:1040DC00F0A3E9F08E828F83A3A3A3A3A3E0F8A39C
:1040EC00E0F9EE241DF582EF3400F583E028F8A307
:1040FC00E039F9E8240108E93400F9EE2407F50A5F
:10410C00EF3400F50B850A82F583E8F0A3E9F0EEB5
:10411C00240BF582EF3400F583C3E098A3E09950AB
:10412C00358E828F83A3A3A3A3A3A3A3C082C08332
:10413C00EE240BF582EF3400F583E0F8A3E0F9D020
:10414C0083D082E0C398F8A3E099F9C3E894AAE974
:10415C0094105035803BEE240BF582EF3400F58340
:10416C00C082C0838E828F83A3A3A3A3A3A3A3E047
:10417C00F8A3E0F9D083D082E0C398F8A3E099F9D2
:10418C00C3E894ABE994105008900500E06401700A
:10419C0030EE241DF582EF3400F583E4F0A3F08EAD
:1041AC00828F83A3A3A3A3A3E02401F8A3E034008C
:1041BC00F98E828F83A3A3A3A3A3A3A3E8F0A3E9FF
:1041CC00F0EE2474F582EF3400F583E064016003B3
:1041DC00024444EE2475F582EF3400F5831214D4B6
:1041EC008E828F83A3A3A3A3A3A3A3E0FCA3E0FDD0
:1041FC008E828F83A3A3A3A3A3E0FAA3E0FB1217E1
:10420C00DE7402121269E97003024444EE2475F85C
:10421C00EF3400F9880889098882F583E0F8A3E077
:10422C00F9850A82850B83E8F0A3E9F0EE2477FC8C
:10423C00EF3400FDEEFAEFFB1208BAEE247CF582A7
:10424C00EF3400F583E0F8A3E0F9EE2420F582EFDB
:10425C003400F583E8F0A3E9F0EE241CF582EF348A
:10426C0000F583E4F0EE241DF582EF3400F583E4D1
:10427C00F0A3F0EE240FF582EF3400F5837401F017
:10428C00850A82850B83E0F8A3E0F9EE240DF58214
:10429C00EF3400F583E028F8A3E039F9EE240BF5B0
:1042AC0082EF3400F583E8F0A3E9F08E828F83A3CC
:1042BC00A3A3A3A3E0FCA3E0FD850882850983E00A
:1042CC00FAA3E0FB12181B8A088B09EE242EF58248
:1042DC00EF3400F583E0FAA3E0FBE4F50AF50B8A72
:1042EC000C8B0DF50EF50F7808790C120F74EE246B
:1042FC0078F582EF3400F583E0F50CA3E0F50D784A
:10430C0008790C12109CEE247AF582EF3400F583B8
:10431C00E06A7003A3E06B7044EE247EF582EF3408
:10432C0000F583E0F8A3E0F9EE2432F582EF3400D7
:10433C00F583E0687003A3E0697022EE247CF582BB
:10434C00EF3400F583E0F8A3E0F9EE2430F582EFCA
:10435C003400F583E0687003A3E0696052EE247EBC
:10436C00F582EF3400F583E0F50CA3E0F50D740451
:10437C00780C121231780C1214BDEE247CF582EFFD
:10438C003400F5831214D4EE247AF582EF3400F560
:10439C0083E0FCA3E0C313FDEC13FC8E828F83A39C
:1043AC00A3A3A3E0FA7B0012065C7404121269EE5C
:1043BC002477F582EF3400F583E0C0E0EE242BF592
:1043CC0082EF3400F583D0E0F0EE247AF582EF34FE
:1043DC0000F583E0F8A3E0F9EE242EF582EF34002B
:1043EC00F583E8F0A3E9F0EE247CF582EF3400F5D8
:1043FC0083E0F8A3E0F9EE2430F582EF3400F58386
:10440C00E8F0A3E9F0EE247EF582EF3400F583E0CA
:10441C00F8A3E0F9EE2432F582EF3400F583E8F0EE
:10442C00A3E9F0EEFAEFFB1208C0EE2474F582EF6C
:10443C003400F583E4F08016EE242EF582EF340080
:10444C00F583E0F508A3E0F509E4F50AF50BEE2495
:10445C0018F582EF3400F5837808120F20701EEEE9
:10446C00241FF582EF3400F583E0F8EE241DF5826D
:10447C00EF3400F583E0687002A3E06039EE24129B
:10448C00F50CEF3400F50D780C1214BDEE2410F57C
:10449C0082EF3400F5831214D4EE241DF582EF3430
:1044AC0000F5831214D4AA08AB09AC0AAD0B121C8C
:1044BC00BE7406121269EE2418F582EF3400F583EF
:1044CC007808121132EE241DF582EF3400F583E0EA
:1044DC00C0E0EE241FF582EF3400F583D0E0F0EE5F
:1044EC002412FCEF3400FD8E828F83E02402FAA3A9
:1044FC00E03400FB121C00906062E060147CE87DEC
:10450C00828E828F83E02402FAA3E03400FB121C1B
:10451C00008E828F83E0F8A3E0F988828983A3A3BD
:10452C00E82408FCE93400FD74061211668E828FB3
:10453C0083E02402F8A3E03400F9E8FAE9FBEE2466
:10454C001DF582EF3400F583E0F50CA3E0F50DE4E6
:10455C00F50EF50F90835C780C1210AF780C79087F
:10456C00120F748A828B83780C1210C2908340785D
:10457C000C1211238A828B83780C1211109004FE7A
:10458C00E0640160030246BE7901120A048E828F38
:10459C0083E0F8A3E0F9908350121141E8240EF562
:1045AC0082E93400F58312114DE82412F8E9340045
:1045BC00F9E8FAE9FBEE2412F582EF3400F5837882
:1045CC0008121123E50875F0E2A4C508A8F075F0EF
:1045DC0004A428F875F0E2E509A428F5098A828B71
:1045EC0083E02508F0A3E03509F0EE2416F582EF00
:1045FC003400F583E0F508A3E0F50974047808129B
:10460C001231E5082401F8E5093400F98A828B831C
:10461C00E028F0A3E039F0906062E08E828F837026
:10462C000302472AE02412F8A3E03400F9888289B7
:10463C0083E02410F0A3E03401F0EE240FF582EFB8
:10464C003400F583E06031EE242BF582EF3400F575
:10465C0083E0F875F071A4C8AAF075F002A42AF9E9
:10466C008E828F83E02412FAA3E03400FB8A828BC3
:10467C0083E028F0A3E039F08E828F83E02414F8D5
:10468C00A3E03400F9888289837410F08E828F83C2
:10469C00E02416F8A3E03400F9888289837442F090
:1046AC00A37408F0EEFAEFFB12166A79007F080289
:1046BC00137C9083247808120F555003024599EE11
:1046CC00241DF582EF3400F583E0F8A3E0F9E84906
:1046DC00600302459978081214B9EEFAEFFB120840
:1046EC00C67404121269E964016003024599EE2450
:1046FC000FF582EF3400F583E060128E828F83A376
:10470C00A3A3A3A3E064057002A3E060047908806E
:10471C0002793EEEFAEFFB1208AE7901808FE024AD
:10472C0012F8A3E03400F988828983E02410F8A3FE
:10473C00E034FFF97A717B021211C888088909EEFE
:10474C00242EF582EF3400F583E0F8A3E0F9C3E5FD
:10475C000898E50999500302464680B174F6121286
:10476C00AAEAFEEBFF803B9003C8E07003024A9874
:10477C00EEFAEFFB120884EE24A4F508EF3400F5F2
:10478C000978081214BDEE249CFCEF3400FD8E82D7
:10479C008F83A3A3A3A3E0FA7B0012066874021212
:1047AC001269EE246FF582EF3400F583E0607CEE45
:1047BC00246BF582EF3400F583E024FE603224FE96
:1047CC00606D14700302485614700302493714705C
:1047DC0003024C1124FE7003024ACC24FE70030227
:1047EC004A02147003024B24147003024A5780B21D
:1047FC00EE246AF582EF3400F583E06401701990C1
:10480C0003C7E07003024A987916EEFAEFFB120820
:10481C00AE79017F0202137CEEFAEFFB120872EE06
:10482C00246AF582EF3400F583E9F0790080E4EE38
:10483C00246AF582EF3400F583E0640170030247CB
:10484C0073EEFAEFFB12084880D5EE246AF582EF7E
:10485C003400F583E0640170579003C8E06033EED8
:10486C002483F582EF3400F5837401F090834412B5
:10487C001141EE24D5F582EF3400F58312114D90E1
:10488C008344121141EE24D9F582EF3400F58312E2
:10489C00114DEE24DFF582EF3400F583E064016006
:1048AC0003024A987906EEFAEFFB12088A0247AE29
:1048BC00EE24D3F582EF3400F583E064017028EE2A
:1048CC00FAEFFB12084EE964017019EE24DFF58251
:1048DC00EF3400F583E4F0EE246AF582EF3400F552
:1048EC00837401F0024837EE24D4F582EF3400F5DE
:1048FC0083E060F0EE24B3F508EF3400F509780896
:10490C001214BDEE248CFCEF3400FDEE24C3FAEF40
:10491C003400FB1208FC7402121269EE24D3F582E7
:10492C00EF3400F5837401F00247AEEE246AF58291
:10493C00EF3400F583E0640160030249F89003C88A
:10494C00E07003024A98EE2420F582EF3400F583E0
:10495C00E0F8A3E0F9EE241DF582EF3400F583E8CE
:10496C00F0A3E9F0EEFAEFFB120884EE2462F58274
:10497C00EF3400F5837401F0EE2468F582EF340017
:10498C00F5837401F0EE24DDF582EF3400F583E05D
:10499C006401701379008E828F83A3A3A3A3E0FA22
:1049AC007B0012067480137C0179008E828F83A3A6
:1049BC00A3A3A3E0FA7B0012066EEE24DDF582EFD2
:1049CC003400F583E4F0EE24E1F582EF3400F58356
:1049DC00E4F0EE24E0F582EF3400F583E4F0EE240D
:1049EC00DFF582EF3400F583E4024933EEFAEFFB96
:1049FC0012085402482BEE246AF582EF3400F5833A
:104A0C00E064017019EE24E0F582EF3400F583E0E8
:104A1C0064017078EEFAEFFB1208840247AEEEFAEE
:104A2C00EFFB12085AE964016003024837EE24E0F8
:104A3C00F582EF3400F583E4F0EE2483F582EF3455
:104A4C0000F583E4F0EE246A02492AEE246AF5822A
:104A5C00EF3400F583E06401705C9003C8E06026DD
:104A6C00EE2483F582EF3400F583E4F0EE2462F556
:104A7C0082EF3400F5837401F0EE2468F582EF3494
:104A8C0000F5837401F09003C7E07088EE2472F88F
:104A9C00EF3400F988828983E024FFF0A3E034FF2F
:104AAC00F088828983E0F8A3E0F9E84960030248C2
:104ABC00377922024816EEFAEFFB12086002482BF7
:104ACC00EE246AF582EF3400F583E06401703490D3
:104ADC0003C8E060B7EE24E2F582EF3400F583748E
:104AEC0001F0EE2420F582EF3400F583E0F8A3E02A
:104AFC00F9EE241DF582EF3400F583E8F0A3E9F01C
:104B0C00024A20EEFAEFFB120866EE246AF582EFF9
:104B1C003400F583E90248EFEE246AF582EF3400A5
:104B2C00F583E064016003024BFAEE24EBF582EFAF
:104B3C003400F583E064017051EE24ECF582EF341F
:104B4C0000F583E064016003024A20EE24F1F58253
:104B5C00EF3400F5831214D4EE24EFF582EF340019
:104B6C00F5831214D4EE24EEF582EF3400F583E0D5
:104B7C00FC8E828F83A3A3A3A3E0FA7B007900129F
:104B8C0006627404121269024A20EE2472F8EF34A1
:104B9C0000F988828983E024FFF0A3E034FFF088D9
:104BAC00828983E0F8A3E0F9E8496003024837EE14
:104BBC0024F1F582EF3400F5831214D4EE24EFF5D2
:104BCC0082EF3400F5831214D4EE24EEF582EF3428
:104BDC0000F583E0FC8E828F83A3A3A3A3E0FA7B72
:104BEC000079221206627404121269024ABDEE2484
:104BFC00EDF582EF3400F5837401F0EEFAEFFB1261
:104C0C00086C02482BEEFAEFFB120878E96401609D
:104C1C0003024837024A2074F71212AAE99002DC08
:104C2C00F07C147D037AFF7BFF1205849002DD7407
:104C3C00FFF0A3F0A3E4F0A3F0790512051E900297
:104C4C00DCE0F91204587A907B0512072E025A6D9B
:104C5C0074F41212AA8A088B09EB5480603090020B
:104C6C00DCE0F9120C328A0A8B0BAE0AAF0BEE4F5A
:104C7C0060138E828F83E064B0700312052AEEFA03
:104C8C00EFFB120C20AA08E5096480FB80047A0073
:104C9C007B00024D2EF0A3125EABA32274F2121213
:104CAC00AA890AE975F017A4FEAFF09002E1E4F0CE
:104CBC009002DF124D28600A120C8C9002DFE4F097
:104CCC00A3F0EEFAEFFB120C868A088B09EA450971
:104CDC00602FEEFCEFFD7900120C0E9002DFE50860
:104CEC00F0A3E509F07B008008124D12E4F0A3F06C
:104CFC000BEBC3950A40F2E50A9002E1F0790080D3
:104D0C000279130260B3EB75F017A4F8A9F09002C6
:104D1C00DFE028FAA3E0398A82F583221256A9EA49
:104D2C004B227F0402137CC082C0839002E2124D9E
:104D3C0066601C88828983A3A3E06A7003A3E06B7E
:104D4C008882898370E8A3A3A3A31256A580047A52
:104D5C00007B00D083D0820201221260C0E849227D
:104D6C0074EE1212AA74FC121253EAFEEBFF8518B1
:104D7C0082851983E4F0A3F0EE24021259F7EE2495
:104D8C0005125EB2EE2404F50EEF12531EE024FE63
:104D9C00603924FC604624FE605224FE605E24FED2
:104DAC007003024E7F24FE7003024EE324FE700358
:104DBC00024EF224FE7003024F0124FC7003024FDA
:104DCC001024FE7003024F1F024F5C9002FB7417FD
:104DDC00F0A3E4124F71120242024F5C85188285D7
:104DEC001983AC82AD83120530024F2C8518828555
:104DFC001983AC82AD83120536024F2C850C0885C5
:104E0C000D09740212129EAC82AD8385088285094D
:104E1C00831256A51204768A0C8B0DAC0CAD0DECDE
:104E2C004D603BE4F50CF50D780C1214BD750CFBC4
:104E3C00750D02780C1214BD750CFC750D02780CF6
:104E4C001214BD740812129E1214D41260E41212C1
:104E5C0069E9F50C700B12569B12025A800F750CF7
:104E6C0001850882850983124F5F125A17850C0839
:104E7C00024F2F740212129EAC82AD83850C828578
:104E8C000D83125470603C850C82850D83A3A31294
:104E9C0014D47510FB75110278101214BD7510FC2A
:104EAC0075110278101214BD740812129E1214D4CB
:104EBC001260E4121269E9F509700B12569B12028A
:104ECC0060800F750901850C82850D83124F5F126E
:104EDC005A17850908804C851882851983AC82ADD8
:104EEC008312053C803A851882851983AC82AD8388
:104EFC00120542802B851882851983AC82AD8312F2
:104F0C000548801C851882851983AC82AD831205F7
:104F1C004E800D851882851983AC82AD83120554A1
:104F2C00E9F508E50860298E828F83A3E06414609C
:104F3C001F850E82850F83E09002FB124F69126071
:104F4C00BC9002FC125A17E508A3124F7112023CD6
:104F5C000259061260C085188285198322F08518C3
:104F6C008285198322F07CFB7D02850A82850B8366
:104F7C001256A92274EE1212AA74FC1212538A0A47
:104F8C008B0B8C0E8D0FEA2405F508EB3400F5091C
:104F9C007C157D0079007AFB7B02120C0EE508244F
:104FAC0002F50CE509125EB5851882851983858298
:104FBC001085831178101214BD850882850983A38E
:104FCC00A3A3A31254671214BDE5082405F510E53C
:104FDC00093400F51178101214BD850C82850D83EF
:104FEC001257BC12047074061212698A108B11AE1F
:104FFC0010AF11E50A2402F50AE50B1259FAEE4F2F
:10500C00700302513E8017740212129E1256A5882C
:10501C00828983EAF0A3EBF09002FBE004F09002AB
:10502C00FBE0C39405400302513EE4F510F5117802
:10503C00101214BD7510E475110278101214BD75A0
:10504C0010E575110278101214BD740612129E121E
:10505C0014D47910EEFCEFFD1260E6121269E970BF
:10506C005E850882850983A3A3A3A3A3A3A3E0F869
:10507C009002E4E06870481254671214BD7CE57D20
:10508C0002E5082408FAE5093400FB120C08740246
:10509C00121269E960298E828F83A3A3A3A31256EF
:1050AC00A59002FBE0F5107402781012124074FC0B
:1050BC002510F58274023511F583EAF0A3EBF07438
:1050CC000212129E85821085831178101214BD7401
:1050DC000212129E1214D4850C82850D831256CBAB
:1050EC001212698A108B11AE10AF119002FBE0F511
:1050FC00107511007402781012124074FB2510F810
:10510C0074023511F988828983A3124D2870030229
:10511C00500AE82403080808E93400F9EE4F60034C
:10512C000250138882898374FFF0A3F09002FBE095
:10513C0004F09002FBE0600A12569B12024E7900BA
:10514C00800B850882850983125A0E790A0259064A
:10515C0074EA1212AA74FE1212538C128D13EA24E2
:10516C0005F50CEB1260CE125EDE750800750900B9
:10517C00EA2402F510EB3400F511851882851983A9
:10518C0085820A85830B780A1214BD850C82850DE5
:10519C0083A3A3A3A31253341214BDE50C2405F569
:1051AC000AE50D1259FA780A1214BD850C82850D88
:1051BC008312533812047074061212698A0A8B0B0C
:1051CC00EA450B70030252D9EA2404F50EEB125394
:1051DC001E125EDE8A828B83A3A3A3E0F985108264
:1051EC008511831256AF60030252D9E4F514F515FC
:1051FC0078141214BD7514E475150278141214BDCC
:10520C007514E575150278141214BD740612129EED
:10521C001214D47913AC0AAD0B851082851183124C
:10522C0060EC121269E9F50960030252D99002E4AC
:10523C00E0F8E5087009E024029002FCF08014907C
:10524C0002FCE0FCE82402FAE43400FBEA6C700196
:10525C00EB707E850882AA8212545E941412545606
:10526C00506B850E82850F83E0C0E074FD2A1253CB
:10527C0015D0E0F00508850E82850F83A3E0C0E011
:10528C0085080A74FD250A125315D0E0F005089024
:10529C0002E41253341214BD7CE57D0285080A74B5
:1052AC00FD250A1253281212699002E4E02508F534
:1052BC000874FF6E700374FF6F6012EE24010EEF22
:1052CC003400FFE508C394145003025186E50860CE
:1052DC00131256B98510828511831256A5120254E9
:1052EC0079008014E509700375090A85128285130B
:1052FC0083EEF0A3EFF0A90974021212697F0E027B
:10530C00137C85080C74FD250CF58274023400F5B1
:10531C0083223400F50F850E82F58322FA74023451
:10532C0000FB120BF6740222125F1422A3A3125379
:10533C003E22125A05FDEEFAEFFB2274EE1212AA6F
:10534C0074FE1212538C0E8D0FEA2405F50CEB1221
:10535C005EB5750B009002FBE4F0F50AEA2402F549
:10536C0008EB3400F50980449002FBE0FA9002E46B
:10537C00E0F812545E9417125456400D9002FBE064
:10538C00F87416C3989002E4F01254671214BD7CA2
:10539C00E57D0274FC2AFA740212532B12126990E6
:1053AC0002E4E0F89002FBE028F0050AE50C241674
:1053BC00F582E50D125319E0F8E50AC39850749084
:1053CC0002FBE0C39416506BE50AC333F8E433F9DF
:1053DC00E50C28FEE50D39FF851882851983AC8212
:1053EC00AD838E828F831254707008750B01125A24
:1053FC000A8050E4F510F51178101214BD7510E404
:10540C0075110278101214BD7510E5751102781023
:10541C001214BD740612129E1214D47916850882C9
:10542C008509831260EC121269E9F50B70030253C3
:10543C007480BB7CFB7D028508828509831256A58E
:10544C00120266A90B7402025908E99400C365D0D4
:10545C003322EA28F8E43400F9E822E0F51075115B
:10546C00007810221258FD8A108B11AC10AD11EC83
:10547C004D2274EA1212AA74FC1212538A0C8B0D70
:10548C008C128D13EA2405F50AEB1259FA750800F3
:10549C00750900E50A2402F510E50B3400F51174CA
:1054AC000212129E85820E85830F780E1214BD8512
:1054BC000A82850B83A3A3A3A3125EBA1214BDE5C3
:1054CC000A2405F50EE50B3400F50F780E1214BD09
:1054DC00851082851183125A0012569F1204707423
:1054EC00061212698A0E8B0FAE0EAF0FE50C24025A
:1054FC00F50EE50D3400F50F80388882898374FF32
:10550C00F0050812530E74FFF005089002E4E0F564
:10551C000C750D00780C1214BD7CE57D0285080C11
:10552C0074FD250C1253281212699002E4E0250830
:10553C00F508EE4F60278E828F83A3A3A3E0F98535
:10554C000E82850F831256AFEE2404125EB2E96010
:10555C0027850C82850D83125691125A17E5087017
:10556C00030256771256B9850E82850F831256A503
:10557C0012026C790002568CE4F514F515781412AD
:10558C0014BD7514E475150278141214BD7514E568
:10559C0075150278141214BD740812129E1214D4CC
:1055AC007911EEFCEFFD850E82850F831260EC12F3
:1055BC001269E9F509709A850882AA82EA9002E4D8
:1055CC007009E024049002FCF08025E0F89002FCC5
:1055DC00E0F514E82404FCE43400FDEC65147001DF
:1055EC00ED708112545E94121254564003025570A1
:1055FC00850C82850D83E0C0E074FD2A125315D012
:10560C00E0F00508850C82850D83A3E0C0E0125301
:10561C000ED0E01256D485820C85830D780C1214B2
:10562C00BD740412129E1214D4851082851183123B
:10563C0056CB1212698A0C8B0DAE0CAF0D85080C73
:10564C0074FD250CF874023400F9EE4F700302550A
:10565C0006851882851983E0888289831256D4A323
:10566C00E0C0E012530ED0E0025514E5097003754A
:10567C00090A850A82850B83125691125A17A909B9
:10568C0074040253061260C0851282851383227C37
:10569C00FB7D02850A82850B831256A922E0FAA3B0
:1056AC00E0FB221256A912045EE9F509229002FCD5
:1056BC00E0F5F0E508849002FBF07CFB7D02221201
:1056CC00533E12047C740422F00508851882851957
:1056DC00832274EC1212AA74FE1212538A088B09DC
:1056EC008C0E8D0FEA2405FEEB3400FF1258E7EE0A
:1056FC002418125EB2EA450B700302578A1258D076
:10570C0050291257AF8A108B11EA4511606B791230
:10571C00AC0AAD0B8508828509831256A5851082CB
:10572C008511831212A8E9F50A7058E4F50AF50BF5
:10573C00780A1214BD8E828F83A3A3E0F50A780A2F
:10574C001214BDEE24031259F7780A1214BD8E827E
:10575C008F831257BC1205727406121269E9F50A8E
:10576C007021850C82850D83E0701F850882850968
:10577C00831256A51202728011750A0E8009750AE1
:10578C00018004E50A6003125A0A850C82850D8398
:10579C00E0600479008002A90A74021212697F0C7D
:1057AC0002137C8518828519831256A9120566226C
:1057BC00125A05FD8508828509831256A92274EEBA
:1057CC001212AA74FE1212538A088B098C0C8D0DBE
:1057DC00EA2405FEEB3400FF750E001258E7EA458B
:1057EC000B70030258AE1258D0502C1257AF8A0EC1
:1057FC008B0FEA450F604A7912AC0AAD0B85088213
:10580C008509831256A5850E82850F831212A8E98D
:10581C00F50E60030258B1850882850983125A8CF3
:10582C00AA0AFB1258C270147AFF7BFF1258C2608E
:10583C006C88828983E50AF0A3E50BF0750A008079
:10584C0007750E0E805F050A9002E1E0FAE50AC3C7
:10585C009A504AE50A75F017A4FAABF0888289834E
:10586C00A3A3E02AFAA3E03BFB8A828B83125A00A3
:10587C00EC4D70D2750A17750B00780A1214BDEE38
:10588C00FCEFFD120BF67402121269EEFCEFFD85B3
:10589C0008828509831256A51202788014750E09A8
:1058AC008003750E011260B8850C82850D83125A27
:1058BC0017A90E02545112055A8A108B11A810A95F
:1058CC0011E84922E5082402F508E5093400F50938
:1058DC008A828B83A3A3A3E0A2E522851882851973
:1058EC0083AC82AD838E828F831258FD8A0A8B0B18
:1058FC0022E0FAA3E0FB1204762274041212697FF0
:10590C000A02137C74EC1212AA8C108D11EA240575
:10591C00F50CEB125EB5750F00EA2402F50AEB12DA
:10592C0059FA850A82F5831256A512617270030228
:10593C0059EC750E008071850C82850D83E0640135
:10594C00704F8E828F83A3A31214D48E828F83A365
:10595C00A3A3A3E0F51275130078121214BDEE2464
:10596C0005F512EF3400F51378121214BD12569F80
:10597C001205727406121269E9F50F6014850C8217
:10598C00850D83E4F01260B8851082851183125A5C
:10599C00177C177D007900EEFAEFFB120C0E8E824D
:1059AC008F83E4F0A3F0050E9002E1E0F8E50EC35E
:1059BC0098501EE50E75F017A4F8A9F0850882859D
:1059CC000983A3A31260D8125A00EC4D600302594C
:1059DC004385088285098374FFF0A3F0E50F7006F8
:1059EC0012569F12027EA90F0257AAF50AEF340035
:1059FC00F50B22A3125A05FD22E0FCA3E0228E82B5
:105A0C008F831260C0850E82850F83E8F0A3E9F0C6
:105A1C0022C082C0839002DDE06A7003A3E06B7049
:105A2C00067ADD7B0280047A007B00024D5F74F7FE
:105A3C001212AA7F00EF75F003A4F8A9F0EC28F875
:105A4C00ED39F988828983E06A7003A3E06B7006F4
:105A5C00E8FAE9FB800B0FEFC3940240D87A007B85
:105A6C00007F0102137C74F61212AA125FC3700637
:105A7C007A007B008007A3A3A3A31256A50260841F
:105A8C00E0F50AA3E0F50B2274E81212AA74FB12DB
:105A9C001253E9851882851983F08A168B178C0EA0
:105AAC008D0F741F12129E125EF4742112129E122C
:105ABC005A8C742312129E125EDE7510008C828D2D
:105ACC0083A3A3A3E0A2E4502A741D12129E1257C2
:105ADC00B58A828B83E58245837003025BA0790AC9
:105AEC00AC0EAD0FAA16AB171212A8E9F510600395
:105AFC00025BA3850E82850F83E064026003025E65
:105B0C0059A31260BC850882850983A385821285FE
:105B1C008313E50E2406F50CE50F125EB588828919
:105B2C0083E0FAA3E0F9EA2400F514E439F51578DA
