:020000040000FA
:0600000002010A021CF6D9
:03002B0002213E71
:0300330002212087
:03005300021D6C1F
:03006B000220FA76
:10008300021BE7E5C754F84401F5C77901220000D4
:100093000080FB120086B900030200F4E4792178A2
:1000A30008B800028004F709D8FCE479297802B87B
:1000B30000028004F709D8FCE490028178C879072C
:1000C3008002F0A3D8FCD9FA900948AA82AB8390A6
:1000D300013A78BC79038015E493A3AC82AD838A9B
:1000E300828B83F0A3AA82AB838C828D83D8E9D9D8
:1000F300E7758226758394740312011C75829175CA
:100103008300740012011C75D00075813F7518813E
:10011300751902759F00020096C09FF59FE473D086
:100123009F22D083D082C09FE493C0E0740193C028
:10013300E0740293F59F22FF0000B400002800281A
:1001430000283075A000A000A000A000000800084F
:10015300E001F0001000100010001000100010006B
:1001630050005000500010001000D00700000000A5
:1001730000000F00010005003075070010000100AA
:1001830081FF0000FFF3051106F905FF02020208D3
:10019300025000A0000000E80302F492010000E70F
:1001A300920218930100009D09021693010000B208
:1001B300020218930100009E09020C93010000C87B
:1001C300020218930100009F0902FA92010000CA7B
:1001D30002021893010000A00902F892080000CB64
:1001E30002021893010000A10902EA92010000A291
:1001F30009FF0100FF2002F492010000E1920218BE
:1002030093010000060A02EC92000000000002EED7
:10021300920300001803230C230C230C230C230C40
:10022300230C230C230C230C230C230C230C230C53
:10023300F30E0B0FED0EFFFF020202020202020297
:1002430002010D000000100102F492010000E4928B
:10025300021893010000490A021093010000780775
:100263000218930100004A0A020A93010000B091A8
:100273000218930100004B0A0208930100005F91EA
:100283000218930100004C0A020693010000DD905E
:100293000218930100004D0A020493010000CB9061
:1002A3000218930100004E0A020293010000A79076
:1002B3000218930100004F0A020093010000B99055
:1002C300021893010000500A021E930100007B9163
:1002D300021893010000510A02FC92010000520A25
:1002E30001053F10FF000130750302010600000005
:1002F30000000000000000000000000000000000FB
:10030300000000000000000000FFFF0600800CE872
:100313000309094C4F53542D424C450512500020FC
:1003230003020A000201060302F0FF4C4F53542D4F
:10033300424C4500000000000000000000000000E7
:100343001F130000251308436861726163746572AB
:100353006973746963203100104368617261637467
:100363006572697374696320320002F492010000BC
:10037300DE92021893010000570B021C9303000046
:100383003B0902F092010000580B02189301000090
:10039300690B021493000000410902EE920300006E
:1003A300420902F0920100006A0B00000000000005
:1003B300000000000000000000000000000000003A
:1003C300000000000000000000000000000000002A
:1003D300000000000000000000000000000000001A
:1003E300000000000000000000000000000000000A
:1003F30000001201258E8603120125A58603120132
:1004030025D486031201250D8703120125358703A1
:100413001201256387031201257A870312012591AF
:100423008703120125A78703120125CE8703120133
:1004330025E18703120125F787031201250A8803A3
:100443001201252F88031201251E8B021201251D7F
:100453008C02120125528C02120125738C021201A7
:1004630025838C02120125A48C02120125B08D0272
:100473001201257D8E02120125F08E0212012576CE
:100483008F02120125B98F02120125F08F0212018A
:1004930025769002120125489102120125A69102A8
:1004A300120125BE91021201253892021201253B49
:1004B30092021201253E9202120125E592021201D7
:1004C30025FD92021201252D93021201254D93025F
:1004D3001201253B9402120125F19402120125EC2D
:1004E300D80212012514D90212012542D9021201A0
:1004F3002579D902120125E1D9021201252ADA024E
:1005030012012575DA02120125B3DA02120125F070
:10051300DA021201251EDB02120125C5DB021201DC
:1005230025CFDB02120125DCDB021201250FDC02E1
:10053300120125D1DC02120125DDDC02120125F5B1
:10054300DC02120125FFDC02120125EB8F031201ED
:1005530025F98F0312012511900312012529900318
:10056300120125A7B10112012545B201120125BDD2
:10057300B201120125D2B3011201250CB4011201FB
:1005830025B5B4011201258AB501120125EEB60184
:1005930012012545B701120125CCB701120125B37C
:1005A300B80112012500B9011201258EB90112010A
:1005B30025B2B90112012587BB01120125C8BB0170
:1005C300120125EABB011201256BBC01120125555D
:1005D300BD011201251BBE0112012551BE021201EC
:1005E3002523BF02120125CCBF021201250FC00231
:1005F3001201259CC00212012528C10212012509FE
:10060300C20212012538C20212012534C3021201AB
:10061300257CC3021201257EC402120125C2C40235
:10062300120125E8C402120125019203120125EEED
:10063300ED0212012504EE021201252AEE02120137
:100643002552EF021201255CEF02120125B5F002DB
:10065300120125B5F1021201255DC5021201259291
:10066300C602120125C5C6021201250FC7021201D7
:1006730025CDC8021201252293011201258593017C
:10068300120125CA9401120125DA9401120125FDF4
:100693009401120125489501120125ED95011201DE
:1006A30025E39601120125AD970112012525990134
:1006B300120125679901120125059A01120125529C
:1006C3009A01120125789A01120125669C011201F3
:1006D300256B9C011201254C9E01120125A09E0150
:1006E300120125029F011201252A9F01120125CE25
:1006F3009F0112012590A001120125C1A001120141
:1007030025C4A0011201250CA1011201254EA1014E
:10071300120125B5A1011201250080031201251341
:1007230080031201252C8003120125778003120117
:1007330025528103120125E181031201252C820335
:100743001201256021001201256C2100120125A54B
:100753002100120125EA2100120125A12200120124
:10076300252723001201258C2300120125B823001D
:10077300120125F12300120125052600120125E1AE
:100783002700120125CC2900120125032B00120199
:1007930025632D001201254F2E00120125952F00F0
:1007A300120125A23000120125BF3000120125F7E6
:1007B3003000120125113100120125793100120197
:1007C30025133600120125B4360012012505370022
:1007D3001201252C37001201257A370012012598C2
:1007E3003700120125EC3700120125C5380012012C
:1007F300254C3A00120125D43A0012012542D402B5
:100803001201254CD40212012517D50212012532FB
:10081300D50212012558D5021201259CD5021201D9
:1008230025D4D502120125FDD50212012576D60263
:100833001201258BD602120125A0D602120125D75B
:10084300D602120125EBD6021201251CD702120192
:100853002556D70212012582D702120125D8D702C5
:100863001201252CD80212012575D8021201259FE9
:10087300D802120125C4D8021201251EE602120174
:1008830025E8E602120125CBE70212012541E80221
:1008930012012583E802120125B0E9021201255F46
:1008A3007300120125887300120125A17300120140
:1008B30025E67400120125C47500120125E37500B5
:1008C300120125707600120125B37600120125006E
:1008D30078001201259F78001201251E7B0012016A
:1008E30025B57B00120125897C001201256B7D0053
:1008F300120125D77E001201256A7F00120125DD32
:100903008C03120125468D031201259A8D031201D2
:1009130025C18D0312012594DD0212012501DE029A
:100923001201254CDE0212012541DF021201253D91
:10093300E00212012527E1021201255F9E02120146
:1009430025A19E021201257B9F0212012554A002BC
:100953001201254FA1021201252EA2021201259A8E
:10096300A20212012561A302120125CCA3021201E6
:100973002533A4021201255EA402120125CFA4028D
:1009830012012562A502120125CBA502120125E061
:10099300A50212012528A60212012541A602120171
:1009A30025A6A602120125A9A6021201255CF802BA
:1009B30012012584F802120125C2F80212012580D2
:1009C300F902120125EBF90212012507FA021201BD
:1009D300252FFA021201255FFA021201256EFA028F
:1009E300120125E8FA021201250EFB021201257FEE
:1009F300A2011201251CA40112012502A601120164
:100A030025CCA60112012513A7011201255AA7011E
:100A13001201256CA701120125ACA701120125DBE8
:100A2300A70112012527A8011201255FA8011201C0
:100A3300258DA801120125DEA8011201256DA9014A
:100A43001201255BAC0112012535AE01120125719E
:100A5300AE01120125CBAF0112012512B001120123
:100A63002587B001120125D5B0011201250CB10172
:100A73001201255C950212012579950212012513B5
:100A83009B02120125159C021201258F9D02120162
:100A9300253D9E021201253B3B00120125843B00AC
:100AA300120125B13B00120125E43B00120125F19F
:100AB3003B00120125FD3B001201250F3C001201F2
:100AC30025E43C00120125423D00120125773D003B
:100AD300120125133F00120125603F0012012584F6
:100AE3003F00120125F13F0012012596400012013B
:100AF30025524100120125D14100120125954200E2
:100B0300120125A44200120125254300120125C428
:100B13004300120125F643001201259144001201FE
:100B230025EF4400120125294500120125AA45009D
:100B33001201257346001201251C4700120125A34B
:100B43004700120125FB47001201255C48001201F2
:100B5300258548001201253B4900120125854A00DD
:100B6300120125C84A00120125E54A001201250495
:100B73004B001201254F4B00120125744B0012014B
:100B8300259D4B001201250C4C001201254E4C00F3
:100B9300120125524D00120125EC4D00120125B81A
:100BA3004E00120125D14E0012012532F601120129
:100BB3002585F60112012591F60112012566F7013B
:100BC3001201258DF701120125C8F7011201253401
:100BD300F80112012568F801120125A1F80112019B
:100BE30025B9F80112012512F9011201252BF9018A
:100BF30012012574F90112012587F901120125A1BA
:100C0300F901120125B7F901120125D3FA011201E5
:100C130025E4FB0112012531FD0112012516FE0118
:100C2300120125F3FF021201254CE901120125806F
:100C3300E901120125EBEC0112012535EE01120148
:100C430025FFEE0112012589F00112012564F1014E
:100C53001201259EF101120125C1F10112012503A3
:100C6300F2011201250CF20112012556F2011201C3
:100C73002560F2011201250CF301120125E0F301B5
:100C830012012534F40112012596F401120125E91C
:100C9300F40112012518F50112012557F50112017E
:100CA30025034F001201255D5700120125635700EC
:100CB3001201251E5D001201250461001201250E9B
:100CC300F50212012584F5021201259AF50212019B
:100CD30025D7F5021201250FF6021201258CF60223
:100CE300120125C7F60212012542F7021201257EE1
:100CF300F70212012587F70212012593F702120169
:100D030025ADF702120125D2F702120125E8F702F9
:100D13001201252CF80212012580CF02120125931E
:100D2300CF02120125ADCF02120125D6CF02120147
:100D33002519D00212012558D00212012596D0029E
:100D4300120125FBD00212012510D1021201251B2D
:100D5300D10212012528D1021201253FD10212012D
:100D6300254DD10212012558D10212012564D10269
:100D730012012577D10212012582D102120125A584
:100D8300D1021201254ED2021201255ED2021201B6
:100D93002578D20212012595D202120125B1D20281
:100DA300120125D6D202120125E0D202120125F446
:100DB300D20212012513D30212012574D3021201A8
:100DC300257AD30212012580D30212012586D3028C
:100DD30012012592D302120125C5D302120125D394
:100DE300CE0112012555CF01120125FECF011201BB
:100DF3002546D10112012554D3011201253AD4010C
:100E03001201256FD40112012591D4011201253A53
:100E1300D5011201250AD70112012533D701120189
:100E230025ABD701120125DDD701120125EAD70130
:100E330012012535D80112012559D801120125AA1D
:100E4300DA01120125B4DB0112012510DC011201C4
:100E53002550C00112012561C10112012545C201BE
:100E63001201254FC20112012571C2011201257D14
:100E7300C20112012521C4011201254EC401120130
:100E83002564C501120125B9C50112012508C70151
:100E9300120125DDC70112012539C801120125A45C
:100EA300C801120125D9C8011201251CC90112016B
:100EB30025E6CB01120125FECB011201258FCC01C2
:100EC3001201259DCC01120125EACC01120125F85E
:100ED300CC0112012564CD01120125DFCD011201E0
:100EE3002536CE011201250080021201252280023F
:100EF300120125338202120125F284021201251CFC
:100F03008602120125DA8602120125C68702120122
:100F1300253AFE021201255FFE02120125D5FE02CB
:100F230012012534B7021201253DB70212012546ED
:100F3300B7021201251EB802120125CFB902120110
:100F430025FFB9021201252ABA021201255ABA0253
:100F530012012585BA02120125B9BA02120125E54B
:100F6300BA0212012528BB0212012553BB0212014A
:100F7300259ABB02120125EFBB0212012531BC02E7
:100F83001201258BBC02120125B6BC0212012505F4
:100F9300BD0212012535BD0212012560BD021201F9
:100FA300258EBD02120125B1BD021201258A9203CD
:100FB300120125B69203120125E39203120125EDD6
:100FC3009203120125FD920312012503AF021201C0
:100FD300250DAF021201254EAF0212012597AF0274
:100FE300120125D1AF0212012527B00212012548B3
:100FF300B002120125F7B20212012500B302120159
:101003002554B3021201257DB30212012587B302D1
:10101300120125F5B30212012585B402120125E060
:10102300B4021201250EB50212012596B502120172
:1010330025D5B5021201250AB6021201251CB602F6
:101043001201253BB60212012544B6021201250600
:10105300B702120125F48E031201259D84031201A8
:1010630025D3840312012507850312012554860322
:101073001201250793031201251D9303120125274E
:101083009303120125719303120125E9E102120171
:1010930025FCE102120125C0E202120125FFE20252
:1010A3001201251CE30212012555E302120125A2B8
:1010B300E302120125D4E3021201250BE40212011B
:1010C30025D98903120125FC89031201252B8A03E3
:1010D300120125C38A03120125DB8A031201251D90
:1010E3008B0312012556FB021201257BFB02120121
:1010F30025A5FB02120125D093031201255D610092
:10110300120125FC6200120125A7630012012527A5
:101113006400120125AC6400120125D5640012019C
:1011230025B068001201252769001201253E6A00D7
:10113300120125786A00120125B96A0012012500FF
:101143006C00120125566C001201259F6C001201E0
:10115300250E6D001201257A6D00120125AB6D007D
:10116300120125C36D00120125DC6E00120125EC6E
:101173006E00120125A27000120125B97000120140
:1011830025EB70001201258D7200120125217300D9
:10119300120125C29003120125D390031201257970
:1011A3009403120125B8940312012520950312011B
:1011B300257391031201258391031201259891034D
:1011C300120125FE9103120125F28D0312012577E9
:1011D3008E03120125DB8E03120125668B03120198
:1011E300258F8B03120125F78B03120125488C03EE
:1011F300120125A38C031201250AEA021201252FED
:10120300EA021201254CEA0212012569EA021201DF
:10121300258EEA02120125AFEA02120125D9EA025C
:1012230012012596EB0212012514EC021201253B53
:10123300EC0212012545EC021201256AED021201AE
:101243002531950312012541880312012593880353
:1012530012012506890312012573890312012556FC
:1012630082031201258082031201254F8303120199
:10127300252B8403120125CDA60212012599A7026D
:10128300120125DAA70212012514A8021201257200
:10129300A802120125C6A80212012524A9021201DF
:1012A30025BAA902120125C2AA021201254CAC02D9
:1012B300120125EAAC0212012551AD021201256487
:1012C300AD0212012558AE02120125A1AE02120190
:1012D300255DDC011201258FDF0112012520E101CB
:1012E30012012577E10112012594E1011201251470
:1012F300E20112012590E3011201255FE4011201CD
:1013030025CCE701120125B6E80112012583CA02A3
:1013130012012521CC02120125C7CC02120125732B
:10132300CD0212012586CE02120125B9CE02120189
:10133300253ACF02120125BFF10212012500F20264
:101343001201251DF20212012592F202120125E576
:10135300F202120125D2F302120125D5F402120181
:1013630025D3FF01120125C29403120125F894032A
:10137300120125E17F00E066701008A3E066700AA1
:1013830008A3E066700408A3E06622C3E796080991
:10139300E7960809E7960809E79622C3E09608A3AB
:1013A300E09608A3E09608A3E09622C008C3E0965F
:1013B300F50808A3E096420808A3E096420808A3AC
:1013C300E09645087001D3D00822080808EAC0E077
:1013D300EBC0E086F0E7A4FA180986F0E7A42AFA3E
:1013E300180986F0E7A42AFA180986F0E7A42AFA6E
:1013F3001986F0E7A4FBE5F02AFA190886F0E7A4BA
:101403002BFBE5F03AFA190886F0E7A42BFBE5F08D
:101413003AFA18180986F0E7A4C5F02BFBE43AFA68
:101423001908E7C5F0C6A426F6E5F03BFBE43AFA53
:101433001886F0E7A4F6E5F00826F6E43B08F6E4A0
:101443003A08F6D0E0FBD0E0FA22E4CFC0E0E4CEE5
:10145300C0E0E4CDC0E0E4CCC0E075F020C3E633E7
:10146300F608E633F608E633F608E633F6181818F6
:10147300EC33FCED33FDEE33FEEF33FFC3EC9709A2
:10148300ED9709EE9709EF97191919400FFFEC979C
:10149300FC09ED97FD09EE97FE191906D5F0BEEC90
:1014A300F709EDF709EEF709EFF7191919D0E0FC81
:1014B300D0E0FDD0E0FED0E0FF226016080808C6A9
:1014C300C313C618C613C618C613C618C613C6D583
:1014D300E0EA227009080808226016181818C6C323
:1014E30033C608C633C608C633C608C633C6D5E0F6
:1014F300EA22E627F60809E637F60809E637F6088A
:1015030009E637F622E026F608A3E036F608A3E05C
:1015130036F608A3E036F622E026F008A3E036F01C
:1015230008A3E036F008A3E036F022C3E697F608F6
:1015330009E697F60809E697F60809E697F622C33F
:10154300E096F008A3E096F008A3E096F008A3E085
:1015530096F022E056F608A3E056F608A3E056F606
:1015630008A3E056F622E056F008A3E056F008A3DD
:10157300E056F008A3E056F022E0F608A3E0F608F0
:10158300A3E0F608A3E0F622E6F008A3E6F008A33A
:10159300E6F008A3E6F022E0FAA3E0FBA3E0FCA355
:1015A300E0FD22EAF0A3EBF0A3ECF0A3EDF022CAF6
:1015B300C0E0E6F0A308DAFAD0E0FA22CAC0E0E01D
:1015C300A3C582CCC582C583CDC583F0A3C582CC18
:1015D300C582C583CDC583DAE6D0E0CA22C3E498C9
:1015E300F8E499F91216218026C3E49AFAE49BFBE6
:1015F300E920E7E9121621E498F8E499F922C3E413
:1016030098F8E499F9121621E498F8E499F9C3E4F7
:101613009AFAE49BFB22EB20E7CFE920E7E0B9004D
:1016230010BB0008E88AF084F8AAF022E4FBC8FAA9
:1016330022EB70227B10C833C8C933C9335007C3A8
:101643009AC3DBF280069A50012ADBEAC833F4C856
:10165300C933F4C9FA2275F008E4C833C8C933C9D9
:1016630033C99AC99B5004C92AC93BD5F0ECFBC8BE
:1016730033F4C8E4C9FA22600D08C6A2E713C618FA
:10168300C613C6D5E0F322600C08C6C313C618C63A
:1016930013C6D5E0F422700422600D18C6C333C606
:1016A30008C633C6D5E0F41822251810AF08F5187C
:1016B300400215198008F51840021519D2AF22C04F
:1016C300D0251810AF08F518500205198008F51831
:1016D30050020519D2AFD0D0222518F58210AF08D9
:1016E300F518400215198008F51840021519D2AFF4
:1016F300851983222518F582E43519F58322E473CD
:101703002518C582C0E0E51934FFC583C0E0E5189C
:10171300C3958224F810AF08858319858218800841
:10172300858319858218D2AFCEF0A3E520F0A37884
:1017330008E608F0A3DEFAEFF0A3E58124FAF8E661
:1017430008F0A3E608F0A3E608F0A30808E608F00B
:10175300A3E608F0A315811581D0E0FED0E0F815CB
:101763008115811581E8C0E0EEC0E0222518C5820D
:10177300C0E0E51934FFC583C0E0E518C3958224B2
:10178300F910AF0885831985821880088583198528
:101793008218D2AFCEF0A3E520F0A37808E608F0D4
:1017A300A3DEFAEFF0A3E58124FBF8E608F0A3E655
:1017B30008F0A30808E608F0A3E608F0A3158115CE
:1017C30081D0E0FED0E0F815811581E8C0E0EEC0DD
:1017D300E022851983851882E0A3FEE0A3F5207833
:1017E30008E0A3F608DFFAE0A3FFE0A3C0E0E0A36C
:1017F300C0E0E0A3C0E0E0A3C0E0E0A3C0E010AF1E
:10180300088582188583198008858218858319D2F3
:10181300AFD083D082020122851983851882E0A389
:10182300FEE0A3F5207808E0A3F608DFFAE0A3FFC3
:10183300E0A3C0E0E0A3C0E0E0A3C0E0E0A3C0E019
:1018430010AF0885821885831980088582188583DF
:1018530019D2AFD083D08222C0D02518C582C0E070
:10186300E51934FFC583C0E0E518C3958224F3105E
:10187300AF088583198582188008858319858218A6
:10188300D2AFC8F0A3E9F0A3EAF0A3EBF0A3790881
:10189300E709F0A3D8FAECF0A3EDF0A3EEF0A3EF81
:1018A300F0A3D0E0F0A3D0E0F0A3D0E0F0A3E520D4
:1018B300F0A3E5F0F0A322851983851882E0C0E048
:1018C300A3E0F9A3E0FAA3E0FBA37808E0F608A3FA
:1018D300DFFAE0FCA3E0FDA3E0FEA3E0FFA3E0C08A
:1018E300E0A3E0C0E0A3E0F5D0A3E0F520A3E0A3EC
:1018F300F5F010AF08858319858218800885831950
:10190300858218D2AFD082D083D0E0F8D0E0327491
:10191300048006740280027401C0E0F4041216DC31
:10192300D0E01215B2227404800474028000CCC08B
:10193300E0EDC0E0E518C39CCCAD1950011D10AF1C
:10194300068C188D1980068C188D19D2AF1215BF0D
:10195300D0E0FDD0E0FC22D083D082E9C0E0E49364
:10196300A3C386F0C5F095F0F908E493A386F0C508
:10197300F095F0700BE493A3C3994005E90480024A
:10198300A3E475F002A42582F582E5F03583F5839F
:10199300D0E0F9E493A3C0E0E493C0E022D083D085
:1019A30082ECC0E0EDC0E0E493A3FCE493A3FDED7F
:1019B3004C600D1219ECEC24FFFCED34FFFD80EFBD
:1019C300E493A3FCE493A3FDED4C600D121A2BECFE
:1019D30024FFFCED34FFFD80EFD0E0FDD0E0FCE41C
:1019E30093A3C0E0E493C0E022C0E0C3E49396086D
:1019F3007401939618400FE493667008087401937A
:101A0300661870007019A3A3C3E493960874019336
:101A13009618A3A3400DD0E0D0E0D0E00219DCA3D8
:101A2300A3A3A3A3A3D0E022C0E0C0F088F0E49373
:101A33006670080874019366187000A8F0A3A37079
:101A43000BD0F0D0E0D0E0D0E00219DCA3A3D0F0BB
:031A5300D0E022BE
:101A580074F512176FEAFEEBFFEE2434F8EF34004A
:101A6800F988088909EE2435121B90F8EE243712FC
:101A78001B90F50AEC850AF0A4FCAAF0850AF0EDA3
:101A8800A42AFDE82CF8E43DF97A257B00121621FA
:101A9800EA850882850983F05407F87401B80002C2
:101AA8008004C333D8FCC0E0E0131313541FF8EECE
:101AB80028F8EF3400F9E8245DF582E93400F5836D
:101AC800D0E0F8E0586008850882850983801DEE1B
:101AD8002436121B90F5F0EA84A8F0EE28F8EF34CB
:101AE80000F9E82438F582E93400F583E0F97F0449
:101AF80002181B74F512176FEAFEEBFFEE2434127E
:101B08001B90C0E0EE2435F582EF3400F583D0E079
:101B1800F08E828F83A3A3A3A3A3E0FAA3E0FB8E96
:101B2800828F83A3A3A3A3A3A3A3E0FCA3E0FDEC5C
:101B3800C39AF50AED9BF50BEE2480F508EF340007
:101B4800F509850882F583E06401702BEE2481F5A0
:101B580082EF3400F58312192D121B9974021216A4
:101B6800C2E960137CFD7D04EEFAEFFB120B518590
:101B78000882850983E4F0AC0AAD0BEEFAEFFB129C
:101B88001A581220EC021AF6F582EF3400F583E0B9
:101B980022C082C083851882851983E0F8A3E0F902
:101BA800C3EA9CEB9D5012C3EC98ED994019C3EA27
:101BB80098EB99501279018010C3EA98EB9940F597
:101BC800C3EC98ED9950EE7900D083D08222EAC315
:101BD8009CFAEB9DFB2200008521878522C622C046
:101BE800E074EF12185B759B00906182E0A2E640FA
:101BF80003021CA8E591A2E64003021CA87591BF48
:101C08009003C2E064057008120CEF120CFB80030D
:101C1800120CF5752100120D61E99003C3F07900EB
:101C2800120D55120ABB7A017B009003C1E0F9122C
:101C3800102B907803E064426003021CF190055F6A
:101C4800E014F06003021CF1C2AF121C5500782AA0
:101C5800D0E0F618D0E0F6E59F5407F970059092A9
:101C6800C280039092CA780812157CE9C4C0E07853
:101C780029E65508F50808E65509F509740B7808AA
:101C880012168AD0E02508F8906270E0A2E740F8C2
:101C9800E8C333906272F0906270E0D2E0F080495D
:101CA800E0A2E55024E591A2E5501E7591DF90036E
:101CB800C2E0640D70139003E4E004F0642870023D
:101CC800E4F07A00E0F9120DD3906181E0A2E350CC
:101CD80009E5E9A2E3500375E9F7A3E0A2E7500993
:101CE800E591A2E7500375917F7F040218BAC0E01E
:101CF800C0D0C082C083906183E0A2E05009E5BFF4
:101D0800A2E0500375BFFEE0A2E15009E5BFA2E1E1
:101D1800500375BFFDE0A2E25009E5BFA2E25003FF
:101D280075BFFBE0A2E35009E5BFA2E3500375BF0E
:101D3800F7E0A2E45009E5BFA2E4500375BFEFE065
:101D4800A2E55009E5BFA2E5500375BFDFE0A2E6B2
:101D58005009E5BFA2E6500375BFBFD083D082D03B
:101D6800D0D0E032C0E074F212185BE5A7A2E450CC
:101D78000FE5A1A2E4500953A7EF75A1EF121DC00A
:101D8800E5A7A2E5500CE5A1A2E5500653A7DF752B
:101D9800A1DFE5A7A2E15009E5A1A2E1500375A1E1
:101DA800FDE5A7A2E2500CE5A1A2E2500653A7FB6D
:101DB80075A1FB7F010218BA74F812176F7521011B
:101DC8009003C2E0640670077A007B00120CD7A269
:101DD800AFE433FED2AF9003C8E0640170187A20F4
:101DE8007B009003C1E0F91210AF7A207B009003CA
:101DF800C1E0F9121031906182E0D2E6F090055E00
:101E0800E0602185C62280169003C7E0640170084F
:101E1800E5C654F84405F5C653BEFC121BE0740130
:101E2800652160E4EEA2E092AF7F0102181B00007A
:101E38008E238F2485822885832785188285198398
:101E4800E0CEA3E0CF852882852783EBC9EAC8EDD9
:101E5800CBECCA75F010C3E833C8E933C9EA33CA12
:101E6800EB33CBC3EA9EF526EB9FF525B35004ABC5
:101E780025AA26EC33CCED33CDD5F0DAAE23AF244A
:101E88002274F112176F8A088B098C0A8D0B740F54
:101E98001216F7780C12157C90927E780812155657
:101EA80090927E780C1215567808790C12138E5081
:101EB800157808790C12152E90929E78081213AE98
:101EC800401579018013780C790812152E90929E8E
:101ED800780C1213AE40EB79007F0802181B74EDE2
:101EE80012176F8A088B098C0A8D0B74131216F758
:101EF800780C12157C90927E780812155690927E76
:101F0800780C121556780C790812138E401178083F
:101F1800790C12152EAA08AB09AC0AAD0B802275F4
:101F280010007511007512007513017810790C12E4
:101F3800152E781079081214F5AA10AB11AC12AD51
:101F4800137F0C02181B90927E780812157C8A82E7
:101F58008B8378081215697F0402181B74F5121711
:101F68006F8C828D83780812157C8A828B8378081F
:101F7800121542121FB8C3E098F0A3E099121FAAE5
:101F8800401E9092BE780812157C8A828B8378084E
:101F980012151B8E828F83E02420F0A3E0344EF0CC
:101FA80080A4F08E828F83C3E09420A3E0944E2215
:101FB800EA2404F8EB3400F9E8FEE9FF8C828D830B
:101FC800A3A3A3A3E0F8A3E0F98E828F832274F57C
:101FD80012176FE9FE900514E0FAA3E0FBEEC33395
:101FE800F8E433F9742128F582749139F583E02AED
:101FF800F508A3E03BF50978081219169092BA1271
:10200800159A121E3874021216C28A088B098C0A95
:102018008D0B741078081214BDAA08AB097F04024E
:10202800181B74F112176F8A0C8B0D8C0E8D0F74A0
:102038000F1216F7E0FAA3E0FB74111216F7E0F599
:1020480008A3E0F50974131216F7E0FEA3E0FF7881
:1020580008121916EA2401F508EB3400F509E4F52D
:102068000AF50B780C79081213CD90929A78081219
:10207800157C780C79081213CDAA0CAB0DAC0EADFB
:102088000F121E3874021216C28B09EA4509600441
:102098007A0180027A00EC2AFCED3400FDECF8EDC0
:1020A800F97A717B0212162188088909E4F50AF584
:1020B8000B8E828F83780812158BECF8EDF97A7104
:1020C8007B021216218A088B097405780812169962
:1020D8008E828F83A3A3A3A3E508F0A3E509F07F6D
:1020E8000802181BC082C083E9906000F0D083D03A
:1020F8008222C0E074F212185BA2AFE433FED2AFC2
:10210800E589A2E150031211F3758900C2C5EEA258
:10211800E092AF7F010218BAC0E074F212185BA215
:10212800AFE433FED2AFE58BA2E050031211F37592
:102138008B00C2E880D8C0E0C0D0E8C0E0E5A8D2F3
:0F214800AFC2C7A2E792AFD0E0F8D0D0D0E0325C
:10215800FFFFFFFFFFFFFFFFC082C083E9900A0572
:10216800F00223E474F7121703E99002E0F07C18F8
:102178007D037AFF7BFF1207D39002E174FFF0A37F
:10218800F0A3E4F0A3F0790512075B9002E0E0F910
:102198001206837AF17B071209B30230F274F41243
:1021A80017038A088B09EB548060309002E0E0F94D
:1021B8001210138A0A8B0BAE0AAF0BEE4F60138E08
:1021C800828F83E064B07003120773EEFAEFFB129C
:1021D8001001AA08E5096480FB80047A007B0002EC
:1021E80023B374F212170374FC1216ACEAFEEBFF69
:1021F80074121216F71235D9EE4F700302228D743D
:10220800021216F7EEF0A3EF1225EEECF0A3ED1292
:1022180025EEAA82AB8312067DE9F50A706AE50805
:10222800450960648E828F831235BFEE4F60567AFF
:10223800067B001210678A0C8B0DA80CA90DE849C3
:102248007005750A13804188828983E412229AEE08
:10225800F0A3EF1235EAE508F0A3E509F09002E6ED
:102268001223219002E6700512309C801B12308ADE
:102278008003EAFCEBFD8C828D8312232170F38CA2
:10228800828D8380E3750A02A90A74041216C202B9
:1022980037D9F0A3123590A32274F2121703890AD2
:1022A800E975F017A4FEAFF09002E5E4F09002E3C0
:1022B800122321600A12106D9002E3E4F0A3F0EEFD
:1022C800FAEFFB1210678A088B09EA4509602FEEBE
:1022D800FCEFFD7900120FE99002E3E508F0A3E5B1
:1022E80009F07B00800812230BE4F0A3F00BEBC38A
:1022F800950A40F2E50A9002E5F079008002791328
:102308000237D9EB75F017A4F8A9F09002E3E0289A
:10231800FAA3E0398A82F58322122D2EEA4B227421
:10232800F4121703740C1216F71235B4FEE9FF7590
:102338000800750900800CE5082401F508E5093452
:1023480000F509C3E5089CE5099D503285080A8512
:10235800090B7403780A121699EA250AF8EB350B6B
:10236800F988828983A3A3A3A3A3A3123171EE657D
:102378000A7003EF650B70BFE8FAE9FB80047A0086
:102388007B00802774F41217037900EAA2E0501B3F
:1023980075084875099278081219167C047D007A28
:1023A800077B0A12075574021216C27F040217D55A
:1023B800C082C0839002E61223EB601C8882898366
:1023C800A3A3E06A7003A3E06B8882898370E8A303
:1023D800A3A3A3122D2A80047A007B00D083D08285
:1023E8000201221238BFE8492274EE12170374FC66
:1023F8001216ACEAFEEBFF851882851983E4F0A378
:10240800F0EE240212307CEE2405123597EE2404F7
:10241800F50EEF1229A3E024FE603924FC6046245F
:10242800FE605224FE605E24FE700302250424FE32
:10243800700302256824FE700302257724FE7003CA
:1024480002258624FC700302259524FE70030225CC
:10245800A40225E19002FF7417F0A3E41225F612F6
:1024680003FB0225E1851882851983AC82AD8312AE
:1024780007790225B1851882851983AC82AD83124C
:10248800077F0225B1850C08850D0974021216F71D
:10249800AC82AD83850882850983122D2A1206A194
:1024A8008A0C8B0DAC0CAD0DEC4D603BE4F50CF5D6
:1024B8000D780C121916750CFF750D02780C12198F
:1024C80016750C00750D03780C121916740812167F
:1024D800F712192D123A3B1216C2E9F50C700B12BD
:1024E8002D20120413800F750C018508828509833D
:1024F8001225E412309C850C080225B474021216C9
:10250800F7AC82AD83850C82850D83122AF5603C79
:10251800850C82850D83A3A312192D7510FF7511E3
:102528000278101219167510007511037810121917
:102538001674081216F712192D123A3B1216C2E930
:10254800F509700B122D20120419800F75090185E9
:102558000C82850D831225E412309C850908804C75
:10256800851882851983AC82AD83120785803A85E8
:102578001882851983AC82AD8312078B802B85184E
:1025880082851983AC82AD83120791801C851882DD
:10259800851983AC82AD83120797800D85188285D3
:1025A8001983AC82AD8312079DE9F508E508602917
:1025B8008E828F83A3E06414601F850E82850F834B
:1025C800E09002FF1225EE1238BB90030012309CF7
:1025D800E508A31225F61203F5022F8B1238BF85E2
:1025E800188285198322F085188285198322F07C48
:1025F800FF7D02850A82850B83122D2E2274EE122E
:10260800170374FC1216AC8A0A8B0B8C0E8D0FEA1A
:102618002405F508EB3400F5097C157D0079007A6E
:10262800FF7B02120FE9E5082402F50CE5091235D3
:102638009A851882851983858210858311781012EE
:102648001916850882850983A3A3A3A3122AEC126D
:102658001916E5082405F510E5093400F511781078
:10266800121916850C82850D83122E4112069B7451
:10267800061216C28A108B11AE10AF11E50A240299
:10268800F50AE50B12307FEE4F70030227C380175F
:1026980074021216F7122D2A88828983EAF0A3EBB6
:1026A800F09002FFE004F09002FFE0C394054003BD
:1026B8000227C3E4F510F51178101219167510E801
:1026C80075110278101219167510E9751102781033
:1026D80012191674061216F712192D7910EEFCEF5E
:1026E800FD123A3D1216C2E9705E8508828509839B
:1026F800A3A3A3A3A3A3A3E0F89002E8E06870480B
:10270800122AEC1219167CE97D02E5082408FAE57C
:10271800093400FB120FE374021216C2E960298E15
:10272800828F83A3A3A3A3122D2A9002FFE0F510A2
:102738007402781012169974002510F58274033506
:1027480011F583EAF0A3EBF074021216F7858210F4
:10275800858311781012191674021216F712192DA2
:10276800850C82850D83122D501216C28A108B118A
:10277800AE10AF119002FFE0F510751100740278E9
:102788001012169974FF2510F874023511F9888211
:102798008983A3122321700302268FE824030808E3
:1027A80008E93400F9EE4F6003022698888289838D
:1027B80074FFF0A3F09002FFE004F09002FFE060E5
:1027C8000A122D201204077900800B8508828509DA
:1027D80083123093790A022F8B74EA12170374FE5E
:1027E8001216AC8C128D13EA2405F50CEB123A255F
:1027F8001235C3750800750900EA2402F510EB3498
:1028080000F51185188285198385820A85830B78DE
:102818000A121916850C82850D83A3A3A3A3122976
:10282800B9121916E50C2405F50AE50D12307F7862
:102838000A121916850C82850D831229BD12069B72
:1028480074061216C28A0A8B0BEA450B700302291A
:102858005EEA2404F50EEB1229A31235C38A828B93
:1028680083A3A3A3E0F9851082851183122D346018
:102878000302295EE4F514F5157814121916751477
:10288800E875150278141219167514E97515027889
:102898001412191674061216F712192D7913AC0AA8
:1028A800AD0B851082851183123A431216C2E9F5E1
:1028B80009600302295E9002E8E0F8E5087009E083
:1028C8002402900300F08014900300E0FCE8240246
:1028D800FAE43400FBEA6C7001EB707E850882AA8A
:1028E80082122AE39414122ADB506B850E82850F1C
:1028F80083E0C0E074012A12299AD0E0F005088527
:102908000E82850F83A3E0C0E085080A7401250ABA
:1029180012299AD0E0F005089002E81229B9121994
:10292800167CE97D0285080A7401250A1229AD1270
:1029380016C29002E8E02508F50874FF6E7003746B
:10294800FF6F6012EE24010EEF3400FFE508C39418
:1029580014500302280BE5086013122D3E851082DF
:10296800851183122D2A12040D79008014E509704F
:102978000375090A851282851383EEF0A3EFF0A987
:102988000974021216C27F0E0217D585080C74014D
:10299800250CF58274033400F583223400F50F8585
:1029A8000E82F58322FA74033400FB120FD17402ED
:1029B800221235F922A3A31229C32212308AFDEE6E
:1029C800FAEFFB2274EE12170374FE1216AC8C0E8B
:1029D8008D0FEA2405F50CEB12359A750B00900261
:1029E800FFE4F0F50AEA2402F508EB3400F5098063
:1029F800449002FFE0FA9002E8E0F8122AE3941704
:102A0800122ADB400D9002FFE0F87416C39890027A
:102A1800E8F0122AEC1219167CE97D0274002AFAF1
:102A280074031229B01216C29002E8E0F89002FF6F
:102A3800E028F0050AE50C2416F582E50D12299E1A
:102A4800E0F8E50AC39850749002FFE0C39416506A
:102A58006BE50AC333F8E433F9E50C28FEE50D39D4
:102A6800FF851882851983AC82AD838E828F83128D
:102A78002AF57008750B0112308F8050E4F510F5B7
:102A88001178101219167510E875110278101219BC
:102A9800167510E9751102781012191674061216B7
:102AA800F712192D7916850882850983123A43127F
:102AB80016C2E9F50B70030229F980BB7CFF7D0281
:102AC800850882850983122D2A12041FA90B740216
:102AD800022F8DE99400C365D03322EA28F8E43444
:102AE80000F9E822E0F510751100781022122F8203
:102AF8008A108B11AC10AD11EC4D2274EA12170339
:102B080074FC1216AC8A0C8B0D8C128D13EA2405FA
:102B1800F50AEB12307F750800750900E50A2402F2
:102B2800F510E50B3400F51174021216F785820EC4
:102B380085830F780E121916850A82850B83A3A345
:102B4800A3A312359F121916E50A2405F50EE50B05
:102B58003400F50F780E121916851082851183122C
:102B68003085122D2412069B74061216C28A0E8B0B
:102B78000FAE0EAF0FE50C2402F50EE50D3400F58F
:102B88000F80388882898374FFF0050812299374AE
:102B9800FFF005089002E8E0F50C750D00780C12BE
:102BA80019167CE97D0285080C7401250C1229ADE3
:102BB8001216C29002E8E02508F508EE4F60278E4D
:102BC800828F83A3A3A3E0F9850E82850F83122D3C
:102BD80034EE2404123597E96027850C82850D832D
:102BE800122D1612309CE5087003022CFC122D3EA3
:102BF800850E82850F83122D2A1204257900022D55
:102C080011E4F514F51578141219167514E87515EC
:102C18000278141219167514E97515027814121928
:102C28001674081216F712192D7911EEFCEFFD85AE
:102C38000E82850F83123A431216C2E9F509709A7B
:102C4800850882AA82EA9002E87009E024049003C9
:102C580000F08025E0F8900300E0F514E82404FC77
:102C6800E43400FDEC65147001ED7081122AE394E0
:102C780012122ADB4003022BF5850C82850D83E0B6
:102C8800C0E074012A12299AD0E0F00508850C8268
:102C9800850D83A3E0C0E0122993D0E0122D598559
:102CA800820C85830D780C12191674041216F7120B
:102CB800192D851082851183122D501216C28A0C87
:102CC8008B0DAE0CAF0D85080C7401250CF8740340
:102CD8003400F9EE4F7003022B8B85188285198317
:102CE800E088828983122D59A3E0C0E0122993D08D
:102CF800E0022B99E509700375090A850A82850B9C
:102D080083122D1612309CA909740402298B1238DB
:102D1800BF851282851383227CFF7D02850A828506
:102D28000B83122D2E22E0FAA3E0FB22122D2E1285
:102D38000689E9F50922900300E0F5F0E50884909A
:102D480002FFF07CFF7D02221229C31206A7740439
:102D580022F005088518828519832274EC1217035E
:102D680074FE1216AC8A088B098C0E8D0FEA2405A6
:102D7800FEEB3400FF122F6CEE2418123597EA454B
:102D88000B7003022E0F122F555029122E348A1061
:102D98008B11EA4511606B7912AC0AAD0B8508827C
:102DA800850983122D2A851082851183121701E95E
:102DB800F50A7058E4F50AF50B780A1219168E828E
:102DC8008F83A3A3E0F50A780A121916EE240312DA
:102DD800307C780A1219168E828F83122E411207C0
:102DE800C174061216C2E9F50A7021850C82850D98
:102DF80083E0701F850882850983122D2A12042B0F
:102E08008011750A0E8009750A018004E50A6003BD
:102E180012308F850C82850D83E060047900800272
:102E2800A90A74021216C27F0C0217D5851882856A
:102E38001983122D2E1207AF2212308AFD850882BF
:102E4800850983122D2E2274EE12170374FE1216B2
:102E5800AC8A088B098C0C8D0DEA2405FEEB340036
:102E6800FF750E00122F6CEA450B7003022F331208
:102E78002F55502C122E348A0E8B0FEA450F604ABC
:102E88007912AC0AAD0B850882850983122D2A8533
:102E98000E82850F83121701E9F50E6003022F36A3
:102EA800850882850983123171AA0AFB122F47709F
:102EB800147AFF7BFF122F47606C88828983E50AAA
:102EC800F0A3E50BF0750A008007750E0E805F050C
:102ED8000A9002E5E0FAE50AC39A504AE50A75F055
:102EE80017A4FAABF088828983A3A3E02AFAA3E0A7
:102EF8003BFB8A828B83123085EC4D70D2750A17A2
:102F0800750B00780A121916EEFCEFFD120FD1743A
:102F1800021216C2EEFCEFFD850882850983122D88
:102F28002A1204318014750E098003750E011238B7
:102F3800B7850C82850D8312309CA90E022AD61201
:102F480007A38A108B11A810A911E84922E50824C3
:102F580002F508E5093400F5098A828B83A3A3A347
:102F6800E0A2E522851882851983AC82AD838E8222
:102F78008F83122F828A0A8B0B22E0FAA3E0FB12BE
:102F880006A12274041216C27F0A0217D574EC1225
:102F980017038C108D11EA2405F50CEB12359A7580
:102FA8000F00EA2402F50AEB12307F850A82F583C6
:102FB800122D2A123AC97003023071750E00807101
:102FC800850C82850D83E06401704F8E828F83A308
:102FD800A312192D8E828F83A3A3A3A3E0F51275E4
:102FE80013007812121916EE2405F512EF3400F5C5
:102FF800137812121916122D241207C1740612160C
:10300800C2E9F50F6014850C82850D83E4F012384F
:10301800B785108285118312309C7C177D0079005A
:10302800EEFAEFFB120FE98E828F83E4F0A3F0052E
:103038000E9002E5E0F8E50EC398501EE50E75F017
:1030480017A4F8A9F0850882850983A3A3123A2F4B
:10305800123085EC4D6003022FC8850882850983EC
:1030680074FFF0A3F0E50F7006122D24120437A99F
:103078000F022E2FF50AEF3400F50B22A312308A27
:10308800FD22E0FCA3E0228E828F831238BF850EDA
:1030980082850F83E8F0A3E9F022C082C083900202
:1030A800E1E06A7003A3E06B70067AE17B028004BA
:1030B8007A007B000223E474F71217037F00EF7590
:1030C800F003A4F8A9F0EC28F8ED39F9888289838F
:1030D800E06A7003A3E06B7006E8FAE9FB800B0F67
:1030E800EFC3940240D87A007B007F010217D574A1
:1030F800F61217031236A870067A007B008007A321
:10310800A3A3A3122D2A02376974F2121703E9FE4A
:10311800740E1216F712317174101216F71235D98F
:103128008C828D83E06402703BA31238BB8882894D
:1031380083E0F50CA3E0F9A80C7402687003742905
:10314800697021750C02750D00780C121916780833
:10315800121916780A121916EEF91207E5740612F2
:1031680016C2800279010237D9E0F50AA3E0F50B0F
:103178002274E812170374FB1216ACE985188285CD
:103188001983F08A168B178C0E8D0F741F1216F781
:103198001235D974211216F712317174231216F7E9
:1031A8001235C37510008C828D83A3A3A3E0A2E41B
:1031B800502A741D1216F7122E3A8A828B83E582E2
:1031C80045837003023285790AAC0EAD0FAA16AB9F
:1031D80017121701E9F5106003023288850E8285FF
:1031E8000F83E06402600302353EA31238BB8508F2
:1031F80082850983A3858212858313E50E2406F54B
:103208000CE50F12359A88828983E0FAA3E0F9EA7F
:103218002400F514E439F51578141219A0010000FA
:103228002801284D3207000228243303289432004D
:10323800294E340129763402291D3403294E3404D9
:1032480029DF343E35EE4F703E850C82850D8312A2
:1032580035B4FAE9FB8A828B83E0850A82850B8381
:103268001235F01219168A828B83A312308AFDAAAE
:1032780008AB09120FD174021216C2800375100E22
:10328800A9107405023A1D75100B80F4EE4F70F703
:10329800850A82850B837401F01235C985088285F9
:1032A8000983F07C007D00850E82850F83A3A3A38C
:1032B800A3E02401FAA3E03400FB1206A1EA4B6064
:1032C800418A828B83E02402F8850A82850B83E099
:1032D80028F0EA2404F8EB3400F988828983E08531
:1032E80012828513831236021235F01219168A8259
:1032F8008B83123084E5082403FAE5093400FB02C5
:10330800327B850A82850B83E02404F07C047D00EF
:103318007900AA12AB13120FE9023288EE4F60034C
:1033280002328F1235C9FEA3E0FF850A82850B831E
:103338007404F0EE850882850983F0EF8512828592
:103348001383F074031216F7AC82AD83EEFAEFFB29
:1033580012369670030233FA8A828B83A3A312353E
:10336800BF74011216F785820E85830F780E121925
:103378001674051216F712192D7CFF7DFF1206A789
:1033880074041216C28B0FEA450F7033850C8285C0
:103398000D8312359F121916850C82850D83A31291
:1033A800192D7C027D007AF27B921204D3740412E8
:1033B80016C2E9700A74011216F774FFF0A3F08EB2
:1033C800828F83E064027034750C02750D00780CEE
:1033D8001219168E828F83123084E5082404FAE5C8
:1033E800091229B01216C2850A82850B83E02402CD
:1033F800800974011216F7EEF0A3EFF074011216AB
:10340800F71235B0F074011216F7A31235A8A3A36A
:10341800A3F0023288EE4F600302328F850C82855A
:103428000D83123085AA16AB171207D9850A828533
:103438000B837402F0EA850882850983F08512827D
:10344800851383EB80CBEE4F600302328F1235C9B0
:10345800F8A3E0F9850A82850B837402F0E88508F1
:1034680082850983F0E985128285138380A3850C00
:1034780082850D83122D2A120FCBEAFC8C82A8823A
:10348800C39EE49F404BE86E7001EF70047C00809F
:103498001F851882851983E0FAEE2AFAEF3400FBBB
:1034A800C3EA98EB94005003E08004EECCC39CFC84
:1034B800EC850A82850B83F08C0A750B00780A125A
:1034C8001916850C82850D83E02EFCA3E03F02329D
:1034D80076751007023288EE4F600302328F850C32
:1034E80082850D831238BB850A82850B837407F0A9
:1034F800888289831235A8123590E0851282851357
:1035080083F0E82402FAE93400FB8A828B831235BF
:10351800A81235E11235B0A31235EA1235B9F0E830
:103528002405F8E93400F9888289831235B9A31291
:103538003602A3023416741D1216F71236A1700350
:103548000232851238BB880C890DE8450D700302DC
:1035580032858E108F117810121916780A121916E2
:10356800780812191674061216F7E0F9AC0EAD0FAA
:10357800AA16AB17850C82850D83121701740612E3
:1035880016C2E9F510023288F088828983A322F5F1
:103598000CEF3400F50D22E0F50E750F00780E22C1
:1035A800E085088285098322123609221238BFE88D
:1035B80022123609A3A322A3A3A3A3E0FEA3E0FF3C
:1035C80022850C82850D83E0F8A3E0F5838882E0EC
:1035D80022E0F508A3E0F50922A3A3F08A828B83F1
:1035E800A32212229CA3A322F08A828B831235F98C
:1035F80022E0F50A750B00780A2212359012360976
:1036080022E0850882850983A3A32274EE1217039A
:1036180074FE1216AC8A0A8B0BECFAEDFB741412CA
:1036280016F7E0F510A3E0F51174161216F7E0FE90
:1036380074181216F7E0F50EA3E0F50F85188285C9
:103648001983AC82AD83123696603E85188285193F
:10365800831236A1602FA3A31235D9E50845096066
:1036680024780E1219167810121916EEF9AC0CAD52
:103678000DAA0AAB0B850882850983121701740409
:103688001216C28006790E80027901022AD6120625
:10369800A18A0C8B0DEA450D22122D2E1236A82276
:1036A80012076D8A828B83E58245832274F612178E
:1036B8000374FE1216AC740C1216F71235B4851882
:1036C80082851983F074011216F7E9F0E4F508F51C
:1036D8000978081219167508027808121916740460
:1036E8001216F785820885830978081219161207B9
:1036F800C174061216C274021216C2806474F712DC
:103708001703EAFEEBFF89087C187D031207D9EA44
:103718005402600BA908EEFAEFFB120695800279B5
:10372800010230F274F612170374FF6A700374FF13
:103738006B701C7B00EB75F003A4F8A9F0EC28F87B
:10374800ED39F912376E0BEBC39402501480E61270
:1037580007A98A088B09A808A909E849600312374C
:103768006E7F020217D58882898374FF12229AE439
:10377800F02274F61217031207A98A828B83E58256
:1037880045836006A3A3E0FA80027A007B0080D11B
:1037980074F21217038A088B09ECFEEDFF740E12FF
:1037A80016F7E0F50A1237DE701CEEFCEFFD7AFF23
:1037B8007BFF1237DE70047911801688828983E5D1
:1037C80008F0A3E509F088828983A3A3E50AF079C4
:1037D800007F060217D51207A98A0C8B0DA80CA921
:1037E8000DE8492274EE121703EAFEEBFF8C088DF0
:1037F80009890C74121216F71238BB74141216F7D2
:1038080012308574161216F7122D2A750D00EC4D1C
:1038180060030238AF7402650C60030238AA88821C
:10382800898312308AF9EC2400F50EE439F50FEAA1
:10383800F4F8EBF4F9EC58F8E50F59F9E849705D3C
:10384800E5082406F8E5093400F9880A890B888216
:10385800F5831229BF1207D98A108B11E50E65105E
:103868007004E50F65116042780E121916850A82F8
:10387800850B831229BF1207DF74021216C2E9F5FD
:103888000D7027780E121916850882850983A3A35F
:103898001229BD1207F774021216C2800D750D8029
:1038A8008008750D0D8003750D0BA90D022F908EE4
:1038B800828F831238BF22E0F8A3E0F92274E8125D
:1038C800170374E71216AC851882851983EAF0A3EA
:1038D800EBF08C168D17890E74311216F7E0F5127D
:1038E800A3E0F51374331216F7E0F514A3E0F51509
:1038F80074351216F7E0F50F750800750900E5092B
:1039080075F003A4F8A9F0851882851983123A2F57
:10391800E0F47003A3E0F47003023A0DEE2402F51C
:103928000CEF123A25E07003023A0D85160A851746
:103938000B780A121916AC14AD15AA12AB1312079C
:103948006174021216C28A0A8B0BEA450B700302D5
:103958003A0DE4F510F511781012191674061216BE
:10396800F7858210858311781012191674091216BA
:10397800F7858210858311781012191685128285B1
:103988001383A3A3A3A312192D7914AC0AAD0B8E2C
:10399800828F83123A431216C2E97069850A8285BA
:1039A8000B83A3A3A3A31238BB74021216F7123019
:1039B8009C850C82850D83E0A2E05018A90E740244
:1039C8001216F7AC82AD838E828F83122D2A1206CF
:1039D800B9E94208850C82850D83E0A2E15026E50D
:1039E8000FF50A780A12191AA90E74031216F7AC01
:1039F80082AD838E828F83122D2A1206B374011230
:103A080016C2E942080509E509C3940250030239C0
:103A180006A90874191216C27F100217D53400F5CA
:103A28000D850C82F58322E028FEA3E039FF8E8203
:103A38008F83227916850A82850B83122D2E120711
:103A4800BB74082274F2121703EAFEEBFF890B74A9
:103A580001650B600E7402650B706379011209D160
:103A6800E9705BEEFAEFFB123AC96047750A00800D
:103A78000B7C177D007900120FE9050A9002E5E03A
:103A8800F8E50AC3985021E50A75F017A4F8A9F0DB
:103A9800850882850983A3A3E028FAA3E039FB8A75
:103AA800828B831223EB70C985088285098374FF92
:103AB800F0A3F07C187D03EEFAEFFB1207D3023770
:103AC800D91207A38A088B09EA45092274F212174A
:103AD800038A088B09ECFEEDFF740E1216F71231FB
:103AE80071900A05E0F4603D7A097B00120FFBEA49
:103AF8004B60328A828B8374B1F0A3E41235E3A35E
:103B08001235E1A3E508F0A3E509123B30EEF0A376
:103B1800EF123B30A3A3E50AF0A3E50BF0900A05EA
:103B2800E0F91210070237D9F08A828B83A3A3A386
:103B3800A3A322C082C0839061907404F0A3744848
:103B4800F0A3E4F09061807440F09061BC7407F0D9
:103B58009061877469F09061B67416F07900120A62
:103B6800C17902120AC7902158E493F46006E493DD
:103B7800F9120A9D7905120DB5023F7DC082C083F6
:103B8800E9540FF9906185E0696012E5C6548044F4
:103B980049F5C6E59E547F644970F8E9F053C6803C
:103BA800E59E547F70FA023F7D74F7121703E5A86B
:103BB800FE53A87E120AA9C2BA539AFEC289759BFF
:103BC80000C2C2120AAF75A91175B905120AB5D299
:103BD800BA439A0174805E42A802450AC082C08333
:103BE800906181E4F0A3023F7A75E9007591007550
:103BF800BF00020122C082C083906181E4F0A374F7
:103C0800C0F0A3E4023F7CC082C08374F81216ACF3
:103C18009003C41243ECE8497003023CC69003C405
:103C2800E0544060237908851882851983AA82ABFD
:103C380083120BB7851882851983AA82AB83120871
:103C4800639003C4E054BFF0E054806010790C7AAC
:103C5800807B05120BB79003C4E0547FF0E0A2E02C
:103C680050087900123CCE54FEF0E0540260087906
:103C780001123CCE54FDF0E0540460087900123C77
:103C8800D954FBF0E0540860087901123CD954F784
:103C9800F0E0541060087902123CD954EFF0E05477
:103CA8002060087903123CD954DFF0A3E054016086
:103CB8000D120AD31208759003C5E054FEF074087B
:103CC8001216C2023F7D120AC11208699003C4E0AD
:103CD80022120AC712086F9003C4E022C082C08370
:103CE800E9600514602A804F90619A7433F0A374D8
:103CF80055F09061A0743AF090055CE06401700999
:103D0800C2919003C67467802D9003C674618026A3
:103D180090619A743FF0A3745AF09061A0747FF098
:103D280090055CE064017009D2919003C6747180BB
:103D3800059003C6746AF0023F7DC082C083E960C3
:103D48000B14600D14600F146011802090215C80AA
:103D58001590215D801090215E800B90055CE064D9
:103D68000160F390215FE493906186F0023F7D74D7
:103D7800EE12170374F41216AC851882851983ACF9
:103D880082AD8375839275828674041215BF902163
:103D98005C93F46003023F09907808E0C3940250F2
:103DA80003023EE974041216F7AC82AD8375839260
:103DB80075822874081215BFF97AFF7BFF7FFF7E92
:103DC800008982858210801874086E7003023E9EF6
:103DD80074096E7003023E9E740A6E7003023E9E62
:103DE800E510C333FCE433FD74041216F7E5822CA6
:103DF800F582E5833DF583E0F50EA3E0F50F8E0827
:103E08007509007402780812169974482508FC741C
:103E1800783509FD8C828D83780812157C740878B2
:103E2800081214BD85080C85090D8C828D837808CD
:103E380012157C741878081214BDE50C4508F508AD
:103E4800E50DF509C3E50E9508E50F95098C828DFA
:103E580083780812157C8C828D83780812157C74FF
:103E680018780840141214BDE50C4508FCAD0DE5A2
:103E78000EC39CFCE50F9D800F1214BDE50C450890
:103E8800C3950EFCE50D950FFDC3EC9AED9B50060E
:103E9800ECFAEDFBEEFF0EEEC394135003023DD097
:103EA80074FF6A700374FF6B602D8F0874027808C2
:103EB8001216997448124B9874783509F583780866
:103EC80012157C851882851983E5822510F582E50F
:103ED80083124925E508F009E9C394045003023D1B
:103EE800C1750801750900780812191674021216AE
:103EF800F7AC82AD837A577B081211CF7402121681
:103F0800C2740C1216C27F0A0217D5C082C08390F1
:103F18006186E0F890215FE49368700990215EE47F
:103F280093906186F09061AE7468F0A3746AF09023
:103F3800624574FBF0A304F053F4FD43FE029005C0
:103F48005C7401F09061A0E0643A7004790080022A
:103F58007901120AC1023F7DC082C08390050EE03C
:103F68006401700A900513E06004790C80027900FE
:103F78008003F0A3F0D083D082020122C082C083E4
:103F880075E1F1900511E0604D146008146051145A
:103F980060498051120AE5900507E0F97A087B0527
:103FA800120D3790928A12159A120D6D9092761210
:103FB800159A120D43900512E0F9120D4F7901126E
:103FC8000DA9900505E0241612411274FDF0A374A2
:103FD8000AF07900809F120AEB80BC120AF180B7C0
:103FE800120AF780B2791280EB74F412170375D9AC
:103FF8000D9004F6E0A2E0E4331313F812407E4873
:104008004401F5D978001240FC40FB780088087418
:10401800F7124B98740412410640F275E19590042A
:10402800F6E0F97AF77B04120D3D900A277473F0D5
:10403800A3740A12412112414112413812427912E5
:104048004088780812157C90928E7808121508908E
:10405800927E780812155612410C780812158B902A
:104068000505E024141241127413F09003C274027F
:10407800F07F040217D5900507E0C4333354C022FB
:10408800900505E0F8A3E0F5838882A3A32274F6DF
:1040980012170312424A8AD978001240FC40FB7872
:1040A8000080061241B01242FCE8C39940F5124262
:1040B8003C1240FC40FB78008008124B94740512B7
:1040C80042FCE8C39940F375E195900A27747FF0A4
:1040D800A3740A12412112412B12159A12410C1293
:1040E80015A6900505E024141241127412F09003ED
:1040F800C20244E7880874082508F582740512444A
:1041080058940622900505E0240EF8A3E012411900
:10411800223400F988828983221242627479F0A3DA
:10412800740A2212414112413812427D9092BE22F5
:10413800F0A37491F0A3740A221241452212414956
:1041480022F0A37423F0A3740C2274F6121703123E
:1041580041A512407E4402F5D978001240FC40FB8C
:10416800780080061241B01242FCE8C39940F57508
:10417800E195900A271241BBF0A31241BB12412ED0
:1041880012159A12410C1215A6900505E024141276
:1041980041127414F09003C274040244E9900517A4
:1041A800E0F9740729F5D922880874182508F582DA
:1041B800740522748B1241C81241C8F0A3740A22F4
:1041C800F0A3740AF0A3748B2274F6121703124238
:1041D8004A74064AF5D978001240FC40FB78008002
:1041E800061241B01242FCE8C39940F512423C1253
:1041F80040FC40FB78008008124B9474051242FC86
:10420800E8C39940F375E195900A277485F0A37483
:104218000A12425812412B12159A12410C1215A675
:10422800900505E024141241127415F09003C2742D
:10423800030244E99005371241A874044AF5D97875
:1042480000221241A5900507E0C4333354C0FA2276
:104258001242627423F0A3740C22124266221242A4
:10426800737423F0A3740C12427322124149F0A311
:104278002212427D22F0900A357423F0A3740C12A6
:1042880042667423F0A3740C124145F022C082C028
:1042980083124088A3A3A3A3E4023F7A74F71217FA
:1042A80003124DDAF8740339F9E82405FAE9340001
:1042B800FB8A828B83124B4988828983A3A3A3A399
:1042C800A3A3A3A3A3ECF0A3EDF088828983A3A3FF
:1042D800A3A3A3A3A3E024FFF8A3E034FFF98A82F1
:1042E8008B83E8F0A3E9F002450A88087460250882
:1042F800F5827405124A70F5D90822EAFEEBFF90A0
:1043080061D0E0F87480C398FAEE24832212431B2C
:10431800940422124933E0F5D90AEAC32274F6124A
:104328001703EAFEEBFF9061D0E0707575D90E7542
:10433800D90375D9047A008A08EE2508124EA824F4
:104348008C1243BE40F17A008A08EE2508124EA866
:10435800248412431540F175E1957908EE248C12F6
:1043680043B724841243AE7C008C82AA82C3E49AA9
:10437800F895E0F9EE28F8EF39F9E8248BF582E9A9
:10438800124A6CC0E0EE2A124EA824ABF582E9125C
:104398004925D0E0F00CECC3940840CD1244748059
:1043A8000279000244EAFAEF3400FB120BAB221246
:1043B80043AE7904EE2212431B940822C082C083C4
:1043C80075D90275D90375D90575E195EA2470F593
:1043D80082EB1243E9EA2472F582EB124486023F2B
:1043E8007D1249361243F022E0F8A3E0F92274F670
:1043F800121703EAFEEBFF9005607406124462127E
:1044080019167C01790312478E1216C275D90675E2
:10441800D903780012444840FB75E1959003C2E047
:1044280064087017EE2470F582EF1243E9EE2472E7
:10443800F582EF124925E8F0A3E9F079010244EA90
:10444800880874602508F58274051244589405227A
:10445800124936E0F5D908E8C322F07508607509F5
:104468000578082275E1957904120D73EE2470F52C
:1044780082EF1249361243F0EE2472F582EF1249A8
:1044880036E8F0A3E9F079012274F6121703EAFE80
:10449800EBFF9061D0E070437901900560740BF0F8
:1044A8009003C2E0640770177508607509057808FD
:1044B8001219167C01090912478E1216C279057461
:1044C8000129F5D975D903780080031242F2E8C3AF
:1044D8009940F875E195124474800279008003745C
:1044E80001F07F020217D574F7121703EAFEEBFFFB
:1044F80075D90375D90375D90DEE24DE12450F124F
:10450800446C7F010217D5F582EF124A70F5D92263
:104518007F030217D57401250AF5D975D9037800E8
:104528002274F512170312459E60047804800278FD
:1045380000E8240BF8EAC3984041750A0990056021
:104548007409F079081245876014750860750905C3
:1045580078081219161247861216C2750A0D1245E6
:104568001D80031242F2E8C3950A40F775E1957978
:1045780004120D731247037901800279008091EECD
:1045880024E3FCEF3400FD7A617B05120BA5850856
:1045980082850983E022124303F8EF124B3DF5832D
:1045A800E02274F31217038A088B09124799FAE577
:1045B800082483F50AEB12466860047804800278C0
:1045C80000E82408F8EAC3985003024661750C060F
:1045D800900560740CF09003DFE0900561F07402C0
:1045E800C0E0F97CE07D037A627B05120BA5D0E080
:1045F800F97CE27D03120BA5850A82850B83E060B6
:104608001C750A60750B05780A1219167C06790361
:10461800AA08AB0912478E1216C2750C0A74012536
:104628000CF5D975D90378008009880A7460250AC1
:104638001242F8E8C3950C40F175E1957904120D22
:1046480073E5082470F582E5091243E9E508247248
:10465800F582E509124486800279007F050217D5A4
:104668003400F50B850A82F583E02274F6121703ED
:10467800EAFEEBFF124799FCEE2483F8EF12479409
:1046880060047A0480027A00EA2404FAECC39A40AF
:104698005E7A02900560EAF0EE24F5F582EF1247A3
:1046A8000F601975086075090578081219167C02DB
:1046B8007903EEFA12478E1216C27A0674012AF5A9
:1046C800D975D903780080031242F2E8C39A40F8FA
:1046D80075E195EE24741246FCEE24801246FC1215
:1046E80047037904120D73EE240D12447780027982
:1046F800000244EAF582EF12487F22EE241DF5827B
:10470800EF12487FA3F022124A70900561F0888268
:104718008983E02274F6121703124799FEEA24836C
:10472800F8EB12479460047C0480027C00EC2404BB
:10473800FCEEC39C40437C029005607407F0EA24B9
:10474800F6F582EB12470F60157508607509057854
:1047580008121916790312478E1216C27C067401C4
:104768002CF5D975D903780080031242F2E8C39C6E
:1047780040F875E1957901800279000244EA7C09E4
:104788007903EEFAEFFB120C17740222124119E0BA
:10479800229061D0E0F87480C3982274F512170350
:1047A800E9FEA2AFE433F50AC2AF7F00EA246FF84E
:1047B800EB3400F980010F88828983E0FCEFC39C09
:1047C80050188F08EA2508FCEB3400FDEC246BF543
:1047D80082ED124A6C6E70DE8010EA2CFAEB34001F
:1047E800FB12491FEE12471504F0E50AA2E092AF4A
:1047F80002451874F6121703A2AFE433FFC2AFEAFA
:10480800246FF8EB124EAAFCE9FD8C828D83E0142C
:10481800F07E0080218E08EA2508F8EB124EAA24C3
:104828006CF582E9124A6CC0E0E8246BF582E91263
:104838004925D0E0F00E8C828D83E0F8EEC39840D5
:10484800D4EA246E12492274FF124874EFA2E0924F
:10485800AF0244EAC082C083E5A8F8C2AF12491F7C
:10486800E9124874E8A2E792AF023F7DF0EA246AB1
:10487800F582EB12487F22124936E4F02274F212D4
:1048880017038C828D83A3A3A3A3E0541FF0EA240B
:1048980036124BE18E828F83E4F0F50C850C82850D
:1048A800820AEC250AF8ED124B39F583E0C0E0EAFC
:1048B800250AF8EB124929D0E0F0750D0085088229
:1048C800850983E0F50A750B00E50D780A12167A5A
:1048D800E50AA2E0502AE50C33333354F8250DC01D
:1048E800E08E828F83E0F8EA28F8EB124EAA24388B
:1048F800F582E9124925D0E0F08E828F83E004F03A
:10490800050DE50DC3940840B4050CE50CC39405EA
:10491800408A7F060217D5EA246BF582EB124936E6
:10492800223400F9E8245D12493322F582E9340083
:10493800F5832274F61217039003EEE06401700702
:104948007A007B00024A667E009003F4E070F174FE
:1049580001F0A3E4F0A3F090045404F0900457E4A9
:10496800F0A3F090045A04F09003F7E4124A7D9003
:10497800040104F0900427E4F090926612159A90CE
:10498800040A1215A690040EE4F0A3F0A3F0900414
:1049980072F0900466F090045B7480F0A3E4F090E9
:1049A8000461F0900459F09004DD124A759004E611
:1049B800F0900475F09004C5F0A3F090926612157B
:1049C8009A9004C71215A690926612159A9004CB75
:1049D8001215A69004D1E4F09004D3F09004CFF01F
:1049E8009004E9124A758E08745D124B987404128B
:1049F800492574FFF00EEEC3940440EA7E008E82CF
:104A0800A88274FD28F5827404124A6CC0E0744FC1
:104A180028F5827404124925D0E0F00EEEC39405FF
:104A280040DC7E008E82A88274D628F58274031238
:104A38004A6CC0E074D528F5827404124925D0E088
:104A4800F00EEEC3940840DC9003EEE004F064013D
:104A580070089003F6E09003F0F07AF27B030244CA
:104A6800EAF582EF124A7022124936E022124A7D94
:104A7800A3124A7D22F0A3F0A3F0A3F022C082C0C3
:104A880083EA2403F582EB124A6C6008E4F0900391
:104A9800EFE014F09003EEE014F070069003F07469
:104AA800FFF08A828B83A3A3E4F0900502E0700DE7
:104AB8009003EFE0640170057900120D55023F7D07
:104AC800C082C0839003F5E4F09003F4F09003EE05
:104AD800F0A3F0A374FFF075E1F1023F7DC082C03E
:104AE80083780079009003F5E0600478F279038810
:104AF800828983A3A3A3A3E0F9023F7D74F612176A
:104B080003EAFEEBFF120B5DEE2465F8EF124B395A
:104B1800124B47EC4D60109003F0124DD28508827D
:104B2800850983E4F0A3F0EEFAEFFB120C4D024482
:104B3800EA124B3D223400F988088909888222F557
:104B480083E0FCA3E0FD2274F7121703EAFEEBFFF3
:104B58008E828F83A3A3A3A3E0FA7B001208DBEE67
:104B6800FAEFFB120B6F120C2F02450A74F612179C
:104B7800037800880874D6124B9874031246FF080D
:104B8800E8C3940840ED9003D60244E788087438D7
:104B98002508F5822274F6121703EA240D124BE158
:104BA800EC2403F8ED3400F988088909EC2407F8A7
:104BB800ED124EAAFCE9FD124BEB1216218E828FE4
:104BC80083E8F0A3E9F0124BEB1216218B09EA45B2
:104BD800096003124BFE0244EAF8EB3400F9E8FEE0
:104BE800E9FF228C828D831243F085088285098330
:104BF800E0FAA3E0FB228E828F83E02401F0A3E099
:104C08003400F02274F6121703EA242EF582EB34EE
:104C180000124B47EA2470124BE1780079FAECFA5B
:104C2800EDFB1216218E828F83E8F0A3E9F078005D
:104C380079FAECFAEDFB1216218B09EA45096003B3
:104C4800124BFE0244EA74F0121703EAFEEBFF74FB
:104C5800101216F7780812157C120D078A0C8B0DA6
:104C68008C0E8D0F909292780C12150890927E7887
:104C78000C121556780C1219128E828F8312408BE3
:104C880012159A121E8974041216C2E96003024DA5
:104C9800368E828F83E02402F8A3E0124EAAFAE946
:104CA800FB8A828B83780812151B90927E780812F3
:104CB800157C8A828B837808121569EE240BF5829D
:104CC800EF124925C082C0838E828F83A3A3A3A33A
:104CD800A3E02401F8A3E03400F9D083D082E0688F
:104CE8007003A3E069700479018045EE2407F8EFAA
:104CF800124119124C02EE2474124EAF7014EE24B5
:104D080075124D3D7003A3E06D70078A828B831284
:104D18004C02EE2480124EAF7014EE2481124D3DE9
:104D28007003A3E06D70078A828B83124C027900AE
:104D38007F080217D5FAEF3400FB8A828B83E0FCE8
:104D4800A3E0FD88828983E06C2274F312170312B2
:104D58004DDAFE740339FFEE2404F50AEF3400F54A
:104D68000BEE2465F508EF3400F5098010124B4965
:104D7800850882850983E4F0A3F0124DCC8508826A
:104D8800850983124B49EC4D6030EE2464124A6960
:104D9800F50C780C12191AEE2463124A69F9EEFA26
:104DA800EFFB120B9974011216C2E9850882850976
:104DB8008360BA1243ECE84970077C007D00124D0D
:104DC800CC024663850A82850B83E0FA7B001208D1
:104DD80099229003F0E0F875F004A4C8AAF02AF923
:104DE80074F2282274F2121703EAFEEBFF890A74A0
:104DF8000E1216F7E0FAEE2462124EAF6003024E6E
:104E0800A3124799F50CEE2483124A69FB600478D3
:104E180004800278008908E928F8E4124EAA2402DE
:104E28000808E93400F9E50C98E499A2D265D03372
:104E38004065EA7005750B028003750B01EB603362
:104E480075090078081219167A607B05120BE1744F
:104E5800021216C27508607509057808121916AC91
:104E68000AA90B12478A1216C27404250AF50A7C8D
:104E7800607D057401250AF5D9850BD97800800A6B
:104E88008808EC124B98ED1242FCE8C3950A40F0F2
:104E980075E195790080067907800279FF02491A41
:104EA800F8EF3400F9E822F582EF124A7064012223
:104EB800C082C0838003124EE6E9F874FF28190403
:104EC80070F4ECFAEDFB023F7DC082C083800312D0
:104ED8004EE6E9F874FF28190470F4023F7D8C82CD
:104EE8008D83E08A828B83F08C828D83A3AC82AD24
:104EF800838A828B83A3AA82AB832274E812170366
:104F0800907803E06442705E90055FE014F070569C
:104F1800C2AF124F1D00782AD0E0F618D0E0F6E5AF
:104F28009F5407F970059092C280039092CA78083E
:104F380012157CE9C4C0E07829E65508F50808E6AA
:104F48005509F509740B780812168AD0E02508F877
:104F5800906270E0A2E740F8E8C333906272F09084
:104F68006270E0D2E0F09003F0E0F874FF6870033C
:104F7800025235E8125C8E2402F8EF3401F9888277
:104F88008983125D08EA4B600FEE2401F582EF3445
:104F980001F583E0F912102BEE2405F514EF340027
:104FA800F5158E828F83A3A3A3A3A3A3A312571AD5
:104FB800125CA4906054E09003C9F0906055E090B2
:104FC80003CAF0906056E09003CBF0906057E090F1
:104FD80003CCF0906058E09003CDF0906059E090D9
:104FE80003CEF090605AE09003CFF090605BE090C1
:104FF80003D0F090605CE0FC9003D1F090605DE03D
:10500800FD9003D2F090605EE0F50C9003D3F09031
:10501800605FE0F50D9003D4F09003CFE0F5108CBD
:10502800082508F8E43400F9850C081256C58D08DF
:105038001256C5850D081256C5EE24F7125C50129B
:105048005CFA8C8285820AEE24F9F582EF12570EFB
:10505800EE24FB125702EE24FFFAEF3400FB8A829B
:105068008B83E0F508A3E0F509E5084509603A9067
:105078006000E0C333F508E433F5098A828B83E0E6
:105088002508F50EA3E03509850E82F583125CFA32
:10509800906000E0C333F8E433F98A828B83125CB2
:1050A800B5244AF582E912570EEE240BF8EF3400C6
:1050B800F9EE241DF50EEF3400F50FEE2420FAEF7B
:1050C8003400FBEE241C125C38EE240FF50AEF3492
:1050D80000F50BE510700BED7008E50C7004E50D9C
:1050E8006079851482851583125CD0EE240D125CDC
:1050F8005A2CFCA3E03DFD88828983ECF0A3EDF0F7
:105108001256DF70031257459003CAE060248508E1
:10511800828509837401F0EE246A125C5A7013EEDA
:105128002474125C5A700BEE2480125C5A700312BD
:105138005745906062E08E828F8370030251C8E009
:105148002406FCA3E03400FD125CE7120D018E82F8
:105158008F83E02412125CAAE48079EC601812565E
:10516800DF70238A828B83125CD0850E82850F8341
:10517800ECF0A3ED800FEE24FD125702850E828518
:105188000F83E4F0A3F08882898312571AE06870CD
:1051980003A3E0696003025110850A82850B83E04E
:1051A800600F851482851583E064057002A3E060B2
:1051B8000B7908EEFAEFFB120B758071793E80F3DC
:1051C800E0F8A3E0F5838882A3A3A3A3A3A3E4F054
:1051D800A31260A3F0A3F0906060E0C0E0EE246941
:1051E800125C50D0E0F09003CFE0F8125C5728F042
:1051F800EE247AF516EF3400F51702532190055D79
:10520800E06401702B120DC1125C5770069060604B
:105218007480F0EEFAEFFB120CB3E96401600E1231
:105228000B93120CADE964016003120C2F0257585E
:10523800EE2483125C5A6004780480027800E50C3E
:10524800C398F912088D8A0A8B0BEA450B60B6EEF3
:105258002483125C5A70048A088B0978008015E54B
:10526800D9C0E08810E5082510F582E509125C53DD
:10527800D0E0F008E8C3950C40E5EE2483125C5AB0
:10528800603774FC250CF50C7808121916AC0CA9BB
:105298000DEEFAEFFB120C1D74021216C2E970191A
:1052A8007403650D700302535BE50A24FBFAE50BF2
:1052B80034FFFB12106D02535B7403650D7003021B
:1052C8005360850C107511007810121916AC08ADD2
:1052D80009AA0AAB0B120BE174021216C2EE24697A
:1052E800125C5A64807004747F8001E0F5087808C5
:1052F80012191AE50DF508780812191AA90CAC0A42
:10530800AD0B9003F0E0FA7B0012089374021216BA
:10531800C2120DCD125C5714F0E0700302521575DD
:105328000860750905750A00750B00E5D914F50CB8
:10533800E5D95403F50D601B7403650D7003025223
:1053480063E50C7003025205EE2468125C5A600390
:10535800025205793D0251BB850882850983E0FA2E
:10536800A3858208858309A3A882A983603814705D
:10537800030254B31470030256691470030254F400
:1053880024FD70030255971460871470030255BEFC
:1053980024FE70030255A01470030255B91470035B
:1053A800025611025616850882850983E0C0E0EE90
:1053B8002477125C50D0E0F0880889097902AC089B
:1053C800AD09EE24781256867902AC08AD09AA1602
:1053D800AB17120B9F8A088B097902AC08AD09EE4E
:1053E800247C1256AB247E125686EE2477125C5A21
:1053F800C333F0EE2478125C5012573AEE24781238
:105408005CA1125734851682851783125CA4EE249A
:105418007E125C5AF50AA3E0F50B7404780A12169A
:1054280099EE247E125C50E50AF0A3E50BF07902B0
:10543800AC08AD09EE24751256972475125C50C05D
:1054480082C083851482851583125CC1D083D08283
:10545800125724400579280251BBEE247C125C5A6D
:105468002401F508A3E0125C3BE4F50AF50B12579A
:105478003488108911E4F512F5137808791012139D
:10548800CDEE247E125C5AF510A3E0F51178107960
:105498000812138E4005793B0251BBEE247412604A
:1054A800811260A3E4F0A3F00253197402C0E079FA
:1054B80005AC08AD097AFD7B04120B9FEAFCEBFDF5
:1054C800D0E0F9EE24811256972481125C50C082F4
:1054D800C083851482851583125CC1D083D0821263
:1054E8005724400302545DEE248080B2EE24E21279
:1054F8005C5A70147A001256B6C0E01256CED0E04C
:10550800F00AEAC3940840EEEE24E3125C5AA2E0E3
:10551800EE401424DE125C50741AF0790DEEFAEFA6
:10552800FB120B3F0253191256F524E1125C7F79E6
:1055380008AC08AD09EE249C1256AB24A41256A55B
:10554800AC08AD09EE24941256A5EE2494FAEF3473
:1055580000FB120BAB7904AC08AD09EE2488125697
:105568009C7904EE2488FAEF3400FB120BABEE248E
:105578008CFAEF3400FB120BBDEE2484FAEF3400F2
:10558800FB120BC39003C4E04480F07904808EEED4
:1055980024DF1260810254AFEE1256F524D3125C58
:1055A80071EE24DD12608F24D4125C71790B0255E0
:1055B80025EE24E080DC7A001256B6C0E01256CE02
:1055C800D0E0F00AEAC3940840EE7A008A82A88202
:1055D80074D628F5827403125C53C082C083850890
:1055E80082850983E0D083D082FBE05BC0E012565D
:1055F800CED0E01256EDA38582088583090AEAC356
:10560800940840C87909025525126095700DEE245A
:10561800F6125C50EAF0790702552585088285095B
:1056280083E0C0E0EE24EE125C50D0E0F0880889F8
:10563800097402C0E0F9AC08AD09EE24EF12569CDB
:10564800EAFCEBFDD0E0F9EE24F112569724EB12B8
:10565800608F24ED125C5A6003025319790C0255CD
:1056680025EE24F5F8EF125C84E088828983F0EE59
:1056780024F4125C7F88828983E0F90251BB1256B8
:105688008A22FAEF3400FB120B9F8A088B09221238
:10569800569CEE22FAEF3400FB120B9F2212568A18
:1056A80079082212568A7902AC08AD09EE228A825C
:1056B800A88274D628F5827403125C6122E8250852
:1056C800F8E93400F922EE28F8EF3400F9E824E389
:1056D800F582E9125C7A22850A82850B83E41256E8
:1056E800EDE0640122F08508828509832224621294
:1056F8005C77E41260B2E4F0EE22125C5E2401F002
:10570800A3E03400F022125C61250AF0A3E0340023
:10571800F022125CC585148285158322E0C398F8AF
:10572800A3E099F9C3E894FFE9947F22851682855E
:105738001783125CC5E8C333F8E933F9228A828BF0
:1057480083125CC5850E82850F83E8F0A3E9F022F9
:105758007F100217D553BFEF02012274E812170316
:105768009003F0E0F8125C8E2420F50EEF3400F57B
:105778000FEE241CF50CEF3400F50DEE241DF5108A
:10578800EF3400F5119061D0E0600B85108285112F
:1057980083E4F0A38030EE246A125C5A7029EE2468
:1057A80074125C5A7021EE2480125C5A7019850CB0
:1057B80082850D83E06401700E850E82850F831249
:1057C8005CD6E8F0A3E9F0EE2407125C388E828FED
:1057D80083A3A3A3A3A3125CD6125CB5240108E992
:1057E800125C84125CA4EEFAEFFB120CB9E96401B6
:1057F8006008900504E06401701F8510828511839C
:10580800E4F0A3F08E828F83A3A3A3A3A3E02401D3
:10581800F8A3E0125C84125CA4EE24741260986011
:10582800030259CAEE2475125C4012192D850882AC
:10583800850983125CD08E828F83A3A3A3A3A312AE
:105848005D08121B9974021216C2E970030259CA44
:10585800850A82850B83125D0E2477FCEF3400FDE8
:10586800EEFAEFFB120B81125C4D125749850C8240
:10587800850D83E4F0851082851183F0A3F0EE2472
:105888000F125C7F850882850983125CCB240D1278
:105898005C5A28F8A3E039F9EE240B125CA18E8239
:1058A8008F83A3A3A3A3A3125CD0850A82850B834D
:1058B800125D08121BD68A088B09EE242E125D028F
:1058C800E4F50AF50B8A0C8B0DF50EF50F780879BF
:1058D8000C1213CDEE2478125C677808790C121438
:1058E800F585080C85090D850A0E850B0FEE247EBB
:1058F800F516EF3400F517851682F583125CCB2474
:105908007AF512EF3400F513851282F583125CD014
:10591800EE2430F50AEF3400F50BEE2432125C3831
:10592800EA6C7002EB6D7024850882850983E06853
:105938007003A3E0697015EE247C125D02850A826B
:10594800850B83E06A7003A3E06B603188148915C6
:105958007404781412168A7814121916125C4D12EF
:10596800192DEDC313FDEC13FC8E828F83A3A3A323
:10597800A3E0FA7B001208E174041216C2EE247741
:10598800125C5AC0E0EE242B125C50D0E0F0851275
:1059980082851383125CCB242E125CA1EE247C1228
:1059A8005CBE850A82850B83125CA48516828517E6
:1059B80083125D0EFAEFFB120B87EE2474125C71F2
:1059C800800BEE242E125C67E4F50EF50F8510822D
:1059D800851183E0F514A3E0F515EE2412125C3866
:1059E800EE241FF512EF3400F513EE2418125C4074
:1059F800780C1213797011851282851383E0F8E50B
:105A080014687002E51560237808121916EE241040
:105A1800125C5012192D7814121916AA0CAB0DAC81
:105A28000EAD0F12202A74061216C2850A82850B43
:105A380083780C12158B851082851183E08512827C
:105A4800851383F0AC08AD09125CE0906062E060F9
:105A5800077C307D92125CE08E828F83125CC18855
:105A6800828983A3A3E82408FCE93400FD740612A4
:105A780015BF851082851183125D088E828F83E0A1
:105A88002402F8A3E03400F9E8FCE9FD8A108B1140
:105A9800E4F512F51390926A7810121508781079C7
:105AA8000C1213CD8C828D83781012151B90927E68
:105AB800781012157C8C828D8378101215699005E8
:105AC80002E064016003025BB87901120D558E8211
:105AD8008F83E0F50AA3E0F50B9092BE12159AE5C4
:105AE8000A240EF582E50B125C531215A6E50A246A
:105AF80012F8E50B3400F9E8FCE9FD850882850910
:105B080083780C12157C850C08850D09E50875F05D
:105B1800E2A4C508A8F075F004A428F875F0E2E539
:105B280009A428F5098C828D83E02508F0A3E035C7
