:030000000200A259
:03001300020209DD
:03005B000201C6D9
:10006B000201B000000080FB1200D2B900030200B5
:10007B008CE4900F00780479018002F0A3D8FCD9AE
:10008B00FA75828C75830274001200B475826E75DA
:10009B00830074001200B475D0007581BF75100019
:1000AB0075110F759F00020073C09FF59FE473D00D
:1000BB009F22D083D082C09FE493C0E0740193C091
:1000CB00E0740293F59F227901221200BDB2020067
:1000DB001200BDC602001200BD2202001200BD516B
:1000EB0002001200BD6302001200BD7B0200C0D0F3
:1000FB002510C582C0E0E51134FFC583C0E0E510D3
:10010B00C3958224F310AF08858311858210800874
:10011B00858311858210D2AFC8F0A3E9F0A3EAF072
:10012B00A3EBF0A37908E709F0A3D8FAECF0A3ED61
:10013B00F0A3EEF0A3EFF0A3D0E0F0A3D0E0F0A398
:10014B00D0E0F0A3E520F0A3E5F0F0A32285118326
:10015B00851082E0C0E0A3E0F9A3E0FAA3E0FBA3E3
:10016B007808E0F608A3DFFAE0FCA3E0FDA3E0FECD
:10017B00A3E0FFA3E0C0E0A3E0C0E0A3E0F5D0A3C1
:10018B00E0F520A3E0A3F5F010AF0885831185827D
:10019B00108008858311858210D2AFD082D083D096
:1001AB00E0F8D0E032C0E074F21200F9758900C2B9
:1001BB00C579041200D57F01020158C0E074F21218
:1001CB0000F9C2C3900F00E0F8A3E0F9E82401FAAC
:1001DB00E93400FB900F00EAF0A3EBF0C3E8946561
:1001EB00E994004014900F007400F0A37400F0D257
:1001FB00F0A29030F001B392907F01020158C0E061
:10020B00C0D0C082C083C28BE5C1900F02F0D083F7
:10021B00D082D0D0D0E0327C007D008019E8240160
:10022B00F8E93400F9C3E89417E9940240EFEC24A1
:10023B0001FCED3400FDC3EC9AED9B500678007980
:10024B000080E20200BAEAA2E09290EAA2E0929168
:10025B00EAA2E092940200BAC082C08343FE134329
:10026B00FD027A007B001200E7D083D0820200BA35
:10027B00C082C0831200ED1200DBD083D08202005B
:10028B00BA1200F3801DD2F0A29030F001B392901D
:10029B007AF47B011200E10EEEC3940640E8790379
:1002AB001200D57E0080F1E9C394045008E942BEE8
:1002BB0075870180037587000200BA43AB02438C3C
:0B02CB0001D2BD5389FDD2AF0200BA82
:0000A2015D
:00000001FF
