:030000000200A259
:0300130002021CCA
:03002B000201B01F
:03005B000201D9C6
:10006B000201C300000080FB1200D2B900030200A2
:10007B008CE4900F00780479018002F0A3D8FCD9AE
:10008B00FA75824675830274001200B475826E7520
:10009B00830074001200B475D0007581BF75100019
:1000AB0075110F759F00020073C09FF59FE473D00D
:1000BB009F22D083D082C09FE493C0E0740193C091
:1000CB00E0740293F59F227901221200BDEC02002D
:1000DB001200BD0003001200BD9302001200BDC24E
:1000EB0002001200BDD402001200BD350200C0D0C8
:1000FB002510C582C0E0E51134FFC583C0E0E510D3
:10010B00C3958224F310AF08858311858210800874
:10011B00858311858210D2AFC8F0A3E9F0A3EAF072
:10012B00A3EBF0A37908E709F0A3D8FAECF0A3ED61
:10013B00F0A3EEF0A3EFF0A3D0E0F0A3D0E0F0A398
:10014B00D0E0F0A3E520F0A3E5F0F0A32285118326
:10015B00851082E0C0E0A3E0F9A3E0FAA3E0FBA3E3
:10016B007808E0F608A3DFFAE0FCA3E0FDA3E0FECD
:10017B00A3E0FFA3E0C0E0A3E0C0E0A3E0F5D0A3C1
:10018B00E0F520A3E0A3F5F010AF0885831185827D
:10019B00108008858311858210D2AFD082D083D096
:1001AB00E0F8D0E032C0E074F21200F9C2C7790473
:1001BB001200D57F01020158C0E074F21200F975EC
:1001CB008900C2C579041200D57F01020158C0E035
:1001DB0074F21200F9C2C3900F00E0F8A3E0F9E843
:1001EB002401FAE93400FB900F00EAF0A3EBF0C313
:1001FB00E89465E994004014900F007400F0A37428
:10020B0000F0D2F0A29030F001B392907F01020186
:10021B0058C0E0C0D0C082C083C28BE5C1900F0232
:10022B00F0D083D082D0D0D0E032C082C083120015
:10023B00ED1200DBD083D0820200BA1200F3D29011
:10024B00D2917A2C7B011200E1C290C2917A2C7B65
:10025B00011200E1D290D2917A2C7B011200E1C203
:10026B0090C2917A2C7B011200E1D290D2917A2C20
:10027B007B011200E1D2F0A29030F001B392907AA0
:10028B002C7B011200E180ED7C007D008019E824BD
:10029B0001F8E93400F9C3E89417E9940240EFEC54
:1002AB002401FCED3400FDC3EC9AED9B5006780065
:1002BB00790080E20200BAEAA2E09290EAA2E09210
:1002CB0091EAA2E092940200BAC082C08343FE136B
:1002DB0043FD027A007B001200E7D083D08202003C
:1002EB00BAE9C394045008E942BE758701800375CF
:1002FB0087000200BA43AB02438C01D2BD5389FD88
:05030B00D2AF0200BAB0
:0000A2015D
:00000001FF
