:030000000200CB30
:03001300020715CC
:03002B000206A921
:03005B000206D2C8
:10006B000206BC00000080FB1200FBB9000302007B
:10007B00B5E4900F00780479018002F0A3D8FCD985
:10008B00FA900F03AA82AB839000FE78017905806A
:10009B0015E493A3AC82AD838A828B83F0A3AA82EF
:1000AB00AB838C828D83D8E9D9E77582447583093C
:1000BB0074001200DD75826E75830074001200DD12
:1000CB0075D0007581BF75100075110F759F0002FB
:1000DB000073C09FF59FE473D09F22D083D082C062
:1000EB009FE493C0E0740193C0E0740293F59F22E8
:1000FB007901220000000000000000000000000059
:10010B0000000000000000000000000000000000E4
:10011B0000000000000000000000000000000000D4
:10012B008080C0C0E0F0F0F0F8F8F8FC3C3C3E3EBC
:10013B003E3E3E3E3E3E3E3E3C3CFCF8F8F8F0F088
:10014B00E0E0C0C080800000000000000000000064
:10015B000000000000000000000000000000000094
:10016B000000000000000000000000000000000084
:10017B000000000000000000000000000000000074
:10018B000000000000000000000000000000000064
:10019B00000000000000000080C0E0F0F87C3E1F73
:1001AB000F07070301010F7FFFFFFFFFFFF8E000C1
:1001BB000000000000000080F0FCFFFFFFFFFF3F8E
:1001CB0007010307070F1F3E7CF8F0E0C00000009B
:1001DB000000000000000000000000000000000014
:1001EB000000000000000000000000000000000004
:1001FB0000000000000000000000000000000000F4
:10020B0000000000000000000000000000000000E3
:10021B000000000000E0F8FEFF3F070F3F7FFFFFED
:10022B00D737776747C78787878787878787878783
:10023B008787878787878787878787878787878743
:10024B008747676737B7DFFFFF7F1F0F3FFFFEF85B
:10025B00E0000000000000000000000000000000B3
:10026B000000000000000000000000000000000083
:10027B000000000000000000000000000000000073
:10028B000000000000000000000000000000000063
:10029B00000000E0FFFFFF9F80808080C0C0C1C7CF
:1002AB00CFFFFCF8E08000030F1F7FFFFFE7E7DFC6
:1002BB001F1F1F1F1F1F9FCFE7E7FFFF3F1F0701D9
:1002CB0000C0F0F8FEFFCFC3C0C0C0808080BFFF6E
:1002DB00FFFFE00000000000000000000000000035
:1002EB000000000000000000000000000000000003
:1002FB0000000000000000000000000000000000F3
:10030B0000000000000000000000000000000000E2
:10031B0000000007FFFFFFFF7F3F3F3F3F3F1F1FD7
:10032B001F1F0F0F0F1F7EFCF0C08001070F3FFF39
:10033B00FFFCD080F8FEFF7F1F0F030080E0F8FC6E
:10034B003F1F0F0F0F1F1F1F1F1F3F3F3F3FFFFF82
:10035B00FFFF07000000000000000000000000008D
:10036B000000000000000000000000000000000082
:10037B000000000000000000000000000000000072
:10038B000000000000000000000000000000000062
:10039B000000000000071F7FFFFCF0C00000000002
:1003AB0000000080C0E0F0F9FFFFFFFEF8E0C000A6
:1003BB0003071FFF0F070100C0F0FCFEFFFFFFFC50
:1003CB00F0E0C080000000000000C0F0FCFF7F1FC9
:1003DB00070000000000000000000000000000000B
:1003EB000000000000000000000000000000000002
:1003FB0000000000000000000000000000000000F2
:10040B0000000000000000000000000000000000E1
:10041B0000000000000000000003070F1F3E7CF8E7
:10042B00F8FCFFFFFFFF7F1F0F07030101071F3FB3
:10043B00FCF0ECFFE0F8FE3F0F07010003070F1F76
:10044B00BFFFFFFFFFFEFC7C3E1F0F0703000000FA
:10045B000000000000000000000000000000000091
:10046B000000000000000000000000000000000081
:10047B000000000000000000000000000000000071
:10048B000000000000000000000000000000000061
:10049B000000000000000000000000000000000051
:1004AB000101030307070F0F1F1E1E3E3C3C7C7C04
:1004BB007C7F7F7F7F7F7C7C3C3C3E1E1E1F0F0F13
:1004CB00070703030101000000000000000000000B
:1004DB000000000000000000000000000000000011
:1004EB000000000000000000000000000000000001
:1004FB000000001200E66409001200E61709001262
:10050B0000E62909001200E64109001200E62E0759
:10051B00001200E65307001200E67A07001200E60D
:10052B00A107001200E6C907001200E60508001239
:10053B0000E6BB08002510C582C0E0E51134FFC5FD
:10054B0083C0E0E510C3958224F810AF08858311B2
:10055B008582108008858311858210D2AFCEF0A3DF
:10056B00E520F0A37808E608F0A3DEFAEFF0A3E5A8
:10057B008124FAF8E608F0A3E608F0A3E608F0A356
:10058B000808E608F0A3E608F0A315811581D0E072
:10059B00FED0E0F8158115811581E8C0E0EEC0E0D2
:1005AB0022851183851082E0A3FEE0A3F520780855
:1005BB00E0A3F608DFFAE0A3FFE0A3C0E0E0A3C0EE
:1005CB00E0E0A3C0E0E0A3C0E0E0A3C0E010AF0810
:1005DB008582108583118008858210858311D2AFA7
:1005EB00D083D0820200E3C0D02510C582C0E0E5E5
:1005FB001134FFC583C0E0E510C3958224F310AF1F
:10060B00088583118582108008858311858210D21D
:10061B00AFC8F0A3E9F0A3EAF0A3EBF0A37908E7E6
:10062B0009F0A3D8FAECF0A3EDF0A3EEF0A3EFF0F2
:10063B00A3D0E0F0A3D0E0F0A3D0E0F0A3E520F04E
:10064B00A3E5F0F0A322851183851082E0C0E0A31F
:10065B00E0F9A3E0FAA3E0FBA37808E0F608A3DF38
:10066B00FAE0FCA3E0FDA3E0FEA3E0FFA3E0C0E003
:10067B00A3E0C0E0A3E0F5D0A3E0F520A3E0A3F551
:10068B00F010AF0885831185821080088583118552
:10069B008210D2AFD082D083D0E0F8D0E032C0E06D
:1006AB0074F21205F2C2C779041204FE7F0102062E
:1006BB0051C0E074F21205F2758900C2C5790412BB
:1006CB0004FE7F01020651C0E074F21205F2C2C3B0
:1006DB00900F00E0F8A3E0F9E82401FAE93400FBFD
:1006EB00900F00EAF0A3EBF0C3E89465E9940040A7
:1006FB0014900F007400F0A37400F0D2F0A29030AD
:10070B00F001B392907F01020651C0E0C0D0C082CD
:10071B00C083C28BE5C1900F02F0D083D082D0D0C2
:10072B00D0E032801C78087907E8FCE9FDEC24FF67
:10073B00F8ED34FFF9EC4D70F0EA24FFFAEB34FFDF
:10074B00FBEA4B70E00200E378087400D292780069
:10075B008009D296D295E9C333F908E8C3940850BF
:10076B000BC29574805970EAC29680E80200E37858
:10077B00087400C29278008009D296D295E9C333EF
:10078B00F908E8C39408500BC29574805970EAC2FB
:10079B009680E80200E374F7120540E9FEEAFF7465
:1007AB00B02FF9120522EEC4540F4410F912052292
:1007BB00740F5E4401F91205227F010205AC74F738
:1007CB00120540E9FE750800800EEEF912051C0FAC
:1007DB00EFC3948040F40508E508C39408501674E1
:1007EB00B02508F91205227901120522791012059C
:1007FB00227F0080DB7F010205ACC082C08353F4F3
:10080B001B43FEE4D295C2977A327B00120516D2B7
:10081B009779AE1205227900120522791012052262
:10082B007940120522798112052279CF120522799E
:10083B00A112052279C812052279A612052279A8E0
:10084B00120522793F12052279D312052279001263
:10085B00052279D5120522798012052279D9120544
:10086B002279F112052279DA120522791212052268
:10087B0079DB1205227940120522792012052279A3
:10088B0002120522798D120522791412052279A400
:10089B0012052279A612052279AF12052279FF12D1
:1008AB00052E7A007900120528D083D0820200E34E
:1008BB0074F61205407E00803D8F08750900EEF836
:1008CB007900E875F080A4C8AAF075F000A42AFAA4
:1008DB0075F080E9A42AF9E50828F8E50939F974D7
:1008EB000328F582740F39F583E0F912051C0FEF1D
:1008FB00C3948040C40EEEC39408500BEEFA7900FB
:10090B001205287F0080E87F020205ACEAA2E09284
:10091B0090EAA2E09291EAA2E092940200E3C082F4
:10092B00C08343FE1343FD027A007B00120504D003
:10093B0083D0820200E30200E31205107E00120551
:10094B000A120534790012052E800A0EEEC39408A4
:10095B0040F912053A7E0080F3E9C394045008E98C
:0D096B0042BE75870180037587000200E31E
:0000CB0134
:00000001FF
