:030000000200CB30
:0300130002033BAA
:03002B000202CFFF
:03005B000202F8A6
:10006B000202E200000080FB1200FBB90003020059
:10007B00B5E4900F00780479018002F0A3D8FCD985
:10008B00FA900F03AA82AB839000FE78217901804E
:10009B0015E493A3AC82AD838A828B83F0A3AA82EF
:1000AB00AB838C828D83D8E9D9E775829E758305E6
:1000BB0074001200DD75826E75830074001200DD12
:1000CB0075D0007581BF75100075110F759F0002FB
:1000DB000073C09FF59FE473D09F22D083D082C062
:1000EB009FE493C0E0740193C0E0740293F59F22E8
:1000FB00790122106106E00026221A02C20A12328E
:10010B0006020004FC03202011110905FF05091943
:10011B003110001200E6D005001200E64205001275
:10012B0000E67105001200E68305001200E69B0550
:10013B00001200E65403001200E67903001200E6F9
:10014B00A003001200E6C703001200E6EF03001243
:10015B0000E62B04001200E6E104002510C582C066
:10016B00E0E51134FFC583C0E0E510C3958224F8A8
:10017B0010AF0885831185821080088583118582D5
:10018B0010D2AFCEF0A3E520F0A37808E608F0A3D9
:10019B00DEFAEFF0A3E58124FAF8E608F0A3E6080F
:1001AB00F0A3E608F0A30808E608F0A3E608F0A31E
:1001BB0015811581D0E0FED0E0F8158115811581F0
:1001CB00E8C0E0EEC0E022851183851082E0A3FE3B
:1001DB00E0A3F5207808E0A3F608DFFAE0A3FFE040
:1001EB00A3C0E0E0A3C0E0E0A3C0E0E0A3C0E0E078
:1001FB00A3C0E010AF08858210858311800885822B
:10020B0010858311D2AFD083D0820200E3C0D025FA
:10021B0010C582C0E0E51134FFC583C0E0E510C313
:10022B00958224F310AF0885831185821080088591
:10023B008311858210D2AFC8F0A3E9F0A3EAF0A333
:10024B00EBF0A37908E709F0A3D8FAECF0A3EDF0F3
:10025B00A3EEF0A3EFF0A3D0E0F0A3D0E0F0A3D097
:10026B00E0F0A3E520F0A3E5F0F0A3228511838550
:10027B001082E0C0E0A3E0F9A3E0FAA3E0FBA378CF
:10028B0008E0F608A3DFFAE0FCA3E0FDA3E0FEA381
:10029B00E0FFA3E0C0E0A3E0C0E0A3E0F5D0A3E063
:1002AB00F520A3E0A3F5F010AF088583118582102C
:1002BB008008858311858210D2AFD082D083D0E0A5
:1002CB00F8D0E032C0E074F2120218C2C7790412FF
:1002DB00011E7F01020277C0E074F21202187589C9
:1002EB0000C2C5790412011E7F01020277C0E074BF
:1002FB00F2120218C2C3900F00E0F8A3E0F9E82451
:10030B0001FAE93400FB900F00EAF0A3EBF0C3E82D
:10031B009465E994004014900F007400F0A37400EE
:10032B00F0D2F0A29030F001B392907F01020277ED
:10033B00C0E0C0D0C082C083C28BE5C1900F02F079
:10034B00D083D082D0D0D0E032801C78087907E8F7
:10035B00FCE9FDEC24FFF8ED34FFF9EC4D70F0EA0D
:10036B0024FFFAEB34FFFBEA4B70E00200E3780862
:10037B007400D29278008009D296D295E9C333F9F2
:10038B0008E8C39408500BC29574805970EAC29662
:10039B0080E80200E378087400C29278008009D2EA
:1003AB0096D295E9C333F908E8C39408500BC2956C
:1003BB0074805970EAC29680E80200E374F7120168
:1003CB0066E9FEEAFF74B02FF9120148EEC4540F30
:1003DB004410F9120148740F5E4401F91201487F71
:1003EB00010201D274F7120166E9FE750800800E56
:1003FB00EEF91201420FEFC3948040F40508E508B3
:10040B00C39408501674B02508F9120148790112EB
:10041B00014879101201487F0080DB7F010201D275
:10042B00C082C08353F41B43FEE4D295C2977A3249
:10043B007B0012013CD29779AE1201487900120170
:10044B00487910120148794012014879811201480C
:10045B0079CF12014879A112014879C81201487964
:10046B00A612014879A8120148793F12014879D3A5
:10047B00120148790012014879D51201487980128E
:10048B00014879D912014879F112014879DA120140
:10049B0048791212014879DB120148794012014860
:1004AB0079201201487902120148798D120148799D
:1004BB001412014879A412014879A612014879AFA8
:1004CB0012014879FF1201547A00790012014ED0C3
:1004DB0083D0820200E374F5120166E9FE8A0AAA50
:1004EB000AEEF912014E7F0080178F087509007410
:1004FB00032508F582740F3509F583E0F9120142E3
:10050B000FEFC3941040E37401250AFAEEF91201C0
:10051B004E7F1080178F0875090074032508F5822C
:10052B00740F3509F583E0F91201420FEFC39420E4
:10053B0040E37F030201D27C007D008019E8240197
:10054B00F8E93400F9C3E89417E9940240EFEC247E
:10055B0001FCED3400FDC3EC9AED9B50067800795D
:10056B000080E20200E3EAA2E09290EAA2E092911C
:10057B00EAA2E092940200E3C082C08343FE1343DD
:10058B00FD027A007B0012012AD083D0820200E3A5
:10059B000200E31201367E0012013012015A79007B
:1005AB00120154800E0EEEC3940840F97AD07B07EB
:1005BB001201247A0079001201607A02791012017B
:1005CB00607E0080E1E9C394045008E942BE758760
:0905DB000180037587000200E3B2
:0000CB0134
:00000001FF
