:030000000200CB30
:0300130002071BC6
:03002B000206AF1B
:03005B000206D8C2
:10006B000206C200000080FB1200FBB90003020075
:10007B00B5E4900F00780479018002F0A3D8FCD985
:10008B00FA900F03AA82AB839000FE78017905806A
:10009B0015E493A3AC82AD838A828B83F0A3AA82EF
:1000AB00AB838C828D83D8E9D9E77582A6758309DA
:1000BB0074001200DD75826E75830074001200DD12
:1000CB0075D0007581BF75100075110F759F0002FB
:1000DB000073C09FF59FE473D09F22D083D082C062
:1000EB009FE493C0E0740193C0E0740293F59F22E8
:1000FB007901220000000000000000000000000059
:10010B0000000000000000000000000000000000E4
:10011B0000000000000000000000000000000000D4
:10012B0000000000000000000000000000000000C4
:10013B0000000000FFFF33FFFF00FFFFC3DBDBDF2F
:10014B00CF0000207F1F637F3F007F7F2037183F4A
:10015B0073200080809098CCDF776666F6DE8E8009
:10016B0080800000616167363E1F0706667E3F0197
:10017B000100002030F8EC676FFCF810F8F800FE77
:10018B00FE000000003F7F60666773300F0F607FDB
:10019B003F000000667E7EE7FF7E6600FEFE66E6A1
:1001AB00E7630000331B637F3F0B5B703F0F007FE8
:1001BB007F000000000000000000000000000000B5
:1001CB000000000000000000000000000000000024
:1001DB000000000000000000000000000000000014
:1001EB000000000000000000000000000000000004
:1001FB00000000106106E00026221A02C20A123229
:10020B0006020004FC03202011110905FF05091942
:10021B00311000101010FE1010FE0000FC0000004A
:10022B00FE00000808044724180700001F00000008
:10023B007F0000040404E4242425FE24242424E465
:10024B000404000000003F000000FF000010201F0E
:10025B000000000000F848484848FF48484848F864
:10026B0000000000000F040404043F444444444FC6
:10027B0040700000422C2410FF0464A4243F24246B
:10028B0024040020211111F94523030509112945E7
:10029B00C1410010129272FE51910022CC0000FF5E
:1002AB0000000004020100FF00040404020202FF2C
:1002BB00010100080888FF482800C848487F48C843
:1002CB004808000141807F00404020130C0C122194
:1002DB0060200020202424A4643C272424A424246C
:1002EB002020000000000001010911294503010035
:1002FB000000000010608000FF000000FF00806025
:10030B0038100020202023213F2020203F222120B5
:10031B0030200020202424A4643C272424A424245B
:10032B0020200000000000010109112945030100F4
:10033B00000000106001866008080809FE08080824
:10034B000808000404FE0140404141417F41414106
:10035B0041400000404242424242FEC242424242BF
:10036B0042400040402010080403003F4040404002
:10037B00407000406058C76200909090FF90929C34
:10038B00948000202223121212202010130C14220E
:10039B0040F8004041C60000F2525256FA5A56F24B
:1003AB0000000040201F20405F4242425F4A524FF4
:1003BB0040400020212EE4004242FE42424202FE17
:1003CB000000000000007F2010007F000000003FB5
:1003DB0040380040404040404040FF40404040409B
:1003EB00404000000000000000007F000000000003
:1003FB000000004020100CE3222222FE22222222A7
:10040B000200000404040407040404FF04040404AD
:10041B000404002030AC63100040422222121A2642
:10042B0042C000222322121200202121213F212130
:10043B0021200002FA8282FE8040605846485020FC
:10044B0020200008080424403F222C212E20302C91
:10045B002320004042424242FE42424242FE42427E
:10046B00424200004020100C03000000007F0000FF
:10047B00000000080808FF48280A02E29E828282D8
:10048B008202000242817F000804037F202020208B
:10049B007F00004020D04C434448D8301000FC0073
:1004AB0000FF0000003F404042444378000007201B
:1004BB00403F0020242C35E6342C2400FC2424E27D
:1004CB0022220021114D817F05592118070000FFC1
:1004DB00000000000000F000000000000000000021
:1004EB000000000000005F000000000000000000A2
:1004FB000000001200E6E609001200E64A090012AD
:10050B0000E67909001200E68B09001200E6A30948
:10051B00001200E63407001200E65907001200E64D
:10052B008007001200E6A707001200E6CF070012B3
:10053B0000E60B08001200E6C108002510C582C0BA
:10054B00E0E51134FFC583C0E0E510C3958224F8C4
:10055B0010AF0885831185821080088583118582F1
:10056B0010D2AFCEF0A3E520F0A37808E608F0A3F5
:10057B00DEFAEFF0A3E58124FAF8E608F0A3E6082B
:10058B00F0A3E608F0A30808E608F0A3E608F0A33A
:10059B0015811581D0E0FED0E0F81581158115810C
:1005AB00E8C0E0EEC0E022851183851082E0A3FE57
:1005BB00E0A3F5207808E0A3F608DFFAE0A3FFE05C
:1005CB00A3C0E0E0A3C0E0E0A3C0E0E0A3C0E0E094
:1005DB00A3C0E010AF088582108583118008858247
:1005EB0010858311D2AFD083D0820200E3C0D02517
:1005FB0010C582C0E0E51134FFC583C0E0E510C330
:10060B00958224F310AF08858311858210800885AD
:10061B008311858210D2AFC8F0A3E9F0A3EAF0A34F
:10062B00EBF0A37908E709F0A3D8FAECF0A3EDF00F
:10063B00A3EEF0A3EFF0A3D0E0F0A3D0E0F0A3D0B3
:10064B00E0F0A3E520F0A3E5F0F0A322851183856C
:10065B001082E0C0E0A3E0F9A3E0FAA3E0FBA378EB
:10066B0008E0F608A3DFFAE0FCA3E0FDA3E0FEA39D
:10067B00E0FFA3E0C0E0A3E0C0E0A3E0F5D0A3E07F
:10068B00F520A3E0A3F5F010AF0885831185821048
:10069B008008858311858210D2AFD082D083D0E0C1
:1006AB00F8D0E032C0E074F21205F8C2C779041238
:1006BB0004FE7F01020657C0E074F21205F875893B
:1006CB0000C2C579041204FE7F01020657C0E07414
:1006DB00F21205F8C2C3900F00E0F8A3E0F9E8248A
:1006EB0001FAE93400FB900F00EAF0A3EBF0C3E84A
:1006FB009465E994004014900F007400F0A374000B
:10070B00F0D2F0A29030F001B392907F0102065725
:10071B00C0E0C0D0C082C083C28BE5C1900F02F095
:10072B00D083D082D0D0D0E032801C78087907E813
:10073B00FCE9FDEC24FFF8ED34FFF9EC4D70F0EA29
:10074B0024FFFAEB34FFFBEA4B70E00200E378087E
:10075B007400D29278008009D296D295E9C333F90E
:10076B0008E8C39408500BC29574805970EAC2967E
:10077B0080E80200E378087400C29278008009D206
:10078B0096D295E9C333F908E8C39408500BC29588
:10079B0074805970EAC29680E80200E374F7120580
:1007AB0046E9FEEAFF74B02FF9120528EEC4540F88
:1007BB004410F9120528740F5E4401F91205287FC5
:1007CB00010205B274F7120546E9FE750800800EAA
:1007DB00EEF91205220FEFC3948040F40508E508EB
:1007EB00C39408501674B02508F912052879011224
:1007FB00052879101205287F0080DB7F010205B2E6
:10080B00C082C08353F41B43FEE4D295C2977A3265
:10081B007B0012051CD29779AE12052879001205C0
:10082B00287910120528794012052879811205289C
:10083B0079CF12052879A112052879C812052879D4
:10084B00A612052879A8120528793F12052879D315
:10085B00120528790012052879D5120528798012FE
:10086B00052879D912052879F112052879DA1205AC
:10087B0028791212052879DB1205287940120528F0
:10088B0079201205287902120528798D120528790D
:10089B001412052879A412052879A612052879AF18
:1008AB0012052879FF1205347A00790012052ED033
:1008BB0083D0820200E374F412054689088A0A8BFE
:1008CB000B750900E50BAE0B7F00EE75F020A4CE87
:1008DB00A8F075F000A428F875F020EFA428FFAA63
:1008EB000AA90812052E750900801974032EF582CA
:1008FB00740F3FF583E0F9120522EE2401FEEF346D
:10090B0000FF0509E509C3941040E07401250AFABC
:10091B00A90812052E750900801974032EF582742F
:10092B000F3FF583E0F9120522EE2401FEEF3400B0
:10093B00FF0509E509C3941040E07F040205B27C72
:10094B00007D008019E82401F8E93400F9C3E8942C
:10095B0017E9940240EFEC2401FCED3400FDC3ECED
:10096B009AED9B50067800790080E20200E3EAA240
:10097B00E09290EAA2E09291EAA2E092940200E364
:10098B00C082C08343FE1343FD027A007B00120535
:10099B000AD083D0820200E30200E31205167E0028
:1009AB0012051012053A79FF120534802AEEFB7AF4
:1009BB000075F010EEA4F912054074082EFB7A02B4
:1009CB0075F010EEA4F91205400EEEC3940840DD4D
:1009DB007AD07B071205047E0080EFE9C3940450A4
:0F09EB0008E942BE75870180037587000200E3AB
:0000CB0134
:00000001FF
