:030000000200CB30
:03001300020DB12A
:03005B00020D6E25
:10006B00020D4C00000080FB1200FBB900030200E4
:10007B00B5E4900F00783879018002F0A3D8FCD951
:10008B00FA900F37AA82AB839000FE785B790180E0
:10009B0015E493A3AC82AD838A828B83F0A3AA82EF
:1000AB00AB838C828D83D8E9D9E775824A75831E21
:1000BB0074001200DD75826E75830074001200DD12
:1000CB0075D0007581BF75100075110F759F0002FB
:1000DB000073C09FF59FE473D09F22D083D082C062
:1000EB009FE493C0E0740193C0E0740293F59F22E8
:1000FB00790122252E30326600000080420000007C
:10010B000030313233343536373839414243444588
:10011B004600286E756C6C20706F696E7465722961
:10012B00003F3F3F000000807F0000803FF9021539
:10013B0050B743BA510000204100E7DB2E0000A06E
:10014B004010000000080000000A0000001200E64A
:10015B00FB20001200E67520001200E6A42000121E
:10016B0000E6B620001200E6191E001200E6301E53
:10017B00001200E6FD1F001200E61420001200E63C
:10018B007A1F001200E6BF1F001200E6CE200012FD
:10019B0000E6DA1E001200E6041F001200E6CA0D8C
:1001AB00001200E6E81200C008C3E096F50808A3A9
:1001BB00E096420808A3E096420808A3E09642089E
:1001CB00A2D265D033E5087001D3D0082208080805
:1001DB00E630E711120A141201F0080808C6448031
:1001EB00C618181822181818E9799EC608CAC60826
:1001FB00CBC608CCC6C370207996CACBCC70197904
:10020B008ECBCC70137986CC700EF9802ACA33CA88
:10021B00CB33CBCC33CC331930E7F2CCCBCA335006
:10022B00147004EA30E00DE4CA3ACACB3BCBCC3CA9
:10023B00CC500209C3E913C6CC182313C6CB18C67E
:10024B00CA18C6F92212029020F01430E72B74FF63
:10025B00FCFBFA747F8022E4FCFBFA7480801AB4F6
:10026B008008BC00F2BB00EF800F50EBF9E4C39A9F
:10027B00FAE49BFBE49CFCE499C6CC18C6CB18C6ED
:10028B00CA18C6F922E4C9C608CAC608CBC6D333F6
:10029B000308CCC63392F0C3947F402E94184019B8
:1002AB00C9B90704CACBCC225025C309CA33CACB60
:1002BB0033CBCC33CC33D9F422F4600DC9CCC3137C
:1002CB00CB13CBCA13CAD9F6CC22E4FCFBFA22140B
:1002DB00FCFBFA22E6C33318461846184622E7C33E
:1002EB003319471947194722181818E6084608709A
:1002FB000AE608C3337005E633F4220822191919EC
:10030B00E7094709700AE709C3337005E733F4229D
:10031B000922E6084608C3134608336002E633F4A5
:10032B0022E7094709C3134709336002E733F42275
:10033B0012031D602512032C60201202DF700302D2
:10034B0002E9080808E76670101819E766700A18C2
:10035B0019E76670041819E76622F42212031D6070
:10036B001C12032C60171202DF70071202E97001D6
:10037B00D322C0D01202E97006D0D0B322C32233ED
:10038B00D0D0501430E0F6C3E7960809E796080979
:10039B00E7960809E796B32220E0D5E6970809E629
:1003AB00970809E6970809E697B32212031D601B0D
:1003BB0012032C60161202DF70071202E9600CB3F5
:1003CB0022C0D01202E97005D0D022C32233D0D084
:1003DB00501330E0EBC3E7960809E7960809E79658
:1003EB000809E7962220E0E4E6970809E697080952
:1003FB00E6970809E697220012031D604F12032CA3
:10040B006012E7548066F61202F370111202E97063
:10041B003B090909F4F618F618F618F62212030828
:10042B0070151202DF08080860EAE6447FF61876BA
:10043B008018E4F618F6221202DF60161202E97039
:10044B0012E4F608F608F608E65480F609090918CE
:10045B00181822EAC0E0EBC0E0ECC0E0EDC0E0E62B
:10046B0087F0A4FBACF008E687F0A42CFCE435F095
:10047B00FA1809E687F0A42C4B60027401CA35F018
:10048B00FCE433FB09E687F0D2F7A42CCB35F0FC68
:10049B001908E687F0A42BCC35F0FBE433FD0819E3
:1004AB00E687F0D2E7A42C4ACB35F0CD3400FC091B
:1004BB00E687F0D2E7A42DCC35F0FDE433FA09182A
:1004CB00E687F0D2F7A42CCD35F0CA3400FC08E651
:1004DB0087F0D2E7D2F7A42ACC35F07A7E20E70B4F
:1004EB000ACB33CBCD33CDCC33CC33CB3350147091
:1004FB0004ED30E00ED2F1E4CD3DCDCC3CCC3B5005
:10050B0005DA05C2F1EB547FC63308E63392F0FBF4
:10051B00E73309E733C39A502D2B70190C0D4C4D53
:10052B0070151806E608C333700D20F10AA2F013FC
:10053B00F6E418800B4024E4F630F002768018F6CF
:10054B0018F618F68024D33B14501074FFA2F01346
:10055B00F6187680E418F618F6800FA2F013F6184A
:10056B00E63303F618ECF618EDF6D0E0FDD0E0FC20
:10057B00D0E0FBD0E0FA2212032C604612031D6080
:10058B003DE9687008F618F618F618F622748067BD
:10059B00F71205B6090909748067F72212031D606B
:1005AB001D12032C7005191919801A1202F3701FF2
:1005BB00120308C37003E66733191919400718189B
:1005CB00182208080874FFF618F618F618F6221207
:1005DB00030860171202E9702192F01202DF701902
:1005EB00501720F014080808090909E7F61819E74D
:1005FB00F61819E7F61819E7F6221202DF60E6E89B
:10060B0069701F0808E62480F608E436F618547F54
:10061B00B47F0CE654806007F6E418F618F622183F
:10062B001822E9C6CC08C6CD08C6CE08C6CFC0E096
:10063B00E8C0E0EAC0E0EBC0E009E9F809E7FA0935
:10064B00E7FBE6F918E6F8C3EC98ED99EE9AEBC2E6
:10065B00E7F5F0EFC2E795F0500E600CEBCFFBEA3D
:10066B00CEFAE9CDF9E8CCF8EAA2E7D2E7FAEB3318
:10067B00FB13F5F0EEA2E7D2E7FEEF33FFC5F01365
:10068B00A2E730E601B313C5F0C3C0E0C0F07F00B2
:10069B00C39BFB605B9418600C401AD0E023F9D02D
:1006AB00E0F80207858AF0E9486003D2F0E4AFF086
:1006BB00FAF9F8803BEB30E40D89F0EA6003D2F0F5
:1006CB00E4AFF0F9CAF8EB30E30D88F0EF6002D23B
:1006DB00F0AFF0E4CAC9F8EB54076014FBC3EA139C
:1006EB00FAE913F9E813F8EF135002D2E0FFDBED50
:1006FB00D0E0C0E030E739C3E49FFFF5F0EC98FCA5
:10070B0042F0ED99FD42F0EE9AFE42F0D0E0F9D0C6
:10071B00E0F8E5F0607AE923F9EE20E742D80280B1
:10072B0067C3EF33FFEC33FCED33FDEE33FE80EAB2
:10073B00EC28FCED39FDEE3AFED0E023F9D0E0F8E1
:10074B004002801BC3EE13FEED13FDEC13FCEF1305
:10075B005002D2E0FF08B800067F7F74FF802EEFB7
:10076B003350178CF020F00260100CBC000C0DBD48
:10077B0000080EBE000408E860DFE933E813FFEE63
:10078B002313FE4F4D4C8008E95480FFE4FEFDFC23
:10079B00EE33EF33F47004FCFD7E80D0E0FBD0E051
:1007AB00FAD0E0F8D0E0CFC618CEC618CDC618CC1C
:1007BB00C6F92212031D70041818182212032C708C
:1007CB000D74FFF61819F61819F61819F622E754D6
:1007DB008066F61202DF700F1202E970F014F60851
:1007EB00F608F608F680D11202E9700CF608F60846
:1007FB00768008E6447F80EC12030B700C1202F635
:10080B0060BFE65480F6E480BB1202F6700519193E
:10081B001980A5E869700C763F18768018F618F6E3
:10082B00E8F922E6CDC0E018ECC0E0E633CD33CDDD
:10083B00D313F6E719FCE7191933CC33C3947F4074
:10084B000ECD9D502408E65480F6E418F6800FF484
:10085B00043D14501408E6447FF6187680E418F62D
:10086B0018F6D0E0FCD0E0FD22CCD313CCFD18E47D
:10087B00C6CBC0E018E4C6CAC0E00808ED08C63312
:10088B00E613F618E433C675F003C3CA97CA09CB4F
:10089B0097CB199C40047D08802EBD00030209678D
:1008AB0016B6FF050606081618C3CA33CACB33CBD8
:1008BB0033CA27CA09CB37CB193CC37D08803E18F6
:1008CB007D0820E75CC633C6CA33CACB33CB33DDD6
:1008DB00F1D5F0EB30E77BCA97CA09CB974ACB1916
:1008EB009C406F4B7025E620E0218066187D08C385
:1008FB00CA97CA09CB97CB199CD3C633C6CA33CA7E
:10090B00CB33CB3350C9DDE7D5F0E1D3E4C636C6E4
:10091B0008C636C608C636C608C636C618181880A6
:10092B0031C3CA97CA09CB97CB199CB34097C6332F
:10093B00C6CA33CACB33CB33DD34D5F02EC6A2E0D7
:10094B00C640C8CA27CA09CB37194A70BECB3CB4BC
:10095B0080B90808E63308E633601F181818D0E092
:10096B00FAD0E0FBD0E0FCD0E0FD22187D08CA27CE
:10097B00CA09CB37CB193CD3808013F618E4B67F6A
:10098B0011F618B6FF0EF618C60470D2080876805A
:10099B0080CAF618F618F680C5E4CFC0E0E4CEC0E6
:1009AB00E0E4CDC0E0E4CCC0E075F020C3E633F664
:1009BB0008E633F608E633F608E633F6181818ECB3
:1009CB0033FCED33FDEE33FEEF33FFC3EC9709ED54
:1009DB009709EE9709EF97191919400FFFEC97FC40
:1009EB0009ED97FD09EE97FE191906D5F0BEECF748
:1009FB0009EDF709EEF709EFF7191919D0E0FCD05B
:100A0B00E0FDD0E0FED0E0FF22181818E4C396F604
:100A1B0008E496F608E496F608E496F622E0F60863
:100A2B00A3E0F608A3E0F608A3E0F622E6F008A39D
:100A3B00E6F008A3E6F008A3E6F022E0FAA3E0FB59
:100A4B00A3E0FCA3E0FD22EAF0A3EBF0A3ECF0A300
:100A5B00EDF022CAC0E0E6F0A308DAFAD0E0FA2201
:100A6B00CAC0E0E0A3C582CCC582C583CDC583F0E7
:100A7B00A3C582CCC582C583CDC583DAE6D0E0CAD7
:100A8B0022C3E498F8E499F9120ACD8026C3E49ABC
:100A9B00FAE49BFBE920E7E9120ACDE498F8E49924
:100AAB00F922C3E498F8E499F9120ACDE498F8E432
:100ABB0099F9C3E49AFAE49BFB22EB20E7CFE920F8
:100ACB00E7E0B90010BB0008E88AF084F8AAF0222E
:100ADB00E4FBC8FA22EB70227B10C833C8C933C9B8
:100AEB00335007C39AC3DBF280069A50012ADBEA24
:100AFB00C833F4C8C933F4C9FA2275F008E4C83313
:100B0B00C8C933C933C99AC99B5004C92AC93BD533
:100B1B00F0ECFBC833F4C8E4C9FA22600C08C6C376
:100B2B0013C618C613C6D5E0F422700422600D1844
:100B3B00C6C333C608C633C6D5E0F4182225101039
:100B4B00AF08F510400215118008F5104002151181
:100B5B00D2AF22C0D0251010AF08F51050020511EE
:100B6B008008F51050020511D2AFD0D0222510F518
:100B7B008210AF08F510400215118008F5104002E5
:100B8B001511D2AF851183222510F582E43511F5AD
:100B9B008322E4732510C582C0E0E51134FFC583C1
:100BAB00C0E0E510C3958224F810AF08858311854A
:100BBB0082108008858311858210D2AFCEF0A3E519
:100BCB0020F0A37808E608F0A3DEFAEFF0A3E581A6
:100BDB0024FAF8E608F0A3E608F0A3E608F0A30869
:100BEB0008E608F0A3E608F0A315811581D0E0FE16
:100BFB00D0E0F8158115811581E8C0E0EEC0E02248
:100C0B00851183851082E0A3FEE0A3F5207808E030
:100C1B00A3F608DFFAE0A3FFE0A3C0E0E0A3C0E087
:100C2B00E0A3C0E0E0A3C0E0E0A3C0E010AF088504
:100C3B0082108583118008858210858311D2AFD0F5
:100C4B0083D0820200E3C0D02510C582C0E0E5113D
:100C5B0034FFC583C0E0E510C3958224F310AF08C1
:100C6B008583118582108008858311858210D2AF10
:100C7B00C8F0A3E9F0A3EAF0A3EBF0A37908E70926
:100C8B00F0A3D8FAECF0A3EDF0A3EEF0A3EFF0A3F2
:100C9B00D0E0F0A3D0E0F0A3D0E0F0A3E520F0A3E8
:100CAB00E5F0F0A322851183851082E0C0E0A3E07C
:100CBB00F9A3E0FAA3E0FBA37808E0F608A3DFFAB8
:100CCB00E0FCA3E0FDA3E0FEA3E0FFA3E0C0E0A3F4
:100CDB00E0C0E0A3E0F5D0A3E0F520A3E0A3F5F09E
:100CEB0010AF08858311858210800885831185825A
:100CFB0010D2AFD082D083D0E0F8D0E03274048031
:100D0B0006740280027401C0E0F404120B78D0E088
:100D1B00120A5E2274028000CCC0E0EDC0E0E51048
:100D2B00C39CCCAD1150011D10AF068C108D1180E2
:100D3B00068C108D11D2AF120A6BD0E0FDD0E0FC07
:100D4B0022C0E074F2120C517A0A7B0012015ED2BF
:100D5B00F0A29130F001B39291758900C2C57F0169
:100D6B00020CB0C0E074F2120C51C2C3900F00E041
:100D7B00F8A3E0F9E82401FAE93400FB900F00EA4C
:100D8B00F0A3EBF0C3E89465E994004014900F00D6
:100D9B007400F0A37400F0D2F0A29030F001B39283
:100DAB00907F01020CB0C0E0C0D0C082C083C28B68
:100DBB00E5C1900F02F0D083D082D0D0D0E0327456
:100DCB00F0120B9F74FD120B487402120B93E9F097
:100DDB008A088B098C0A8D0B7415120B93E0FEA3FA
:100DEB00E0FF851082851183E4F0A3F08E828F8360
:100DFB00A3AA82AB83900F69780C120A2878087922
:100E0B000C12033B70188E828F8374691212A974B3
:100E1B006EF0A37466F0A30A0AAB8302124478083F
:100E2B00790812033B60118E828F83746E1212A9A4
:100E3B007461F0A3746E80DD900F6D780C120A282C
:100E4B007808790C1203675003020EF4900F417867
:100E5B000C120A287808790C12033B6003020F4826
:100E6B007417120B93E07003020F8A8510828511A1
:100E7B0083C082C0837413120B93121CE7D083D0F0
:100E8B0082121282502C851082851183C3E094FC50
:100E9B00A3E094FFA2D265D03340177402120B93D8
:100EAB00E4121DBBF97413120B93C3E098F0A3E08B
:100EBB0099F07413120B9312129F7418120B93E088
:100ECB007003020F877417120B93E4020F89900FB4
:100EDB0071780C120A287808790C1207BE851082DB
:100EEB00851183E0240A121DF8900F75780C120AF5
:100EFB00287808790C12036740D4900F79780C127C
:100F0B000A287808790C1203674003020E6B900FC6
:100F1B0079780C120A287808790C1207BE121DEF8B
:100F2B0080D8900F71780C120A287808790C12046B
:100F3B0002851082851183E024F61212A2900F7D98
:100F4B00780C120A287808790C1203B640D4900F4B
:100F5B006D780C120A287808790C1203B64003023C
:100F6B000E6B900F79780C120A287808790C120402
:100F7B000285108285118312129F80D27401F07446
:100F8B0002120B93E060077A007B0002109612129C
:100F9B008E507D8E828F837430F0EAFEEBFF7413DC
:100FAB00120B93E0FCA3E0FDEC4D70087418120BD0
:100FBB0093E0600B8E828F83742EF0A30EAF837A37
:100FCB00007B0080118E828F8374301212CA7413CF
:100FDB00120B9312129FEA24FF1AEB34FFFB8510BE
:100FEB0082851183121276500B7413120B93121C01
:100FFB00EB4970D185108285118374FFC39CF87403
:10100B00FF9DF912128250030211647A01020F94B0
:10101B00851082851183121CE7C3E498FAE499FBCF
:10102B00806985080C85090D850A0E850B0F780CD8
:10103B00120250AC0CE50D3395E0F50EF50F780C64
:10104B001201D87808790C120582900F79780C125E
:10105B000A287808790C120402EC1212C4EAF8EB95
:10106B00F9E824010AE93400FBE849701E741312F5
:10107B000B93121CEB4970087418120B93E0600B66
:10108B008E828F83742EF0A30EAF837413120B9387
:10109B00121276508D900F81780C120A28780879ED
:1010AB000C12036740030211647C01EE24FFF8EF7E
:1010BB0034FFF97415120B93E0F508A3E0F50988DA
:1010CB00828983E0642E6010E02CF0643A70077420
:1010DB0030F07C0180027C00E8FAE9FBEA24FF187F
:1010EB00EB34FFF9C3E5089AE5099B40D2ECA2E08B
:1010FB0050677402120B93E06036EEF8EF800A1221
:10110B001261E824FF18E934FFF9C3E50898E509F3
:10111B0099501812124EE0642E70E4E824FEF5820A
:10112B00E934FFF58312125BF980D7121DEF801E95
:10113B008E828F83A3AE82AF83EEF8EF80061212FE
:10114B004E12125BF9C3E50898E5099940F0741546
:10115B00120B93121D067431F07417120B93E0707F
:10116B0005801A1EAF83EE24FFF582EF34FFF58363
:10117B00E0643060EEE0642E70031EAF83740212E5
:10118B000B93E070030212401212C6A3A983121232
:10119B008E8E828F835014742DF00EE9FF85108292
:1011AB00851183121D2F1212B78006742BF00EE9D6
:1011BB00FF7C007D00EE240AFEEF3400FFEC2401DF
:1011CB000CED3400FD121268120AC5EA1212C41299
:1011DB001268120AC51212D14970E2C3EC9402EDE7
:1011EB00121C9840D8ECFAEDFBC3E49CF8E49DF993
:1011FB00EE28F582EF39F583E0C0E0C3E49AF8E41A
:10120B009BF9EE28F8EF39F9E82CF8E93DF9E824D9
:10121B00F5F582E934FFF583D0E0F0EC24FF1CED0B
:10122B0034FFFDC3EC9401ED121C9850BCEE24F678
:10123B00FEEF34FFFFEEFAEFFB7403120B5E7F0839
:10124B00020C0BE824FFFAE934FFFB8A828B832222
:10125B0012126118EB22E088828983F022851082BA
:10126B00851183121D3C7A0A7B0022C3E09AA3E00E
:10127B009BA2D265D03322C3E098A3E099A2D2659A
:10128B00D03322851082851183C3A3E09400A2D2B0
:10129B0065D03322E024FFF0A3E034FFF022F0EA24
:1012AB00FEEBFF8E828F8322A3E03400F985108240
:1012BB00851183E8F0A3E9F02224308E828F83F02E
:1012CB00A3AE82AF83228510828511831212DB229B
:1012DB00E8F0A3E9F0851082851183E02274F01207
:1012EB000B9F74B0120B48851082851183121DA1C0
:1012FB007418120B93ECF0A3EDF0740F120B93E434
:10130B00F0A380227460120B93121CD77404120B7F
:10131B0093E0F97418120B93121D06120B9D740FA8
:10132B00120B93121CA0F0121D1AFA121DDA120BDB
:10133B0093EAF074256A6010E070C9740F120B9376
:10134B00121CD77450021246121D1A64257019858F
:10135B001082851183E02401081212B37460120B02
:10136B0093121CD7792580AB740E120B93E4F07497
:10137B000D120B93E4F0740C120B93E4F074051242
:10138B000B93E4F0741E120B93A882A983740212C0
:10139B000B9380157405120B93E070077405120BF9
:1013AB0093EAF08510828511831212D7121CCE128C
:1013BB001D61FA24E060DD24FD601724F860DD2454
:1013CB00FE600624FD600F8011740C120B93E00479
:1013DB0080D0740D80F5740E80F1121D61642A703B
:1013EB005B7462120B93121D6CFB8A828B83E0FC85
:1013FB00A3E0FD740A120B93ECF0A3EDF0EA2402C8
:10140B000A0AEB3400FB7462120B93121D99740AD7
:10141B00120B93121294501F740A120B93121CD7B7
:10142B00C3E49AFAE49BFB740A120B93121DA1748A
:10143B000C120B93E004F01212B8804A740A120BD0
:10144B0093E4F0A3802D740A120B93121CEB75F02E
:10145B000AA4F8AAF075F00AE9A42AF9E50828F815
:10146B00E439F9E824D0F8E934FFF9740A120B9344
:10147B00121DFF121DBBF5838882E0F50874D02581
:10148B0008C3940A40C0740C120B93E06007740EEF
:10149B00120B93E4F0121D1A642E600302153385B0
:1014AB001082851183E0240108A3E03400F91212A5
:1014BB00D1121D0BE0642A702C7462120B93121D57
:1014CB0020F8A3E0F988828983E0FEA3E0FFE824FB
:1014DB00020808E93400F97462120B93121D5412BE
:1014EB001DFFF080477E007F0085108285118312DF
:1014FB001D2974D02508C3940A5031EE75F00AA447
:10150B00FEA8F075F00AEFA428FFE5082EF8E43FDB
:10151B00F9E824D0FEE934FFFF851082851183E0C2
:10152B002401F81212B380C17EFF7FFF7A00851071
:10153B0082851183121CC9851082851183E0FBA360
:10154B00E0F5838B82E024B4600824E4600524FC7E
:10155B0070040A1212B8121D1AFB121DDA120B9329
:10156B00EBF07003021B3E24BB7003021A0424FE33
:10157B0070030219E624EF700302173024F5700391
:10158B000216351470030217D5147003021A0414D3
:10159B007003021A021470030219E624FE70030290
:1015AB0017D524FB60241470030217201470030258
:1015BB00173024FD700302166E24FE7003021730E1
:1015CB0024FD7003021730021B4A7462120B931234
:1015DB001D93120B931212BEEAA2E0740F5033123A
:1015EB000B93E0FCA3E0FD3395E0FE7406120B9326
:1015FB00121D74ECF0A3EDF0A3EEF0A3F0746212E5
:10160B000B93121D7B120B93121D54E8F0A3E902EE
:10161B001331120B93121CE77406120B93121D6CF1
:10162B00F5838A82E8F0A3E980D27462120B9312DD
:10163B001D74E0C0E0741E120B93D0E0F0746212C4
:10164B000B93121D7B120B93121D541212BE741F9F
:10165B00120B93A882A9837412120B93E8F0A3E9DF
:10166B00021B617462120B93121D93120B931212D5
:10167B00BE7406120B93121D93120B93E02402FA05
:10168B00A3E03400FB7462120B93121D99740212C7
:10169B000B931212BEE849700C7402120B93745622
:1016AB00F0A3740FF0121C9650047E107F27740861
:1016BB00120B93E4F0A380087408120B93121CA076
:1016CB00F07402120B93121CE788828983A3AA82FF
:1016DB00AB837402120B93121DA188828983E06085
:1016EB000A7408120B93121CF040CD7402120B9368
:1016FB00121CB77412120B931212BE7408120B93B6
:10170B00121D2FF97412120B93E028F8A3E039F98C
:10171B007402021664740D120B93E06008EE4F70A6
:10172B00047E017F007462120B93121D93120B93B4
:10173B00121DE7120B93E0647070387406120B9352
:10174B00121D89120B93121DC2120B93E02402126D
:10175B001D4B120B93121D541212BE900F85120AC1
:10176B0046741A120B93120A527405120B93E4F07F
:10177B00021865EAA2E07406501B120B93121D06A9
:10178B00120A467414120B93120A527406120B931C
:10179B00E024048012120B93121D89120B93121D5D
:1017AB00C2120B93E02402121D4B120B93121D5409
:1017BB00121DE7120B93E0646F7005900F89809EEA
:1017CB00E064757096900F8D80947462120B931277
:1017DB001D93120B931212BEEAA2E074065016125E
:1017EB000B93121D067808120A287406120B93E04D
:1017FB002404F8801B120B93121D29A3E0F5093367
:10180B0095E0F50AF50B7406120B93E02402080819
:10181B00121D4C120B93121DCF120B937808120A48
:10182B0037900F4178081201B240217405120B93C7
:10183B00742DF07414120B937808120A287808127E
:10184B000A177414120B937808120A37900F8D1223
:10185B000A46741A120B93120A52744F120B93A866
:10186B0082A9837402120B931212BE7412120B9381
:10187B00121DD2120B937808120A28E50845094568
:10188B000A450B60097411120B93740180067411D5
:10189B00120B93E4F0EE4F7008E0A2E04003021944
:1018AB00597402120B93121D00120B93121DD212BC
:1018BB000B93780C120A28741A120B937808120ADD
:1018CB0028780C79081209A474452508F582740F41
:1018DB003509F583E0C0E07402120B93121D06D09C
:1018EB00E0F07414120B93780C120A28741A120B72
:1018FB00937808120A28780C79081209A474141228
:10190B000B93780C120A377414120B937808120A83
:10191B0028E5084509450A450B7086121C96502E82
:10192B00740E120B93E060267405120B93E06004A7
:10193B00D2F08002C2F0740A120B93121CA9800E13
:10194B007402120B93121DB3120B93121D1374021C
:10195B00120B93121CB7744F120B93C082C083747B
:10196B0002120B93121CD7D083D082E582C39AFA52
:10197B00E5839BFBC3EA9EEB121CF940C3740D126B
:10198B000B93E07003021B627411120B93E0A2E045
:10199B004003021B627404120B93E064786005E051
:1019AB006458701E121261E824FF18E934FFF974B1
:1019BB0002120B93121DB3120B93121D06743002FD
:1019CB001B61E0646F6003021B627402120B9312C3
:1019DB001D6764307003021B6280D47408120B9372
:1019EB007401F0A3E4F07404120B93E024FEF0EE08
:1019FB004F700F7E018012E4F07408120B93E4F029
:101A0B00A3F0121C9650047E067F007462120B9397
:101A1B00121D93120B931212BE7406120B93121D0E
:101A2B0006780C120A287406120B93E02404121D7C
:101A3B004B120B93121DCF120B93780C120A37908B
:101A4B000F417808120A28780C79081203B6502235
:101A5B007405120B93742DF07414120B93780812F7
:101A6B000A28E50BB2E7F50B7414120B93780812E6
:101A7B000A37740A120B93121CE7741E120B93E5B0
:101A8B008228F8E58339F97402120B931212BE7493
:101A9B000D120B93E0F5087808120D107409120B58
:101AAB0093E0F5087808120D107404120B93120DC5
:101ABB001F8E088F097808120D0C740A120B93E015
:101ACB00F9741A120B93120A461201A67406120B22
:101ADB005E7412120B93121DA1740E120B93E06025
:101AEB00767405120B93E06004D2F08002C2F0749E
:101AFB000A120B93121CA97412120B93C082C0838F
:101B0B007402120B93121CE7D083D082E0C398F8B7
:101B1B00A3E099F9C3E89EE9121CF9503A7402123A
:101B2B000B93121D00120B93121DB3120B93121D6C
:101B3B001380C4851082851183121CC01212B774D6
:101B4B0002120B937465F0A3740FF07412120B93C3
:101B5B007468F0A3740FF07412120B93C082C083DD
:101B6B007402120B93121CE7D083D082E0C398FE51
:101B7B00A3E099FF740A120B93121CF0500A74081D
:101B8B00120B93E4F0A380307405120B93E0600406
:101B9B00D2F08002C2F0740A120B93E0C39EF8A33A
:101BAB00E09FF9A2F0E433FAE89AF8E99400F974AB
:101BBB0008120B93E8F0A3E9F0740C120B93E0708E
:101BCB002B80197460120B93121CDD120B93121DD8
:101BDB0006120B9D740F120B93121DF57408120B4A
:101BEB0093121DA7120B9312129450D77405120B5C
:101BFB0093E060507460120B93121CD77405120B98
:101C0B0093E0F97418120B93121D06120B9D802C86
:101C1B007460120B93121CD77402120B93121D20BB
:101C2B00F97418120B93121D06120B9D7402120BF2
:101C3B0093121CC97402120B931212BE740F120B67
:101C4B0093121DF5EE24FF1EEF34FFFFC3121C98F9
:101C5B0050BE740C120B93E0700302133274081213
:101C6B000B93121DA7120B931212945003021332F3
:101C7B007460120B93121CDD120B93121D06120BC8
:101C8B009D740F120B93121DF580D2C3EF9400A21B
:101C9B00D265D03322E02401F0A3E0340022A2F07D
:101CAB00E433F8E098FEA3E09400FF22121CBB2261
:101CBB00121CC0F922E024FFF8A3E034FF22E0124B
:101CCB001CCE222401F8A3E03400F922E0FAA3E0B1
:101CDB00FB22E0FAA3E0FB7920741822121D3C22B0
:101CEB00121D3CE822C3E09EA3E0121CF9229FA226
:101CFB00D265D03322121CBB740222121D0A22E0C1
:101D0B00F8A3E0F583888222121D0A7430F0228535
:101D1B001082851183121D2422121D42E022121DF6
:101D2B0024F50822121D3CC3E498F8E49922121DF5
:101D3B0042E0F8A3E0F922E0F8A3E0F583888222E1
:101D4B00F8A3E03400F9746222121D5822E0FAA3C2
:101D5B00E0F5838A8222851082851183121D58E05B
:101D6B0022121D58E0FAA3E022121D24121D0B2291
:101D7B00121D242402F8A3E03400F9746222121D10
:101D8B0039E8FAE9FB741422121D39740622E0FCBF
:101D9B00A3E0F5838C82EAF0A3EBF022E024FFF0C2
:101DAB00A3E034FFF0740822E8F0A3E9F0740222F8
:101DBB001212DFF8A3E022EAF0A3EBF0A3E4F0A306
:101DCB00F0740622121D58E8F0A3E9F07414228572
:101DDB001082851183E0240108121E0DE8F0A3E99F
:101DEB00F0740422851082851183E02401F0A3E0B6
:101DFB003400F0221212DB2401F8121E0DE8F0A3BE
:101E0B00E922A3E03400F985108285118322740046
:101E1B00F59AF5B8F5A853C6BFE59EA2E640FA536E
:101E2B00C6B80200E3C082C08312017012016A12AD
:101E3B00015812018812017CD083D0820200E37416
:101E4B00FA120B48120176807A1201828A088B09EA
:101E5B008C0A8D0B780C79081205A70EEEC39440F3
:101E6B0040E7900F3D7808120A28780C7908120782
:101E7B00BE7508067509007808120D0C7C007D00F4
:101E8B007402120B93AA82AB831201947402120B8D
:101E9B005E780C120D087C377D0F7404120B93AA1D
:101EAB0082AB831201A07404120B5E7C057D00854E
:101EBB001082851183AA82AB8312018E7AE87B0391
:101ECB0012015E900F41780C120A287E00808DC0A3
:101EDB0082C0838A828B83121F71E9F08A828B8383
:101EEB00E02401FCA3E03400FD8A828B83ECF0A399
:101EFB00EDF0D083D0820200E374F6120B9F74FCDA
:101F0B00120B487402120B93EAF0A3EBF0ECFAED10
:101F1B00FB740E120B93A882A98385108285118303
:101F2B00E8F0A3E9F085108285118385820885830B
:101F3B00097808120D0C7404120B938582088583A3
:101F4B00097808120D0C7C9A7D011201AC740412F5
:101F5B000B5E7402120B93121F71E4F07404120BDC
:101F6B005E7F02020C0BE0F8A3E0F58388822274FB
:101F7B00F6120B9F75F10075F30C53FF3F438680F0
:101F8B0043C50B43C2D8C2E943864043A884900F94
:101F9B00037401F07508337509007808120D0C7C79
:101FAB00007D007A047B0F1201947402120B5E7F8A
:101FBB0002020C0B74F7120B9F78007900801E8ABB
:101FCB00828B83E0F5C18A828B83A3AA82AB83A227
:101FDB00E950FCC2E9E82401F8E93400F9C3E89CB4
:101FEB00E99D40DB75C10AA2E950FCC2E97F010201
:101FFB000C0BC082C08390624B7401F09061A9748A
:10200B0001F0D083D0820200E374F4120B9FE5B68B
:10201B00F9C28D75B63EA28D50FCE5BA1313543F31
:10202B00F50875090085BB0A750B007406780A1252
:10203B000B35E50A4508F508E50B4509F50989B6A1
:10204B0074047808120B26E50824B2F508E5093468
:10205B00FEF509E4F50AF50B78081201F3AA08ABB3
:10206B0009AC0AAD0B7F04020C0B7C007D008019C0
:10207B00E82401F8E93400F9C3E89417E994024025
:10208B00EFEC2401FCED3400FDC3EC9AED9B500604
:10209B007800790080E20200E3EAA2E09290EAA2E3
:1020AB00E09291EAA2E092940200E3C082C08343E3
:1020BB00FE1343FD027A007B00120164D083D082B1
:1020CB000200E374F7120B9F7409120B93E0F8A351
:1020DB00E0F98A828B838003ECF0A3E8FEE9FFEE44
:1020EB0024FF18EF34FFF9EE4F70ED7F01020C0B5C
:1020FB0043AB02438C01D2BD5389FDD2AF0200E347
:0000CB0134
:00000001FF
