:030000000200CB30
:03001300020D508B
:03002B00020CE4E0
:03005B00020D0D86
:10006B00020CF700000080FB1200FBB9000302003A
:10007B00B5E4900F00780479018002F0A3D8FCD985
:10008B00FA900F03AA82AB839000FE782A790B803B
:10009B0015E493A3AC82AD838A828B83F0A3AA82EF
:1000AB00AB838C828D83D8E9D9E77582AD758310CC
:1000BB0074001200DD75826E75830074001200DD12
:1000CB0075D0007581BF75100075110F759F0002FB
:1000DB000073C09FF59FE473D09F22D083D082C062
:1000EB009FE493C0E0740193C0E0740293F59F22E8
:1000FB007901227777772E416D6F4D63752E636F84
:10010B006D004F4C454420444953504C41590054C9
:10011B00454C3A313835383832323035313500517B
:10012B00513A20313139343035303700000000007E
:10013B0000000000000000000000000000000000B4
:10014B0000000000000000000000000000000000A4
:10015B000000000000000000000000000000000094
:10016B0000000000000000000000000000FFFF3353
:10017B00FFFF00FFFFC3DBDBDFCF0000207F1F6330
:10018B007F3F007F7F2037183F732000808090983F
:10019B00CCDF776666F6DE8E80808000006161675B
:1001AB00363E1F0706667E3F010100002030F8EC4B
:1001BB00676FFCF810F8F800FEFE000000003F7FB0
:1001CB0060666773300F0F607F3F000000667E7EB6
:1001DB00E7FF7E6600FEFE66E6E7630000331B6307
:1001EB007F3F0B5B703F0F007F7F00000000000024
:1001FB0000000000000000000000000000000000F4
:10020B0000000000000000000000000000000000E3
:10021B0000000000000000000000000000000000D3
:10022B00000000000000000000000000106106E06C
:10023B000026221A02C20A123206020004FC032014
:10024B002011110905FF050919311000101010FEBE
:10025B001010FE0000FC000000FE00000808044720
:10026B0024180700001F0000007F0000040404E4B2
:10027B00242425FE24242424E40404000000003F4D
:10028B00000000FF000010201F0000000000F848D5
:10029B00484848FF48484848F800000000000F0451
:1002AB000404043F444444444F40700000422C2457
:1002BB0010FF0464A4243F242424040020211111E2
:1002CB00F94523030509112945C14100101292720A
:1002DB00FE51910022CC0000FF000000040201003F
:1002EB00FF00040404020202FF010100080888FF5A
:1002FB00482800C848487F48C84808000141807F0B
:10030B0000404020130C0C122160200020202424DC
:10031B00A4643C272424A4242420200000000000F3
:10032B000101091129450301000000000010608044
:10033B0000FF000000FF0080603810002020202309
:10034B00213F2020203F2221203020002020242468
:10035B00A4643C272424A4242420200000000000B3
:10036B0001010911294503010000000010600186FD
:10037B006008080809FE0808080808000404FE01C4
:10038B0040404141417F4141414140000040424298
:10039B00424242FEC2424242424240004040201092
:1003AB00080403003F40404040407000406058C785
:1003BB006200909090FF90929C94800020222312D8
:1003CB001212202010130C142240F8004041C600DA
:1003DB0000F2525256FA5A56F200000040201F20EB
:1003EB00405F4242425F4A524F40400020212EE480
:1003FB00004242FE42424202FE0000000000007F2B
:10040B002010007F000000003F403800404040407B
:10041B00404040FF40404040404040000000000052
:10042B000000007F00000000000000004020100CC6
:10043B00E3222222FE2222222202000004040404D0
:10044B0007040404FF040404040404002030AC6318
:10045B00100040422222121A2642C00022232212EE
:10046B001200202121213F212121200002FA82822A
:10047B00FE80406058464850202020000808042485
:10048B00403F222C212E20302C2320004042424280
:10049B0042FE42424242FE42424242000040201093
:1004AB000C03000000007F0000000000080808FF9C
:1004BB0048280A02E29E8282828202000242817FE7
:1004CB00000804037F202020207F00004020D04C18
:1004DB00434448D8301000FC0000FF0000003F40B0
:1004EB00404244437800000720403F0020242C3535
:1004FB00E6342C2400FC2424E222220021114D811D
:10050B007F05592118070000FF000000000000F0D4
:10051B000000000000000000000000000000005F71
:10052B0000000000000000000000000000000000C0
:10053B00000000000000000000000000000000F8B8
:10054B0000000000000000333000000000100C061B
:10055B00100C0600000000000000000040C07840B6
:10056B00C0784000043F04043F040400007088FC82
:10057B0008300000001820FF211E0000F008F000DA
:10058B00E018000000211C031E211E0000F008884B
:10059B00700000001E2123241927211010160E00B5
:1005AB00000000000000000000000000000000E060
:1005BB001804020000000007182040000002041875
:1005CB00E00000000040201807000000404080F0D1
:1005DB00804040000202010F01020200000000F007
:1005EB00000000000101011F0101010000000000DB
:1005FB000000000080B07000000000000000000050
:10060B0000000000000101010101010100000000D8
:10061B00000000000030300000000000000000006F
:10062B0080601804006018060100000000E010084C
:10063B000810E000000F102020100F00001010F821
:10064B00000000000020203F202000000070080860
:10065B0008887000003028242221300000300888E0
:10066B00884830000018202020110E000000C02008
:10067B0010F8000000070424243F240000F8088829
:10068B00880808000019212020110E0000E01088B6
:10069B0088180000000F112020110E0000380808E8
:1006AB00C83808000000003F0000000000708808F8
:1006BB0008887000001C222121221C0000E0100879
:1006CB000810E0000000312222110F00000000C0D2
:1006DB00C00000000000003030000000000000806F
:1006EB00000000000000806000000000000080405F
:1006FB002010080000010204081020004040404078
:10070B0040404000040404040404040000081020CA
:10071B00408000000020100804020100007048080F
:10072B000808F0000000003036010000C030C82877
:10073B00E810E0000718272423140B000000C03832
:10074B00E0000000203C23020227382008F88888AC
:10075B0088700000203F202020110E00C0300808B8
:10076B0008083800071820202010080008F808088F
:10077B000810E000203F202020100F0008F8888888
:10078B00E8081000203F20202320180008F8888854
:10079B00E8081000203F200003000000C0300808CC
:1007AB000838000007182020221E020008F8080055
:1007BB000008F808203F210101213F20000808F81C
:1007CB00080800000020203F20200000000008083F
:1007DB00F8080800C08080807F00000008F888C0FF
:1007EB0028180800203F20012638200008F80800B0
:1007FB0000000000203F20202020300008F8F800E7
:10080B00F8F80800203F003F003F200008F830C0F8
:10081B000008F808203F200007183F00E0100808E8
:10082B000810E0000F10202020100F0008F8080817
:10083B000808F000203F210101010000E01008082A
:10084B000810E0000F18242438504F0008F888884F
:10085B0088887000203F2000030C3020007088082F
:10086B00080838000038202121221C00180808F83D
:10087B00080818000000203F2000000008F80800BE
:10088B000008F808001F202020201F00087888008F
:10089B0000C83808000007380E010000F80800F8FF
:1008AB000008F800033C0700073C030008186880A9
:1008BB008068180820302C03032C30200838C8001F
:1008CB00C83808000000203F20000000100808086E
:1008DB00C83808002038262120201800000000FE10
:1008EB00020202000000007F40404000000C30C0BC
:1008FB0000000000000000010638C00000020202E8
:10090B00FE000000004040407F0000000000040299
:10091B0002020400000000000000000000000000C4
:10092B0000000000808080808080808000020204B4
:10093B0000000000000000000000000000008080AC
:10094B00808000000019242222223F2008F800801A
:10095B0080000000003F112020110E0000000080DD
:10096B0080800000000E112020201100000000806C
:10097B008088F800000E112020103F20000080809E
:10098B0080800000001F222222221300008080F0B2
:10099B00888888180020203F2020000000008080DD
:1009AB0080808000006B94949493600008F8008022
:1009BB0080800000203F210000203F20008098987D
:1009CB00000000000020203F2020000000000080DD
:1009DB009898000000C08080807F000008F800001D
:1009EB0080808000203F24022D302000000808F872
:1009FB00000000000020203F20200000808080802D
:100A0B0080808000203F20003F20003F80800080BE
:100A1B0080800000203F210000203F2000008080CC
:100A2B0080800000001F202020201F00808000807D
:100A3B008000000080FFA12020110E00000000802C
:100A4B0080808000000E112020A0FF80808080001D
:100A5B008080800020203F2120000100000080804A
:100A6B00808080000033242424241900008080E03F
:100A7B00808000000000001F20200000808000000C
:100A8B0000808000001F202020103F2080808000ED
:100A9B000080808000010E300806010080800080FD
:100AAB00008080800F300C030C300F000080800022
:100ABB00808080000020312E0E312000808080004D
:100ACB000080808080818E701806010000808080FD
:100ADB00808080000021302C22213000000000009B
:100AEB00807C020200000000003F4040000000003C
:100AFB00FF00000000000000FF0000000002027C6D
:100B0B00800000000040403F000000000006010193
:100B1B000202040400000000000000001200E69A2C
:100B2B0011001200E64111001200E67011001200D4
:100B3B00E68211001200E6AA10001200E6690D0011
:100B4B001200E68E0D001200E6B50D001200E6DC79
:100B5B000D001200E6040E001200E6400E0012001B
:100B6B00E6760E001200E62C0F001200E6211000B4
:100B7B002510C582C0E0E51134FFC583C0E0E51048
:100B8B00C3958224F810AF088583118582108008E5
:100B9B00858311858210D2AFCEF0A3E520F0A37828
:100BAB0008E608F0A3DEFAEFF0A3E58124FAF8E6F5
:100BBB0008F0A3E608F0A3E608F0A30808E608F09F
:100BCB00A3E608F0A315811581D0E0FED0E0F8155F
:100BDB008115811581E8C0E0EEC0E0228511838587
:100BEB001082E0A3FEE0A3F5207808E0A3F608DF6F
:100BFB00FAE0A3FFE0A3C0E0E0A3C0E0E0A3C0E005
:100C0B00E0A3C0E0E0A3C0E010AF088582108583AD
:100C1B00118008858210858311D2AFD083D08202D8
:100C2B0000E3C0D02510C582C0E0E51134FFC583B9
:100C3B00C0E0E510C3958224F310AF0885831185BE
:100C4B0082108008858311858210D2AFC8F0A3E98A
:100C5B00F0A3EAF0A3EBF0A37908E709F0A3D8FA25
:100C6B00ECF0A3EDF0A3EEF0A3EFF0A3D0E0F0A334
:100C7B00D0E0F0A3D0E0F0A3E520F0A3E5F0F0A3E3
:100C8B0022851183851082E0C0E0A3E0F9A3E0FA8E
:100C9B00A3E0FBA37808E0F608A3DFFAE0FCA3E0EF
:100CAB00FDA3E0FEA3E0FFA3E0C0E0A3E0C0E0A350
:100CBB00E0F5D0A3E0F520A3E0A3F5F010AF088595
:100CCB0083118582108008858311858210D2AFD065
:100CDB0082D083D0E0F8D0E032C0E074F2120C2D59
:100CEB00C2C77904120B277F01020C8CC0E074F28F
:100CFB00120C2D758900C2C57904120B277F0102D6
:100D0B000C8CC0E074F2120C2DC2C3900F00E0F8F3
:100D1B00A3E0F9E82401FAE93400FB900F00EAF0B4
:100D2B00A3EBF0C3E89465E994004014900F0074B2
:100D3B0000F0A37400F0D2F0A29030F001B39290C7
:100D4B007F01020C8CC0E0C0D0C082C083C28BE597
:100D5B00C1900F02F0D083D082D0D0D0E032801C73
:100D6B0078087907E8FCE9FDEC24FFF8ED34FFF98E
:100D7B00EC4D70F0EA24FFFAEB34FFFBEA4B70E02A
:100D8B000200E378087400D29278008009D296D2E0
:100D9B0095E9C333F908E8C39408500BC2957480E6
:100DAB005970EAC29680E80200E378087400C29298
:100DBB0078008009D296D295E9C333F908E8C39439
:100DCB0008500BC29574805970EAC29680E80200F5
:100DDB00E374F7120B7BE9FEEAFF74B02FF9120BE9
:100DEB0051EEC4540F4410F9120B51740F5E4401B1
:100DFB00F9120B517F01020BE774F7120B7BE9FE23
:100E0B00750800800EEEF9120B4B0FEFC394804068
:100E1B00F40508E508C39408501674B02508F912B8
:100E2B000B517901120B517910120B517F0080DBA2
:100E3B007F01020BE774F7120B7B7F00800D7900AB
:100E4B00120B4B0EEEC3948040F40FEFC39408507B
:100E5B001574B02FF9120B517901120B5179101235
:100E6B000B517E0080DE7F01020BE7C082C08353F3
:100E7B00F41B43FEE4D295C2977A327B00120B45EA
:100E8B00D29779AE120B517900120B517910120BCC
:100E9B00517940120B517981120B5179CF120B51B1
:100EAB0079A1120B5179C8120B5179A6120B5179FA
:100EBB00A8120B51793F120B5179D3120B517900B8
:100ECB00120B5179D5120B517980120B5179D91222
:100EDB000B5179F1120B5179DA120B517912120B6A
:100EEB005179DB120B517940120B517920120B51B6
:100EFB007902120B51798D120B517914120B517916
:100F0B00A4120B5179A6120B5179AF120B5179FF29
:100F1B00120B5D7A007900120B57D083D08202003E
:100F2B00E374F0120B7BE9FEEAFF8C0E8D0F750C50
:100F3B00007508007509008047E50CA80C7900E8DE
:100F4B0075F010A4C8AAF075F000A42AFA75F01079
:100F5B00E9A42AF985080A750B00E8250AF8E93592
:100F6B000BF9744428F582741339F583E0F9120BED
:100F7B004B0508E508C3940840BF74082EFE05090D
:100F8B0085090A750B00E50E250AF582E50F350B71
:100F9B00F583E0607C85090A750B00E50E250AF5E3
:100FAB0082E50F350BF583E024E0F50CEEC3947965
:100FBB0040037E000FEFFAEEF9120B577508008015
:100FCB003AE50CA80C7900E875F010A4C8AAF075E6
:100FDB00F000A42AFA75F010E9A42AF985080A751D
:100FEB000B00E8250AF8E9350BF9743C28F58274F7
:100FFB001339F583E0F9120B4B0508E508C3940888
:10100B0040BF74012FFAEEF9120B57750800020F4F
:10101B007E7F08020BE774F4120B7B89088A0A8B1C
:10102B000B750900E50BAE0B7F00EE75F020A4CE1F
:10103B00A8F075F000A428F875F020EFA428FFAAFB
:10104B000AA908120B577509008019743C2EF582FA
:10105B00740F3FF583E0F9120B4BEE2401FEEF34D6
:10106B0000FF0509E509C3941040E07401250AFA55
:10107B00A908120B577509008019743C2EF5827460
:10108B000F3FF583E0F9120B4BEE2401FEEF34001A
:10109B00FF0509E509C3941040E07F04020BE7024A
:1010AB0000E3120B3F7E00120B39120B6979FF1212
:1010BB000B5D807EEEFB7A0075F010EEA4F9120B3F
:1010CB007574082EFB7A0275F010EEA4F9120B75ED
:1010DB0074102EFB7A0475F010EEA4F9120B7574D4
:1010EB00182EFB7A0675F010EEA4F9120B750EEEA6
:1010FB00C3940840BF7AD07B07120B2D120B637C75
:10110B00037D0F7A007905120B6F7C127D0F7A022B
:10111B007914120B6F7C1F7D0F7A047908120B6FF9
:10112B007C2F7D0F7A067908120B6F7AD07B071212
:10113B000B2D7E0080B97C007D008019E82401F81E
:10114B00E93400F9C3E89417E9940240EFEC240169
:10115B00FCED3400FDC3EC9AED9B50067800790052
:10116B0080E20200E3EAA2E09290EAA2E09291EA26
:10117B00A2E092940200E3C082C08343FE1343FDBE
:10118B00027A007B00120B33D083D0820200E3E99A
:10119B00C394045008E942BE75870180037587002C
:0311AB000200E35C
:0000CB0134
:00000001FF
