:030000000200CB30
:0300130002091DC2
:03002B000208B117
:03005B000208DABE
:10006B000208C400000080FB1200FBB90003020071
:10007B00B5E4900F00780479018002F0A3D8FCD985
:10008B00FA900F03AA82AB839000FE780979078060
:10009B0015E493A3AC82AD838A828B83F0A3AA82EF
:1000AB00AB838C828D83D8E9D9E77582BC75830BC2
:1000BB0074001200DD75826E75830074001200DD12
:1000CB0075D0007581BF75100075110F759F0002FB
:1000DB000073C09FF59FE473D09F22D083D082C062
:1000EB009FE493C0E0740193C0E0740293F59F22E8
:1000FB0079012231323334353637383930313233B6
:10010B0034353637383930313233000000000000D7
:10011B000000000000000000000000000000F800DC
:10012B00000000000000333000000000100C06102F
:10013B000C0600000000000000000040C07840C02A
:10014B00784000043F04043F040400007088FC085E
:10015B00300000001820FF211E0000F008F000E026
:10016B0018000000211C031E211E0000F0088870DF
:10017B000000001E2123241927211010160E000049
:10018B000000000000000000000000000000E0186C
:10019B00040200000000071820400000020418E0D1
:1001AB000000000040201807000000404080F08055
:1001BB004040000202010F01020200000000F000AB
:1001CB000000000101011F010101000000000000FF
:1001DB0000000080B0700000000000000000000074
:1001EB0000000000010101010101010000000000FD
:1001FB000000000030300000000000000000008014
:10020B00601804006018060100000000E0100808E8
:10021B0010E000000F102020100F00001010F8004D
:10022B000000000020203F2020000000700808087C
:10023B008870000030282422213000003008888884
:10024B004830000018202020110E000000C02010A4
:10025B00F8000000070424243F240000F8088888D5
:10026B000808000019212020110E0000E0108888DA
:10027B00180000000F112020110E0000380808C8CC
:10028B003808000000003F000000000070880808DC
:10029B00887000001C222121221C0000E01008089D
:1002AB0010E0000000312222110F00000000C0C03E
:1002BB000000000000003030000000000000800053
:1002CB000000000000806000000000000080402063
:1002DB00100800000102040810200040404040407C
:1002EB0040400004040404040404000008102040EF
:1002FB00800000002010080402010000704808086C
:10030B0008F0000000003036010000C030C828E8BB
:10031B0010E0000718272423140B000000C038E05E
:10032B00000000203C23020227382008F888888828
:10033B00700000203F202020110E00C0300808085C
:10034B00083800071820202010080008F8080808B3
:10035B0010E000203F202020100F0008F88888E8CC
:10036B00081000203F20202320180008F88888E878
:10037B00081000203F200003000000C030080808D0
:10038B0038000007182020221E020008F808000081
:10039B0008F808203F210101213F20000808F80838
:1003AB000800000020203F2020000000000808F873
:1003BB00080800C08080807F00000008F888C028F3
:1003CB00180800203F20012638200008F8080000FC
:1003DB00000000203F20202020300008F8F800F813
:1003EB00F80800203F003F003F200008F830C00015
:1003FB0008F808203F200007183F00E01008080805
:10040B0010E0000F10202020100F0008F80808083B
:10041B0008F000203F210101010000E0100808084E
:10042B0010E0000F18242438504F0008F8888888F3
:10043B00887000203F2000030C30200070880808D3
:10044B000838000038202121221C00180808F80861
:10045B000818000000203F2000000008F8080000EA
:10046B0008F808001F202020201F000878880000B3
:10047B00C83808000007380E010000F80800F80023
:10048B0008F800033C0700073C030008186880804D
:10049B0068180820302C03032C30200838C800C8FB
:1004AB003808000000203F2000000010080808C892
:1004BB003808002038262120201800000000FE02FA
:1004CB000202000000007F40404000000C30C000E2
:1004DB00000000000000010638C00000020202FE0E
:1004EB00000000004040407F0000000000040202BA
:1004FB0002040000000000000000000000000000EB
:10050B0000000080808080808080800002020400D8
:10051B000000000000000000000000000080808050
:10052B008000000019242222223F2008F80080803E
:10053B00000000003F112020110E00000000808001
:10054B00800000000E112020201100000000808090
:10055B0088F800000E112020103F200000808080C2
:10056B00800000001F222222221300008080F088CE
:10057B008888180020203F20200000000080808009
:10058B00808000006B94949493600008F800808046
:10059B00800000203F210000203F20008098980021
:1005AB000000000020203F20200000000000809869
:1005BB0098000000C08080807F000008F800008059
:1005CB00808000203F24022D302000000808F80016
:1005DB000000000020203F202000008080808080D1
:1005EB00808000203F20003F20003F8080008080E3
:1005FB00800000203F210000203F200000808080F1
:10060B00800000001F202020201F008080008080A1
:10061B0000000080FFA12020110E00000000808050
:10062B00808000000E112020A0FF80808080008041
:10063B0080800020203F212000010000008080806E
:10064B008080000033242424241900008080E08063
:10065B008000000000001F202000008080000000B0
:10066B00808000001F202020103F20808080000011
:10067B0080808000010E3008060100808000800021
:10068B008080800F300C030C300F000080800080C6
:10069B008080000020312E0E3120008080800000F1
:1006AB0080808080818E70180601000080808080A1
:1006BB008080000021302C222130000000000080BF
:1006CB007C020200000000003F404000000000FFE1
:1006DB0000000000000000FF0000000002027C8010
:1006EB000000000040403F00000000000601010236
:1006FB0002040400000000000000001200E60E0CD3
:10070B00001200E6E40B001200E6F60B001200E606
:10071B00B90B001200E63609001200E65B09001265
:10072B0000E68209001200E6A909001200E6D109D1
:10073B00001200E60D0A001200E6C30A002510C5E0
:10074B0082C0E0E51134FFC583C0E0E510C395829C
:10075B0024F810AF088583118582108008858311DA
:10076B00858210D2AFCEF0A3E520F0A37808E6087F
:10077B00F0A3DEFAEFF0A3E58124FAF8E608F0A384
:10078B00E608F0A3E608F0A30808E608F0A3E608DD
:10079B00F0A315811581D0E0FED0E0F8158115810D
:1007AB001581E8C0E0EEC0E022851183851082E060
:1007BB00A3FEE0A3F5207808E0A3F608DFFAE0A398
:1007CB00FFE0A3C0E0E0A3C0E0E0A3C0E0E0A3C073
:1007DB00E0E0A3C0E010AF0885821085831180088C
:1007EB00858210858311D2AFD083D0820200E3C003
:1007FB00D02510C582C0E0E51134FFC583C0E0E50C
:10080B0010C3958224F310AF088583118582108065
:10081B0008858311858210D2AFC8F0A3E9F0A3EA53
:10082B00F0A3EBF0A37908E709F0A3D8FAECF0A357
:10083B00EDF0A3EEF0A3EFF0A3D0E0F0A3D0E0F047
:10084B00A3D0E0F0A3E520F0A3E5F0F0A3228511FF
:10085B0083851082E0C0E0A3E0F9A3E0FAA3E0FBFC
:10086B00A37808E0F608A3DFFAE0FCA3E0FDA3E021
:10087B00FEA3E0FFA3E0C0E0A3E0C0E0A3E0F5D05F
:10088B00A3E0F520A3E0A3F5F010AF088583118555
:10089B0082108008858311858210D2AFD082D083DD
:1008AB00D0E0F8D0E032C0E074F21207FAC2C77998
:1008BB00041207067F01020859C0E074F21207FA0E
:1008CB00758900C2C579041207067F01020859C059
:1008DB00E074F21207FAC2C3900F00E0F8A3E0F93C
:1008EB00E82401FAE93400FB900F00EAF0A3EBF0E7
:1008FB00C3E89465E994004014900F007400F0A3D2
:10090B007400F0D2F0A29030F001B392907F01020C
:10091B000859C0E0C0D0C082C083C28BE5C1900F24
:10092B0002F0D083D082D0D0D0E032801C7808790E
:10093B0007E8FCE9FDEC24FFF8ED34FFF9EC4D7012
:10094B00F0EA24FFFAEB34FFFBEA4B70E00200E322
:10095B0078087400D29278008009D296D295E9C3B8
:10096B0033F908E8C39408500BC29574805970EAA8
:10097B00C29680E80200E378087400C29278008087
:10098B0009D296D295E9C333F908E8C39408500B02
:10099B00C29574805970EAC29680E80200E374F73E
:1009AB00120748E9FEEAFF74B02FF912072AEEC4CA
:1009BB00540F4410F912072A740F5E4401F9120701
:1009CB002A7F010207B474F7120748E9FE75080085
:1009DB00800EEEF91207240FEFC3948040F4050844
:1009EB00E508C39408501674B02508F912072A7944
:1009FB000112072A791012072A7F0080DB7F010280
:100A0B0007B4C082C08353F41B43FEE4D295C29754
:100A1B007A327B0012071ED29779AE12072A790021
:100A2B0012072A791012072A794012072A798112A4
:100A3B00072A79CF12072A79A112072A79C8120738
:100A4B002A79A612072A79A812072A793F12072AB0
:100A5B0079D312072A790012072A79D512072A7936
:100A6B008012072A79D912072A79F112072A79DA23
:100A7B0012072A791212072A79DB12072A794012F8
:100A8B00072A792012072A790212072A798D120771
:100A9B002A791412072A79A412072A79A612072A8F
:100AAB0079AF12072A79FF1207367A0079001207FD
:100ABB0030D083D0820200E374F0120748E9FEEADB
:100ACB00FF8C0E8D0F750C007508007509008047A3
:100ADB00E50CA80C7900E875F010A4C8AAF075F025
:100AEB0000A42AFA75F010E9A42AF985080A750BF7
:100AFB0000E8250AF8E9350BF9742328F582740F01
:100B0B0039F583E0F91207240508E508C39408407A
:100B1B00BF74082EFE050985090A750B00E50E2525
:100B2B000AF582E50F350BF583E0607D85090A75C3
:100B3B000B00E50E250AF582E50F350BF583E02456
:100B4B00E0F50CEEC3947940047E000F0FEFFAEE44
:100B5B00F9120730750800803AE50CA80C7900E80B
:100B6B0075F010A4C8AAF075F000A42AFA75F0105D
:100B7B00E9A42AF985080A750B00E8250AF8E93576
:100B8B000BF9741B28F582740F39F583E0F9120702
:100B9B00240508E508C3940840BF74012FFAEEF949
:100BAB00120730750800020B157F080207B402000C
:100BBB00E31207187E0012071212073C7900120786
:100BCB003680120EEEC3940840F97C037D0F7A0039
:100BDB0079051207427E0080EBEAA2E09290EAA22E
:100BEB00E09291EAA2E092940200E3C082C08343B8
:100BFB00FE1343FD027A007B0012070CD083D082D8
:100C0B000200E3E9C394045008E942BE75870180F2
:070C1B00037587000200E3EE
:0000CB0134
:00000001FF
